:100000000C94821B0C949F1B0C949F1B0C949F1BA5
:100010000C949F1B0C949F1B0C949F1B0C949F1B78
:100020000C949F1B0C949F1B0C949F1B0C949F1B68
:100030000C949F1B0C949F1B0C949F1B0C949F1B58
:100040000C949F1B0C94E6310C949F1B0C949F1BEB
:100050000C949F1B0C949F1B0C949F1B0C94FB2FC8
:100060000C949F1B0C949F1B0C949F1B0C949F1B28
:100070000C949F1B0C949F1B0C949F1B0C949F1B18
:100080000C949F1B0C949F1B0C949F1B0C949F1B08
:100090000C949F1B0C949F1B0C949F1B0C949F1BF8
:1000A0000C949F1B0C949F1B0C949F1B084AD73BDE
:1000B0003BCE016E84BCBFFDC12F3D6C74319ABD37
:1000C00056833DDA3D00C77F11BED9E4BB4C3E915B
:1000D0006BAAAABE000000803F05A84CCDB2D44E4A
:1000E000B93836A9020C50B9918688083CA6AAAA4C
:1000F0002ABE000000803F08000000BE9224491282
:100100003EABAAAA2ABECDCCCC4C3E00000080BE9D
:10011000ABAAAAAA3E00000000BF000000803F007A
:1001200000000000084178D3BB4387D1133D190E6E
:100130003CC3BD4282AD2B3E68EC8276BED98FE1D6
:10014000A93E4C80EFFFBE01C4FF7F3F00000000CE
:10015000000664EC1B3C04BC163E3BE5B93CC93CC4
:1001600037C29E5A3D660498083EEA69AAAA3E0034
:100170000000803F07634236B79BD8A71A396856FC
:1001800018AEBAAB558C1D3CB7CC5763BD6DEDFDB9
:10019000753EF6177231BF000000803F000000007E
:1001A000000000000000000000000000000000004F
:1001B000000000000000000000000000000000003F
:1001C000000000000000000000000000000000002F
:1001D000000000000000000000000000000000001F
:1001E000000000000000000000000000000000000F
:1001F00000000000000000000000000000000000FF
:1002000000C000C0640C721CF8942EBC0EB478942C
:10021000821C039CF001F50D099400000000000011
:100220002041424320496E74657270726574657234
:100230002062792050657465722042726F776E205B
:10024000CF3FB8F49992640CAFB6F8942EBC9EB42C
:10025000AFBE721C821CC895C895C895640C721CF0
:10026000F8942EBC0EB47894821C039CF001F50D1A
:10027000099485E00E94F3180000000000000000CF
:10028000CE3F18F085E00E94F318999200E0902E7E
:100290000EB42EBC640C721C821C039CF001F50D84
:1002A0000994E0913006F1E00290E09330060110ED
:1002B000089584E00E94F3189895089500000000C6
:1002C000CE3F18F085E00E94F318999201E0902E3D
:1002D0000EB42EBC640C721C821C039CF001F50D44
:1002E00009949A918A917A916A910E94AE386993A1
:1002F000799389939993089580916F0A0C9445306E
:10030000CE3F18F085E00E94F318999202E0902EFB
:100310000EB42EBC640C721C821C039CF001F50D03
:1003200009949A918A917A916A910E9463386993AB
:1003300079938993999308950000000000000000CC
:10034000CE3F18F085E00E94F318999203E0902EBA
:100350000EB42EBC640C721C821C039CF001F50DC3
:1003600009949A918A917A916A910E94B835699319
:10037000799389939993089500000000000000008C
:10038000CE3F18F085E00E94F318999204E0902E79
:100390000EB42EBC640C721C821C039CF001F50D83
:1003A00009949A918A917A916A910E94433869934B
:1003B000799389939993089500000000000000004C
:1003C000CE3F18F085E00E94F318999205E0902E38
:1003D0000EB42EBC640C721C821C039CF001F50D43
:1003E00009949A918A917A916A910E9491366993BF
:1003F000799389939993089500000000000000000C
:10040000CE3F18F085E00E94F318999206E0902EF6
:100410000EB42EBC640C721C821C039CF001F50D02
:1004200009949A918A917A916A910E94A13569936F
:1004300079938993999308950000000000000000CB
:10044000CE3F18F085E00E94F318999207E0902EB5
:100450000EB42EBC640C721C821C039CF001F50DC2
:1004600009949A918A917A916A910E946D38699360
:10047000799389939993089500000000000000008B
:10048000CE3F18F085E00E94F318999208E0902E74
:100490000EB42EBC640C721C821C039CF001F50D82
:1004A00009949A918A917A916A910E94B7376993D7
:1004B000799389939993089500000000000000004B
:1004C000CE3F18F085E00E94F318999200E1902E3B
:1004D0000EB42EBC640C721C821C039CF001F50D42
:1004E00009949A918A917A916A910E94B737699397
:1004F000799389939993089500000000000000000B
:10050000CE3F18F085E00E94F318999200E2902EF9
:100510000EB42EBC640C721C821C039CF001F50D01
:10052000099400000000000000000000000000002E
:1005300000000000000000000000000000000000BB
:10054000CE3F18F085E00E94F318999200E4902EB7
:100550000EB42EBC640C721C821C039CF001F50DC1
:1005600009940000000000000000000000000000EE
:10057000000000000000000000000000000000007B
:10058000CE3F18F085E00E94F318999200E8902E73
:100590000EB42EBC640C721C821C039CF001F50D81
:1005A0000994640C721CF8942EBC0EB47894821CCE
:1005B000039CF001F50D099400000000000000000C
:1005C000CD3F60F49992299299240EB42EBC640C0C
:1005D000721C821C039CF001F50D099485E00E94B9
:1005E000F318000000000000000000000000000000
:1005F00000000000000000000000000000000000FB
:10060000CC3F68F499922992299299240EB42EBC79
:10061000640C721C821C039CF001F50D099485E0AA
:100620000E94F3180000000000000000000000001D
:1006300000000000000000000000000000000000BA
:10064000CB3F70F4999229922992299299240EB461
:100650002EBC640C721C821C039CF001F50D0994E5
:1006600085E00E94F3180000000000000000000078
:10067000000000000000000000000000000000007A
:10068000C73F90F49992299229922992299229920E
:100690002992299299240EB42EBC640C721C821CDF
:1006A000039CF001F50D099485E00E94F318000009
:1006B000000000000000000000000000000000003A
:1006C000CF3ED0F499922992299229922992299287
:1006D0002992299229922992299229922992299242
:1006E0002992299299240EB42EBC640C721C821C8F
:1006F000039CF001F50D099485E00E94F3180000B9
:10070000CD3FD0F7999202E0AFB6F8942EBC0EB46C
:10071000099209D02EBC9EB4AFBE600E721C821C22
:10072000C895C8953ECF000000000000000000C042
:10073000089500000000000000000000000000001C
:10074000CC3FA8F4999203E0AFB6F8942EBC0EB457
:100750000992E9DF2EBC0EB40992E5DF2EBC9EB4EF
:10076000AFBE600E721C821CC895C8951ACF85E07A
:100770000E94F318000000000000000000000000CC
:10078000CB3FA8F7999204E0AFB6F8942EBC0EB414
:100790000992600E721C821CC9DF2EBC0EB4099235
:1007A000C2DF2EBC0EB40992BEDF2EBC9EB4AFBE1B
:1007B000BEDFF7CE000000000000000000000000D7
:1007C000CE3F68F49992990C990800000EB42EBCA3
:1007D000640C721C821C039CF001F50D099485E0E9
:1007E0000E94F3180000000000000000000000005C
:1007F00000000000000000000000000000000000F9
:10080000CD3F68F49992990C990899920EB42EBC38
:10081000640C721C821C039CF001F50D099485E0A8
:100820000E94F3180000000000000000000000001B
:1008300000000000000000000000000000000000B8
:10084000CC3F70F49992990C9908999299920EB4B0
:100850002EBC640C721C821C039CF001F50D0994E3
:1008600085E00E94F3180000000000000000000076
:100870000000000000000000000000000000000078
:10088000CE3F60F49992640C721CF8942EBC0EB4A6
:100890007894821C039CF001F50D099485E00E9478
:1008A000F31800000000000000000000000000003D
:1008B0000000000000000000000000000000000038
:1008C000CE3F68F49992DE01A2509C900EB42EBCEB
:1008D000640C721C821C039CF001F50D099485E0E8
:1008E0000E94F3180000000000000000000000005B
:1008F00000000000000000000000000000000000F8
:10090000CE3F68F49992DE01A3509C900EB42EBCA9
:10091000640C721C821C039CF001F50D099485E0A7
:100920000E94F3180000000000000000000000001A
:1009300000000000000000000000000000000000B7
:10094000CE3F68F49992DE01A4509C900EB42EBC68
:10095000640C721C821C039CF001F50D099485E067
:100960000E94F318000000000000000000000000DA
:100970000000000000000000000000000000000077
:10098000CE3F68F49992DE01A5509C900EB42EBC27
:10099000640C721C821C039CF001F50D099485E027
:1009A0000E94F3180000000000000000000000009A
:1009B0000000000000000000000000000000000037
:1009C000CE3F68F49992DE01A6509C900EB42EBCE6
:1009D000640C721C821C039CF001F50D099485E0E7
:1009E0000E94F3180000000000000000000000005A
:1009F00000000000000000000000000000000000F7
:100A0000CE3F68F49992DE01A7509C900EB42EBCA4
:100A1000640C721C821C039CF001F50D099485E0A6
:100A20000E94F31800000000000000000000000019
:100A300000000000000000000000000000000000B6
:100A4000CE3F68F49992DE01A8509C900EB42EBC63
:100A5000640C721C821C039CF001F50D099485E066
:100A60000E94F318000000000000000000000000D9
:100A70000000000000000000000000000000000076
:100A8000CD3F78F49992DE01A2500D9009929D908D
:100A90000EB42EBC640C721C821C039CF001F50D7C
:100AA000099485E00E94F318000000000000000097
:100AB0000000000000000000000000000000000036
:100AC000CD3F78F49992DE01A3500D9009929D904C
:100AD0000EB42EBC640C721C821C039CF001F50D3C
:100AE000099485E00E94F318000000000000000057
:100AF00000000000000000000000000000000000F6
:100B0000CD3F78F49992DE01A4500D9009929D900A
:100B10000EB42EBC640C721C821C039CF001F50DFB
:100B2000099485E00E94F318000000000000000016
:100B300000000000000000000000000000000000B5
:100B4000CD3F78F49992DE01A5500D9009929D90C9
:100B50000EB42EBC640C721C821C039CF001F50DBB
:100B6000099485E00E94F3180000000000000000D6
:100B70000000000000000000000000000000000075
:100B8000CD3F78F49992DE01A6500D9009929D9088
:100B90000EB42EBC640C721C821C039CF001F50D7B
:100BA000099485E00E94F318000000000000000096
:100BB0000000000000000000000000000000000035
:100BC000CD3F78F49992DE01A7500D9009929D9047
:100BD0000EB42EBC640C721C821C039CF001F50D3B
:100BE000099485E00E94F318000000000000000056
:100BF00000000000000000000000000000000000F5
:100C0000CD3F78F49992DE01A8500D9009929D9005
:100C10000EB42EBC640C721C821C039CF001F50DFA
:100C2000099485E00E94F318000000000000000015
:100C300000000000000000000000000000000000B4
:100C4000CD3F78F49992DE01A9500D9009929D90C4
:100C50000EB42EBC640C721C821C039CF001F50DBA
:100C6000099485E00E94F3180000000000000000D5
:100C70000000000000000000000000000000000074
:100C8000CE3F18F085E00E94F3189992AFB6F89421
:100C90002EBC0EB4AFBE640C721C821CDE01A01907
:100CA0009C9000C000C0640C721CF8942EBC0EB462
:100CB0007894821C039CF001F50D0994000000005B
:100CC000CD3F18F085E00E94F3189992AFB6F894E2
:100CD0002EBC0EB4AFBE640C721C821CDE01A019C7
:100CE0000D909C900992640C721CF8942EBC0EB46A
:100CF0007894821C039CF001F50D0994000000001B
:100D0000CB3FC0F49992DE01640C721C0EB42EBC71
:100D1000821CA0190D911D912D919D9009931993FD
:100D200029930EB42EBC640C721C821C039CF0012F
:100D3000F50D099485E00E94F31800000000000002
:100D4000C895C895F8942EBC0EB5789443E0640E0F
:100D5000721C821CDE01A395B2D0F8942EBC1EB585
:100D60007894A11B069510F499929D9099929D906C
:100D700099929D900A95D1F70EB42EBC000056C0F2
:100D8000C89500C0AFB6F8942EBC0EB4AFBE640CCC
:100D9000721C821C092DDE01A0190C939A90000090
:100DA000640C721CF8942EBC0EB47894821C039CC4
:100DB000F001F50D099400000000000000000000A3
:100DC000C89500C0AFB6F8942EBC0EB4AFBE640C8C
:100DD000721C821C192D0A91DE01A0190D931D931E
:100DE0009A900EB42EBC640C721C821C039CF00101
:100DF000F50D099400000000000000000000000054
:100E0000392D2A911A910A910EB42EBC640C721CD1
:100E1000821CDE01A0190D931D932D933D939A9092
:100E200000000EB42EBC640C721C821C039CF001EA
:100E3000F50D099400000000000000000000000013
:100E4000C895C895F8942EBC0EB5789443E0640E0E
:100E5000721C821CDE01A39530D01EB52EBCA11BD6
:100E6000069510F49E929A909E929A909E929A90D5
:100E70000A95D1F70EB42EBC0000D8CF00000000B8
:100E80009992CF3F19F485E00E94F318AFB6F89419
:100E90002EBCAEB542E0640E721C821C0CD02EBC7F
:100EA000BEB5AFBE9C900BD07BCF00000000000011
:100EB0000000000000000000000000000000089595
:100EC0009992CE3F18F085E00E94F3180000F89444
:100ED0002EBCAEB542E0640E721C821CECDF2EBC50
:100EE000BEB578940D919D900993C89559CF000097
:100EF00000000000000000000000000000000000F2
:100F00009992CC3F18F085E00E94F31800C0AEB56E
:100F10002EBC42E0640E721C821CCCDFBEB52EBC1F
:100F20000D911D912D919D9009931993299359CF5E
:100F300000000000000000000000000000000000B1
:100F4000C895C895F8942EBC0EB5789413E0610E40
:100F5000721C821CB2DFF8942EBCAEB57894A8DF68
:100F6000BEB52EBC069510F499929D9099929D90D5
:100F700099929D900A95D1F7000026C100000000CB
:100F8000CF3F18F085E00E94F3189992AFB6F8941D
:100F90002EBCAEB5AFBEB2E09C90640C721C821C3D
:100FA000C89500C0640C721CF8942EBC0EB47894E2
:100FB000821C039CF001F50D0994C895000008956A
:100FC000CE3F18F085E00E94F3189992AFB6F894DE
:100FD0002EBCAEB5AFBEB2E09D9099929C90640CD1
:100FE000721C821C0000640C721CF8942EBC0EB49F
:100FF0007894821C039CF001F50D0994089500007B
:10100000CC3F18F085E00E94F3189992B2E0640C8E
:10101000AEB52EBC721C821C9D9099929D909992A7
:101020009D9099929C900EB42EBC640C721C821CF4
:10103000039CF001F50D0994000000000000000081
:10104000C89500C0AFB6F8942EBCAEB512E0610EE4
:10105000721C821C30DF2EBCBEB5AFBE9C929A9033
:101060002EDF640C721CF8942EBC0EB47894821C93
:10107000039CF001F50D0994000000000000000041
:10108000C89500C0AFB6F8942EBCAEB512E0610EA4
:10109000721C821C10DF2EBCBEB5AFBE1A911D9310
:1010A0009D929A90C895640C721CF8942EBC0EB454
:1010B0007894821C039CF001F50D09940000000057
:1010C0002A911A910A91F8942EBCAEB5392D42E0BE
:1010D000640E721C821CF0DE2EBCBEB578940D939B
:1010E0001D932D933D939A900000640C721CF8940C
:1010F0002EBC0EB47894821C039CF001F50D09946B
:10110000C895C895F8942EBC0EB5789413E0610E7E
:10111000721C821CD2DEF8942EBCAEB5C8DE2EBC8A
:10112000BEB57894A00FB21D069510F49E929A90C9
:101130009E929A909E929A900A95D1F745C000008F
:10114000292D1A910A915A9A33E05A983EBDA090DF
:101150006B06B0906C06A10EB21EADDEBEBCA5DE65
:10116000AEBCA3DE0EBDA2DE2EBCA0DE9EB45A9A9B
:101170005A983EBD0C94C618000000C008950000A7
:10118000292D1A910A9133E000001EB426C0640C88
:10119000721C821CC895C895C895AFB6F8942EBC31
:1011A0000EB4AFBE09921A941414A9F7E6DF9EB4E8
:1011B0005A9A5A983EBD0C94C618000000000000D0
:1011C000B92DAA919D9000C00EB42EBC640C721C67
:1011D000821C039CF001F50D09945A9A33E05A9849
:1011E0003EBDA0906B06B0906C06A10EB21E63DEF1
:1011F000BEBC5BDEAEBC59DE0EBD58DE2EBCC7CF1A
:10120000B92DAA911D9019929D900EB42EBC640C1C
:10121000721C821C039CF001F50D09940000000073
:1012200000000000000000000000000000000000BE
:1012300000000000000000000000000000000000AE
:10124000B92DAA912C2F640C721C821C0EB42EBCDA
:10125000200D20F1069410F49D9099929D90999202
:101260009D9099920A94D1F7CA950EB42EBC640C45
:10127000721C821C039CF001F50D09940000000013
:10128000B92DAA911A901C929A900EB42EBC640C9F
:10129000721C821C039CF001F50D099485E00E94EC
:1012A000F318000000000000000000000000000033
:1012B000000000000000000000000000000000002E
:1012C000B92DAA911A900A909A900D921C920EB480
:1012D0002EBC640C721C821C039CF001F50D099459
:1012E00000000000000000000000000000000000FE
:1012F00000000000000000000000000000000000EE
:10130000B92DAA910000640C721C821C0EB42EBC74
:10131000A00DB21D069410F41A901E921A901E92FF
:101320001A901E920A94D1F79A900EB42EBC640CB7
:10133000721C821C039CF001F50D09940000000052
:10134000CA9598800000640C721CF8942EBC0EB4F0
:101350007894821C039CF001F50D099400000000B4
:10136000000000000000000000000000000000007D
:10137000000000000000000000000000000000006D
:10138000C25098800000640C721CF8942EBC0EB4FD
:101390007894821C039CF001F50D09940000000074
:1013A000000000000000000000000000000000003D
:1013B000000000000000000000000000000000002D
:1013C000C35098800000640C721CF8942EBC0EB4BC
:1013D0007894821C039CF001F50D0994000000C074
:1013E0000000000000000000000000000895000060
:1013F00000000000000000000000000000000000ED
:10140000C45098800000640C721CF8942EBC0EB47A
:101410007894821C039CF001F50D09942EBC3EB516
:101420007894930730F44A91640F751F6993972E4F
:10143000EACF82E00C94F3180000000000000000E6
:10144000C89500C0AFB6F8942EBC0EB4AFBE640C05
:10145000721C821CC01518F485E00E94F318C01994
:10146000988000C0640C721CF8942EBC0EB4789462
:10147000821C039CF001F50D09940000000000009F
:10148000C8959882AFB6F8942EBC0EB4AFBE640C6B
:10149000721C821CC00D18F485E00E94F31898801D
:1014A000C895640C721CF8942EBC0EB47894821CFF
:1014B000039CF001F50D09940000000000000000FD
:1014C000492D640C721C821C00C0F8942EBC0EB412
:1014D000AFBE401588F49A906A91640F921C69938C
:1014E0000000640C721CF8942EBC0EB47894821C1C
:1014F000039CF001F50D099482E00C94F3180000B0
:10150000492D12E0610EC895F8942EBC0EB5789462
:10151000721C821C049F5A9169DFF8942EBC1EB580
:101520007894411748F74A91040E151E0992912CA0
:10153000D8CF000000000000000000000000000004
:10154000992D4A91C895F8942EBC0EB514E0610E01
:10155000721C821C47DF2EBC1EB542DF049F2EBCCE
:101560002EB5B001099F700D149F700D5A91C8954A
:10157000421754CF000000000000000000000000EF
:10158000A92C9A90EA900000F8942EBC0EB578949D
:10159000DA9012E0610E721C821C00C0A09ED00C7A
:1015A000E11C921CF8942EBC1EB57894A11620F470
:1015B000D992E992C89534C182E00C94F3180000E6
:1015C00015DF4EB52EBC16E0610E721C821CC92CB4
:1015D000BA90AA900BDF5EB52EBCFA90EA90DA9032
:1015E0000C946518000000000000000000000000DE
:1015F00000000000000000000000000000000000EB
:101600004A913A9112E0610EF8942EBC0EB578948E
:10161000721C821C2A914217930670F6049FB00137
:101620009A918A911EB52EBC680F791F099D700D85
:10163000149F700D6993972EA5C000000000000054
:101640000C948E1882E00C94F318B00CC11C289FE7
:10165000C00C199FC00C301B410B920A9CF3B2E0E6
:101660006B0E721C821CA992B992C992399349934C
:10167000EDC0099319936993E9C0000000000000D0
:101680006A915A914A913A918EB52EBC2A911A913B
:101690000A9142175307B0F62617390598F2489F6A
:1016A000000D111D9EB52EBC589F110D499F110DA7
:1016B000641B950A3CF2B2E06B0E721C821CD9CFFF
:1016C0004A913A912A911A918EB52EBC0A91FA90BC
:1016D000EA90DA90CA90BA90AA900D151E052F05CF
:1016E00018F59EB52EBCD316E406F904E8F0089F61
:1016F000A00CB11CC21C189FB00CC11C099FA5CF27
:101700009992CE3F18F085E00E94F3180000F894FB
:101710002EBC0EB47894640C721C821C8E010019CD
:101720000993912E00002EC082E00C94F318C89506
:10173000000008950000000000000000000000000C
:101740009992CE3F18F085E00E94F318AFB6F89456
:101750002EBC0EB4AFBE640C721C821C12E0099247
:10176000912E00C00FC0000000000000000000002B
:101770000000000000000000000000000000000069
:101780009394C895640C721CF8942EBC0EB4789493
:10179000821C039CF001F50D09940000000000007C
:1017A0000000000000000000000000000000000039
:1017B0000000000000000000000000000000000029
:1017C0009A940000DFCFE0913006F1E0929182918F
:1017D000B291A2916291E0933006009681F09695C5
:1017E000879508F46D939695879538F46D936D936E
:1017F00004C06D936D936D936D930197D0F7089529
:1018000000C0DE011196AFB6F8942EBC0EB4AFBE88
:10181000640C721C821CA0190C9003940C9200C0E2
:10182000640C721CF8942EBC0EB47894821C039C39
:10183000F001F50D09940000000000000000000018
:10184000B92DAA910D91902E03950E930EB42EBC36
:10185000640C721C821C039CF001F50D09940000BD
:101860000000000000000000000000000000000078
:101870000000000000000000000000000000000068
:10188000B92DAA910D911D910993912E040D121D50
:101890001E930E930EB42EBC640C721C821C039C0F
:1018A000F001F50D099400000000000000000000A8
:1018B0000000000000000000000000000000000028
:1018C000CE3F18F085E00E94F318B92DAA910D9132
:1018D0001D912D9109931993922E040D121D221D15
:1018E0002E931E930E930EB42EBC640C721C821C9D
:1018F000039CF001F50D09940000000000000000B9
:10190000CD3F18F085E00E94F318B92DAA910D91F2
:101910001D912D913D91099319932993932E040DB7
:10192000121D221D321D3E932E931E930E930EB454
:101930002EBC640C721C821C039CF001F50D0994F2
:10194000B92DAA910D91902E0A950E930EB42EBC2E
:10195000640C721C821C039CF001F50D09940000BC
:101960000000000000000000000000000000000077
:101970000000000000000000000000000000000067
:10198000B92DAA910D911D910993912E0419120957
:101990001E930E930EB42EBC640C721C821C039C0E
:1019A000F001F50D099400000000000000000000A7
:1019B0000000000000000000000000000000000027
:1019C000CE3F18F085E00E94F318B92DAA910D9131
:1019D0001D912D9109931993922E04191209220930
:1019E0002E931E930E930EB42EBC640C721C821C9C
:1019F000039CF001F50D09940000000000000000B8
:101A0000CD3F18F085E00E94F318B92DAA910D91F1
:101A10001D912D913D91099319932993932E0419AA
:101A20001209220932093E932E931E930E930EB48F
:101A30002EBC640C721C821C039CF001F50D0994F1
:101A4000CD3F18F085E00E94F318B92DAA916D9151
:101A50007D918D919D91699379938993992E8D01B3
:101A6000112420E030E040E85FE30E94A334D80175
:101A70009E938E937E936E93DACF00000000000059
:101A8000CD3F18F085E00E94F318B92DAA916D9111
:101A90007D918D919D91699379938993992E8D0173
:101AA000112420E030E040E85FE30E94A234D80136
:101AB0009E938E937E936E93BACF00000000000039
:101AC000EA909E0C0000640C721CF8942EBC0EB4BC
:101AD0007894821C039CF001F50D09949A918A91E7
:101AE0007A916A915A914A913A912A910E94F737D4
:101AF0006993799389939993C09330060895000070
:101B0000AA90FA90EA90AE0C9F1CA9920EB42EBC3B
:101B1000640C721C821C039CF001F50D09940000FA
:101B200000000000000000000000000000000000B5
:101B300000000000000000000000000000000000A5
:101B4000BA90AA900A91FA90EA90AE0CBF1C901E2F
:101B5000A992B9920EB42EBC640C721C821C039C18
:101B6000F001F50D099400000000000000000000E5
:101B70000000000000000000000000000000000065
:101B8000CA90BA90AA901A910A91FA90EA90AE0C73
:101B9000BF1CC01E911EA992B992C9920EB42EBC50
:101BA000640C721C821C039CF001F50D099400006A
:101BB0000000000000000000000000000000000025
:101BC000EA90E9189E2C640C721CF8942EBC0EB49A
:101BD0007894821C039CF001F50D0994000000002C
:101BE00000000000000000000000000000000000F5
:101BF00000000000000000000000000000000000E5
:101C0000AA90FA90EA90EA18F908E9929F2C0EB48B
:101C10002EBC640C721C821C039CF001F50D09940F
:101C200000000000000000000000000000000000B4
:101C300000000000000000000000000000000000A4
:101C4000BA90AA900A91FA90EA90EA18FB0809095A
:101C5000E992F992902E0EB42EBC640C721C821C78
:101C6000039CF001F50D0994000000000000000045
:101C70000000000000000000000000000000000064
:101C8000CA90BA90AA901A910A91FA90EA90EA182A
:101C9000FB080C091909E992F9920993912E0EB4E7
:101CA0002EBC640C721C821C039CF001F50D09947F
:101CB0000000000000000000000000000000000024
:101CC000FA90EA90E90CF21CE9929F2C0EB42EBC1B
:101CD000640C721C821C039CF001F50D0994000039
:101CE00000000000000000000000000000000000F4
:101CF00000000000000000000000000000000000E4
:101D00000A91FA90EA90E90CF21C021DE992F9920C
:101D1000902E0EB42EBC640C721C821C039CF0012D
:101D2000F50D099400000000000000000000000014
:101D300000000000000000000000000000000000A3
:101D4000FA90EA90E918F208E9929F2C0EB42EBCA2
:101D5000640C721C821C039CF001F50D09940000B8
:101D60000000000000000000000000000000000073
:101D70000000000000000000000000000000000063
:101D8000FA90EA90E99C9001F99C300D2993932EEA
:101D90000EB42EBC640C721C821C039CF001F50D69
:101DA0000994E99C500D299339934993952E0EB4CB
:101DB0002EBC640C721C821C039CF001F50D09946E
:101DC000EA90E99C902C00C00EB42EBC640C721CEE
:101DD000821C039CF001F50D099400000000000036
:101DE00000000000000000000000000000000000F3
:101DF00000000000000000000000000000000000E3
:101E0000AA90FA90EA90EA9C9001E99C300DFA9C25
:101E1000300D2993932E0EB42EBC640C721C821CC0
:101E2000039CF001F50D0994000000000000000083
:101E300000000000000000000000000000000000A2
:101E4000BA90AA900A91FA90EA90EA9C90010A9DB1
:101E5000902CFA9C300D911CEB9C300D911CFB9C3E
:101E6000900CE99C900C299339930EB42EBC640C11
:101E7000721C821C039CF001F50D09940000000007
:101E8000CA90BA90AA901A910A91FA90EA90EA9CA4
:101E900090010A9DA001FA9C300D411D521DEB9C42
:101EA000300D411D521DFB9C400D511DEC9C400D01
:101EB000511D1A9D500D0B9D500DFC9C500D71CF66
:101EC000792D6A919A918A916215720569F00E9442
:101ED0002D326993972E0EB42EBC640C721C821C9A
:101EE000039CF001F50D099483E00E94F3180000B3
:101EF00000000000000000000000000000000000E2
:101F0000592D4A913A912A919A918A917A916A919E
:101F1000221532054205520549F08E010E946D32AC
:101F2000E801299339934993952ED5CF83E00E94F8
:101F3000F318000000000000000000000000000096
:101F4000792D6A919A918A916215720569F00E94C1
:101F500080396993972E0EB42EBC640C721C821CBF
:101F6000039CF001F50D099483E00E94F318000032
:101F70000000000000000000000000000000000061
:101F8000592D4A913A912A919A918A917A916A911E
:101F9000221532054205520549F08E010E94233573
:101FA000E801299339934993952ED5CF83E00E9478
:101FB000F318000000000000000000000000000016
:101FC000792D6A919A918A916215720569F00E9441
:101FD0002D328993992E0EB42EBC640C721C821C77
:101FE000039CF001F50D099483E00E94F3180000B2
:101FF00000000000000000000000000000000000E1
:10200000592D4A913A912A919A918A917A916A919D
:10201000221532054205520549F08E010E946D32AB
:10202000E801699379938993992ED5CF83E00E9433
:10203000F318000000000000000000000000000095
:10204000792D6A919A918A916215720579F10E94AF
:1020500080398993992E0EB42EBC640C721C821C9C
:10206000039CF001F50D099483E00E94F318000031
:102070000000000000000000000000000000000060
:10208000592D4A913A912A919A918A917A916A911D
:10209000221532054205520549F08E010E94233572
:1020A000E801699379938993992ED5CF83E00E94B3
:1020B000F318000000000000000000000000000015
:1020C000492D0A914830A0F442FD029542FD007F5F
:1020D00041FD000F41FD000F40FD000F902E0EB49A
:1020E0002EBC640C721C821C039CF001F50D09943B
:1020F0009924F5CF0000000000000000000000005F
:10210000492D1A910A91483050F04031A8F4102F0F
:102110000027485021F0000F111F4A95E1F7442392
:10212000D1F70993912E0EB42EBC640C721C821C44
:10213000039CF001F50D099429929924F4CF000035
:10214000492D3A912A911A910A91403158F0403222
:1021500080F4980100271127415134F0000F111F1E
:10216000221F331F4A95D2F7099319932993932E6F
:10217000DACF2992299229929924D5CF0000000024
:10218000492D0A914830A0F442FD029542FD0F709E
:1021900041FD069541FD069540FD0695902E0EB435
:1021A0002EBC640C721C821C039CF001F50D09947A
:1021B000922CF5CF0000000000000000000000009D
:1021C000492D1A910A91483050F04031A8F4012F5E
:1021D0001127485021F0169507954A95E1F74423B9
:1021E000D1F70993912E0EB42EBC640C721C821C84
:1021F000039CF001F50D099429929924F4CF000075
:10220000492D3A912A911A910A91403158F0403261
:1022100080F4890122273327415134F036952795E0
:10222000179507954A95D2F7099319932993932EF9
:10223000DACF2992299229929924D5CF0000000063
:10224000492D0A91473030F050E007FD5FEF952EA1
:1022500004C005954A95EAF7902E0EB42EBC640C86
:10226000721C821C039CF001F50D09940000000013
:10227000000000000000000000000000000000005E
:10228000492D1A910A91403140F050E017FD5FEF5F
:102290005993952E06C0159507954A95E2F709932F
:1022A000912E0EB42EBC640C721C821C039CF00197
:1022B000F50D09940000000000000000000000007F
:1022C000492D3A912A911A910A91403260F050E0DA
:1022D00037FD5FEF599359935993952EE2CF35957A
:1022E0002795179507954A95D2F70993199329933E
:1022F000932ED7CF00000000000000000000000077
:10230000EA909E200000640C721CF8942EBC0EB45F
:102310007894821C039CF001F50D099400000000E4
:1023200000000000000000000000000000000000AD
:10233000000000000000000000000000000000009D
:10234000AA90FA90EA90AE209F20A9920EB42EBCDB
:10235000640C721C821C039CF001F50D09940000B2
:10236000000000000000000000000000000000006D
:10237000000000000000000000000000000000005D
:10238000CA90BA90AA901A910A91FA90EA90AE2057
:10239000BF20C0229122A992B992C9920EB42EBC3C
:1023A000640C721C821C039CF001F50D0994000062
:1023B000000000000000000000000000000000001D
:1023C000EA909E280000640C721CF8942EBC0EB497
:1023D0007894821C039CF001F50D09940000000024
:1023E00000000000000000000000000000000000ED
:1023F00000000000000000000000000000000000DD
:10240000AA90FA90EA90AE289F28A9920EB42EBC0A
:10241000640C721C821C039CF001F50D09940000F1
:1024200000000000000000000000000000000000AC
:10243000000000000000000000000000000000009C
:10244000CA90BA90AA901A910A91FA90EA90AE288E
:10245000BF28C02A912AA992B992C9920EB42EBC63
:10246000640C721C821C039CF001F50D09940000A1
:10247000000000000000000000000000000000005C
:10248000EA909E240000640C721CF8942EBC0EB4DA
:102490007894821C039CF001F50D09940000000063
:1024A000000000000000000000000000000000002C
:1024B000000000000000000000000000000000001C
:1024C000AA90FA90EA90AE249F24A9920EB42EBC52
:1024D000640C721C821C039CF001F50D0994000031
:1024E00000000000000000000000000000000000EC
:1024F00000000000000000000000000000000000DC
:10250000CA90BA90AA901A910A91FA90EA90AE24D1
:10251000BF24C0269126A992B992C9920EB42EBCAE
:10252000640C721C821C039CF001F50D09940000E0
:10253000000000000000000000000000000000009B
:102540009094C895640C721CF8942EBC0EB47894C8
:10255000821C039CF001F50D0994000000000000AE
:10256000000000000000000000000000000000006B
:10257000000000000000000000000000000000005B
:10258000AA90A0949094A99200000EB42EBC640C62
:10259000721C821C039CF001F50D099400000000E0
:1025A000000000000000000000000000000000002B
:1025B000000000000000000000000000000000001B
:1025C000CA90BA90AA90A094B094C0949094A99202
:1025D000B992C9920EB42EBC640C721C821C039C6E
:1025E000F001F50D0994000000000000000000005B
:1025F00000000000000000000000000000000000DB
:1026000000E0921001E0902E640C721CF8942EBC35
:102610000EB47894821C039CF001F50D099400001F
:1026200000000000000000000000000000000000AA
:10263000000000000000000000000000000000009A
:102640001A90912800E0921001E0902E0EB42EBC5A
:10265000640C721C821C039CF001F50D09940000AF
:10266000000000000000000000000000000000006A
:10267000000000000000000000000000000000005A
:10268000AA90A928BA90AB289924A210942C0EB431
:102690002EBC640C721C821C039CF001F50D099485
:1026A000000000000000000000000000000000002A
:1026B000000000000000000000000000000000001A
:1026C000AA90A928BA90AB28BA90AB289924A21056
:1026D000942C0EB42EBC640C721C821C039CF00162
:1026E000F50D09940000000000000000000000004B
:1026F00000000000000000000000000000000000DA
:10270000EA9021E0E91408F020E0922E0EB42EBCED
:10271000640C721C821C039CF001F50D09940000EE
:1027200000000000000000000000000000000000A9
:102730000000000000000000000000000000000099
:10274000AA90FA90EA90EA14F90450F099240EB491
:102750002EBC640C721C821C039CF001F50D0994C4
:10276000942C0EB42EBC640C721C821C039CF001D1
:10277000F50D0994000000000000000000000000BA
:10278000BA90AA900A91FA90EA90EA14FB0409051B
:1027900050F099240EB42EBC640C721C821C039C55
:1027A000F001F50D0994942C0EB42EBC640C721C2F
:1027B000821C039CF001F50D09940000000000004C
:1027C000CA90BA90AA901A910A91FA90EA90EA14E3
:1027D000FB040C05190550F099240EB42EBC640CB2
:1027E000721C821C039CF001F50D0994942C0EB40C
:1027F0002EBC640C721C821C039CF001F50D099424
:10280000EA9021E0E9140CF020E0922E0EB42EBCE8
:10281000640C721C821C039CF001F50D09940000ED
:1028200000000000000000000000000000000000A8
:102830000000000000000000000000000000000098
:10284000AA90FA90EA90EA14F90454F099240EB48C
:102850002EBC640C721C821C039CF001F50D0994C3
:10286000942C0EB42EBC640C721C821C039CF001D0
:10287000F50D0994000000000000000000000000B9
:10288000BA90AA900A91FA90EA90EA14FB0409051A
:1028900054F099240EB42EBC640C721C821C039C50
:1028A000F001F50D0994942C0EB42EBC640C721C2E
:1028B000821C039CF001F50D09940000000000004B
:1028C000CA90BA90AA901A910A91FA90EA90EA14E2
:1028D000FB040C05190554F099240EB42EBC640CAD
:1028E000721C821C039CF001F50D0994942C0EB40B
:1028F0002EBC640C721C821C039CF001F50D099423
:10290000592D4A913A912A919A918A917A916A9194
:1029100011240E94FC34942C811199240EB42EBCF5
:10292000640C721C821C039CF001F50D09940000DC
:102930000000000000000000000000000000000097
:10294000592D4A913A912A919A918A917A916A9154
:1029500011240E94FC34942C87FF99240EB42EBCC1
:10296000640C721C821C039CF001F50D099400009C
:102970000000000000000000000000000000000057
:1029800001E0921000E0902E640C721CF8942EBCB2
:102990000EB47894821C039CF001F50D099400009C
:1029A0000000000000000000000000000000000027
:1029B0000000000000000000000000000000000017
:1029C000592D4A913A912A919A918A917A916A91D4
:1029D00011240E94A334699379938993992E0EB49C
:1029E0002EBC640C721C821C039CF001F50D099432
:1029F00000000000000000000000000000000000D7
:102A0000592D4A913A912A919A918A917A916A9193
:102A100011240E94A234699379938993992E0EB45C
:102A20002EBC640C721C821C039CF001F50D0994F1
:102A30000000000000000000000000000000000096
:102A4000592D4A913A912A919A918A917A916A9153
:102A500011240E945934699379938993992E0EB465
:102A60002EBC640C721C821C039CF001F50D0994B1
:102A70000000000000000000000000000000000056
:102A8000592D4A913A912A919A918A917A916A9113
:102A900011240E94BB35699379938993992E0EB4C2
:102AA0002EBC640C721C821C039CF001F50D099471
:102AB0000000000000000000000000000000000016
:102AC000992D8A917A916A9111240E9423366993F3
:102AD00079938993992E0EB42EBC640C721C821CBF
:102AE000039CF001F50D09940000000000000000B7
:102AF00000000000000000000000000000000000D6
:102B0000992D8A917A916A9111240E9428366993AD
:102B100079938993992E0EB42EBC640C721C821C7E
:102B2000039CF001F50D0994000000000000000076
:102B30000000000000000000000000000000000095
:102B4000992D8A917A916A9111240E94563669933F
:102B500079938993992E0EB42EBC640C721C821C3E
:102B6000039CF001F50D0994000000000000000036
:102B70000000000000000000000000000000000055
:102B8000992D8A917A916A9111240E945436699301
:102B900079938993992E0EB42EBC640C721C821CFE
:102BA000039CF001F50D09940000000000000000F6
:102BB00000000000000000C00895000000000000B8
:102BC000192C23E0620E721C9A90F8942EBC0EB55C
:102BD000821CECDF2EBC1EB57894EBDF121431F4AE
:102BE00038018EB45A9A5A982EBDD0C22EBCE1DF5D
:102BF000CBCE00000000000000000000000000003C
:102C0000640C721C821C921469F423E03FEF0EB432
:102C10005A9A5A982EBD9A9007FE30E0600C731EA7
:102C2000831EB7C200002EBC9A90C5DFADCE000057
:102C30000000000000000000000000000000000094
:102C400002E0600E721C821C921491F4F8942EBC67
:102C50000EB5789423E09A903FEF600EACDF1EB57E
:102C60005A9A5A982EBD17FF30E0711E831E91C2EA
:102C70002EBC9A909BDF2EBC9CDF86CE000000000D
:102C8000192C23E0620E721C9A90F8942EBC0EB59B
:102C9000821C8CDF2EBC1EB578948BDF121431F0B1
:102CA00038018EB45A9A5A982EBD70C22EBC81DF5C
:102CB0006BCE0000000000000000000000000000DB
:102CC000640C721C821C921469F023E03FEF0EB476
:102CD0005A9A5A982EBD9A9007FE30E0600C731EE7
:102CE000831E57C200002EBC9A9065DF4DCE0000B7
:102CF00000000000000000000000000000000000D4
:102D000002E0600E721C821C921491F0F8942EBCAA
:102D10000EB5789423E09A903FEF600E4CDF1EB51D
:102D20005A9A5A982EBD17FF30E0711E831E31C289
:102D30002EBC9A903BDF2EBC3CDF26CE000000006C
:102D400023E0620E721C821C00C0F8942EBC0EB5EB
:102D50002CDF2EBC1EB578942CDF921431F4380190
:102D60008EB45A9A5A982EBD11C22EBC9A9023DF67
:102D70000BCE00000000000000000000000000007A
:102D8000640C721C821C23E0921459F43FEF0EB4C1
:102D90005A9A5A982EBD07FE30E0600C731E831EAF
:102DA000F8C12EBC9A9007DFEFCD000000000000B4
:102DB0000000000000000000000000000000000013
:102DC00003E0600E721C821C00C0F8942EBC0EB58D
:102DD000ECDE2EBC1EB57894ECDE921431F0380196
:102DE0008EB45A9A5A982EBDD1C12EBC9A90E3DE69
:102DF000CBCD00000000000000000000000000003B
:102E0000640C721C821C23E0921459F03FEF0EB444
:102E10005A9A5A982EBD07FE30E0600C731E831E2E
:102E2000B8C12EBC9A90C7DEAFCD000000000000F4
:102E30000000000000000000000000000000000092
:102E4000C89500C0AFB6F8942EBC6EB423E0AEDED9
:102E50002EBC7EB4AFBEAADE8EB45A9A5A982EBD4E
:102E600095C100000000000000000000000000000C
:102E70000000000000000000000000000000000052
:102E8000640C721C821C00C03FEF23E00EB45A9AFF
:102E90005A982EBD07FE30E0600C731E831E79C168
:102EA0000000000000000000000000000000000022
:102EB0000000000000000000000000000000000012
:102EC00022E0620E721C821C3FEF23E0F8942EBCBD
:102ED0008EB578946CDE680E9EB55A9A5A982EBDBF
:102EE00097FF30E0791E831E54C186E07CD100003C
:102EF00000000000000000000000000000000000D2
:102F0000892C7A906A909A9023E05A9A5A982EBD0A
:102F10003DC10000000000000000000000000000B3
:102F200000000000000000000000000000000000A1
:102F30000000000000000000000000000000000091
:102F4000A0913406AD3288F6B6E0AFB6F8942EBC48
:102F50000EB4AFBE03E0060D602C721C821C0D93F4
:102F60007D928D9200C0F8942EBC7EB4AFBEA0932B
:102F700034061FDE23E08EB45A9A5A982EBD06C13D
:102F8000A0913406AD32A8F4B6E0640C721C821C29
:102F90006D927D928D92A09334060EB423E05A9ADE
:102FA0005A982EBD102C110C1108600C711C811C3C
:102FB000F0C086E018D10000000000000000000012
:102FC000A0913406AD32A8F7B6E022E0F8942EBC0A
:102FD0000EB57894620E721C821C6D927D928D9259
:102FE000A093340623E030E0600E1EB55A9A5A983A
:102FF0002EBD17FD3FEF711E831ECBC000000000E9
:10300000A0913406AD32A8F6B6E06D927D928D9215
:10301000A093340623E05A9A5A982EBD892C7A90B0
:103020006A909A90B6C00000000000000000000006
:103030000000000000000000000000000000000090
:10304000A0913406B6E08E9023E05A9A5A982EBD8D
:103050007E906E90A09334069CC09A918A917A914A
:103060006A915A914A913A912A910E94AB3669939A
:10307000799389939993C0933006089500000000D6
:10308000E0E7F5E3640C721C821C609231060EB41A
:103090002EBC7092320680923306E00DF21D059030
:1030A000F491E02D9992C093300611240995C091B6
:1030B00030069A900EB42EBC640C721C821C039CC9
:1030C000F001F50D099482E08EC0A49ED00CE11CA5
:1030D000F21CA59E0EB52EBCE00CF11CB49EE00CBB
:1030E000F11CB59EF00CC49EF00CD99200C01EB528
:1030F0002EBC0FD02EB52EBCA016B106C20618F7F6
:103100000AD00EB42EBCE9929F2C039CF001F50D61
:10311000099400C000C000C0C8950895C89500C0BB
:103120004EB52EBC12E0610E721C821CF4DF5EB53F
:103130002EBCC92CBA90AA902A911A910A919A9001
:10314000EA90DA90A016B106C206C8F4A49ED00C8C
:10315000E11C921CA59EE00C911CB49EE00C911CFD
:10316000B59E900CC49E900CD992E9920EB42EBCE0
:10317000640C721C821C039CF001F50D099482E022
:1031800032D05A9A23E05A982EBD00C0000000C0E9
:1031900000C000913E060215C9F400916B06109123
:1031A0006C06070D181D1EBD18D00EBD16D06EBCC6
:1031B00015D02EBC14D0640C721CF8942EBC0EB426
:1031C0007894821C039CF001F50D09941124C89594
:1031D00000C05A9A0E946327D5CF0000C89500C04E
:1031E000C895000008956092310670923206809270
:1031F00033069992C093300611240E94D6290C946C
:1032000000009A918A917A916A915A914A913A91E1
:103210002A910E944E356993799389939993C0932B
:1032200030060895000000000000000000000000CB
:10323000000000000000000000000000000000008E
:10324000000000000000000000000000000000007E
:10325000000000000000000000000000000000006E
:10326000000000000000000000000000000000005E
:10327000000000000000000000000000000000004E
:103280004E6F20666F6E742073657420666F7220B7
:1032900074657874206F7065726174696F6E005325
:1032A000697A6573206F66206D656D63707920643F
:1032B00073742F737263206469666665720053705D
:1032C00072697465206672616D65206F75747369CB
:1032D0006465206F66207365740043616C6C2073B5
:1032E0007461636B206F766572666C6F7700446102
:1032F000746120737461636B206F766572666C6FA6
:103300007700417373657274696F6E206661696CD2
:103310006564004469766973696F6E206279207A0A
:1033200065726F00417272617920696E6465782000
:103330006F7574206F6620626F756E6473004761ED
:103340006D652064617461206E6F7420666F756EA8
:1033500064000000FFFFFFFFFFFFFFFFFFFFFFFF15
:10336000FFFFFFFFFFFFFFFF19FDE4EE7CE1D4D478
:10337000E2C89CBDF7B2ECA8719F7E960C8E1386B6
:103380008C7E7277BE706A6A7164CE5E7C597654A8
:10339000B84F3F4B06470943463FB93B5F38353589
:1033A0003832672FBE2C3B2ADC279F2583238521BB
:1033B000A31FDD1D2F1C9A1A1C19B3175F161D15AC
:1033C000EE13D012C111C210D20FEE0E180E4D0D19
:1033D0008E0CDA0B2F0B8F0AF7096809E1086108D8
:1033E000E90777070C07A7064706ED059805470587
:1033F000FC04B40470043104F403BC0386035303D7
:103400002403F602CC02A4027E025A0238021802F9
:10341000FA01DE01C301AA0192017B01660152019A
:103420003F012D011C010C01000100010001000100
:103430000001000100010001000100010001000184
:103440000001000100010001000100010001000174
:1034500000010001000085C352C323C3F5C2CBC2E3
:10346000A3C27DC259C237C217C2F3B3BBB385B37F
:1034700052B323B3F5B2CBB2A3B27DB259B237B2D5
:1034800017B2F3A3BBA385A352A323A3F5A2CBA298
:10349000A3A27DA259A237A217A2F393BB9385934F
:1034A00052932393F592CB92A3927D9259923792A5
:1034B0001792F383BB83858352832383F582CB8268
:1034C000A3827D82598237821782F373BB7385731F
:1034D00052732373F572CB72A3727D725972377275
:1034E0001772F363BB63856352632363F562CB6238
:1034F000A3627D62596237621762F353BB538553EF
:1035000052532353F552CB52A3527D525952375244
:103510001752F343BB43854352432343F542CB4207
:10352000A3427D42594237421742F333BB338533BE
:1035300052332333F532CB32A3327D325932373214
:103540001732F323BB23852352232323F522CB22D7
:10355000A3227D2259223E33243313330233EE3229
:10356000DA32BE329F32803200004552524F520052
:103570006F236923242346231A23102362227E29E2
:1035800058228B21D5281E1E1B1E6C2D692D662DE1
:10359000632D612D622EE22D6F2D422FE72E8A2F93
:1035A0000D1D041D77218D1C5C01CB255101E331DC
:1035B0008F307E306E305F3050300F2CE30BBA2EE0
:1035C0002227DE2B9F2DAF315F31FA30DC2B952B7C
:1035D000DA2B932BD1250721F730F0260421012186
:1035E000FE20E830D3267C017A26E1304F26B83021
:1035F000D72098309101B10171010119F101110237
:10360000D1012D186E0D3102510271020C2C861D54
:10361000741D092C3C1D0A211700030C000000003A
:10362000994C000003002E02D1010000C4111001CA
:1036300084101000980C2E3AF243B94AB12A877CC4
:10364000B726AE22211FAA2AA23A0A0050018428D6
:103650004A298A10A10A0000BE78BF2A2E463F3AA6
:10366000BF46BF042E669F7CF147F1019F6C1F424D
:103670005F7C3F783F7EBF082E7ABF68B226E107A5
:103680001F7E071F1F7D9B6C833EB94E3F028360E8
:10369000F1032208104241004C7A5F324C4A4C7EC2
:1036A0004C53BE00D6035F701D00B0019F681F0021
:1036B0009E785E704C325E1144799E0856034F022C
:1036C0000E7A061B1E799249823ADA02C47D000006
:1036D000DF118D14A1C881CFD9F102AF0000003FE6
:1036E000CDCC4C3D0AD7A33B6F12033A17B75138E4
:1036F000ACC5A736BD37063595BF563377CCAB3151
:103700005F70093011241FBECFEFDAE0DEBFCDBFFE
:1037100016E0AEE3B6E0E0E6F3E702C005900D92F6
:10372000AE33B107D9F72AE0AEE3B6E001C01D928F
:10373000A237B207E1F70E94F5320C94AE390C942F
:103740000000E5E0F0E010D0319728F068517C4FA0
:103750008F4F9F4FF9CFAB01FC0106D0641775075F
:103760008E079F07D0F30895A7E6B6E02FB7F89429
:103770007D918D919C9166B52FBFA89B05C06F3F31
:1037800018F47F5F8F4F9F4F22E0660F771F881FCF
:10379000991F2A95D1F708959C01E0E0F2E0A0E09E
:1037A000B0E0BD0180E045D039D0BD011296A20F36
:1037B000B31F82179307A9F38F5F9F4F21F4AF5F69
:1037C000BF40DB0160F01ED140E05091700A609173
:1037D000710A80E226D05A9AFDD0A0E0B0E07CEFDA
:1037E00011D14A2F5091700A5B0F6091710A611DCF
:1037F00082E017D0832F71FD822F70FD819124D03C
:10380000759518F42150304019F01196AA2391F7BC
:103810005A9AE0D02115310519F7089539D0982F1B
:103820003DC05A9811D0862F0FD0852F0DD0842FF0
:103830000BC0462F5091700A570F6091710A681F94
:1038400083E0EFDF1EBC08958EBD00008EB50DB481
:1038500007FEFCCF0895E0E0F2E0DC0160E070E0FC
:1038600080E0E7DF9D01AF0160E00FD08217930792
:1038700049F4D901FA0160E00BD081931197E1F787
:1038800061E0F3CF0BD0862F089502D0982F00C0AF
:103890000DB407FEFDCF8EB51EBC08950DB407FE16
:1038A000FDCF8EB55A9A08950F931F93CF93DF9350
:1038B000809164008E7F8093640080917A008064A0
:1038C00080937A0080917A0086FDFCCFC0917800C9
:1038D000D091790049DFAB01BC0180916400816027
:1038E00080936400CE01B0E0A0E0DC019927882736
:1038F0008C019D01040F151F261F371FC901B80138
:10390000DF91CF911F910F9108958FB18095807FA6
:10391000669B88601C9B8460089581E083BF8895C6
:1039200013BE089510926F0A3E98579808953E9AD4
:10393000579A81E080936F0A089590916E0A9823B8
:1039400029F490916D0A982381E009F480E00895AC
:1039500080916D0A80936E0AD8DF80936D0A089576
:1039600080389105B8F460347105A0F490E121E04D
:1039700061FD24E060FD220F62FD2295687F969F25
:10398000D0011124A80FA359B94F0C90022A40FF6F
:1039900002260C9208955B98EDE6F6E030EB20E10C
:1039A00046E05C983EBD4A95F1F72EBD20E8239590
:1039B00007C0449140815C9A4EBD8111412D4193D5
:1039C00044912A95B1F73395383B49F744910DB4AA
:1039D0005B9A08955A9885E037DF80E035DF80FDF7
:1039E000FCCF5A9A0895462F50916B06570F60915D
:1039F0006C06681F83E015DF1EBC08955A9824DF0B
:103A00005A9A089586E0FACF8A91C093300696E0DC
:103A1000811194E09093390608958A9180933C0631
:103A20008A9180933B068A9180933A06C093300630
:103A3000089560915D0670915E0680915F06909199
:103A400060069827872776279C0136952795832738
:103A5000372F7227379563279B0136952795922735
:103A600022272795822760935D0670935E068093D8
:103A70005F069093600608958F929F92AF92BF92D7
:103A8000CF92DF92EF92FF92CF93DF93C0913006F7
:103A9000D1E0FA90EA90DA90CA90BA90AA909A90FF
:103AA0008A90C814D904EA04FB0468F4C2DFA501B3
:103AB00094012C193D094E095F090E946D32C60E12
:103AC000D71EE81EF91EC992D992E992F992C093C5
:103AD0003006DF91CF91FF90EF90DF90CF90BF90B5
:103AE000AF909F908F900895E0913006F1E0B291F1
:103AF000A2919291829180935D0690935E06A0932D
:103B00005F06B0936006E09330060895CDDE6093C3
:103B10005D0670935E0680935F069093600608953D
:103B20008093F1000895E0913F06F0914006A28154
:103B3000B381A115B10541F01197A283B383A08190
:103B4000B1818D93A083B183089568DE082E892FFB
:103B5000902D08955A9A5A9843E04EBDE091300650
:103B6000F1E03497429132912291A0916B06B0918D
:103B70006C06A30FB41FBEBDCF92EF92FF920F93BE
:103B80007901042F6381748108C0000000000000E7
:103B9000000000C000C000C0089545E0AEBD582F31
:103BA00085819681B291A291E0933006C895C8951F
:103BB000EEBCE40EF11C011DECDF1EBCE8DFF89446
:103BC0001EBC4EB57894E5DFF8941EBC2EB57894F3
:103BD000295F287FE22FE695E695E69503C087E00A
:103BE0000C94D629C89500C0F8941EBCCEB4789425
:103BF000C52AC0FCEE0FE49FF001EB9FF00C011D05
:103C0000112400C0F8941EBC3EB57894FB9F000DB3
:103C1000FA9FF00C011DEA9FE00CF11C1124011D1C
:103C2000A3173EB55A9AB307D0F60BD00F91FF9069
:103C3000EF90CF9063C284E08DCF089580E08ACF6B
:103C40000895803891057CF46034710564F4DC01DA
:103C5000A40FB11D1A161B0634F4DB01A20FB11D0F
:103C60001A161B060CF008955A9853E05EBD6F9229
:103C70007F928F92EF92FF920F931F936624322FC1
:103C8000369536953695162F759517951595159584
:103C90001F3F4CF41095311BC0FC110F149FE00C1A
:103CA000F11C061D1FEF00906B06F00C00906C06D7
:103CB000001D842E97FF0BC0880EC0FE02C0880F27
:103CC000991FE81AF90A060997FD039588270EBD82
:103CD000ADE6B6E050E81503080EA00DB11D581B67
:103CE000851608F0852E7727E7E0E11B17FB71F9B1
:103CF000FEBCE31714F43E2F716090E8981911E0B0
:103D000061FD14E060FD110F62FD1295EFEFE19F80
:103D100030016094EEBC7094112460D11EBCE89414
:103D2000481168946FB7C1FCEAC0C2FCA1C071FD24
:103D300003C0332381F577C0A058BF4F582DC0FC76
:103D40000DC0F8941EBC8EB56FBF819F2C912721AA
:103D500021292D9300C05A95A1F714C0F8941EBCD8
:103D60000EB46FBF019E812D3BD1F8941EBC0EB4E2
:103D70006FBF019E712C2C9170942721282B2D93BD
:103D80005A9561F71124A819B1093A9509F402C1AD
:103D900016F45A9A09D1FD01E058FF4F582DC0FC86
:103DA0001FC0569518F453952C910CC08EB51EBCAF
:103DB000819F2C91262120292D93208127212129A3
:103DC00021932C918EB51EBC819F262120292D93F5
:103DD000208127212129219300005A9539F716C007
:103DE000F8941EBC0EB46FBF019E30012C918081EF
:103DF000F8D00EB41EBC019E0094202126292D93DC
:103E000010948121872981935A9551F71124A90F84
:103E1000B11D3A9509F0BCCF70FFBCC026F45A9A88
:103E2000C3D000C0C895C0FC0DC0F8941EBC8EB5B0
:103E30006FBF819F2C91262120292D9300C08A9449
:103E4000A1F7A8C0F8941EBC8EB56FBF819FC001BA
:103E5000C7D0F8941EBC3EB56FBF319F302D2C915A
:103E600030952323282B2D938A9461F7000092C06C
:103E700071FD03C03323D1F436C0A058BF4F582D75
:103E8000F8941EBC8EB56FBF819F2C9121292D9374
:103E9000C8955A95A9F71124A819B1093A9509F4BA
:103EA00079C026F45A9A80D000C000C0FD01E058C5
:103EB000FF4F582D8EB51EBC819F2C9120292D932C
:103EC00020812129219300005A95A1F71124A90FDF
:103ED000B11D3A9531F770FF5DC02EF45A9A64D047
:103EE00000C000C0C895F8941EBC8EB56FBF819FFE
:103EF0002C9120292D93C8958A94A9F74BC071FD68
:103F000003C03323E9F439C0A058BF4F582D00C077
:103F1000F8941EBC8EB56FBF819F009410942C91B5
:103F200021212D9300005A9599F71124A819B10960
:103F30003A9509F42FC026F45A9A36D000C000C032
:103F4000FD01E058FF4F582D8EB51EBC819F009497
:103F500010942C9120212D932081212121935A9579
:103F600099F71124A90FB11D3A9529F770FF12C0D6
:103F70001EF45A9A19D000C000C0F8941EBC8EB529
:103F80006FBF819F009410942C9120212D930000ED
:103F90008A9499F711245A9A1F910F91FF90EF90EC
:103FA0008F907F906F9008955A98E3E0EEBD1124B2
:103FB000E40EF11C011DC0FCE40EC0FCF11CC0FCB1
:103FC000011D0FD00EBD08D0FEBC06D0EEBC05D042
:103FD0001EBC00C000C00895000000C00000C895CD
:103FE000C89508950895CF92EF92FF920F93DC0148
:103FF000E3E05A98EEBDE0903A06F0903B0600915F
:104000003C06E0916B06F0916C06FE0E0F1FE7E098
:10401000E49FE00CF11C1124011D0EBD02D0FEBC7A
:1040200008C000C0000000000000000000C000C088
:104030000895F8DFEEBCE0903A06F0903B06009160
:104040003C06EFEFEE1AE8EFFE0AEFEF0E0B00C0B2
:1040500000C01EBCE7DFF8941EBC3EB578948D917D
:104060009C91FC01E30FF11DFC93EE9300C0F894CA
:104070001EBC4EB57894DADF4115F9F0F8941EBCF9
:104080003EB57894830F911D37FD9A95D0DFF89453
:104090001EBC3EB57894630F711D37FD7A95C7DF5E
:1040A000F8941EBCEEB57894BFDFF8941EBCFEB544
:1040B0007894EE0EFF1EB9DF2EB55A9A442319F0FC
:1040C000C0903906BEDD0F91FF90EF90CF9008951C
:1040D000E0913F06F0914006648175818A3051F489
:1040E00080819181938382838681680F711D75839E
:1040F00064830895482FCF01029675CF83E05A98C4
:104100008EBD00913E06011529F0112414D05A9A53
:10411000DAD6F4CF409131065091320660913306E1
:1041200080916B0690916C06580F691F6EBD07C099
:104130000000000000C0000000C0C8950895FADF2C
:104140005EBDF6DF4EBDF5DF1EBCF5CF93E05A989D
:104150009EBD40913A0650913B0660913C0697E027
:10416000899F400D511D1124611DDADF00C000C080
:104170008EB55A9A089593E05A989EBD40913A069A
:1041800050913B0660913C0697E0590F611DC8DFD6
:1041900000C000C08EB55A9A089593E05A989EBD0B
:1041A000AB01682FC895C895BBDF00000895CF9379
:1041B0005A9A6AE070E080E016DC6ADBC82F6EDB9A
:1041C0002C2F382FC90101978115944010F4C90193
:1041D000E3DA00DC93DFCF910895FC01A091300673
:1041E000B1E08E917E916E91A093300690916F0A0E
:1041F000992319F05A9A099581CF089583E398E29B
:10420000ECCF85EE97E2E9CF82E198E2E6CF8AE84B
:1042100097E2E3CF8F929F92AF92BF92CF92DF92BD
:10422000EF92FF920F931F93CF93DF93E0913006AD
:10423000F1E0829192912291C22ED92EE82E8291A4
:104240009291092F182F8291EF019A91A92EB82EE1
:104250005A9A8E2DB601C7DB1BDBF82E16DB4C01FC
:10426000082C892C902C71DC0817190708F03CC029
:10427000A814B90408F038C025E0C20ED11CE11C16
:10428000A89E9001B99E402DA99E300D411DB89E5B
:10429000300D411D1124200F311F411D82E0F81205
:1042A00003C0220F331F441F842FB9016C0D7D1DE5
:1042B0008E1D99DB21E0F21215C0F0DA90E0FE01CC
:1042C00081939193E093300619DFDF91CF911F9195
:1042D0000F91FF90EF90DF90CF90BF90AF909F90A5
:1042E0008F90089532DCEBCF90E080E0E8CFE09152
:1042F0003006F1E06291E09330066B3040F070E000
:1043000080E094E00E942D32609336060895662383
:10431000D9F364E6F9CF2F923F925F926F927F922A
:104320008F929F92AF92BF92CF92DF92EF92FF92C5
:104330000F931F93CF93DF93CDB7DEB7C650CDBF9A
:10434000E0913006F1E082919291E92EF82E82916F
:104350009291092F182F22915290E0933006822FCC
:1043600090E09E838D8381E090E05C012D813E8111
:10437000A21AB30AC9019195819591099C01220F56
:10438000331F3A8329836D817E81600F711F452D14
:10439000C701E6DAB8018D819E81681B790B452D36
:1043A000C701DEDA452DB8018D819E818E0D9F1DDE
:1043B000D7DA452DB801C7012D813E81821B930BB1
:1043C000CFDAD12CC12C81E090E09C838B832D81AE
:1043D0003E81C216D3060CF057C0B7FC0BC021506B
:1043E00031093E832D8389819A8102969A8389833C
:1043F000A80EB91E9FEFC91AD90A2B813C812E5FE6
:104400003F4F3C832B83A20EB31E36016E0C7F1CE4
:10441000452D8D809E80800E911EB401C301A0DACF
:1044200017012C183D08452DB401C10199DA452D1D
:1044300048018D819E81881A990AB401C30190DADE
:10444000452DB401C1018CDA48018C0C9D1C452D11
:10445000B4016D807E806E0C7F1CC30181DA452D16
:10446000B40117012D813E81221A330AC10178DA85
:1044700048018C189D08452DB401C30171DA452D02
:10448000B401C1016DDAA3CFCA5FCDBFDF91CF9177
:104490001F910F91FF90EF90DF90CF90BF90AF9062
:1044A0009F908F907F906F905F903F902F90089596
:1044B0009A918A917A916A914A912A910A91C0932C
:1044C0003006DBC52F923F924F925F926F927F92A0
:1044D0008F929F92AF92BF92CF92DF92EF92FF9214
:1044E0000F931F93CF93DF93CDB7DEB7C350CDBFEC
:1044F000E0913006F1E0829192919A838B838291D0
:104500009291092F182F82919291E92EF82E2291E3
:104510003291832F922F22912983E09330066C01F0
:10452000C01AD10AD7FE03C0D194C194D108470163
:104530002A813B81821A930A97FE03C09194819449
:1045400091088C149D045CF43E2D2F2D7C01832F4B
:10455000922F3A812B811B830A83032F122F2A81EA
:104560003B81E216F3065CF4302F212F8C01832F60
:10457000922F3A812B81FB82EA82E32EF22E1701E1
:104580002A813B81221A330A2C01401A510A57FE14
:1045900003C0519441945108310137FE03C03FEFED
:1045A000631A730A759467940817190714F18FEF4B
:1045B000A82E880FBB088A819B81E816F906DCF0DB
:1045C0004981BC01C8018C149D041CF0B8018A818A
:1045D0009B81C6D96418750877FE04C00A0D1B1D9F
:1045E000620C731C2A813B812F5F3F4F3B832A83E0
:1045F000E2CF81E0DDCFCD5FCDBFDF91CF911F91C5
:104600000F91FF90EF90DF90CF90BF90AF909F9071
:104610008F907F906F905F904F903F902F90089574
:104620009A918A917A916A9141E02A910A91C09374
:10463000300623C59A918A917A916A914A9121E034
:104640000A91C093300619C5E0913006F1E08291DD
:10465000929133278038B0F49034A0F421E091FD9A
:1046600024E090FD220F92FD2295A0E1987F9A9F71
:10467000D0011124A359B94FA80FB11D0C900222EB
:1046800009F033953193E09330060895E0913006B8
:10469000F1E092918291729162914291E0933006A1
:1046A0005FC9CF93DF93C0913606D09137068C2F28
:1046B0008D0F809337067894809167068D1B8C1739
:1046C00028F48F5F8C17B8F728D9F5CFDF91CF91F9
:1046D0003FC95A9A80E05FD9E4DF10CD08955A9A15
:1046E00081E059D9DEDF0ACD08955A98A3E0AEBD26
:1046F000FC0181919191A19140916B0650916C06C2
:10470000490F5A1F00C000C05EBD0DD04EBD0BD07A
:104710008EBD0196A11DA2939293829308D01EBCD8
:1047200004D000000895C895C89500C000C0089541
:104730002F923F924F925F926F928F929F92AF9281
:10474000BF92CF92DF92EF92FF920F931F93CF937E
:10475000DF93CDB7DEB7C851CDBF9C8B8B8BE0917B
:104760003006F1E0E290D290C290A29192918291B3
:104770008E879F87A88BE0933006CE0101969A8B97
:10478000898B20E3F22EC114D104E10409F4EFC1B6
:10479000CE010E96AADF1EB55A9A26016E2C91E024
:1047A000491A51086108153229F0812FEB89FC89DB
:1047B000099517C0CE010E9698DF0EB55A9A2601BC
:1047C0006E2CF2E04F1A51086108043609F473C0E8
:1047D00058F4033509F4D5C0033609F4B1C00532E5
:1047E00021F3E62C6201CFCF033709F4B0C008F003
:1047F0005DC00636B1F7E0913006F1E0829192910A
:1048000022913291832E922EA92EB82E8D8A9E8AC5
:10481000AF8AB88EE0933006CE010E9666DF1EB5E5
:104820005A9A105326016E2CF3E04F1A5108610872
:1048300020E030E0A901C501B4010E94B43587FF32
:104840000BC08DE2EB89FC890995D501C401B058F4
:104850008D8B9E8BAF8BB88F94E0199FF001112444
:10486000E452F94C65917591859195912D893E8918
:104870004F89588D0E94A3344B015C01CC24C39412
:1048800028E23BE64EE65EE4C501B4010E94A7378C
:1048900087FDBBC0C3942FE530E749E850E3C5016D
:1048A000B4010E9459344B015C01EACF053719F07D
:1048B000083709F096CFE0913006F1E082919291AD
:1048C00022913291832E922EA92EB82EE09330069B
:1048D000CE010E960ADF1EB55A9A26016E2C83E091
:1048E000481A51086108083709F41FC1043609F055
:1048F0006BC0B7FE69C08DE2EB89FC890995B09465
:10490000A09490948094811C911CA11CB11C115303
:10491000FE0131966F01C501B4012AE030E040E0AC
:1049200050E00E946D3249015A01605DD6016D93DD
:104930006D01115081149104A104B10461F74FC0BD
:10494000E0913006F1E01291E09330062ECFE09135
:104950003006F1E0B290A290D290C290E09330067F
:10496000A114B10409F43DCFF60181916F018823B0
:1049700009F437CFEB89FC890995F1E0AF1AB1084A
:10498000EFCFE0913006F1E0E290D290C290A29198
:1049900092918291E09330068B879C87AD87C114FA
:1049A000D104E10409F41DCFCE010B969EDE8EB535
:1049B0005A9A882309F415CFEB89FC890995F1E00F
:1049C000CF1AD108E108EBCF81149104A104B104FE
:1049D00069F4CE010196DC01FD926D0111531116AF
:1049E0003CF4D601FD926D011150F9CF105390CFD8
:1049F000E989FA89EC15FD0509F4F3CEF6018291F7
:104A00006F01EB89FC890995F3CFD12CCD1409F402
:104A100063C0C501B4010E9428366D8B7E8B8F8BDD
:104A2000988FE12CDD2011F089E0E82E8D899E8998
:104A3000AF89B88D892B8A2B8B2B69F4EA94DE0120
:104A40001196FD01F1921F011E14FCF4F101F19287
:104A50001F01EA94F9CF2D893E894F89588DCE01E7
:104A600001961C01CA01B9012AE030E040E050E0A3
:104A70000E946D32605DD1016D931D01EA94211594
:104A800031054105510571F7DFCF89899A89821572
:104A9000930539F0F10182911F01EB89FC89099599
:104AA000F4CF6D897E898F89988D0E9454369B0141
:104AB000AC01C501B4010E94A2344B015C01D39446
:104AC000DC1408F0A3CF28E23BE64EE65EE40E9449
:104AD00059344B015C019ACF112309F482CE8EE246
:104AE000EB89FC89099520E030E040E251E4C50102
:104AF000B4010E9459344B015C010E942836E62E15
:104B000070E090E080E00E9456369B01AC01C50148
:104B1000B4010E94A2344B015C0180E38E0DEB894D
:104B2000FC8909951150F9F65CCE81149104A10419
:104B3000B10409F44ECF1053CE0101966C01882DBB
:104B40008F7094E0B694A794979487949A95D1F730
:104B500090E38A3008F097E5890FF60181936F01A1
:104B6000115081149104A104B10449F738CFC85EF3
:104B7000CDBFDF91CF911F910F91FF90EF90DF900C
:104B8000CF90BF90AF909F908F906F905F904F901D
:104B90003F902F9008955A9A80E99DE1C9DDAECAF1
:104BA0000895CF93DF93CDB7DEB7C450CDBFE0916A
:104BB0003006F1E08291929122913291E093300699
:104BC0005A9A39832A839B838C83CE0101969093D2
:104BD000400680933F0683E99DE1AADD8B819C819D
:104BE000892B19F0E981FA81108288DACC5FCDBF78
:104BF000DF91CF9108957F928F929F92AF92BF9253
:104C0000CF92DF92EF92FF920F931F93CF93DF9398
:104C1000962EEA01C22E082FFE01C0FE8191C0FC33
:104C20008591EF01882361F112E0803239F1E82F9C
:104C3000EE0FFF0BEA52FA4CE590F49013E00E37BA
:104C4000E8F4802E11E08E2D8F71D82EB9F0792CDA
:104C5000A82CB12CD0FE06C0672D70E041E0C50144
:104C60000E94B01C7394D694A9F785E0F694E7945B
:104C70008A95E1F71F5F8394153029F7010FCCCF98
:104C8000802FDF91CF911F910F91FF90EF90DF90D8
:104C9000CF90BF90AF909F908F907F90089518B85D
:104CA00010926F00E2E4F6E01086118A128E1092E4
:104CB0003E061092410688E1809391001092C00058
:104CC00018B80895109280008AE0809381008FE3E5
:104CD0009FE1909389008093880083E48093900003
:104CE00088E1809391001092C0001092C100109250
:104CF000C300D5CF80916F0A882319F00E94921CBF
:104D0000E1CF0E94971CFCCF813818F01092C000B0
:104D10000895811104C01092C00018B80895E82FBA
:104D2000F0E0EE0FFF1FEC5AFB4C85919491292F78
:104D300022952F709F702093C1009093BF008093A5
:104D4000D100969587959093BF008093CF0082E81D
:104D50008093C0000895813820F088E1809391000D
:104D600008958823D1F3E82FF0E0EE0FFF1FEE5AED
:104D7000FC4C8591949190939900809398008AE1DE
:104D8000EDCF80914A0681110DC0809153068111AB
:104D900009C01092410680915C06811103C01092F7
:104DA0006F0018B8089510925C0680914106811139
:104DB00008C010924A0688E1809391001092C000CA
:104DC00018B8DFCF10924106E2E4F6E01086118AAF
:104DD000D8DF88E1809391001092C00018B8089540
:104DE000809141068111EECF08955A9893E09EBDBF
:104DF0009FB700906B06700D00906C06801D1FD051
:104E00008EBD19D07EBD17D06EBD16D01EBCDA0186
:104E10002150304000C051F000C013D0F8941EBCA7
:104E20000EB49FBF0D9221503040B9F709D00EB497
:104E30000C925A9A0895000000C0C8950000000026
:104E400000C00895E0913006F1E032912291529134
:104E50004291029001140290030602900206829190
:104E60007291629111F088E0A1C2E09330065A9AE3
:104E7000BCDF44C90895CF92DF92EF920F931F9346
:104E8000CF93DF93FC01448104E0102F141B99F0B1
:104E9000EC01C580D680E780212F30E0480F592FE4
:104EA000511D8E2DB601A1DFC10ED11CE11CCD829A
:104EB000DE82EF820C83DF91CF911F910F91EF90F3
:104EC000DF90CF900895CF9380916F00811102C041
:104ED00010923E0680913E068823D1F0CFB7F89419
:104EE00080914A06882319F082E496E0C4DF80911D
:104EF0005306882319F08BE496E0BDDF80915C06B1
:104F0000882319F084E596E0B6DF10923E06CFBF05
:104F1000CF910895CF92DF92EF921F93CF93DF93BB
:104F2000CDB7DEB7C350CDBF6B01E82E18B81092D5
:104F30006F0023E030E0AE014F5F5F4F56DF83E04C
:104F4000C80ED11CE11C1FB7F89410924606C092FF
:104F50004706D0924806E092490681E080934A06CF
:104F600080914A06882319F082E496E084DF8981E3
:104F70009A81AB81C80ED91EEA1E10924F06C092CC
:104F80005006D0925106E092520681E0809353067B
:104F900080915306882319F08BE496E06CDF8091B2
:104FA0004206D9DE80914B06AFDE81E08093410658
:104FB0001FBF82E080936F00CD5FCDBFDF91CF91A7
:104FC0001F91EF90DF90CF900895CF92DF92EF92F4
:104FD000CF936B01E82E809141068111F3DE18B862
:104FE00010926F00CFB7F89410924606C092470611
:104FF000D0924806E092490681E080934A0680916B
:105000004A06882319F082E496E035DF8091420653
:10501000A2DECFBF82E080936F00CF91EF90DF9050
:10502000CF900895CF9318B810926F00CFB7F8942F
:10503000109258066093590670935A0680935B0647
:1050400081E080935C0680915C06882319F084E5FA
:1050500096E011DF8091540657DECFBF82E0809347
:105060006F00CF91089590915C06992329F090915B
:105070004A06911101C0A9CFD5CF0F938038910571
:105080000CF091C0603471050CF08DC0FC01E40F90
:10509000F11D1E161F060CF086C0FB01E20FF11D6C
:1050A0001E161F060CF07FC0442309F47CC0222387
:1050B00009F479C077FF02C0260F662797FF02C068
:1050C000480F882730E4361B231708F0232F30E8D9
:1050D000381B431708F0432F260F51E061FD54E0C1
:1050E00060FD550F62FD5295519531E021FD34E090
:1050F00020FD330F22FD329531952A9566956695F0
:10510000669526952695269590E8699FF0011124CD
:10511000E359F94FE80FF11D941B261B50FD239511
:1051200030FD239500FD0FEF652F6095211107C01D
:10513000032E0094362B602D652360232EC051F082
:105140005023842F00800622052A01928A95D1F7E8
:10515000E90FF11D2A95E9F0842F877081F4842FDF
:10516000019301930193019301930193019301939F
:105170008850B1F7E90FF11D2A9571F70AC0019324
:105180008A95E9F7842F887F59F7E90FF11D2A9551
:1051900019F7632F609539F0602300800322062AF7
:1051A00001924A95D1F70F9108952F923F924F9215
:1051B0005F926F927F928F929F92AF92BF92CF92A7
:1051C000DF92EF92FF920F931F93CF93DF93CDB7B0
:1051D000DEB7C650CDBFE0913006F1E082919291EA
:1051E000E92EF82E82919291692E782E22911291B9
:1051F000E0933006822F90E09E838D839C01220FE6
:10520000331F2F5F3F4FB301681B790B012F41E024
:10521000C70133DF81E090E06C01ED81FE81CE1AA1
:10522000DF0A1F01319421943108220C331CB12C68
:10523000A12C88248394912C2D813E81A216B30643
:105240000CF047C0D7FC09C0215031093E832D83A3
:1052500032E0230E311CC20CD31C8FEFA81AB80AFF
:1052600092E0890E911CC80CD91C8D819E81880FFB
:10527000991FFC013196FC83EB83012F2B8141E0C8
:1052800023018D819E81481A590AB201C5018E0DF4
:105290009F1DF3DEF301EA19FB09FA83E983282D48
:1052A00041E0BF018D819E818E0D9F1DE6DE2B8129
:1052B00041E0B201C7018A199B09DFDE282D41E0D8
:1052C00069817A81C701ED81FE818E1B9F0BD5DE3E
:1052D000B3CFCA5FCDBFDF91CF911F910F91FF90E8
:1052E000EF90DF90CF90BF90AF909F908F907F9086
:1052F0006F905F904F903F902F900895CF92DF92E4
:10530000EF92FF920F931F93CF93DF93E0913006BC
:10531000F1E0D290C290F290E290C2911291D291BB
:10532000E09330060D2F21E04C2FB701C601A5DE1A
:10533000212F41E0B701C601A0DEB701610F711D49
:105340006150710921E04C2FC60197DEC6018C0F18
:10535000911D212F41E0B70101978FDEDF91CF91A1
:105360001F910F91FF90EF90DF90CF900895EF92F3
:10537000FF920F93022E069406940694C0FC000C34
:10538000049EF001EA9DE00CF11C1124011DFA9D20
:10539000F00C011DEB9DF00C011DFB9D000D112477
:1053A0000E94211E0F91FF90EF900895CF93DF93FD
:1053B000CDB7DEB7CA52CDBF8CA380933506EDE6DC
:1053C000F6E080E094E0DF019C011D922150304026
:1053D000E1F75A9A64DC3CA110E0323040F01091C1
:1053E00034068BEA189F112D112416951F5F4CA1CE
:1053F0004150550BCA01880F991FDC01AA5ABA4CBB
:10540000B8A7AFA3CC24C39400E0E12FF0E0FAA743
:10541000E9A79E012F5F3F4F79010E94A81C00233E
:1054200039F080E80E949D1C882311F00150C82E9D
:1054300088E0800F811728F480E10E949D1C811173
:105440007CC0CC2009F4E2C021E04AE655E361E0EB
:1054500081E0D1DB3CA1313069F028E130E0A701E7
:1054600060E270E080E0C1DC198E20E0A70161E01D
:1054700084E2C1DBEDE6F6E080814FE7842781938B
:1054800056E0ED3EF507C0F3EFA1F8A54591549124
:1054900021E068E080E0AFDB29A53AA5201B3109B7
:1054A000C901880F991F820F931FDC01A050BF4FC5
:1054B000BEA3ADA3902EB1E1BBA3911608F0A3C08B
:1054C000209031063090320640903306992039F012
:1054D000EDA1FEA1E350FB4F2080318042806CE0C3
:1054E00070E080E00E94CD200E94481C582E0E944F
:1054F000451CB82E0E94481CA82EC92E0E94451C8F
:10550000782F0E944E1C682F892F0E94CD20612C7D
:10551000712C812C1AA219A2D12C62147304840458
:1055200078F50E94481C87FD0AC090E00196680E3D
:10553000791E811C97FD8A94F0CF0F5F85CF8D3F38
:1055400050F429A13AA12F573109F901E80FF11DB3
:10555000FAA3E9A3E2CF8D3F21F40E94481CD82E84
:10556000DCCF8E3F29F40E94451C9AA389A3D5CF96
:105570000E94451C782E0E94481C682E892ECDCF93
:105580000E944E1CD51498F5F0E2DF9EC001112454
:105590004C2D9501280F391F411D97FD4A95842FE9
:1055A000B90120E230E0A70120DC20E0A7016BA1D7
:1055B00088E121DBFE01369689A19AA16AE070E0BC
:1055C0004CD7805D829369A37AA3EE16FF06A1F7FC
:1055D0001E8280E0A701480F511DDA019C91903393
:1055E00011F48F5FF7CF20E06BA180E004DB939490
:1055F000BBA1BA5FBBA3EDA1FEA13397FEA3EDA3B0
:10560000BB3309F05ACF81E00E94CB1C2FB7F8942E
:105610008091630690916406A0916506B09166063C
:105620002FBF94E1D92ED80EC12C2FB7F8948091BA
:10563000630690916406A0916506B09166062FBF3F
:10564000FD2DF81BF7FDE9CE0E948D1CEECFE091F9
:105650003006F1E0EE3F28F481939193E093300619
:10566000089585E0A3DE8F929F92AF92BF92CF9272
:10567000DF92EF92FF920F931F93CF93DF93F82E59
:10568000E0913006F1E082919291C92FD82F1291CA
:105690000291829192912291C22ED92EE82E82916E
:1056A00072916291E09330065A9A0E94CD20209721
:1056B000F9F058014E01F11008C0F50181915F0128
:1056C00081112BC081E0A81AB1080E94481CF50185
:1056D00081935F01882361F0F1E08F1A910841F016
:1056E00081E0C81AD108E10881F7F50180E08193D3
:1056F0000E944E1CC801ABDFCE01A9DF0E947E20B4
:10570000DF91CF911F910F91FF90EF90DF90CF909D
:10571000BF90AF909F908F900895E1E08E1A91080E
:1057200009F0CBCFD2CF80E09ECF81E09CCFEF922B
:10573000FF920F931F93CF93DF93282FE0913006B2
:10574000F1E082919291E92EF82E9291829132911C
:105750004291642F732F42915291E0933006E114ED
:10576000F104E1F0FC01D701211104C021912111C4
:105770001EC03197252F342FAD01E90119919E01EB
:105780001193112359F04150510941F08A01060F3C
:10579000171F0A171B0789F720E0219358DFC7015D
:1057A000DF91CF911F910F91FF90EF9050CF119704
:1057B000E9F6E0CF80E0BBCF81E0B9CFE0913006E1
:1057C000F1E082919291292F382F82919291492F65
:1057D000582FE093300690E080E02115310551F01C
:1057E000FC01E40FF51F6081662321F0019682170A
:1057F0009307B1F72CCFE0913006F1E0EC3F38F49D
:105800006193719381939193E0933006089585E0BD
:10581000CDDD0E94191DEFCF0E94541CECCF2FB795
:10582000F89460916306709164068091650690918A
:1058300066062FBFE0CF2F923F924F925F926F92FA
:105840007F928F929F92AF92BF92CF92DF92EF9210
:10585000FF920F931F93CF93DF93CDB7DEB7C7525D
:10586000CDBF182F062FE0913006F1E04424F290CE
:10587000E29032912291C290B290A29060FD42904B
:105880003290229061FD05C060FD8290729062901E
:10589000B2913A8B298BE09330065A9A362F3270A8
:1058A0003C8F61FFBBC0842DB1010E94CD200E94BE
:1058B000481C182F1A950E94451C082E892F902DE0
:1058C0009C8B8B8B0E94A51D9A8F898F842C310114
:1058D00045E0640E711C811C90E8E916F1040CF09F
:1058E000D9C029893A89203431050CF0D3C08C2DD8
:1058F000B5010E94CD200E94481CD82E0E94481C51
:10590000982E0E94481C8D8F0E94A51D9F8F8E8F00
:10591000AC2DC5010596A11D88A399A3AAA349880A
:105920005A8890E080E0A7019C01490C511C1CF4AE
:105930008F5F9F4FFACF491851084D0D511D1CF430
:105940002F5F3F4FFACF4D1951093CA32BA35A8B20
:10595000498B588E4F8A9E8B8D8B01700DA3892D9C
:1059600090E09FA38EA32B893C894D895E894217C5
:10597000530708F08FC08F89988D803491050CF003
:1059800089C059882BA13CA11901412C80E0498D87
:105990005A8D2416350608F06EC08F708B8F8111DA
:1059A00022C02D893E89249FC001359FA02D259FAF
:1059B000900DA11D349F900DA11D1124820D931DEA
:1059C000A41D112319F0880F991FAA1FBC018A2F4B
:1059D000660D771D881D3DA131112EC040E150E0BC
:1059E000CE010196E3D5E1E0F0E0EC0FFD1F4B8D19
:1059F000E40FF11DA190BB241111B0805C8D5523E3
:105A000031F0A114B10461F181E0A81AB1082E8D22
:105A10003F8DA216B306B8F087E0C8DC2B2F30E02C
:105A200040E0842DB1010E9493397C8B6B8B8B2FCE
:105A300090E09A8F898F50CF20E130E0AE014F5F28
:105A40005F4FD3D9D0CFCD8CE8A0F9A00AA1292DE2
:105A50004D2D6F89788D852D052C000C990B87DCD9
:105A60005D0C3FEF231A330A430A57FC04C08B8DA9
:105A70008F5F810F8CCF4D895E894F5F5F4F5E8B4B
:105A80004D8B8F89988D2EA13FA1820F931F988FE8
:105A90008F8B69CF0E947E20C95DCDBFDF91CF91F2
:105AA0001F910F91FF90EF90DF90CF90BF90AF903C
:105AB0009F908F907F906F905F904F903F902F902E
:105AC000089563E0B8CE61E081E0B5CE60E081E0AA
:105AD000B2CE61E080E0AFCE60E080E0ACCECF93AC
