:100000000C94661B0C94831B0C94831B0C94831B15
:100010000C94831B0C94831B0C94831B0C94831BE8
:100020000C94831B0C94831B0C94831B0C94831BD8
:100030000C94831B0C94831B0C94831B0C94831BC8
:100040000C94831B0C9496310C94831B0C94831B8F
:100050000C94831B0C94831B0C94831B0C94AB2F6C
:100060000C94831B0C94831B0C94831B0C94831B98
:100070000C94831B0C94831B0C94831B0C94831B88
:100080000C94831B0C94831B0C94831B0C94831B78
:100090000C94831B0C94831B0C94831B0C94831B68
:1000A0000C94831B0C94831B0C94831B084AD73B32
:1000B0003BCE016E84BCBFFDC12F3D6C74319ABD37
:1000C00056833DDA3D00C77F11BED9E4BB4C3E915B
:1000D0006BAAAABE000000803F05A84CCDB2D44E4A
:1000E000B93836A9020C50B9918688083CA6AAAA4C
:1000F0002ABE000000803F0664EC1B3C04BC163E98
:100100003BE5B93CC93C37C29E5A3D660498083E5F
:10011000EA69AAAA3E000000803F07634236B79B07
:10012000D8A71A39685618AEBAAB558C1D3CB7CC57
:100130005763BD6DEDFD753EF6177231BF000000CF
:10014000803F08000000BE922449123EABAAAA2AB2
:10015000BECDCCCC4C3E00000080BEABAAAAAA3ECD
:1001600000000000BF000000803F00000000000809
:100170004178D3BB4387D1133D190E3CC3BD4282A6
:10018000AD2B3E68EC8276BED98FE1A93E4C80EF64
:10019000FFBE01C4FF7F3F00000000000000000020
:1001A000000000000000000000000000000000004F
:1001B000000000000000000000000000000000003F
:1001C000000000000000000000000000000000002F
:1001D000000000000000000000000000000000001F
:1001E000000000000000000000000000000000000F
:1001F00000000000000000000000000000000000FF
:1002000000C000C0640C721CF8942EBC0EB478942C
:10021000821C039CF001F50D099400000000000011
:100220002041424320496E74657270726574657234
:100230002062792050657465722042726F776E205B
:10024000CF3FB8F49992640CAFB6F8942EBC9EB42C
:10025000AFBE721C821CC895C895C895640C721CF0
:10026000F8942EBC0EB47894821C039CF001F50D1A
:10027000099485E00E94E5180000000000000000DD
:10028000CE3F18F085E00E94E518999200E0902E8C
:100290000EB42EBC640C721C821C039CF001F50D84
:1002A0000994E0913006F1E00290E09330060110ED
:1002B000089584E00E94E5189895089500000000D4
:1002C000CE3F18F085E00E94E518999201E0902E4B
:1002D0000EB42EBC640C721C821C039CF001F50D44
:1002E00009949A918A917A916A910E94453869930A
:1002F000799389939993089580916F0A0C94F52FBF
:10030000CE3F18F085E00E94E518999202E0902E09
:100310000EB42EBC640C721C821C039CF001F50D03
:1003200009949A918A917A916A910E94FA37699315
:1003300079938993999308950000000000000000CC
:10034000CE3F18F085E00E94E518999203E0902EC8
:100350000EB42EBC640C721C821C039CF001F50DC3
:1003600009949A918A917A916A910E94D3346993FF
:10037000799389939993089500000000000000008C
:10038000CE3F18F085E00E94E518999204E0902E87
:100390000EB42EBC640C721C821C039CF001F50D83
:1003A00009949A918A917A916A910E94DA376993B5
:1003B000799389939993089500000000000000004C
:1003C000CE3F18F085E00E94E518999205E0902E46
:1003D0000EB42EBC640C721C821C039CF001F50D43
:1003E00009949A918A917A916A910E94AC356993A5
:1003F000799389939993089500000000000000000C
:10040000CE3F18F085E00E94E518999206E0902E04
:100410000EB42EBC640C721C821C039CF001F50D02
:1004200009949A918A917A916A910E94BC34699355
:1004300079938993999308950000000000000000CB
:10044000CE3F18F085E00E94E518999207E0902EC3
:100450000EB42EBC640C721C821C039CF001F50DC2
:1004600009949A918A917A916A910E9404386993C9
:10047000799389939993089500000000000000008B
:10048000CE3F18F085E00E94E518999208E0902E82
:100490000EB42EBC640C721C821C039CF001F50D82
:1004A00009940000000000000000000000000000AF
:1004B000000000000000000000000000000000003C
:1004C000CE3F18F085E00E94E518999200E1902E49
:1004D0000EB42EBC640C721C821C039CF001F50D42
:1004E000099400000000000000000000000000006F
:1004F00000000000000000000000000000000000FC
:10050000CE3F18F085E00E94E518999200E2902E07
:100510000EB42EBC640C721C821C039CF001F50D01
:10052000099400000000000000000000000000002E
:1005300000000000000000000000000000000000BB
:10054000CE3F18F085E00E94E518999200E4902EC5
:100550000EB42EBC640C721C821C039CF001F50DC1
:1005600009940000000000000000000000000000EE
:10057000000000000000000000000000000000007B
:10058000CE3F18F085E00E94E518999200E8902E81
:100590000EB42EBC640C721C821C039CF001F50D81
:1005A0000994640C721CF8942EBC0EB47894821CCE
:1005B000039CF001F50D099400000000000000000C
:1005C000CD3F60F49992299299240EB42EBC640C0C
:1005D000721C821C039CF001F50D099485E00E94B9
:1005E000E51800000000000000000000000000000E
:1005F00000000000000000000000000000000000FB
:10060000CC3F68F499922992299299240EB42EBC79
:10061000640C721C821C039CF001F50D099485E0AA
:100620000E94E5180000000000000000000000002B
:1006300000000000000000000000000000000000BA
:10064000CB3F70F4999229922992299299240EB461
:100650002EBC640C721C821C039CF001F50D0994E5
:1006600085E00E94E5180000000000000000000086
:10067000000000000000000000000000000000007A
:10068000C73F90F49992299229922992299229920E
:100690002992299299240EB42EBC640C721C821CDF
:1006A000039CF001F50D099485E00E94E518000017
:1006B000000000000000000000000000000000003A
:1006C000CF3ED0F499922992299229922992299287
:1006D0002992299229922992299229922992299242
:1006E0002992299299240EB42EBC640C721C821C8F
:1006F000039CF001F50D099485E00E94E5180000C7
:10070000CD3FD0F7999202E0AFB6F8942EBC0EB46C
:10071000099209D02EBC9EB4AFBE600E721C821C22
:10072000C895C8953ECF000000000000000000C042
:10073000089500000000000000000000000000001C
:10074000CC3FA8F4999203E0AFB6F8942EBC0EB457
:100750000992E9DF2EBC0EB40992E5DF2EBC9EB4EF
:10076000AFBE600E721C821CC895C8951ACF85E07A
:100770000E94E518000000000000000000000000DA
:10078000CB3FA8F7999204E0AFB6F8942EBC0EB414
:100790000992600E721C821CC9DF2EBC0EB4099235
:1007A000C2DF2EBC0EB40992BEDF2EBC9EB4AFBE1B
:1007B000BEDFF7CE000000000000000000000000D7
:1007C000CE3F68F49992990C990800000EB42EBCA3
:1007D000640C721C821C039CF001F50D099485E0E9
:1007E0000E94E5180000000000000000000000006A
:1007F00000000000000000000000000000000000F9
:10080000CD3F68F49992990C990899920EB42EBC38
:10081000640C721C821C039CF001F50D099485E0A8
:100820000E94E51800000000000000000000000029
:1008300000000000000000000000000000000000B8
:10084000CC3F70F49992990C9908999299920EB4B0
:100850002EBC640C721C821C039CF001F50D0994E3
:1008600085E00E94E5180000000000000000000084
:100870000000000000000000000000000000000078
:10088000CE3F60F49992640C721CF8942EBC0EB4A6
:100890007894821C039CF001F50D099485E00E9478
:1008A000E51800000000000000000000000000004B
:1008B0000000000000000000000000000000000038
:1008C000CE3F68F49992DE01A2509C900EB42EBCEB
:1008D000640C721C821C039CF001F50D099485E0E8
:1008E0000E94E51800000000000000000000000069
:1008F00000000000000000000000000000000000F8
:10090000CE3F68F49992DE01A3509C900EB42EBCA9
:10091000640C721C821C039CF001F50D099485E0A7
:100920000E94E51800000000000000000000000028
:1009300000000000000000000000000000000000B7
:10094000CE3F68F49992DE01A4509C900EB42EBC68
:10095000640C721C821C039CF001F50D099485E067
:100960000E94E518000000000000000000000000E8
:100970000000000000000000000000000000000077
:10098000CE3F68F49992DE01A5509C900EB42EBC27
:10099000640C721C821C039CF001F50D099485E027
:1009A0000E94E518000000000000000000000000A8
:1009B0000000000000000000000000000000000037
:1009C000CE3F68F49992DE01A6509C900EB42EBCE6
:1009D000640C721C821C039CF001F50D099485E0E7
:1009E0000E94E51800000000000000000000000068
:1009F00000000000000000000000000000000000F7
:100A0000CE3F68F49992DE01A7509C900EB42EBCA4
:100A1000640C721C821C039CF001F50D099485E0A6
:100A20000E94E51800000000000000000000000027
:100A300000000000000000000000000000000000B6
:100A4000CE3F68F49992DE01A8509C900EB42EBC63
:100A5000640C721C821C039CF001F50D099485E066
:100A60000E94E518000000000000000000000000E7
:100A70000000000000000000000000000000000076
:100A8000CD3F78F49992DE01A2500D9009929D908D
:100A90000EB42EBC640C721C821C039CF001F50D7C
:100AA000099485E00E94E5180000000000000000A5
:100AB0000000000000000000000000000000000036
:100AC000CD3F78F49992DE01A3500D9009929D904C
:100AD0000EB42EBC640C721C821C039CF001F50D3C
:100AE000099485E00E94E518000000000000000065
:100AF00000000000000000000000000000000000F6
:100B0000CD3F78F49992DE01A4500D9009929D900A
:100B10000EB42EBC640C721C821C039CF001F50DFB
:100B2000099485E00E94E518000000000000000024
:100B300000000000000000000000000000000000B5
:100B4000CD3F78F49992DE01A5500D9009929D90C9
:100B50000EB42EBC640C721C821C039CF001F50DBB
:100B6000099485E00E94E5180000000000000000E4
:100B70000000000000000000000000000000000075
:100B8000CD3F78F49992DE01A6500D9009929D9088
:100B90000EB42EBC640C721C821C039CF001F50D7B
:100BA000099485E00E94E5180000000000000000A4
:100BB0000000000000000000000000000000000035
:100BC000CD3F78F49992DE01A7500D9009929D9047
:100BD0000EB42EBC640C721C821C039CF001F50D3B
:100BE000099485E00E94E518000000000000000064
:100BF00000000000000000000000000000000000F5
:100C0000CD3F78F49992DE01A8500D9009929D9005
:100C10000EB42EBC640C721C821C039CF001F50DFA
:100C2000099485E00E94E518000000000000000023
:100C300000000000000000000000000000000000B4
:100C4000CD3F78F49992DE01A9500D9009929D90C4
:100C50000EB42EBC640C721C821C039CF001F50DBA
:100C6000099485E00E94E5180000000000000000E3
:100C70000000000000000000000000000000000074
:100C8000CE3F18F085E00E94E5189992AFB6F8942F
:100C90002EBC0EB4AFBE640C721C821CDE01A01907
:100CA0009C9000C000C0640C721CF8942EBC0EB462
:100CB0007894821C039CF001F50D0994000000005B
:100CC000CD3F18F085E00E94E5189992AFB6F894F0
:100CD0002EBC0EB4AFBE640C721C821CDE01A019C7
:100CE0000D909C900992640C721CF8942EBC0EB46A
:100CF0007894821C039CF001F50D0994000000001B
:100D0000CB3FC0F49992DE01640C721C0EB42EBC71
:100D1000821CA0190D911D912D919D9009931993FD
:100D200029930EB42EBC640C721C821C039CF0012F
:100D3000F50D099485E00E94E51800000000000010
:100D4000C895C895F8942EBC0EB5789443E0640E0F
:100D5000721C821CDE01A395B2D0F8942EBC1EB585
:100D60007894A11B069510F499929D9099929D906C
:100D700099929D900A95D1F70EB42EBC000056C0F2
:100D8000C89500C0AFB6F8942EBC0EB4AFBE640CCC
:100D9000721C821C092DDE01A0190C939A90000090
:100DA000640C721CF8942EBC0EB47894821C039CC4
:100DB000F001F50D099400000000000000000000A3
:100DC000C89500C0AFB6F8942EBC0EB4AFBE640C8C
:100DD000721C821C192D0A91DE01A0190D931D931E
:100DE0009A900EB42EBC640C721C821C039CF00101
:100DF000F50D099400000000000000000000000054
:100E0000392D2A911A910A910EB42EBC640C721CD1
:100E1000821CDE01A0190D931D932D933D939A9092
:100E200000000EB42EBC640C721C821C039CF001EA
:100E3000F50D099400000000000000000000000013
:100E4000C895C895F8942EBC0EB5789443E0640E0E
:100E5000721C821CDE01A39530D01EB52EBCA11BD6
:100E6000069510F49E929A909E929A909E929A90D5
:100E70000A95D1F70EB42EBC0000D8CF00000000B8
:100E80009992CF3F19F485E00E94E518AFB6F89427
:100E90002EBCAEB542E0640E721C821C0CD02EBC7F
:100EA000BEB5AFBE9C900BD07BCF00000000000011
:100EB0000000000000000000000000000000089595
:100EC0009992CE3F18F085E00E94E5180000F89452
:100ED0002EBCAEB542E0640E721C821CECDF2EBC50
:100EE000BEB578940D919D900993C89559CF000097
:100EF00000000000000000000000000000000000F2
:100F00009992CC3F18F085E00E94E51800C0AEB57C
:100F10002EBC42E0640E721C821CCCDFBEB52EBC1F
:100F20000D911D912D919D9009931993299359CF5E
:100F300000000000000000000000000000000000B1
:100F4000C895C895F8942EBC0EB5789413E0610E40
:100F5000721C821CB2DFF8942EBCAEB57894A8DF68
:100F6000BEB52EBC069510F499929D9099929D90D5
:100F700099929D900A95D1F7000026C100000000CB
:100F8000CF3F18F085E00E94E5189992AFB6F8942B
:100F90002EBCAEB5AFBEB2E09C90640C721C821C3D
:100FA000C89500C0640C721CF8942EBC0EB47894E2
:100FB000821C039CF001F50D0994C895000008956A
:100FC000CE3F18F085E00E94E5189992AFB6F894EC
:100FD0002EBCAEB5AFBEB2E09D9099929C90640CD1
:100FE000721C821C0000640C721CF8942EBC0EB49F
:100FF0007894821C039CF001F50D0994089500007B
:10100000CC3F18F085E00E94E5189992B2E0640C9C
:10101000AEB52EBC721C821C9D9099929D909992A7
:101020009D9099929C900EB42EBC640C721C821CF4
:10103000039CF001F50D0994000000000000000081
:10104000C89500C0AFB6F8942EBCAEB512E0610EE4
:10105000721C821C30DF2EBCBEB5AFBE9C929A9033
:101060002EDF640C721CF8942EBC0EB47894821C93
:10107000039CF001F50D0994000000000000000041
:10108000C89500C0AFB6F8942EBCAEB512E0610EA4
:10109000721C821C10DF2EBCBEB5AFBE1A911D9310
:1010A0009D929A90C895640C721CF8942EBC0EB454
:1010B0007894821C039CF001F50D09940000000057
:1010C0002A911A910A91F8942EBCAEB5392D42E0BE
:1010D000640E721C821CF0DE2EBCBEB578940D939B
:1010E0001D932D933D939A900000640C721CF8940C
:1010F0002EBC0EB47894821C039CF001F50D09946B
:10110000C895C895F8942EBC0EB5789413E0610E7E
:10111000721C821CD2DEF8942EBCAEB5C8DE2EBC8A
:10112000BEB57894A00FB21D069510F49E929A90C9
:101130009E929A909E929A900A95D1F745C000008F
:10114000292D1A910A915A9A33E05A983EBDA090DF
:101150006B06B0906C06A10EB21EADDEBEBCA5DE65
:10116000AEBCA3DE0EBDA2DE2EBCA0DE9EB45A9A9B
:101170005A983EBD0C94B818000000C008950000B5
:10118000292D1A910A9133E000001EB426C0640C88
:10119000721C821CC895C895C895AFB6F8942EBC31
:1011A0000EB4AFBE09921A941414A9F7E6DF9EB4E8
:1011B0005A9A5A983EBD0C94B818000000000000DE
:1011C000B92DAA919D9000C00EB42EBC640C721C67
:1011D000821C039CF001F50D09945A9A33E05A9849
:1011E0003EBDA0906B06B0906C06A10EB21E63DEF1
:1011F000BEBC5BDEAEBC59DE0EBD58DE2EBCC7CF1A
:10120000B92DAA911D9019929D900EB42EBC640C1C
:10121000721C821C039CF001F50D09940000000073
:1012200000000000000000000000000000000000BE
:1012300000000000000000000000000000000000AE
:10124000B92DAA912C2F640C721C821C0EB42EBCDA
:10125000200D20F1069410F49D9099929D90999202
:101260009D9099920A94D1F7CA950EB42EBC640C45
:10127000721C821C039CF001F50D09940000000013
:10128000B92DAA911A901C929A900EB42EBC640C9F
:10129000721C821C039CF001F50D099485E00E94EC
:1012A000E518000000000000000000000000000041
:1012B000000000000000000000000000000000002E
:1012C000B92DAA911A900A909A900D921C920EB480
:1012D0002EBC640C721C821C039CF001F50D099459
:1012E00000000000000000000000000000000000FE
:1012F00000000000000000000000000000000000EE
:10130000B92DAA910000640C721C821C0EB42EBC74
:10131000A00DB21D069410F41A901E921A901E92FF
:101320001A901E920A94D1F79A900EB42EBC640CB7
:10133000721C821C039CF001F50D09940000000052
:10134000CA9598800000640C721CF8942EBC0EB4F0
:101350007894821C039CF001F50D099400000000B4
:10136000000000000000000000000000000000007D
:10137000000000000000000000000000000000006D
:10138000C25098800000640C721CF8942EBC0EB4FD
:101390007894821C039CF001F50D09940000000074
:1013A000000000000000000000000000000000003D
:1013B000000000000000000000000000000000002D
:1013C000C35098800000640C721CF8942EBC0EB4BC
:1013D0007894821C039CF001F50D0994000000C074
:1013E0000000000000000000000000000895000060
:1013F00000000000000000000000000000000000ED
:10140000C45098800000640C721CF8942EBC0EB47A
:101410007894821C039CF001F50D09942EBC3EB516
:101420007894930730F44A91640F751F6993972E4F
:10143000EACF82E00C94E5180000000000000000F4
:10144000C89500C0AFB6F8942EBC0EB4AFBE640C05
:10145000721C821CC01518F485E00E94E518C019A2
:10146000988000C0640C721CF8942EBC0EB4789462
:10147000821C039CF001F50D09940000000000009F
:10148000C8959882AFB6F8942EBC0EB4AFBE640C6B
:10149000721C821CC00D18F485E00E94E51898802B
:1014A000C895640C721CF8942EBC0EB47894821CFF
:1014B000039CF001F50D09940000000000000000FD
:1014C000492D640C721C821C00C0F8942EBC0EB412
:1014D000AFBE401588F49A906A91640F921C69938C
:1014E0000000640C721CF8942EBC0EB47894821C1C
:1014F000039CF001F50D099482E00C94E5180000BE
:10150000492D12E0610EC895F8942EBC0EB5789462
:10151000721C821C049F5A9169DFF8942EBC1EB580
:101520007894411748F74A91040E151E0992912CA0
:10153000D8CF000000000000000000000000000004
:10154000992D4A91C895F8942EBC0EB514E0610E01
:10155000721C821C47DF2EBC1EB542DF049F2EBCCE
:101560002EB5B001099F700D149F700D5A91C8954A
:10157000421754CF000000000000000000000000EF
:10158000A92C9A90EA900000F8942EBC0EB578949D
:10159000DA9012E0610E721C821C00C0A09ED00C7A
:1015A000E11C921CF8942EBC1EB57894A11620F470
:1015B000D992E992C89534C182E00C94E5180000F4
:1015C00015DF4EB52EBC15E0610E721C821CC92CB5
:1015D000BA90AA900BDF5EB52EBCFA90EA90DA9032
:1015E00002DF0EB52EBCFADE1EB52EBCF7DE2EB520
:1015F0002EBCA016B106C206F8F60C9463180000C3
:101600004A913A9112E0610EF8942EBC0EB578948E
:10161000721C821C2A914217930670F6049FB00137
:101620009A918A911EB52EBC680F791F099D700D85
:10163000149F700D6993972EA5C000000000000054
:101640000C94801882E00C94E518B00CC11C289F03
:10165000C00C199FC00C301B410B920A9CF3B2E0E6
:101660006B0E721C821CA992B992C992399349934C
:10167000EDC0099319936993E9C0000000000000D0
:101680006A915A914A913A918EB52EBC2A911A913B
:101690000A9142175307B0F62617390598F2489F6A
:1016A000000D111D9EB52EBC589F110D499F110DA7
:1016B000641B950A3CF2B2E06B0E721C821CD9CFFF
:1016C0004A913A912A911A918EB52EBC0A91FA90BC
:1016D000EA90DA90CA90BA90AA900D151E052F05CF
:1016E00018F59EB52EBCD316E406F904E8F0089F61
:1016F000A00CB11CC21C189FB00CC11C099FA5CF27
:101700009992CE3F18F085E00E94E5180000F89409
:101710002EBC0EB47894640C721C821C8E010019CD
:101720000993912E00002EC082E00C94E518C89514
:10173000000008950000000000000000000000000C
:101740009992CE3F18F085E00E94E518AFB6F89464
:101750002EBC0EB4AFBE640C721C821C12E0099247
:10176000912E00C00FC0000000000000000000002B
:101770000000000000000000000000000000000069
:101780009394C895640C721CF8942EBC0EB4789493
:10179000821C039CF001F50D09940000000000007C
:1017A0000000000000000000000000000000000039
:1017B0000000000000000000000000000000000029
:1017C0009A940000DFCFE0913006F1E0929182918F
:1017D000B291A2916291E0933006009681F09695C5
:1017E000879508F46D939695879538F46D936D936E
:1017F00004C06D936D936D936D930197D0F7089529
:1018000000C0DE011196AFB6F8942EBC0EB4AFBE88
:10181000640C721C821CA0190C9003940C9200C0E2
:10182000640C721CF8942EBC0EB47894821C039C39
:10183000F001F50D09940000000000000000000018
:10184000B92DAA910D91902E03950E930EB42EBC36
:10185000640C721C821C039CF001F50D09940000BD
:101860000000000000000000000000000000000078
:101870000000000000000000000000000000000068
:10188000B92DAA910D911D910993912E040D121D50
:101890001E930E930EB42EBC640C721C821C039C0F
:1018A000F001F50D099400000000000000000000A8
:1018B0000000000000000000000000000000000028
:1018C000CE3F18F085E00E94E518B92DAA910D9140
:1018D0001D912D9109931993922E040D121D221D15
:1018E0002E931E930E930EB42EBC640C721C821C9D
:1018F000039CF001F50D09940000000000000000B9
:10190000CD3F18F085E00E94E518B92DAA910D9100
:101910001D912D913D91099319932993932E040DB7
:10192000121D221D321D3E932E931E930E930EB454
:101930002EBC640C721C821C039CF001F50D0994F2
:10194000B92DAA910D91902E0A950E930EB42EBC2E
:10195000640C721C821C039CF001F50D09940000BC
:101960000000000000000000000000000000000077
:101970000000000000000000000000000000000067
:10198000B92DAA910D911D910993912E0419120957
:101990001E930E930EB42EBC640C721C821C039C0E
:1019A000F001F50D099400000000000000000000A7
:1019B0000000000000000000000000000000000027
:1019C000CE3F18F085E00E94E518B92DAA910D913F
:1019D0001D912D9109931993922E04191209220930
:1019E0002E931E930E930EB42EBC640C721C821C9C
:1019F000039CF001F50D09940000000000000000B8
:101A0000CD3F18F085E00E94E518B92DAA910D91FF
:101A10001D912D913D91099319932993932E0419AA
:101A20001209220932093E932E931E930E930EB48F
:101A30002EBC640C721C821C039CF001F50D0994F1
:101A4000CD3F18F085E00E94E518B92DAA916D915F
:101A50007D918D919D91699379938993992E8D01B3
:101A6000112420E030E040E85FE30E94F633D80123
:101A70009E938E937E936E93DACF00000000000059
:101A8000CD3F18F085E00E94E518B92DAA916D911F
:101A90007D918D919D91699379938993992E8D0173
:101AA000112420E030E040E85FE30E94F533D801E4
:101AB0009E938E937E936E93BACF00000000000039
:101AC000EA909E0C0000640C721CF8942EBC0EB4BC
:101AD0007894821C039CF001F50D09949A918A91E7
:101AE0007A916A915A914A913A912A910E948E373D
:101AF0006993799389939993C09330060895000070
:101B0000AA90FA90EA90AE0C9F1CA9920EB42EBC3B
:101B1000640C721C821C039CF001F50D09940000FA
:101B200000000000000000000000000000000000B5
:101B300000000000000000000000000000000000A5
:101B4000BA90AA900A91FA90EA90AE0CBF1C901E2F
:101B5000A992B9920EB42EBC640C721C821C039C18
:101B6000F001F50D099400000000000000000000E5
:101B70000000000000000000000000000000000065
:101B8000CA90BA90AA901A910A91FA90EA90AE0C73
:101B9000BF1CC01E911EA992B992C9920EB42EBC50
:101BA000640C721C821C039CF001F50D099400006A
:101BB0000000000000000000000000000000000025
:101BC000EA90E9189E2C640C721CF8942EBC0EB49A
:101BD0007894821C039CF001F50D0994000000002C
:101BE00000000000000000000000000000000000F5
:101BF00000000000000000000000000000000000E5
:101C0000AA90FA90EA90EA18F908E9929F2C0EB48B
:101C10002EBC640C721C821C039CF001F50D09940F
:101C200000000000000000000000000000000000B4
:101C300000000000000000000000000000000000A4
:101C4000BA90AA900A91FA90EA90EA18FB0809095A
:101C5000E992F992902E0EB42EBC640C721C821C78
:101C6000039CF001F50D0994000000000000000045
:101C70000000000000000000000000000000000064
:101C8000CA90BA90AA901A910A91FA90EA90EA182A
:101C9000FB080C091909E992F9920993912E0EB4E7
:101CA0002EBC640C721C821C039CF001F50D09947F
:101CB0000000000000000000000000000000000024
:101CC000FA90EA90E90CF21CE9929F2C0EB42EBC1B
:101CD000640C721C821C039CF001F50D0994000039
:101CE00000000000000000000000000000000000F4
:101CF00000000000000000000000000000000000E4
:101D00000A91FA90EA90E90CF21C021DE992F9920C
:101D1000902E0EB42EBC640C721C821C039CF0012D
:101D2000F50D099400000000000000000000000014
:101D300000000000000000000000000000000000A3
:101D4000FA90EA90E918F208E9929F2C0EB42EBCA2
:101D5000640C721C821C039CF001F50D09940000B8
:101D60000000000000000000000000000000000073
:101D70000000000000000000000000000000000063
:101D8000FA90EA90E99C9001F99C300D2993932EEA
:101D90000EB42EBC640C721C821C039CF001F50D69
:101DA0000994E99C500D299339934993952E0EB4CB
:101DB0002EBC640C721C821C039CF001F50D09946E
:101DC000EA90E99C902C00C00EB42EBC640C721CEE
:101DD000821C039CF001F50D099400000000000036
:101DE00000000000000000000000000000000000F3
:101DF00000000000000000000000000000000000E3
:101E0000AA90FA90EA90EA9C9001E99C300DFA9C25
:101E1000300D2993932E0EB42EBC640C721C821CC0
:101E2000039CF001F50D0994000000000000000083
:101E300000000000000000000000000000000000A2
:101E4000BA90AA900A91FA90EA90EA9C90010A9DB1
:101E5000902CFA9C300D911CEB9C300D911CFB9C3E
:101E6000900CE99C900C299339930EB42EBC640C11
:101E7000721C821C039CF001F50D09940000000007
:101E8000CA90BA90AA901A910A91FA90EA90EA9CA4
:101E900090010A9DA001FA9C300D411D521DEB9C42
:101EA000300D411D521DFB9C400D511DEC9C400D01
:101EB000511D1A9D500D0B9D500DFC9C500D71CF66
:101EC000792D6A919A918A916215720569F00E9442
:101ED000DD316993972E0EB42EBC640C721C821CEB
:101EE000039CF001F50D099483E00E94E5180000C1
:101EF00000000000000000000000000000000000E2
:101F0000592D4A913A912A919A918A917A916A919E
:101F1000221532054205520549F08E010E941D32FC
:101F2000E801299339934993952ED5CF83E00E94F8
:101F3000E5180000000000000000000000000000A4
:101F4000792D6A919A918A916215720569F00E94C1
:101F500060396993972E0EB42EBC640C721C821CDF
:101F6000039CF001F50D099483E00E94E518000040
:101F70000000000000000000000000000000000061
:101F8000592D4A913A912A919A918A917A916A911E
:101F9000221532054205520549F08E010E94D933BF
:101FA000E801299339934993952ED5CF83E00E9478
:101FB000E518000000000000000000000000000024
:101FC000792D6A919A918A916215720569F00E9441
:101FD000DD318993992E0EB42EBC640C721C821CC8
:101FE000039CF001F50D099483E00E94E5180000C0
:101FF00000000000000000000000000000000000E1
:10200000592D4A913A912A919A918A917A916A919D
:10201000221532054205520549F08E010E941D32FB
:10202000E801699379938993992ED5CF83E00E9433
:10203000E5180000000000000000000000000000A3
:10204000792D6A919A918A916215720579F10E94AF
:1020500060398993992E0EB42EBC640C721C821CBC
:10206000039CF001F50D099483E00E94E51800003F
:102070000000000000000000000000000000000060
:10208000592D4A913A912A919A918A917A916A911D
:10209000221532054205520549F08E010E94D933BE
:1020A000E801699379938993992ED5CF83E00E94B3
:1020B000E518000000000000000000000000000023
:1020C000492D0A914830A0F442FD029542FD007F5F
:1020D00041FD000F41FD000F40FD000F902E0EB49A
:1020E0002EBC640C721C821C039CF001F50D09943B
:1020F0009924F5CF0000000000000000000000005F
:10210000492D1A910A91483050F04031A8F4102F0F
:102110000027485021F0000F111F4A95E1F7442392
:10212000D1F70993912E0EB42EBC640C721C821C44
:10213000039CF001F50D099429929924F4CF000035
:10214000492D3A912A911A910A91403158F0403222
:1021500080F4980100271127415134F0000F111F1E
:10216000221F331F4A95D2F7099319932993932E6F
:10217000DACF2992299229929924D5CF0000000024
:10218000492D0A914830A0F442FD029542FD0F709E
:1021900041FD069541FD069540FD0695902E0EB435
:1021A0002EBC640C721C821C039CF001F50D09947A
:1021B000922CF5CF0000000000000000000000009D
:1021C000492D1A910A91483050F04031A8F4012F5E
:1021D0001127485021F0169507954A95E1F74423B9
:1021E000D1F70993912E0EB42EBC640C721C821C84
:1021F000039CF001F50D099429929924F4CF000075
:10220000492D3A912A911A910A91403158F0403261
:1022100080F4890122273327415134F036952795E0
:10222000179507954A95D2F7099319932993932EF9
:10223000DACF2992299229929924D5CF0000000063
:10224000492D0A91473030F050E007FD5FEF952EA1
:1022500004C005954A95EAF7902E0EB42EBC640C86
:10226000721C821C039CF001F50D09940000000013
:10227000000000000000000000000000000000005E
:10228000492D1A910A91403140F050E017FD5FEF5F
:102290005993952E06C0159507954A95E2F709932F
:1022A000912E0EB42EBC640C721C821C039CF00197
:1022B000F50D09940000000000000000000000007F
:1022C000492D3A912A911A910A91403260F050E0DA
:1022D00037FD5FEF599359935993952EE2CF35957A
:1022E0002795179507954A95D2F70993199329933E
:1022F000932ED7CF00000000000000000000000077
:10230000EA909E200000640C721CF8942EBC0EB45F
:102310007894821C039CF001F50D099400000000E4
:1023200000000000000000000000000000000000AD
:10233000000000000000000000000000000000009D
:10234000AA90FA90EA90AE209F20A9920EB42EBCDB
:10235000640C721C821C039CF001F50D09940000B2
:10236000000000000000000000000000000000006D
:10237000000000000000000000000000000000005D
:10238000CA90BA90AA901A910A91FA90EA90AE2057
:10239000BF20C0229122A992B992C9920EB42EBC3C
:1023A000640C721C821C039CF001F50D0994000062
:1023B000000000000000000000000000000000001D
:1023C000EA909E280000640C721CF8942EBC0EB497
:1023D0007894821C039CF001F50D09940000000024
:1023E00000000000000000000000000000000000ED
:1023F00000000000000000000000000000000000DD
:10240000AA90FA90EA90AE289F28A9920EB42EBC0A
:10241000640C721C821C039CF001F50D09940000F1
:1024200000000000000000000000000000000000AC
:10243000000000000000000000000000000000009C
:10244000CA90BA90AA901A910A91FA90EA90AE288E
:10245000BF28C02A912AA992B992C9920EB42EBC63
:10246000640C721C821C039CF001F50D09940000A1
:10247000000000000000000000000000000000005C
:10248000EA909E240000640C721CF8942EBC0EB4DA
:102490007894821C039CF001F50D09940000000063
:1024A000000000000000000000000000000000002C
:1024B000000000000000000000000000000000001C
:1024C000AA90FA90EA90AE249F24A9920EB42EBC52
:1024D000640C721C821C039CF001F50D0994000031
:1024E00000000000000000000000000000000000EC
:1024F00000000000000000000000000000000000DC
:10250000CA90BA90AA901A910A91FA90EA90AE24D1
:10251000BF24C0269126A992B992C9920EB42EBCAE
:10252000640C721C821C039CF001F50D09940000E0
:10253000000000000000000000000000000000009B
:102540009094C895640C721CF8942EBC0EB47894C8
:10255000821C039CF001F50D0994000000000000AE
:10256000000000000000000000000000000000006B
:10257000000000000000000000000000000000005B
:10258000AA90A0949094A99200000EB42EBC640C62
:10259000721C821C039CF001F50D099400000000E0
:1025A000000000000000000000000000000000002B
:1025B000000000000000000000000000000000001B
:1025C000CA90BA90AA90A094B094C0949094A99202
:1025D000B992C9920EB42EBC640C721C821C039C6E
:1025E000F001F50D0994000000000000000000005B
:1025F00000000000000000000000000000000000DB
:1026000000E0921001E0902E640C721CF8942EBC35
:102610000EB47894821C039CF001F50D099400001F
:1026200000000000000000000000000000000000AA
:10263000000000000000000000000000000000009A
:102640001A90912800E0921001E0902E0EB42EBC5A
:10265000640C721C821C039CF001F50D09940000AF
:10266000000000000000000000000000000000006A
:10267000000000000000000000000000000000005A
:10268000AA90A928BA90AB289924A210942C0EB431
:102690002EBC640C721C821C039CF001F50D099485
:1026A000000000000000000000000000000000002A
:1026B000000000000000000000000000000000001A
:1026C000AA90A928BA90AB28BA90AB289924A21056
:1026D000942C0EB42EBC640C721C821C039CF00162
:1026E000F50D09940000000000000000000000004B
:1026F00000000000000000000000000000000000DA
:10270000EA9021E0E91408F020E0922E0EB42EBCED
:10271000640C721C821C039CF001F50D09940000EE
:1027200000000000000000000000000000000000A9
:102730000000000000000000000000000000000099
:10274000AA90FA90EA90EA14F90450F099240EB491
:102750002EBC640C721C821C039CF001F50D0994C4
:10276000942C0EB42EBC640C721C821C039CF001D1
:10277000F50D0994000000000000000000000000BA
:10278000BA90AA900A91FA90EA90EA14FB0409051B
:1027900050F099240EB42EBC640C721C821C039C55
:1027A000F001F50D0994942C0EB42EBC640C721C2F
:1027B000821C039CF001F50D09940000000000004C
:1027C000CA90BA90AA901A910A91FA90EA90EA14E3
:1027D000FB040C05190550F099240EB42EBC640CB2
:1027E000721C821C039CF001F50D0994942C0EB40C
:1027F0002EBC640C721C821C039CF001F50D099424
:10280000EA9021E0E9140CF020E0922E0EB42EBCE8
:10281000640C721C821C039CF001F50D09940000ED
:1028200000000000000000000000000000000000A8
:102830000000000000000000000000000000000098
:10284000AA90FA90EA90EA14F90454F099240EB48C
:102850002EBC640C721C821C039CF001F50D0994C3
:10286000942C0EB42EBC640C721C821C039CF001D0
:10287000F50D0994000000000000000000000000B9
:10288000BA90AA900A91FA90EA90EA14FB0409051A
:1028900054F099240EB42EBC640C721C821C039C50
:1028A000F001F50D0994942C0EB42EBC640C721C2E
:1028B000821C039CF001F50D09940000000000004B
:1028C000CA90BA90AA901A910A91FA90EA90EA14E2
:1028D000FB040C05190554F099240EB42EBC640CAD
:1028E000721C821C039CF001F50D0994942C0EB40B
:1028F0002EBC640C721C821C039CF001F50D099423
:10290000592D4A913A912A919A918A917A916A9194
:1029100011240E94CF34942C811199240EB42EBC22
:10292000640C721C821C039CF001F50D09940000DC
:102930000000000000000000000000000000000097
:10294000592D4A913A912A919A918A917A916A9154
:1029500011240E94CF34881F8827881F982E0EB418
:102960002EBC640C721C821C039CF001F50D0994B2
:102970000000000000000000000000000000000057
:1029800001E0921000E0902E640C721CF8942EBCB2
:102990000EB47894821C039CF001F50D099400009C
:1029A0000000000000000000000000000000000027
:1029B0000000000000000000000000000000000017
:1029C000592D4A913A912A919A918A917A916A91D4
:1029D00011240E94F633699379938993992E0EB44A
:1029E0002EBC640C721C821C039CF001F50D099432
:1029F00000000000000000000000000000000000D7
:102A0000592D4A913A912A919A918A917A916A9193
:102A100011240E94F533699379938993992E0EB40A
:102A20002EBC640C721C821C039CF001F50D0994F1
:102A30000000000000000000000000000000000096
:102A4000592D4A913A912A919A918A917A916A9153
:102A500011240E942B37699379938993992E0EB490
:102A60002EBC640C721C821C039CF001F50D0994B1
:102A70000000000000000000000000000000000056
:102A8000592D4A913A912A919A918A917A916A9113
:102A900011240E94D634699379938993992E0EB4A8
:102AA0002EBC640C721C821C039CF001F50D099471
:102AB0000000000000000000000000000000000016
:102AC000992D8A917A916A9111240E943E356993D9
:102AD00079938993992E0EB42EBC640C721C821CBF
:102AE000039CF001F50D09940000000000000000B7
:102AF00000000000000000000000000000000000D6
:102B0000992D8A917A916A9111240E944335699393
:102B100079938993992E0EB42EBC640C721C821C7E
:102B2000039CF001F50D0994000000000000000076
:102B30000000000000000000000000000000000095
:102B4000992D8A917A916A9111240E947135699325
:102B500079938993992E0EB42EBC640C721C821C3E
:102B6000039CF001F50D0994000000000000000036
:102B70000000000000000000000000000000000055
:102B8000992D8A917A916A9111240E946F356993E7
:102B900079938993992E0EB42EBC640C721C821CFE
:102BA000039CF001F50D09940000000000000000F6
:102BB00000000000000000C00895000000000000B8
:102BC000192C23E0620E721C9A90F8942EBC0EB55C
:102BD000821CECDF2EBC1EB57894EBDF121431F4AE
:102BE00038018EB45A9A5A982EBDC2C22EBCE1DF6B
:102BF000CBCE00000000000000000000000000003C
:102C0000640C721C821C921469F423E03FEF0EB432
:102C10005A9A5A982EBD9A9007FE30E0600C731EA7
:102C2000831EA9C200002EBC9A90C5DFADCE000065
:102C30000000000000000000000000000000000094
:102C400002E0600E721C821C921491F4F8942EBC67
:102C50000EB5789423E09A903FEF600EACDF1EB57E
:102C60005A9A5A982EBD17FF30E0711E831E83C2F8
:102C70002EBC9A909BDF2EBC9CDF86CE000000000D
:102C8000192C23E0620E721C9A90F8942EBC0EB59B
:102C9000821C8CDF2EBC1EB578948BDF121431F0B1
:102CA00038018EB45A9A5A982EBD62C22EBC81DF6A
:102CB0006BCE0000000000000000000000000000DB
:102CC000640C721C821C921469F023E03FEF0EB476
:102CD0005A9A5A982EBD9A9007FE30E0600C731EE7
:102CE000831E49C200002EBC9A9065DF4DCE0000C5
:102CF00000000000000000000000000000000000D4
:102D000002E0600E721C821C921491F0F8942EBCAA
:102D10000EB5789423E09A903FEF600E4CDF1EB51D
:102D20005A9A5A982EBD17FF30E0711E831E23C297
:102D30002EBC9A903BDF2EBC3CDF26CE000000006C
:102D400023E0620E721C821C00C0F8942EBC0EB5EB
:102D50002CDF2EBC1EB578942CDF921431F4380190
:102D60008EB45A9A5A982EBD03C22EBC9A9023DF75
:102D70000BCE00000000000000000000000000007A
:102D8000640C721C821C23E0921459F43FEF0EB4C1
:102D90005A9A5A982EBD07FE30E0600C731E831EAF
:102DA000EAC12EBC9A9007DFEFCD000000000000C2
:102DB0000000000000000000000000000000000013
:102DC00003E0600E721C821C00C0F8942EBC0EB58D
:102DD000ECDE2EBC1EB57894ECDE921431F0380196
:102DE0008EB45A9A5A982EBDC3C12EBC9A90E3DE77
:102DF000CBCD00000000000000000000000000003B
:102E0000640C721C821C23E0921459F03FEF0EB444
:102E10005A9A5A982EBD07FE30E0600C731E831E2E
:102E2000AAC12EBC9A90C7DEAFCD00000000000002
:102E30000000000000000000000000000000000092
:102E4000C89500C0AFB6F8942EBC6EB423E0AEDED9
:102E50002EBC7EB4AFBEAADE8EB45A9A5A982EBD4E
:102E600087C100000000000000000000000000001A
:102E70000000000000000000000000000000000052
:102E8000640C721C821C00C03FEF23E00EB45A9AFF
:102E90005A982EBD07FE30E0600C731E831E6BC176
:102EA0000000000000000000000000000000000022
:102EB0000000000000000000000000000000000012
:102EC00022E0620E721C821C3FEF23E0F8942EBCBD
:102ED0008EB578946CDE680E9EB55A9A5A982EBDBF
:102EE00097FF30E0791E831E46C186E06ED1000058
:102EF00000000000000000000000000000000000D2
:102F0000892C7A906A909A9023E05A9A5A982EBD0A
:102F10002FC10000000000000000000000000000C1
:102F200000000000000000000000000000000000A1
:102F30000000000000000000000000000000000091
:102F4000A0913406AD3288F6B6E0AFB6F8942EBC48
:102F50000EB4AFBE03E0060D602C721C821C0D93F4
:102F60007D928D9200C0F8942EBC7EB4AFBEA0932B
:102F700034061FDE23E08EB45A9A5A982EBDF8C04C
:102F8000A0913406AD32A8F4B6E0640C721C821C29
:102F90006D927D928D92A09334060EB423E05A9ADE
:102FA0005A982EBD102C110C1108600C711C811C3C
:102FB000E2C086E00AD1000000000000000000002E
:102FC000A0913406AD32A8F7B6E022E0F8942EBC0A
:102FD0000EB57894620E721C821C6D927D928D9259
:102FE000A093340623E030E0600E1EB55A9A5A983A
:102FF0002EBD17FD3FEF711E831EBDC000000000F7
:10300000A0913406AD32A8F6B6E06D927D928D9215
:10301000A093340623E05A9A5A982EBD892C7A90B0
:103020006A909A90A8C00000000000000000000014
:103030000000000000000000000000000000000090
:10304000A0913406B6E08E9023E05A9A5A982EBD8D
:103050007E906E90A09334068EC09A918A917A9158
:103060006A915A914A913A912A910E94C635699380
:10307000799389939993C0933006089500000000D6
:10308000E0E7F5E3640C721C821C609231060EB41A
:103090002EBC7092320680923306E00DF21D059030
:1030A000F491E02D9992C093300611240995C091B6
:1030B00030069A900EB42EBC640C721C821C039CC9
:1030C000F001F50D0994A49ED00CE11CF21CA59E04
:1030D000E00CF11CB49EE00CF11CB59EF00CC49EFB
:1030E000F00CD992E9929F2C0EB42EBC640C721C89
:1030F000821C039CF001F50D099400C0C895089549
:10310000C89500C04EB52EBC12E0610E721C821C28
:10311000F4DF5EB52EBCC92CBA90AA902A911A9100
:103120000A919A90EA90DA90A016B106C206C8F405
:10313000A49ED00CE11C921CA59EE00C911CB49E98
:10314000E00C911CB59E900CC49E900CD992E99213
:103150000EB42EBC640C721C821C039CF001F50D95
:10316000099482E032D05A9A23E05A982EBD00C0CA
:10317000000000C000C000913E060215C9F4009195
:103180006B0610916C06070D181D1EBD18D00EBDE4
:1031900016D06EBC15D02EBC14D0640C721CF894E2
:1031A0002EBC0EB47894821C039CF001F50D09949A
:1031B0001124C89500C05A9A0E945F27D5CF0000FD
:1031C000C89500C0C89500000895609231067092BD
:1031D0003206809233069992C093300611240E94E1
:1031E000F6290C9400009A918A917A916A915A91E9
:1031F0004A913A912A910E9469346993799389930B
:103200009993C0933006089500000000000000006C
:1032100000000000000000000000000000000000AE
:10322000000000000000000000000000000000009E
:10323000000000000000000000000000000000008E
:10324000000000000000000000000000000000007E
:10325000000000000000000000000000000000006E
:10326000000000000000000000000000000000005E
:10327000000000000000000000000000000000004E
:103280004E6F20666F6E742073657420666F7220B7
:1032900074657874206F7065726174696F6E005325
:1032A000697A6573206F66206D656D63707920643F
:1032B00073742F737263206469666665720053705D
:1032C00072697465206672616D65206F75747369CB
:1032D0006465206F66207365740043616C6C2073B5
:1032E0007461636B206F766572666C6F7700446102
:1032F000746120737461636B206F766572666C6FA6
:103300007700417373657274696F6E206661696CD2
:103310006564004469766973696F6E206279207A0A
:1033200065726F00417272617920696E6465782000
:103330006F7574206F6620626F756E6473004761ED
:103340006D652064617461206E6F7420666F756EA8
:1033500064000000FFFFFFFFFFFFFFFFFFFFFFFF15
:10336000FFFFFFFFFFFFFFFF19FDE4EE7CE1D4D478
:10337000E2C89CBDF7B2ECA8719F7E960C8E1386B6
:103380008C7E7277BE706A6A7164CE5E7C597654A8
:10339000B84F3F4B06470943463FB93B5F38353589
:1033A0003832672FBE2C3B2ADC279F2583238521BB
:1033B000A31FDD1D2F1C9A1A1C19B3175F161D15AC
:1033C000EE13D012C111C210D20FEE0E180E4D0D19
:1033D0008E0CDA0B2F0B8F0AF7096809E1086108D8
:1033E000E90777070C07A7064706ED059805470587
:1033F000FC04B40470043104F403BC0386035303D7
:103400002403F602CC02A4027E025A0238021802F9
:10341000FA01DE01C301AA0192017B01660152019A
:103420003F012D011C010C01000100010001000100
:103430000001000100010001000100010001000184
:103440000001000100010001000100010001000174
:1034500000010001000085C352C323C3F5C2CBC2E3
:10346000A3C27DC259C237C217C2F3B3BBB385B37F
:1034700052B323B3F5B2CBB2A3B27DB259B237B2D5
:1034800017B2F3A3BBA385A352A323A3F5A2CBA298
:10349000A3A27DA259A237A217A2F393BB9385934F
:1034A00052932393F592CB92A3927D9259923792A5
:1034B0001792F383BB83858352832383F582CB8268
:1034C000A3827D82598237821782F373BB7385731F
:1034D00052732373F572CB72A3727D725972377275
:1034E0001772F363BB63856352632363F562CB6238
:1034F000A3627D62596237621762F353BB538553EF
:1035000052532353F552CB52A3527D525952375244
:103510001752F343BB43854352432343F542CB4207
:10352000A3427D42594237421742F333BB338533BE
:1035300052332333F532CB32A3327D325932373214
:103540001732F323BB23852352232323F522CB22D7
:10355000A3227D2259223E33243313330233EE3229
:10356000DA32BE329F32803200004552524F520052
:1035700073236D2328234A231E23142366228229C2
:103580005C228F21D928031E001E952ECB2D692D7C
:103590000E2C212DC62C242EF11CE81C7B21711C25
:1035A0005C01DF25510193313F302E301E300F304A
:1035B0000030022CE30B6B2C3E2CD12B832C5F3183
:1035C0000F31AA30A02B532BE5250B21A730042760
:1035D0000821052102219830E7267C018E269130B2
:1035E00063266830DB2048309101B1017101F31886
:1035F000F1011102D1012D186E0D3102FF2B6A1D50
:10360000581DFC2B201D0E211700030C000000008C
:10361000994C000003002E02D1010000C4111001DA
:1036200084101000980C2E3AF243B94AB12A877CD4
:10363000B726AE22211FAA2AA23A0A0050018428E6
:103640004A298A10A10A0000BE78BF2A2E463F3AB6
:10365000BF46BF042E669F7CF147F1019F6C1F425D
:103660005F7C3F783F7EBF082E7ABF68B226E107B5
:103670001F7E071F1F7D9B6C833EB94E3F028360F8
:10368000F1032208104241004C7A5F324C4A4C7ED2
:103690004C53BE00D6035F701D00B0019F681F0031
:1036A0009E785E704C325E1144799E0856034F023C
:1036B0000E7A061B1E799249823ADA02C47D000016
:1036C000DF118D14A1C881CFD9F102AF11241FBE23
:1036D000CFEFDAE0DEBFCDBF16E0AEE3B6E0ECEF51
:1036E000F2E702C005900D92AE33B107D9F72AE098
:1036F000AEE3B6E001C01D92A237B207E1F70E9427
:1037000086320C947C390C940000E5E0F0E010D097
:10371000319728F068517C4F8F4F9F4FF9CFAB0105
:10372000FC0106D0641775078E079F07D0F3089534
:10373000A7E6B6E02FB7F8947D918D919C9166B580
:103740002FBFA89B05C06F3F18F47F5F8F4F9F4F1F
:1037500022E0660F771F881F991F2A95D1F70895D9
:103760009C01E0E0F2E0A0E0B0E0BD0180E045D0E7
:1037700039D0BD011296A20FB31F82179307A9F388
:103780008F5F9F4F21F4AF5FBF40DB0160F01ED120
:1037900040E05091700A6091710A80E226D05A9AF6
:1037A000FDD0A0E0B0E07CEF11D14A2F5091700A1B
:1037B0005B0F6091710A611D82E017D0832F71FD4C
:1037C000822F70FD819124D0759518F421503040DE
:1037D00019F01196AA2391F75A9AE0D021153105D4
:1037E00019F7089539D0982F3DC05A9811D0862FD7
:1037F0000FD0852F0DD0842F0BC0462F5091700A0B
:10380000570F6091710A681F83E0EFDF1EBC0895B7
:103810008EBD00008EB50DB407FEFCCF0895E0E02C
:10382000F2E0DC0160E070E080E0E7DF9D01AF01E5
:1038300060E00FD08217930749F4D901FA0160E0E4
:103840000BD081931197E1F761E0F3CF0BD0862F76
:10385000089502D0982F00C00DB407FEFDCF8EB59D
:103860001EBC08950DB407FEFDCF8EB55A9A08957B
:103870000F931F93CF93DF93809164008E7F80938B
:10388000640080917A00806480937A0080917A004D
:1038900086FDFCCFC0917800D091790049DFAB0163
:1038A000BC0180916400816080936400CE01B0E02F
:1038B000A0E0DC01992788278C019D01040F151FCA
:1038C000261F371FC901B801DF91CF911F910F91BA
:1038D00008958FB18095807F669B88601C9B846073
:1038E000089581E083BF889513BE089510926F0AF2
:1038F0003E98579808953E9A579A81E080936F0AB0
:10390000089590916E0A982329F490916D0A982356
:1039100081E009F480E0089580916D0A80936E0A39
:10392000D8DF80936D0A089580389105B8F460342B
:103930007105A0F490E121E061FD24E060FD220F1B
:1039400062FD2295687F969FD0011124A80FA3598C
:10395000B94F0C90022A40FF02260C9208955B9802
:10396000EDE6F6E030EB20E146E05C983EBD4A959E
:10397000F1F72EBD20E8239507C0449140815C9A61
:103980004EBD8111412D419344912A95B1F7339554
:10399000383B49F744910DB45B9A08955A9885E0F5
:1039A00037DF80E035DF80FDFCCF5A9A0895462F3F
:1039B00050916B06570F60916C06681F83E015DF0E
:1039C0001EBC08955A9824DF5A9A089586E0FACFCB
:1039D0008A91C093300696E0811194E09093390665
:1039E00008958A9180933C068A9180933B068A9140
:1039F00080933A06C0933006089560915D067091F9
:103A00005E0680915F06909160069827872776274B
:103A10009C01369527958327372F72273795632783
:103A20009B01369527959227222727958227609319
:103A30005D0670935E0680935F069093600608951E
:103A40008F929F92AF92BF92CF92DF92EF92FF92AE
:103A5000CF93DF93C0913006D1E0FA90EA90DA90EC
:103A6000CA90BA90AA909A908A90C814D904EA048D
:103A7000FB0468F4C2DFA50194012C193D094E092D
:103A80005F090E941D32C60ED71EE81EF91EC9929C
:103A9000D992E992F992C0933006DF91CF91FF90CD
:103AA000EF90DF90CF90BF90AF909F908F90089550
:103AB000E0913006F1E0B291A291929182918093CF
:103AC0005D0690935E06A0935F06B0936006E09358
:103AD00030060895CDDE60935D0670935E06809398
:103AE0005F069093600608958093F1000895E09139
:103AF0003F06F0914006628173816115710549F0BE
:103B00006150710962837383A081B1818D93A08319
:103B1000B183089567DE082E892F902D08955A9A53
:103B20005A9843E04EBDE0913006F1E0349742915F
:103B300032912291A0916B06B0916C06A30FB41F35
:103B4000BEBDCF92EF92FF920F937901042F638154
:103B5000748108C0000000000000000000C000C028
:103B600000C0089545E0AEBD582F85819681B29181
:103B7000A291E0933006C895C895EEBCE40EF11C06
:103B8000011DECDF1EBCE8DFF8941EBC4EB5789436
:103B9000E5DFF8941EBC2EB57894295F287FE22FCC
:103BA000E695E695E69503C087E00C94F629C8955E
:103BB00000C0F8941EBCCEB47894C52AC0FCEE0FA9
:103BC000E49FF001EB9FF00C011D112400C0F8945C
:103BD0001EBC3EB57894FB9F000DFA9FF00C011DB2
:103BE000EA9FE00CF11C1124011DA3173EB55A9A5F
:103BF000B307D0F60BD00F91FF90EF90CF9082C219
:103C000084E08DCF089580E08ACF089580389105B3
:103C10007CF46034710564F4DC01A40FB11D1A1644
:103C20001B0634F4DB01A20FB11D1A161B060CF0A3
:103C300008952F923F924F925F926F927F928F9250
:103C40009F92BF92EF92FF920F931F93382E2224E0
:103C5000842E322F3695369536955A9853E05EBDB0
:103C6000FB01F595E795F595E795F595E7951E2FF9
:103C70001F3F4CF41095311BC0FC110F149FE00C3A
:103C8000F11C021D1FEF00906B06F00C00906C06FB
:103C9000001D97FF0BC0880EC0FE02C0880F991F41
:103CA000E81AF90A020997FD039533240EBDADE623
:103CB000B6E050E81503030CA00DB11D531985168D
:103CC00008F0852EE7E0E11BE31714F43E2F239460
:103CD000FEBCE0E8E8194E2E51E061FD54E060FDC5
:103CE000550F62FD5295552EEFEFE59D3001609422
:103CF0007094EEBC11246FB724D01EBCBB244815B1
:103D000009F0B39422C05A98E3E0EEBD1124E40E0A
:103D1000F11C011DC0FCE40EC0FCF11CC0FC011D27
:103D2000BB24481509F0B394C8950EBD08D0FEBC5D
:103D300006D0EEBC05D01EBC00C000C00895000037
:103D400000C00000C895C8950895C1FCF4C0C2FC2D
:103D5000A6C011151CF0332391F57CC0A058BF4FAD
:103D6000582DC0FC0DC0F8941EBC8EB56FBF859D4C
:103D70009C90972091289D9200C05A95A1F714C05D
:103D8000F8941EBC8EB56FBF859DC001DCDFF89432
:103D90001EBC6EB46FBF659C30019C9070949720E0
:103DA000992A9D925A9561F71124A819B1093A955B
:103DB00009F410C1BB2019F00DB45A9AA4DFFD011B
:103DC000E058FF4F582DC0FC1FC0569518F453956E
:103DD0009C900CC08EB51EBC859D9C909620902812
:103DE0009D9290809720912891929C908EB51EBCB8
:103DF000859D962090289D92908097209128919261
:103E000000005A9539F716C0F8941EBC8EB56FBFE6
:103E1000859DC0019C90708097DF6EB41EBC659C30
:103E200000949020982A9D9210947120792A719282
:103E30005A9551F71124A40DB11D3A9509F0BACF46
:103E4000222009F4C7C0BB2029F00DB45A9A5BDFC9
:103E500000C0C895C0FC0DC0F8941EBC8EB56FBFE5
:103E6000859D9C90962090289D9200C08A94A1F7F1
:103E7000B1C0F8941EBC8EB56FBF859DC00163DFD5
:103E8000F8941EBC3EB56FBF359D302D9C9030958B
:103E90009322982A9D928A9461F700009BC0111585
:103EA0001CF03323E1F43BC0A058BF4F582DF894C9
:103EB0001EBC8EB56FBF859D9C9091289D92C89524
:103EC0005A95A9F71124A819B1093A9509F482C0A5
:103ED000BB2029F00DB45A9A16DF00C000C0FD01C6
:103EE000E058FF4F582D8EB51EBC859D9C909028A4
:103EF0009D9290809128919200005A95A1F71124EB
:103F0000A40DB11D3A9521F7222009F463C0BB200E
:103F100031F00DB45A9AF7DE00C000C0C895F8948D
:103F20001EBC8EB56FBF859D9C9090289D92C895B4
:103F30008A94A9F74FC011151CF03323F1F43DC04A
:103F4000A058BF4F582DF8941EBC8EB56FBF859DED
:103F5000009410949C9091209D9200005A9599F79E
:103F60001124A819B1093A9509F434C0BB2029F0ED
:103F70000DB45A9AC8DE00C000C0FD01E058FF4FE2
:103F8000582D8EB51EBC859D009410949C90902059
:103F90009D929080912091925A9599F71124A40DA9
:103FA000B11D3A9519F7222009F414C0BB2021F065
:103FB0000DB45A9AA8DE00C000C0F8941EBC8EB59D
:103FC0006FBF859D009410949C9090209D9200005E
:103FD0008A9499F711245A9A0DB41F910F91FF906A
:103FE000EF90BF909F908F907F906F905F904F90D9
:103FF0003F902F9008950895CF92EF92FF920F93E4
:10400000DC01E3E05A98EEBDE0903A06F0903B0602
:1040100000913C06E0916B06F0916C06FE0E0F1FBE
:10402000E7E0E49FE00CF11C1124011D0EBD02D05D
:10403000FEBC07C000C00000000000C000C000C0FF
:104040000895F9DFEEBCE0903A06F0903B0600914F
:104050003C06EFEFEE1AE8EFFE0AEFEF0E0B00C0A2
:1040600000C01EBCE8DFF8941EBC3EB578948D916C
:104070009C91FC01E30FF11DFC93EE9300C0F894BA
:104080001EBC3EB57894830F911D37FD9A95D7DFFE
:10409000F8941EBC3EB57894630F711D37FD7A9578
:1040A000CEDFF8941EBCEEB57894C7DFF8941EBC42
:1040B000FEB57894EE0EFF1EC1DFF8941EBC4EB51F
:1040C0007894BADF2EB55A9AC09039069FDD0F91C9
:1040D000FF90EF90CF900895E0913F06F091400659
:1040E000648175818A3051F48081918193838283C8
:1040F0008681680F711D758364830895482FCF01F1
:1041000002967ACF83E05A988EBD00913E06011543
:1041100029F0112414D05A9AD2D6F4CF4091310606
:10412000509132066091330680916B0690916C0637
:10413000580F691F6EBD07C00000000000C00000DE
:1041400000C0C8950895FADF5EBDF6DF4EBDF5DF0D
:104150001EBCF5CF93E05A989EBD40913A0650910F
:104160003B0660913C0697E0899F400D511D11244C
:10417000611DDADF00C000C08EB55A9A089593E041
:104180005A989EBD40913A0650913B0660913C067C
:1041900097E0590F611DC8DF00C000C08EB55A9A64
:1041A000089593E05A989EBDAB01682FC895C895B5
:1041B000BBDF00000895CF935A9A6AE070E080E078
:1041C000F6DB4ADBC82F4EDB2C2F382FC9010197B5
:1041D0008115944010F4C901C3DAE0DB93DFCF917D
:1041E0000895FC01A0913006B1E08E917E916E9110
:1041F000A093300690916F0A992319F05A9A099565
:1042000081CF08958FE298E2ECCF81EE97E2E9CF7B
:104210008EE098E2E6CF86E897E2E3CF8F929F9216
:10422000AF92BF92CF92DF92EF92FF920F931F93C4
:10423000CF93DF93E0913006F1E082919291229149
:10424000C22ED92EE82E82919291092F182F829199
:10425000EF019A91A92EB82E5A9A8E2DB601A7DB9E
:10426000FBDAF82EF6DA4C01082C892C902C52DC63
:104270000817190708F03CC0A814B90408F038C0A2
:1042800025E0C20ED11CE11CA89E9001B99E402DD4
:10429000A99E300D411DB89E300D411D1124200FE7
:1042A000311F411D82E0F81203C0220F331F441F4B
:1042B000842FB9016C0D7D1D8E1D79DB21E0F2127A
:1042C00015C0D0DA90E0FE0181939193E09330061F
:1042D00019DFDF91CF911F910F91FF90EF90DF9049
:1042E000CF90BF90AF909F908F90089513DCEBCF4D
:1042F00090E080E0E8CFE0913006F1E06291E09359
:1043000030066B3040F070E080E094E00E94DD31D8
:104310006093360608956623D9F364E6F9CF2F92A9
:104320003F925F926F927F928F929F92AF92BF92D5
:10433000CF92DF92EF92FF920F931F93CF93DF9371
:10434000CDB7DEB7C650CDBFE0913006F1E0829127
:104350009291E92EF82E82919291092F182F229195
:104360005290E0933006822F90E09E838D8381E00F
:1043700090E05C012D813E81A21AB30AC90191959A
:10438000819591099C01220F331F3A8329836D8106
:104390007E81600F711F452DC701C6DAB8018D817E
:1043A0009E81681B790B452DC701BEDA452DB801EA
:1043B0008D819E818E0D9F1DB7DA452DB801C701F5
:1043C0002D813E81821B930BAFDAD12CC12C81E071
:1043D00090E09C838B832D813E81C216D3060CF026
:1043E00057C0B7FC0BC0215031093E832D83898112
:1043F0009A8102969A838983A80EB91E9FEFC91AE3
:10440000D90A2B813C812E5F3F4F3C832B83A20E28
:10441000B31E36016E0C7F1C452D8D809E80800E54
:10442000911EB401C30180DA17012C183D08452DF7
:10443000B401C10179DA452D48018D819E81881A28
:10444000990AB401C30170DA452DB401C1016CDAD7
:1044500048018C0C9D1C452DB4016D807E806E0C36
:104460007F1CC30161DA452DB40117012D813E8106
:10447000221A330AC10158DA48018C189D08452DCB
:10448000B401C30151DA452DB401C1014DDAA3CF06
:10449000CA5FCDBFDF91CF911F910F91FF90EF9039
:1044A000DF90CF90BF90AF909F908F907F906F9054
:1044B0005F903F902F9008959A918A917A916A9196
:1044C0004A912A910A91C0933006D3C52F923F9208
:1044D0004F925F926F927F928F929F92AF92BF9214
:1044E000CF92DF92EF92FF920F931F93CF93DF93C0
:1044F000CDB7DEB7C350CDBFE0913006F1E0829179
:1045000092919A838B8382919291092F182F829195
:104510009291E92EF82E22913291832F922F22919F
:104520002983E09330066C01C01AD10AD7FE03C07C
:10453000D194C194D10847012A813B81821A930A00
:1045400097FE03C09194819491088C149D045CF4AF
:104550003E2D2F2D7C01832F922F3A812B811B839F
:104560000A83032F122F2A813B81E216F3065CF4A3
:10457000302F212F8C01832F922F3A812B81FB82A8
:10458000EA82E32EF22E17012A813B81221A330A96
:104590002C01401A510A57FE03C05194419451080E
:1045A000310137FE03C03FEF631A730A75946794B5
:1045B0000817190714F18FEFA82E880FBB088A81FE
:1045C0009B81E816F906DCF04981BC01C8018C1416
:1045D0009D041CF0B8018A819B81A6D964187508D6
:1045E00077FE04C00A0D1B1D620C731C2A813B81DF
:1045F0002F5F3F4F3B832A83E2CF81E0DDCFCD5F4A
:10460000CDBFDF91CF911F910F91FF90EF90DF9081
:10461000CF90BF90AF909F908F907F906F905F9062
:104620004F903F902F9008959A918A917A916A9134
:1046300041E02A910A91C09330061BC59A918A9154
:104640007A916A914A9121E00A91C093300611C58E
:10465000E0913006F1E08291929133278038B0F4F6
:104660009034A0F421E091FD24E090FD220F92FD12
:104670002295A0E1987F9A9FD0011124A359B94FA8
:10468000A80FB11D0C90022209F033953193E093ED
:1046900030060895E0913006F1E092918291729196
:1046A00062914291E09330063FC9CF93DF93C0916E
:1046B0003606D09137068C2F8D0F8093370678946D
:1046C000809167068D1B8C1728F48F5F8C17B8F7C5
:1046D00008D9F5CFDF91CF911FC95A9A80E03FD911
:1046E000E4DF10CD08955A9A81E039D9DEDF0ACD92
:1046F00008955A98A3E0AEBDFC0181919191A191DA
:1047000040916B0650916C06490F5A1F00C000C0C3
:104710005EBD0DD04EBD0BD08EBD0196A11DA293E6
:104720009293829308D01EBC04D000000895C895CF
:10473000C89500C000C008952F923F924F925F929B
:104740006F927F928F929F92AF92BF92CF92DF92A1
:10475000EF92FF920F931F93CF93DF93CDB7DEB706
:10476000C851CDBF9C8B8B8BE0913006F1E08290DD
:1047700072906290A291929182918E879F87A88B6E
:10478000E0933006CE0101969A8B898B90E3592EE7
:1047900061147104810409F4FDC1CE010E96A9DFF4
:1047A0000EB55A9A1301482C91E0291A3108410894
:1047B000053229F0802FEB89FC89099517C0CE01BD
:1047C0000E9697DF1EB55A9A1301482CF2E02F1A65
:1047D00031084108143609F447C058F4133509F478
:1047E000B0C0133609F48CC0153221F3842C31018A
:1047F000CFCF133709F48BC008F031C01636B1F7AC
:10480000E0913006F1E08291929122913291C32E93
:10481000D22EE92EF82ECD8ADE8AEF8AF88EE0932A
:104820003006CE010E9665DF1EB55A9A1301482C4C
:10483000F3E02F1A31084108A7019601C701B6011C
:104840000E946538882309F4C6C08EE6EB89FC898E
:10485000099581E6EB89FC8909958EE6ACCF153781
:1048600019F0183709F0C2CFE0913006F1E08291DB
:10487000929122913291A32EB22EC92ED82EE0937E
:104880003006CE010E9635DFFEB45A9A1301482C3D
:1048900083E0281A31084108183709F475C0143626
:1048A00009F087C0D7FE85C08DE2EB89FC890995A8
:1048B000D094C094B094A094A11CB11CC11CD11C74
:1048C000FFECFF0E8AE08E010F5F1F4F682E712CE8
:1048D000912C812CC601B501A40193010E941D32C7
:1048E00059016A0187E56A3008F480E3860FD80130
:1048F0008D938D01FA94232B242B252B59F752C02D
:10490000E0913006F1E00291E093300653CFE09160
:104910003006F1E0F290E29012910291E0933006BD
:10492000E114F10409F462CFF80181918F01882329
:1049300009F45CCFEB89FC890995F1E0EF1AF108E5
:10494000EFCFE0913006F1E0E290D290C290A291D8
:1049500092918291E09330068B879C87AD87C1143A
:10496000D104E10409F442CFCE010B96C2DE8EB52C
:104970005A9A882309F43ACFEB89FC890995F1E02A
:10498000CF1AD108E108EBCF80E1A114B104C10432
:10499000D10489F48E010F5F1F4FD8015D928D0104
:1049A000BFECFB0E1F1454F4F80151928F01FA94DE
:1049B000F9CF8AE0EACFE0EDFE0E85CF89899A89AA
:1049C0008017910709F412CFF80182918F01EB89CA
:1049D000FC890995F3CFE894F7F82FEF3FEF4FE705
:1049E0005FE7C701B6010E946538811114C02FEF3F
:1049F0003FEF4FE75FE7C701B6010E94CF341816BB
:104A000054F489E6EB89FC8909958EE6EB89FC89EB
:104A1000099586E6D0CE2FEF3FEF4FE75FE46D8933
:104A20007E898F89988D0E942037181664F02FEFA9
:104A30003FEF4FE75FEC6D897E898F89988D0E94EB
:104A4000CF3487FF06C08FE6EB89FC89099586E79E
:104A5000DDCF20E030E0A9016D897E898F89988DB6
:104A60000E94CF3487FF0DC08DE2EB89FC89099548
:104A70008D899E89AF89B88DB0588D8B9E8BAF8BF9
:104A8000B88F80ED782E710E10E060E070E080E06D
:104A90009FE3171540F42DEC3CEC4CEC5DE30E94D9
:104AA0002B371F5FF6CF2D893E894F89588D0E9485
:104AB000F6336B017C010E9443354B015C010E947F
:104AC0006F359B01AC01C701B6010E94F5336B0144
:104AD0007C0181149104A104B10491F48E010F5F53
:104AE0001F4FD8015D928D01E989FA89E017F1071E
:104AF00031F1F80182918F01EB89FC890995F4CF9E
:104B0000612C8E010F5F1F4FC501B4012AE030E018
:104B100040E050E00E941D3249015A01605DF801F9
:104B200061938F016A9481149104A104B10461F727
:104B30001614D4F6D8015D928D016A94F9CF7720CE
:104B400009F454CE8EE2EB89FC8909957A9477FCBE
:104B50004DCE20E030E040E251E4C701B6010E94B2
:104B60002B374B015C010E944335162F80E3810FE8
:104B7000EB89FC890995612F70E090E080E00E944C
:104B800071359B01AC01C501B4010E94F5336B0185
:104B90007C01DCCFC85ECDBFDF91CF911F910F911B
:104BA000FF90EF90DF90CF90BF90AF909F908F904D
:104BB0007F906F905F904F903F902F9008955A9AFA
:104BC00084E79DE1B9DD9ECA0895CF93DF93CDB709
:104BD000DEB7C450CDBFE0913006F1E082919291F2
:104BE00022913291E09330065A9A39832A839B832B
:104BF0008C83CE0101969093400680933F0687E711
:104C00009DE19ADD8B819C81892B19F0E981FA81E4
:104C1000108278DACC5FCDBFDF91CF9108957F927B
:104C20008F929F92AF92BF92CF92DF92EF92FF92BC
:104C30000F931F93CF93DF93962EEA01C22E082F76
:104C4000FE01C0FE8191C0FC8591EF01882361F1D6
:104C500012E0803239F1E82FEE0FFF0BEA53FA4CE5
:104C6000E590F49013E00E37E8F4802E11E08E2DDD
:104C70008F71D82EB9F0792CA82CB12CD0FE06C09B
:104C8000672D70E041E0C5010E94941C7394D69496
:104C9000A9F785E0F694E7948A95E1F71F5F83947E
:104CA000153029F7010FCCCF802FDF91CF911F91C5
:104CB0000F91FF90EF90DF90CF90BF90AF909F90BB
:104CC0008F907F90089518B810926F00E2E4F6E09C
:104CD0001086118A128E10923E061092410688E1CB
:104CE000809391001092C00018B80895109280002F
:104CF0008AE0809381008FE39FE190938900809305
:104D0000880083E48093900088E180939100109262
:104D1000C0001092C1001092C300D5CF80916F0ADD
:104D2000882319F00E94761CE1CF0E947B1CFCCFE7
:104D3000813818F01092C0000895811104C01092BB
:104D4000C00018B80895E82FF0E0EE0FFF1FEC5AEE
:104D5000FB4C85919491292F22952F709F70209361
:104D6000C1009093BF008093D10096958795909352
:104D7000BF008093CF0082E88093C00008958138FF
:104D800020F088E18093910008958823D1F3E82FE3
:104D9000F0E0EE0FFF1FEE5AFC4C8591949190933A
:104DA0009900809398008AE1EDCF80914A068111A5
:104DB0000DC080915306811109C010924106809167
:104DC0005C06811103C010926F0018B8089510920C
:104DD0005C0680914106811108C010924A0688E164
:104DE000809391001092C00018B8DFCF1092410656
:104DF000E2E4F6E01086118AD8DF88E18093910022
:104E00001092C00018B80895809141068111EECF2C
:104E100008955A9893E09EBD9FB700906B06700D61
:104E200000906C06801D20D08EBD1AD07EBD18D09B
:104E30006EBD17D01EBCDA012150304000C051F0C9
:104E400000C014D0F8941EBC0EB49FBF0D92215028
:104E50003040B9F70AD00EB40C925A9A0DB40895A6
:104E6000000000C0C8950000000000C00895CF9267
:104E7000DF92EF920F931F93CF93DF93FC01448156
:104E800004E0102F141B99F0EC01C580D680E78058
:104E9000212F30E0480F592F511D8E2DB601B9DF5B
:104EA000C10ED11CE11CCD82DE82EF820C83DF912A
:104EB000CF911F910F91EF90DF90CF900895CF93F6
:104EC00080916F00811102C010923E0680913E06D3
:104ED0008823D1F0CFB7F89480914A06882319F03F
:104EE00082E496E0C4DF80915306882319F08BE4B6
:104EF00096E0BDDF80915C06882319F084E596E09A
:104F0000B6DF10923E06CFBFCF910895CF92DF92C9
:104F1000EF921F93CF93DF93CDB7DEB7C350CDBFD2
:104F20006B01E82E18B810926F0023E030E0AE015C
:104F30004F5F5F4F6EDF83E0C80ED11CE11C1FB7CF
:104F4000F89410924606C0924706D0924806E09226
:104F5000490681E080934A0680914A06882319F029
:104F600082E496E084DF89819A81AB81C80ED91EE4
:104F7000EA1E10924F06C0925006D0925106E0925F
:104F8000520681E08093530680915306882319F0DE
:104F90008BE496E06CDF80914206F1DE80914B0657
:104FA000C7DE81E0809341061FBF82E080936F00DF
:104FB000CD5FCDBFDF91CF911F91EF90DF90CF906C
:104FC0000895CF92DF92EF92CF936B01E82E8091FC
:104FD000410681110BDF18B810926F00CFB7F8941B
:104FE00010924606C0924706D0924806E0924906C3
:104FF00081E080934A0680914A06882319F082E472
:1050000096E035DF80914206BADECFBF82E0809322
:105010006F00CF91EF90DF90CF900895CF9318B8A5
:1050200010926F00CFB7F89410925806609359060B
:1050300070935A0680935B0681E080935C068091B2
:105040005C06882319F084E596E011DF8091540610
:105050006FDECFBF82E080936F00CF910895909173
:105060005C06992329F090914A06911101C0A9CFBD
:10507000D5CF0F93803891050CF099C0603471053D
:105080000CF095C0FC01E40FF11D1E161F060CF07C
:105090008EC0FB01E20FF11D1E161F060CF087C02B
:1050A000442309F484C0222309F481C0582F362FE9
:1050B00077FF02C0260F30E097FF02C0480F50E094
:1050C00090E8951B491708F4942F80E4831B281758
:1050D00008F4822F830F41E031FD44E030FD440F9E
:1050E00032FD4295419561E081FD64E080FD660FEF
:1050F00082FD62956195A42FA095762F70958150C1
:10510000232F269526952695869586958695EDE6F8
:10511000F6E030E8239FE00DF11D1124E50FF11DAD
:10512000821B40FD8F5F60FD8F5F21E0011101C098
:1051300020E0219550E8591B342F3223472F42237A
:10514000882319F46A2B43232CC0AA2349F0B92FD2
:1051500000800A22032A0192BA95D1F7E50FF11DCA
:105160008A95E9F0B92FB77081F4B92F2193219373
:10517000219321932193219321932193B850B1F747
:10518000E50FF11D8A9571F70AC02193BA95E9F7E9
:10519000B92FB87F59F7E50FF11D8A9519F77723D5
:1051A00031F000800622042A01929A95D1F70F91DE
:1051B00008952F923F924F925F926F927F928F92BB
:1051C0009F92AF92BF92CF92DF92EF92FF920F9396
:1051D0001F93CF93DF93CDB7DEB7C650CDBFE0911D
:1051E0003006F1E082919291E92EF82E829192910F
:1051F000692E782E22911291E0933006822F90E052
:105200009E838D839C01220F331F2F5F3F4FB3017D
:10521000681B790B012F41E0C7012BDF81E090E093
:105220006C01ED81FE81CE1ADF0A1F0131942194B9
:105230003108220C331CB12CA12C88248394912C8E
:105240002D813E81A216B3060CF047C0D7FC09C0E1
:10525000215031093E832D8332E0230E311CC20CD4
:10526000D31C8FEFA81AB80A92E0890E911CC80CC3
:10527000D91C8D819E81880F991FFC013196FC837A
:10528000EB83012F2B8141E023018D819E81481A00
:10529000590AB201C5018E0D9F1DEBDEF301EA191B
:1052A000FB09FA83E983282D41E0BF018D819E81AE
:1052B0008E0D9F1DDEDE2B8141E0B201C7018A19F0
:1052C0009B09D7DE282D41E069817A81C701ED81F4
:1052D000FE818E1B9F0BCDDEB3CFCA5FCDBFDF91AA
:1052E000CF911F910F91FF90EF90DF90CF90BF90E3
:1052F000AF909F908F907F906F905F904F903F9076
:105300002F900895CF92DF92EF92FF920F931F9309
:10531000CF93DF93E0913006F1E082919291E92EF4
:10532000F82E82919291C92FD82F1291C290D290CB
:10533000E09330060D2D21E0412FBE01C70199DE1B
:105340002C2D41E0BE01C70194DEBE016C0D711D24
:105350006150710921E0412FC7018BDEC701810F28
:10536000911D2C2D41E0BE01019783DEDF91CF918D
:105370001F910F91FF90EF90DF90CF900895EF92E3
:10538000FF920F93022E069406940694C0FC000C24
:10539000049EF001EA9DE00CF11CFA9DF00C011D49
:1053A000EB9DF00C011DFB9D000D11240E94061EBB
:1053B0000F91FF90EF900895FC0180858823A9F05C
:1053C0008181815071F481E080933E068481825016
:1053D00061F02281338131832083848381E0908155
:1053E0000895818380E090E008950895CF93DF933E
:1053F000CDB7DEB7CA52CDBF8CA380933506EDE69C
:10540000F6E080E094E0DF019C011D9221503040E5
:10541000E1F75A9A58DC3CA110E0323040F010918C
:1054200034068BEA189F112D112416951F5F4CA18D
:105430004150550BCA01880F991FDC01AA5ABA4C7A
:10544000B8A7AFA3CC24C39400E0E12FF0E0FAA703
:10545000E9A79E012F5F3F4F79010E948C1C00231A
:1054600039F080E80E94811C882311F00150C82E79
:1054700088E0800F811728F480E10E94811C81114F
:105480007CC0CC2009F4E2C021E04AE655E361E0AB
:1054900081E0C5DB3CA1313069F028E130E0A701B3
:1054A00060E270E080E0B5DC198E20E0A70161E0E9
:1054B00084E2B5DBEDE6F6E080814FE78427819357
:1054C00056E0ED3EF507C0F3EFA1F8A545915491E4
:1054D00021E068E080E0A3DB29A53AA5201B310983
:1054E000C901880F991F820F931FDC01A050BF4F85
:1054F000BEA3ADA3902EB1E1BBA3911608F0A3C04B
:10550000209031063090320640903306992039F0D1
:10551000EDA1FEA1E350FB4F2080318042806CE082
:1055200070E080E00E94D1200E942C1C582E0E9426
:10553000291CB82E0E942C1CA82EC92E0E94291CA2
:10554000782F0E94321C682F892F0E94D120612C55
:10555000712C812C1AA219A2D12C62147304840418
:1055600078F50E942C1C87FD0AC090E00196680E19
:10557000791E811C97FD8A94F0CF0F5F85CF8D3FF8
:1055800050F429A13AA12F573109F901E80FF11D73
:10559000FAA3E9A3E2CF8D3F21F40E942C1CD82E60
:1055A000DCCF8E3F29F40E94291C9AA389A3D5CF72
:1055B0000E94291C782E0E942C1C682E892ECDCF8B
:1055C0000E94321CD51498F5F0E2DF9EC001112430
:1055D0004C2D9501280F391F411D97FD4A95842FA9
:1055E000B90120E230E0A70114DC20E0A7016BA1A3
:1055F00088E115DBFE01369689A19AA16AE070E088
:10560000DCD6805D829369A37AA3EE16FF06A1F72C
:105610001E8280E0A701480F511DDA019C91903352
:1056200011F48F5FF7CF20E06BA180E0F8DA93945C
:10563000BBA1BA5FBBA3EDA1FEA13397FEA3EDA36F
:10564000BB3309F05ACF81E00E94AF1C2FB7F8940A
:105650008091630690916406A0916506B0916606FC
:105660002FBF94E1D92ED80EC12C2FB7F89480917A
:10567000630690916406A0916506B09166062FBFFF
:10568000FD2DF81BF7FDE9CE0E94711CEECFE091D5
:105690003006F1E0EE3F28F481939193E0933006D9
:1056A000089585E0A3DE8F929F92AF92BF92CF9232
:1056B000DF92EF920F931F93CF93DF93E091300629
:1056C000F1E082919291C92FD82F1291029182918B
:1056D00092912291C22ED92EE82E829172916291DE
:1056E000E09330065A9A0E94D1202097A9F05801E1
:1056F0004E010E942C1CF50181935F01882361F00B
:10570000F1E08F1A910841F081E0C81AD108E10850
:1057100081F7F50180E081930E94321CC801B7DF58
:10572000CE01B5DF0E948220DF91CF911F910F91B2
:10573000EF90DF90CF90BF90AF909F908F900895A3
:105740001F93CF93DF93E0913006F1E08291929125
:10575000C92FD82F9291829122913291632F722F6B
:1057600042915291E09330062097A9F0FC01252F39
:10577000342FAE01D9011D919D011193112359F0D0
:105780004150510941F0DA01A60FB71FAC17BD0710
:1057900089F720E021937BDFCE01DF91CF911F912C
:1057A00076CFE0913006F1E082919291292F382F47
:1057B00082919291492F582FE093300690E080E03B
:1057C0002115310551F0FC01E40FF51F60816623BE
:1057D00021F0019682179307B1F759CFE091300677
:1057E000F1E0EC3F38F46193719381939193E093EE
:1057F0003006089585E0FADD0E94FD1CEFCF0E947F
:10580000381CECCF2FB7F894609163067091640652
:1058100080916506909166062FBFE0CFCF93DF930E
:10582000CDB7DEB7C750CDBFCE01019690934006ED
:1058300080933F06E0913006F1E082919291998346
:105840008A839B838C83829192919D838E83E09344
:1058500030065A9A80913C068F3F11F489E0C6DDEC
:105860000E94BF208F838CE690E20E949C230E94BE
:105870008220C95FCDBFDF91CF9108956F927F9253
:105880008F92CF92DF92EF92E0913006F1E0829119
:105890009291292F382F5291429182919291629147
:1058A000C62ED92EE82E829172916291E093300635
:1058B0005A9A3901812C6C147D048E0411F088E011
:1058C00095DDA7DA0E948220EF90DF90CF908F9035
:1058D0007F906F900895E0913006F1E0829192916F
:1058E000292F382F9291829162917291472F562FD2
:1058F00072916291E09330064217530711F088E0ED
:1059000075DD0C9473396F927F928F92CF92DF92F4
:10591000EF92E0913006F1E0829192912291C22EB5
:10592000D92EE82E829172916291E0933006C114D3
:10593000D104E104B1F05A9A0E94D120612C712C5B
:10594000812C0E942C1C882341F08FEF681A780A62
:10595000880A6C147D048E04A1F70E94321CE82C86
:105960006301E0913006F1E0ED3F70F4C192D19215
:10597000E192E09330060E948220EF90DF90CF907A
:105980008F907F906F90089585E030DDAF92BF9249
:10599000CF92DF92EF920F931F93CF93DF93CDB708
:1059A000DEB7C350CDBFE0913006F1E080913C06F8
:1059B000929122913291C32ED22EE92E9291229170
:1059C000329139832A839B83E09330068F3F11F411
:1059D00089E00CDD5A9AB12CA12C10E000E0C11432
:1059E000D104E104D1F0CE0101960E9479238EB555
:1059F0005A9A882391F091E0C91AD108E1088A30B7
:105A000039F40A151B0508F48501B12CA12CE7CF48
:105A10000E94AA20A80EB11CE2CFC8010A151B05DE
:105A200008F4C50134DE0E948220CD5FCDBFDF9136
:105A3000CF911F910F91EF90DF90CF90BF90AF90DB
:105A40000895CF92DF92EF92FF920F931F93CF931F
:105A5000DF93E0913006F1E020913C068291929133
:105A6000E92EF82E82919291E09330062F3F11F4A7
:105A700089E0BCDC5A9AC92FD82FD12CC12C10E058
:105A800000E08991882379F0E114F10461F091E05C
:105A9000E91AF1088A30C1F40C151D0508F48601D5
:105AA000D12CC12CEECFC8010C151D0508F4C60180
:105AB000EEDD0E948220DF91CF911F910F91FF9028
:105AC000EF90DF90CF9008950E94AA20C80ED11CBD
:105AD000D8CF8F929F92AF92BF92CF92DF92EF92E8
