:100000000C94F3190C94101A0C94101A0C94101AE6
:100010000C94101A0C94101A0C94101A0C94101AB8
:100020000C94101A0C94101A0C94101A0C94101AA8
:100030000C94101A0C94101A0C94101A0C94101A98
:100040000C94101A0C94101A0C94101A0C94101A88
:100050000C94101A0C94101A0C94101A0C945E261E
:100060000C94101A0C94101A0C94101A0C94101A68
:100070000C94101A0C94101A0C94101A0C94101A58
:100080000C945E2F0C94101A0C94101A0C94101AE5
:100090000C94101A0C94101A0C940B2F0C94101A28
:1000A0000C94101A0C94101A0C94101A084AD73B8E
:1000B0003BCE016E84BCBFFDC12F3D6C74319ABD37
:1000C00056833DDA3D00C77F11BED9E4BB4C3E915B
:1000D0006BAAAABE000000803F05A84CCDB2D44E4A
:1000E000B93836A9020C50B9918688083CA6AAAA4C
:1000F0002ABE000000803F0664EC1B3C04BC163E98
:100100003BE5B93CC93C37C29E5A3D660498083E5F
:10011000EA69AAAA3E000000803F07634236B79B07
:10012000D8A71A39685618AEBAAB558C1D3CB7CC57
:100130005763BD6DEDFD753EF6177231BF000000CF
:10014000803F08000000BE922449123EABAAAA2AB2
:10015000BECDCCCC4C3E00000080BEABAAAAAA3ECD
:1001600000000000BF000000803F00000000000809
:100170004178D3BB4387D1133D190E3CC3BD4282A6
:10018000AD2B3E68EC8276BED98FE1A93E4C80EF64
:10019000FFBE01C4FF7F3F00000000000000000020
:1001A000000000000000000000000000000000004F
:1001B000000000000000000000000000000000003F
:1001C000000000000000000000000000000000002F
:1001D000000000000000000000000000000000001F
:1001E000000000000000000000000000000000000F
:1001F00000000000000000000000000000000000FF
:10020000C895C89500000EB42EBC640C721C821CEC
:10021000039CF001F50D09940000000000000000AF
:1002200000000000000000000000000000000000CE
:1002300000000000000000000000000000000000BE
:100240009992CF3FA1F0C8950EB42EBC640C721CDD
:10025000821C902CC895C895C895C8950EB42EBC24
:10026000640C721C821C039CF001F50D099485E05E
:100270000C94D918000000000000000000000000ED
:100280009992CF3F19F485E00C94D91800E0902E94
:100290000EB42EBC640C721C821C039CF001F50D84
:1002A00009940000000000000000000000000000B1
:1002B000000000000000000000000000000000003E
:1002C0009992CF3F19F485E00C94D91801E0902E53
:1002D0000EB42EBC640C721C821C039CF001F50D44
:1002E0000994000000000000000000000000000071
:1002F00000000000000000000000000000000000FE
:100300009992CF3F19F485E00C94D91802E0902E11
:100310000EB42EBC640C721C821C039CF001F50D03
:100320000994000000000000000000000000000030
:1003300000000000000000000000000000000000BD
:100340009992CF3F19F485E00C94D91803E0902ED0
:100350000EB42EBC640C721C821C039CF001F50DC3
:1003600009940000000000000000000000000000F0
:10037000000000000000000000000000000000007D
:100380009992CF3F19F485E00C94D91804E0902E8F
:100390000EB42EBC640C721C821C039CF001F50D83
:1003A00009940000000000000000000000000000B0
:1003B000000000000000000000000000000000003D
:1003C0009992CF3F19F485E00C94D91805E0902E4E
:1003D0000EB42EBC640C721C821C039CF001F50D43
:1003E0000994000000000000000000000000000070
:1003F00000000000000000000000000000000000FD
:100400009992CF3F19F485E00C94D91806E0902E0C
:100410000EB42EBC640C721C821C039CF001F50D02
:10042000099400000000000000000000000000002F
:1004300000000000000000000000000000000000BC
:100440009992CF3F19F485E00C94D91807E0902ECB
:100450000EB42EBC640C721C821C039CF001F50DC2
:1004600009940000000000000000000000000000EF
:10047000000000000000000000000000000000007C
:100480009992CF3F19F485E00C94D91808E0902E8A
:100490000EB42EBC640C721C821C039CF001F50D82
:1004A00009940000000000000000000000000000AF
:1004B000000000000000000000000000000000003C
:1004C0009992CF3F19F485E00C94D91800E1902E51
:1004D0000EB42EBC640C721C821C039CF001F50D42
:1004E000099400000000000000000000000000006F
:1004F00000000000000000000000000000000000FC
:100500009992CF3F19F485E00C94D91800E2902E0F
:100510000EB42EBC640C721C821C039CF001F50D01
:10052000099400000000000000000000000000002E
:1005300000000000000000000000000000000000BB
:100540009992CF3F19F485E00C94D91800E4902ECD
:100550000EB42EBC640C721C821C039CF001F50DC1
:1005600009940000000000000000000000000000EE
:10057000000000000000000000000000000000007B
:100580009992CF3F19F485E00C94D91800E8902E89
:100590000EB42EBC640C721C821C039CF001F50D81
:1005A00009940000000000000000000000000000AE
:1005B000000000000000000000000000000000003B
:1005C000CE3F60F49992299299240EB42EBC640C0B
:1005D000721C821C039CF001F50D099485E00C94BB
:1005E000D91800000000000000000000000000001A
:1005F00000000000000000000000000000000000FB
:10060000CE3F68F499922992299299240EB42EBC77
:10061000640C721C821C039CF001F50D099485E0AA
:100620000C94D91800000000000000000000000039
:1006300000000000000000000000000000000000BA
:10064000CE3F70F4999229922992299299240EB45E
:100650002EBC640C721C821C039CF001F50D0994E5
:1006600085E00C94D9180000000000000000000094
:10067000000000000000000000000000000000007A
:1006800099929924299229920EB42EBC640C721C62
:10069000821C0194C01588F4019400FC29920694F0
:1006A000299229920A94E1F70EB42EBC640C721CB4
:1006B000821C039CF001F50D099485E00C94D91877
:1006C0009992C89500C00EB42EBC099210D09EB469
:1006D0002EBC02E0600E721C821C0BD00EB42EBC2D
:1006E000640C721C821C039CF001F50D099400003F
:1006F0000000C89500C00895000000000000000040
:100700009992C89500C00EB42EBC0992F0DF0EB4C9
:100710002EBC0992ECDF9EB42EBC03E0600E721C6E
:10072000821CE7DF0EB42EBC640C721C821C039C7E
:10073000F001F50D09940000000000000000000029
:10074000999204E0600E721C821C00000EB42EBC54
:100750000992CDDF0EB42EBC0992C9DF0EB42EBCB7
:100760000992C5DF9EB42EBCC2DFDCCF00000000C2
:100770000000000000000000000000000000000079
:100780009992CF3F61F0990C990800000EB42EBCED
:10079000640C721C821C039CF001F50D099485E029
:1007A0000C94D918000000000000000000000000B8
:1007B0000000000000000000000000000000000039
:1007C0009992CE3F60F4990C990899920EB42EBC80
:1007D000640C721C821C039CF001F50D099485E0E9
:1007E0000C94D91800000000000000000000000078
:1007F00000000000000000000000000000000000F9
:100800009992CD3F68F4990C9908999299920EB4F7
:100810002EBC640C721C821C039CF001F50D099423
:1008200085E00C94D91800000000000000000000D2
:1008300000000000000000000000000000000000B8
:100840009992CF3F51F0C8950EB42EBC640C721C27
:10085000821C039CF001F50D099485E00C94D918D5
:100860000000000000000000000000000000000088
:100870000000000000000000000000000000000078
:100880009992CF3F61F0DE01A2509C900EB42EBC35
:10089000640C721C821C039CF001F50D099485E028
:1008A0000C94D918000000000000000000000000B7
:1008B0000000000000000000000000000000000038
:1008C0009992CF3F61F0DE01A3509C900EB42EBCF4
:1008D000640C721C821C039CF001F50D099485E0E8
:1008E0000C94D91800000000000000000000000077
:1008F00000000000000000000000000000000000F8
:100900009992CF3F61F0DE01A4509C900EB42EBCB2
:10091000640C721C821C039CF001F50D099485E0A7
:100920000C94D91800000000000000000000000036
:1009300000000000000000000000000000000000B7
:100940009992CF3F61F0DE01A5509C900EB42EBC71
:10095000640C721C821C039CF001F50D099485E067
:100960000C94D918000000000000000000000000F6
:100970000000000000000000000000000000000077
:100980009992CF3F61F0DE01A6509C900EB42EBC30
:10099000640C721C821C039CF001F50D099485E027
:1009A0000C94D918000000000000000000000000B6
:1009B0000000000000000000000000000000000037
:1009C0009992CF3F61F0DE01A7509C900EB42EBCEF
:1009D000640C721C821C039CF001F50D099485E0E7
:1009E0000C94D91800000000000000000000000076
:1009F00000000000000000000000000000000000F7
:100A00009992CF3F61F0DE01A8509C900EB42EBCAD
:100A1000640C721C821C039CF001F50D099485E0A6
:100A20000C94D91800000000000000000000000035
:100A300000000000000000000000000000000000B6
:100A40009992CE3F70F4DE01A2500D9009929D90D4
:100A50000EB42EBC640C721C821C039CF001F50DBC
:100A6000099485E00C94D9180000000000000000F3
:100A70000000000000000000000000000000000076
:100A80009992CE3F70F4DE01A3500D9009929D9093
:100A90000EB42EBC640C721C821C039CF001F50D7C
:100AA000099485E00C94D9180000000000000000B3
:100AB0000000000000000000000000000000000036
:100AC0009992CE3F70F4DE01A4500D9009929D9052
:100AD0000EB42EBC640C721C821C039CF001F50D3C
:100AE000099485E00C94D918000000000000000073
:100AF00000000000000000000000000000000000F6
:100B00009992CE3F70F4DE01A5500D9009929D9010
:100B10000EB42EBC640C721C821C039CF001F50DFB
:100B2000099485E00C94D918000000000000000032
:100B300000000000000000000000000000000000B5
:100B40009992CE3F70F4DE01A6500D9009929D90CF
:100B50000EB42EBC640C721C821C039CF001F50DBB
:100B6000099485E00C94D9180000000000000000F2
:100B70000000000000000000000000000000000075
:100B80009992CE3F70F4DE01A7500D9009929D908E
:100B90000EB42EBC640C721C821C039CF001F50D7B
:100BA000099485E00C94D9180000000000000000B2
:100BB0000000000000000000000000000000000035
:100BC0009992CE3F70F4DE01A8500D9009929D904D
:100BD0000EB42EBC640C721C821C039CF001F50D3B
:100BE000099485E00C94D918000000000000000072
:100BF00000000000000000000000000000000000F5
:100C00009992CE3F70F4DE01A9500D9009929D900B
:100C10000EB42EBC640C721C821C039CF001F50DFA
:100C2000099485E00C94D918000000000000000031
:100C300000000000000000000000000000000000B4
:100C40009992CF3F19F485E00C94D9180000DE0189
:100C50000EB42EBC640C721C821CA0199C90C8950A
:100C6000C89500C000C00EB42EBC640C721C821C5F
:100C7000039CF001F50D0994000000000000000045
:100C80009992CE3F18F085E00C94D9180000DE014F
:100C90000EB42EBC640C721C821CA0190D909C908A
:100CA0000992C895C8950EB42EBC640C721C821CA7
:100CB000039CF001F50D0994000000000000000005
:100CC0009992CC3F18F085E00C94D9180000DE0111
:100CD0000EB42EBC640C721C821CA0190D911D91C7
:100CE0002D919D900993199329930EB42EBC640CF9
:100CF000721C821C039CF001F50D09940000000099
:100D0000092D9C0E00F30250C8950EB42EBC640C45
:100D1000721C821CDE01A0190D9009920D9009929F
:100D20009D9099920A95E1F7CA950EB42EBC640C79
:100D3000721C821C039CF001F50D09940000000058
:100D4000C895C89500000EB42EBC640C721C821CA1
:100D5000092DDE01A0190C939A90C895C8950EB480
:100D60002EBC640C721C821C039CF001F50D0994CE
:100D70000000000000000000000000000000000073
:100D8000C895C89500000EB42EBC640C721C821C61
:100D9000192D0A91DE01A0190D931D939A9000C0A0
:100DA0000EB42EBC640C721C821C039CF001F50D69
:100DB0000994000000000000000000000000000096
:100DC000392D2A911A910A910EB42EBC640C721C12
:100DD000821CDE01A0190D931D932D933D939A90D3
:100DE00000000EB42EBC640C721C821C039CF0012B
:100DF000F50D099400000000000000000000000054
:100E0000092D0250DE011A912A910EB42EBC640CF9
:100E1000721C821CA0191E932E930A900E920A95A2
:100E2000E1F79A900EB42EBC640C721C821C039CD9
:100E3000F001F50D09940000000000000000000022
:100E40009992CF3F19F485E00C94D91800C0AEB543
:100E50002EBC42E0640E721C821C0ED0BEB52EBCAD
:100E60009C9009D00EB42EBC640C721C821C039C96
:100E7000F001F50D099400C000C0C8950895000068
:100E80009992CE3F18F085E00C94D91800C0AEB509
:100E90002EBC42E0640E721C821CEEDFBEB52EBC7E
:100EA0000D919D900993E9DF0EB42EBC640C721C69
:100EB000821C039CF001F50D099400000000000065
:100EC0009992CC3F18F085E00C94D91800C0AEB5CB
:100ED0002EBC42E0640E721C821CCEDFBEB52EBC5E
:100EE0000D911D912D919D90099319932993DCCF1C
:100EF00000000000000000000000000000000000F2
:100F0000292D9A949C0EF8F2C895AEB52EBC42E0FD
:100F1000640E721C821CB0DFBEB52EBC20FF02C066
:100F20000D90099226950D9009920D9009922A959F
:100F3000D1F79A90B9CF0000000000000000000037
:100F4000C895C8950000AEB52EBC12E0610E721CAB
:100F5000821C92DFBEB52EBC9C929A908DDF0EB49F
:100F60002EBC640C721C821C039CF001F50D0994CC
:100F70000000000000000000000000000000000071
:100F80001ED0AEB52EBC12E0610E721C821C74DF46
:100F9000BEB52EBC1A911D939D9210D09A900EB49E
:100FA0002EBC640C721C821C039CF001F50D09948C
:100FB000000000C000C00000000000C00000089554
:100FC000392D2A911A910A91AEB52EBC42E0640ED9
:100FD000721C821CF0DFBEB52EBC0D931D932D93A9
:100FE0003D939A90C895C8950EB42EBC640C721CA3
:100FF000821C039CF001F50D099400000000000024
:10100000DEDFAEB52EBC12E0610E721C821CD3DF97
:10101000BEB52EBCA90DB21D90FE02C00A900E9264
:1010200096940A900E920A900E929A94D1F7B6CFA7
:1010300000000000000000000000000000000000B0
:10104000292D1A910A91599A33E059983EBDA090E2
:101050005E06B0905F06A10EB21EAEDFBEBCA8DF7A
:10106000AEBCA6DF0EBDA4DF2EBCA3DF9EB40C94E5
:10107000A618000000C00895000000000000000055
:10108000292D1A910A9100C01EB427C0640C721C4D
:10109000821C00C0EFDF0EB42EBC099200001A942F
:1010A0001414C1F7E6DF9EB40C94A61800000000EB
:1010B0000000000000000000000000000000000030
:1010C000B92DAA919D9000C00EB42EBC640C721C68
:1010D000821C039CF001F50D0994599A33E059984C
:1010E0003EBDA0905E06B0905F06A10EB21E64DF0A
:1010F000BEBC5EDFAEBC5CDF0EBD5ADF2EBCC6CF11
:10110000B92DAA911D9019929D900EB42EBC640C1D
:10111000721C821C039CF001F50D09940000000074
:1011200000000000000000000000000000000000BF
:1011300000000000000000000000000000000000AF
:10114000B92DAA912C2FC8950EB42EBC640C721C1C
:10115000821C200D18F485E00C94D9189D9099926A
:101160000A94E1F7CA950EB42EBC640C721C821C62
:10117000039CF001F50D0994000000000000000040
:10118000B92DAA911A901C929A900EB42EBC640CA0
:10119000721C821C039CF001F50D099400000000F4
:1011A000000000000000000000000000000000003F
:1011B000000000000000000000000000000000002F
:1011C000B92DAA911A900A909A900D921C920EB481
:1011D0002EBC640C721C821C039CF001F50D09945A
:1011E00000000000000000000000000000000000FF
:1011F00000000000000000000000000000000000EF
:10120000B92DAA9100C000C00EB42EBC640C721C93
:10121000821CA00DB21D1A901E920A94E1F79A90BA
:101220000EB42EBC640C721C821C039CF001F50DE4
:101230000994000000000000000000000000000011
:10124000CA95988000C000C00EB42EBC640C721CFD
:10125000821C039CF001F50D0994000000000000C1
:10126000000000000000000000000000000000007E
:10127000000000000000000000000000000000006E
:10128000C250988000C000C00EB42EBC640C721C0A
:10129000821C039CF001F50D099400000000000081
:1012A000000000000000000000000000000000003E
:1012B000000000000000000000000000000000002E
:1012C000C350988000C000C00EB42EBC640C721CC9
:1012D000821C039CF001F50D099400000000000041
:1012E00000000000000000000000000000000000FE
:1012F00000000000000000000000000000000000EE
:10130000C450988000C000C00EB42EBC640C721C87
:10131000821C039CF001F50D09946993972E0EB47D
:101320002EBC640C721C821C039CF001F50D099408
:1013300000000000000000000000000000000000AD
:10134000C895C89500000EB42EBC640C721C821C9B
:10135000C01998800CD00EB42EBC640C721C821C78
:10136000039CF001F50D099400C000C000C0C895B1
:1013700008950000000000000000000000000000D0
:10138000492DC895C8950EB42EBC640C721C821CE5
:10139000401518F082E00C94D9189A906A91640F65
:1013A000921C699300C00EB42EBC640C721C821C8B
:1013B000039CF001F50D099482E00C94D91800000B
:1013C000492DC895C8950EB52EBC12E0610E721C51
:1013D000821CCCDF1EB52EBC411770F7049F5A91BA
:1013E0004A91040E151E0992912C0000DCCF0BC00F
:1013F00000000000000000000000000000000000ED
:10140000592D4A91F4CF0EB52EBC14E0610E721C1A
:10141000821CACDF1EB52EBCA7DF2EB52EBCA4DF10
:101420003EB52EBC4217530738F6049FB001059F06
:10143000700D149F700D5A914A91640F751F6DCFF6
:10144000A92C9A90EA90DA900EB52EBC12E0610EAB
:10145000721C821C8BDF1EB52EBCA11640F4A09E10
:10146000D00CE11C921CD992E992C895DAC082E0B6
:101470000C94D918000000000000000000000000DB
:1014800077DF4EB52EBC15E0610E721C821CC92C94
:10149000BA90AA906DDF5EB52EBCFA90EA90DA9011
:1014A00066DF0EB52EBC60DF1EB52EBC5DDF2EB52F
:1014B0002EBCA016B106C206D0F60C94551800003A
:1014C000592D4A913A912A910EB52EBC12E0610E27
:1014D000721C821C4217530750F6049FB0019A9168
:1014E0008A91680F791F1EB52EBC059F700D149F41
:1014F000700D6993972E00C0C89593C0000000003E
:101500000C94721882E00C94D918B00CC11C289F5E
:10151000C00C199FC00C301B410B920A9CF3B2E027
:101520006B0E721C821CA992B992C992399349938D
:1015300078C009931993699374C0000000000000FB
:101540006A915A914A913A918EB52EBC2A911A917C
:101550000A9142175307B0F62617390598F2489FAB
:10156000000D111D9EB52EBC589F110D499F110DE8
:10157000641B950A3CF2B2E06B0E721C821CD9CF40
:101580004A913A912A911A918EB52EBC0A91FA90FD
:10159000EA90DA90CA90BA90AA900D151E052F0510
:1015A00048F59EB52EBCD316E406F90418F1089F41
:1015B000A00CB11CC21C189FB00CC11C099FA5CF68
:1015C0009992CE3F18F085E00C94D91800C00EB463
:1015D0002EBC640C721C821C8E0100190993912E82
:1015E0000DD00EB42EBC640C721C821C039CF00146
:1015F000F50D099482E00C94D918C895000008955F
:101600009992CE3F18F085E00C94D91800C00EB422
:101610002EBC640C721C821C12E00992912EEEDF2B
:1016200000000EB42EBC640C721C821C039CF001E2
:10163000F50D09940000000000000000000000000B
:101640009394C895EDCF000000000000000000005A
:10165000000000000000000000000000000000008A
:10166000000000000000000000000000000000007A
:10167000000000000000000000000000000000006A
:101680009A94C895CDCF0000000000000000000033
:10169000000000000000000000000000000000004A
:1016A000000000000000000000000000000000003A
:1016B000000000000000000000000000000000002A
:1016C00000C000C0DE0111960EB42EBC640C721C6A
:1016D000821CA0190C9003940C92C89500C000C005
:1016E0000EB42EBC640C721C821C039CF001F50D20
:1016F000099400000000000000000000000000004D
:10170000B92DAA910D91902E03950E930EB42EBC77
:10171000640C721C821C039CF001F50D09940000FE
:1017200000000000000000000000000000000000B9
:1017300000000000000000000000000000000000A9
:10174000B92DAA910D911D910993912E040D121D91
:101750001E930E930EB42EBC640C721C821C039C50
:10176000F001F50D099400000000000000000000E9
:101770000000000000000000000000000000000069
:10178000CE3F18F085E00C94D918B92DAA910D918F
:101790001D912D9109931993922E040D121D221D56
:1017A0002E931E930E930EB42EBC640C721C821CDE
:1017B000039CF001F50D09940000000000000000FA
:1017C000CD3F18F085E00C94D918B92DAA910D9150
:1017D0001D912D913D91099319932993932E040DF9
:1017E000121D221D321D3E932E931E930E930EB496
:1017F0002EBC640C721C821C039CF001F50D099434
:10180000B92DAA910D91902E0A950E930EB42EBC6F
:10181000640C721C821C039CF001F50D09940000FD
:1018200000000000000000000000000000000000B8
:1018300000000000000000000000000000000000A8
:10184000B92DAA910D911D910993912E0419120998
:101850001E930E930EB42EBC640C721C821C039C4F
:10186000F001F50D099400000000000000000000E8
:101870000000000000000000000000000000000068
:10188000CE3F18F085E00C94D918B92DAA910D918E
:101890001D912D9109931993922E04191209220971
:1018A0002E931E930E930EB42EBC640C721C821CDD
:1018B000039CF001F50D09940000000000000000F9
:1018C000CD3F18F085E00C94D918B92DAA910D914F
:1018D0001D912D913D91099319932993932E0419EC
:1018E0001209220932093E932E931E930E930EB4D1
:1018F0002EBC640C721C821C039CF001F50D099433
:10190000CD3F18F085E00C94D918B92DAA916D91AE
:101910007D918D919D91699379938993992E8D01F4
:10192000112420E030E040E85FE30E948231D801DA
:101930009E938E937E936E93DACF0000000000009A
:10194000CD3F18F085E00C94D918B92DAA916D916E
:101950007D918D919D91699379938993992E8D01B4
:10196000112420E030E040E85FE30E948131D8019B
:101970009E938E937E936E93BACF0000000000007A
:10198000EA909E0C00C000C00EB42EBC640C721C09
:10199000821C039CF001F50D09940000000000007A
:1019A0000000000000000000000000000000000037
:1019B0000000000000000000000000000000000027
:1019C000AA90FA90EA90AE0C9F1CA9920EB42EBC7D
:1019D000640C721C821C039CF001F50D099400003C
:1019E00000000000000000000000000000000000F7
:1019F00000000000000000000000000000000000E7
:101A0000BA90AA900A91FA90EA90AE0CBF1C901E70
:101A1000A992B9920EB42EBC640C721C821C039C59
:101A2000F001F50D09940000000000000000000026
:101A300000000000000000000000000000000000A6
:101A4000CA90BA90AA901A910A91FA90EA90AE0CB4
:101A5000BF1CC01E911EA992B992C9920EB42EBC91
:101A6000640C721C821C039CF001F50D09940000AB
:101A70000000000000000000000000000000000066
:101A8000EA90E9189E2CC8950EB42EBC640C721C0A
:101A9000821C039CF001F50D099400000000000079
:101AA0000000000000000000000000000000000036
:101AB0000000000000000000000000000000000026
:101AC000AA90FA90EA90EA18F908E9929F2C0EB4CD
:101AD0002EBC640C721C821C039CF001F50D099451
:101AE00000000000000000000000000000000000F6
:101AF00000000000000000000000000000000000E6
:101B0000BA90AA900A91FA90EA90EA18FB0809099B
:101B1000E992F992902E0EB42EBC640C721C821CB9
:101B2000039CF001F50D0994000000000000000086
:101B300000000000000000000000000000000000A5
:101B4000CA90BA90AA901A910A91FA90EA90EA186B
:101B5000FB080C091909E992F9920993912E0EB428
:101B60002EBC640C721C821C039CF001F50D0994C0
:101B70000000000000000000000000000000000065
:101B8000FA90EA90E90CF21CE9929F2C0EB42EBC5C
:101B9000640C721C821C039CF001F50D099400007A
:101BA0000000000000000000000000000000000035
:101BB0000000000000000000000000000000000025
:101BC0000A91FA90EA90E90CF21C021DE992F9924E
:101BD000902E0EB42EBC640C721C821C039CF0016F
:101BE000F50D099400000000000000000000000056
:101BF00000000000000000000000000000000000E5
:101C0000FA90EA90E918F208E9929F2C0EB42EBCE3
:101C1000640C721C821C039CF001F50D09940000F9
:101C200000000000000000000000000000000000B4
:101C300000000000000000000000000000000000A4
:101C4000FA90EA90E99C9001F99C300D2993932E2B
:101C50000EB42EBC640C721C821C039CF001F50DAA
:101C600009940000000000000000000000000000D7
:101C70000000000000000000000000000000000064
:101C8000EA90E99C902C00C00EB42EBC640C721C2F
:101C9000821C039CF001F50D099400000000000077
:101CA0000000000000000000000000000000000034
:101CB0000000000000000000000000000000000024
:101CC000AA90FA90EA90EA9C9001E99C300DFA9C67
:101CD000300D2993932E0EB42EBC640C721C821C02
:101CE000039CF001F50D09940000000000000000C5
:101CF00000000000000000000000000000000000E4
:101D0000BA90AA900A91FA90EA90EA9C90010A9DF2
:101D1000902CFA9C300D911CEB9C300D911CFB9C7F
:101D2000900CE99C900C299339930EB42EBC640C52
:101D3000721C821C039CF001F50D09940000000048
:101D40000C940E18000000000000000000000000CD
:101D50000000000000000000000000000000000083
:101D60000000000000000000000000000000000073
:101D70000000000000000000000000000000000063
:101D8000792D6A919A918A916215720519F483E00E
:101D90000C94D9180E94CC366993972E0EB42EBCA1
:101DA000640C721C821C039CF001F50D0994000068
:101DB0000000000000000000000000000000000023
:101DC000592D4A913A912A919A918A917A916A91E0
:101DD000221532054205520519F483E00C94D918F6
:101DE0008E010E945031E801299339934993952E31
:101DF000D5CF00000000000000000000000000003F
:101E0000792D6A919A918A916215720519F483E08D
:101E10000C94D9180E94E0366993972E0EB42EBC0C
:101E2000640C721C821C039CF001F50D09940000E7
:101E300000000000000000000000000000000000A2
:101E4000592D4A913A912A919A918A917A916A915F
:101E5000221532054205520519F483E00C94D91875
:101E60008E010E942431E801299339934993952EDC
:101E7000D5CF0000000000000000000000000000BE
:101E8000792D6A919A918A916215720519F483E00D
:101E90000C94D9180E94CC368993992E0EB42EBC7E
:101EA000640C721C821C039CF001F50D0994000067
:101EB0000000000000000000000000000000000022
:101EC000592D4A913A912A919A918A917A916A91DF
:101ED000221532054205520519F483E00C94D918F5
:101EE0008E010E945031E801699379938993992E6C
:101EF000D5CF00000000000000000000000000003E
:101F0000792D6A919A918A916215720519F483E08C
:101F10000C94D9180E94E0368993992E0EB42EBCE9
:101F2000640C721C821C039CF001F50D09940000E6
:101F300000000000000000000000000000000000A1
:101F4000592D4A913A912A919A918A917A916A915E
:101F5000221532054205520519F483E00C94D91874
:101F60008E010E942431E801699379938993992E17
:101F7000D5CF0000000000000000000000000000BD
:101F8000492D0A914830A0F442FD029542FD007FA0
:101F900041FD000F41FD000F40FD000F902E0EB4DB
:101FA0002EBC640C721C821C039CF001F50D09947C
:101FB0009924F5CF000000000000000000000000A0
:101FC000492D1A910A914830A1F0403128F0299208
:101FD000992406C0000F111F4A95E2F70993912E2C
:101FE0000EB42EBC640C721C821C039CF001F50D17
:101FF00009942992902EF4CF000000000000000008
:10200000492D3A912A911A910A91403248F0299229
:102010002992299299240AC0000F111F221F331FF1
:102020004A95D2F7099319932993932E0EB42EBC97
:10203000640C721C821C039CF001F50D09940000D5
:10204000492D0A914830A0F442FD029542FD0F70DF
:1020500041FD069541FD069540FD0695902E0EB476
:102060002EBC640C721C821C039CF001F50D0994BB
:10207000922CF5CF000000000000000000000000DE
:10208000492D1A910A91403128F02992922C06C0CC
:10209000169507954A95E2F70993912E0EB42EBC3A
:1020A000640C721C821C039CF001F50D0994000065
:1020B0000000000000000000000000000000000020
:1020C000492D3A912A911A910A91403248F0299269
:1020D00029922992922C0AC0369527951795079533
:1020E0004A95D2F7099319932993932E0EB42EBCD7
:1020F000640C721C821C039CF001F50D0994000015
:10210000492D0A91473030F050E007FD5FEF952EE2
:1021100004C005954A95EAF7902E0EB42EBC640CC7
:10212000721C821C039CF001F50D09940000000054
:10213000000000000000000000000000000000009F
:10214000492D1A910A91403140F050E017FD5FEFA0
:102150005993952E06C0159507954A95E2F7099370
:10216000912E0EB42EBC640C721C821C039CF001D8
:10217000F50D0994000000000000000000000000C0
:10218000492D3A912A911A910A91403260F050E01B
:1021900027FD5FEF599359935993952EE2CF3595CB
:1021A0002795179507954A95D2F70993199329937F
:1021B000932ED7CF000000000000000000000000B8
:1021C000EA909E2000C000C00EB42EBC640C721CAD
:1021D000821C039CF001F50D099400000000000032
:1021E00000000000000000000000000000000000EF
:1021F00000000000000000000000000000000000DF
:10220000AA90FA90EA90AE209F20A9920EB42EBC1C
:10221000640C721C821C039CF001F50D09940000F3
:1022200000000000000000000000000000000000AE
:10223000000000000000000000000000000000009E
:10224000CA90BA90AA901A910A91FA90EA90AE2098
:10225000BF20C0229122A992B992C9920EB42EBC7D
:10226000640C721C821C039CF001F50D09940000A3
:10227000000000000000000000000000000000005E
:10228000EA909E2800C000C00EB42EBC640C721CE4
:10229000821C039CF001F50D099400000000000071
:1022A000000000000000000000000000000000002E
:1022B000000000000000000000000000000000001E
:1022C000AA90FA90EA90AE289F28A9920EB42EBC4C
:1022D000640C721C821C039CF001F50D0994000033
:1022E00000000000000000000000000000000000EE
:1022F00000000000000000000000000000000000DE
:10230000CA90BA90AA901A910A91FA90EA90AE28CF
:10231000BF28C02A912AA992B992C9920EB42EBCA4
:10232000640C721C821C039CF001F50D09940000E2
:10233000000000000000000000000000000000009D
:10234000EA909E2400C000C00EB42EBC640C721C27
:10235000821C039CF001F50D0994000000000000B0
:10236000000000000000000000000000000000006D
:10237000000000000000000000000000000000005D
:10238000AA90FA90EA90AE249F24A9920EB42EBC93
:10239000640C721C821C039CF001F50D0994000072
:1023A000000000000000000000000000000000002D
:1023B000000000000000000000000000000000001D
:1023C000CA90BA90AA901A910A91FA90EA90AE2413
:1023D000BF24C0269126A992B992C9920EB42EBCF0
:1023E000640C721C821C039CF001F50D0994000022
:1023F00000000000000000000000000000000000DD
:102400009094C895C8950EB42EBC640C721C821CA6
:10241000039CF001F50D099400000000000000008D
:1024200000000000000000000000000000000000AC
:10243000000000000000000000000000000000009C
:10244000AA90A0949094A99200000EB42EBC640CA3
:10245000721C821C039CF001F50D09940000000021
:10246000000000000000000000000000000000006C
:10247000000000000000000000000000000000005C
:10248000CA90BA90AA90A094B094C0949094A99243
:10249000B992C9920EB42EBC640C721C821C039CAF
:1024A000F001F50D0994000000000000000000009C
:1024B000000000000000000000000000000000001C
:1024C00000E0921001E0902EC8950EB42EBC640C72
:1024D000721C821C039CF001F50D099400000000A1
:1024E00000000000000000000000000000000000EC
:1024F00000000000000000000000000000000000DC
:102500001A90912800E0921001E0902E0EB42EBC9B
:10251000640C721C821C039CF001F50D09940000F0
:1025200000000000000000000000000000000000AB
:10253000000000000000000000000000000000009B
:10254000AA90A928BA90AB289924A210942C0EB472
:102550002EBC640C721C821C039CF001F50D0994C6
:10256000000000000000000000000000000000006B
:10257000000000000000000000000000000000005B
:10258000AA90A928BA90AB28BA90AB289924A21097
:10259000942C0EB42EBC640C721C821C039CF001A3
:1025A000F50D09940000000000000000000000008C
:1025B000000000000000000000000000000000001B
:1025C000EA9021E0E91408F020E0922E0EB42EBC2F
:1025D000640C721C821C039CF001F50D0994000030
:1025E00000000000000000000000000000000000EB
:1025F00000000000000000000000000000000000DB
:10260000AA90FA90EA90EA14F90450F099240EB4D2
:102610002EBC640C721C821C039CF001F50D099405
:10262000942C0EB42EBC640C721C821C039CF00112
:10263000F50D0994000000000000000000000000FB
:10264000BA90AA900A91FA90EA90EA14FB0409055C
:1026500050F099240EB42EBC640C721C821C039C96
:10266000F001F50D0994942C0EB42EBC640C721C70
:10267000821C039CF001F50D09940000000000008D
:10268000CA90BA90AA901A910A91FA90EA90EA1424
:10269000FB040C05190550F099240EB42EBC640CF3
:1026A000721C821C039CF001F50D0994942C0EB44D
:1026B0002EBC640C721C821C039CF001F50D099465
:1026C000EA9021E0E9140CF020E0922E0EB42EBC2A
:1026D000640C721C821C039CF001F50D099400002F
:1026E00000000000000000000000000000000000EA
:1026F00000000000000000000000000000000000DA
:10270000AA90FA90EA90EA14F90454F099240EB4CD
:102710002EBC640C721C821C039CF001F50D099404
:10272000942C0EB42EBC640C721C821C039CF00111
:10273000F50D0994000000000000000000000000FA
:10274000BA90AA900A91FA90EA90EA14FB0409055B
:1027500054F099240EB42EBC640C721C821C039C91
:10276000F001F50D0994942C0EB42EBC640C721C6F
:10277000821C039CF001F50D09940000000000008C
:10278000CA90BA90AA901A910A91FA90EA90EA1423
:10279000FB040C05190554F099240EB42EBC640CEE
:1027A000721C821C039CF001F50D0994942C0EB44C
:1027B0002EBC640C721C821C039CF001F50D099464
:1027C000EA9021E09E1408F420E0922E0EB42EBC74
:1027D000640C721C821C039CF001F50D099400002E
:1027E00000000000000000000000000000000000E9
:1027F00000000000000000000000000000000000D9
:10280000AA90FA90EA90AE149F0450F499240EB462
:102810002EBC640C721C821C039CF001F50D099403
:10282000942C0EB42EBC640C721C821C039CF00110
:10283000F50D0994000000000000000000000000F9
:10284000BA90AA900A91FA90EA90AE14BF0490064A
:1028500050F499240EB42EBC640C721C821C039C90
:10286000F001F50D0994942C0EB42EBC640C721C6E
:10287000821C039CF001F50D09940000000000008B
:10288000CA90BA90AA901A910A91FA90EA90AE145E
:10289000BF04C006910650F499240EB42EBC640CFB
:1028A000721C821C039CF001F50D0994942C0EB44B
:1028B0002EBC640C721C821C039CF001F50D099463
:1028C000EA9021E09E140CF420E0922E0EB42EBC6F
:1028D000640C721C821C039CF001F50D099400002D
:1028E00000000000000000000000000000000000E8
:1028F00000000000000000000000000000000000D8
:10290000AA90FA90EA90AE149F0454F499240EB45D
:102910002EBC640C721C821C039CF001F50D099402
:10292000942C0EB42EBC640C721C821C039CF0010F
:10293000F50D0994000000000000000000000000F8
:10294000BA90AA900A91FA90EA90AE14BF04900649
:1029500054F499240EB42EBC640C721C821C039C8B
:10296000F001F50D0994942C0EB42EBC640C721C6D
:10297000821C039CF001F50D09940000000000008A
:10298000CA90BA90AA901A910A91FA90EA90AE145D
:10299000BF04C006910654F499240EB42EBC640CF6
:1029A000721C821C039CF001F50D0994942C0EB44A
:1029B0002EBC640C721C821C039CF001F50D099462
:1029C000592D4A913A912A919A918A917A916A91D4
:1029D00011240E945B32942C811199240EB42EBCD8
:1029E000640C721C821C039CF001F50D099400001C
:1029F00000000000000000000000000000000000D7
:102A0000592D4A913A912A919A918A917A916A9193
:102A100011240E945B32881F8827881F982E0EB4CD
:102A20002EBC640C721C821C039CF001F50D0994F1
:102A30000000000000000000000000000000000096
:102A4000592D4A913A912A919A918A917A916A9153
:102A500011240E945B32942C18160CF499240EB4A5
:102A60002EBC640C721C821C039CF001F50D0994B1
:102A70000000000000000000000000000000000056
:102A800001E0921000E0902EC8950EB42EBC640CAC
:102A9000721C821C039CF001F50D099400000000DB
:102AA0000000000000000000000000000000000026
:102AB0000000000000000000000000000000000016
:102AC000592D4A913A912A919A918A917A916A91D3
:102AD00011240E948231699379938993992E0EB4BF
:102AE0002EBC640C721C821C039CF001F50D099431
:102AF00000000000000000000000000000000000D6
:102B0000592D4A913A912A919A918A917A916A9192
:102B100011240E948131699379938993992E0EB47F
:102B20002EBC640C721C821C039CF001F50D0994F0
:102B30000000000000000000000000000000000095
:102B4000592D4A913A912A919A918A917A916A9152
:102B500011240E94B734699379938993992E0EB406
:102B60002EBC640C721C821C039CF001F50D0994B0
:102B70000000000000000000000000000000000055
:102B8000592D4A913A912A919A918A917A916A9112
:102B900011240E946232699379938993992E0EB41D
:102BA0002EBC640C721C821C039CF001F50D099470
:102BB0000000000000000000000000000000000015
:102BC000992D8A917A916A9111240E94CA3269934F
:102BD00079938993992E0EB42EBC640C721C821CBE
:102BE000039CF001F50D09940000000000000000B6
:102BF00000000000000000000000000000000000D5
:102C0000992D8A917A916A9111240E94CF32699309
:102C100079938993992E0EB42EBC640C721C821C7D
:102C2000039CF001F50D0994000000000000000075
:102C30000000000000000000000000000000000094
:102C4000992D8A917A916A9111240E94FD3269939B
:102C500079938993992E0EB42EBC640C721C821C3D
:102C6000039CF001F50D0994000000000000000035
:102C70000000000000000000000000000000000054
:102C8000992D8A917A916A9111240E94FB3269935D
:102C900079938993992E0EB42EBC640C721C821CFD
:102CA000039CF001F50D09940000000000000000F5
:102CB00000C0C8950895000000000000000000005A
:102CC000192C9A9003E0600E721C821C0EB52EBC6B
:102CD000EBDF1EB52EBCEADF121421F42EB538014D
:102CE000822E34C22EBCE0DF0EB42EBC640C721CEB
:102CF000821C039CF001F50D099400000000000007
:102D0000640C721C821C921451F4092D9A900EB41A
:102D1000102C110C1108600C711C811C17C29A90A8
:102D20002EBCC4DFE1CF0000000000000000000066
:102D30000000000000000000000000000000000093
:102D4000192C9A9003E0600E721C821C0EB52EBCEA
:102D5000ABDF1EB52EBCAADF121421F02EB5380150
:102D6000822EF4C12EBCA0DF0EB42EBC640C721CEB
:102D7000821C039CF001F50D099400000000000086
:102D8000640C721C821C921451F0092D9A900EB49E
:102D9000102C110C1108600C711C811CD7C19A9069
:102DA0002EBC84DFA1CF0000000000000000000066
:102DB0000000000000000000000000000000000013
:102DC00003E0600E721C821CC8950EB52EBC6CDF31
:102DD0001EB52EBC6BDF921421F42EB53801822E65
:102DE000B5C12EBC9A9062DF0EB42EBC640C721C6E
:102DF000821C039CF001F50D099400000000000006
:102E0000640C721C821C00C0921449F400C00EB401
:102E1000102C110C1108600C711C811C97C12EBC68
:102E20009A9046DFE1CF00000000000000000000A3
:102E30000000000000000000000000000000000092
:102E400003E0600E721C821CC8950EB52EBC2CDFF0
:102E50001EB52EBC2BDF921421F02EB53801822E28
:102E600075C12EBC9A9022DF0EB42EBC640C721C6D
:102E7000821C039CF001F50D099400000000000085
:102E8000640C721C821C00C0921449F000C00EB485
:102E9000102C110C1108600C711C811C57C12EBC28
:102EA0009A9006DFA1CF00000000000000000000A3
:102EB0000000000000000000000000000000000012
:102EC000C895C89500000EB52EBCEEDE1EB52EBC12
:102ED000EBDE2EB53801822E39C100000000000063
:102EE00000000000000000000000000000000000E2
:102EF00000000000000000000000000000000000D2
:102F0000C895C89500000EB40394102C110C11083C
:102F1000600C711C811C1AC1000000000000000040
:102F200000000000000000000000000000000000A1
:102F30000000000000000000000000000000000091
:102F4000A0913406AD3298F4B6E003E0060D6EB4FD
:102F50002EBC721C821C0D937D928D920000AADE05
:102F60007EB42EBCA1DE8EB4A0933406EFC086E002
:102F700020C1000000000000000000000000000070
:102F8000A0913406AD3288F4B6E0640C721C821C49
:102F90006D927D928D92A09334060EB4102C110C7C
:102FA0001108600C711C811CD1C086E002C10000B8
:102FB0000000000000000000000000000000000011
:102FC000A0913406B6E08E907E906E90A093340669
:102FD000BDC0000000000000000000000000000074
:102FE00000000000000000000000000000000000E1
:102FF00000000000000000000000000000000000D1
:10300000EAEAF2E3640C721C821C00C00EB42EBC0F
:10301000E00DF21D0590F491E02D2EC0CA90BA90FB
:10302000AA901A910A91FA90EA90EA9C90010A9D5E
:10303000A001FA9C300D411D521DEB9C300D411D2D
:10304000521DFB9C400D511DEC9C400D511D1A9DC5
:10305000500D0B9D500DFC9C500DE99C500D29937B
:1030600039934993952E0EB42EBC640C721C821CAD
:10307000039CF001F50D09946092310670923206BE
:10308000809233069992C093300611240995C0911D
:103090003006D1E09A9083D00EB42EBC640C721C22
:1030A000821C039CF001F50D0994A49ED00CE11C38
:1030B000F21CA59EE00CF11CB49EE00CF11CB59E28
:1030C000F00CC49EF00CD992E9929F2C0EB42EBC49
:1030D000640C721C821C039CF001F50D099400C065
:1030E000C8950895C89500C04EB52EBC12E0610E7B
:1030F000721C821CF4DF5EB52EBCC92CBA90AA905B
:103100002A911A910A91FA90EA90DA90A016B106E3
:10311000C206D0F4A49ED00CE11CF21CA59EE00CCB
:10312000F11CB49EE00CF11CB59EF00CC49EF00C9A
:10313000D992E9929F2C0EB42EBC640C721C821C96
:10314000039CF001F50D099482E033C0599A009177
:1031500053060031D8F023E059982EBD00915E0649
:1031600010915F06070D181D18D01EBD13D00EBD9F
:1031700011D06EBC0FD02EBC0ED00EB42EBC640C81
:10318000721C821C039CF001F50D099411240E940D
:103190001B26E1CF000000C0C89500C000C0089504
:1031A0000EB42EBC640C721C821C039CF001F50D45
:1031B0000994609231067092320680923306999299
:1031C000C093300611240E94A8260C940000000031
:1031D00000000000000000000000000000000000EF
:1031E00000000000000000000000000000000000DF
:1031F00000000000000000000000000000000000CF
:10320000537072697465206672616D65206F7574A4
:1032100073696465206F66207365740043616C6C2C
:1032200020737461636B206F766572666C6F7700D4
:103230004461746120737461636B206F766572669C
:103240006C6F7700417373657274696F6E2066618D
:10325000696C6564004469766973696F6E20627990
:10326000207A65726F00417272617920696E6465BF
:1032700078206F7574206F6620626F756E647300BE
:1032800047616D652064617461206E6F7420666FA4
:10329000756E6400803266325532443230321C32F0
:1032A000003200004552524F5200D623CA23E72471
:1032B000D7241B239A248A244E22B121FD2EFB2ED3
:1032C000202192208A1F352CAB2BA321092E5126B9
:1032D000A121C71FFF2EA021002EEF2DDF2DD02D05
:1032E000C12D7F28912B2E2E892D2E2DA72C622BC0
:1032F000152BD21FCA25FC2A8825F92A9825CA2A07
:10330000DB1C992A682A452A222AF229CF29AC29CE
:103310006E293D290C29E9289F2854263528D5F007
:103320008D14A1C881CFD9F1AF20001700030C0084
:10333000000000994C000003002E02D1010000C4DF
:1033400011100184101000980C2E3AF243B94AB1C2
:103350002A877CB726AE22211FAA2AA23A0A005049
:103360000184284A298A10A10A0000BE78BF2A2EAB
:10337000463F3ABF46BF042E669F7CF147F1019F4E
:103380006C1F425F7C3F783F7EBF082E7ABF68B2D9
:1033900026E1071F7E071F1F7D9B6C833EB94E3FB2
:1033A000028360F1032208104241004C7A5F324CE4
:1033B0004A4C7E4C53BE00D6035F701D00B0019F87
:1033C000681F009E785E704C325E1144799E0856EC
:1033D000034F020E7A061B1E799249823ADA02C422
:1033E0007D0000DF110011241FBECFEFDAE0DEBF49
:1033F000CDBF16E0A9E3B6E0EAEEFDE602C0059017
:103400000D92AE33B107D9F72AE0AEE3B6E001C0C2
:103410001D92A536B207E1F70E94612F0C94F33696
:103420000C9400005E98E5E6F6E081E0A0E0B8E0EC
:1034300000800EBC8111012C1197A0FDFDCF0192DF
:10344000B9F70DB45E9A0895E5E0F0E010D0319739
:1034500028F068517C4F8F4F9F4FF9CFAB01FC0193
:1034600006D0641775078E079F07D0F30895AAE565
:10347000B6E02FB7F8947D918D919C9166B52FBFE2
:10348000A89B05C06F3F18F47F5F8F4F9F4F22E0CE
:10349000660F771F881F991F2A95D1F708959C0101
:1034A000E0E0F2E0A0E0B0E0BD0180E045D039D03E
:1034B000BD011296A20FB31F82179307A9F38F5F66
:1034C0009F4F21F4AF5FBF40DB0160F031D140E09E
:1034D000509163066091640680E226D0599A06D125
:1034E000A0E0B0E07CEF24D14A2F509163065B0F3F
:1034F00060916406611D82E017D0832F71FD822FD9
:1035000070FD819124D0759518F42150304019F048
:103510001196AA2391F7599AE9D02115310519F787
:10352000089539D0982F3DC0599811D0862F0FD0CB
:10353000852F0DD0842F0BC0462F50916306570F57
:1035400060916406681F83E0EFDF1EBC08958EBDA6
:1035500000008EB50DB407FEFCCF0895E0E0F2E068
:10356000DC0160E070E080E0E7DF9D01AF0160E03A
:103570000FD08217930749F4D901FA0160E00BD00C
:1035800081931197E1F761E0F3CF0BD0862F089577
:1035900002D0982F00C00DB407FEFDCF8EB51EBC23
:1035A00008950DB407FEFDCF8EB5599A08950F9377
:1035B0001F93CF93DF93809164008E7F809364008C
:1035C00080917A00806480937A0080917A0086FDF1
:1035D000FCCFC0917800D091790049DFAB01BC01EC
:1035E00080916400816080936400CE01B0E0A0E02F
:1035F000DC01992788278C019D01040F151F261FC8
:10360000371FC901B801DF91CF911F910F91089524
:103610008FB18095807F669B88601C9B8460089535
:1036200081E083BF889513BE0895109262063E988C
:103630003F9808953E9A3F9A81E0809362060895EC
:1036400090916106982329F490916006982381E077
:1036500009F480E008958091600680936106D8DFC8
:1036600080936006089580389105B8F46034710540
:10367000A0F490E121E061FD24E060FD220F62FDF5
:103680002295687F969FD0011124A80FAB59B94F9E
:103690000C90022A40FF02260C920895DF92EF92CE
:1036A000FF920F931F93CF93DF937C01D22E8B0158
:1036B000040F111DEB0177FF02C0D0E0C0E0C8018C
:1036C0000134110514F080E490E0C817D90734F4F0
:1036D0004D2DBE01C701C7DF2196F1CFDF91CF91FC
:1036E0001F910F91FF90EF90DF900895599885E01A
:1036F0002EDF80E02CDF80FDFCCF599A0895FC017D
:103700006150704019F047DF8193FACF4ADF808320
:103710000895462F50915E06570F60915F06681F0F
:1037200083E002DF1EBC0895599811DF599A08956D
:1037300086E0FACF4F925F926F927F928F92AF9214
:10374000BF92CF92DF92EF92FF920F931F93CF938E
:10375000DF93322F3701802EC114D104A1F03695AA
:1037600036953695A0FC330F349FF001ED9D700C1B
:10377000811CFC9D700C811CFD9D800CEC9D600CDF
:10378000711C1124811C442EE22FA5E6B6E0E82C22
:103790006301B82E0027542CE695E695E69521E0C6
:1037A00061FD24E060FD220F62FD2295CFEFDFEF87
:1037B000A2FC05C01FEF129FE001C095D095759542
:1037C00067957595679575956795362F3F3F4CF4CE
:1037D0003095E31BA0FC330F349DC00CD11CE01EC0
:1037E0003FEF97FF0BC0580EA0FE02C0880F991F35
:1037F000C81AD90AE00A97FDE394BB2410E8310304
:103800000B0CA00DB11D1B19511608F0512E17E01D
:10381000131B1E1714F4E12F039510E81519442DFE
:103820005527A1FC02C04519550BA0FE02C0440F4C
:10383000551F1124F32E8E2E33E000905E06D00C1F
:1038400000905F06E01C17C059983EBDC40ED51EFF
:10385000E11CBB24451409F0B3940BD0EEBC06D098
:10386000DEBC04D0CEBC02D01EBC02C0C895000095
:10387000C895C8950895C41AD50AE108E5DFF11482
:103880001CF0882071F564C0A058BF4F752CA0FCB7
:103890000CC08EB51EBC829F6C906D2261286D920B
:1038A000C89500C07A94A9F711C08EB51EBC829F3E
:1038B000C001DEDFCEB51EBCC29FE0016C90D0958A
:1038C0006D22692A6D92C8957A9479F71124A51909
:1038D000B1098A9409F45CC0BB2019F00DB4599A5F
:1038E000B3DFFD01E058FF4F752CA0FC0EC08EB574
:1038F0001EBC829F6C906C2260286D9260806D224D
:10390000612861927A9499F716C08EB51EBC829F89
:10391000C0016C90D081AEDF00C0CEB51EBCC29F8E
:1039200000946020682A6D921094D121D92BD193F4
:1039300000007A9451F71124A10FB11D8A9461F609
:10394000002331F1BB2021F00DB4599A7DDFC895D9
:10395000A0FC0CC08EB51EBC829F6C906C226028AF
:103960006D92C89500C05A94A9F712C08EB51EBCBE
:10397000829FC0017DDF8EB41EBC829E802C6C9025
:1039800080946820682A6D92C8955A9479F7C895F2
:103990001124599A0DB4DF91CF911F910F91FF908F
:1039A000EF90DF90CF90BF90AF908F907F906F900F
:1039B0005F904F900895CF93DF93F3DD6AE070E05E
:1039C00080E0A7DEE8DDC82FD0E0EBDD9E01382BDC
:1039D000C901215031092115344008F460DD60919E
:1039E00031067091320680913306DF91CF9191CEEE
:1039F0008093F1000895A0913E06B0913F06129683
:103A00002D913C9113972115310561F02150310919
:103A100013963C932E931297ED91FC9111978193FD
:103A2000ED93FC9308954F925F926F927F928F92E5
:103A30009F92AF92BF92CF92DF92EF920F931F931C
:103A4000CF93DF93CDB7DEB7CE50CDBF4C012A0167
:103A50003B011FEF1E0DCE0101965C01222379F17F
:103A600077FE2DC08DE2F401099570946094509416
:103A70004094411C511C611C711CE12E6501802F7A
:103A800090E0B0E0A0E08B879C87AD87BE87C30144
:103A9000B2012B853C854D855E850E945031290100
:103AA0003A0187E56A3008F480E3860FD6018D93EA
:103AB0006D01EA94232B242B252B49F70AC04114CE
:103AC000510461047104D1F680E3D5018D936D0139
:103AD000E12E80E31E142CF4F60181936F01EA9429
:103AE000F9CFAC14BD0431F0F60182916F01F401FD
:103AF0000995F7CFC25FCDBFDF91CF911F910F9195
:103B0000EF90DF90CF90BF90AF909F908F907F907D
:103B10006F905F904F9008952F923F924F925F92D7
:103B20006F927F928F92AF92BF92CF92DF92EF927D
:103B3000FF920F931F93CF93DF93CDB7DEB7CD5096
:103B4000CDBF9D878C87E0913006F1E08291929104
:103B50002291C22ED92EE82E829192912291622E2C
:103B6000792E882EE0933006C114D104E10409F4C3
:103B7000BDC1482D93012F5F3F4F4F4F29833A839B
:103B80004B83882DB301C5DD0CDD082FAE2DC6019A
:103B90000197A10989879A87AB87053241F0802F69
:103BA000EC85FD85099529803A804B809CC01301E6
:103BB000482CF2E02F0E311C411C69817A818B81E7
:103BC000A8DDEFDC182F4E2D960122503109410956
:103BD00029873A874B87843609F459C070F48335B6
:103BE00009F4A9C0833609F484C0853209F07BC08A
:103BF000802FEC85FD85099576C0833709F480C058
:103C000008F041C0863609F06EC0E0913006F1E060
:103C1000829192912291329139832A839B838C8362
:103C200089819A81AB81BC818D839E83AF83B88764
:103C3000E093300693E0690E711C811C842DB10164
:103C400068DDAFDC182F4E2D960123503109410954
:103C500029873A874B8729813A814B815C81CA0148
:103C6000B9010E94D135882309F48DC08EE6EC8518
:103C7000FD85099581E6EC85FD8509958EE6EC8547
:103C8000FD8509952EC0853711F0883761F5E091E3
:103C90003006F1E0B290F2905290A290E09330069C
:103CA00023E0620E711C811C842DB10132DD79DCB0
:103CB00080534E2D960123503109410929873A87B7
:103CC0004B870AE0183709F400E121E0143609F0C7
:103CD00020E0E82E4A2D552D6F2D7B2D8C859D855E
:103CE000A2DE1301482C842C3101C984DA84EB84D0
:103CF0003BCFE0913006F1E00291E093300678CFBF
:103D0000E0913006F1E082919291092F182F829173
:103D10009291E0933006E92EF82E0115110519F362
:103D2000F70181917F018823F1F2EC85FD850995EA
:103D300001501109F2CFE0913006F1E02291329169
:103D40004291642E732E822E229132914291C42E82
:103D5000D32EE22EE09330066C0C7D1C8E1CC61414
:103D6000D704E80409F4BFCF8E2DB601D2DC19DCEC
:103D7000882309F4B8CFEC85FD850995FFEFCF1AAC
:103D8000DF0AEF0AECCFC980DA80EB80FC80E89490
:103D9000F7F82FEF3FEF4FE75FE7C701B6010E944B
:103DA000D135811114C02FEF3FEF4FE75FE7C70117
:103DB000B6010E945B32181654F489E6EC85FD8545
:103DC00009958EE6EC85FD85099586E658CF2FEF9F
:103DD0003FEF4FE75FE46D817E818F8198850E9480
:103DE000AC34181664F02FEF3FEF4FE75FEC6D81B6
:103DF0007E818F8198850E945B3287FF06C08FE6A7
:103E0000EC85FD85099586E7DDCF20E030E0A9014E
:103E10006D817E818F8198850E945B3287FF0DC006
:103E20008DE2EC85FD8509958D819E81AF81B885F8
:103E3000B0588D839E83AF83B887105300E060E055
:103E400070E080E09FE3011740F42DEC3CEC4CEC7B
:103E50005DE30E94B7340F5FF6CF2D813E814F8125
:103E600058850E9482311B012C010E94CF325B01D8
:103E70006C010E94FB329B01AC01C201B1010E94A6
:103E800081311B012C01E12C0AE020E0B601A501E3
:103E90008C859D85C8DD112309F423CF8EE2EC8546
:103EA000FD850995115017FD1CCF20E030E040E260
:103EB00051E4C201B1010E94B7346B017C010E9440
:103EC000CF32062F80E3800FEC85FD850995602FAA
:103ED00070E090E080E00E94FD329B01AC01C701E0
:103EE000B6010E9481311B012C01DCCFC35FCDBF25
:103EF000DF91CF911F910F91FF90EF90DF90CF90C6
:103F0000BF90AF908F907F906F905F904F903F9059
:103F10002F900895CF93DF93CDB7DEB7CC50CDBFB0
:103F2000CE01019690933F0680933E06E0913006C5
:103F3000F1E0829192919C838D839E838F83829105
:103F400092919887898782919291229129839A836D
:103F50008B83E093300625DB69817A818B817E5FDC
:103F60008F4FD7DB18DB8C8716DB8A871ADB8B87B2
:103F70008FE690E2D1DD609131067091320680913A
:103F80003306C7DBC45FCDBFDF91CF91089509DB56
:103F900088EF9CE1C1DD609131067091320680911D
:103FA0003306B7CBEF92FF920F931F93CF93DF931C
:103FB000CDB7DEB7C450CDBFE0913006F1E012912D
:103FC0000291F290E290E0933006EBDAE982FA8215
:103FD0000B831C83CE01019690933F0680933E068F
:103FE0008BEF9CE199DD8B819C81892B19F0E98114
:103FF000FA81108260913106709132068091330609
:1040000088DBCC5FCDBFDF91CF911F910F91FF90E7
:10401000EF9008954F925F926F927F928F929F924E
:10402000AF92BF92CF92DF92EF92FF920F931F93C6
:10403000CF93DF932B01682EEA014901B02E7E2C2D
:10404000D12CC601880F991F462D9B01280F391FBF
:10405000411D97FD4A95842FB9015BDB9CDA082F3F
:10406000A0DA182F88819981800F911D07FD9A95FC
:1040700080389105ECF430E483169104CCF49C0173
:104080002B0D311D121613069CF494012E0D311DBB
:10409000121613066CF4062D72014AEFE41A4DEF66
:1040A000F40A0F4F26E0A22E272D4B2DB40142DB40
:1040B00088819981810F911D99838883DF91CF91A8
:1040C0001F910F91FF90EF90DF90CF90BF90AF9036
:1040D0009F908F907F906F905F904F900895CF92B8
:1040E000EF920F93E0913E06F0913F0627813085D5
:1040F0008A3069F483819481968385838385280F30
:10410000311D308727830F91EF90CF900895C82EEF
:10411000AF014B5F5F4F608171818281E2840185D5
:1041200079DFF1CF2F923F924F926F927F928F92D1
:10413000AF92BF92CF92DF92EF92FF920F931F93B5
:10414000CF93DF93CDB7DEB7C950CDBFE091300636
:10415000F1E08291929199838A8382919291A92E22
:10416000B82E829192912291222E392E482E829140
:1041700092912291622E792E882E82919291229193
:10418000C22ED92EE82EE09330060BDA842DB10131
:104190007E5F8F4FBEDAFFD9082FFDD9F82E01DAE6
:1041A000182F89819A819C838B836C0C7D1C8E1CBB
:1041B000802F90E099878887C614D704E80431F1EE
:1041C000AE2DC6010196A11D8D839E83AF838E2DDA
:1041D000B6019FDAE6D98823C9F08A3061F48B8171
:1041E0009C819A83898388859985A80EB91ECD8084
:1041F000DE80EF80E1CFC82EE12E0F2D9501AE01BC
:104200004F5F5F4F842DB10105DFF1CF6091310623
:1042100070913206809133067CDAC75FCDBFDF91A3
:10422000CF911F910F91FF90EF90DF90CF90BF90B3
:10423000AF908F907F906F904F903F902F90089508
:104240002F923F924F925F926F927F928F929F92A6
:10425000AF92BF92CF92EF92FF920F931F93CF93A3
:10426000DF93CDB7DEB7C650CDBFE0913006F1E0A9
:104270008291929199838A8382919291892E982E2C
:10428000829192912291222E392E482E82919291E2
:10429000692E782E52900291E093300682D9842DB7
:1042A000B1017E5F8F4F35DA76D9C82E74D9F82EDA
:1042B00078D9182F89819A819C838B83A02EB52C65
:1042C0008C2D90E09E838D83F501C1905F01CC2001
:1042D00091F06114710479F091E0691A71088AE033
:1042E000C81224C08B819C819A8389838D819E8191
:1042F000880E991EE9CF6091310670913206809147
:10430000330607DACA5FCDBFDF91CF911F910F91BE
:10431000FF90EF90CF90BF90AF909F908F907F9045
:104320006F905F904F903F902F900895E12E0F2D4A
:104330009401AE014F5F5F4F842DB1016BDEC4CF9E
:104340008AC998950895E0913006F1E06291E09372
:10435000300670E088EE93E00E94E0366093360607
:1043600008952F923F924F925F926F927F928F9219
:104370009F92AF92BF92CF92DF92EF92FF920F93F4
:104380001F93CF93DF93CDB7DEB7C450CDBFE0917D
:104390003006F1E082919291092F182F829192912B
:1043A000292E382E429122912983E0933006842FC2
:1043B00090E09C838B83440F4F5FB101681B790BA6
:1043C000C8016CD981E090E07C01EB81FC81EE1AA0
:1043D000FF0A2F01519441945108440C551CD12CD3
:1043E000C12CAA24A394B12C2B813C81C216D306E4
:1043F0000CF03FC0F7FC09C0215031093C832B83EE
:1044000032E0430E511CE40CF51C8FEFC81AD80A99
:1044100092E0A90EB11CEA0CFB1C8B81880F8F5F08
:104420008A832981482F3101EB81FC816E1A7F0A32
:10443000B301C601800F911F31D941018C189D082D
:1044400029814A2DB4018B819C81800F911F26D92F
:1044500029814A81B301C8018C199D091FD929817D
:104460004A2DB401C801EB81FC818E1B9F0B16D92C
:10447000BBCFCC5FCDBFDF91CF911F910F91FF904C
:10448000EF90DF90CF90BF90AF909F908F907F90F4
:104490006F905F904F903F902F9008952F923F9292
:1044A0005F926F927F928F929F92AF92BF92CF92C4
:1044B000DF92EF92FF920F931F93CF93DF93CDB7CD
:1044C000DEB7C650CDBFE0913006F1E08291929107
:1044D000E92EF82E82919291092F182F2291529055
:1044E000E0933006822F90E09E838D8381E090E000
:1044F0005C012D813E81A21AB30AC9019195819573
:1045000091099C01220F331F3A8329836D817E819B
:10451000600F711F452DC701A6D8B8018D819E81FE
:10452000681B790B452DC7019ED8452DB8018D819B
:104530009E818E0D9F1D97D8452DB801C7012D81F5
:104540003E81821B930B8FD8D12CC12C81E090E04F
:104550009C838B832D813E81C216D3060CF057C0FD
:10456000B7FC0BC0215031093E832D8389819A818C
:1045700002969A838983A80EB91E9FEFC91AD90A99
:104580002B813C812E5F3F4F3C832B83A20EB31EB9
:1045900036016E0C7F1C452D8D809E80800E911EF5
:1045A000B401C30160D817012C183D08452DB40192
:1045B000C10159D8452D48018D819E81881A990ADB
:1045C000B401C30150D8452DB401C1014CD84801F4
:1045D0008C0C9D1C452DB4016D807E806E0C7F1C63
:1045E000C30141D8452DB40117012D813E81221A06
:1045F000330AC10138D848018C189D08452DB401F3
:10460000C30131D8452DB401C1012DD8A3CFCA5F54
:10461000CDBFDF91CF911F910F91FF90EF90DF9071
:10462000CF90BF90AF909F908F907F906F905F9052
:104630003F902F9008952F923F924F925F926F92EA
:104640007F928F929F92AF92BF92CF92DF92EF9222
:10465000FF920F931F93CF93DF93CDB7DEB7C35075
:10466000CDBFE0913006F1E0829192919A838B83E5
:1046700082919291092F182F82919291E92EF82E12
:1046800022913291832F922F22912983E093300639
:104690006C01C01AD10AD7FE03C0D194C194D108CD
:1046A00047012A813B81821A930A97FE03C09194A5
:1046B000819491088C149D045CF43E2D2F2D7C0177
:1046C000832F922F3A812B811B830A83032F122F72
:1046D0002A813B81E216F3065CF4302F212F8C01F6
:1046E000832F922F3A812B81FB82EA82E32EF22ED6
:1046F00017012A813B81221A330A2C01401A510AE0
:1047000057FE03C0519441945108310137FE03C054
:104710003FEF631A730A75946794081719071CF121
:104720008FEFA82E880FBB088A819B81E816F906B7
:10473000E4F04981BC01C8018C149D041CF0B8014F
:104740008A819B810E94331B6418750877FE04C020
:104750000A0D1B1D620C731C2A813B812F5F3F4F8A
:104760003B832A83E1CF81E0DCCFCD5FCDBFDF91FA
:10477000CF911F910F91FF90EF90DF90CF90BF905E
:10478000AF909F908F907F906F905F904F903F90F1
:104790002F900895E0913006F1E09291829172910C
:1047A00062914291E09330060C94331B0E94D11A1F
:1047B0000E94121A60913106709132068091330680
:1047C0000C94891B0F93CF93DF93803891050CF0E5
:1047D0009DC0A42FB0E0FD01E80FF91F1E161F06B3
:1047E0000CF094C0E22FF0E0EB01CE0FDF1F1C169F
:1047F0001D060CF08BC0442309F488C0222309F461
:1048000085C0562F60340CF081C0C82FA80FB11D91
:1048100087FDBA951A161B060CF078C0E60FF11D3D
:1048200067FDFA951E161F060CF070C000FD0FEF15
:10483000A82F362F57FF02C0260F30E0C7FF02C057
:10484000480FA0E090E89A1B491708F4942F80E4E1
:10485000831B281708F4822F830F41E031FD44E0C9
:1048600030FD440F32FD4295419571E081FD74E0C9
:1048700080FD770F82FD72957195642F6095572F9B
:1048800050958150232F26952695269586958695B9
:104890008695E5E6F6E030E8239FE00DF11D112452
:1048A000EA0FF11D821B611101C08F5F511101C020
:1048B0008F5F30E8391B242F2023452F4023882386
:1048C00019F4762B42231CC0662349F0A92F0080DF
:1048D0000622022A0192AA95D1F7E30FF11D8A95CB
:1048E00069F0A92FA0FF02C0A39501C00193019315
:1048F000A250E1F7E30FF11D8A9599F7552331F0A6
:1049000000800722042A01929A95D1F7DF91CF9176
:104910000F9108950F93E0913006F1E0929182910A
:1049200072916291429122910291E09330064ADFA6
:104930000F910895CF92DF92EF92FF920F931F9302
:10494000CF93DF93E0913006F1E082919291E92ECE
:10495000F82E82919291C92FD82F1291C290D290A5
:10496000E09330060D2D21E0412FBE01C7012ADF63
:10497000BE016C0D711D6150710921E0412FC7010D
:1049800021DF2C2D41E0BE01C7011CDFC701810FD3
:10499000911D2C2D41E0BE01019714DFDF91CF91D5
:1049A0001F910F91FF90EF90DF90CF9008950F939C
:1049B000E0913006F1E092918291729162912291A0
:1049C0000291E093300641E0FDDE0F9108950F93D0
:1049D000E0913006F1E09291829172916291429160
:1049E0000291E093300621E0EDDE0F9108952F92C1
:1049F0003F924F925F926F927F928F929F92AF926F
:104A0000BF92CF92DF92EF92FF920F931F93CF93BB
:104A1000DF93CDB7DEB7C450CDBF262E2C838A01DD
:104A2000582E8C81F801882359F08491882309F449
:104A300051C0803239F4F3E05F0E0F5F1F4FF1CFAA
:104A40008081F4CFE82FEE0FFF0BE751FD4C25914D
:104A50003491822F8F718983C90145E0969587959E
:104A60004A95E1F78F718A83932F969596959F715A
:104A70009B8323E0422E911106C044244394882353
:104A800011F092E0492ECE0101963C01F12CE12C6F
:104A9000A52CB12CF30181913F01322C45018E0CE4
:104AA0009F1C882379F0C82ED12C80FF06C0632D6F
:104AB00070E041E0C4010E94331B3394D594C79445
:104AC0008C2DEFCFFFEFEF1AFF0AE41418F3539485
:104AD000540CB3CF852DCC5FCDBFDF91CF911F910B
:104AE0000F91FF90EF90DF90CF90BF90AF909F908D
:104AF0008F907F906F905F904F903F902F90089590
:104B0000109271001092720080E180935306089514
:104B1000F7CF89E08093C1001092BF008DE78093AA
:104B2000CF0083E0809390008AE180939100E8CFEA
:104B300080916206882319F00E94151BEACF0E941B
:104B40001A1BFCCF599893E09EBD00905E06700D35
:104B500000905F06801D1BD08EBD17D07EBD15D086
:104B60006EBD13D01EBCDA012150304041F03096AA
:104B70000FD00EB41EBC0D9221503040C9F707D0A3
:104B80000EB40C92599A0DB40895C895C8950000BA
:104B9000C8950895CF92DF92EF92CF93E0913006BF
:104BA000F1E0829192912291C22ED92EE82EE093CB
:104BB0003006809162068823C9F10E94D11ACFB7CE
:104BC000F894109271001092720080E18093530665
:104BD00020E130E043E456E08E2DB601B3DF80E102
:104BE000C80ED11CE11CC0924006D0924106E09252
:104BF00042068091430690914406909399008093D9
:104C0000980080E888B982E08093710080E4809306
:104C10007200CFBF609131067091320680913306E9
:104C2000CF91EF90DF90CF900C94891BCF91EF90B4
:104C3000DF90CF900895CF92DF92EF921F93CF93A2
:104C4000DF9380917200882329F18091530680318F
:104C500008F51FB7F89440915306C0E1DC2FD41B30
:104C6000C0904006D0904106E09042062D2F30E0E3
:104C700050E04D5B594F8E2DB60164DFCD0ED11C37
:104C8000E11CC0924006D0924106E0924206C093D9
:104C900053061FBFDF91CF911F91EF90DF90CF9010
:104CA0000895C9DF0C94101B0E94D71A6115710575
:104CB0008105910511F00C94133108950F920FB6F0
:104CC0008F939F93EF93FF93809155068D5F8D3760
:104CD00008F08D5780935506E6E5F6E080818E4F0B
:104CE000808391819F4F918382818F4F82838381C3
:104CF0008F4F8383EAE5F6E080818F5F8083818137
:104D00008F4F818382818F4F828383818F4F8383F3
:104D10008FB18F6066991C9B88278F3681F48091B4
:104D20005406981B963068F0E0E0F8E087E780834F
:104D3000818388E180936000F0936000FFCF9093BF
:104D40005406FF91EF919F918F910FBE0F90189590
:104D5000CF93DF93CDB7DEB7C952CDBF082F809375
:104D6000350690E0E5E6F6E091119FEF8FEF919325
:104D70009193919391938150D0F7599AC1DE10E0AD
:104D8000023040F0109134068BEA189F112D112447
:104D900016951F5F202F2150330BC901880F991FD3
:104DA000FC01EC56FD4CFCA3EBA3FF24F39400E0C4
:104DB000212F30E039A728A7CE0101961C010E94BF
:104DC0002B1B002339F080E80E94201B882311F060
:104DD0000150F82E89E0800F811728F480E10E94AD
:104DE000201B811177C0FF2009F4EDC021E044EAC7
:104DF00052E361E086E3FBDDE5E6F6E080E09191D9
:104E0000DF0111972FE792279C938F5F8038B9F7C6
:104E1000EBA1FCA14591549121E068E080E0E7DD41
:104E200028A539A5201B3109C901880F991F820FB8
:104E3000931FFC01E050FF4FFAA3E9A3502E51E16C
:104E4000F52E511608F0BDC0609031067090320604
:104E500080903306552039F0E9A1FAA1E350FB4FC9
:104E60006080718082806CE070E080E00E94891B2D
:104E70000E94CB1A482E0E94CB1A8DA30E94CB1AF7
:104E80008EA30E94CB1A8FA30E94CB1AE82E0E94F9
:104E9000CB1AD82E0E94D11A90E0A0E0772766277F
:104EA0007D296E290E94891BC12CD12CE12CB12CAB
:104EB000A12C912CC614D704E804B8F50E94CB1A93
:104EC00087FD0AC090E00196C80ED91EE11C97FD2F
:104ED000EA94F0CF0F5F8ACF8D3F30F4FFE7AF1A2F
:104EE000B108A80EB11CE6CF8D3F21F40E94CB1A69
:104EF000982EE0CF8E3F41F40E94CB1AA82EB12C01
:104F00000E94CB1AB82AD6CF0E94CB1AC82ED12C19
:104F1000E12C0E94CB1A90E0982F8827A0E0C82AA5
:104F2000D92AEA2A0E94CB1AC5CF0E94D11A94141A
:104F3000E0F52FA1622F70E080E0862F77276627AB
:104F40003EA1732B9DA1692BE0E29E9E900111244E
:104F5000620F731F811D37FD8A950E94891B60E2D5
:104F600070E0C1010E947F1B20E0A1016F2D88E14C
:104F70003EDDFE013696C5016AE070E00E94CC3647
:104F8000805D82935B01E215F305A9F71E8280E044
:104F9000A101480F511DFA019081903311F48F5FE8
:104FA000F7CF20E06F2D80E022DD5394F6E0FF0E76
:104FB00029A13AA1235031093AA329A331E4F312DC
:104FC00040CF0E94121A2FB7F89480915606909104
:104FD0005706A0915806B09159062FBF94E1E92ECB
:104FE000E80EF12C2FB7F894809156069091570651
:104FF000A0915806B09159062FBFEE2DE81BE7FD92
:10500000DECE0E94101BEECFCF93DF93CDB7DEB77D
:10501000C450CDBFDC012D913C91119733272C5FFB
:105020003F4F2F3F310519F010F085E091DE4983A5
:105030005A836B837C83CE0101969E012B5F3F4F89
:10504000FC014191CF01ED91FC9111974193119693
:10505000FC93EE938217930799F78C918093300617
:10506000CC5FCDBFDF91CF9108958F929F92AF9289
:10507000BF92CF92DF92EF92FF92CF93DF9300D057
:10508000CDB7DEB7E0913006F1E0829192912291A6
:105090003291C32ED22EE92EF82E82919291229136
:1050A0003291FA83E983832E922EA92EB82EC8144A
:1050B000D904EA04FB0470F40E94C730A5019401EE
:1050C0002C193D094E095F090E945031C60ED71EAA
:1050D000E81EF91EB701A601CE01019695DF898170
:1050E00080933006CE5FCDBFDF91CF91FF90EF90E0
:1050F000DF90CF90BF90AF909F908F900895CF9307
:10510000DF9300D0CDB7DEB78FB7F8944091560645
:105110005091570660915806709159068FBFE091E3
:105120003006F1E0FA83E983CE0101966DDF8981D3
:1051300080933006CE5FCDBFDF91CF910895CF939E
:10514000DF9300D0CDB7DEB70E94D71AAB01BC0108
:10515000E0913006F1E0FA83E983CE01019654DF55
:10516000898180933006CE5FCDBFDF91CF910895C6
:10517000CF93DF93CDB7DEB7C450CDBFDC012D9107
:105180003C91119733272C5F3F4F2F3F310519F08A
:1051900010F085E0DDDD49835A836B837C83CE018B
:1051A00001969E012B5F3F4FFC014191CF01ED9194
:1051B000FC91119741931196FC93EE9382179307FC
:1051C00099F78C9180933006CC5FCDBFDF91CF9162
:1051D0000895CF93DF9300D0CDB7DEB7E0913006CE
:1051E000F1E08291929162917291FA83E983AB012D
:1051F0009C01652F742F832F922F0E947035AB0175
:10520000BC01CE010196B4DF898180933006CE5F68
:10521000CDBFDF91CF9108950F931F93CF93DF936D
:1052200000D0CDB7DEB7E0913006F1E082919291E7
:1052300022913291032F122FDC012291329142915F
:105240005291FA83E983BA01C901272F362F492FDA
:10525000582FB8018B2F9A2F0E941A35AB01BC0131
:10526000CE01019685DF898180933006CE5FCDBF68
:10527000DF91CF911F910F9108950F931F93CF93BB
:10528000DF9300D0CDB7DEB7E0913006F1E0829138
:10529000929122913291032F122FDC0122913291AF
:1052A00042915291FA83E983BA01C901272F362F1F
:1052B000492F582FB8018B2F9A2F0E945233AB01E0
:1052C000BC01CE01019654DF898180933006CE5F08
:1052D000CDBFDF91CF911F910F910895EF92FF9273
:1052E0000F931F93CF93DF9300D0CDB7DEB7E0913C
:1052F0003006F1E08291929122913291FA83E98312
:10530000E32EF22E092F182F20E030E0A901B7017B
:10531000C8010E94AC3420E030E040E05FE3B70118
:1053200087FD17C0C801EED70E94CA320E94FD3225
:10533000AB01BC01CE0101961BDF89818093300651
:10534000CE5FCDBFDF91CF911F910F91FF90EF9076
:105350000895C801D6D7E8CFCF93DF9300D0CDB75B
:10536000DEB7E0913006F1E0829192916291729104
:10537000FA83E983AB019C01652F742F832F922F51
:105380000E944832AB01BC01CE010196F1DE898159
:1053900080933006CE5FCDBFDF91CF910895CF933C
:1053A000DF9300D0CDB7DEB7E0913006F1E0829117
:1053B000929162917291FA83E983AB019C01652F0E
:1053C000742F832F922F0E943833AB01BC01CE0182
:1053D0000196CEDE898180933006CE5FCDBFDF910E
:1053E000CF9108950F931F93CF93DF9300D0CDB744
:1053F000DEB7E0913006F1E08291929122913291F4
:10540000032F122FDC012291329142915291FA83A3
:10541000E983BA01C901272F362F492F582FB80128
:105420008B2F9A2FE2D7AB01BC01CE010196A0DEF3
:10543000898180933006CE5FCDBFDF91CF911F91E0
:105440000F910895CF93DF9300D0CDB7DEB7E091F1
:105450003006F1E08291929162917291FA83E98330
:10546000AB019C01652F742F832F922F0E94B135C1
:10547000AB01BC01CE0101967BDE898180933006B1
:10548000CE5FCDBFDF91CF910895CF93DF9300D052
:10549000CDB7DEB7E0913006F1E082919291629152
:1054A0007291FA83E983AB019C01652F742F832FDE
:1054B000922F0E945F32AB01BC01CE01019658DEF3
:1054C000898180933006CE5FCDBFDF91CF91089563
:1054D000CF93DF9300D0CDB7DEB7E0913006F1E097
:1054E0008291929162917291FA83E983AB019C015E
:1054F000652F742F832F922F0E946635AB01BC015C
:10550000CE01019635DE898180933006CE5FCDBF16
:10551000DF91CF910895E0913006F1E09F013327AC
:105520002F3F310511F485E013DC8193E0933006C1
:1055300008951F93CF93DF9300D0CDB7DEB70E94BD
:10554000D11A6AE070E080E00E94891B62E070E09E
:10555000CE0101960E947F1B89819A819C01215076
:1055600031092115344028F40E94AE1A11E081114E
:1055700001C010E0609131067091320680913306CF
:105580000E94891B812FC7DFCE5FCDBFDF91CF91F6
:105590001F9108951F93CF93DF930E94D11A6AE061
:1055A00070E080E00E94891B0E94CB1AC82FD0E0D7
:1055B0000E94D11AD82BCE0101978115944058F43E
:1055C00060E070E080E00E949C1A0E94911A11E055
:1055D0008C179D0709F010E060913106709132063A
:1055E000809133060E94891B812FDF91CF911F91FB
:1055F00092CF809162068FCF9091720081E09111DD
:1056000001C080E088CFE0913006F1E09F013327B0
:105610002E5F3F4F2F3F310519F010F085E098DBEA
:1056200081939193E093300608959F92AF92BF9239
:10563000CF92DF92EF92FF920F931F93CF93DF935E
:10564000E0913006F1E0F290B290A29092908291B7
:1056500092912291C22ED92EE82E8291729162915E
:10566000E0933006599A0E94891BC92DDA2D0B2D23
:105670001F2D0E94CB1A8993882351F001501109E4
:1056800039F081E0C81AD108E10899F780E08993E0
:10569000599A892D9A2DB7DF8B2D9F2DB4DF6091FC
:1056A00031067091320680913306DF91CF911F91C0
:1056B0000F91FF90EF90DF90CF90BF90AF909F90B1
:1056C0000C94891B1F93CF93DF93E0913006F1E098
:1056D00082919291C92FD82F9291829122913291E9
:1056E000632F722F42915291E0933006FC01252FD7
:1056F000342FAE01D9011D919D011193112359F051
:105700004150510941F0DA01A60FB71FAC17BD0790
:1057100089F720E0219377DFCE01DF91CF911F91B0
:1057200072CFE0913006F1E082919291292F382FCB
:1057300082919291492F582FE093300690E080E0BB
:10574000FC01E40FF51F6081662321F001968217AA
:105750009307B1F758CF2F923F924F926F927F925B
:105760008F92CF92DF92EF920F931F93CF93DF939D
:10577000CDB7DEB7C550CDBFE0913006F1E08291E4
:1057800092912291C22ED92E482F96012F5F3F4F22
:105790004F4F29833A834B83829192912291622EBB
:1057A000792E882E829192912291C22ED92EE82EA6
:1057B000E09330060E94D11A6C0C7D1C8E1C10E008
:1057C00000E01D821C82C614D704E80481F1160192
:1057D0004E2C3FEF231A330A430A8E2DB6010E9446
:1057E000891B0E94D11A882311F18A3061F48C81BF
:1057F0009D818017910710F41D830C8310E000E059
:10580000E42C6101E0CF90E0880F991F29813A8153
:105810004B81280F391F411D97FD4A95842FB901EF
:105820000E94891B0E94D11A080F111DE9CF8C819B
:105830009D818017910708F4C801E5DE609131066B
:105840007091320680913306CB5FCDBFDF91CF914F
:105850001F910F91EF90DF90CF908F907F906F907E
:105860004F903F902F900C94891B8F929F92AF92F4
:10587000BF92CF92DF92EF920F931F93CF93DF935C
:10588000E0913006F1E0829192912291C22ED92EC0
:10589000E82E2FEFC21AD20AE20A82919291C92F02
:1058A000D82FB290A290E09330060E94D11A8501C1
:1058B000B12CA12C912C812CF80181918F0188238E
:1058C00061F0209751F021978A3001F58A149B04EA
:1058D00008F44501B12CA12CEFCFC4018A149B041C
:1058E00008F4C50190DE6091310670913206809116
:1058F0003306DF91CF911F910F91EF90DF90CF9002
:10590000BF90AF909F908F900C94891B90E0880F70
:10591000991F4E2D9601280F391F411D97FD4A955D
:10592000842FB9010E94891B0E94D11AA80EB11CB4
:10593000C3CFE0913006F1E09F0133272F3F3105BF
:1059400011F485E005DA8193E093300608952F92F3
:105950003F924F926F927F928F92CF92DF92EF920F
:10596000CF93DF93CDB7DEB7C650CDBFE091300601
:10597000F1E0829192912291C22ED92EE82E82914D
:1059800092912291222E392E482E8291929122912B
:10599000622E792E882E82919291229129839A8368
:1059A0008B83E09330060E94D11A482D9301220D7B
:1059B000331D441D2C833D834E83842C310129806B
:1059C0003A804B80261837084808882DB3010E947A
:1059D000891B0E94D11A8983842DB101660D771D20
:1059E000881D0E94891B0E94D11A90E0C114D10425
:1059F000E10429F0998131E0C31AD108E1082C8132
:105A00003D814E8126153705480531F1882331F057
:105A10003FEF631A730A830A9817B9F22FEF9817AA
:105A200024F021E089170CF020E0822F82DF6091C2
:105A300031067091320680913306CA5FCDBFDF9187
:105A4000CF91EF90DF90CF908F907F906F904F909D
:105A50003F902F900C94891B80E0E0CFAF92BF92D3
:105A6000CF92DF92EF92FF920F931F93CF93DF932A
:105A7000E0913006F1E082919291C92FD82F1291D6
:105A80000291829192912291C22ED92EE82EB2904B
:105A9000A290F290E09330060E94D11A6F2D7A2DD9
:105AA0008B2D0E94891B5801F50111915F010E9405
:105AB000CB1A90E0209711F0912F2197C114D104B7
:105AC000E10429F121E0C21AD108E108882311F08C
:105AD000981751F32FEF981724F021E089170CF055
