:100000000C94F4180C9411190C9411190C941119E6
:100010000C9411190C9411190C9411190C941119B8
:100020000C9411190C9411190C9411190C941119A8
:100030000C9411190C9411190C9411190C94111998
:100040000C9411190C9411190C9411190C94111988
:100050000C9411190C9411190C9411190C94C926B3
:100060000C9411190C9411190C9411190C94111968
:100070000C9411190C9411190C9411190C94111958
:100080000C94452D0C9411190C9411190C94111900
:100090000C9411190C9411190C94F82C0C9411193E
:1000A0000C9411190C9411190C941119084AD73B8E
:1000B0003BCE016E84BCBFFDC12F3D6C74319ABD37
:1000C00056833DDA3D00C77F11BED9E4BB4C3E915B
:1000D0006BAAAABE000000803F05A84CCDB2D44E4A
:1000E000B93836A9020C50B9918688083CA6AAAA4C
:1000F0002ABE000000803F0664EC1B3C04BC163E98
:100100003BE5B93CC93C37C29E5A3D660498083E5F
:10011000EA69AAAA3E000000803F07634236B79B07
:10012000D8A71A39685618AEBAAB558C1D3CB7CC57
:100130005763BD6DEDFD753EF6177231BF000000CF
:10014000803F08000000BE922449123EABAAAA2AB2
:10015000BECDCCCC4C3E00000080BEABAAAAAA3ECD
:1001600000000000BF000000803F00000000000809
:100170004178D3BB4387D1133D190E3CC3BD4282A6
:10018000AD2B3E68EC8276BED98FE1A93E4C80EF64
:10019000FFBE01C4FF7F3F00000000000000000020
:1001A000000000000000000000000000000000004F
:1001B000000000000000000000000000000000003F
:1001C000000000000000000000000000000000002F
:1001D000000000000000000000000000000000001F
:1001E000000000000000000000000000000000000F
:1001F00000000000000000000000000000000000FF
:10020000C895C89500000EB42EBC640C721C821CEC
:10021000039CF001F50D09940000000000000000AF
:1002200000000000000000000000000000000000CE
:1002300000000000000000000000000000000000BE
:100240009992CF3FA1F0C8950EB42EBC640C721CDD
:10025000821C902CC895C895C895C8950EB42EBC24
:10026000640C721C821C039CF001F50D099485E05E
:100270000C94D517000000000000000000000000F2
:100280009992CF3F19F485E00C94D51700E0902E99
:100290000EB42EBC640C721C821C039CF001F50D84
:1002A00009940000000000000000000000000000B1
:1002B000000000000000000000000000000000003E
:1002C0009992CF3F19F485E00C94D51701E0902E58
:1002D0000EB42EBC640C721C821C039CF001F50D44
:1002E0000994000000000000000000000000000071
:1002F00000000000000000000000000000000000FE
:100300009992CF3F19F485E00C94D51702E0902E16
:100310000EB42EBC640C721C821C039CF001F50D03
:100320000994000000000000000000000000000030
:1003300000000000000000000000000000000000BD
:100340009992CF3F19F485E00C94D51703E0902ED5
:100350000EB42EBC640C721C821C039CF001F50DC3
:1003600009940000000000000000000000000000F0
:10037000000000000000000000000000000000007D
:100380009992CF3F19F485E00C94D51704E0902E94
:100390000EB42EBC640C721C821C039CF001F50D83
:1003A00009940000000000000000000000000000B0
:1003B000000000000000000000000000000000003D
:1003C0009992CF3F19F485E00C94D51705E0902E53
:1003D0000EB42EBC640C721C821C039CF001F50D43
:1003E0000994000000000000000000000000000070
:1003F00000000000000000000000000000000000FD
:100400009992CF3F19F485E00C94D51706E0902E11
:100410000EB42EBC640C721C821C039CF001F50D02
:10042000099400000000000000000000000000002F
:1004300000000000000000000000000000000000BC
:100440009992CF3F19F485E00C94D51707E0902ED0
:100450000EB42EBC640C721C821C039CF001F50DC2
:1004600009940000000000000000000000000000EF
:10047000000000000000000000000000000000007C
:100480009992CF3F19F485E00C94D51708E0902E8F
:100490000EB42EBC640C721C821C039CF001F50D82
:1004A00009940000000000000000000000000000AF
:1004B000000000000000000000000000000000003C
:1004C0009992CF3F19F485E00C94D51700E1902E56
:1004D0000EB42EBC640C721C821C039CF001F50D42
:1004E000099400000000000000000000000000006F
:1004F00000000000000000000000000000000000FC
:100500009992CF3F19F485E00C94D51700E2902E14
:100510000EB42EBC640C721C821C039CF001F50D01
:10052000099400000000000000000000000000002E
:1005300000000000000000000000000000000000BB
:100540009992CF3F19F485E00C94D51700E4902ED2
:100550000EB42EBC640C721C821C039CF001F50DC1
:1005600009940000000000000000000000000000EE
:10057000000000000000000000000000000000007B
:100580009992CF3F19F485E00C94D51700E8902E8E
:100590000EB42EBC640C721C821C039CF001F50D81
:1005A00009940000000000000000000000000000AE
:1005B000000000000000000000000000000000003B
:1005C000CE3F60F49992299299240EB42EBC640C0B
:1005D000721C821C039CF001F50D099485E00C94BB
:1005E000D51700000000000000000000000000001F
:1005F00000000000000000000000000000000000FB
:10060000CD3F68F499922992299299240EB42EBC78
:10061000640C721C821C039CF001F50D099485E0AA
:100620000C94D5170000000000000000000000003E
:1006300000000000000000000000000000000000BA
:10064000CC3F70F4999229922992299299240EB460
:100650002EBC640C721C821C039CF001F50D0994E5
:1006600085E00C94D5170000000000000000000099
:10067000000000000000000000000000000000007A
:10068000C83F90F49992299229922992299229920D
:100690002992299299240EB42EBC640C721C821CDF
:1006A000039CF001F50D099485E00C94D51700002A
:1006B000000000000000000000000000000000003A
:1006C000C83FD0F49992299229922992299229928D
:1006D0002992299229922992299229922992299242
:1006E0002992299299240EB42EBC640C721C821C8F
:1006F000039CF001F50D099485E00C94D5170000DA
:100700009992C89500C00EB42EBC099210D09EB428
:100710002EBC02E0600E721C821C0BD00EB42EBCEC
:10072000640C721C821C039CF001F50D09940000FE
:100730000000C89500C008950000000000000000FF
:100740009992C89500C00EB42EBC0992F0DF0EB489
:100750002EBC0992ECDF9EB42EBC03E0600E721C2E
:10076000821CE7DF0EB42EBC640C721C821C039C3E
:10077000F001F50D099400000000000000000000E9
:10078000999204E0600E721C821C00000EB42EBC14
:100790000992CDDF0EB42EBC0992C9DF0EB42EBC77
:1007A0000992C5DF9EB42EBCC2DFDCCF0000000082
:1007B0000000000000000000000000000000000039
:1007C0009992CF3F61F0990C990800000EB42EBCAD
:1007D000640C721C821C039CF001F50D099485E0E9
:1007E0000C94D5170000000000000000000000007D
:1007F00000000000000000000000000000000000F9
:100800009992CE3F60F4990C990899920EB42EBC3F
:10081000640C721C821C039CF001F50D099485E0A8
:100820000C94D5170000000000000000000000003C
:1008300000000000000000000000000000000000B8
:100840009992CD3F68F4990C9908999299920EB4B7
:100850002EBC640C721C821C039CF001F50D0994E3
:1008600085E00C94D5170000000000000000000097
:100870000000000000000000000000000000000078
:100880009992CF3F51F0C8950EB42EBC640C721CE7
:10089000821C039CF001F50D099485E00C94D5179A
:1008A0000000000000000000000000000000000048
:1008B0000000000000000000000000000000000038
:1008C0009992CF3F61F0DE01A2509C900EB42EBCF5
:1008D000640C721C821C039CF001F50D099485E0E8
:1008E0000C94D5170000000000000000000000007C
:1008F00000000000000000000000000000000000F8
:100900009992CF3F61F0DE01A3509C900EB42EBCB3
:10091000640C721C821C039CF001F50D099485E0A7
:100920000C94D5170000000000000000000000003B
:1009300000000000000000000000000000000000B7
:100940009992CF3F61F0DE01A4509C900EB42EBC72
:10095000640C721C821C039CF001F50D099485E067
:100960000C94D517000000000000000000000000FB
:100970000000000000000000000000000000000077
:100980009992CF3F61F0DE01A5509C900EB42EBC31
:10099000640C721C821C039CF001F50D099485E027
:1009A0000C94D517000000000000000000000000BB
:1009B0000000000000000000000000000000000037
:1009C0009992CF3F61F0DE01A6509C900EB42EBCF0
:1009D000640C721C821C039CF001F50D099485E0E7
:1009E0000C94D5170000000000000000000000007B
:1009F00000000000000000000000000000000000F7
:100A00009992CF3F61F0DE01A7509C900EB42EBCAE
:100A1000640C721C821C039CF001F50D099485E0A6
:100A20000C94D5170000000000000000000000003A
:100A300000000000000000000000000000000000B6
:100A40009992CF3F61F0DE01A8509C900EB42EBC6D
:100A5000640C721C821C039CF001F50D099485E066
:100A60000C94D517000000000000000000000000FA
:100A70000000000000000000000000000000000076
:100A80009992CE3F70F4DE01A2500D9009929D9094
:100A90000EB42EBC640C721C821C039CF001F50D7C
:100AA000099485E00C94D5170000000000000000B8
:100AB0000000000000000000000000000000000036
:100AC0009992CE3F70F4DE01A3500D9009929D9053
:100AD0000EB42EBC640C721C821C039CF001F50D3C
:100AE000099485E00C94D517000000000000000078
:100AF00000000000000000000000000000000000F6
:100B00009992CE3F70F4DE01A4500D9009929D9011
:100B10000EB42EBC640C721C821C039CF001F50DFB
:100B2000099485E00C94D517000000000000000037
:100B300000000000000000000000000000000000B5
:100B40009992CE3F70F4DE01A5500D9009929D90D0
:100B50000EB42EBC640C721C821C039CF001F50DBB
:100B6000099485E00C94D5170000000000000000F7
:100B70000000000000000000000000000000000075
:100B80009992CE3F70F4DE01A6500D9009929D908F
:100B90000EB42EBC640C721C821C039CF001F50D7B
:100BA000099485E00C94D5170000000000000000B7
:100BB0000000000000000000000000000000000035
:100BC0009992CE3F70F4DE01A7500D9009929D904E
:100BD0000EB42EBC640C721C821C039CF001F50D3B
:100BE000099485E00C94D517000000000000000077
:100BF00000000000000000000000000000000000F5
:100C00009992CE3F70F4DE01A8500D9009929D900C
:100C10000EB42EBC640C721C821C039CF001F50DFA
:100C2000099485E00C94D517000000000000000036
:100C300000000000000000000000000000000000B4
:100C40009992CE3F70F4DE01A9500D9009929D90CB
:100C50000EB42EBC640C721C821C039CF001F50DBA
:100C6000099485E00C94D5170000000000000000F6
:100C70000000000000000000000000000000000074
:100C80009992CF3F19F485E00C94D5170000DE014E
:100C90000EB42EBC640C721C821CA0199C90C895CA
:100CA000C89500C000C00EB42EBC640C721C821C1F
:100CB000039CF001F50D0994000000000000000005
:100CC0009992CE3F18F085E00C94D5170000DE0114
:100CD0000EB42EBC640C721C821CA0190D909C904A
:100CE0000992C895C8950EB42EBC640C721C821C67
:100CF000039CF001F50D09940000000000000000C5
:100D00009992CC3F18F085E00C94D5170000DE01D5
:100D10000EB42EBC640C721C821CA0190D911D9186
:100D20002D919D900993199329930EB42EBC640CB8
:100D3000721C821C039CF001F50D09940000000058
:100D4000092D9C0E00F3DE01640C721C821C0EB493
:100D50002EBCA019069510F40D9009920D900992E1
:100D60009D9099920A95D1F7CA950EB42EBC640C49
:100D7000721C821C039CF001F50D09940000000018
:100D8000C895C89500000EB42EBC640C721C821C61
:100D9000092DDE01A0190C939A90C895C8950EB440
:100DA0002EBC640C721C821C039CF001F50D09948E
:100DB0000000000000000000000000000000000033
:100DC000C895C89500000EB42EBC640C721C821C21
:100DD000192D0A91DE01A0190D931D939A9000C060
:100DE0000EB42EBC640C721C821C039CF001F50D29
:100DF0000994000000000000000000000000000056
:100E0000392D2A911A910A910EB42EBC640C721CD1
:100E1000821CDE01A0190D931D932D933D939A9092
:100E200000000EB42EBC640C721C821C039CF001EA
:100E3000F50D099400000000000000000000000013
:100E4000092D0250DE011A912A910EB42EBC640CB9
:100E5000721C821CA0191E932E93069518F40A90FA
:100E60000E92F9F20A900E920A900E920A95D1F71C
:100E70009A90D7CF000000000000000000000000A2
:100E80009992CF3F19F485E00C94D51700C0AEB508
:100E90002EBC42E0640E721C821C0ED0BEB52EBC6D
:100EA0009C9009D00EB42EBC640C721C821C039C56
:100EB000F001F50D099400C000C0C8950895000028
:100EC0009992CE3F18F085E00C94D51700C0AEB5CE
:100ED0002EBC42E0640E721C821CEEDFBEB52EBC3E
:100EE0000D919D900993E9DF0EB42EBC640C721C29
:100EF000821C039CF001F50D099400000000000025
:100F00009992CC3F18F085E00C94D51700C0AEB58F
:100F10002EBC42E0640E721C821CCEDFBEB52EBC1D
:100F20000D911D912D919D90099319932993DCCFDB
:100F300000000000000000000000000000000000B1
:100F4000292D9A949C0EF8F2C895AEB52EBC42E0BD
:100F5000640E721C821CB0DFBEB52EBC269510F448
:100F60000D9009920D9009920D9009922A95D1F752
:100F70009A90BACF000000000000000000000000BE
:100F8000C895C8950000AEB52EBC12E0610E721C6B
:100F9000821C92DFBEB52EBC9C929A908DDF0EB45F
:100FA0002EBC640C721C821C039CF001F50D09948C
:100FB0000000000000000000000000000000000031
:100FC0001ED0AEB52EBC12E0610E721C821C74DF06
:100FD000BEB52EBC1A911D939D9210D09A900EB45E
:100FE0002EBC640C721C821C039CF001F50D09944C
:100FF000000000C000C00000000000C00000089514
:10100000392D2A911A910A91AEB52EBC42E0640E98
:10101000721C821CF0DFBEB52EBC0D931D932D9368
:101020003D939A90C895C8950EB42EBC640C721C62
:10103000821C039CF001F50D0994000000000000E3
:10104000DEDFAEB52EBC12E0610E721C821CD3DF57
:10105000BEB52EBCA90DB21D969410F40A900E9246
:101060000A900E920A900E929A94D1F7B7CF000090
:101070000000000000000000000000000000000070
:10108000292D1A910A91729A33E072983EBDA09070
:101090005E06B0905F06A10EB21EAEDFBEBCA8DF3A
:1010A000AEBCA6DF0EBDA4DF2EBCA3DF9EB40C94A5
:1010B000A217000000C0089500000000000000001A
:1010C000292D1A910A9100C01EB427C0640C721C0D
:1010D000821C00C0EFDF0EB42EBC099200001A94EF
:1010E0001414C1F7E6DF9EB40C94A21700000000B0
:1010F00000000000000000000000000000000000F0
:10110000B92DAA919D9000C00EB42EBC640C721C27
:10111000821C039CF001F50D0994729A33E07298D9
:101120003EBDA0905E06B0905F06A10EB21E64DFC9
:10113000BEBC5EDFAEBC5CDF0EBD5ADF2EBCC6CFD0
:10114000B92DAA911D9019929D900EB42EBC640CDD
:10115000721C821C039CF001F50D09940000000034
:10116000000000000000000000000000000000007F
:10117000000000000000000000000000000000006F
:10118000B92DAA912C2FC8950EB42EBC640C721CDC
:10119000821C200D18F1069410F49D9099929D9058
:1011A00099929D9099920A94D1F7CA950EB42EBC4B
:1011B000640C721C821C039CF001F50D0994000064
:1011C000B92DAA911A901C929A900EB42EBC640C60
:1011D000721C821C039CF001F50D099485E00C94AF
:1011E000D517000000000000000000000000000013
:1011F00000000000000000000000000000000000EF
:10120000B92DAA911A900A909A900D921C920EB440
:101210002EBC640C721C821C039CF001F50D099419
:1012200000000000000000000000000000000000BE
:1012300000000000000000000000000000000000AE
:10124000B92DAA9100C000C00EB42EBC640C721C53
:10125000821CA00DB21D069410F41A901E921A90D2
:101260001E921A901E920A94D1F79A900EB42EBC38
:10127000640C721C821C039CF001F50D09940000A3
:10128000CA95988000C000C00EB42EBC640C721CBD
:10129000821C039CF001F50D099400000000000081
:1012A000000000000000000000000000000000003E
:1012B000000000000000000000000000000000002E
:1012C000C250988000C000C00EB42EBC640C721CCA
:1012D000821C039CF001F50D099400000000000041
:1012E00000000000000000000000000000000000FE
:1012F00000000000000000000000000000000000EE
:10130000C350988000C000C00EB42EBC640C721C88
:10131000821C039CF001F50D099400000000000000
:1013200000000000000000000000000000000000BD
:1013300000000000000000000000000000000000AD
:10134000C450988000C000C00EB42EBC640C721C47
:10135000821C039CF001F50D09946993972E0EB43D
:101360002EBC640C721C821C039CF001F50D0994C8
:10137000000000000000000000000000000000006D
:10138000C895C89500000EB42EBC640C721C821C5B
:10139000C01998800CD00EB42EBC640C721C821C38
:1013A000039CF001F50D099400C000C000C0C89571
:1013B0000895000000000000000000000000000090
:1013C000492DC895C8950EB42EBC640C721C821CA5
:1013D000401518F082E00C94D5179A906A91640F2A
:1013E000921C699300C00EB42EBC640C721C821C4B
:1013F000039CF001F50D099482E00C94D5170000D0
:10140000492DC895C8950EB52EBC12E0610E721C10
:10141000821CCCDF1EB52EBC411770F7049F5A9179
:101420004A91040E151E0992912C0000DCCF0BC0CE
:1014300000000000000000000000000000000000AC
:10144000592D4A91F4CF0EB52EBC14E0610E721CDA
:10145000821CACDF1EB52EBCA7DF2EB52EBCA4DFD0
:101460003EB52EBC4217530738F6049FB001059FC6
:10147000700D149F700D5A914A91640F751F6DCFB6
:10148000A92C9A90EA90DA900EB52EBC12E0610E6B
:10149000721C821C8BDF1EB52EBCA11640F4A09ED0
:1014A000D00CE11C921CD992E992C895DAC082E076
:1014B0000C94D517000000000000000000000000A0
:1014C00077DF4EB52EBC15E0610E721C821CC92C54
:1014D000BA90AA906DDF5EB52EBCFA90EA90DA90D1
:1014E00066DF0EB52EBC60DF1EB52EBC5DDF2EB5EF
:1014F0002EBCA016B106C206D0F60C9451170000FF
:10150000592D4A913A912A910EB52EBC12E0610EE6
:10151000721C821C4217530750F6049FB0019A9127
:101520008A91680F791F1EB52EBC059F700D149F00
:10153000700D6993972E00C0C89593C000000000FD
:101540000C946E1782E00C94D517B00CC11C289F28
:10155000C00C199FC00C301B410B920A9CF3B2E0E7
:101560006B0E721C821CA992B992C992399349934D
:1015700078C009931993699374C0000000000000BB
:101580006A915A914A913A918EB52EBC2A911A913C
:101590000A9142175307B0F62617390598F2489F6B
:1015A000000D111D9EB52EBC589F110D499F110DA8
:1015B000641B950A3CF2B2E06B0E721C821CD9CF00
:1015C0004A913A912A911A918EB52EBC0A91FA90BD
:1015D000EA90DA90CA90BA90AA900D151E052F05D0
:1015E00048F59EB52EBCD316E406F90418F1089F01
:1015F000A00CB11CC21C189FB00CC11C099FA5CF28
:101600009992CE3F18F085E00C94D51700C00EB427
:101610002EBC640C721C821C8E0100190993912E41
:101620000DD00EB42EBC640C721C821C039CF00105
:10163000F50D099482E00C94D517C8950000089523
:101640009992CE3F18F085E00C94D51700C00EB4E7
:101650002EBC640C721C821C12E00992912EEEDFEB
:1016600000000EB42EBC640C721C821C039CF001A2
:10167000F50D0994000000000000000000000000CB
:101680009394C895EDCF000000000000000000001A
:10169000000000000000000000000000000000004A
:1016A000000000000000000000000000000000003A
:1016B000000000000000000000000000000000002A
:1016C0009A94C895CDCF00000000000000000000F3
:1016D000000000000000000000000000000000000A
:1016E00000000000000000000000000000000000FA
:1016F00000000000000000000000000000000000EA
:1017000000C000C0DE0111960EB42EBC640C721C29
:10171000821CA0190C9003940C92C89500C000C0C4
:101720000EB42EBC640C721C821C039CF001F50DDF
:10173000099400000000000000000000000000000C
:10174000B92DAA910D91902E03950E930EB42EBC37
:10175000640C721C821C039CF001F50D09940000BE
:101760000000000000000000000000000000000079
:101770000000000000000000000000000000000069
:10178000B92DAA910D911D910993912E040D121D51
:101790001E930E930EB42EBC640C721C821C039C10
:1017A000F001F50D099400000000000000000000A9
:1017B0000000000000000000000000000000000029
:1017C000CE3F18F085E00C94D517B92DAA910D9154
:1017D0001D912D9109931993922E040D121D221D16
:1017E0002E931E930E930EB42EBC640C721C821C9E
:1017F000039CF001F50D09940000000000000000BA
:10180000CD3F18F085E00C94D517B92DAA910D9114
:101810001D912D913D91099319932993932E040DB8
:10182000121D221D321D3E932E931E930E930EB455
:101830002EBC640C721C821C039CF001F50D0994F3
:10184000B92DAA910D91902E0A950E930EB42EBC2F
:10185000640C721C821C039CF001F50D09940000BD
:101860000000000000000000000000000000000078
:101870000000000000000000000000000000000068
:10188000B92DAA910D911D910993912E0419120958
:101890001E930E930EB42EBC640C721C821C039C0F
:1018A000F001F50D099400000000000000000000A8
:1018B0000000000000000000000000000000000028
:1018C000CE3F18F085E00C94D517B92DAA910D9153
:1018D0001D912D9109931993922E04191209220931
:1018E0002E931E930E930EB42EBC640C721C821C9D
:1018F000039CF001F50D09940000000000000000B9
:10190000CD3F18F085E00C94D517B92DAA910D9113
:101910001D912D913D91099319932993932E0419AB
:101920001209220932093E932E931E930E930EB490
:101930002EBC640C721C821C039CF001F50D0994F2
:10194000CD3F18F085E00C94D517B92DAA916D9173
:101950007D918D919D91699379938993992E8D01B4
:10196000112420E030E040E85FE30E94782FD801A6
:101970009E938E937E936E93DACF0000000000005A
:10198000CD3F18F085E00C94D517B92DAA916D9133
:101990007D918D919D91699379938993992E8D0174
:1019A000112420E030E040E85FE30E94772FD80167
:1019B0009E938E937E936E93BACF0000000000003A
:1019C000EA909E0C00C000C00EB42EBC640C721CC9
:1019D000821C039CF001F50D09940000000000003A
:1019E00000000000000000000000000000000000F7
:1019F00000000000000000000000000000000000E7
:101A0000AA90FA90EA90AE0C9F1CA9920EB42EBC3C
:101A1000640C721C821C039CF001F50D09940000FB
:101A200000000000000000000000000000000000B6
:101A300000000000000000000000000000000000A6
:101A4000BA90AA900A91FA90EA90AE0CBF1C901E30
:101A5000A992B9920EB42EBC640C721C821C039C19
:101A6000F001F50D099400000000000000000000E6
:101A70000000000000000000000000000000000066
:101A8000CA90BA90AA901A910A91FA90EA90AE0C74
:101A9000BF1CC01E911EA992B992C9920EB42EBC51
:101AA000640C721C821C039CF001F50D099400006B
:101AB0000000000000000000000000000000000026
:101AC000EA90E9189E2CC8950EB42EBC640C721CCA
:101AD000821C039CF001F50D099400000000000039
:101AE00000000000000000000000000000000000F6
:101AF00000000000000000000000000000000000E6
:101B0000AA90FA90EA90EA18F908E9929F2C0EB48C
:101B10002EBC640C721C821C039CF001F50D099410
:101B200000000000000000000000000000000000B5
:101B300000000000000000000000000000000000A5
:101B4000BA90AA900A91FA90EA90EA18FB0809095B
:101B5000E992F992902E0EB42EBC640C721C821C79
:101B6000039CF001F50D0994000000000000000046
:101B70000000000000000000000000000000000065
:101B8000CA90BA90AA901A910A91FA90EA90EA182B
:101B9000FB080C091909E992F9920993912E0EB4E8
:101BA0002EBC640C721C821C039CF001F50D099480
:101BB0000000000000000000000000000000000025
:101BC000FA90EA90E90CF21CE9929F2C0EB42EBC1C
:101BD000640C721C821C039CF001F50D099400003A
:101BE00000000000000000000000000000000000F5
:101BF00000000000000000000000000000000000E5
:101C00000A91FA90EA90E90CF21C021DE992F9920D
:101C1000902E0EB42EBC640C721C821C039CF0012E
:101C2000F50D099400000000000000000000000015
:101C300000000000000000000000000000000000A4
:101C4000FA90EA90E918F208E9929F2C0EB42EBCA3
:101C5000640C721C821C039CF001F50D09940000B9
:101C60000000000000000000000000000000000074
:101C70000000000000000000000000000000000064
:101C8000FA90EA90E99C9001F99C300D2993932EEB
:101C90000EB42EBC640C721C821C039CF001F50D6A
:101CA0000994000000000000000000000000000097
:101CB0000000000000000000000000000000000024
:101CC000EA90E99C902C00C00EB42EBC640C721CEF
:101CD000821C039CF001F50D099400000000000037
:101CE00000000000000000000000000000000000F4
:101CF00000000000000000000000000000000000E4
:101D0000AA90FA90EA90EA9C9001E99C300DFA9C26
:101D1000300D2993932E0EB42EBC640C721C821CC1
:101D2000039CF001F50D0994000000000000000084
:101D300000000000000000000000000000000000A3
:101D4000BA90AA900A91FA90EA90EA9C90010A9DB2
:101D5000902CFA9C300D911CEB9C300D911CFB9C3F
:101D6000900CE99C900C299339930EB42EBC640C12
:101D7000721C821C039CF001F50D09940000000008
:101D80000C940E170000000000000000000000008E
:101D90000000000000000000000000000000000043
:101DA0000000000000000000000000000000000033
:101DB0000000000000000000000000000000000023
:101DC000792D6A919A918A916215720519F483E0CE
:101DD0000C94D5170E94C2346993972E0EB42EBC72
:101DE000640C721C821C039CF001F50D0994000028
:101DF00000000000000000000000000000000000E3
:101E0000592D4A913A912A919A918A917A916A919F
:101E1000221532054205520519F483E00C94D517BA
:101E20008E010E94462FE801299339934993952EFC
:101E3000D5CF0000000000000000000000000000FE
:101E4000792D6A919A918A916215720519F483E04D
:101E50000C94D5170E94D6346993972E0EB42EBCDD
:101E6000640C721C821C039CF001F50D09940000A7
:101E70000000000000000000000000000000000062
:101E8000592D4A913A912A919A918A917A916A911F
:101E9000221532054205520519F483E00C94D5173A
:101EA0008E010E941A2FE801299339934993952EA8
:101EB000D5CF00000000000000000000000000007E
:101EC000792D6A919A918A916215720519F483E0CD
:101ED0000C94D5170E94C2348993992E0EB42EBC4F
:101EE000640C721C821C039CF001F50D0994000027
:101EF00000000000000000000000000000000000E2
:101F0000592D4A913A912A919A918A917A916A919E
:101F1000221532054205520519F483E00C94D517B9
:101F20008E010E94462FE801699379938993992E37
:101F3000D5CF0000000000000000000000000000FD
:101F4000792D6A919A918A916215720519F483E04C
:101F50000C94D5170E94D6348993992E0EB42EBCBA
:101F6000640C721C821C039CF001F50D09940000A6
:101F70000000000000000000000000000000000061
:101F8000592D4A913A912A919A918A917A916A911E
:101F9000221532054205520519F483E00C94D51739
:101FA0008E010E941A2FE801699379938993992EE3
:101FB000D5CF00000000000000000000000000007D
:101FC000492D0A914830A0F442FD029542FD007F60
:101FD00041FD000F41FD000F40FD000F902E0EB49B
:101FE0002EBC640C721C821C039CF001F50D09943C
:101FF0009924F5CF00000000000000000000000060
:10200000492D1A910A914830A1F0403128F02992C7
:10201000992406C0000F111F4A95E2F70993912EEB
:102020000EB42EBC640C721C821C039CF001F50DD6
:1020300009942992902EF4CF0000000000000000C7
:10204000492D3A912A911A910A91403248F02992E9
:102050002992299299240AC0000F111F221F331FB1
:102060004A95D2F7099319932993932E0EB42EBC57
:10207000640C721C821C039CF001F50D0994000095
:10208000492D0A914830A0F442FD029542FD0F709F
:1020900041FD069541FD069540FD0695902E0EB436
:1020A0002EBC640C721C821C039CF001F50D09947B
:1020B000922CF5CF0000000000000000000000009E
:1020C000492D1A910A91403128F02992922C06C08C
:1020D000169507954A95E2F70993912E0EB42EBCFA
:1020E000640C721C821C039CF001F50D0994000025
:1020F00000000000000000000000000000000000E0
:10210000492D3A912A911A910A91403248F0299228
:1021100029922992922C0AC03695279517950795F2
:102120004A95D2F7099319932993932E0EB42EBC96
:10213000640C721C821C039CF001F50D09940000D4
:10214000492D0A91473030F050E007FD5FEF952EA2
:1021500004C005954A95EAF7902E0EB42EBC640C87
:10216000721C821C039CF001F50D09940000000014
:10217000000000000000000000000000000000005F
:10218000492D1A910A91403140F050E017FD5FEF60
:102190005993952E06C0159507954A95E2F7099330
:1021A000912E0EB42EBC640C721C821C039CF00198
:1021B000F50D099400000000000000000000000080
:1021C000492D3A912A911A910A91403260F050E0DB
:1021D00027FD5FEF599359935993952EE2CF35958B
:1021E0002795179507954A95D2F70993199329933F
:1021F000932ED7CF00000000000000000000000078
:10220000EA909E2000C000C00EB42EBC640C721C6C
:10221000821C039CF001F50D0994000000000000F1
:1022200000000000000000000000000000000000AE
:10223000000000000000000000000000000000009E
:10224000AA90FA90EA90AE209F20A9920EB42EBCDC
:10225000640C721C821C039CF001F50D09940000B3
:10226000000000000000000000000000000000006E
:10227000000000000000000000000000000000005E
:10228000CA90BA90AA901A910A91FA90EA90AE2058
:10229000BF20C0229122A992B992C9920EB42EBC3D
:1022A000640C721C821C039CF001F50D0994000063
:1022B000000000000000000000000000000000001E
:1022C000EA909E2800C000C00EB42EBC640C721CA4
:1022D000821C039CF001F50D099400000000000031
:1022E00000000000000000000000000000000000EE
:1022F00000000000000000000000000000000000DE
:10230000AA90FA90EA90AE289F28A9920EB42EBC0B
:10231000640C721C821C039CF001F50D09940000F2
:1023200000000000000000000000000000000000AD
:10233000000000000000000000000000000000009D
:10234000CA90BA90AA901A910A91FA90EA90AE288F
:10235000BF28C02A912AA992B992C9920EB42EBC64
:10236000640C721C821C039CF001F50D09940000A2
:10237000000000000000000000000000000000005D
:10238000EA909E2400C000C00EB42EBC640C721CE7
:10239000821C039CF001F50D099400000000000070
:1023A000000000000000000000000000000000002D
:1023B000000000000000000000000000000000001D
:1023C000AA90FA90EA90AE249F24A9920EB42EBC53
:1023D000640C721C821C039CF001F50D0994000032
:1023E00000000000000000000000000000000000ED
:1023F00000000000000000000000000000000000DD
:10240000CA90BA90AA901A910A91FA90EA90AE24D2
:10241000BF24C0269126A992B992C9920EB42EBCAF
:10242000640C721C821C039CF001F50D09940000E1
:10243000000000000000000000000000000000009C
:102440009094C895C8950EB42EBC640C721C821C66
:10245000039CF001F50D099400000000000000004D
:10246000000000000000000000000000000000006C
:10247000000000000000000000000000000000005C
:10248000AA90A0949094A99200000EB42EBC640C63
:10249000721C821C039CF001F50D099400000000E1
:1024A000000000000000000000000000000000002C
:1024B000000000000000000000000000000000001C
:1024C000CA90BA90AA90A094B094C0949094A99203
:1024D000B992C9920EB42EBC640C721C821C039C6F
:1024E000F001F50D0994000000000000000000005C
:1024F00000000000000000000000000000000000DC
:1025000000E0921001E0902EC8950EB42EBC640C31
:10251000721C821C039CF001F50D09940000000060
:1025200000000000000000000000000000000000AB
:10253000000000000000000000000000000000009B
:102540001A90912800E0921001E0902E0EB42EBC5B
:10255000640C721C821C039CF001F50D09940000B0
:10256000000000000000000000000000000000006B
:10257000000000000000000000000000000000005B
:10258000AA90A928BA90AB289924A210942C0EB432
:102590002EBC640C721C821C039CF001F50D099486
:1025A000000000000000000000000000000000002B
:1025B000000000000000000000000000000000001B
:1025C000AA90A928BA90AB28BA90AB289924A21057
:1025D000942C0EB42EBC640C721C821C039CF00163
:1025E000F50D09940000000000000000000000004C
:1025F00000000000000000000000000000000000DB
:10260000EA9021E0E91408F020E0922E0EB42EBCEE
:10261000640C721C821C039CF001F50D09940000EF
:1026200000000000000000000000000000000000AA
:10263000000000000000000000000000000000009A
:10264000AA90FA90EA90EA14F90450F099240EB492
:102650002EBC640C721C821C039CF001F50D0994C5
:10266000942C0EB42EBC640C721C821C039CF001D2
:10267000F50D0994000000000000000000000000BB
:10268000BA90AA900A91FA90EA90EA14FB0409051C
:1026900050F099240EB42EBC640C721C821C039C56
:1026A000F001F50D0994942C0EB42EBC640C721C30
:1026B000821C039CF001F50D09940000000000004D
:1026C000CA90BA90AA901A910A91FA90EA90EA14E4
:1026D000FB040C05190550F099240EB42EBC640CB3
:1026E000721C821C039CF001F50D0994942C0EB40D
:1026F0002EBC640C721C821C039CF001F50D099425
:10270000EA9021E0E9140CF020E0922E0EB42EBCE9
:10271000640C721C821C039CF001F50D09940000EE
:1027200000000000000000000000000000000000A9
:102730000000000000000000000000000000000099
:10274000AA90FA90EA90EA14F90454F099240EB48D
:102750002EBC640C721C821C039CF001F50D0994C4
:10276000942C0EB42EBC640C721C821C039CF001D1
:10277000F50D0994000000000000000000000000BA
:10278000BA90AA900A91FA90EA90EA14FB0409051B
:1027900054F099240EB42EBC640C721C821C039C51
:1027A000F001F50D0994942C0EB42EBC640C721C2F
:1027B000821C039CF001F50D09940000000000004C
:1027C000CA90BA90AA901A910A91FA90EA90EA14E3
:1027D000FB040C05190554F099240EB42EBC640CAE
:1027E000721C821C039CF001F50D0994942C0EB40C
:1027F0002EBC640C721C821C039CF001F50D099424
:10280000592D4A913A912A919A918A917A916A9195
:1028100011240E945130942C811199240EB42EBCA5
:10282000640C721C821C039CF001F50D09940000DD
:102830000000000000000000000000000000000098
:10284000592D4A913A912A919A918A917A916A9155
:1028500011240E945130881F8827881F982E0EB49B
:102860002EBC640C721C821C039CF001F50D0994B3
:102870000000000000000000000000000000000058
:1028800001E0921000E0902EC8950EB42EBC640CAE
:10289000721C821C039CF001F50D099400000000DD
:1028A0000000000000000000000000000000000028
:1028B0000000000000000000000000000000000018
:1028C000592D4A913A912A919A918A917A916A91D5
:1028D00011240E94782F699379938993992E0EB4CD
:1028E0002EBC640C721C821C039CF001F50D099433
:1028F00000000000000000000000000000000000D8
:10290000592D4A913A912A919A918A917A916A9194
:1029100011240E94772F699379938993992E0EB48D
:102920002EBC640C721C821C039CF001F50D0994F2
:102930000000000000000000000000000000000097
:10294000592D4A913A912A919A918A917A916A9154
:1029500011240E94AD32699379938993992E0EB414
:102960002EBC640C721C821C039CF001F50D0994B2
:102970000000000000000000000000000000000057
:10298000592D4A913A912A919A918A917A916A9114
:1029900011240E945830699379938993992E0EB42B
:1029A0002EBC640C721C821C039CF001F50D099472
:1029B0000000000000000000000000000000000017
:1029C000992D8A917A916A9111240E94C03069935D
:1029D00079938993992E0EB42EBC640C721C821CC0
:1029E000039CF001F50D09940000000000000000B8
:1029F00000000000000000000000000000000000D7
:102A0000992D8A917A916A9111240E94C530699317
:102A100079938993992E0EB42EBC640C721C821C7F
:102A2000039CF001F50D0994000000000000000077
:102A30000000000000000000000000000000000096
:102A4000992D8A917A916A9111240E94F3306993A9
:102A500079938993992E0EB42EBC640C721C821C3F
:102A6000039CF001F50D0994000000000000000037
:102A70000000000000000000000000000000000056
:102A8000992D8A917A916A9111240E94F13069936B
:102A900079938993992E0EB42EBC640C721C821CFF
:102AA000039CF001F50D09940000000000000000F7
:102AB00000C0C8950895000000000000000000005C
:102AC000192C9A9003E0600E721C821C0EB52EBC6D
:102AD000EBDF1EB52EBCEADF121421F42EB538014F
:102AE000822E30C22EBCE0DF0EB42EBC640C721CF1
:102AF000821C039CF001F50D099400000000000009
:102B0000640C721C821C921451F4092D9A900EB41C
:102B1000102C110C1108600C711C811C13C29A90AE
:102B20002EBCC4DFE1CF0000000000000000000068
:102B30000000000000000000000000000000000095
:102B4000192C9A9003E0600E721C821C0EB52EBCEC
:102B5000ABDF1EB52EBCAADF121421F02EB5380152
:102B6000822EF0C12EBCA0DF0EB42EBC640C721CF1
:102B7000821C039CF001F50D099400000000000088
:102B8000640C721C821C921451F0092D9A900EB4A0
:102B9000102C110C1108600C711C811CD3C19A906F
:102BA0002EBC84DFA1CF0000000000000000000068
:102BB0000000000000000000000000000000000015
:102BC00003E0600E721C821CC8950EB52EBC6CDF33
:102BD0001EB52EBC6BDF921421F42EB53801822E67
:102BE000B1C12EBC9A9062DF0EB42EBC640C721C74
:102BF000821C039CF001F50D099400000000000008
:102C0000640C721C821C00C0921449F400C00EB403
:102C1000102C110C1108600C711C811C93C12EBC6E
:102C20009A9046DFE1CF00000000000000000000A5
:102C30000000000000000000000000000000000094
:102C400003E0600E721C821CC8950EB52EBC2CDFF2
:102C50001EB52EBC2BDF921421F02EB53801822E2A
:102C600071C12EBC9A9022DF0EB42EBC640C721C73
:102C7000821C039CF001F50D099400000000000087
:102C8000640C721C821C00C0921449F000C00EB487
:102C9000102C110C1108600C711C811C53C12EBC2E
:102CA0009A9006DFA1CF00000000000000000000A5
:102CB0000000000000000000000000000000000014
:102CC000C895C89500000EB52EBCEEDE1EB52EBC14
:102CD000EBDE2EB53801822E35C100000000000069
:102CE00000000000000000000000000000000000E4
:102CF00000000000000000000000000000000000D4
:102D0000C895C89500000EB40394102C110C11083E
:102D1000600C711C811C16C1000000000000000046
:102D200000000000000000000000000000000000A3
:102D30000000000000000000000000000000000093
:102D4000A0913406AD3298F4B6E003E0060D6EB4FF
:102D50002EBC721C821C0D937D928D920000AADE07
:102D60007EB42EBCA1DE8EB4A0933406EBC086E008
:102D70001CC1000000000000000000000000000076
:102D8000A0913406AD3288F4B6E0640C721C821C4B
:102D90006D927D928D92A09334060EB4102C110C7E
:102DA0001108600C711C811CCDC086E0FEC00000C3
:102DB0000000000000000000000000000000000013
:102DC000A0913406B6E08E907E906E90A09334066B
:102DD000B9C000000000000000000000000000007A
:102DE00000000000000000000000000000000000E3
:102DF00000000000000000000000000000000000D3
:102E0000EAEAF0E3640C721C821C00C00EB42EBC13
:102E1000E00DF21D0590F491E02D2EC0CA90BA90FD
:102E2000AA901A910A91FA90EA90EA9C90010A9D60
:102E3000A001FA9C300D411D521DEB9C300D411D2F
:102E4000521DFB9C400D511DEC9C400D511D1A9DC7
:102E5000500D0B9D500DFC9C500DE99C500D29937D
:102E600039934993952E0EB42EBC640C721C821CAF
:102E7000039CF001F50D09946092310670923206C0
:102E8000809233069992C093300611240995C0911F
:102E900030069A900DB407FCE6CF0DB407FCE3CFE3
:102EA000E2CFA49ED00CE11CF21CA59EE00CF11C0C
:102EB000B49EE00CF11CB59EF00CC49EF00CD992AF
:102EC000E9929F2C0EB42EBC640C721C821C039CD5
:102ED000F001F50D099400C0C8950895C89500C08B
:102EE0004EB52EBC12E0610E721C821CF4DF5EB582
:102EF0002EBCC92CBA90AA902A911A910A91FA90E4
:102F0000EA90DA90A016B106C206D0F4A49ED00CC6
:102F1000E11CF21CA59EE00CF11CB49EE00CF11C1F
:102F2000B59EF00CC49EF00CD992E9929F2C0EB481
:102F30002EBC640C721C821C039CF001F50D0994DC
:102F400082E033C0729A009153060031D8F023E03A
:102F500072982EBD00915E0610915F06070D181D38
:102F600018D01EBD13D00EBD11D06EBC0FD02EBC1C
:102F70000ED00EB42EBC640C721C821C039CF0019B
:102F8000F50D099411240E943E25E1CF000000C0F8
:102F9000C895C895000008950EB42EBC640C721C30
:102FA000821C039CF001F50D099460923106709229
:102FB0003206809233069992C093300611240E9403
:102FC00013270C9400000000000000000000000027
:102FD00000000000000000000000000000000000F1
:102FE00000000000000000000000000000000000E1
:102FF00000000000000000000000000000000000D1
:10300000537072697465206672616D65206F7574A6
:1030100073696465206F66207365740043616C6C2E
:1030200020737461636B206F766572666C6F7700D6
:103030004461746120737461636B206F766572669E
:103040006C6F7700417373657274696F6E2066618F
:10305000696C6564004469766973696F6E20627992
:10306000207A65726F00417272617920696E6465C1
:1030700078206F7574206F6620626F756E647300C0
:1030800047616D652064617461206E6F7420666FA6
:10309000756E6400803066305530443030301C30FE
:1030A000003000004552524F520048223C2230224C
:1030B0000224F2238221B523A523B520FC22EB2C88
:1030C000E92C2320951F8D1EF5296B29A7205B2C49
:1030D000A620A420CA1EED2CA320522C412C312C5A
:1030E000222C132C692A51297F28DB2B802BF92ACB
:1030F0002229D528D51EE524EC2AA324E92AB324C5
:10310000BA2AEC1B942AAF2695267B2657263D2605
:103110002326B31BFF25DB25C125792AB725742576
:103120001700030C00000000994C000003002E0261
:10313000D1010000C411100184101000980C2E3A27
:10314000F243B94AB12A877CB726AE22211FAA2AA8
:10315000A23A0A00500184284A298A10A10A0000D4
:10316000BE78BF2A2E463F3ABF46BF042E669F7CDC
:10317000F147F1019F6C1F425F7C3F783F7EBF08A3
:103180002E7ABF68B226E1071F7E071F1F7D9B6C4A
:10319000833EB94E3F028360F10322081042410092
:1031A0004C7A5F324C4A4C7E4C53BE00D6035F7063
:1031B0001D00B0019F681F009E785E704C325E114A
:1031C00044799E0856034F020E7A061B1E799249D7
:1031D000823ADA02C47D0000DF11D5F08D14A1C857
:1031E00081CFD9F1AF20000011241FBECFEFDAE06C
:1031F000DEBFCDBF16E0A9E3B6E0E6EDF9E602C01A
:1032000005900D92AE33B107D9F72AE0AEE3B6E0F0
:1032100001C01D92A536B207E1F70E94482D0C941B
:10322000E9340C940000E5E0F0E010D0319728F08C
:1032300068517C4F8F4F9F4FF9CFAB01FC0106D0F7
:10324000641775078E079F07D0F30895AAE5B6E0C7
:103250002FB7F8947D918D919C9166B52FBFA89B57
:1032600005C06F3F18F47F5F8F4F9F4F22E0660FBE
:10327000771F881F991F2A95D1F708959C01E0E0D8
:10328000F2E0A0E0B0E0BD0180E045D039D0BD0162
:103290001296A20FB31F82179307A9F38F5F9F4F58
:1032A00021F4AF5FBF40DB0160F01AD140E05091E4
:1032B000630A6091640A80E226D0729AEFD0A0E09F
:1032C000B0E07CEF0DD14A2F5091630A5B0F609103
:1032D000640A611D82E017D0832F71FD822F70FD7B
:1032E000819124D0759518F42150304019F0119631
:1032F000AA2391F7729AD2D02115310519F70895B2
:1033000039D0982F3DC0729811D0862F0FD0852FBD
:103310000DD0842F0BC0462F5091630A570F609138
:10332000640A681F83E0EFDF1EBC08958EBD0000B5
:103330008EB50DB407FEFCCF0895E0E0F2E0DC01AD
:1033400060E070E080E0E7DF9D01AF0160E00FD05A
:103350008217930749F4D901FA0160E00BD08193F9
:103360001197E1F761E0F3CF0BD0862F089502D0DB
:10337000982F00C00DB407FEFDCF8EB51EBC08957A
:103380000DB407FEFDCF8EB5729A08950F931F936B
:10339000CF93DF93809164008E7F8093640080914F
:1033A0007A00806480937A0080917A0086FDFCCF59
:1033B000C0917800D091790049DFAB01BC018091C8
:1033C0006400816080936400CE01B0E0A0E0DC0185
:1033D000992788278C019D01040F151F261F371F71
:1033E000C901B801DF91CF911F910F9108958FB15D
:1033F0008095807F669B88601C9B8460089581E037
:1034000083BF889513BE08951092620A3E983F9834
:1034100008953E9A3F9A81E08093620A08959091C0
:10342000610A982329F49091600A982381E009F4B5
:1034300080E008958091600A8093610AD8DF8093CC
:10344000600A089580389105B8F460347105A0F4DD
:1034500090E121E061FD24E060FD220F62FD2295F4
:10346000687F969FD0011124A80FA05AB94F0C90E5
:10347000022A40FF02260C9208955E98E0E6F6E0EC
:10348000A0E0B8E000800EBC8111012C1197A0FDD6
:10349000FDCF0192B9F70DB45E9A0895729885E058
:1034A00045DF80E043DF80FDFCCF729A0895FC0188
:1034B0006150704019F05EDF8193FACF61DF808345
:1034C0000895462F50915E06570F60915F06681F62
:1034D00083E019DF1EBC0895729828DF729A089560
:1034E00086E0FACF4F925F926F927F928F92AF9267
:1034F000BF92CF92DF92EF92FF920F931F93CF93E1
:10350000DF93322F3701802EC114D104A1F03695FC
:1035100036953695A0FC330F349FF001ED9D700C6D
:10352000811CFC9D700C811CFD9D800CEC9D600C31
:10353000711C1124811C442EE22FA0E6B6E0E82C79
:103540006301B82E0027542CE695E695E69521E018
:1035500061FD24E060FD220F62FD2295CFEFDFEFD9
:10356000A2FC05C01FEF129FE001C095D095759594
:1035700067957595679575956795362F3F3F4CF420
:103580003095E31BA0FC330F349DC00CD11CE01E12
:103590003FEF97FF0BC0580EA0FE02C0880F991F87
:1035A000C81AD90AE00A97FDE394BB2410E8310356
:1035B0000B0CA00DB11D1B19511608F0512E17E070
:1035C000131B1E1714F4E12F039510E81519442D51
:1035D0005527A1FC02C04519550BA0FE02C0440F9F
:1035E000551F1124F32E8E2E33E000905E06D00C72
:1035F00000905F06E01C17C072983EBDC40ED51E39
:10360000E11CBB24451409F0B3940BD0EEBC06D0EA
:10361000DEBC04D0CEBC02D01EBC02C0C8950000E7
:10362000C895C8950895C41AD50AE108E5DFF114D4
:103630001CF0882071F564C0A058BF4F752CA0FC09
:103640000CC08EB51EBC829F6C906D2261286D925D
:10365000C89500C07A94A9F711C08EB51EBC829F90
:10366000C001DEDFCEB51EBCC29FE0016C90D095DC
:103670006D22692A6D92C8957A9479F71124A5195B
:10368000B1098A9409F45CC0BB2019F00DB4729A98
:10369000B3DFFD01E058FF4F752CA0FC0EC08EB5C6
:1036A0001EBC829F6C906C2260286D9260806D229F
:1036B000612861927A9499F716C08EB51EBC829FDC
:1036C000C0016C90D081AEDF00C0CEB51EBCC29FE1
:1036D00000946020682A6D921094D121D92BD19347
:1036E00000007A9451F71124A10FB11D8A9461F65C
:1036F000002331F1BB2021F00DB4729A7DDFC89513
:10370000A0FC0CC08EB51EBC829F6C906C22602801
:103710006D92C89500C05A94A9F712C08EB51EBC10
:10372000829FC0017DDF8EB41EBC829E802C6C9077
:1037300080946820682A6D92C8955A9479F7C89544
:103740001124729A0DB4DF91CF911F910F91FF90C8
:10375000EF90DF90CF90BF90AF908F907F906F9061
:103760005F904F900895EF92FF920F931F93CF9326
:10377000DF93E0913006F1E0829192912291EF0186
:103780003A91E32EF22E092F182F20E030E0A90104
:10379000B701C8010E94A23220E030E040E05FE3C0
:1037A000B70187FD15C0C8010E94782F0E94C03064
:1037B0000E94F330FE016193719381939193E093A2
:1037C0003006DF91CF911F910F91FF90EF900895F8
:1037D000C8010E94772FEACFCF93D2DD6AE070E074
:1037E00080E06FDEC7DDC82FCBDD2C2F382FC9015D
:1037F00001978115944010F4C90140DD60913106B4
:103800007091320680913306CF915BCE8093F100A8
:103810000895E0913E06F0913F0662817381611543
:10382000710521F06150710962837383A081B181B8
:103830008D93A083B18308957298FC0183E08EBDBF
:1038400081919191A19140915E0650915F06490F3F
:103850005A1FC89500C05EBD0FD04EBD0DD08EBDA5
:103860000196A11DA293929382930AD01EBC05D00B
:103870008EB50DB4729A08950000C895C89500C021
:10388000000008952F923F924F925F926F927F9225
:103890008F929F92AF92BF92CF92DF92EF92FF9260
:1038A0000F931F93CF93DF93CDB7DEB7C551CDBF35
:1038B000998B888BE0913006F1E082919291229170
:1038C000622E792E882E8291929122912B879C874D
:1038D0008D87E0933006CE0101969F878E8790E317
:1038E000592E61147104810409F402C2CE010B96B1
:1038F000A3DF082F1301482C91E0291A3108410851
:10390000853229F0802FE889F989099516C0CE0102
:103910000B9692DF182F1301482CF2E02F1A310872
:103920004108843609F446C058F4833509F4B2C01E
:10393000833609F48AC0853229F3842C3101D1CF32
:10394000833709F489C008F030C08636B1F7E091BA
:103950003006F1E08291929122913291C32ED22EC3
:10396000E92EF82ECA8ADB8AEC8AFD8AE0933006BB
:10397000CE010B9661DF182F1301482CF3E02F1AAC
:1039800031084108A7019601C701B6010E94C7335B
:10399000882309F4CEC08EE6E889F989099581E685
:1039A000E889F98909958EE6AECF853719F0883711
:1039B00009F0C3CFE0913006F1E08291929122911B
:1039C0003291A32EB22EC92ED82EE0933006CE010E
:1039D0000B9632DFF82E1301482C83E0281A3108A9
:1039E0004108183709F47EC0143609F090C0D7FE9C
:1039F0008EC08DE2E889F9890995D094C094B0947D
:103A0000A094A11CB11CC11CD11CFFECFF0E8AE0CC
:103A10008E010F5F1F4F682E712C912C812CC601D7
:103A2000B501A40193010E94462F59016A0187E55F
:103A30006A3008F480E3860FD8018D938D01FA94E3
:103A4000232B242B252B59F75BC0E0913006F1E0A6
:103A50000291E093300656CFE0913006F1E082917A
:103A60009291E92EF82E82919291E0933006092FDF
:103A7000182FE114F10409F460CFF80181918F014E
:103A8000882309F45ACFE889F9890995F1E0EF1AFA
:103A9000F108EFCFE0913006F1E08291929122910E
:103AA000622E792E882E829192912291C22ED92E49
:103AB000E82EE09330066C0C7D1C8E1CC614D704D7
:103AC000E80409F43ACF8E2DB601FBDC59DC8823DB
:103AD00009F433CFE889F9890995FFEFCF1ADF0A96
:103AE000EF0AECCF80E1A114B104C104D10489F440
:103AF0008E010F5F1F4FD8015D928D01BFECFB0E51
:103B00001F1454F4F80151928F01FA94F9CF8AE00E
:103B1000EACFE0EDFE0E7CCF8E859F858017910762
:103B200009F40BCFF80182918F01E889F989099591
:103B3000F3CFE894F7F82FEF3FEF4FE75FE7C701C8
:103B4000B6010E94C733811114C02FEF3FEF4FE73A
:103B50005FE7C701B6010E945130181654F489E698
:103B6000E889F98909958EE6E889F989099586E653
:103B7000CACE2FEF3FEF4FE75FE46A897B898C89DC
:103B80009D890E94A232181664F02FEF3FEF4FE795
:103B90005FEC6A897B898C899D890E94513087FFFF
:103BA00006C08FE6E889F989099586E7DDCF20E030
:103BB00030E0A9016A897B898C899D890E945130F6
:103BC00087FF0DC08DE2E889F98909958A899B896B
:103BD000AC89BD89B0588A8B9B8BAC8BBD8B80ED3B
:103BE000782E710E10E060E070E080E09FE3171522
:103BF00040F42DEC3CEC4CEC5DE30E94AD321F5FD9
:103C0000F6CF2A893B894C895D890E94782F6B0108
:103C10007C010E94C5304B015C010E94F1309B0188
:103C2000AC01C701B6010E94772F6B017C018114A2
:103C30009104A104B10491F48E010F5F1F4FD801CC
:103C40005D928D01EE85FF85E017F10731F1F801F6
:103C500082918F01E889F9890995F4CF612C8E0151
:103C60000F5F1F4FC501B4012AE030E040E050E093
:103C70000E94462F49015A01605DF80161938F014E
:103C80006A9481149104A104B10461F71614D4F666
:103C9000D8015D928D016A94F9CF772009F44DCE59
:103CA0008EE2E889F98909957A9477FC46CE20E07E
:103CB00030E040E251E4C701B6010E94AD324B0151
:103CC0005C010E94C530162F80E3810FE889F989D5
:103CD0000995612F70E090E080E00E94F3309B0135
:103CE000AC01C501B4010E94772F6B017C01DCCFD0
:103CF000CB5ECDBFDF91CF911F910F91FF90EF90E1
:103D0000DF90CF90BF90AF909F908F907F906F90FB
:103D10005F904F903F902F900895CF93DF93CDB752
:103D2000DEB7CC50CDBFCE01019690933F06809375
:103D30003E06E0913006F1E0829192919C838D8362
:103D40009E838F83829192919887898782919291A5
:103D5000229129839A838B83E093300611DB69815A
:103D60007A818B817E5F8F4FACDB04DB8C8702DB3B
:103D70008A8706DB8B8782E79FE184DD60913106CD
:103D800070913206809133069CDBC45FCDBFDF911A
:103D9000CF910895F5DA86E09CE174DD60913106FB
:103DA00070913206809133068CCBEF92FF920F9385
:103DB0001F93CF93DF93CDB7DEB7C450CDBFE09153
:103DC0003006F1E012910291F290E290E093300619
:103DD000D7DAE982FA820B831C83CE010196909395
:103DE0003F0680933E0689E09CE14CDD8B819C81FF
:103DF000892B19F0E981FA81108260913106709166
:103E00003206809133065DDBCC5FCDBFDF91CF9171
:103E10001F910F91FF90EF9008954F925F926F92D4
:103E20007F928F929F92AF92BF92CF92DF92EF924A
:103E3000FF920F931F93CF93DF932B01682EEA011C
:103E40004901B02E7E2CD12CC601880F991F462D1A
:103E50009B01280F391F411D97FD4A95842FB901F9
:103E600030DB88DA082F8CDA182F88819981800F4F
:103E7000911D07FD9A9580389105ECF430E4831686
:103E80009104CCF49C012B0D311D121613069CF4E9
:103E900094012E0D311D121613066CF4062D7201BD
:103EA0004AEFE41A4DEFF40A0F4F26E0A22E272D19
:103EB0004B2DB40117DB88819981810F911D998366
:103EC0008883DF91CF911F910F91FF90EF90DF904A
:103ED000CF90BF90AF909F908F907F906F905F90AA
:103EE0004F900895CF92EF920F93E0913E06F0919C
:103EF0003F06278130858A3069F4838194819683D7
:103F000085838385280F311D308727830F91EF909C
:103F1000CF900895C82EAF014B5F5F4F60817181D4
:103F20008281E284018579DFF1CF2F923F924F9217
:103F30006F927F928F92AF92BF92CF92DF92EF9269
:103F4000FF920F931F93CF93DF93CDB7DEB7C95086
:103F5000CDBFE0913006F1E08291929199838A83FE
:103F600082919291A92EB82E829192912291222E25
:103F7000392E482E829192912291622E792E882E8E
:103F8000829192912291C22ED92EE82EE093300692
:103F9000F7D9842DB1017E5F8F4F93DAEBD9082FCB
:103FA000E9D9F82EEDD9182F89819A819C838B83CA
:103FB0006C0C7D1C8E1C802F90E099878887C6141E
:103FC000D704E80431F1AE2DC6010196A11D8D8301
:103FD0009E83AF838E2DB60174DAD2D98823C9F0BF
:103FE0008A3061F48B819C819A8389838885998545
:103FF000A80EB91ECD80DE80EF80E1CFC82EE12E65
:104000000F2D9501AE014F5F5F4F842DB10105DF8C
:10401000F1CF60913106709132068091330651DA0A
:10402000C75FCDBFDF91CF911F910F91FF90EF90B0
:10403000DF90CF90BF90AF908F907F906F904F9018
:104040003F902F9008952F923F924F925F926F92E0
:104050007F928F929F92AF92BF92CF92EF92FF92F8
:104060000F931F93CF93DF93CDB7DEB7C650CDBF6D
:10407000E0913006F1E08291929199838A83829156
:104080009291892E982E829192912291222E392EF0
:10409000482E82919291692E782E52900291E0934F
:1040A00030066ED9842DB1017E5F8F4F0ADA62D956
:1040B000C82E60D9F82E64D9182F89819A819C83E3
:1040C0008B83A02EB52C8C2D90E09E838D83F501E3
:1040D000C1905F01CC2091F06114710479F091E0FE
:1040E000691A71088AE0C81224C08B819C819A8366
:1040F00089838D819E81880E991EE9CF609131065A
:104100007091320680913306DCD9CA5FCDBFDF9152
:10411000CF911F910F91FF90EF90CF90BF90AF90F4
:104120009F908F907F906F905F904F903F902F90D7
:104130000895E12E0F2D9401AE014F5F5F4F842D46
:10414000B1016BDEC4CF76C99895089558C9E09146
:104150003006F1E06291E093300670E088EE93E083
:104160000E94C2346093360608952F923F925F9268
:104170006F927F928F929F92AF92BF92CF92DF9277
:10418000EF92FF920F931F93CF93DF93CDB7DEB7DC
:10419000C650CDBFE0913006F1E082919291E92EB8
:1041A000F82E82919291092F182F22915290E0932C
:1041B0003006822F90E09E838D8381E090E05C0149
:1041C0002D813E81A21AB30AC90191958195910969
:1041D0009C01220F331F3A8329836D817E81600FFA
:1041E000711F452DC7012ED9B8018D819E81681B95
:1041F000790B452DC70126D9452DB8018D819E81AA
:104200008E0D9F1D1FD9452DB801C7012D813E81FF
:10421000821B930B17D9D12CC12C81E090E09C8399
:104220008B832D813E81C216D3060CF057C0B7FC9C
:104230000BC0215031093E832D8389819A810296DA
:104240009A838983A80EB91E9FEFC91AD90A2B81B8
:104250003C812E5F3F4F3C832B83A20EB31E360161
:104260006E0C7F1C452D8D809E80800E911EB401AA
:10427000C301E8D817012C183D08452DB401C10130
:10428000E1D8452D48018D819E81881A990AB40193
:10429000C301D8D8452DB401C101D4D848018C0C34
:1042A0009D1C452DB4016D807E806E0C7F1CC3016A
:1042B000C9D8452DB40117012D813E81221A330A38
:1042C000C101C0D848018C189D08452DB401C30117
:1042D000B9D8452DB401C101B5D8A3CFCA5FCDBFB0
:1042E000DF91CF911F910F91FF90EF90DF90CF90D2
:1042F000BF90AF909F908F907F906F905F903F9016
:104300002F9008952F923F924F925F926F927F92DB
:104310008F929F92AF92BF92CF92DF92EF92FF92D5
:104320000F931F93CF93DF93CDB7DEB7C350CDBFAD
:10433000E0913006F1E0829192919A838B83829191
:104340009291092F182F82919291E92EF82E2291A5
:104350003291832F922F22912983E09330066C01B2
:10436000C01AD10AD7FE03C0D194C194D108470125
:104370002A813B81821A930A97FE03C0919481940B
:1043800091088C149D045CF43E2D2F2D7C01832F0D
:10439000922F3A812B811B830A83032F122F2A81AC
:1043A0003B81E216F3065CF4302F212F8C01832F22
:1043B000922F3A812B81FB82EA82E32EF22E1701A3
:1043C0002A813B81221A330A2C01401A510A57FED6
:1043D00003C0519441945108310137FE03C03FEFAF
:1043E000631A730A759467940817190714F18FEF0D
:1043F000A82E880FBB088A819B81E816F906DCF09D
:104400004981BC01C8018C149D041CF0B8018A814B
:104410009B8118D86418750877FE04C00A0D1B1D0F
:10442000620C731C2A813B812F5F3F4F3B832A83A1
:10443000E2CF81E0DDCFCD5FCDBFDF91CF911F9186
:104440000F91FF90EF90DF90CF90BF90AF909F9033
:104450008F907F906F905F904F903F902F90089536
:10446000E0913006F1E092918291729162914291D5
:10447000E09330060C94221A0E94C01980E00E943A
:104480003D1A60913106709132068091330619C849
:104490000E94C01981E00E943D1A6091310670911E
:1044A0003206809133060DC80F93CF93DF93803887
:1044B00091050CF09DC0A42FB0E0FD01E80FF91F9D
:1044C0001E161F060CF094C0E22FF0E0EB01CE0F99
:1044D000DF1F1C161D060CF08BC0442309F488C096
:1044E000222309F485C0562F60340CF081C0C82FF8
:1044F000A80FB11D87FDBA951A161B060CF078C0DF
:10450000E60FF11D67FDFA951E161F060CF070C030
:1045100000FD0FEFA82F362F57FF02C0260F30E007
:10452000C7FF02C0480FA0E090E89A1B491708F4A3
:10453000942F80E4831B281708F4822F830F41E017
:1045400031FD44E030FD440F32FD4295419571E06C
:1045500081FD74E080FD770F82FD72957195642F67
:104560006095572F50958150232F26952695269597
:10457000869586958695E0E6F6E030E8239FE00D87
:10458000F11D1124EA0FF11D821B611101C08F5F23
:10459000511101C08F5F30E8391B242F2023452F94
:1045A0004023882319F4762B42231CC0662349F04C
:1045B000A92F00800622022A0192AA95D1F7E30FC3
:1045C000F11D8A9569F0A92FA0FF02C0A39501C033
:1045D00001930193A250E1F7E30FF11D8A9599F73A
:1045E000552331F000800722042A01929A95D1F7D1
:1045F000DF91CF910F9108952F923F924F925F924A
:104600006F927F928F929F92AF92BF92CF92DF92E2
:10461000EF92FF920F931F93CF93DF93CDB7DEB747
:10462000C650CDBFE0913006F1E082919291E92E23
:10463000F82E82919291692E782E22911291E09318
:104640003006822F90E09E838D839C01220F331FC2
:104650002F5F3F4FB301681B790B012F41E0C7016A
:1046600023DF81E090E06C01ED81FE81CE1ADF0A4C
:104670001F01319421943108220C331CB12CA12C40
:1046800088248394912C2D813E81A216B3060CF0D0
:1046900047C0D7FC09C0215031093E832D8332E049
:1046A000230E311CC20CD31C8FEFA81AB80A92E05B
:1046B000890E911CC80CD91C8D819E81880F991F71
:1046C000FC013196FC83EB83012F2B8141E0230118
:1046D0008D819E81481A590AB201C5018E0D9F1D18
:1046E000E3DEF301EA19FB09FA83E983282D41E0AF
:1046F000BF018D819E818E0D9F1DD6DE2B8141E0F5
:10470000B201C7018A199B09CFDE282D41E06981DA
:104710007A81C701ED81FE818E1B9F0BC5DEB3CF71
:10472000CA5FCDBFDF91CF911F910F91FF90EF90A6
:10473000DF90CF90BF90AF909F908F907F906F90C1
:104740005F904F903F902F9008950F93E091300627
:10475000F1E0929182917291629142912291029143
:10476000E0933006A1DE0F910895CF92DF92EF9291
:10477000FF920F931F93CF93DF93E0913006F1E008
:1047800082919291E92EF82E82919291C92FD82F81
:104790001291C290D290E09330060D2D21E0412F6E
:1047A000BE01C70181DE2C2D41E0BE01C7017CDEC8
:1047B000BE016C0D711D6150710921E0412FC701CF
:1047C00073DEC701810F911D2C2D41E0BE010197C1
:1047D0006BDEDF91CF911F910F91FF90EF90DF90F3
:1047E000CF9008950F93E0913006F1E0929182917D
:1047F0007291629122910291E093300641E054DE81
:104800000F9108950F93E0913006F1E0929182911B
:104810007291629142910291E093300621E044DE70
:104820000F9108952F923F924F925F926F927F92D5
:104830008F929F92AF92BF92CF92DF92EF92FF92B0
:104840000F931F93CF93DF93CDB7DEB7C450CDBF87
:10485000262E2C838A01582E8C81F801882359F04A
:104860008491882309F451C0803239F4F3E05F0E5B
:104870000F5F1F4FF1CF8081F4CFE82FEE0FFF0BBA
:10488000E252FF4C25913491822F8F718983C901A7
:1048900045E0969587954A95E1F78F718A83932F26
:1048A000969596959F719B8323E0422E911106C0A9
:1048B00044244394882311F092E0492ECE010196BE
:1048C0003C01F12CE12CA52CB12CF30181913F018D
:1048D000322C45018E0C9F1C882379F0C82ED12CD8
:1048E00080FF06C0632D70E041E0C4010E94221ADF
:1048F0003394D594C7948C2DEFCFFFEFEF1AFF0AB6
:10490000E41418F35394540CB3CF852DCC5FCDBF72
:10491000DF91CF911F910F91FF90EF90DF90CF909B
:10492000BF90AF909F908F907F906F905F904F90CF
:104930003F902F900895109271001092720080E1C4
:10494000809353060895F7CF89E08093C1001092B9
:10495000BF008DE78093CF0083E0809390008AE1D1
:1049600080939100E8CF8091620A882319F00E9419
:10497000041AEACF0E94091AFCCF729893E09EBDF8
:1049800000905E06700D00905F06801D1BD08EBDEE
:1049900017D07EBD15D06EBD13D01EBCDA012150DC
:1049A000304041F030960FD00EB41EBC0D92215015
:1049B0003040C9F707D00EB40C92729A0DB4089526
:1049C000C895C8950000C8950895CF92DF92EF92E0
:1049D000CF93E0913006F1E0829192912291C22E24
:1049E000D92EE82EE09330068091620A882309F4DC
:1049F00040C00E94C019CFB7F89410927100109275
:104A0000720080E18093530620E130E043E456E0F9
:104A10008E2DB601B2DF80E1C80ED11CE11CC09220
:104A20004006D0924106E092420680914306909162
:104A30004406909399008093980020E828B98F3F0E
:104A4000910541F038F082E08093710080E480931A
:104A5000720002C08111FACFCFBF60913106709110
:104A6000320680913306CF91EF90DF90CF900C9477
:104A7000611ACF91EF90DF90CF900895CF92DF929F
:104A8000EF921F93CF93DF9380917200882329F1D7
:104A900080915306803108F51FB7F8944091530672
:104AA000C0E1DC2FD41BC0904006D0904106E090BE
:104AB00042062D2F30E050E04D5B594F8E2DB60150
:104AC0005CDFCD0ED11CE11CC0924006D0924106A5
:104AD000E0924206C09353061FBFDF91CF911F9112
:104AE000EF90DF90CF9008958F929F92AF92BF92F8
:104AF000CF92DF92EF92FF92CF93DF93E091300657
:104B0000F1E08291929122913291C32ED22EE92E20
:104B1000F82E829192912291EF013A91832E922E5A
:104B2000A92EB82EC814D904EA04FB0470F40E941C
:104B3000BD2EA50194012C193D094E095F090E9463
:104B4000462FC60ED71EE81EF91EFE01C192D19255
:104B5000E192F192E0933006DF91CF91FF90EF90D8
:104B6000DF90CF90BF90AF909F908F9008950E945C
:104B7000C619611571058105910511F00C94092F75
:104B80000895CF93DF93C0913006D1E08A919A9136
:104B90006A917A91AB019C01652F742F832F922F1C
:104BA0000E9466336993799389939993C0933006F1
:104BB000DF91CF910895CF93DF93C0913006D1E07C
:104BC0008A919A912A913A91D901FC012A913A91BC
:104BD0004A915A91BA01C901272F362F492F582FD0
:104BE0006B2F7A2F8F2F9E2F0E941033699379930A
:104BF00089939993C0933006DF91CF910895CF9315
:104C0000DF93C0913006D1E08A919A912A913A912E
:104C1000D901FC012A913A914A915A91BA01C901EC
:104C2000272F362F492F582F6B2F7A2F8F2F9E2FFC
:104C30000E9448316993799389939993C093300680
:104C4000DF91CF910895CF93DF93C0913006D1E0EB
:104C50008A919A916A917A91AB019C01652F742F88
:104C6000832F922F0E943E30699379938993999371
:104C7000C0933006DF91CF910895CF93DF93C09119
:104C80003006D1E08A919A916A917A91AB019C01A8
:104C9000652F742F832F922F0E942E316993799361
:104CA00089939993C0933006DF91CF910895CF9364
:104CB000DF93C0913006D1E08A919A912A913A917E
:104CC000D901FC012A913A914A915A91BA01C9013C
:104CD000272F362F492F582F6B2F7A2F8F2F9E2F4C
:104CE0000E94EB2F6993799389939993C09330062F
:104CF000DF91CF910895CF93DF93C0913006D1E03B
:104D00008A919A916A917A91AB019C01652F742FD7
:104D1000832F922F0E94A733699379938993999354
:104D2000C0933006DF91CF910895CF93DF93C09168
:104D30003006D1E08A919A916A917A91AB019C01F7
:104D4000652F742F832F922F0E945530699379938A
:104D500089939993C0933006DF91CF910895CF93B3
:104D6000DF93C0913006D1E08A919A916A917A914D
:104D7000AB019C01652F742F832F922F0E945C330F
:104D80006993799389939993C0933006DF91CF917A
:104D900008950F920FB68F939F93EF93FF93809197
:104DA00055068D5F8D3708F08D5780935506E6E5E3
:104DB000F6E080818E4F808391819F4F9183828125
:104DC0008F4F828383818F4F8383EAE5F6E0808172
:104DD0008F5F808381818F4F818382818F4F828318
:104DE00083818F4F83838FB18F6066991C9B882747
:104DF0008F3681F480915406981B963068F0E0E07D
:104E0000F8E087E78083818388E180936000F093F6
:104E10006000FFCF90935406FF91EF919F918F9187
:104E20000FBE0F901895CF93DF93CDB7DEB7C95261
:104E3000CDBF082F8093350690E0E0E6F6E09111B3
:104E40009FEF8FEF91939193919391938150D0F72E
:104E5000729A71DD10E0023040F0109134068BEA56
:104E6000189F112D112416951F5F202F2150330BF1
:104E7000C901880F991FFC01EC56FF4CFCA3EBA362
:104E8000FF24F39400E0212F30E039A728A7CE01BA
:104E900001961C010E941A1A002339F080E80E9432
:104EA0000F1A882311F00150F82E89E0800F811726
:104EB00028F480E10E940F1A811177C0FF2009F4C5
:104EC000EEC021E044EA50E361E086E3ABDCE0E6DB
:104ED000F6E080E09191DF0111972FE792279C93F4
:104EE0008F5F8038B9F7EBA1FCA14591549121E087
:104EF00068E080E097DC28A539A5201B3109C901AD
:104F0000880F991F820F931FFC01E050FF4FFAA3F7
:104F1000E9A3502E51E1F52E511608F0BDC0609066
:104F200031067090320680903306552039F0E9A1A1
:104F3000FAA1E350FB4F6080718082806CE070E0EA
:104F400080E00E94611A0E94BA19482E0E94BA1984
:104F50008DA30E94BA198EA30E94BA198FA30E9432
:104F6000BA19E82E0E94BA19D82E0E94C01990E0F2
:104F7000A0E0772766277D296E290E94611AC12C3F
:104F8000D12CE12CB12CA12C912CC614D704E8040F
:104F9000B8F50E94BA1987FD0AC090E00196C80EC4
:104FA000D91EE11C97FDEA94F0CF0F5F8ACF8D3FA9
:104FB00030F4FFE7AF1AB108A80EB11CE6CF8D3F61
:104FC00021F40E94BA19982EE0CF8E3F41F40E943E
:104FD000BA19A82EB12C0E94BA19B82AD6CF0E94AD
:104FE000BA19C82ED12CE12C0E94BA1990E0982F42
:104FF0008827A0E0C82AD92AEA2A0E94BA19C5CF70
:105000000E94C0199414E0F52FA1622F70E080E097
:10501000862F772766273EA1732B9DA1692BE0E29F
:105020009E9E90011124620F731F811D37FD8A958A
:105030000E94611A60E270E0C1010E94571A20E0EC
:10504000A1016F2D88E1EEDBFE013696C5016AE015
:1050500070E00E94C234805D82935B01E215F3052B
:10506000A9F71E8280E0A101480F511DFA0190812D
:10507000903311F48F5FF7CF20E06F2D80E0D2DB0B
:105080005394F6E0FF0E29A13AA1235031093AA327
:1050900029A331E4F31240CF81E00E943D1A2FB7DB
:1050A000F8948091560690915706A0915806B091B9
:1050B00059062FBF94E1E92EE80EF12C2FB7F89492
:1050C0008091560690915706A0915806B0915906C6
:1050D0002FBFEE2DE81BE7FDDDCE0E94FF19EECFBE
:1050E000FC01992703968F3F910519F010F085E098
:1050F0009ADE419351936193E093300608956F9245
:105100007F928F92CF92DF92EF92E0913006F1E0A2
:10511000829192912291622E792E882EE290D290E5
:10512000C290E09330060E94C019B6018E2D0E94F5
:10513000611AC12CD12CE12C0E94BA19882341F0AC
:105140008FEFC81AD80AE80AC614D704E804A1F7F2
:10515000E0913006F1E0CF016E2DA601C1DF0E9483
:10516000C019609131067091320680913306EF903C
:10517000DF90CF908F907F906F900C94611A9C017C
:1051800033272E5F3F4F2F3F310519F010F085E098
:105190004ADEFC0161937193E09330060895E0913B
:1051A0003006F1E0BC01CF01EACF9F92AF92BF92EF
:1051B000CF92DF92EF92FF920F931F93CF93DF93E3
:1051C000E0913006F1E0F290B290A290929082913C
:1051D00092912291C22ED92EE82E829172916291E3
:1051E000E0933006729A0E94611AC92DDA2D0B2DB8
:1051F0001F2D0E94BA198993882351F0015011097B
:1052000039F081E0C81AD108E10899F780E0899364
:10521000729A892D9A2DC3DF8B2D9F2DC0DF60914F
:1052200031067091320680913306DF91CF911F9144
:105230000F91FF90EF90DF90CF90BF90AF909F9035
:105240000C94611A1F93CF93DF93E0913006F1E045
:1052500082919291C92FD82F92918291229132916D
:10526000632F722F42915291E0933006FC01252F5B
:10527000342FAE01D9011D919D011193112359F0D5
:105280004150510941F0DA01A60FB71FAC17BD0715
:1052900089F720E0219383DFCE01DF91CF911F9129
:1052A0007ECFE0913006F1E082919291292F382F44
:1052B00082919291492F582FE093300690E080E040
:1052C000FC01E40FF51F6081662321F0019682172F
:1052D0009307B1F764CF2F923F924F926F927F92D4
:1052E0008F92CF92DF92EF920F931F93CF93DF9322
:1052F000CDB7DEB7C550CDBFE0913006F1E0829169
:1053000092912291C22ED92E482F96012F5F3F4FA6
:105310004F4F29833A834B83829192912291622E3F
:10532000792E882E829192912291C22ED92EE82E2A
:10533000E09330060E94C0196C0C7D1C8E1C10E09E
:1053400000E01D821C82C614D704E80481F1160116
:105350004E2C3FEF231A330A430A8E2DB6010E94CA
:10536000611A0E94C019882311F18A3061F48C817E
:105370009D818017910710F41D830C8310E000E0DD
:10538000E42C6101E0CF90E0880F991F29813A81D8
:105390004B81280F391F411D97FD4A95842FB90174
:1053A0000E94611A0E94C019080F111DE9CF8C815B
:1053B0009D818017910708F4C801F1DE60913106E4
:1053C0007091320680913306CB5FCDBFDF91CF91D4
:1053D0001F910F91EF90DF90CF908F907F906F9003
:1053E0004F903F902F900C94611A8F929F92AF92A2
:1053F000BF92CF92DF92EF920F931F93CF93DF93E1
:10540000E0913006F1E0829192912291C22ED92E44
:10541000E82E2FEFC21AD20AE20A82919291C92F86
:10542000D82FB290A290E09330060E94C019850157
:10543000B12CA12C912C812CF80181918F01882312
:1054400061F0209751F021978A3001F58A149B046E
:1054500008F44501B12CA12CEFCFC4018A149B04A0
:1054600008F4C5019CDE609131067091320680918E
:105470003306DF91CF911F910F91EF90DF90CF9086
:10548000BF90AF909F908F900C94611A90E0880F1E
:10549000991F4E2D9601280F391F411D97FD4A95E2
:1054A000842FB9010E94611A0E94C019A80EB11C74
:1054B000C3CFFC01992704968F3F910519F010F096
:1054C00085E0B1DC4193519361937193E093300691
:1054D00008958FB7F8944091560650915706609101
:1054E0005806709159068FBFE0913006F1E0CF0168
:1054F000E0CF0E94C619AB01BC01E0913006F1E09B
:10550000CF01D7CF9C0133272F3F310511F485E020
:105510008ADCFC016193E09330060895E091300647
:10552000F1E0682FCF01EECFCF930E94C0196AE05F
:1055300070E080E00E94611A0E94BA19C82F0E9490
:10554000C0192C2F382FC90101978115944030F4D0
:10555000C9010E949D1991E0811101C090E0892F3D
:10556000DDDF609131067091320680913306CF9174
:105570000C94611A1F93CF93DF930E94C0196AE0C5
:1055800070E080E00E94611A0E94BA19182F0E94F0
:10559000C019C12FD82FCE0101978115944058F41E
:1055A00060E070E080E00E948B190E94801921E089
:1055B000C817D90709F020E0822FB0DF60913106CB
:1055C0007091320680913306DF91CF911F910C9438
:1055D000611A8091620AA2CF9091720081E09111CC
:1055E00001C080E09BCFE0913006F1E0682FCF0151
:1055F00089CF2F923F924F926F927F928F92CF924C
:10560000DF92EF92CF93DF93CDB7DEB7C650CDBF19
:10561000E0913006F1E0829192912291C22ED92E32
:10562000E82E829192912291222E392E482E82913B
:1056300092912291622E792E882E829192912291BE
:1056400029839A838B83E09330060E94C019482DEA
:105650009301220D331D441D2C833D834E83842CE6
:10566000310129803A804B80261837084808882D58
:10567000B3010E94611A0E94C0198983842DB1016F
:10568000660D771D881D0E94611A0E94C01990E066
:10569000C114D104E10429F0998131E0C31AD10881
:1056A000E1082C813D814E8126153705480531F1F1
:1056B000882331F03FEF631A730A830A9817B9F20F
:1056C0002FEF981724F021E089170CF020E0822FAB
:1056D0008ADF609131067091320680913306CA5F8D
:1056E000CDBFDF91CF91EF90DF90CF908F907F90E3
:1056F0006F904F903F902F900C94611A80E0E0CF14
:10570000AF92BF92CF92DF92EF92FF920F931F93CF
:10571000CF93DF93E0913006F1E082919291C92F0F
:10572000D82F12910291829192912291C22ED92E5C
:10573000E82EB290A290F290E09330060E94C01939
:105740006F2D7A2D8B2D0E94611A5801F501119150
:105750005F010E94BA1990E0209711F0912F2197D4
:10576000C114D104E10429F121E0C21AD108E108F1
:10577000882311F0981751F32FEF981724F021E0A8
:1057800089170CF020E0822F2EDF0E94C019609153
:1057900031067091320680913306DF91CF911F91CF
:1057A0000F91FF90EF90DF90CF90BF90AF900C944F
:1057B000611A80E0E1CFCF93DF93E0913006F1E012
:1057C00082919291292F382F4291529182919291F8
:1057D000A92FB82F62917291E0933006852F942FF4
:1057E000472F562FEC016991CE01EA01E991AE01F4
:1057F0007E2F2115310599F021503109109789F03C
:105800001197EE2311F06E1769F38FEF671724F0ED
:1058100081E076170CF080E0DF91CF91E4CE60E07C
:10582000EDCF70E0F2CFCF93E0913006F1E0C2917E
:10583000E09330060E94F719C82381E009F080E068
:10584000CF91D1CECF93E0913006F1E0C291E093B9
:1058500030060E94F719C82381E009F480E0CF9157
:10586000C2CECF93E0913006F1E0C291E0933006D2
:105870000E94F7199C2F982381E09C1380E0CF9120
:10588000B2CEE0913006F1E08291E0933006909143
:10589000610A982329F09091600A982381E009F029
:1058A00080E0A1CEE0913006F1E08291E0933006F5
:1058B0000E940F1A98CE409156065091570660915B
:1058C00058067091590680913806882321F010926D
:1058D000380680E088CE80913706942F981B892F58
:1058E00090913606891730F48F5F891790F70E94E0
:1058F000FF19EFCF81E08093380640933706EACF57
:10590000AF92CF92DF92EF92FF920F93382F729A5D
:10591000729843E04EBDE0913006F1E03497029179
:10592000F290E290A0915E06B0915F06AF0DB01FBD
:10593000BEBD8581968163817481D290C290E093CF
:10594000300606C0000000C0C89500C000C0089521
:1059500045E0AEBDF7DFEEBCE40EF11C011DF4DF47
:105960001EBCF1DF4EB51EBCEEDF2EB51EBCEBDF5C
:10597000AEB51EBCE8DFBEB51EBCE5DFAEB40DB4EF
:10598000729AA32ACA16DB0610F087E04CDA803838
:1059900091058CF46034710574F4FC01E40FF11D81
:1059A0001E161F0644F4FB01E20FF11D1E161F0612
:1059B00014F40E94721A609131067091320680913F
:1059C00033060F91FF90EF90DF90CF90AF900C9443
:1059D000611A84E095CF80E093CFE0913006F1E04A
:1059E0008291E0933006811102C084E01CCA0895C0
:1059F0001F920F920FB60F9211248F939F93AF9324
:105A0000BF93EF93FF9380914506909146060197CF
:105A1000B9F58CE0E7E4F6E0A3E4B6E001900D927E
:105A20008A95E1F780915306845099F0809353064C
:105A300080914306909144068F3F910509F0A0F4B0
:105A400010927100811105C01092720080E1809364
:105A50005306FF91EF91BF91AF919F918F910F905E
:105A60000FBE0F901F901895909399008093980007
:105A7000109295001092940082E080937100E9CF1B
:105A80009093460680934506E4CF369A379A189548
:105A900091E09093E0001092E2001092E10080E229
:105AA0008093D8001092D700809165008068809321
:105AB0006500789483E084BD83E085BD90936E009B
:105AC000E1E8F0E083E08083E0E881E08083E1E9E1
:105AD00083E08083E0E981E08083E1EC87E08083FC
