:100000000C94081A0C94251A0C94251A0C94251A91
:100010000C94251A0C94251A0C94251A0C94251A64
:100020000C94251A0C94251A0C94251A0C94251A54
:100030000C94251A0C94251A0C94251A0C94251A44
:100040000C94251A0C94251A0C94251A0C94251A34
:100050000C94251A0C94251A0C94251A0C944A28F1
:100060000C94251A0C94251A0C94251A0C94251A14
:100070000C94251A0C94251A0C94251A0C94251A04
:100080000C94942E0C94251A0C94251A0C94251A71
:100090000C94251A0C94251A0C944E2E0C94251AA7
:1000A0000C94251A0C94251A0C94251A084AD73B4F
:1000B0003BCE016E84BCBFFDC12F3D6C74319ABD37
:1000C00056833DDA3D00C77F11BED9E4BB4C3E915B
:1000D0006BAAAABE000000803F05A84CCDB2D44E4A
:1000E000B93836A9020C50B9918688083CA6AAAA4C
:1000F0002ABE000000803F0664EC1B3C04BC163E98
:100100003BE5B93CC93C37C29E5A3D660498083E5F
:10011000EA69AAAA3E000000803F07634236B79B07
:10012000D8A71A39685618AEBAAB558C1D3CB7CC57
:100130005763BD6DEDFD753EF6177231BF000000CF
:10014000803F08000000BE922449123EABAAAA2AB2
:10015000BECDCCCC4C3E00000080BEABAAAAAA3ECD
:1001600000000000BF000000803F00000000000809
:100170004178D3BB4387D1133D190E3CC3BD4282A6
:10018000AD2B3E68EC8276BED98FE1A93E4C80EF64
:10019000FFBE01C4FF7F3F00000000000000000020
:1001A000000000000000000000000000000000004F
:1001B000000000000000000000000000000000003F
:1001C000000000000000000000000000000000002F
:1001D000000000000000000000000000000000001F
:1001E000000000000000000000000000000000000F
:1001F00000000000000000000000000000000000FF
:10020000C895C89500000EB42EBC640C721C821CEC
:10021000039CF001F50D09940000000000000000AF
:1002200000000000000000000000000000000000CE
:1002300000000000000000000000000000000000BE
:100240009992CF3FA1F0C8950EB42EBC640C721CDD
:10025000821C902CC895C895C895C8950EB42EBC24
:10026000640C721C821C039CF001F50D099485E05E
:100270000C9438180000000000000000000000008E
:100280009992CF3F19F485E00C94381800E0902E35
:100290000EB42EBC640C721C821C039CF001F50D84
:1002A00009940000000000000000000000000000B1
:1002B000000000000000000000000000000000003E
:1002C0009992CF3F19F485E00C94381801E0902EF4
:1002D0000EB42EBC640C721C821C039CF001F50D44
:1002E0000994000000000000000000000000000071
:1002F00000000000000000000000000000000000FE
:100300009992CF3F19F485E00C94381802E0902EB2
:100310000EB42EBC640C721C821C039CF001F50D03
:100320000994000000000000000000000000000030
:1003300000000000000000000000000000000000BD
:100340009992CF3F19F485E00C94381803E0902E71
:100350000EB42EBC640C721C821C039CF001F50DC3
:1003600009940000000000000000000000000000F0
:10037000000000000000000000000000000000007D
:100380009992CF3F19F485E00C94381804E0902E30
:100390000EB42EBC640C721C821C039CF001F50D83
:1003A00009940000000000000000000000000000B0
:1003B000000000000000000000000000000000003D
:1003C0009992CF3F19F485E00C94381805E0902EEF
:1003D0000EB42EBC640C721C821C039CF001F50D43
:1003E0000994000000000000000000000000000070
:1003F00000000000000000000000000000000000FD
:100400009992CF3F19F485E00C94381806E0902EAD
:100410000EB42EBC640C721C821C039CF001F50D02
:10042000099400000000000000000000000000002F
:1004300000000000000000000000000000000000BC
:100440009992CF3F19F485E00C94381807E0902E6C
:100450000EB42EBC640C721C821C039CF001F50DC2
:1004600009940000000000000000000000000000EF
:10047000000000000000000000000000000000007C
:100480009992CF3F19F485E00C94381808E0902E2B
:100490000EB42EBC640C721C821C039CF001F50D82
:1004A00009940000000000000000000000000000AF
:1004B000000000000000000000000000000000003C
:1004C0009992CF3F19F485E00C94381800E1902EF2
:1004D0000EB42EBC640C721C821C039CF001F50D42
:1004E000099400000000000000000000000000006F
:1004F00000000000000000000000000000000000FC
:100500009992CF3F19F485E00C94381800E2902EB0
:100510000EB42EBC640C721C821C039CF001F50D01
:10052000099400000000000000000000000000002E
:1005300000000000000000000000000000000000BB
:100540009992CF3F19F485E00C94381800E4902E6E
:100550000EB42EBC640C721C821C039CF001F50DC1
:1005600009940000000000000000000000000000EE
:10057000000000000000000000000000000000007B
:100580009992CF3F19F485E00C94381800E8902E2A
:100590000EB42EBC640C721C821C039CF001F50D81
:1005A00009940000000000000000000000000000AE
:1005B000000000000000000000000000000000003B
:1005C000CE3F60F49992299299240EB42EBC640C0B
:1005D000721C821C039CF001F50D099485E00C94BB
:1005E00038180000000000000000000000000000BB
:1005F00000000000000000000000000000000000FB
:10060000CD3F68F499922992299299240EB42EBC78
:10061000640C721C821C039CF001F50D099485E0AA
:100620000C943818000000000000000000000000DA
:1006300000000000000000000000000000000000BA
:10064000CC3F70F4999229922992299299240EB460
:100650002EBC640C721C821C039CF001F50D0994E5
:1006600085E00C9438180000000000000000000035
:10067000000000000000000000000000000000007A
:10068000C83F90F49992299229922992299229920D
:100690002992299299240EB42EBC640C721C821CDF
:1006A000039CF001F50D099485E00C9438180000C6
:1006B000000000000000000000000000000000003A
:1006C000C83FD0F49992299229922992299229928D
:1006D0002992299229922992299229922992299242
:1006E0002992299299240EB42EBC640C721C821C8F
:1006F000039CF001F50D099485E00C943818000076
:100700009992C89500C00EB42EBC099210D09EB428
:100710002EBC02E0600E721C821C0BD00EB42EBCEC
:10072000640C721C821C039CF001F50D09940000FE
:100730000000C89500C008950000000000000000FF
:100740009992C89500C00EB42EBC0992F0DF0EB489
:100750002EBC0992ECDF9EB42EBC03E0600E721C2E
:10076000821CE7DF0EB42EBC640C721C821C039C3E
:10077000F001F50D099400000000000000000000E9
:10078000999204E0600E721C821C00000EB42EBC14
:100790000992CDDF0EB42EBC0992C9DF0EB42EBC77
:1007A0000992C5DF9EB42EBCC2DFDCCF0000000082
:1007B0000000000000000000000000000000000039
:1007C0009992CF3F61F0990C990800000EB42EBCAD
:1007D000640C721C821C039CF001F50D099485E0E9
:1007E0000C94381800000000000000000000000019
:1007F00000000000000000000000000000000000F9
:100800009992CE3F60F4990C990899920EB42EBC3F
:10081000640C721C821C039CF001F50D099485E0A8
:100820000C943818000000000000000000000000D8
:1008300000000000000000000000000000000000B8
:100840009992CD3F68F4990C9908999299920EB4B7
:100850002EBC640C721C821C039CF001F50D0994E3
:1008600085E00C9438180000000000000000000033
:100870000000000000000000000000000000000078
:100880009992CF3F51F0C8950EB42EBC640C721CE7
:10089000821C039CF001F50D099485E00C94381836
:1008A0000000000000000000000000000000000048
:1008B0000000000000000000000000000000000038
:1008C0009992CF3F61F0DE01A2509C900EB42EBCF5
:1008D000640C721C821C039CF001F50D099485E0E8
:1008E0000C94381800000000000000000000000018
:1008F00000000000000000000000000000000000F8
:100900009992CF3F61F0DE01A3509C900EB42EBCB3
:10091000640C721C821C039CF001F50D099485E0A7
:100920000C943818000000000000000000000000D7
:1009300000000000000000000000000000000000B7
:100940009992CF3F61F0DE01A4509C900EB42EBC72
:10095000640C721C821C039CF001F50D099485E067
:100960000C94381800000000000000000000000097
:100970000000000000000000000000000000000077
:100980009992CF3F61F0DE01A5509C900EB42EBC31
:10099000640C721C821C039CF001F50D099485E027
:1009A0000C94381800000000000000000000000057
:1009B0000000000000000000000000000000000037
:1009C0009992CF3F61F0DE01A6509C900EB42EBCF0
:1009D000640C721C821C039CF001F50D099485E0E7
:1009E0000C94381800000000000000000000000017
:1009F00000000000000000000000000000000000F7
:100A00009992CF3F61F0DE01A7509C900EB42EBCAE
:100A1000640C721C821C039CF001F50D099485E0A6
:100A20000C943818000000000000000000000000D6
:100A300000000000000000000000000000000000B6
:100A40009992CF3F61F0DE01A8509C900EB42EBC6D
:100A5000640C721C821C039CF001F50D099485E066
:100A60000C94381800000000000000000000000096
:100A70000000000000000000000000000000000076
:100A80009992CE3F70F4DE01A2500D9009929D9094
:100A90000EB42EBC640C721C821C039CF001F50D7C
:100AA000099485E00C943818000000000000000054
:100AB0000000000000000000000000000000000036
:100AC0009992CE3F70F4DE01A3500D9009929D9053
:100AD0000EB42EBC640C721C821C039CF001F50D3C
:100AE000099485E00C943818000000000000000014
:100AF00000000000000000000000000000000000F6
:100B00009992CE3F70F4DE01A4500D9009929D9011
:100B10000EB42EBC640C721C821C039CF001F50DFB
:100B2000099485E00C9438180000000000000000D3
:100B300000000000000000000000000000000000B5
:100B40009992CE3F70F4DE01A5500D9009929D90D0
:100B50000EB42EBC640C721C821C039CF001F50DBB
:100B6000099485E00C943818000000000000000093
:100B70000000000000000000000000000000000075
:100B80009992CE3F70F4DE01A6500D9009929D908F
:100B90000EB42EBC640C721C821C039CF001F50D7B
:100BA000099485E00C943818000000000000000053
:100BB0000000000000000000000000000000000035
:100BC0009992CE3F70F4DE01A7500D9009929D904E
:100BD0000EB42EBC640C721C821C039CF001F50D3B
:100BE000099485E00C943818000000000000000013
:100BF00000000000000000000000000000000000F5
:100C00009992CE3F70F4DE01A8500D9009929D900C
:100C10000EB42EBC640C721C821C039CF001F50DFA
:100C2000099485E00C9438180000000000000000D2
:100C300000000000000000000000000000000000B4
:100C40009992CE3F70F4DE01A9500D9009929D90CB
:100C50000EB42EBC640C721C821C039CF001F50DBA
:100C6000099485E00C943818000000000000000092
:100C70000000000000000000000000000000000074
:100C80009992CF3F19F485E00C9438180000DE01EA
:100C90000EB42EBC640C721C821CA0199C90C895CA
:100CA000C89500C000C00EB42EBC640C721C821C1F
:100CB000039CF001F50D0994000000000000000005
:100CC0009992CE3F18F085E00C9438180000DE01B0
:100CD0000EB42EBC640C721C821CA0190D909C904A
:100CE0000992C895C8950EB42EBC640C721C821C67
:100CF000039CF001F50D09940000000000000000C5
:100D00009992CC3F18F085E00C9438180000DE0171
:100D10000EB42EBC640C721C821CA0190D911D9186
:100D20002D919D900993199329930EB42EBC640CB8
:100D3000721C821C039CF001F50D09940000000058
:100D4000092D9C0E00F3DE01640C721C821C0EB493
:100D50002EBCA019069510F40D9009920D900992E1
:100D60009D9099920A95D1F7CA950EB42EBC640C49
:100D7000721C821C039CF001F50D09940000000018
:100D8000C895C89500000EB42EBC640C721C821C61
:100D9000092DDE01A0190C939A90C895C8950EB440
:100DA0002EBC640C721C821C039CF001F50D09948E
:100DB0000000000000000000000000000000000033
:100DC000C895C89500000EB42EBC640C721C821C21
:100DD000192D0A91DE01A0190D931D939A9000C060
:100DE0000EB42EBC640C721C821C039CF001F50D29
:100DF0000994000000000000000000000000000056
:100E0000392D2A911A910A910EB42EBC640C721CD1
:100E1000821CDE01A0190D931D932D933D939A9092
:100E200000000EB42EBC640C721C821C039CF001EA
:100E3000F50D099400000000000000000000000013
:100E4000092D0250DE011A912A910EB42EBC640CB9
:100E5000721C821CA0191E932E93069518F40A90FA
:100E60000E92F9F20A900E920A900E920A95D1F71C
:100E70009A90D7CF000000000000000000000000A2
:100E80009992CF3F19F485E00C94381800C0AEB5A4
:100E90002EBC42E0640E721C821C0ED0BEB52EBC6D
:100EA0009C9009D00EB42EBC640C721C821C039C56
:100EB000F001F50D099400C000C0C8950895000028
:100EC0009992CE3F18F085E00C94381800C0AEB56A
:100ED0002EBC42E0640E721C821CEEDFBEB52EBC3E
:100EE0000D919D900993E9DF0EB42EBC640C721C29
:100EF000821C039CF001F50D099400000000000025
:100F00009992CC3F18F085E00C94381800C0AEB52B
:100F10002EBC42E0640E721C821CCEDFBEB52EBC1D
:100F20000D911D912D919D90099319932993DCCFDB
:100F300000000000000000000000000000000000B1
:100F4000292D9A949C0EF8F2C895AEB52EBC42E0BD
:100F5000640E721C821CB0DFBEB52EBC269510F448
:100F60000D9009920D9009920D9009922A95D1F752
:100F70009A90BACF000000000000000000000000BE
:100F8000CF3F18F085E00C9438189992B2E0000039
:100F9000AEB52EBC9C90640C721C821C09D00EB4A1
:100FA0002EBC640C721C821C039CF001F50D09948C
:100FB00000C000C008950000000000000000000014
:100FC000CE3F18F085E00C9438189992B2E00000FA
:100FD000AEB52EBC9D9099929C90640C721C821CA4
:100FE00009D00EB42EBC640C721C821C039CF00150
:100FF000F50D0994089500000000000000000000B5
:10100000CC3F18F085E00C9438189992B2E0640C4B
:10101000AEB52EBC721C821C9D9099929D909992A7
:101020009D9099929C900EB42EBC640C721C821CF4
:10103000039CF001F50D0994000000000000000081
:10104000C895C8950000AEB52EBC12E0610E721CAA
:10105000821C32DFBEB52EBC9C929A902DDF0EB45E
:101060002EBC640C721C821C039CF001F50D0994CB
:101070000000000000000000000000000000000070
:101080001ED0AEB52EBC12E0610E721C821C14DFA5
:10109000BEB52EBC1A911D939D9210D09A900EB49D
:1010A0002EBC640C721C821C039CF001F50D09948B
:1010B000000000C000C00000000000C00000089553
:1010C000392D2A911A910A91AEB52EBC42E0640ED8
:1010D000721C821CF0DFBEB52EBC0D931D932D93A8
:1010E0003D939A90C895C8950EB42EBC640C721CA2
:1010F000821C039CF001F50D099400000000000023
:10110000DEDFAEB52EBC12E0610E721C821CD3DF96
:10111000BEB52EBCA90DB21D969410F40A900E9285
:101120000A900E920A900E929A94D1F7B7CF0000CF
:1011300000000000000000000000000000000000AF
:10114000292D1A910A91729A33E072983EBDA090AF
:101150005206B0905306A10EB21EAEDFBEBCA8DF91
:10116000AEBCA6DF0EBDA4DF2EBCA3DF9EB40C94E4
:101170000318000000C008950000000000000000F7
:10118000292D1A910A9100C01EB427C0640C721C4C
:10119000821C00C0EFDF0EB42EBC099200001A942E
:1011A0001414C1F7E6DF9EB40C940318000000008D
:1011B000000000000000000000000000000000002F
:1011C000B92DAA919D9000C00EB42EBC640C721C67
:1011D000821C039CF001F50D0994729A33E0729819
:1011E0003EBDA0905206B0905306A10EB21E64DF21
:1011F000BEBC5EDFAEBC5CDF0EBD5ADF2EBCC6CF10
:10120000B92DAA911D9019929D900EB42EBC640C1C
:10121000721C821C039CF001F50D09940000000073
:1012200000000000000000000000000000000000BE
:1012300000000000000000000000000000000000AE
:10124000B92DAA912C2FC8950EB42EBC640C721C1B
:10125000821C200D18F1069410F49D9099929D9097
:1012600099929D9099920A94D1F7CA950EB42EBC8A
:10127000640C721C821C039CF001F50D09940000A3
:10128000B92DAA911A901C929A900EB42EBC640C9F
:10129000721C821C039CF001F50D099485E00C94EE
:1012A00038180000000000000000000000000000EE
:1012B000000000000000000000000000000000002E
:1012C000B92DAA911A900A909A900D921C920EB480
:1012D0002EBC640C721C821C039CF001F50D099459
:1012E00000000000000000000000000000000000FE
:1012F00000000000000000000000000000000000EE
:10130000B92DAA9100C000C00EB42EBC640C721C92
:10131000821CA00DB21D069410F41A901E921A9011
:101320001E921A901E920A94D1F79A900EB42EBC77
:10133000640C721C821C039CF001F50D09940000E2
:10134000CA95988000C000C00EB42EBC640C721CFC
:10135000821C039CF001F50D0994000000000000C0
:10136000000000000000000000000000000000007D
:10137000000000000000000000000000000000006D
:10138000C250988000C000C00EB42EBC640C721C09
:10139000821C039CF001F50D099400000000000080
:1013A000000000000000000000000000000000003D
:1013B000000000000000000000000000000000002D
:1013C000C350988000C000C00EB42EBC640C721CC8
:1013D000821C039CF001F50D099400000000000040
:1013E00000000000000000000000000000000000FD
:1013F00000000000000000000000000000000000ED
:10140000C450988000C000C00EB42EBC640C721C86
:10141000821C039CF001F50D09946993972E0EB47C
:101420002EBC640C721C821C039CF001F50D099407
:1014300000000000000000000000000000000000AC
:10144000C895C89500000EB42EBC640C721C821C9A
:10145000C01998800CD00EB42EBC640C721C821C77
:10146000039CF001F50D099400C000C000C0C895B0
:1014700008950000000000000000000000000000CF
:10148000492DC895C8950EB42EBC640C721C821CE4
:10149000401518F082E00C9438189A906A91640F05
:1014A000921C699300C00EB42EBC640C721C821C8A
:1014B000039CF001F50D099482E00C9438180000AB
:1014C000492DC895C8950EB52EBC12E0610E721C50
:1014D000821CCCDF1EB52EBC411770F7049F5A91B9
:1014E0004A91040E151E0992912C0000DCCF0BC00E
:1014F00000000000000000000000000000000000EC
:10150000592D4A91F4CF0EB52EBC14E0610E721C19
:10151000821CACDF1EB52EBCA7DF2EB52EBCA4DF0F
:101520003EB52EBC4217530738F6049FB001059F05
:10153000700D149F700D5A914A91640F751F6DCFF5
:10154000A92C9A90EA90DA900EB52EBC12E0610EAA
:10155000721C821C8BDF1EB52EBCA11640F4A09E0F
:10156000D00CE11C921CD992E992C895DAC082E0B5
:101570000C9438180000000000000000000000007B
:1015800077DF4EB52EBC15E0610E721C821CC92C93
:10159000BA90AA906DDF5EB52EBCFA90EA90DA9010
:1015A00066DF0EB52EBC60DF1EB52EBC5DDF2EB52E
:1015B0002EBCA016B106C206D0F60C94B3170000DC
:1015C000592D4A913A912A910EB52EBC12E0610E26
:1015D000721C821C4217530750F6049FB0019A9167
:1015E0008A91680F791F1EB52EBC059F700D149F40
:1015F000700D6993972E00C0C89593C0000000003D
:101600000C94D01782E00C943818B00CC11C289FA1
:10161000C00C199FC00C301B410B920A9CF3B2E026
:101620006B0E721C821CA992B992C992399349938C
:1016300078C009931993699374C0000000000000FA
:101640006A915A914A913A918EB52EBC2A911A917B
:101650000A9142175307B0F62617390598F2489FAA
:10166000000D111D9EB52EBC589F110D499F110DE7
:10167000641B950A3CF2B2E06B0E721C821CD9CF3F
:101680004A913A912A911A918EB52EBC0A91FA90FC
:10169000EA90DA90CA90BA90AA900D151E052F050F
:1016A00048F59EB52EBCD316E406F90418F1089F40
:1016B000A00CB11CC21C189FB00CC11C099FA5CF67
:1016C0009992CE3F18F085E00C94381800C00EB403
:1016D0002EBC640C721C821C8E0100190993912E81
:1016E0000DD00EB42EBC640C721C821C039CF00145
:1016F000F50D099482E00C943818C89500000895FF
:101700009992CE3F18F085E00C94381800C00EB4C2
:101710002EBC640C721C821C12E00992912EEEDF2A
:1017200000000EB42EBC640C721C821C039CF001E1
:10173000F50D09940000000000000000000000000A
:101740009394C895EDCF0000000000000000000059
:101750000000000000000000000000000000000089
:101760000000000000000000000000000000000079
:101770000000000000000000000000000000000069
:101780009A94C895CDCF0000000000000000000032
:101790000000000000000000000000000000000049
:1017A0000000000000000000000000000000000039
:1017B0000000000000000000000000000000000029
:1017C00000C000C0DE0111960EB42EBC640C721C69
:1017D000821CA0190C9003940C92C89500C000C004
:1017E0000EB42EBC640C721C821C039CF001F50D1F
:1017F000099400000000000000000000000000004C
:10180000B92DAA910D91902E03950E930EB42EBC76
:10181000640C721C821C039CF001F50D09940000FD
:1018200000000000000000000000000000000000B8
:1018300000000000000000000000000000000000A8
:10184000B92DAA910D911D910993912E040D121D90
:101850001E930E930EB42EBC640C721C821C039C4F
:10186000F001F50D099400000000000000000000E8
:101870000000000000000000000000000000000068
:10188000CE3F18F085E00C943818B92DAA910D912F
:101890001D912D9109931993922E040D121D221D55
:1018A0002E931E930E930EB42EBC640C721C821CDD
:1018B000039CF001F50D09940000000000000000F9
:1018C000CD3F18F085E00C943818B92DAA910D91F0
:1018D0001D912D913D91099319932993932E040DF8
:1018E000121D221D321D3E932E931E930E930EB495
:1018F0002EBC640C721C821C039CF001F50D099433
:10190000B92DAA910D91902E0A950E930EB42EBC6E
:10191000640C721C821C039CF001F50D09940000FC
:1019200000000000000000000000000000000000B7
:1019300000000000000000000000000000000000A7
:10194000B92DAA910D911D910993912E0419120997
:101950001E930E930EB42EBC640C721C821C039C4E
:10196000F001F50D099400000000000000000000E7
:101970000000000000000000000000000000000067
:10198000CE3F18F085E00C943818B92DAA910D912E
:101990001D912D9109931993922E04191209220970
:1019A0002E931E930E930EB42EBC640C721C821CDC
:1019B000039CF001F50D09940000000000000000F8
:1019C000CD3F18F085E00C943818B92DAA910D91EF
:1019D0001D912D913D91099319932993932E0419EB
:1019E0001209220932093E932E931E930E930EB4D0
:1019F0002EBC640C721C821C039CF001F50D099432
:101A0000CD3F18F085E00C943818B92DAA916D914E
:101A10007D918D919D91699379938993992E8D01F3
:101A2000112420E030E040E85FE30E94C730D80195
:101A30009E938E937E936E93DACF00000000000099
:101A4000CD3F18F085E00C943818B92DAA916D910E
:101A50007D918D919D91699379938993992E8D01B3
:101A6000112420E030E040E85FE30E94C630D80156
:101A70009E938E937E936E93BACF00000000000079
:101A8000EA909E0C00C000C00EB42EBC640C721C08
:101A9000821C039CF001F50D099400000000000079
:101AA0000000000000000000000000000000000036
:101AB0000000000000000000000000000000000026
:101AC000AA90FA90EA90AE0C9F1CA9920EB42EBC7C
:101AD000640C721C821C039CF001F50D099400003B
:101AE00000000000000000000000000000000000F6
:101AF00000000000000000000000000000000000E6
:101B0000BA90AA900A91FA90EA90AE0CBF1C901E6F
:101B1000A992B9920EB42EBC640C721C821C039C58
:101B2000F001F50D09940000000000000000000025
:101B300000000000000000000000000000000000A5
:101B4000CA90BA90AA901A910A91FA90EA90AE0CB3
:101B5000BF1CC01E911EA992B992C9920EB42EBC90
:101B6000640C721C821C039CF001F50D09940000AA
:101B70000000000000000000000000000000000065
:101B8000EA90E9189E2CC8950EB42EBC640C721C09
:101B9000821C039CF001F50D099400000000000078
:101BA0000000000000000000000000000000000035
:101BB0000000000000000000000000000000000025
:101BC000AA90FA90EA90EA18F908E9929F2C0EB4CC
:101BD0002EBC640C721C821C039CF001F50D099450
:101BE00000000000000000000000000000000000F5
:101BF00000000000000000000000000000000000E5
:101C0000BA90AA900A91FA90EA90EA18FB0809099A
:101C1000E992F992902E0EB42EBC640C721C821CB8
:101C2000039CF001F50D0994000000000000000085
:101C300000000000000000000000000000000000A4
:101C4000CA90BA90AA901A910A91FA90EA90EA186A
:101C5000FB080C091909E992F9920993912E0EB427
:101C60002EBC640C721C821C039CF001F50D0994BF
:101C70000000000000000000000000000000000064
:101C8000FA90EA90E90CF21CE9929F2C0EB42EBC5B
:101C9000640C721C821C039CF001F50D0994000079
:101CA0000000000000000000000000000000000034
:101CB0000000000000000000000000000000000024
:101CC0000A91FA90EA90E90CF21C021DE992F9924D
:101CD000902E0EB42EBC640C721C821C039CF0016E
:101CE000F50D099400000000000000000000000055
:101CF00000000000000000000000000000000000E4
:101D0000FA90EA90E918F208E9929F2C0EB42EBCE2
:101D1000640C721C821C039CF001F50D09940000F8
:101D200000000000000000000000000000000000B3
:101D300000000000000000000000000000000000A3
:101D4000FA90EA90E99C9001F99C300D2993932E2A
:101D50000EB42EBC640C721C821C039CF001F50DA9
:101D600009940000000000000000000000000000D6
:101D70000000000000000000000000000000000063
:101D8000EA90E99C902C00C00EB42EBC640C721C2E
:101D9000821C039CF001F50D099400000000000076
:101DA0000000000000000000000000000000000033
:101DB0000000000000000000000000000000000023
:101DC000AA90FA90EA90EA9C9001E99C300DFA9C66
:101DD000300D2993932E0EB42EBC640C721C821C01
:101DE000039CF001F50D09940000000000000000C4
:101DF00000000000000000000000000000000000E3
:101E0000BA90AA900A91FA90EA90EA9C90010A9DF1
:101E1000902CFA9C300D911CEB9C300D911CFB9C7E
:101E2000900CE99C900C299339930EB42EBC640C51
:101E3000721C821C039CF001F50D09940000000047
:101E40000C946E170000000000000000000000006D
:101E50000000000000000000000000000000000082
:101E60000000000000000000000000000000000072
:101E70000000000000000000000000000000000062
:101E8000792D6A919A918A916215720519F483E00D
:101E90000C9438180E9411366993972E0EB42EBCFC
:101EA000640C721C821C039CF001F50D0994000067
:101EB0000000000000000000000000000000000022
:101EC000592D4A913A912A919A918A917A916A91DF
:101ED000221532054205520519F483E00C94381896
:101EE0008E010E949530E801299339934993952EEC
:101EF000D5CF00000000000000000000000000003E
:101F0000792D6A919A918A916215720519F483E08C
:101F10000C9438180E9425366993972E0EB42EBC67
:101F2000640C721C821C039CF001F50D09940000E6
:101F300000000000000000000000000000000000A1
:101F4000592D4A913A912A919A918A917A916A915E
:101F5000221532054205520519F483E00C94381815
:101F60008E010E946930E801299339934993952E97
:101F7000D5CF0000000000000000000000000000BD
:101F8000792D6A919A918A916215720519F483E00C
:101F90000C9438180E9411368993992E0EB42EBCD9
:101FA000640C721C821C039CF001F50D0994000066
:101FB0000000000000000000000000000000000021
:101FC000592D4A913A912A919A918A917A916A91DE
:101FD000221532054205520519F483E00C94381895
:101FE0008E010E949530E801699379938993992E27
:101FF000D5CF00000000000000000000000000003D
:10200000792D6A919A918A916215720519F483E08B
:102010000C9438180E9425368993992E0EB42EBC44
:10202000640C721C821C039CF001F50D09940000E5
:1020300000000000000000000000000000000000A0
:10204000592D4A913A912A919A918A917A916A915D
:10205000221532054205520519F483E00C94381814
:102060008E010E946930E801699379938993992ED2
:10207000D5CF0000000000000000000000000000BC
:10208000492D0A914830A0F442FD029542FD007F9F
:1020900041FD000F41FD000F40FD000F902E0EB4DA
:1020A0002EBC640C721C821C039CF001F50D09947B
:1020B0009924F5CF0000000000000000000000009F
:1020C000492D1A910A914830A1F0403128F0299207
:1020D000992406C0000F111F4A95E2F70993912E2B
:1020E0000EB42EBC640C721C821C039CF001F50D16
:1020F00009942992902EF4CF000000000000000007
:10210000492D3A912A911A910A91403248F0299228
:102110002992299299240AC0000F111F221F331FF0
:102120004A95D2F7099319932993932E0EB42EBC96
:10213000640C721C821C039CF001F50D09940000D4
:10214000492D0A914830A0F442FD029542FD0F70DE
:1021500041FD069541FD069540FD0695902E0EB475
:102160002EBC640C721C821C039CF001F50D0994BA
:10217000922CF5CF000000000000000000000000DD
:10218000492D1A910A91403128F02992922C06C0CB
:10219000169507954A95E2F70993912E0EB42EBC39
:1021A000640C721C821C039CF001F50D0994000064
:1021B000000000000000000000000000000000001F
:1021C000492D3A912A911A910A91403248F0299268
:1021D00029922992922C0AC0369527951795079532
:1021E0004A95D2F7099319932993932E0EB42EBCD6
:1021F000640C721C821C039CF001F50D0994000014
:10220000492D0A91473030F050E007FD5FEF952EE1
:1022100004C005954A95EAF7902E0EB42EBC640CC6
:10222000721C821C039CF001F50D09940000000053
:10223000000000000000000000000000000000009E
:10224000492D1A910A91403140F050E017FD5FEF9F
:102250005993952E06C0159507954A95E2F709936F
:10226000912E0EB42EBC640C721C821C039CF001D7
:10227000F50D0994000000000000000000000000BF
:10228000492D3A912A911A910A91403260F050E01A
:1022900027FD5FEF599359935993952EE2CF3595CA
:1022A0002795179507954A95D2F70993199329937E
:1022B000932ED7CF000000000000000000000000B7
:1022C000EA909E2000C000C00EB42EBC640C721CAC
:1022D000821C039CF001F50D099400000000000031
:1022E00000000000000000000000000000000000EE
:1022F00000000000000000000000000000000000DE
:10230000AA90FA90EA90AE209F20A9920EB42EBC1B
:10231000640C721C821C039CF001F50D09940000F2
:1023200000000000000000000000000000000000AD
:10233000000000000000000000000000000000009D
:10234000CA90BA90AA901A910A91FA90EA90AE2097
:10235000BF20C0229122A992B992C9920EB42EBC7C
:10236000640C721C821C039CF001F50D09940000A2
:10237000000000000000000000000000000000005D
:10238000EA909E2800C000C00EB42EBC640C721CE3
:10239000821C039CF001F50D099400000000000070
:1023A000000000000000000000000000000000002D
:1023B000000000000000000000000000000000001D
:1023C000AA90FA90EA90AE289F28A9920EB42EBC4B
:1023D000640C721C821C039CF001F50D0994000032
:1023E00000000000000000000000000000000000ED
:1023F00000000000000000000000000000000000DD
:10240000CA90BA90AA901A910A91FA90EA90AE28CE
:10241000BF28C02A912AA992B992C9920EB42EBCA3
:10242000640C721C821C039CF001F50D09940000E1
:10243000000000000000000000000000000000009C
:10244000EA909E2400C000C00EB42EBC640C721C26
:10245000821C039CF001F50D0994000000000000AF
:10246000000000000000000000000000000000006C
:10247000000000000000000000000000000000005C
:10248000AA90FA90EA90AE249F24A9920EB42EBC92
:10249000640C721C821C039CF001F50D0994000071
:1024A000000000000000000000000000000000002C
:1024B000000000000000000000000000000000001C
:1024C000CA90BA90AA901A910A91FA90EA90AE2412
:1024D000BF24C0269126A992B992C9920EB42EBCEF
:1024E000640C721C821C039CF001F50D0994000021
:1024F00000000000000000000000000000000000DC
:102500009094C895C8950EB42EBC640C721C821CA5
:10251000039CF001F50D099400000000000000008C
:1025200000000000000000000000000000000000AB
:10253000000000000000000000000000000000009B
:10254000AA90A0949094A99200000EB42EBC640CA2
:10255000721C821C039CF001F50D09940000000020
:10256000000000000000000000000000000000006B
:10257000000000000000000000000000000000005B
:10258000CA90BA90AA90A094B094C0949094A99242
:10259000B992C9920EB42EBC640C721C821C039CAE
:1025A000F001F50D0994000000000000000000009B
:1025B000000000000000000000000000000000001B
:1025C00000E0921001E0902EC8950EB42EBC640C71
:1025D000721C821C039CF001F50D099400000000A0
:1025E00000000000000000000000000000000000EB
:1025F00000000000000000000000000000000000DB
:102600001A90912800E0921001E0902E0EB42EBC9A
:10261000640C721C821C039CF001F50D09940000EF
:1026200000000000000000000000000000000000AA
:10263000000000000000000000000000000000009A
:10264000AA90A928BA90AB289924A210942C0EB471
:102650002EBC640C721C821C039CF001F50D0994C5
:10266000000000000000000000000000000000006A
:10267000000000000000000000000000000000005A
:10268000AA90A928BA90AB28BA90AB289924A21096
:10269000942C0EB42EBC640C721C821C039CF001A2
:1026A000F50D09940000000000000000000000008B
:1026B000000000000000000000000000000000001A
:1026C000EA9021E0E91408F020E0922E0EB42EBC2E
:1026D000640C721C821C039CF001F50D099400002F
:1026E00000000000000000000000000000000000EA
:1026F00000000000000000000000000000000000DA
:10270000AA90FA90EA90EA14F90450F099240EB4D1
:102710002EBC640C721C821C039CF001F50D099404
:10272000942C0EB42EBC640C721C821C039CF00111
:10273000F50D0994000000000000000000000000FA
:10274000BA90AA900A91FA90EA90EA14FB0409055B
:1027500050F099240EB42EBC640C721C821C039C95
:10276000F001F50D0994942C0EB42EBC640C721C6F
:10277000821C039CF001F50D09940000000000008C
:10278000CA90BA90AA901A910A91FA90EA90EA1423
:10279000FB040C05190550F099240EB42EBC640CF2
:1027A000721C821C039CF001F50D0994942C0EB44C
:1027B0002EBC640C721C821C039CF001F50D099464
:1027C000EA9021E0E9140CF020E0922E0EB42EBC29
:1027D000640C721C821C039CF001F50D099400002E
:1027E00000000000000000000000000000000000E9
:1027F00000000000000000000000000000000000D9
:10280000AA90FA90EA90EA14F90454F099240EB4CC
:102810002EBC640C721C821C039CF001F50D099403
:10282000942C0EB42EBC640C721C821C039CF00110
:10283000F50D0994000000000000000000000000F9
:10284000BA90AA900A91FA90EA90EA14FB0409055A
:1028500054F099240EB42EBC640C721C821C039C90
:10286000F001F50D0994942C0EB42EBC640C721C6E
:10287000821C039CF001F50D09940000000000008B
:10288000CA90BA90AA901A910A91FA90EA90EA1422
:10289000FB040C05190554F099240EB42EBC640CED
:1028A000721C821C039CF001F50D0994942C0EB44B
:1028B0002EBC640C721C821C039CF001F50D099463
:1028C000592D4A913A912A919A918A917A916A91D5
:1028D00011240E94A031942C811199240EB42EBC95
:1028E000640C721C821C039CF001F50D099400001D
:1028F00000000000000000000000000000000000D8
:10290000592D4A913A912A919A918A917A916A9194
:1029100011240E94A031881F8827881F982E0EB48A
:102920002EBC640C721C821C039CF001F50D0994F2
:102930000000000000000000000000000000000097
:1029400001E0921000E0902EC8950EB42EBC640CED
:10295000721C821C039CF001F50D0994000000001C
:102960000000000000000000000000000000000067
:102970000000000000000000000000000000000057
:10298000592D4A913A912A919A918A917A916A9114
:1029900011240E94C730699379938993992E0EB4BC
:1029A0002EBC640C721C821C039CF001F50D099472
:1029B0000000000000000000000000000000000017
:1029C000592D4A913A912A919A918A917A916A91D4
:1029D00011240E94C630699379938993992E0EB47D
:1029E0002EBC640C721C821C039CF001F50D099432
:1029F00000000000000000000000000000000000D7
:102A0000592D4A913A912A919A918A917A916A9193
:102A100011240E94FC33699379938993992E0EB403
:102A20002EBC640C721C821C039CF001F50D0994F1
:102A30000000000000000000000000000000000096
:102A4000592D4A913A912A919A918A917A916A9153
:102A500011240E94A731699379938993992E0EB41A
:102A60002EBC640C721C821C039CF001F50D0994B1
:102A70000000000000000000000000000000000056
:102A8000992D8A917A916A9111240E940F3269934B
:102A900079938993992E0EB42EBC640C721C821CFF
:102AA000039CF001F50D09940000000000000000F7
:102AB0000000000000000000000000000000000016
:102AC000992D8A917A916A9111240E941432699306
:102AD00079938993992E0EB42EBC640C721C821CBF
:102AE000039CF001F50D09940000000000000000B7
:102AF00000000000000000000000000000000000D6
:102B0000992D8A917A916A9111240E944232699397
:102B100079938993992E0EB42EBC640C721C821C7E
:102B2000039CF001F50D0994000000000000000076
:102B30000000000000000000000000000000000095
:102B4000992D8A917A916A9111240E944032699359
:102B500079938993992E0EB42EBC640C721C821C3E
:102B6000039CF001F50D0994000000000000000036
:102B700000C0C8950895000000000000000000009B
:102B8000192C9A9003E0600E721C821C0EB52EBCAC
:102B9000EBDF1EB52EBCEBDF121419F438018EB436
:102BA00032C200002EBCE0DF0EB42EBC640C721CDE
:102BB000821C039CF001F50D099400000000000048
:102BC000640C721C821C921451F4092D9A900EB45C
:102BD000102C110C1108600C711C811C14C29A90ED
:102BE0002EBCC4DFE1CF00000000000000000000A8
:102BF00000000000000000000000000000000000D5
:102C0000192C9A9003E0600E721C821C0EB52EBC2B
:102C1000ABDF1EB52EBCABDF121419F038018EB439
:102C2000F2C100002EBCA0DF0EB42EBC640C721CDE
:102C3000821C039CF001F50D0994000000000000C7
:102C4000640C721C821C921451F0092D9A900EB4DF
:102C5000102C110C1108600C711C811CD4C19A90AD
:102C60002EBC84DFA1CF00000000000000000000A7
:102C70000000000000000000000000000000000054
:102C800003E0600E721C821CC8950EB52EBC6CDF72
:102C90001EB52EBC6CDF921419F438018EB4B3C18A
:102CA00000002EBC9A9062DF0EB42EBC640C721C25
:102CB000821C039CF001F50D099400000000000047
:102CC000640C721C821C00C0921449F400C00EB443
:102CD000102C110C1108600C711C811C94C12EBCAD
:102CE0009A9046DFE1CF00000000000000000000E5
:102CF00000000000000000000000000000000000D4
:102D000003E0600E721C821CC8950EB52EBC2CDF31
:102D10001EB52EBC2CDF921419F038018EB473C18D
:102D200000002EBC9A9022DF0EB42EBC640C721CE4
:102D3000821C039CF001F50D0994000000000000C6
:102D4000640C721C821C00C0921449F000C00EB4C6
:102D5000102C110C1108600C711C811C54C12EBC6C
:102D60009A9006DFA1CF00000000000000000000E4
:102D70000000000000000000000000000000000053
:102D8000C895C89500006EB42EBCEEDE7EB42EBC95
:102D9000EBDE8EB438C1000000000000000000002F
:102DA0000000000000000000000000000000000023
:102DB0000000000000000000000000000000000013
:102DC000C895C89500000EB40394102C110C11087E
:102DD000600C711C811C17C1000000000000000085
:102DE00000000000000000000000000000000000E3
:102DF00000000000000000000000000000000000D3
:102E0000A0913406AD3298F4B6E003E0060D6EB43E
:102E10002EBC721C821C0D937D928D920000AADE46
:102E20007EB42EBCA3DEA09334068EB4ECC086E044
:102E30001FC10000000000000000000000000000B2
:102E4000A0913406AD3288F4B6E0640C721C821C8A
:102E50006D927D928D92A09334060EB4102C110CBD
:102E60001108600C711C811CCEC086E001C10000FD
:102E70000000000000000000000000000000000052
:102E8000A0913406B6E08E907E906E90A0933406AA
:102E9000BAC00000000000000000000000000000B8
:102EA0000000000000000000000000000000000022
:102EB0000000000000000000000000000000000012
:102EC000EBECF1E3640C721C821C00C00EB42EBC4F
:102ED000E00DF21D0590F491E02D2EC0CA90BA903D
:102EE000AA901A910A91FA90EA90EA9C90010A9DA0
:102EF000A001FA9C300D411D521DEB9C300D411D6F
:102F0000521DFB9C400D511DEC9C400D511D1A9D06
:102F1000500D0B9D500DFC9C500DE99C500D2993BC
:102F200039934993952E0EB42EBC640C721C821CEE
:102F3000039CF001F50D09946092310670923206FF
:102F4000809233069992C093300611240995C0915E
:102F500030069A900EB42EBC640C721C821C039C2A
:102F6000F001F50D0994A49ED00CE11CF21CA59E65
:102F7000E00CF11CB49EE00CF11CB59EF00CC49E5C
:102F8000F00CD992E9929F2C0EB42EBC640C721CEA
:102F9000821C039CF001F50D099400C0C8950895AA
:102FA000C89500C04EB52EBC12E0610E721C821C8A
:102FB000F4DF5EB52EBCC92CBA90AA902A911A9162
:102FC0000A919A90EA90DA90A016B106C206C8F467
:102FD000A49ED00CE11C921CA59EE00C911CB49EFA
:102FE000E00C911CB59E900CC49E900CD992E99275
:102FF0000EB42EBC640C721C821C039CF001F50DF7
:10300000099482E035C0729A23E072982EBD009137
:1030100047060430C0F00091520610915306070D88
:10302000181D1CD01EBD15D00EBD13D06EBC12D005
:103030002EBC10D00EB42EBC640C721C821C039CDF
:10304000F001F50D0994112407D0729A0E94BF2651
:10305000DBCF000000C0C895C895000008950EB4ED
:103060002EBC640C721C821C039CF001F50D0994AB
:103070006092310670923206809233069992C09324
:10308000300611240E9494280C94000000000000D7
:103090000000000000000000000000000000000030
:1030A0000000000000000000000000000000000020
:1030B0000000000000000000000000000000000010
:1030C0000000000000000000000000000000000000
:1030D00000000000000000000000000000000000F0
:1030E00000000000000000000000000000000000E0
:1030F00000000000000000000000000000000000D0
:1031000053697A6573206F66206D656D63707920F1
:103110006473742F7372632064696666657200530A
:103120007072697465206672616D65206F75747365
:10313000696465206F66207365740043616C6C2060
:10314000737461636B206F766572666C6F77004491
:1031500061746120737461636B206F766572666C55
:103160006F7700417373657274696F6E2066616971
:103170006C6564004469766973696F6E20627920BA
:103180007A65726F00417272617920696E64657848
:10319000206F7574206F6620626F756E64730047D0
:1031A000616D652064617461206E6F7420666F7557
:1031B0006E64009F318531743163314F313B311F73
:1031C00031003100004552524F5200C220BD2062F2
:1031D0001D8D1D67225722B41C1A220A22E71B618B
:1031E00021412E3F2E152591244E20542BE22AD921
:1031F0001B832DD81BD61B8520432ED51B7A2D690A
:103200002D592D4A2D3B2DCC2BD52DA82DC82A006C
:103210002A032DAD2C492C992A512A8B206E263C4D
:103220002C2626392C36260F2C3820EE2B3028164B
:1032300028FC27D827BE27A427861B80275C274287
:1032400027C32B3827F5261700030C000000009930
:103250004C000003002E02D1010000C411100184B3
:10326000101000980C2E3AF243B94AB12A877CB765
:1032700026AE22211FAA2AA23A0A00500184284A17
:10328000298A10A10A0000BE78BF2A2E463F3ABF05
:1032900046BF042E669F7CF147F1019F6C1F425F81
:1032A0007C3F783F7EBF082E7ABF68B226E1071FB9
:1032B0007E071F1F7D9B6C833EB94E3F028360F1EA
:1032C000032208104241004C7A5F324C4A4C7E4C3B
:1032D00053BE00D6035F701D00B0019F681F009EA3
:1032E000785E704C325E1144799E0856034F020E90
:1032F0007A061B1E799249823ADA02C47D0000DF09
:1033000011D5F08D14A1C881CFD9F1AF20000000F4
:10331000FFFFFFFFFFFFFFFFFFFFFFFFFFFFFFFFBD
:10332000FFFFFFFF19FDE4EE7CE1D4D4E2C89CBDB1
:10333000F7B2ECA8719F7E960C8E13868C7E727706
:10334000BE706A6A7164CE5E7C597654B84F3F4B4A
:1033500006470943463FB93B5F3835353832672F5A
:10336000BE2C3B2ADC279F2583238521A31FDD1D3F
:103370002F1C9A1A1C19B3175F161D15EE13D012C5
:10338000C111C210D20FEE0E180E4D0D8E0CDA0BBD
:103390002F0B8F0AF7096809E1086108E907770729
:1033A0000C07A7064706ED0598054705FC04B4047D
:1033B00070043104F403BC03860353032403F602B0
:1033C000CC02A4027E025A0238021802FA01DE017F
:1033D000C301AA0192017B01660152013F012D0147
:1033E0001C010C01000100010001000100010001AD
:1033F00000010001000100010001000100010001C5
:1034000000010001000100010001000100010001B4
:1034100011241FBECFEFDAE0DEBFCDBF16E0A9E377
:10342000B6E0E6E8FCE602C005900D92AE33B107C7
:10343000D9F72AE0AEE3B6E001C01D92A935B20784
:10344000E1F70E94972E0C9441360C940000E5E0C1
:10345000F0E010D0319728F068517C4F8F4F9F4F8C
:10346000F9CFAB01FC0106D0641775078E079F07E3
:10347000D0F30895AEE4B6E02FB7F8947D918D9126
:103480009C9166B52FBFA89B05C06F3F18F47F5F66
:103490008F4F9F4F22E0660F771F881F991F2A9535
:1034A000D1F708959C01E0E0F2E0A0E0B0E0BD01BA
:1034B00080E045D039D0BD011296A20FB31F82170C
:1034C0009307A9F38F5F9F4F21F4AF5FBF40DB01EC
:1034D00060F01AD140E05091570A6091580A80E29A
:1034E00026D0729AEFD0A0E0B0E07CEF0DD14A2F49
:1034F0005091570A5B0F6091580A611D82E017D006
:10350000832F71FD822F70FD819124D0759518F461
:103510002150304019F01196AA2391F7729AD2D017
:103520002115310519F7089539D0982F3DC07298AB
:1035300011D0862F0FD0852F0DD0842F0BC0462F92
:103540005091570A570F6091580A681F83E0EFDFC8
:103550001EBC08958EBD00008EB50DB407FEFCCFD5
:103560000895E0E0F2E0DC0160E070E080E0E7DF99
:103570009D01AF0160E00FD08217930749F4D90194
:10358000FA0160E00BD081931197E1F761E0F3CF8E
:103590000BD0862F089502D0982F00C00DB407FEDF
:1035A000FDCF8EB51EBC08950DB407FEFDCF8EB5C0
:1035B000729A08950F931F93CF93DF9380916400C5
:1035C0008E7F8093640080917A00806480937A007B
:1035D00080917A0086FDFCCFC0917800D09179006F
:1035E00049DFAB01BC01809164008160809364007D
:1035F000CE01B0E0A0E0DC01992788278C019D0175
:10360000040F151F261F371FC901B801DF91CF9185
:103610001F910F9108958FB18095807F669B886080
:103620001C9B8460089581E083BF889513BE089534
:103630001092560A3E983F9808953E9A3F9A81E02C
:103640008093560A08959091550A982329F49091F1
:10365000540A982381E009F480E008958091540A87
:103660008093550AD8DF8093540A089580389105D5
:10367000B8F460347105A0F490E121E061FD24E02C
:1036800060FD220F62FD2295687F969FD001112474
:10369000A80FAC5AB94F0C90022A40FF02260C9298
:1036A00008955E98E4E5F6E0A0E0B8E000800EBC86
:1036B0008111012C1197A0FDFDCF0192B9F70DB436
:1036C0005E9A0895729885E045DF80E043DF80FDD3
:1036D000FCCF729A0895FC016150704019F05EDFD2
:1036E0008193FACF61DF80830895462F509152066F
:1036F000570F60915306681F83E019DF1EBC0895C1
:10370000729828DF729A089586E0FACFEF92FF92BE
:103710000F931F93CF93DF93E0913006F1E08291F6
:1037200092912291EF013A91E32EF22E092F182F58
:1037300020E030E0A901B701C8010E94F13320E088
:1037400030E040E05FE3B70187FD15C0C8010E948B
:10375000C7300E940F320E944232FE016193719382
:1037600081939193E0933006DF91CF911F910F9158
:10377000FF90EF900895C8010E94C630EACF809371
:10378000F1000895E0913E06F0913F066281738159
:103790006115710521F06150710962837383A08105
:1037A000B1818D93A083B183089558CF98950895E2
:1037B0003ACFE0913006F1E06291E093300670E09C
:1037C00088EE93E00E9411366093360608952F929A
:1037D0003F925F926F927F928F929F92AF92BF9231
:1037E000CF92DF92EF92FF920F931F93CF93DF93CD
:1037F000CDB7DEB7C650CDBFE0913006F1E0829183
:103800009291E92EF82E82919291092F182F2291F0
:103810005290E0933006822F90E09E838D8381E06A
:1038200090E05C012D813E81A21AB30AC9019195F5
:10383000819591099C01220F331F3A8329836D8161
:103840007E81600F711F452DC70110DFB8018D818A
:103850009E81681B790B452DC70108DF452DB801F6
:103860008D819E818E0D9F1D01DF452DB801C70101
:103870002D813E81821B930BF9DED12CC12C81E07E
:1038800090E09C838B832D813E81C216D3060CF081
:1038900057C0B7FC0BC0215031093E832D8389816D
:1038A0009A8102969A838983A80EB91E9FEFC91A3E
:1038B000D90A2B813C812E5F3F4F3C832B83A20E84
:1038C000B31E36016E0C7F1C452D8D809E80800EB0
:1038D000911EB401C301CADE17012C183D08452D05
:1038E000B401C101C3DE452D48018D819E81881A36
:1038F000990AB401C301BADE452DB401C101B6DE97
:1039000048018C0C9D1C452DB4016D807E806E0C91
:103910007F1CC301ABDE452DB40117012D813E8113
:10392000221A330AC101A2DE48018C189D08452DD8
:10393000B401C3019BDE452DB401C10197DEA3CFC5
:10394000CA5FCDBFDF91CF911F910F91FF90EF9094
:10395000DF90CF90BF90AF909F908F907F906F90AF
:103960005F903F902F9008952F923F924F925F92D9
:103970006F927F928F929F92AF92BF92CF92DF927F
:10398000EF92FF920F931F93CF93DF93CDB7DEB7E4
:10399000C350CDBFE0913006F1E0829192919A83BD
:1039A0008B8382919291092F182F82919291E92E07
:1039B000F82E22913291832F922F22912983E09326
:1039C00030066C01C01AD10AD7FE03C0D194C1944D
:1039D000D10847012A813B81821A930A97FE03C0CE
:1039E0009194819491088C149D045CF43E2D2F2DAC
:1039F0007C01832F922F3A812B811B830A83032F13
:103A0000122F2A813B81E216F3065CF4302F212F1E
:103A10008C01832F922F3A812B81FB82EA82E32E45
:103A2000F22E17012A813B81221A330A2C01401AF7
:103A3000510A57FE03C0519441945108310137FE99
:103A400003C03FEF631A730A759467940817190748
:103A500014F18FEFA82E880FBB088A819B81E8168E
:103A6000F906DCF04981BC01C8018C149D041CF0EE
:103A7000B8018A819B81FADD6418750877FE04C05D
:103A80000A0D1B1D620C731C2A813B812F5F3F4F67
:103A90003B832A83E2CF81E0DDCFCD5FCDBFDF91D5
:103AA000CF911F910F91FF90EF90DF90CF90BF903B
:103AB000AF909F908F907F906F905F904F903F90CE
:103AC0002F900895E0913006F1E082918291282FA5
:103AD00082918291482F477086958695869530E829
:103AE000839FC00111248C5A994F820F911DDC01D4
:103AF0008C9190E021E030E0042E02C0220F331FB1
:103B00000A94E2F78223932302C0959587954A95FC
:103B1000E2F78193E09330060895E0913006F1E0FA
:103B200092918291729162914291E09330069ECD82
:103B30007298FC0183E08EBD81919191A191409199
:103B4000520650915306490F5A1FC89500C05EBDDA
:103B50000FD04EBD0DD08EBD0196A11DA2939293A4
:103B600082930AD01EBC05D08EB50DB4729A08950A
:103B70000000C895C89500C0000008952F923F929C
:103B80004F925F926F927F928F929F92AF92BF926D
:103B9000CF92DF92EF92FF920F931F93CF93DF9319
:103BA000CDB7DEB7C851CDBF9C8B8B8BE091300673
:103BB000F1E0829192912291622E792E882E82914B
:103BC000929122912E879F87888BE0933006CE01B9
:103BD00001969A8B898B90E3592E611471048104AC
:103BE00009F40BC2CE010E96A3DF082F1301482C57
:103BF00091E0291A31084108853229F0802FEB899C
:103C0000FC89099516C0CE010E9692DF182F13017C
:103C1000482CF2E02F1A31084108843609F446C0D6
:103C200058F4833509F4B2C0833609F48AC085326A
:103C300029F3842C3101D1CF833709F489C008F0EE
:103C400030C08636B1F7E0913006F1E08291929172
:103C500022913291C32ED22EE92EF82ECD8ADE8A01
:103C6000EF8AF88EE0933006CE010E9661DF182FB2
:103C70001301482CF3E02F1A31084108A7019601DF
:103C8000C701B6010E941635882309F4D7C08EE615
:103C9000EB89FC89099581E6EB89FC8909958EE61B
:103CA000AECF853719F0883709F0C3CFE0913006E1
:103CB000F1E08291929122913291A32EB22EC92EDF
:103CC000D82EE0933006CE010E9632DFF82E130187
:103CD000482C83E0281A31084108183709F487C0B6
:103CE000143609F099C0D7FE97C08DE2EB89FC89A4
:103CF0000995D094C094B094A094A11CB11CC11C8F
:103D0000D11CFFECFF0E8AE08E010F5F1F4F682E63
:103D1000712C912C812CC601B501A40193010E9444
:103D2000953059016A0187E56A3008F480E3860F0F
:103D3000D8018D938D01FA94232B242B252B59F731
:103D400064C0E0913006F1E00291E093300656CF76
:103D5000E0913006F1E082919291E92EF82E829165
:103D60009291E0933006092F182FE114F10409F421
:103D700060CFF80181918F01882309F45ACFEB8934
:103D8000FC890995F1E0EF1AF108EFCFE0913006D8
:103D9000F1E0829192912291C22ED92EE82E829149
:103DA00092912291E09330062B879C878D87C114D6
:103DB000D104E10409F43DCFCE010B96B9DE6B8549
:103DC0007C858D8592DCF0DB882309F432CFEB898A
:103DD000FC8909958B859C85AD850196A11D8B87F6
:103DE0009C87AD87F1E0CF1AD108E108E0CF80E1F0
:103DF000A114B104C104D10489F48E010F5F1F4FD7
:103E0000D8015D928D01BFECFB0E1F1454F4F80134
:103E100051928F01FA94F9CF8AE0EACFE0EDFE0EDD
:103E200073CF89899A898017910709F402CFF80125
:103E300082918F01EB89FC890995F3CFE894F7F81B
:103E40002FEF3FEF4FE75FE7C701B6010E9416353E
:103E5000811114C02FEF3FEF4FE75FE7C701B601B5
:103E60000E94A031181654F489E6EB89FC89099563
:103E70008EE6EB89FC89099586E6C1CE2FEF3FEFF0
:103E80004FE75FE46D897E898F89988D0E94F133B9
:103E9000181664F02FEF3FEF4FE75FEC6D897E89D6
:103EA0008F89988D0E94A03187FF06C08FE6EB892D
:103EB000FC89099586E7DDCF20E030E0A9016D8916
:103EC0007E898F89988D0E94A03187FF0DC08DE279
:103ED000EB89FC8909958D899E89AF89B88DB05889
:103EE0008D8B9E8BAF8BB88F80ED782E710E10E08E
:103EF00060E070E080E09FE3171540F42DEC3CECAF
:103F00004CEC5DE30E94FC331F5FF6CF2D893E89A8
:103F10004F89588D0E94C7306B017C010E9414327A
:103F20004B015C010E9440329B01AC01C701B6010C
:103F30000E94C6306B017C0181149104A104B1047C
:103F400091F48E010F5F1F4FD8015D928D01E989B9
:103F5000FA89E017F10731F1F80182918F01EB89BD
:103F6000FC890995F4CF612C8E010F5F1F4FC501AD
:103F7000B4012AE030E040E050E00E949530490171
:103F80005A01605DF80161938F016A948114910474
:103F9000A104B10461F71614D4F6D8015D928D0125
:103FA0006A94F9CF772009F444CE8EE2EB89FC893C
:103FB00009957A9477FC3DCE20E030E040E251E470
:103FC000C701B6010E94FC334B015C010E94143210
:103FD000162F80E3810FEB89FC890995612F70E032
:103FE00090E080E00E9442329B01AC01C501B40127
:103FF0000E94C6306B017C01DCCFC85ECDBFDF9173
:10400000CF911F910F91FF90EF90DF90CF90BF90D5
:10401000AF909F908F907F906F905F904F903F9068
:104020002F90089583E072988EBD0091470604306A
:1040300020F41124729AA3D6F5CF40913106509105
:104040003206609133068091520690915306580FC4
:10405000691F6EBD06C000000000C89500C0C8956D
:104060000895FBDF5EBDF7DF4EBDF6DF1EBCF6CF69
:10407000CF939ADA6AE070E080E037DB8FDAC82FFE
:1040800093DA2C2F382FC90101978115944010F431
:10409000C90108DA17DBC6DFCF910895CF93DF930C
:1040A000CDB7DEB7CC50CDBFCE01019690933F0681
:1040B00080933E06E0913006F1E0829192919C83DC
:1040C0008D839E838F838291929198878987829135
:1040D0009291229129839A838B83E093300664DA4C
:1040E00069817A818B817E5F8F4FFFDA57DA8C8707
:1040F00055DA8A8759DA8B878DE694E23FDD92DFC5
:10410000C45FCDBFDF91CF9108954EDA8FEB9BE175
:1041100035DD88CF0895EF92FF920F931F93CF93D1
:10412000DF93CDB7DEB7C450CDBFE0913006F1E0EC
:1041300012910291F290E290E093300635DAE98232
:10414000FA820B831C83CE01019690933F068093E5
:104150003E0682EC9BE112DD8B819C81892B19F05C
:10416000E981FA8110825EDFCC5FCDBFDF91CF9114
:104170001F910F91FF90EF90089516DA80E091DA89
:1041800051CF089511DA81E08CDA4CCF08950F9366
:10419000803891050CF093C0603471050CF08FC02D
:1041A000FC01E40FF11D1E161F060CF088C0FB0178
:1041B000E20FF11D1E161F060CF081C0442309F406
:1041C0007EC0222309F47BC000FD0FEFA82F362FFD
:1041D00077FF02C0260F30E097FF02C0480FA0E033
:1041E00090E89A1B491708F4942F80E4831B281742
:1041F00008F4822F830F41E031FD44E030FD440F8D
:1042000032FD4295419551E081FD54E080FD550F0E
:1042100082FD52955195742F7095652F6095815050
:10422000232F269526952695869586958695E4E5F1
:10423000F6E030E8239FE00DF11D1124EA0FF11D97
:10424000821B40FD8F5F50FD8F5F30E8391B242FAC
:104250002023462F4023882319F4572B422329C0BB
:10426000772349F0A92F00800722022A0192AA95FC
:10427000D1F7E30FF11D8A95D1F0A92FA77081F432
:10428000A92F01930193019301930193019301934A
:104290000193A850B1F7E30FF11D8A9571F707C09C
:1042A0000193AA95E9F7A92FA87F59F7F4CF6623C0
:1042B00031F000800522042A01929A95D1F70F91DE
:1042C00008952F923F924F925F926F927F928F92BA
:1042D0009F92AF92BF92CF92DF92EF92FF920F9395
:1042E0001F93CF93DF93CDB7DEB7C650CDBFE0911C
:1042F0003006F1E082919291E92EF82E829192910E
:10430000692E782E22911291E0933006822F90E050
:104310009E838D839C01220F331F2F5F3F4FB3017C
:10432000681B790B012F41E0C70131DF81E090E08C
:104330006C01ED81FE81CE1ADF0A1F0131942194B8
:104340003108220C331CB12CA12C88248394912C8D
:104350002D813E81A216B3060CF047C0D7FC09C0E0
:10436000215031093E832D8332E0230E311CC20CD3
:10437000D31C8FEFA81AB80A92E0890E911CC80CC2
:10438000D91C8D819E81880F991FFC013196FC8379
:10439000EB83012F2B8141E023018D819E81481AFF
:1043A000590AB201C5018E0D9F1DF1DEF301EA1914
:1043B000FB09FA83E983282D41E0BF018D819E81AD
:1043C0008E0D9F1DE4DE2B8141E0B201C7018A19E9
:1043D0009B09DDDE282D41E069817A81C701ED81ED
:1043E000FE818E1B9F0BD3DEB3CFCA5FCDBFDF91A3
:1043F000CF911F910F91FF90EF90DF90CF90BF90E2
:10440000AF909F908F907F906F905F904F903F9074
:104410002F9008950F93E0913006F1E092918291F0
:1044200072916291429122910291E0933006AFDE47
:104430000F910895CF92DF92EF92FF920F931F9307
:10444000CF93DF93E0913006F1E082919291E92ED3
:10445000F82E82919291C92FD82F1291C290D290AA
:10446000E09330060D2D21E0412FBE01C7018FDE04
:104470002C2D41E0BE01C7018ADEBE016C0D711D0D
:104480006150710921E0412FC70181DEC701810F11
:10449000911D2C2D41E0BE01019779DEDF91CF9176
:1044A0001F910F91FF90EF90DF90CF9008950F93A1
:1044B000E0913006F1E092918291729162912291A5
:1044C0000291E093300641E062DE0F9108950F9370
:1044D000E0913006F1E09291829172916291429165
:1044E0000291E093300621E052DE0F91089580386A
:1044F00091057CF46034710564F4DC01A40FB11DF6
:104500001A161B0634F4DB01A20FB11D1A161B0686
:104510000CF008952F923F924F925F926F927F928C
:104520008F929F92BF92EF92FF920F931F93C114AD
:10453000D104A9F0622E669466946694A0FC660C81
:10454000649E30016D9CF00C011D7C9CF00C011DE3
:104550007D9C000D6C9CE00CF11C1124011D382E7B
:104560002224842E322F369536953695729853E054
:104570005EBDFB01F595E795F595E795F595E79512
:104580001E2F1F3F4CF41095311BA0FC110F149FE0
:10459000E00CF11C021D1FEF00905206F00C009081
:1045A0005306001D97FF0BC0880EA0FE02C0880FA7
:1045B000991FE81AF90A020997FD039533240EBDE5
:1045C000A4E5B6E050E81503030CA00DB11D531986
:1045D000851608F0852EE7E0E11BE31714F43E2F63
:1045E0002394FEBCE0E8E8194E2E51E061FD54E052
:1045F00060FD550F62FD5295552E66246094762C11
:10460000A2FC05C0EFEFE59D300160947094EEBC14
:10461000112422D01EBCBB24481509F0B39400001D
:1046200020C07298E3E0EEBD1124E40EF11C011DE0
:10463000A0FCE40EA0FCF11CA0FC011DBB2448154D
:1046400009F0B394C8950EBD06D0FEBC04D0EEBCF4
:1046500003D01EBC04C0000000C00000C895C8956F
:104660000895A1FC8CC011151CF0332371F566C0B0
:10467000A058BF4F582DA0FC0CC08EB51EBC859D08
:104680009C90972091289D92C89500C05A95A9F7B3
:1046900011C08EB51EBC859DC001E0DF6EB41EBC8E
:1046A000659C30019C9070949720992A9D92C895A2
:1046B0005A9579F71124A819B1093A9509F4A9C0B6
:1046C000BB2019F00DB4729AACDFFD01E058FF4F2A
:1046D000582DA0FC0EC08EB51EBC859D9C909620CA
:1046E00090289D9290809720912891925A9599F7C1
:1046F00016C08EB51EBC859DC0019C907080B0DF39
:1047000000C06EB41EBC659C00949020982A9D92B7
:1047100010947120792A719200005A9551F7112452
:10472000A40DB11D3A9561F6222009F472C0BB2098
:1047300029F00DB4729A75DF00C000C0A0FC0CC057
:104740008EB51EBC859D9C90962090289D92C89504
:1047500000C08A94A9F75DC08EB51EBC859DC001BE
:104760007DDF3EB51EBC359D302D9C90309593224B
:10477000982A9D92C8958A9479F700004AC011152D
:104780001CF03323D1F43AC0A058BF4F582D8EB53A
:104790001EBC859D9C90972091249D92C89500C039
:1047A0005A95A9F71124A819B1093A9509F431C00D
:1047B000BB2019F00DB4729A34DFFD01E058FF4FB1
:1047C000582D00C08EB51EBC859D9C9096209024CF
:1047D0009D9290809720912491925A9599F7112457
:1047E000A40DB11D3A9521F7222009F412C0BB2077
:1047F00021F00DB4729A15DF00C000C08EB51EBC4A
:10480000859D9C90962090249D92C89500C08A9486
:10481000A9F71124729A0DB41F910F91FF90EF9098
:10482000BF909F908F907F906F905F904F903F9040
:104830002F90089508956F927F928F92AF92CF92AA
:10484000DF92EF92FF920F933701802EDC01E3E0BD
:104850007298EEBD06C0000000C000C000C0C89540
:1048600008957301082DE0915206F0915306EC0C67
:10487000FE1E0F1FEC0CF11C011DC8950EBDEBDFD9
:10488000FEBCE9DFEEBCEAEF6E1AEDEF7E0AEFEF59
:104890008E0A0000E4DF1EBCDFDF3EB51EBC8D913A
:1048A0009C91FC01830F911D37FD9A95D9DF3EB590
:1048B000729AE30FF11DFC93EE93D12C36E0A32EF8
:1048C000082D730114DE0F91FF90EF90DF90CF90D1
:1048D000AF908F907F906F900895CF92EF92FF925C
:1048E0000F93E0913E06F0913F06678170858A3014
:1048F00071F483819481968385838385680F711D0C
:10490000708767830F91FF90EF90CF900895C82E26
:10491000E080F180028122854185CF0105968BDF01
:10492000F1CF2F923F924F926F927F928F929F92F0
:10493000AF92BF92CF92DF92EF92FF920F931F93AD
:10494000CF93DF93CDB7DEB7C950CDBFE09130062E
:10495000F1E0829192919C838D8382919291A92E14
:10496000B82E829192912291622E792E882E829178
:1049700092912291222E392E482E8291929122914B
:1049800029839A838B83E09330060E94D41A882D62
:10499000B3017E5F8F4F0E94751B0E94CE1A982E26
:1049A0000E94CE1AD82E0E94D41A182F8C819D8175
:1049B0009F838E83892D90E0998788872114310405
:1049C0004104F1F0CE010196B3D88823C9F091E0FB
:1049D000291A310841088A3049F48E819F819D83CC
:1049E0008C8388859985A80EB91EE8CFC82E082D1E
:1049F0007301212F4D2DB501CE0104961CDFDECFB2
:104A000011DBC75FCDBFDF91CF911F910F91FF9059
:104A1000EF90DF90CF90BF90AF909F908F907F905E
:104A20006F904F903F902F9008952F923F924F920A
:104A30005F926F927F928F929F92AF92BF92CF922E
:104A4000DF92EF92FF920F931F93CF93DF93CDB737
:104A5000DEB7C650CDBFE0913006F1E08291929171
:104A600099838A8382919291892E982E8291929134
:104A70002291222E392E482E82919291692E782EE3
:104A80005290C290E09330060E94D41A842DB10156
:104A90007E5F8F4F0E94751B0E94CE1A082F0E94C6
:104AA000CE1AD82E0E94D41A182F89819A819C83FD
:104AB0008B83AC2CB52C802F90E09E838D83F501E9
:104AC000C1905F01CC2091F06114710479F091E004
:104AD000691A71088AE0C8121FC08B819C819A8371
:104AE00089838D819E81880E991EE9CF9BDACA5FEA
:104AF000CDBFDF91CF911F910F91FF90EF90DF908D
:104B0000CF90BF90AF909F908F907F906F905F906D
:104B10004F903F902F900895042D7101212F4D2D1E
:104B2000B401CE01019687DECACF2F923F924F92F9
:104B30005F926F927F928F929F92AF92BF92CF922D
:104B4000DF92EF92FF920F931F93CF93DF93CDB736
:104B5000DEB7C450CDBF262E2C838A01582E8C81FF
:104B6000F801882359F08491882309F451C08032D8
:104B700039F4F3E05F0E0F5F1F4FF1CF8081F4CF68
:104B8000E82FEE0FFF0BEB5FFD4C25913491822F48
:104B90008F718983C90145E0969587954A95E1F71C
:104BA0008F718A83932F969596959F719B8323E0AF
:104BB000422E911106C044244394882311F092E0C0
:104BC000492ECE0101963C01F12CE12CA52CB12CF3
:104BD000F30181913F01322C45018E0C9F1C8823EB
:104BE00079F0C82ED12C80FF06C0632D70E041E023
:104BF000C4010E94361B3394D594C7948C2DEFCFFB
:104C0000FFEFEF1AFF0AE41418F35394540CB3CFD8
:104C1000852DCC5FCDBFDF91CF911F910F91FF907C
:104C2000EF90DF90CF90BF90AF909F908F907F904C
:104C30006F905F904F903F902F9008951092710069
:104C40001092720084E0809347060895F7CF89E0C0
:104C50008093C1001092BF008DE78093CF0083E066
:104C6000809390008AE180939100E8CF8091560A6A
:104C7000882319F00E94181BEACF0E941D1BFCCF4D
:104C8000729893E09EBD9FB700905206700D009001
:104C90005306801D20D08EBD1AD07EBD18D06EBDAB
:104CA00017D01EBCDA012150304000C051F000C0C6
:104CB00014D0F8941EBC0EB49FBF0D92215030400A
:104CC000B9F70AD00EB40C92729A0DB40895000090
:104CD00000C0C8950000000000C00895CF92DF9288
:104CE000EF92CF93E0913006F1E082919291229180
:104CF000C22ED92EE82EE09330068091560A8823E2
:104D000009F438C00E94D41ACFB7F89410927100F9
:104D10001092720084E08093470624E030E043E480
:104D200056E08E2DB601ACDF84E0C80ED11CE11C2C
:104D3000C0924006D0924106E0924206809143061E
:104D4000E82FF0E0EE0FFF1FE25FFC4C259134915D
:104D5000309399002093980090E898B98F3F41F0E4
:104D6000882319F082E08093710080E480937200C0
:104D7000CFBF58D9CF91EF90DF90CF900895CF92C9
:104D8000DF92EF921F93CF93DF938091720088237D
:104D900029F180914706843008F51FB7F8944091B7
:104DA0004706C4E0DC2FD41BC0904006D0904106DB
:104DB000E09042062D2F30E050E04D5B594F8E2D94
:104DC000B6015EDFCD0ED11CE11CC0924006D09230
:104DD0004106E0924206C09347061FBFDF91CF9184
:104DE0001F91EF90DF90CF9008958F929F92AF9296
:104DF000BF92CF92DF92EF92FF92CF93DF93E09139
:104E00003006F1E08291929122913291C32ED22EFE
:104E1000E92EF82E829192912291EF013A91832E00
:104E2000922EA92EB82EC814D904EA04FB0470F4FB
:104E30000E940C30A50194012C193D094E095F090F
:104E40000E949530C60ED71EE81EF91EFE01C192C3
:104E5000D192E192F192E0933006DF91CF91FF90F1
:104E6000EF90DF90CF90BF90AF909F908F9008957C
:104E70000E94DA1A611571058105910511F00C94F3
:104E800058300895CF93DF93C0913006D1E08A91D6
:104E90009A916A917A91AB019C01652F742F832FAF
:104EA000922F0E94B5346993799389939993C09313
:104EB0003006DF91CF910895CF93DF93C0913006F4
:104EC000D1E08A919A912A913A91D901FC012A91D3
:104ED0003A914A915A91BA01C901272F362F492F89
:104EE000582F6B2F7A2F8F2F9E2F0E945F3469933C
:104EF000799389939993C0933006DF91CF91089568
:104F0000CF93DF93C0913006D1E08A919A912A9194
:104F10003A91D901FC012A913A914A915A91BA01E8
:104F2000C901272F362F492F582F6B2F7A2F8F2FFC
:104F30009E2F0E9497326993799389939993C09396
:104F40003006DF91CF910895CF93DF93C091300663
:104F5000D1E08A919A916A917A91AB019C01652F77
:104F6000742F832F922F0E948D31699379938993A7
:104F70009993C0933006DF91CF910895CF93DF933B
:104F8000C0913006D1E08A919A916A917A91AB01F1
:104F90009C01652F742F832F922F0E947D3269937D
:104FA000799389939993C0933006DF91CF910895B7
:104FB000CF93DF93C0913006D1E08A919A912A91E4
:104FC0003A91D901FC012A913A914A915A91BA0138
:104FD000C901272F362F492F582F6B2F7A2F8F2F4C
:104FE0009E2F0E943A316993799389939993C09344
:104FF0003006DF91CF910895CF93DF93C0913006B3
:10500000D1E08A919A916A917A91AB019C01652FC6
:10501000742F832F922F0E94F6346993799389938A
:105020009993C0933006DF91CF910895CF93DF938A
:10503000C0913006D1E08A919A916A917A91AB0140
:105040009C01652F742F832F922F0E94A4316993A6
:10505000799389939993C0933006DF91CF91089506
:10506000CF93DF93C0913006D1E08A919A916A91F3
:105070007A91AB019C01652F742F832F922F0E9490
:10508000AB346993799389939993C0933006DF91F8
:10509000CF9108950F920FB68F939F93EF93FF9345
:1050A000809149068D5F8D3708F08D5780934906B2
:1050B000EAE4F6E080818E4F808391819F4F918357
:1050C00082818F4F828383818F4F8383EEE4F6E06A
:1050D00080818F5F808381818F4F818382818F4F19
:1050E000828383818F4F83838FB18F6066991C9BEE
:1050F00088278F3681F480914806981B963068F097
:10510000E0E0F8E087E78083818388E180936000B6
:10511000F0936000FFCF90934806FF91EF919F912D
:105120008F910FBE0F901895CF93DF93CDB7DEB759
:10513000C952CDBF082F8093350690E0E4E5F6E034
:1051400091119FEF8FEF9193919391939193815050
:10515000D0F7729A73DD10E0023040F010913406FF
:105160008BEA189F112D112416951F5F202F2150B7
:10517000330BC901880F991FFC01ED54FE4CFCA3B1
:10518000EBA3FF24F39400E0212F30E039A728A7F8
:10519000CE0101961C010E942E1B002339F080E8ED
:1051A0000E94231B882311F00150F82E89E0800F04
:1051B000811728F480E10E94231B811177C0FF2012
:1051C00009F4EEC021E045EC51E361E086E3ADDC9B
:1051D000E4E5F6E080E09191DF0111972FE7922757
:1051E0009C938F5F8038B9F7EBA1FCA14591549156
:1051F00021E068E080E099DC28A539A5201B310971
:10520000C901880F991F820F931FFC01E050FF4FC7
:10521000FAA3E9A3502E51E1F52E511608F0BDC0B6
:10522000609031067090320680903306552039F038
:10523000E9A1FAA1E350FB4F6080718082806CE0AD
:1052400070E080E00E94751B0E94CE1A482E0E94DA
:10525000CE1A8DA30E94CE1A8EA30E94CE1A8FA3BF
:105260000E94CE1AE82E0E94CE1AD82E0E94D41A7E
:1052700090E0A0E0772766277D296E290E94751BA4
:10528000C12CD12CE12CB12CA12C912CC614D7040B
:10529000E804B8F50E94CE1A87FD0AC090E0019696
:1052A000C80ED91EE11C97FDEA94F0CF0F5F8ACF9C
:1052B0008D3F30F4FFE7AF1AB108A80EB11CE6CF5E
:1052C0008D3F21F40E94CE1A982EE0CF8E3F41F4FC
:1052D0000E94CE1AA82EB12C0E94CE1AB82AD6CF80
:1052E0000E94CE1AC82ED12CE12C0E94CE1A90E03A
:1052F000982F8827A0E0C82AD92AEA2A0E94CE1A25
:10530000C5CF0E94D41A9414E0F52FA1622F70E04B
:1053100080E0862F772766273EA1732B9DA1692BFE
:10532000E0E29E9E90011124620F731F811D37FDE4
:105330008A950E94751B60E270E0C1010E946B1BA0
:1053400020E0A1016F2D88E1F0DBFE013696C5015A
:105350006AE070E00E941136805D82935B01E21585
:10536000F305A9F71E8280E0A101480F511DFA0143
:105370009081903311F48F5FF7CF20E06F2D80E0A4
:10538000D4DB5394F6E0FF0E29A13AA12350310952
:105390003AA329A331E4F31240CF81E00E94511BCC
:1053A0002FB7F89480914A0690914B06A0914C0635
:1053B000B0914D062FBF94E1E92EE80EF12C2FB7E6
:1053C000F89480914A0690914B06A0914C06B091BA
:1053D0004D062FBFEE2DE81BE7FDDDCE0E94131B0F
:1053E000EECFFC01992703968F3F910519F010F03D
:1053F00085E09ADE419351936193E09330060895DE
:105400006F927F928F92CF92DF92EF92E09130066F
:10541000F1E0829192912291622E792E882EE29073
:10542000D290C290E09330060E94D41AB6018E2D1D
:105430000E94751BC12CD12CE12C0E94CE1A88230E
:1054400041F08FEFC81AD80AE80AC614D704E80456
:10545000A1F7E0913006F1E0CF016E2DA601C1DF8A
:105460000E94D41A0E941220EF90DF90CF908F906C
:105470007F906F9008959C0133272E5F3F4F2F3F01
:10548000310519F010F085E04FDEFC016193719356
:10549000E09330060895E0913006F1E0BC01CF01C1
:1054A000EACF9F92AF92BF92CF92DF92EF92FF929C
:1054B0000F931F93CF93DF93E0913006F1E0F290CA
:1054C000B290A2909290829192912291C22ED92E66
:1054D000E82E829172916291E0933006729A0E9456
:1054E000751BC92DDA2D0B2D1F2D0E94CE1A899305
:1054F000882351F00150110939F081E0C81AD10810
:10550000E10899F780E08993729A892D9A2DC3DF7B
:105510008B2D9F2DC0DF0E941220DF91CF911F9114
:105520000F91FF90EF90DF90CF90BF90AF909F9042
:1055300008951F93CF93DF93E0913006F1E08291BD
:105540009291C92FD82F9291829122913291632FFB
:10555000722F42915291E0933006FC01252F342F97
:10556000AE01D9011D919D011193112359F04150B4
:10557000510941F0DA01A60FB71FAC17BD0789F733
:1055800020E0219388DFCE01DF91CF911F9183CF5F
:10559000E0913006F1E082919291292F382F82918B
:1055A0009291492F582FE093300690E080E0FC0163
:1055B000E40FF51F6081662321F00196821793079F
:1055C000B1F769CF6F927F928F92AF92BF92CF92D5
:1055D000EF92FF920F931F93CF93DF93CDB7DEB778
:1055E000C350CDBFE0913006F1E0829192912291BB
:1055F000622E792E882E2FEF621A720A820A829109
:1056000092912291A22EB92EC82E8291929122912E
:1056100029839A838B83E09330060E94D41AF12C5D
:10562000E12C10E000E0A114B104C10431F1CE017D
:1056300001960E94981D882301F131E0A31AB10858
:10564000C1088A3039F40E151F0508F48701F12CC2
:10565000E12CE9CF90E0880F991F482D9301280F86
:10566000391F411D97FD4A95842FB9010E94751B72
:105670000E94D41AE80EF11CD6CFC8010E151F05E2
:1056800008F4C70108DF0E941220CD5FCDBFDF9173
:10569000CF911F910F91FF90EF90CF90BF90AF905F
:1056A0008F907F906F9008958F929F92AF92BF924C
:1056B000CF92DF92EF920F931F93CF93DF93E091FE
:1056C0003006F1E0829192912291C22ED92EE82EDD
:1056D0002FEFC21AD20AE20A82919291C92FD82FD3
:1056E000B290A290E09330060E94D41A8501B12CAA
:1056F000A12C912C812CF80181918F01882361F0DC
:10570000209751F021978A30D9F48A149B0408F429
:105710004501B12CA12CEFCFC4018A149B0408F4DD
:10572000C501B9DE0E941220DF91CF911F910F9128
:10573000EF90DF90CF90BF90AF909F908F900895A3
:1057400090E0880F991F4E2D9601280F391F411D9B
:1057500097FD4A95842FB9010E94751B0E94D41AA7
:10576000A80EB11CC8CFFC01992704968F3F910564
:1057700019F010F085E0D8DC419351936193719357
:10578000E093300608950E94DA1AAB01BC01E09163
:105790003006F1E0CF01E7CF8FB7F89440914A0689
:1057A00050914B0660914C0670914D068FBFE09171
:1057B0003006F1E0CF01D7CF9C0133272F3F3105D1
:1057C00011F485E0B1DCFC016193E09330060895AB
:1057D000E0913006F1E0682FCF01EECFCF930E9429
:1057E000D41A6AE070E080E00E94751B0E94CE1A15
:1057F000C82F0E94D41A2C2F382FC9010197811568
:10580000944030F4C9010E94B11A91E0811101C0A5
:1058100090E0892FDDDF0E941220CF9108951F9321
:10582000CF93DF930E94D41A6AE070E080E00E9478
:10583000751B0E94CE1A182F0E94D41AC12FD82F80
:10584000CE0101978115944058F460E070E080E04B
:105850000E949F1A0E94941A21E0C817D90709F0E4
:1058600020E0822FB5DF0E941220DF91CF911F919F
:1058700008958091560AACCF9091720081E0911109
:1058800001C080E0A5CFE0913006F1E0682FCF01A4
:1058900093CF6F927F928F92CF92DF92EF921F936E
:1058A000CF93DF93CDB7DEB7C650CDBFE0913006C2
:1058B000F1E0829192912291C22ED92EE82E82910E
:1058C0009291229129839A838B8382919291229142
:1058D000622E792E882E8291929122912C839D8323
:1058E0008E83E09330060E94D41ACE0101960E9466
:1058F000981D182FCE0104960E94981D90E0C114A7
:10590000D104E10429F0912F21E0C21AD108E10865
:10591000611471048104F9F021E0621A71088108B0
:10592000882311F0981709F32FEF981724F021E03E
:1059300089170CF020E0822FA6DF0E941220CA5F98
:10594000CDBFDF91CF911F91EF90DF90CF908F90DF
:105950007F906F90089580E0E7CFAF92BF92CF9293
:10596000DF92EF92FF920F931F93CF93DF93E0911B
:105970003006F1E082919291C92FD82F12910291B5
:10598000829192912291C22ED92EE82EB290A290AD
:10599000F290E09330060E94D41A6F2D7A2D8B2D51
:1059A0000E94751B5801F50111915F010E94CE1AEA
:1059B00090E0209711F0912F2197C114D104E104B8
:1059C00001F121E0C21AD108E108882311F09817EB
:1059D00051F32FEF981724F021E089170CF020E005
:1059E000822F51DF0E94D41A0E941220DF91CF91A2
:1059F0001F910F91FF90EF90DF90CF90BF90AF90ED
:105A0000089580E0E6CFCF93DF93E0913006F1E098
:105A100082919291292F382F4291529182919291A5
:105A2000A92FB82F62917291E0933006852F942FA1
:105A3000472F562FEC016991CE01EA01E991AE01A1
:105A40007E2F2115310599F021503109109789F0E9
:105A50001197EE2311F06E1769F38FEF671724F09B
:105A600081E076170CF080E0DF91CF910CCF60E001
:105A7000EDCF70E0F2CFCF93E0913006F1E0C2912C
:105A8000E09330060E940B1BC82381E009F080E000
:105A9000CF91F9CECF93E0913006F1E0C291E0933F
:105AA00030060E940B1BC82381E009F480E0CF91EF
:105AB000EACECF93E0913006F1E0C291E093300658
:105AC0000E940B1B9C2F982381E09C1380E0CF91B8
:105AD000DACEE0913006F1E08291E09330069091C9
