:100000000C941D1A0C943A1A0C943A1A0C943A1A3D
:100010000C943A1A0C943A1A0C943A1A0C943A1A10
:100020000C943A1A0C943A1A0C943A1A0C943A1A00
:100030000C943A1A0C943A1A0C943A1A0C943A1AF0
:100040000C943A1A0C943A1A0C943A1A0C943A1AE0
:100050000C943A1A0C943A1A0C943A1A0C94752788
:100060000C943A1A0C943A1A0C943A1A0C943A1AC0
:100070000C943A1A0C943A1A0C943A1A0C943A1AB0
:100080000C943A1A0C943A1A0C943A1A0C943A1AA0
:100090000C943A1A0C943A1A0C944C2E0C943A1A6A
:1000A0000C943A1A0C943A1A0C943A1A084AD73B10
:1000B0003BCE016E84BCBFFDC12F3D6C74319ABD37
:1000C00056833DDA3D00C77F11BED9E4BB4C3E915B
:1000D0006BAAAABE000000803F05A84CCDB2D44E4A
:1000E000B93836A9020C50B9918688083CA6AAAA4C
:1000F0002ABE000000803F0664EC1B3C04BC163E98
:100100003BE5B93CC93C37C29E5A3D660498083E5F
:10011000EA69AAAA3E000000803F07634236B79B07
:10012000D8A71A39685618AEBAAB558C1D3CB7CC57
:100130005763BD6DEDFD753EF6177231BF000000CF
:10014000803F08000000BE922449123EABAAAA2AB2
:10015000BECDCCCC4C3E00000080BEABAAAAAA3ECD
:1001600000000000BF000000803F00000000000809
:100170004178D3BB4387D1133D190E3CC3BD4282A6
:10018000AD2B3E68EC8276BED98FE1A93E4C80EF64
:10019000FFBE01C4FF7F3F00000000000000000020
:1001A000000000000000000000000000000000004F
:1001B000000000000000000000000000000000003F
:1001C000000000000000000000000000000000002F
:1001D000000000000000000000000000000000001F
:1001E000000000000000000000000000000000000F
:1001F00000000000000000000000000000000000FF
:1002000000C000C0640C721CF8942EBC0EB478942C
:10021000821C039CF001F50D099400000000000011
:100220002041424320496E74657270726574657234
:100230002062792050657465722042726F776E205B
:100240009992CF3FB1F0640CAFB6F8942EBC9EB437
:10025000AFBE721C821CC895C895C895640C721CF0
:10026000F8942EBC0EB47894821C039CF001F50D1A
:10027000099485E00E94341800000000000000008E
:100280009992CF3F19F485E00E94341800E0902E37
:100290000EB42EBC640C721C821C039CF001F50D84
:1002A00009940000000000000000000000000000B1
:1002B000000000000000000000000000000000003E
:1002C0009992CF3F19F485E00E94341801E0902EF6
:1002D0000EB42EBC640C721C821C039CF001F50D44
:1002E0000994000000000000000000000000000071
:1002F00000000000000000000000000000000000FE
:100300009992CF3F19F485E00E94341802E0902EB4
:100310000EB42EBC640C721C821C039CF001F50D03
:100320000994000000000000000000000000000030
:1003300000000000000000000000000000000000BD
:100340009992CF3F19F485E00E94341803E0902E73
:100350000EB42EBC640C721C821C039CF001F50DC3
:1003600009940000000000000000000000000000F0
:10037000000000000000000000000000000000007D
:100380009992CF3F19F485E00E94341804E0902E32
:100390000EB42EBC640C721C821C039CF001F50D83
:1003A00009940000000000000000000000000000B0
:1003B000000000000000000000000000000000003D
:1003C0009992CF3F19F485E00E94341805E0902EF1
:1003D0000EB42EBC640C721C821C039CF001F50D43
:1003E0000994000000000000000000000000000070
:1003F00000000000000000000000000000000000FD
:100400009992CF3F19F485E00E94341806E0902EAF
:100410000EB42EBC640C721C821C039CF001F50D02
:10042000099400000000000000000000000000002F
:1004300000000000000000000000000000000000BC
:100440009992CF3F19F485E00E94341807E0902E6E
:100450000EB42EBC640C721C821C039CF001F50DC2
:1004600009940000000000000000000000000000EF
:10047000000000000000000000000000000000007C
:100480009992CF3F19F485E00E94341808E0902E2D
:100490000EB42EBC640C721C821C039CF001F50D82
:1004A00009940000000000000000000000000000AF
:1004B000000000000000000000000000000000003C
:1004C0009992CF3F19F485E00E94341800E1902EF4
:1004D0000EB42EBC640C721C821C039CF001F50D42
:1004E000099400000000000000000000000000006F
:1004F00000000000000000000000000000000000FC
:100500009992CF3F19F485E00E94341800E2902EB2
:100510000EB42EBC640C721C821C039CF001F50D01
:10052000099400000000000000000000000000002E
:1005300000000000000000000000000000000000BB
:100540009992CF3F19F485E00E94341800E4902E70
:100550000EB42EBC640C721C821C039CF001F50DC1
:1005600009940000000000000000000000000000EE
:10057000000000000000000000000000000000007B
:100580009992CF3F19F485E00E94341800E8902E2C
:100590000EB42EBC640C721C821C039CF001F50D81
:1005A0000994640C721CF8942EBC0EB47894821CCE
:1005B000039CF001F50D099400000000000000000C
:1005C000CE3F60F49992299299240EB42EBC640C0B
:1005D000721C821C039CF001F50D099485E00E94B9
:1005E00034180000000000000000000000000000BF
:1005F00000000000000000000000000000000000FB
:10060000CD3F68F499922992299299240EB42EBC78
:10061000640C721C821C039CF001F50D099485E0AA
:100620000E943418000000000000000000000000DC
:1006300000000000000000000000000000000000BA
:10064000CC3F70F4999229922992299299240EB460
:100650002EBC640C721C821C039CF001F50D0994E5
:1006600085E00E9434180000000000000000000037
:10067000000000000000000000000000000000007A
:10068000C83F90F49992299229922992299229920D
:100690002992299299240EB42EBC640C721C821CDF
:1006A000039CF001F50D099485E00E9434180000C8
:1006B000000000000000000000000000000000003A
:1006C000C83FD0F49992299229922992299229928D
:1006D0002992299229922992299229922992299242
:1006E0002992299299240EB42EBC640C721C821C8F
:1006F000039CF001F50D099485E00E943418000078
:100700009992CE3FC8F702E0AFB6F8942EBC0EB473
:10071000099209D02EBC9EB4AFBE600E721C821C22
:10072000C895C8953ECF000000000000000000C042
:10073000089500000000000000000000000000001C
:100740009992CD3FA0F403E0AFB6F8942EBC0EB45E
:100750000992E9DF2EBC0EB40992E5DF2EBC9EB4EF
:10076000AFBE600E721C821CC895C8951ACF85E07A
:100770000E9434180000000000000000000000008B
:100780009992CC3FA0F704E0AFB6F8942EBC0EB41B
:100790000992600E721C821CC9DF2EBC0EB4099235
:1007A000C2DF2EBC0EB40992BEDF2EBC9EB4AFBE1B
:1007B000BEDFF7CE000000000000000000000000D7
:1007C0009992CF3F61F0990C990800000EB42EBCAD
:1007D000640C721C821C039CF001F50D099485E0E9
:1007E0000E9434180000000000000000000000001B
:1007F00000000000000000000000000000000000F9
:100800009992CE3F60F4990C990899920EB42EBC3F
:10081000640C721C821C039CF001F50D099485E0A8
:100820000E943418000000000000000000000000DA
:1008300000000000000000000000000000000000B8
:100840009992CD3F68F4990C9908999299920EB4B7
:100850002EBC640C721C821C039CF001F50D0994E3
:1008600085E00E9434180000000000000000000035
:100870000000000000000000000000000000000078
:100880009992CF3F59F0640C721CF8942EBC0EB4B0
:100890007894821C039CF001F50D099485E00E9478
:1008A00034180000000000000000000000000000FC
:1008B0000000000000000000000000000000000038
:1008C0009992CF3F61F0DE01A2509C900EB42EBCF5
:1008D000640C721C821C039CF001F50D099485E0E8
:1008E0000E9434180000000000000000000000001A
:1008F00000000000000000000000000000000000F8
:100900009992CF3F61F0DE01A3509C900EB42EBCB3
:10091000640C721C821C039CF001F50D099485E0A7
:100920000E943418000000000000000000000000D9
:1009300000000000000000000000000000000000B7
:100940009992CF3F61F0DE01A4509C900EB42EBC72
:10095000640C721C821C039CF001F50D099485E067
:100960000E94341800000000000000000000000099
:100970000000000000000000000000000000000077
:100980009992CF3F61F0DE01A5509C900EB42EBC31
:10099000640C721C821C039CF001F50D099485E027
:1009A0000E94341800000000000000000000000059
:1009B0000000000000000000000000000000000037
:1009C0009992CF3F61F0DE01A6509C900EB42EBCF0
:1009D000640C721C821C039CF001F50D099485E0E7
:1009E0000E94341800000000000000000000000019
:1009F00000000000000000000000000000000000F7
:100A00009992CF3F61F0DE01A7509C900EB42EBCAE
:100A1000640C721C821C039CF001F50D099485E0A6
:100A20000E943418000000000000000000000000D8
:100A300000000000000000000000000000000000B6
:100A40009992CF3F61F0DE01A8509C900EB42EBC6D
:100A5000640C721C821C039CF001F50D099485E066
:100A60000E94341800000000000000000000000098
:100A70000000000000000000000000000000000076
:100A80009992CE3F70F4DE01A2500D9009929D9094
:100A90000EB42EBC640C721C821C039CF001F50D7C
:100AA000099485E00E943418000000000000000056
:100AB0000000000000000000000000000000000036
:100AC0009992CE3F70F4DE01A3500D9009929D9053
:100AD0000EB42EBC640C721C821C039CF001F50D3C
:100AE000099485E00E943418000000000000000016
:100AF00000000000000000000000000000000000F6
:100B00009992CE3F70F4DE01A4500D9009929D9011
:100B10000EB42EBC640C721C821C039CF001F50DFB
:100B2000099485E00E9434180000000000000000D5
:100B300000000000000000000000000000000000B5
:100B40009992CE3F70F4DE01A5500D9009929D90D0
:100B50000EB42EBC640C721C821C039CF001F50DBB
:100B6000099485E00E943418000000000000000095
:100B70000000000000000000000000000000000075
:100B80009992CE3F70F4DE01A6500D9009929D908F
:100B90000EB42EBC640C721C821C039CF001F50D7B
:100BA000099485E00E943418000000000000000055
:100BB0000000000000000000000000000000000035
:100BC0009992CE3F70F4DE01A7500D9009929D904E
:100BD0000EB42EBC640C721C821C039CF001F50D3B
:100BE000099485E00E943418000000000000000015
:100BF00000000000000000000000000000000000F5
:100C00009992CE3F70F4DE01A8500D9009929D900C
:100C10000EB42EBC640C721C821C039CF001F50DFA
:100C2000099485E00E9434180000000000000000D4
:100C300000000000000000000000000000000000B4
:100C40009992CE3F70F4DE01A9500D9009929D90CB
:100C50000EB42EBC640C721C821C039CF001F50DBA
:100C6000099485E00E943418000000000000000094
:100C70000000000000000000000000000000000074
:100C80009992CF3F19F485E00E943418AFB6F894DA
:100C90002EBC0EB4AFBE640C721C821CDE01A01907
:100CA0009C9000C000C0640C721CF8942EBC0EB462
:100CB0007894821C039CF001F50D0994000000005B
:100CC0009992CE3F18F085E00E943418AFB6F894A0
:100CD0002EBC0EB4AFBE640C721C821CDE01A019C7
:100CE0000D909C900992640C721CF8942EBC0EB46A
:100CF0007894821C039CF001F50D0994000000001B
:100D00009992CC3F18F085E00E943418640CDE0103
:100D10000EB42EBC721C821CA0190D911D912D9138
:100D20009D900993199329930EB42EBC640C721CE8
:100D3000821C039CF001F50D0994000000000000E6
:100D4000092D9C0E00F3DE01640C721C821C0EB493
:100D50002EBCA019069510F40D9009920D900992E1
:100D60009D9099920A95D1F7CA950EB42EBC640C49
:100D7000721C821C039CF001F50D09940000000018
:100D8000C89500C0AFB6F8942EBC0EB4AFBE640CCC
:100D9000721C821C092DDE01A0190C939A90000090
:100DA000640C721CF8942EBC0EB47894821C039CC4
:100DB000F001F50D099400000000000000000000A3
:100DC000C89500C0AFB6F8942EBC0EB4AFBE640C8C
:100DD000721C821C192D0A91DE01A0190D931D931E
:100DE0009A900EB42EBC640C721C821C039CF00101
:100DF000F50D099400000000000000000000000054
:100E0000392D2A911A910A910EB42EBC640C721CD1
:100E1000821CDE01A0190D931D932D933D939A9092
:100E200000000EB42EBC640C721C821C039CF001EA
:100E3000F50D099400000000000000000000000013
:100E4000092D0250DE011A912A910EB42EBC640CB9
:100E5000721C821CA0191E932E93069518F40A90FA
:100E60000E9231F00A900E920A900E920A95D1F7E6
:100E70009A90D7CF000000000000000000000000A2
:100E80009992CF3F19F485E00E943418AFB6F894D8
:100E90002EBCAEB542E0640E721C821C0CD02EBC7F
:100EA000BEB5AFBE9C900AD07BCF00000000000012
:100EB000000000000000000000C0000008950000D5
:100EC0009992CE3F18F085E00E9434180000F89403
:100ED0002EBCAEB542E0640E721C821CECDF2EBC50
:100EE000BEB578940D919D900993C89559CF000097
:100EF00000000000000000000000000000000000F2
:100F00009992CC3F18F085E00E94341800C0AEB52D
:100F10002EBC42E0640E721C821CCCDFBEB52EBC1F
:100F20000D911D912D919D9009931993299359CF5E
:100F300000000000000000000000000000000000B1
:100F4000292D9A949C0EF8F2C895AEB52EBC42E0BD
:100F5000640E721C821CAEDFBEB52EBC269510F44A
:100F60000D9009920D9009920D9009922A95D1F752
:100F70009A9037CF00000000000000000000000041
:100F8000CF3F18F085E00E9434189992AFB6F894DC
:100F90002EBCAEB5AFBEB2E09C90640C721C821C3D
:100FA000C89500C0640C721CF8942EBC0EB47894E2
:100FB000821C039CF001F50D0994C895000008956A
:100FC000CE3F18F085E00E9434189992AFB6F8949D
:100FD0002EBCAEB5AFBEB2E09D9099929C90640CD1
:100FE000721C821C0000640C721CF8942EBC0EB49F
:100FF0007894821C039CF001F50D0994089500007B
:10100000CC3F18F085E00E9434189992B2E0640C4D
:10101000AEB52EBC721C821C9D9099929D909992A7
:101020009D9099929C900EB42EBC640C721C821CF4
:10103000039CF001F50D0994000000000000000081
:10104000C89500C0AFB6F8942EBCAEB512E0610EE4
:10105000721C821C30DF2EBCBEB5AFBE9C929A9033
:101060002DDF640C721CF8942EBC0EB47894821C94
:10107000039CF001F50D0994000000000000000041
:10108000C89500C0AFB6F8942EBCAEB512E0610EA4
:10109000721C821C10DF2EBCBEB5AFBE1A911D9310
:1010A0009D929A90C895640C721CF8942EBC0EB454
:1010B0007894821C039CF001F50D09940000000057
:1010C0002A911A910A91F8942EBCAEB5392D42E0BE
:1010D000640E721C821CF0DE2EBCBEB578940D939B
:1010E0001D932D933D939A900000640C721CF8940C
:1010F0002EBC0EB47894821C039CF001F50D09946B
:10110000C89500C0AFB6F8942EBCAEB5AFBE12E025
:10111000610E721C821CD0DEBEB52EBCA90DB21DA4
:10112000969410F40A900E920A900E920A900E92E3
:101130009A94D1F79A9048C0000000000000000087
:10114000292D1A910A91729A33E072983EBDA090AF
:101150005606B0905706A10EB21EADDEBEBCA5DE8F
:10116000AEBCA3DE0EBDA2DE2EBCA0DE9EB4729A83
:1011700072983EBD0C940818000000C0089500004D
:10118000292D1A910A9133E000001EB426C0640C88
:10119000721C821CC895C895C895AFB6F8942EBC31
:1011A0000EB4AFBE09921A941414A9F7E6DF9EB4E8
:1011B000729A72983EBD0C9408180000000000005E
:1011C000B92DAA919D9000C00EB42EBC640C721C67
:1011D000821C039CF001F50D0994729A33E0729819
:1011E0003EBDA0905606B0905706A10EB21E63DE1B
:1011F000BEBC5BDEAEBC59DE0EBD58DE2EBCC7CF1A
:10120000B92DAA911D9019929D900EB42EBC640C1C
:10121000721C821C039CF001F50D09940000000073
:1012200000000000000000000000000000000000BE
:1012300000000000000000000000000000000000AE
:10124000B92DAA912C2F640C721C821C0EB42EBCDA
:10125000200D20F1069410F49D9099929D90999202
:101260009D9099920A94D1F7CA950EB42EBC640C45
:10127000721C821C039CF001F50D09940000000013
:10128000B92DAA911A901C929A900EB42EBC640C9F
:10129000721C821C039CF001F50D099485E00E94EC
:1012A00034180000000000000000000000000000F2
:1012B000000000000000000000000000000000002E
:1012C000B92DAA911A900A909A900D921C920EB480
:1012D0002EBC640C721C821C039CF001F50D099459
:1012E00000000000000000000000000000000000FE
:1012F00000000000000000000000000000000000EE
:10130000B92DAA910000640C721C821C0EB42EBC74
:10131000A00DB21D069410F41A901E921A901E92FF
:101320001A901E920A94D1F79A900EB42EBC640CB7
:10133000721C821C039CF001F50D09940000000052
:10134000CA9598800000640C721CF8942EBC0EB4F0
:101350007894821C039CF001F50D099400000000B4
:10136000000000000000000000000000000000007D
:10137000000000000000000000000000000000006D
:10138000C25098800000640C721CF8942EBC0EB4FD
:101390007894821C039CF001F50D09940000000074
:1013A000000000000000000000000000000000003D
:1013B000000000000000000000000000000000002D
:1013C000C35098800000640C721CF8942EBC0EB4BC
:1013D0007894821C039CF001F50D0994000000C074
:1013E0000000000000000000000000000895000060
:1013F00000000000000000000000000000000000ED
:10140000C45098800000640C721CF8942EBC0EB47A
:101410007894821C039CF001F50D09944A91640FA5
:10142000751F6993972E0EB42EBC640C721C821C1F
:10143000039CF001F50D099400000000000000007D
:10144000C89500C0AFB6F8942EBC0EB4AFBE640C05
:10145000721C821CC0199880C89500C0640C721C54
:10146000F8942EBC0EB47894821C039CF001F50D08
:1014700009940000000000000000000000000000CF
:10148000492D640C721C821C00C0F8942EBC0EB452
:10149000AFBE401588F49A906A91640F921C6993CC
:1014A0000000640C721CF8942EBC0EB47894821C5C
:1014B000039CF001F50D099482E00E9434180000AD
:1014C000492D12E0610EC895F8942EBC0EB5721C21
:1014D000821C86DF2EBC1EB57894411768F7049FE6
:1014E0005A914A91040E151E0992912C00000EB4D7
:1014F0002EBC640C721C821C039CF001F50D099437
:10150000592D4A9100C0AFB6F8942EBC0EB514E028
:10151000610E721C821C66DF2EBC1EB560DF2EBC05
:101520002EB55DDF2EBC3EB5AFBE4217530720F689
:10153000049FB001059F700D149F700D5A916ECFDE
:10154000A92C9A90EA900FB6F8942EBC0EB5DA90BA
:1015500012E0610E721C821C47DF2EBC1EB50FBE4E
:10156000A11640F4A09ED00CE11C921CD992E992E5
:1015700000004CC182E00C94341800000000000010
:1015800035DF4EB52EBC15E0610E721C821CC92CD5
:10159000BA90AA902BDF5EB52EBCFA90EA90DA9052
:1015A00022DF0EB52EBC1ADF1EB52EBC17DF2EB5FE
:1015B0002EBCA016B106C206E8F60C94B3170000C4
:1015C0004A913A912A91F8942EBC0EB57894592DEF
:1015D00012E0610E721C821C4217530758F6049FDA
:1015E0009A918A912EBC1EB5B001680F791F059F94
:1015F000700D149F700D6993972E000007C10000B5
:101600000C94D01782E00C943418B00CC11C289FA5
:10161000C00C199FC00C301B410B920A9CF3B2E026
:101620006B0E721C821CA992B992C992399349938C
:10163000EDC0099319936993E9C000000000000010
:101640006A915A914A913A918EB52EBC2A911A917B
:101650000A9142175307B0F62617390598F2489FAA
:10166000000D111D9EB52EBC589F110D499F110DE7
:10167000641B950A3CF2B2E06B0E721C821CD9CF3F
:101680004A913A912A911A918EB52EBC0A91FA90FC
:10169000EA90DA90CA90BA90AA900D151E052F050F
:1016A00020F59EB52EBCD316E406F904F0F0089F91
:1016B000A00CB11CC21C189FB00CC11C099FA5CF67
:1016C0009992CE3F18F085E00E943418AFB6F89496
:1016D0002EBC0EB4AFBE640C721C821C8E010019AD
:1016E0000993912E00C000C091C082E00C94341880
:1016F000C8950000089500000000000000000000F0
:101700009992CE3F18F085E00E943418AFB6F89455
:101710002EBC0EB4AFBE640C721C821C12E0099287
:10172000912E00C00FC0000000000000000000006B
:1017300000000000000000000000000000000000A9
:101740009394C895640C721CF8942EBC0EB47894D3
:10175000821C039CF001F50D0994000000000000BC
:101760000000000000000000000000000000000079
:101770000000000000000000000000000000000069
:101780009A940000DFCF000000000000000000007D
:101790000000000000000000000000000000000049
:1017A0000000000000000000000000000000000039
:1017B0000000000000000000000000000000000029
:1017C00000C0DE011196AFB6F8942EBC0EB4AFBEC9
:1017D000640C721C821CA0190C9003940C9200C023
:1017E000640C721CF8942EBC0EB47894821C039C7A
:1017F000F001F50D09940000000000000000000059
:10180000B92DAA910D91902E03950E930EB42EBC76
:10181000640C721C821C039CF001F50D09940000FD
:1018200000000000000000000000000000000000B8
:1018300000000000000000000000000000000000A8
:10184000B92DAA910D911D910993912E040D121D90
:101850001E930E930EB42EBC640C721C821C039C4F
:10186000F001F50D099400000000000000000000E8
:101870000000000000000000000000000000000068
:10188000CE3F18F085E00E943418B92DAA910D9131
:101890001D912D9109931993922E040D121D221D55
:1018A0002E931E930E930EB42EBC640C721C821CDD
:1018B000039CF001F50D09940000000000000000F9
:1018C000CD3F18F085E00E943418B92DAA910D91F2
:1018D0001D912D913D91099319932993932E040DF8
:1018E000121D221D321D3E932E931E930E930EB495
:1018F0002EBC640C721C821C039CF001F50D099433
:10190000B92DAA910D91902E0A950E930EB42EBC6E
:10191000640C721C821C039CF001F50D09940000FC
:1019200000000000000000000000000000000000B7
:1019300000000000000000000000000000000000A7
:10194000B92DAA910D911D910993912E0419120997
:101950001E930E930EB42EBC640C721C821C039C4E
:10196000F001F50D099400000000000000000000E7
:101970000000000000000000000000000000000067
:10198000CE3F18F085E00E943418B92DAA910D9130
:101990001D912D9109931993922E04191209220970
:1019A0002E931E930E930EB42EBC640C721C821CDC
:1019B000039CF001F50D09940000000000000000F8
:1019C000CD3F18F085E00E943418B92DAA910D91F1
:1019D0001D912D913D91099319932993932E0419EB
:1019E0001209220932093E932E931E930E930EB4D0
:1019F0002EBC640C721C821C039CF001F50D099432
:101A0000CD3F18F085E00E943418B92DAA916D9150
:101A10007D918D919D91699379938993992E8D01F3
:101A2000112420E030E040E85FE30E94DB30D80181
:101A30009E938E937E936E93DACF00000000000099
:101A4000CD3F18F085E00E943418B92DAA916D9110
:101A50007D918D919D91699379938993992E8D01B3
:101A6000112420E030E040E85FE30E94DA30D80142
:101A70009E938E937E936E93BACF00000000000079
:101A8000EA909E0C0000640C721CF8942EBC0EB4FC
:101A90007894821C039CF001F50D0994000000006D
:101AA0000000000000000000000000000000000036
:101AB0000000000000000000000000000000000026
:101AC000AA90FA90EA90AE0C9F1CA9920EB42EBC7C
:101AD000640C721C821C039CF001F50D099400003B
:101AE00000000000000000000000000000000000F6
:101AF00000000000000000000000000000000000E6
:101B0000BA90AA900A91FA90EA90AE0CBF1C901E6F
:101B1000A992B9920EB42EBC640C721C821C039C58
:101B2000F001F50D09940000000000000000000025
:101B300000000000000000000000000000000000A5
:101B4000CA90BA90AA901A910A91FA90EA90AE0CB3
:101B5000BF1CC01E911EA992B992C9920EB42EBC90
:101B6000640C721C821C039CF001F50D09940000AA
:101B70000000000000000000000000000000000065
:101B8000EA90E9189E2C640C721CF8942EBC0EB4DA
:101B90007894821C039CF001F50D0994000000006C
:101BA0000000000000000000000000000000000035
:101BB0000000000000000000000000000000000025
:101BC000AA90FA90EA90EA18F908E9929F2C0EB4CC
:101BD0002EBC640C721C821C039CF001F50D099450
:101BE00000000000000000000000000000000000F5
:101BF00000000000000000000000000000000000E5
:101C0000BA90AA900A91FA90EA90EA18FB0809099A
:101C1000E992F992902E0EB42EBC640C721C821CB8
:101C2000039CF001F50D0994000000000000000085
:101C300000000000000000000000000000000000A4
:101C4000CA90BA90AA901A910A91FA90EA90EA186A
:101C5000FB080C091909E992F9920993912E0EB427
:101C60002EBC640C721C821C039CF001F50D0994BF
:101C70000000000000000000000000000000000064
:101C8000FA90EA90E90CF21CE9929F2C0EB42EBC5B
:101C9000640C721C821C039CF001F50D0994000079
:101CA0000000000000000000000000000000000034
:101CB0000000000000000000000000000000000024
:101CC0000A91FA90EA90E90CF21C021DE992F9924D
:101CD000902E0EB42EBC640C721C821C039CF0016E
:101CE000F50D099400000000000000000000000055
:101CF00000000000000000000000000000000000E4
:101D0000FA90EA90E918F208E9929F2C0EB42EBCE2
:101D1000640C721C821C039CF001F50D09940000F8
:101D200000000000000000000000000000000000B3
:101D300000000000000000000000000000000000A3
:101D4000FA90EA90E99C9001F99C300D2993932E2A
:101D50000EB42EBC640C721C821C039CF001F50DA9
:101D600009940000000000000000000000000000D6
:101D70000000000000000000000000000000000063
:101D8000EA90E99C902C00C00EB42EBC640C721C2E
:101D9000821C039CF001F50D099400000000000076
:101DA0000000000000000000000000000000000033
:101DB0000000000000000000000000000000000023
:101DC000AA90FA90EA90EA9C9001E99C300DFA9C66
:101DD000300D2993932E0EB42EBC640C721C821C01
:101DE000039CF001F50D09940000000000000000C4
:101DF00000000000000000000000000000000000E3
:101E0000BA90AA900A91FA90EA90EA9C90010A9DF1
:101E1000902CFA9C300D911CEB9C300D911CFB9C7E
:101E2000900CE99C900C299339930EB42EBC640C51
:101E3000721C821C039CF001F50D09940000000047
:101E40000C946E170000000000000000000000006D
:101E50000000000000000000000000000000000082
:101E60000000000000000000000000000000000072
:101E70000000000000000000000000000000000062
:101E8000792D6A919A918A916215720519F483E00D
:101E90000E9434180E9445366993972E0EB42EBCCA
:101EA000640C721C821C039CF001F50D0994000067
:101EB0000000000000000000000000000000000022
:101EC000592D4A913A912A919A918A917A916A91DF
:101ED000221532054205520519F483E00E94341898
:101EE0008E010E94A930E801299339934993952ED8
:101EF000D5CF00000000000000000000000000003E
:101F0000792D6A919A918A916215720519F483E08C
:101F10000E9434180E9459366993972E0EB42EBC35
:101F2000640C721C821C039CF001F50D09940000E6
:101F300000000000000000000000000000000000A1
:101F4000592D4A913A912A919A918A917A916A915E
:101F5000221532054205520519F483E00E94341817
:101F60008E010E947D30E801299339934993952E83
:101F7000D5CF0000000000000000000000000000BD
:101F8000792D6A919A918A916215720519F483E00C
:101F90000E9434180E9445368993992E0EB42EBCA7
:101FA000640C721C821C039CF001F50D0994000066
:101FB0000000000000000000000000000000000021
:101FC000592D4A913A912A919A918A917A916A91DE
:101FD000221532054205520519F483E00E94341897
:101FE0008E010E94A930E801699379938993992E13
:101FF000D5CF00000000000000000000000000003D
:10200000792D6A919A918A916215720519F483E08B
:102010000E9434180E9459368993992E0EB42EBC12
:10202000640C721C821C039CF001F50D09940000E5
:1020300000000000000000000000000000000000A0
:10204000592D4A913A912A919A918A917A916A915D
:10205000221532054205520519F483E00E94341816
:102060008E010E947D30E801699379938993992EBE
:10207000D5CF0000000000000000000000000000BC
:10208000492D0A914830A0F442FD029542FD007F9F
:1020900041FD000F41FD000F40FD000F902E0EB4DA
:1020A0002EBC640C721C821C039CF001F50D09947B
:1020B0009924F5CF0000000000000000000000009F
:1020C000492D1A910A914830A1F0403128F0299207
:1020D000992406C0000F111F4A95E2F70993912E2B
:1020E0000EB42EBC640C721C821C039CF001F50D16
:1020F00009942992902EF4CF000000000000000007
:10210000492D3A912A911A910A91403248F0299228
:102110002992299299240AC0000F111F221F331FF0
:102120004A95D2F7099319932993932E0EB42EBC96
:10213000640C721C821C039CF001F50D09940000D4
:10214000492D0A914830A0F442FD029542FD0F70DE
:1021500041FD069541FD069540FD0695902E0EB475
:102160002EBC640C721C821C039CF001F50D0994BA
:10217000922CF5CF000000000000000000000000DD
:10218000492D1A910A91403128F02992922C06C0CB
:10219000169507954A95E2F70993912E0EB42EBC39
:1021A000640C721C821C039CF001F50D0994000064
:1021B000000000000000000000000000000000001F
:1021C000492D3A912A911A910A91403248F0299268
:1021D00029922992922C0AC0369527951795079532
:1021E0004A95D2F7099319932993932E0EB42EBCD6
:1021F000640C721C821C039CF001F50D0994000014
:10220000492D0A91473030F050E007FD5FEF952EE1
:1022100004C005954A95EAF7902E0EB42EBC640CC6
:10222000721C821C039CF001F50D09940000000053
:10223000000000000000000000000000000000009E
:10224000492D1A910A91403140F050E017FD5FEF9F
:102250005993952E06C0159507954A95E2F709936F
:10226000912E0EB42EBC640C721C821C039CF001D7
:10227000F50D0994000000000000000000000000BF
:10228000492D3A912A911A910A91403260F050E01A
:1022900027FD5FEF599359935993952EE2CF3595CA
:1022A0002795179507954A95D2F70993199329937E
:1022B000932ED7CF000000000000000000000000B7
:1022C000EA909E200000640C721CF8942EBC0EB4A0
:1022D0007894821C039CF001F50D09940000000025
:1022E00000000000000000000000000000000000EE
:1022F00000000000000000000000000000000000DE
:10230000AA90FA90EA90AE209F20A9920EB42EBC1B
:10231000640C721C821C039CF001F50D09940000F2
:1023200000000000000000000000000000000000AD
:10233000000000000000000000000000000000009D
:10234000CA90BA90AA901A910A91FA90EA90AE2097
:10235000BF20C0229122A992B992C9920EB42EBC7C
:10236000640C721C821C039CF001F50D09940000A2
:10237000000000000000000000000000000000005D
:10238000EA909E280000640C721CF8942EBC0EB4D7
:102390007894821C039CF001F50D09940000000064
:1023A000000000000000000000000000000000002D
:1023B000000000000000000000000000000000001D
:1023C000AA90FA90EA90AE289F28A9920EB42EBC4B
:1023D000640C721C821C039CF001F50D0994000032
:1023E00000000000000000000000000000000000ED
:1023F00000000000000000000000000000000000DD
:10240000CA90BA90AA901A910A91FA90EA90AE28CE
:10241000BF28C02A912AA992B992C9920EB42EBCA3
:10242000640C721C821C039CF001F50D09940000E1
:10243000000000000000000000000000000000009C
:10244000EA909E240000640C721CF8942EBC0EB41A
:102450007894821C039CF001F50D099400000000A3
:10246000000000000000000000000000000000006C
:10247000000000000000000000000000000000005C
:10248000AA90FA90EA90AE249F24A9920EB42EBC92
:10249000640C721C821C039CF001F50D0994000071
:1024A000000000000000000000000000000000002C
:1024B000000000000000000000000000000000001C
:1024C000CA90BA90AA901A910A91FA90EA90AE2412
:1024D000BF24C0269126A992B992C9920EB42EBCEF
:1024E000640C721C821C039CF001F50D0994000021
:1024F00000000000000000000000000000000000DC
:102500009094C895640C721CF8942EBC0EB4789408
:10251000821C039CF001F50D0994000000000000EE
:1025200000000000000000000000000000000000AB
:10253000000000000000000000000000000000009B
:10254000AA90A0949094A99200000EB42EBC640CA2
:10255000721C821C039CF001F50D09940000000020
:10256000000000000000000000000000000000006B
:10257000000000000000000000000000000000005B
:10258000CA90BA90AA90A094B094C0949094A99242
:10259000B992C9920EB42EBC640C721C821C039CAE
:1025A000F001F50D0994000000000000000000009B
:1025B000000000000000000000000000000000001B
:1025C00000E0921001E0902E640C721CF8942EBC76
:1025D0000EB47894821C039CF001F50D0994000060
:1025E00000000000000000000000000000000000EB
:1025F00000000000000000000000000000000000DB
:102600001A90912800E0921001E0902E0EB42EBC9A
:10261000640C721C821C039CF001F50D09940000EF
:1026200000000000000000000000000000000000AA
:10263000000000000000000000000000000000009A
:10264000AA90A928BA90AB289924A210942C0EB471
:102650002EBC640C721C821C039CF001F50D0994C5
:10266000000000000000000000000000000000006A
:10267000000000000000000000000000000000005A
:10268000AA90A928BA90AB28BA90AB289924A21096
:10269000942C0EB42EBC640C721C821C039CF001A2
:1026A000F50D09940000000000000000000000008B
:1026B000000000000000000000000000000000001A
:1026C000EA9021E0E91408F020E0922E0EB42EBC2E
:1026D000640C721C821C039CF001F50D099400002F
:1026E00000000000000000000000000000000000EA
:1026F00000000000000000000000000000000000DA
:10270000AA90FA90EA90EA14F90450F099240EB4D1
:102710002EBC640C721C821C039CF001F50D099404
:10272000942C0EB42EBC640C721C821C039CF00111
:10273000F50D0994000000000000000000000000FA
:10274000BA90AA900A91FA90EA90EA14FB0409055B
:1027500050F099240EB42EBC640C721C821C039C95
:10276000F001F50D0994942C0EB42EBC640C721C6F
:10277000821C039CF001F50D09940000000000008C
:10278000CA90BA90AA901A910A91FA90EA90EA1423
:10279000FB040C05190550F099240EB42EBC640CF2
:1027A000721C821C039CF001F50D0994942C0EB44C
:1027B0002EBC640C721C821C039CF001F50D099464
:1027C000EA9021E0E9140CF020E0922E0EB42EBC29
:1027D000640C721C821C039CF001F50D099400002E
:1027E00000000000000000000000000000000000E9
:1027F00000000000000000000000000000000000D9
:10280000AA90FA90EA90EA14F90454F099240EB4CC
:102810002EBC640C721C821C039CF001F50D099403
:10282000942C0EB42EBC640C721C821C039CF00110
:10283000F50D0994000000000000000000000000F9
:10284000BA90AA900A91FA90EA90EA14FB0409055A
:1028500054F099240EB42EBC640C721C821C039C90
:10286000F001F50D0994942C0EB42EBC640C721C6E
:10287000821C039CF001F50D09940000000000008B
:10288000CA90BA90AA901A910A91FA90EA90EA1422
:10289000FB040C05190554F099240EB42EBC640CED
:1028A000721C821C039CF001F50D0994942C0EB44B
:1028B0002EBC640C721C821C039CF001F50D099463
:1028C000592D4A913A912A919A918A917A916A91D5
:1028D00011240E94B431942C811199240EB42EBC81
:1028E000640C721C821C039CF001F50D099400001D
:1028F00000000000000000000000000000000000D8
:10290000592D4A913A912A919A918A917A916A9194
:1029100011240E94B431881F8827881F982E0EB476
:102920002EBC640C721C821C039CF001F50D0994F2
:102930000000000000000000000000000000000097
:1029400001E0921000E0902E640C721CF8942EBCF2
:102950000EB47894821C039CF001F50D09940000DC
:102960000000000000000000000000000000000067
:102970000000000000000000000000000000000057
:10298000592D4A913A912A919A918A917A916A9114
:1029900011240E94DB30699379938993992E0EB4A8
:1029A0002EBC640C721C821C039CF001F50D099472
:1029B0000000000000000000000000000000000017
:1029C000592D4A913A912A919A918A917A916A91D4
:1029D00011240E94DA30699379938993992E0EB469
:1029E0002EBC640C721C821C039CF001F50D099432
:1029F00000000000000000000000000000000000D7
:102A0000592D4A913A912A919A918A917A916A9193
:102A100011240E941034699379938993992E0EB4EE
:102A20002EBC640C721C821C039CF001F50D0994F1
:102A30000000000000000000000000000000000096
:102A4000592D4A913A912A919A918A917A916A9153
:102A500011240E94BB31699379938993992E0EB406
:102A60002EBC640C721C821C039CF001F50D0994B1
:102A70000000000000000000000000000000000056
:102A8000992D8A917A916A9111240E942332699337
:102A900079938993992E0EB42EBC640C721C821CFF
:102AA000039CF001F50D09940000000000000000F7
:102AB0000000000000000000000000000000000016
:102AC000992D8A917A916A9111240E9428326993F2
:102AD00079938993992E0EB42EBC640C721C821CBF
:102AE000039CF001F50D09940000000000000000B7
:102AF00000000000000000000000000000000000D6
:102B0000992D8A917A916A9111240E945632699383
:102B100079938993992E0EB42EBC640C721C821C7E
:102B2000039CF001F50D0994000000000000000076
:102B30000000000000000000000000000000000095
:102B4000992D8A917A916A9111240E945432699345
:102B500079938993992E0EB42EBC640C721C821C3E
:102B6000039CF001F50D0994000000000000000036
:102B7000000000C000C00895000000000000000038
:102B8000192C23E0620E721C9A90F8942EBC0EB59C
:102B9000821CECDF2EBC1EB57894EBDF121431F4EE
:102BA00038018EB4729A72982EBD32C22EBCE1DF0B
:102BB000CBCE00000000000000000000000000007C
:102BC000640C721C821C921471F423E0092D0EB463
:102BD000729A72982EBD9A90102C110C1108600CEC
:102BE000711C811C18C29A902EBCC3DFADCE0000B0
:102BF00000000000000000000000000000000000D5
:102C0000192C23E0620E721C9A90F8942EBC0EB51B
:102C1000821CACDF2EBC1EB57894ABDF121431F0F1
:102C200038018EB4729A72982EBDF2C12EBCA1DF0B
:102C30008BCE00000000000000000000000000003B
:102C4000640C721C821C921471F023E0092D0EB4E6
:102C5000729A72982EBD9A90102C110C1108600C6B
:102C6000711C811CD8C19A902EBC83DF6DCE0000F0
:102C70000000000000000000000000000000000054
:102C800023E0620E721C821C00C0F8942EBC0EB5AC
:102C90006CDF2EBC1EB578946CDF921431F43801D1
:102CA0008EB4729A72982EBDB3C12EBC9A9062DF18
:102CB0004BCE0000000000000000000000000000FB
:102CC000640C721C821C23E0921461F400000EB4A8
:102CD000729A72982EBD102C110C1108600C711C88
:102CE000811C99C12EBC9A9045DF2ECE00000000B9
:102CF00000000000000000000000000000000000D4
:102D000003E0600E721C821C00C0F8942EBC0EB54D
:102D10002CDF2EBC1EB578942CDF921431F03801D4
:102D20008EB4729A72982EBD73C12EBC9A9022DF17
:102D30000BCE0000000000000000000000000000BA
:102D4000640C721C821C23E0921461F000000EB42B
:102D5000729A72982EBD102C110C1108600C711C07
:102D6000811C59C12EBC9A9005DFEECD00000000F9
:102D70000000000000000000000000000000000053
:102D8000C89500C0AFB6F8942EBC6EB423E0EEDE5A
:102D90002EBC7EB4AFBEEADE8EB4729A72982EBD9F
:102DA00037C100000000000000000000000000002B
:102DB0000000000000000000000000000000000013
:102DC000C895C89523E00EB4729A72982EBD0394EC
:102DD000102C110C1108600C711C811C1CC186E0A8
:102DE00043D10000000000000000000000000000CF
:102DF00000000000000000000000000000000000D3
:102E0000A0913406AD3258F7B6E0AFB6F8942EBCB8
:102E10000EB403E0060D602C721C821C0D937D9293
:102E20008D9200C000C02EBC7EB4AFBEA09334060D
:102E3000A0DE23E08EB4729A72982EBDE9C0000025
:102E4000A0913406AD32A8F4B6E0640C721C821C6A
:102E50006D927D928D92A09334060EB423E0729A07
:102E600072982EBD102C110C1108600C711C811C65
:102E7000D2C086E0F9D00000000000000000000091
:102E8000A0913406B6E08E9023E0729A72982EBD1F
:102E90007E906E90A0933406BEC00000000000003B
:102EA0000000000000000000000000000000000022
:102EB0000000000000000000000000000000000012
:102EC000ECEEF1E3640C721C821C00C00EB42EBC4C
:102ED000E00DF21D0590F491E02D2EC0CA90BA903D
:102EE000AA901A910A91FA90EA90EA9C90010A9DA0
:102EF000A001FA9C300D411D521DEB9C300D411D6F
:102F0000521DFB9C400D511DEC9C400D511D1A9D06
:102F1000500D0B9D500DFC9C500DE99C500D2993BC
:102F200039934993952E0EB42EBC640C721C821CEE
:102F3000039CF001F50D09946092310670923206FF
:102F4000809233069992C093300611240995C0915E
:102F500030069A900EB42EBC640C721C821C039C2A
:102F6000F001F50D0994A49ED00CE11CF21CA59E65
:102F7000E00CF11CB49EE00CF11CB59EF00CC49E5C
:102F8000F00CD992E9929F2C0EB42EBC640C721CEA
:102F9000821C039CF001F50D099400C0C8950895AA
:102FA000C89500C04EB52EBC12E0610E721C821C8A
:102FB000F4DF5EB52EBCC92CBA90AA902A911A9162
:102FC0000A919A90EA90DA90A016B106C206C8F467
:102FD000A49ED00CE11C921CA59EE00C911CB49EFA
:102FE000E00C911CB59E900CC49E900CD992E99275
:102FF0000EB42EBC640C721C821C039CF001F50DF7
:10300000099482E031D0729A23E072982EBD00C0FC
:1030100000C000C0000000914B060430C8F00091D1
:10302000560610915706070D181D1EBD17D00EBD70
:1030300015D06EBC14D02EBC13D0640C721CF89446
:103040002EBC0EB47894821C039CF001F50D0994FB
:10305000112407D0729A0E948326D6CF0000C8950B
:1030600000C0C89500000895609231067092320643
:10307000809233069992C093300611240E94BF2794
:103080000C940000000000000000000000000000A0
:103090000000000000000000000000000000000030
:1030A0000000000000000000000000000000000020
:1030B0000000000000000000000000000000000010
:1030C0000000000000000000000000000000000000
:1030D00000000000000000000000000000000000F0
:1030E00000000000000000000000000000000000E0
:1030F00000000000000000000000000000000000D0
:103100004E6F20666F6E742073657420666F722038
:1031100074657874206F7065726174696F6E0053A6
:10312000697A6573206F66206D656D6370792064C0
:1031300073742F73726320646966666572005370DE
:1031400072697465206672616D65206F757473694C
:103150006465206F66207365740043616C6C207336
:103160007461636B206F766572666C6F7700446183
:10317000746120737461636B206F766572666C6F27
:103180007700417373657274696F6E206661696C54
:103190006564004469766973696F6E206279207A8C
:1031A00065726F00417272617920696E6465782082
:1031B0006F7574206F6620626F756E64730047616F
:1031C0006D652064617461206E6F7420666F756E2A
:1031D0006400BE31A431933182316E315A313E31B7
:1031E0001F31003100004552524F52002C2127213F
:1031F000F51D201EEB1DE11D331D7722291D5C1CD2
:10320000CE213F2E3D2E852D202D092CD92C7F2C13
:103210002127A41B9B1B4A1CE42B491C471CEF20A5
:10322000412E461CDB2BCA2BBA2BAB2B9C2B312AF5
:10323000672C3A2CFB292E29642B0E2BAA2ACC2989
:103240007F29F52032269D2AE2259A2AFA25702A1E
:1032500006274F2A251C1A1C0F1CFE1BF31BE81BFC
:10326000DD1BCC1BBB1BB01B2E2AFC262C2AB9262F
:103270001700030C00000000994C000003002E0210
:10328000D1010000C411100184101000980C2E3AD6
:10329000F243B94AB12A877CB726AE22211FAA2A57
:1032A000A23A0A00500184284A298A10A10A000083
:1032B000BE78BF2A2E463F3ABF46BF042E669F7C8B
:1032C000F147F1019F6C1F425F7C3F783F7EBF0852
:1032D0002E7ABF68B226E1071F7E071F1F7D9B6CF9
:1032E000833EB94E3F028360F10322081042410041
:1032F0004C7A5F324C4A4C7E4C53BE00D6035F7012
:103300001D00B0019F681F009E785E704C325E11F8
:1033100044799E0856034F020E7A061B1E79924985
:10332000823ADA02C47D0000DF11D5F08D14A1C805
:1033300081CFD9F1AF20000000FFFFFFFFFFFFFFAB
:10334000FFFFFFFFFFFFFFFFFFFFFFFFFF19FDE490
:10335000EE7CE1D4D4E2C89CBDF7B2ECA8719F7EAC
:10336000960C8E13868C7E7277BE706A6A7164CEFC
:103370005E7C597654B84F3F4B06470943463FB9E8
:103380003B5F3835353832672FBE2C3B2ADC279F10
:103390002583238521A31FDD1D2F1C9A1A1C19B319
:1033A000175F161D15EE13D012C111C210D20FEE09
:1033B0000E180E4D0D8E0CDA0B2F0B8F0AF70968C5
:1033C00009E1086108E90777070C07A7064706ED3A
:1033D0000598054705FC04B40470043104F403BCEB
:1033E00003860353032403F602CC02A4027E025A8E
:1033F0000238021802FA01DE01C301AA0192017B20
:1034000001660152013F012D011C010C0100010068
:1034100001000100010001000100010001000100A4
:103420000100010001000100010001000100010094
:103430000100010001000100010011241FBECFEFB7
:10344000DAE0DEBFCDBF16E0ADE3B6E0EEEEFCE6BF
:1034500002C005900D92A234B107D9F72AE0A2E488
:10346000B6E001C01D92AD35B207E1F70E949B2E78
:103470000C9475360C940000E5E0F0E010D0319724
:1034800028F068517C4F8F4F9F4FF9CFAB01FC0163
:1034900006D0641775078E079F07D0F30895A2E53D
:1034A000B6E02FB7F8947D918D919C9166B52FBFB2
:1034B000A89B05C06F3F18F47F5F8F4F9F4F22E09E
:1034C000660F771F881F991F2A95D1F708959C01D1
:1034D000E0E0F2E0A0E0B0E0BD0180E045D039D00E
:1034E000BD011296A20FB31F82179307A9F38F5F36
:1034F0009F4F21F4AF5FBF40DB0160F01AD140E085
:1035000050915B0A60915C0A80E226D0729AEFD0FB
:10351000A0E0B0E07CEF0DD14A2F50915B0A5B0F29
:1035200060915C0A611D82E017D0832F71FD822FAC
:1035300070FD819124D0759518F42150304019F018
:103540001196AA2391F7729AD2D02115310519F755
:10355000089539D0982F3DC0729811D0862F0FD082
:10356000852F0DD0842F0BC0462F50915B0A570F2B
:1035700060915C0A681F83E0EFDF1EBC08958EBD7A
:1035800000008EB50DB407FEFCCF0895E0E0F2E038
:10359000DC0160E070E080E0E7DF9D01AF0160E00A
:1035A0000FD08217930749F4D901FA0160E00BD0DC
:1035B00081931197E1F761E0F3CF0BD0862F089547
:1035C00002D0982F00C00DB407FEFDCF8EB51EBCF3
:1035D00008950DB407FEFDCF8EB5729A08950F932E
:1035E0001F93CF93DF93809164008E7F809364005C
:1035F00080917A00806480937A0080917A0086FDC1
:10360000FCCFC0917800D091790049DFAB01BC01BB
:1036100080916400816080936400CE01B0E0A0E0FE
:10362000DC01992788278C019D01040F151F261F97
:10363000371FC901B801DF91CF911F910F910895F4
:103640008FB18095807F669B88601C9B8460089505
:1036500081E083BF889513BE089510925A0A3E9860
:103660003F9808953E9A3F9A81E080935A0A0895C0
:103670009091590A982329F49091580A982381E04F
:1036800009F480E008958091580A8093590AD8DFA0
:103690008093580A089580389105B8F46034710514
:1036A000A0F490E121E061FD24E060FD220F62FDC5
:1036B0002295687F969FD0011124A80FA85AB94F70
:1036C0000C90022A40FF02260C9208955E98E8E5CD
:1036D000F6E0A0E0B8E000800EBC8111012C11974B
:1036E000A0FDFDCF0192B9F70DB45E9A08957298CE
:1036F00085E045DF80E043DF80FDFCCF729A0895CE
:10370000FC016150704019F05EDF8193FACF61DFF8
:1037100080830895462F50915606570F60915706A3
:10372000681F83E019DF1EBC0895729828DF729A23
:10373000089586E0FACF8A91C093300696E0811111
:1037400094E09093390608958A9180933C068A917B
:1037500080933B068A9180933A06C0933006089581
:103760009A918A917A916A910E94E9346993799346
:103770008993999308959A918A917A916A915A912D
:103780004A913A912A910E9473346993799389936B
:103790009993C093300608959A918A917A916A918B
:1037A0005A914A913A912A910E94AB326993799346
:1037B00089939993C093300608959A918A917A914A
:1037C0006A910E94BF34699379938993999308957C
:1037D0009A918A917A916A910E94A1316993799321
:1037E0008993999308959A918A917A916A910E9406
:1037F0009132699379938993999308959A918A91D3
:103800007A916A915A914A913A912A910E944E3145
:103810006993799389939993C093300608959A9107
:103820008A917A916A910E942A3569937993899352
:10383000999308959A918A917A916A910E94B831E8
:10384000699379938993999308959A918A917A913A
:103850006A910E94DF3469937993899399930895CB
:103860008093F1000895E0914206F0914306628151
:1038700073816115710521F0615071096283738351
:10388000A081B1818D93A083B1830895FCCE9895DA
:103890000895DECEE0913006F1E06291E0933006CB
:1038A000653040F070E080E094E00E94453660931F
:1038B000360608956FEFFBCF2F923F925F926F9283
:1038C0007F928F929F92AF92BF92CF92DF92EF92B0
:1038D000FF920F931F93CF93DF93CDB7DEB7C65000
:1038E000CDBFE0913006F1E082919291E92EF82E61
:1038F00082919291092F182F22915290E0933006D5
:10390000822F90E09E838D8381E090E05C012D8189
:103910003E81A21AB30AC9019195819591099C0132
:10392000220F331F3A8329836D817E81600F711FBF
:10393000452DC701B0DEB8018D819E81681B790BD2
:10394000452DC701A8DE452DB8018D819E818E0DC4
:103950009F1DA1DE452DB801C7012D813E81821B2F
:10396000930B99DED12CC12C81E090E09C838B835A
:103970002D813E81C216D3060CF057C0B7FC0BC098
:10398000215031093E832D8389819A8102969A8341
:103990008983A80EB91E9FEFC91AD90A2B813C81D1
:1039A0002E5F3F4F3C832B83A20EB31E36016E0C5D
:1039B0007F1C452D8D809E80800E911EB401C30119
:1039C0006ADE17012C183D08452DB401C10163DEE4
:1039D000452D48018D819E81881A990AB401C30141
:1039E0005ADE452DB401C10156DE48018C0C9D1CE8
:1039F000452DB4016D807E806E0C7F1CC3014BDEB3
:103A0000452DB40117012D813E81221A330AC101CF
:103A100042DE48018C189D08452DB401C3013BDEF0
:103A2000452DB401C10137DEA3CFCA5FCDBFDF9101
:103A3000CF911F910F91FF90EF90DF90CF90BF90AB
:103A4000AF909F908F907F906F905F903F902F905E
:103A500008959A918A917A916A914A912A910A914C
:103A6000C0933006FEC32F923F924F925F926F92A7
:103A70007F928F929F92AF92BF92CF92DF92EF92FE
:103A8000FF920F931F93CF93DF93CDB7DEB7C35051
:103A9000CDBFE0913006F1E0829192919A838B83C1
:103AA00082919291092F182F82919291E92EF82EEE
:103AB00022913291832F922F22912983E093300615
:103AC0006C01C01AD10AD7FE03C0D194C194D108A9
:103AD00047012A813B81821A930A97FE03C0919481
:103AE000819491088C149D045CF43E2D2F2D7C0153
:103AF000832F922F3A812B811B830A83032F122F4E
:103B00002A813B81E216F3065CF4302F212F8C01D1
:103B1000832F922F3A812B81FB82EA82E32EF22EB1
:103B200017012A813B81221A330A2C01401A510ABB
:103B300057FE03C0519441945108310137FE03C030
:103B40003FEF631A730A759467940817190714F105
:103B50008FEFA82E880FBB088A819B81E816F90693
:103B6000DCF04981BC01C8018C149D041CF0B80133
:103B70008A819B8190DD6418750877FE04C00A0D68
:103B80001B1D620C731C2A813B812F5F3F4F3B83BF
:103B90002A83E2CF81E0DDCFCD5FCDBFDF91CF9132
:103BA0001F910F91FF90EF90DF90CF90BF90AF905B
:103BB0009F908F907F906F905F904F903F902F904D
:103BC00008959A918A917A916A9141E02A910A9195
:103BD000C093300646C39A918A917A916A914A912C
:103BE00021E00A91C09330063CC3E0913006F1E039
:103BF00082918291282F82918291482F47708695D9
:103C00008695869530E8839FC0011124885A994F84
:103C1000820F911DDC018C9190E021E030E0042EB8
:103C200002C0220F331F0A94E2F78223932302C0BB
:103C3000959587954A95E2F78193E093300608952C
:103C4000E0913006F1E092918291729162914291FD
:103C5000E093300620CD7298A3E0AEBDFC018191C7
:103C60009191A1914091560650915706490F5A1FC4
:103C700000C000C05EBD0ED04EBD0CD08EBD019602
:103C8000A11DA2939293829309D01EBC04D08EB53D
:103C9000729A08950000C895C895C89508952F9206
:103CA0003F924F925F926F927F928F929F92AF92CC
:103CB000BF92CF92DF92EF92FF920F931F93CF9319
:103CC000DF93CDB7DEB7C851CDBF9C8B8B8BE09116
:103CD0003006F1E0829192912291622E792E882E07
:103CE0008291929122912E879F87888BE093300654
:103CF000CE0101969A8B898B90E3592E6114710441
:103D0000810409F4FEC1CE010E96A5DF082F130130
:103D1000482C91E0291A31084108853229F0802F7A
:103D2000EB89FC89099516C0CE010E9694DF182FF9
:103D30001301482CF2E02F1A31084108843609F4A7
:103D400046C058F4833509F4B2C0833609F48AC0FA
:103D5000853229F3842C3101D1CF833709F489C00E
:103D600008F030C08636B1F7E0913006F1E082917C
:103D7000929122913291C32ED22EE92EF82ECD8A25
:103D8000DE8AEF8AF88EE0933006CE010E9663DF6E
:103D9000182F1301482CF3E02F1A31084108A7010E
:103DA0009601C701B6010E944A35882309F4CAC0AA
:103DB0008EE6EB89FC89099581E6EB89FC890995FA
:103DC0008EE6AECF853719F0883709F0C3CFE09182
:103DD0003006F1E08291929122913291A32EB22E7F
:103DE000C92ED82EE0933006CE010E9634DFF82E81
:103DF0001301482C83E0281A31084108183709F4C8
:103E00007AC0143609F08CC0D7FE8AC08DE2EB89E7
:103E1000FC890995D094C094B094A094A11CB11CC5
:103E2000C11CD11CFFECFF0E8AE08E010F5F1F4FFB
:103E3000682E712C912C812CC601B501A40193012F
:103E40000E94A93059016A0187E56A3008F480E3CD
:103E5000860FD8018D938D01FA94232B242B252BCB
:103E600059F757C0E0913006F1E00291E093300637
:103E700056CFE0913006F1E082919291E92EF82E32
:103E800082919291E0933006092F182FE114F104EA
:103E900009F460CFF80181918F01882309F45ACF8A
:103EA000EB89FC890995F1E0EF1AF108EFCFE09179
:103EB0003006F1E0829192912291C22ED92EE82E05
:103EC000829192912291E09330062B879C878D8777
:103ED000C114D104E10409F43DCFCE010B96BBDE41
:103EE000882309F437CFEB89FC890995F1E0CF1AD3
:103EF000D108E108EDCF80E1A114B104C104D104DF
:103F000089F48E010F5F1F4FD8015D928D01BFECC8
:103F1000FB0E1F1454F4F80151928F01FA94F9CF5B
:103F20008AE0EACFE0EDFE0E80CF89899A8980177A
:103F3000910709F40FCFF80182918F01EB89FC8979
:103F40000995F3CFE894F7F82FEF3FEF4FE75FE7DE
:103F5000C701B6010E944A35811114C02FEF3FEF0F
:103F60004FE75FE7C701B6010E94B431181654F459
:103F700089E6EB89FC8909958EE6EB89FC89099530
:103F800086E6CECE2FEF3FEF4FE75FE46D897E8967
:103F90008F89988D0E940534181664F02FEF3FEF3B
:103FA0004FE75FEC6D897E898F89988D0E94B431CF
:103FB00087FF06C08FE6EB89FC89099586E7DDCF90
:103FC00020E030E0A9016D897E898F89988D0E945B
:103FD000B43187FF0DC08DE2EB89FC8909958D898D
:103FE0009E89AF89B88DB0588D8B9E8BAF8BB88F63
:103FF00080ED782E710E10E060E070E080E09FE3CD
:10400000171540F42DEC3CEC4CEC5DE30E941034B1
:104010001F5FF6CF2D893E894F89588D0E94DB3076
:104020006B017C010E9428324B015C010E945432DA
:104030009B01AC01C701B6010E94DA306B017C0123
:1040400081149104A104B10491F48E010F5F1F4FFC
:10405000D8015D928D01E989FA89E017F10731F104
:10406000F80182918F01EB89FC890995F4CF612CCD
:104070008E010F5F1F4FC501B4012AE030E040E020
:1040800050E00E94A93049015A01605DF801619336
:104090008F016A9481149104A104B10461F716148C
:1040A000D4F6D8015D928D016A94F9CF772009F496
:1040B00051CE8EE2EB89FC8909957A9477FC4ACE41
:1040C00020E030E040E251E4C701B6010E94103424
:1040D0004B015C010E942832162F80E3810FEB898F
:1040E000FC890995612F70E090E080E00E945632D3
:1040F0009B01AC01C501B4010E94DA306B017C0167
:10410000DCCFC85ECDBFDF91CF911F910F91FF90A3
:10411000EF90DF90CF90BF90AF909F908F907F9067
:104120006F905F904F903F902F90089583E072982A
:104130008EBD00914B06043028F4112411D0729AE0
:10414000E2D5F4CF409131065091320660913306AA
:104150008091560690915706580F691F6EBD07C093
:104160000000000000C0000000C0C8950895FADFFC
:104170005EBDF6DF4EBDF5DF1EBCF5CF93E0729855
:104180009EBD40913A0650913B0660913C0697E0F7
:10419000899F400D511D1124611DDADF00C000C050
:1041A0008EB5729A089593E072989EBD40913A063A
:1041B00050913B0660913C0697E0590F611DC8DFA6
:1041C00000C000C08EB5729A089593E072989EBDAB
:1041D000AB01682FC89500C0BBDF00000895F9D976
:1041E00080E39CE15CDDA2CF0895EF92FF920F93F4
:1041F0001F93CF93DF93CDB7DEB7C450CDBFE0910F
:104200003006F1E012910291F290E290E0933006D4
:10421000E0D9E982FA820B831C83CE010196909348
:1042200043068093420683E39CE139DD8B819C81C8
:10423000892B19F0E981FA81108278DFCC5FCDBF3C
:10424000DF91CF911F910F91FF90EF900895C1D909
:1042500080E03CDA6BCF0895BCD981E037DA66CFD5
:1042600008950F93803891050CF096C06034710565
:104270000CF092C0FC01E40FF11D1E161F060CF09D
:104280008BC0FB01E20FF11D1E161F060CF084C04F
:10429000442309F481C0222309F47EC000FD0FEFFE
:1042A000A82F362F77FF02C0260F30E097FF02C0FD
:1042B000480FA0E090E89A1B491708F4942F80E477
:1042C000831B281708F4822F830F41E031FD44E05F
:1042D00030FD440F32FD4295419551E081FD54E09F
:1042E00080FD550F82FD52955195742F7095652F65
:1042F00060958150232F269526952695869586953F
:104300008695E8E5F6E030E8239FE00DF11D1124E5
:10431000EA0FF11D821B40FD8F5F50FD8F5F30E87B
:10432000391B242F2023462F4023882319F4572B91
:1043300042232CC0772349F0A92F00800722022AAC
:104340000192AA95D1F7E30FF11D8A95E9F0A92F03
:10435000A77081F4A92F0193019301930193019315
:10436000019301930193A850B1F7E30FF11D8A95D2
:1043700071F70AC00193AA95E9F7A92FA87F59F709
:10438000E30FF11D8A9519F7662331F000800522AD
:10439000042A01929A95D1F70F9108952F923F9296
:1043A0004F925F926F927F928F929F92AF92BF9245
:1043B000CF92DF92EF92FF920F931F93CF93DF93F1
:1043C000CDB7DEB7C650CDBFE0913006F1E08291A7
:1043D0009291E92EF82E82919291692E782E229157
:1043E0001291E0933006822F90E09E838D839C0192
:1043F000220F331F2F5F3F4FB301681B790B012F33
:1044000041E0C7012EDF81E090E06C01ED81FE818B
:10441000CE1ADF0A1F01319421943108220C331C7B
:10442000B12CA12C88248394912C2D813E81A2163D
:10443000B3060CF047C0D7FC09C0215031093E83B8
:104440002D8332E0230E311CC20CD31C8FEFA81A2F
:10445000B80A92E0890E911CC80CD91C8D819E81EE
:10446000880F991FFC013196FC83EB83012F2B8170
:1044700041E023018D819E81481A590AB201C5018C
:104480008E0D9F1DEEDEF301EA19FB09FA83E98325
:10449000282D41E0BF018D819E818E0D9F1DE1DEA3
:1044A0002B8141E0B201C7018A199B09DADE282D70
:1044B00041E069817A81C701ED81FE818E1B9F0BEE
:1044C000D0DEB3CFCA5FCDBFDF91CF911F910F91E7
:1044D000FF90EF90DF90CF90BF90AF909F908F9024
:1044E0007F906F905F904F903F902F900895CF9264
:1044F000DF92EF92FF920F931F93CF93DF93E091A0
:104500003006F1E082919291E92EF82E82919291FB
:10451000C92FD82F1291C290D290E09330060D2D62
:1045200021E0412FBE01C7019CDE2C2D41E0BE01E0
:10453000C70197DEBE016C0D711D6150710921E04C
:10454000412FC7018EDEC701810F911D2C2D41E047
:10455000BE01019786DEDF91CF911F910F91FF90F1
:10456000EF90DF90CF900895803891057CF460340F
:10457000710564F4DC01A40FB11D1A161B0634F496
:10458000DB01A20FB11D1A161B060CF008952F9225
:104590003F924F925F926F927F928F929F92BF92C3
:1045A000EF92FF920F931F93C114D104B1F0295FD2
:1045B000622E669466946694A0FC660C649E30013C
:1045C0006D9CF00C011D7C9CF00C011D7D9C000D70
:1045D0006C9CE00CF11C1124011D382E2224842E29
:1045E000322F369536953695729853E05EBDFB01B5
:1045F000F595E795F595E795F595E7951E2F1F3FFE
:104600004CF41095311BA0FC110F149FE00CF11C11
:10461000021D1FEF00905606F00C00905706001D7B
:1046200097FF0BC0880EA0FE02C0880F991FE81AE2
:10463000F90A020997FD039533240EBDA8E5B6E0FB
:1046400050E81503030CA00DB11D5319851608F091
:10465000852EE7E0E11BE31714F43E2F2394FEBC04
:10466000E0E8E8194E2E51E061FD54E060FD550F81
:1046700062FD5295552EEFEFE59D300160947094E8
:10468000EEBC11248FB724D01EBCBB24481509F002
:10469000B39422C07298E3E0EEBD1124E40EF11C45
:1046A000011DA0FCE40EA0FCF11CA0FC011DBB241C
:1046B000481509F0B394C8950EBD08D0FEBC06D0CD
:1046C000EEBC05D01EBC00C000C00895000000C0B4
:1046D0000000C895C8950895A1FCF4C0A2FCA6C02E
:1046E00011151CF0332391F57CC0A058BF4F582DF5
:1046F000A0FC0DC0F8941EBC8EB58FBF859D9C900C
:10470000972091289D9200C05A95A1F714C0F89463
:104710001EBC8EB58FBF859DC001DCDFF8941EBC2A
:104720006EB48FBF659C30019C9070949720992A3D
:104730009D925A9561F71124A819B1093A9509F487
:1047400010C1BB2019F00DB4729AA4DFFD01E0582E
:10475000FF4F582DA0FC1FC0569518F453959C9000
:104760000CC08EB51EBC859D9C90962090289D9275
:1047700090809720912891929C908EB51EBC859D2B
:10478000962090289D9290809720912891920000E9
:104790005A9539F716C0F8941EBC8EB58FBF859D0B
:1047A000C0019C90708097DF6EB41EBC659C009425
:1047B0009020982A9D9210947120792A71925A958E
:1047C00051F71124A40DB11D3A9509F0BACF22205A
:1047D00009F4C7C0BB2029F00DB4729A5BDF00C09A
:1047E000C895A0FC0DC0F8941EBC8EB58FBF859DEA
:1047F0009C90962090289D9200C08A94A1F7B1C009
:10480000F8941EBC8EB58FBF859DC00163DFF89400
:104810001EBC3EB58FBF359D302D9C9030959322A8
:10482000982A9D928A9461F700009BC011151CF094
:104830003323E1F43BC0A058BF4F582DF8941EBC61
:104840008EB58FBF859D9C9091289D92C8955A9555
:10485000A9F71124A819B1093A9509F482C0BB201F
:1048600029F00DB4729A16DF00C000C0FD01E058B7
:10487000FF4F582D8EB51EBC859D9C9090289D9213
:1048800090809128919200005A95A1F71124A40DCF
:10489000B11D3A9521F7222009F463C0BB2031F005
:1048A0000DB4729AF7DE00C000C0C895F8941EBC23
:1048B0008EB58FBF859D9C9090289D92C8958A94B7
:1048C000A9F74FC011151CF03323F1F43DC0A058D7
:1048D000BF4F582DF8941EBC8EB58FBF859D009498
:1048E00010949C9091209D9200005A9599F7112464
:1048F000A819B1093A9509F434C0BB2029F00DB4C8
:10490000729AC8DE00C000C0FD01E058FF4F582D6C
:104910008EB51EBC859D009410949C9090209D9215
:104920009080912091925A9599F71124A40DB11D70
:104930003A9519F7222009F414C0BB2021F00DB4D8
:10494000729AA8DE00C000C0F8941EBC8EB58FBF5E
:10495000859D009410949C9090209D9200008A94D4
:1049600099F71124729A0DB41F910F91FF90EF9057
:10497000BF909F908F907F906F905F904F903F90EF
:104980002F9008950895AF92CF92DF92EF92FF9209
:104990000F93DC01E3E07298EEBDE0903A06F090F0
:1049A0003B0600913C06E0915606F0915706FE0E3C
:1049B0000F1FE7E0E49FE00CF11C1124011D0EBD68
:1049C00002D0FEBC0AC00000000000000000000091
:1049D00000000000000000C00895F7DFEEBCE0908A
:1049E0003A06F0903B0600913C06EFEFEE1AE8EF36
:1049F000FE0AEFEF0E0B00C000C01EBCE6DFF8940D
:104A00001EBC3EB578948D919C91FC01E30FF11D85
:104A1000FC93EE9300C0F8941EBC3EB57894830FCF
:104A2000911D37FD9A95D7DFF8941EBC3EB578945A
:104A3000630F711D37FD7A95CEDFF8941EBCEEB57D
:104A40007894C5DFF8941EBCFEB57894EE0EFF1E78
:104A5000C0DFF8941EBC4EB57894B8DF2EB5729ABC
:104A6000A0903906D12CC12C7FDD0F91FF90EF90E3
:104A7000DF90CF90AF900895E0914206F091430609
:104A8000648175818A3051F480819181938382831E
:104A90008681680F711D758364830895482FCF0147
:104AA000029671CF2F923F924F925F926F927F92B8
:104AB0008F929F92AF92BF92CF92DF92EF92FF922E
:104AC0000F931F93CF93DF93CDB7DEB7C450CDBF05
:104AD000262E2C838A01582E8C81F801882359F0C8
:104AE0008491882309F451C0803239F4F3E05F0ED9
:104AF0000F5F1F4FF1CF8081F4CFE82FEE0FFF0B38
:104B0000E25DFD4C25913491822F8F718983C9011B
:104B100045E0969587954A95E1F78F718A83932FA3
:104B2000969596959F719B8323E0422E911106C026
:104B300044244394882311F092E0492ECE0101963B
:104B40003C01F12CE12CA52CB12CF30181913F010A
:104B5000322C45018E0C9F1C882379F0C82ED12C55
:104B600080FF06C0632D70E041E0C4010E944B1B32
:104B70003394D594C7948C2DEFCFFFEFEF1AFF0A33
:104B8000E41418F35394540CB3CF852DCC5FCDBFF0
:104B9000DF91CF911F910F91FF90EF90DF90CF9019
:104BA000BF90AF909F908F907F906F905F904F904D
:104BB0003F902F90089588E18093910018B810924B
:104BC00072000895F8DF84E080934B06089589E031
:104BD0008093C1001092BF008DE78093CF0083E4E3
:104BE0008093900088E180939100E5DF84E08093DA
:104BF0004B06089580915A0A882319F00E942D1BB4
:104C0000E6CF0E94321BFCCF729893E09EBD9FB707
:104C100000905606700D00905706801D20D08EBD66
:104C20001AD07EBD18D06EBD17D01EBCDA0121503F
:104C3000304000C051F000C014D0F8941EBC0EB437
:104C40009FBF0D9221503040B9F70AD00EB40C929C
:104C5000729A0DB40895000000C0C89500000000CD
:104C600000C00895CF92DF92EF92CF93DF93E0914F
:104C70003006F1E0829192912291C22ED92EE82E37
:104C8000E093300680915A0A882309F436C00E94C6
:104C9000E91ADFB7F8948FDFC4E0C0934B0624E035
:104CA00030E047E456E08E2DB601AEDF84E0C80E5A
:104CB000D11CE11CC0924406D0924506E092460603
:104CC00080914706E82FF0E0EE0FFF1FE95CFC4CF7
:104CD00025913491309399002093980090E898B9E9
:104CE0009AE19093910090E4909372008F3F19F4B1
:104CF00062DFC0934B06DFBF19DADF91CF91EF90EF
:104D0000DF90CF900895CF92DF92EF921F93CF93D1
:104D1000DF9380917200882329F180914B068430C3
:104D200008F51FB7F89440914B06C4E0DC2FD41B64
:104D3000C0904406D0904506E09046062D2F30E006
:104D400050E0495B594F8E2DB6015EDFCD0ED11C70
:104D5000E11CC0924406D0924506E0924606C093FC
:104D60004B061FBFDF91CF911F91EF90DF90CF9047
:104D700008958F929F92AF92BF92CF92DF92EF925F
:104D8000FF92CF93DF93E0913006F1E08291929110
:104D900022913291C32ED22EE92EF82E8291929139
:104DA0002291EF013A91832E922EA92EB82EC8148B
:104DB000D904EA04FB0470F40E942030A501940198
:104DC0002C193D094E095F090E94A930C60ED71E55
:104DD000E81EF91EFE01C192D192E192F192E09398
:104DE0003006DF91CF91FF90EF90DF90CF90BF9092
:104DF000AF909F908F9008950E94EF1A61157105F2
:104E00008105910511F00C946C300895CF930E94A8
:104E1000E91A6AE070E080E0D8D90E94E31AC82F4E
:104E20000E94E91A2C2F382FC9010197811594404F
:104E300018F4C9010E94671A0E94771B77D9CF9195
:104E400008957F928F929F92AF92BF92CF92DF92FE
:104E5000EF92FF920F931F93CF93DF93E091300671
:104E6000F1E082919291C92FD82F82919291092FCE
:104E7000182F8290E09330060E94E91A5801C12C45
:104E8000D12C8AE0782EF80191908F01992069F059
:104E9000209759F02197892D71D9D80E8AE0981260
:104EA00013C05801C12CD12CEECF40D9DF91CF9146
:104EB0001F910F91FF90EF90DF90CF90BF90AF9038
:104EC0009F908F907F90089580E2981203C07E019A
:104ED000CD2C58018D14B8F6CC20A9F2F5013197EC
:104EE00070828501CE2DDF2DDDCF0F920FB68F930F
:104EF0009F93EF93FF9380914D068D5F8D3708F060
:104F00008D5780934D06EEE4F6E080818E4F8083CE
:104F100091819F4F918382818F4F828383818F4FB5
:104F20008383E2E5F6E080818F5F808381818F4F0C
:104F3000818382818F4F828383818F4F83838FB15F
:104F40008F6066991C9B88278F3681F480914C0670
:104F5000981B963068F0E0E0F8E087E78083818373
:104F600088E180936000F0936000FFCF90934C063F
:104F7000FF91EF919F918F910FBE0F901895CF9356
:104F8000DF93CDB7DEB7C952CDBF082F809335066A
:104F900090E0E8E5F6E091119FEF8FEF9193919308
:104FA000919391938150D0F7729A05DE84E08093BB
:104FB0004B0610E0023040F0109134068BEA189F47
:104FC000112D112416951F5F202F2150330BC9017D
:104FD000880F991FFC01EE52FE4CFCA3EBA3FF24AB
:104FE000F39400E0212F30E039A728A7CE010196E5
:104FF0001C010E94431B002339F080E80E94381BEB
:10500000882311F00150F82E89E0800F811728F4D1
:1050100080E10E94381B811177C0FF2009F4EEC0A7
:1050200021E046EE51E361E086E33CDDE8E5F6E0B1
:1050300080E09191DF0111972FE792279C938F5F7A
:105040008038B9F7EBA1FCA14591549121E068E0CB
:1050500080E028DD28A539A5201B3109C901880F6A
:10506000991F820F931FFC01E050FF4FFAA3E9A3A1
:10507000502E51E1F52E511608F0BDC0609031065A
:105080007090320680903306552039F0E9A1FAA1DC
:10509000E350FB4F6080718082806CE070E080E0C4
:1050A0000E948A1B0E94E31A482E0E94E31A8DA3D5
:1050B0000E94E31A8EA30E94E31A8FA30E94E31AB0
:1050C000E82E0E94E31AD82E0E94E91A90E0A0E090
:1050D000772766277D296E290E948A1BC12CD12C37
:1050E000E12CB12CA12C912CC614D704E804B8F5FE
:1050F0000E94E31A87FD0AC090E00196C80ED91EEF
:10510000E11C97FDEA94F0CF0F5F8ACF8D3F30F41A
:10511000FFE7AF1AB108A80EB11CE6CF8D3F21F40E
:105120000E94E31A982EE0CF8E3F41F40E94E31ACA
:10513000A82EB12C0E94E31AB82AD6CF0E94E31AF7
:10514000C82ED12CE12C0E94E31A90E0982F8827DA
:10515000A0E0C82AD92AEA2A0E94E31AC5CF0E94F1
:10516000E91A9414E0F52FA1622F70E080E0862FF9
:10517000772766273EA1732B9DA1692BE0E29E9EB7
:1051800090011124620F731F811D37FD8A950E94C3
:105190008A1B60E270E0C1010E94801B20E0A10137
:1051A0006F2D88E17FDCFE013696C5016AE070E074
:1051B0000E944536805D82935B01E215F305A9F7F5
:1051C0001E8280E0A101480F511DFA0190819033A9
:1051D00011F48F5FF7CF20E06F2D80E063DC5394F4
:1051E000F6E0FF0E29A13AA1235031093AA329A3E1
:1051F00031E4F31240CF81E00E94661B2FB7F89490
:1052000080914E0690914F06A0915006B0915106A4
:105210002FBF94E1E92EE80EF12C2FB7F89480917E
:105220004E0690914F06A0915006B09151062FBFA7
:10523000EE2DE81BE7FDDDCE0E94281BEECFFC0122
:10524000992703968F3F910519F010F085E097DEBE
:10525000419351936193E093300608956F927F924A
:105260008F92CF92DF92EF92E0913006F1E082913F
:1052700092912291622E792E882EE290D290C29045
:10528000E09330060E94E91AB6018E2D0E94E520B7
:10529000C12CD12CE12C0E94E31A882341F08FEF1E
:1052A000C81AD80AE80AC614D704E804A1F7E0919E
:1052B0003006F1E0CF016E2DA601C1DF0E94E91A90
:1052C0000E949620EF90DF90CF908F907F906F900C
:1052D00008959C0133272E5F3F4F2F3F310519F072
:1052E00010F085E04CDEFC0161937193E093300691
:1052F0000895E0913006F1E0BC01CF01EACF9F9222
:10530000AF92BF92CF92DF92EF92FF920F931F93D3
:10531000CF93DF93E0913006F1E0F290B290A2904B
:105320009290829192912291C22ED92EE82EC29112
:10533000D2911291E09330060E94E91A612F7D2FDD
:105340008C2F0E94E520C92DDA2D0B2D1F2D0E94D8
:10535000E31A8993882351F00150110939F081E053
:10536000C81AD108E10899F780E089930E94E91AE8
:10537000892D9A2DBEDF8B2D9F2DBBDF0E9496209D
:10538000DF91CF911F910F91FF90EF90DF90CF9021
:10539000BF90AF909F9008951F93CF93DF93E091BC
:1053A0003006F1E082919291C92FD82F929182918B
:1053B00022913291632F722F42915291E0933006E5
:1053C000FC01252F342FAE01D9011D919D011193B0
:1053D000112359F04150510941F0DA01A60FB71FCE
:1053E000AC17BD0789F720E0219383DFCE01DF9161
:1053F000CF911F917ECFE0913006F1E082919291A2
:10540000292F382F82919291492F582FE0933006FF
:1054100090E080E0FC01E40FF51F6081662321F03D
:10542000019682179307B1F764CFFC019927049680
:105430008F3F910519F010F085E0A1DD4193519364
:1054400061937193E09330060895AB01BC01E09144
:105450003006F1E0CF01E9CFF3D5F7CF0E94EF1A84
:10546000F4CF2FB7F89460914E0670914F0680915B
:105470005006909151062FBFE8CF9C0133272F3F54
:10548000310511F485E07BDDFC016193E09330068A
:105490000895E0913006F1E0682FCF01EECFCF9371
:1054A0000E94E91A6AE070E080E00E94E5200E9414
:1054B000E31AC82F0E94E91A2C2F382FC90101972F
:1054C0008115944030F4C9010E94C61A91E08111FF
:1054D00001C090E0892FDDDF0E949620CF910895D2
:1054E0001F93CF93DF930E94E91A6AE070E080E097
:1054F0000E94E5200E94E31A182F0E94E91AC12F8A
:10550000D82FCE0101978115944058F460E070E0E7
:1055100080E00E94B41A0E94A91A21E0C817D90796
:1055200009F020E0822FB5DF0E949620DF91CF9115
:105530001F91089580915A0AACCF9091720081E03A
:10554000911101C080E0A5CFE0913006F1E0682F15
:10555000CF0193CF6F927F928F92CF92DF92EF9293
:105560001F93CF93DF93CDB7DEB7C650CDBFE09189
:105570003006F1E0829192912291C22ED92EE82E2E
:1055800082919291229129839A838B838291929125
:105590002291622E792E882E8291929122912C83D3
:1055A0009D838E83E09330060E94E91ACE01019616
:1055B0000E942B1E182FCE0104960E942B1E90E0F5
:1055C000C114D104E10429F0912F21E0C21AD108BD
:1055D000E108611471048104F9F021E0621A710894
:1055E0008108882311F0981709F32FEF981724F0FA
:1055F00021E089170CF020E0822FA6DF0E94962080
:10560000CA5FCDBFDF91CF911F91EF90DF90CF9018
:105610008F907F906F90089580E0E7CFAF92BF9218
:10562000CF92DF92EF92FF920F931F93CF93DF936E
:10563000E0913006F1E082919291C92FD82F12911A
:105640000291829192912291C22ED92EE82EB2908F
:10565000A290F290E09330060E94E91A6F2D7A2D05
:105660008B2D0E94E5205801F50111915F010E94E8
:10567000E31A90E0209711F0912F2197C114D104E3
:10568000E10401F121E0C21AD108E108882311F0F8
:10569000981751F32FEF981724F021E089170CF099
:1056A00020E0822F51DF0E94E91A0E949620DF91AC
:1056B000CF911F910F91FF90EF90DF90CF90BF900F
:1056C000AF90089580E0E6CFCF93DF93E09130066E
:1056D000F1E082919291292F382F4291529182913B
:1056E0009291A92FB82F62917291E0933006852F85
:1056F000942F472F562FEC016991CE01EA01E991D1
:10570000AE017E2F2115310599F0215031091097F6
:1057100089F01197EE2311F06E1769F38FEF671779
:1057200024F081E076170CF080E0DF91CF910CCF70
:1057300060E0EDCF70E0F2CFCF93E0913006F1E082
:10574000C291E09330060E94201BC82381E009F03B
:1057500080E0CF91F9CECF93E0913006F1E0C29195
:10576000E09330060E94201BC82381E009F480E00A
:10577000CF91EACECF93E0913006F1E0C291E09371
:1057800030060E94201B9C2F982381E09C1380E010
:10579000CF91DACEE0913006F1E08291E0933006CD
:1057A0009091590A982329F09091580A982381E002
:1057B00009F080E0C9CEE0913006F1E08291E093FB
:1057C00030060E94381BC0CE4091520650915306BD
:1057D000609154067091550680913806882321F017
:1057E0001092380680E0B0CE80913706942F981B37
:1057F000892F90913606891730F48F5F891790F7BB
:105800000E94281BEFCF81E0809338064093370633
:10581000EACFCF93DF93CDB7DEB7C750CDBFCE0170
:1058200001969093430680934206E0913006F1E0A2
:105830008291929199838A839B838C8382919291A6
:105840009D838E83E09330060E94E91A80913C0686
:105850008F3F11F489E093DB0E94D3208F838CE388
:1058600095E20E944F1E0E949620C95FCDBFDF9136
:10587000CF9108956F927F928F92CF92DF92EF92A5
:10588000E0913006F1E082919291292F382F5291C8
:105890004291829192916291C62ED92EE82E8291E8
:1058A00072916291E0933006729A3901812C6C14E6
:1058B0007D048E0411F088E062DBA6D90E94962058
:1058C000EF90DF90CF908F907F906F900895E09150
:1058D0003006F1E082919291292F382F9291829196
:1058E00062917291472F562F72916291E093300628
:1058F0004217530711F088E042DB0C946C36AF92EC
:10590000BF92CF92DF92EF920F931F93CF93DF93CB
:10591000CDB7DEB7C350CDBFE0913006F1E0809146
:105920003C06929122913291C32ED22EE92E929171
:105930002291329139832A839B83E09330068F3FF3
:1059400011F489E01CDB0E94E91AB12CA12C10E0B3
:1059500000E0C114D104E104C1F0CE0101960E941F
:105960002B1E882391F091E0C91AD108E1088A30F2
:1059700039F40A151B0508F48501B12CA12CE9CFD7
:105980000E94BE20A80EB11CE4CFC8010A151B0559
:1059900008F4C501AEDC0E949620CD5FCDBFDF913B
:1059A000CF911F910F91EF90DF90CF90BF90AF906C
:1059B0000895CF92DF92EF92FF920F931F93CF93B0
:1059C000DF93E0913006F1E080913C0692912291C4
:1059D000022F192FF290E290E09330068F3F11F4DE
:1059E00089E0CDDA0E94E91AE701D12CC12CF12C13
:1059F000E12C8991882371F00115110559F00150AE
:105A000011098A30C1F4EC14FD0408F47601D12C9C
:105A1000C12CEFCFC701EC14FD0408F4C60169DC0A
:105A20000E949620DF91CF911F910F91FF90EF90F0
:105A3000DF90CF9008950E94BE20C80ED11CD9CF10
:105A40008F929F92AF92BF92CF92DF92EF92FF928E
:105A50000F931F93CF93DF93CDB7DEB7C550CDBF64
:105A6000E0913006F1E0829192919C838D83829146
:105A70009291092F182FF0903C06829192912291D9
:105A8000C22ED92EE82E82919291229129839A8357
:105A90008B83E09330060E94E91A8FEFF81202C060
:105AA00089E06DDA0E94D3208C809D80A82EB12CD5
:105AB000C114D104E104C1F0CE0101960E942B1E55
:105AC000882391F091E0C91AD108E1088A3029F4BD
:105AD0009D828C820A0D1B1DEBCF482FB801CE0191
