:100000000C94811B0C949E1B0C949E1B0C949E1BA9
:100010000C949E1B0C949E1B0C949E1B0C949E1B7C
:100020000C949E1B0C949E1B0C949E1B0C949E1B6C
:100030000C949E1B0C949E1B0C949E1B0C949E1B5C
:100040000C949E1B0C94AC300C949E1B0C949E1B29
:100050000C949E1B0C949E1B0C949E1B0C94C72E00
:100060000C949E1B0C949E1B0C949E1B0C949E1B2C
:100070000C949E1B0C949E1B0C949E1B0C949E1B1C
:100080000C949E1B0C949E1B0C949E1B0C949E1B0C
:100090000C949E1B0C949E1B0C949E1B0C949E1BFC
:1000A0000C949E1B0C949E1B0C949E1B084AD73BE1
:1000B0003BCE016E84BCBFFDC12F3D6C74319ABD37
:1000C00056833DDA3D00C77F11BED9E4BB4C3E915B
:1000D0006BAAAABE000000803F05A84CCDB2D44E4A
:1000E000B93836A9020C50B9918688083CA6AAAA4C
:1000F0002ABE000000803F0664EC1B3C04BC163E98
:100100003BE5B93CC93C37C29E5A3D660498083E5F
:10011000EA69AAAA3E000000803F07634236B79B07
:10012000D8A71A39685618AEBAAB558C1D3CB7CC57
:100130005763BD6DEDFD753EF6177231BF000000CF
:10014000803F08000000BE922449123EABAAAA2AB2
:10015000BECDCCCC4C3E00000080BEABAAAAAA3ECD
:1001600000000000BF000000803F00000000000809
:100170004178D3BB4387D1133D190E3CC3BD4282A6
:10018000AD2B3E68EC8276BED98FE1A93E4C80EF64
:10019000FFBE01C4FF7F3F00000000000000000020
:1001A000000000000000000000000000000000004F
:1001B000000000000000000000000000000000003F
:1001C000000000000000000000000000000000002F
:1001D000000000000000000000000000000000001F
:1001E000000000000000000000000000000000000F
:1001F00000000000000000000000000000000000FF
:1002000000C000C0640C721CF8942EBC0EB478942C
:10021000821C039CF001F50D099400000000000011
:100220002041424320496E74657270726574657234
:100230002062792050657465722042726F776E205B
:10024000CF3FB8F49992640CAFB6F8942EBC9EB42C
:10025000AFBE721C821CC895C895C895640C721CF0
:10026000F8942EBC0EB47894821C039CF001F50D1A
:10027000099485E00E94FB180000000000000000C7
:10028000CE3F18F085E00E94FB18999200E0902E76
:100290000EB42EBC640C721C821C039CF001F50D84
:1002A0000994E0913006F1E00290E09330060110ED
:1002B000089584E00E94FB189895089500000000BE
:1002C000CE3F18F085E00E94FB18999201E0902E35
:1002D0000EB42EBC640C721C821C039CF001F50D44
:1002E00009949A918A917A916A910E943C37699314
:1002F000799389939993089580917A0A0C94112F98
:10030000CE3F18F085E00E94FB18999202E0902EF3
:100310000EB42EBC640C721C821C039CF001F50D03
:1003200009949A918A917A916A910E94F13669931F
:1003300079938993999308950000000000000000CC
:10034000CE3F18F085E00E94FB18999203E0902EB2
:100350000EB42EBC640C721C821C039CF001F50DC3
:1003600009949A918A917A916A910E948B34699347
:10037000799389939993089500000000000000008C
:10038000CE3F18F085E00E94FB18999204E0902E71
:100390000EB42EBC640C721C821C039CF001F50D83
:1003A00009949A918A917A916A910E94D1366993BF
:1003B000799389939993089500000000000000004C
:1003C000CE3F18F085E00E94FB18999205E0902E30
:1003D0000EB42EBC640C721C821C039CF001F50D43
:1003E00009949A918A917A916A910E9464356993ED
:1003F000799389939993089500000000000000000C
:10040000CE3F18F085E00E94FB18999206E0902EEE
:100410000EB42EBC640C721C821C039CF001F50D02
:1004200009949A918A917A916A910E94743469939D
:1004300079938993999308950000000000000000CB
:10044000CE3F18F085E00E94FB18999207E0902EAD
:100450000EB42EBC640C721C821C039CF001F50DC2
:1004600009949A918A917A916A910E94FB366993D4
:10047000799389939993089500000000000000008B
:10048000CE3F18F085E00E94FB18999208E0902E6C
:100490000EB42EBC640C721C821C039CF001F50D82
:1004A00009940000000000000000000000000000AF
:1004B000000000000000000000000000000000003C
:1004C000CE3F18F085E00E94FB18999200E1902E33
:1004D0000EB42EBC640C721C821C039CF001F50D42
:1004E000099400000000000000000000000000006F
:1004F00000000000000000000000000000000000FC
:10050000CE3F18F085E00E94FB18999200E2902EF1
:100510000EB42EBC640C721C821C039CF001F50D01
:10052000099400000000000000000000000000002E
:1005300000000000000000000000000000000000BB
:10054000CE3F18F085E00E94FB18999200E4902EAF
:100550000EB42EBC640C721C821C039CF001F50DC1
:1005600009940000000000000000000000000000EE
:10057000000000000000000000000000000000007B
:10058000CE3F18F085E00E94FB18999200E8902E6B
:100590000EB42EBC640C721C821C039CF001F50D81
:1005A0000994640C721CF8942EBC0EB47894821CCE
:1005B000039CF001F50D099400000000000000000C
:1005C000CD3F60F49992299299240EB42EBC640C0C
:1005D000721C821C039CF001F50D099485E00E94B9
:1005E000FB180000000000000000000000000000F8
:1005F00000000000000000000000000000000000FB
:10060000CC3F68F499922992299299240EB42EBC79
:10061000640C721C821C039CF001F50D099485E0AA
:100620000E94FB1800000000000000000000000015
:1006300000000000000000000000000000000000BA
:10064000CB3F70F4999229922992299299240EB461
:100650002EBC640C721C821C039CF001F50D0994E5
:1006600085E00E94FB180000000000000000000070
:10067000000000000000000000000000000000007A
:10068000C73F90F49992299229922992299229920E
:100690002992299299240EB42EBC640C721C821CDF
:1006A000039CF001F50D099485E00E94FB18000001
:1006B000000000000000000000000000000000003A
:1006C000CF3ED0F499922992299229922992299287
:1006D0002992299229922992299229922992299242
:1006E0002992299299240EB42EBC640C721C821C8F
:1006F000039CF001F50D099485E00E94FB180000B1
:10070000CD3FD0F7999202E0AFB6F8942EBC0EB46C
:10071000099209D02EBC9EB4AFBE600E721C821C22
:10072000C895C8953ECF000000000000000000C042
:10073000089500000000000000000000000000001C
:10074000CC3FA8F4999203E0AFB6F8942EBC0EB457
:100750000992E9DF2EBC0EB40992E5DF2EBC9EB4EF
:10076000AFBE600E721C821CC895C8951ACF85E07A
:100770000E94FB18000000000000000000000000C4
:10078000CB3FA8F7999204E0AFB6F8942EBC0EB414
:100790000992600E721C821CC9DF2EBC0EB4099235
:1007A000C2DF2EBC0EB40992BEDF2EBC9EB4AFBE1B
:1007B000BEDFF7CE000000000000000000000000D7
:1007C000CE3F68F49992990C990800000EB42EBCA3
:1007D000640C721C821C039CF001F50D099485E0E9
:1007E0000E94FB1800000000000000000000000054
:1007F00000000000000000000000000000000000F9
:10080000CD3F68F49992990C990899920EB42EBC38
:10081000640C721C821C039CF001F50D099485E0A8
:100820000E94FB1800000000000000000000000013
:1008300000000000000000000000000000000000B8
:10084000CC3F70F49992990C9908999299920EB4B0
:100850002EBC640C721C821C039CF001F50D0994E3
:1008600085E00E94FB18000000000000000000006E
:100870000000000000000000000000000000000078
:10088000CE3F60F49992640C721CF8942EBC0EB4A6
:100890007894821C039CF001F50D099485E00E9478
:1008A000FB18000000000000000000000000000035
:1008B0000000000000000000000000000000000038
:1008C000CE3F68F49992DE01A2509C900EB42EBCEB
:1008D000640C721C821C039CF001F50D099485E0E8
:1008E0000E94FB1800000000000000000000000053
:1008F00000000000000000000000000000000000F8
:10090000CE3F68F49992DE01A3509C900EB42EBCA9
:10091000640C721C821C039CF001F50D099485E0A7
:100920000E94FB1800000000000000000000000012
:1009300000000000000000000000000000000000B7
:10094000CE3F68F49992DE01A4509C900EB42EBC68
:10095000640C721C821C039CF001F50D099485E067
:100960000E94FB18000000000000000000000000D2
:100970000000000000000000000000000000000077
:10098000CE3F68F49992DE01A5509C900EB42EBC27
:10099000640C721C821C039CF001F50D099485E027
:1009A0000E94FB1800000000000000000000000092
:1009B0000000000000000000000000000000000037
:1009C000CE3F68F49992DE01A6509C900EB42EBCE6
:1009D000640C721C821C039CF001F50D099485E0E7
:1009E0000E94FB1800000000000000000000000052
:1009F00000000000000000000000000000000000F7
:100A0000CE3F68F49992DE01A7509C900EB42EBCA4
:100A1000640C721C821C039CF001F50D099485E0A6
:100A20000E94FB1800000000000000000000000011
:100A300000000000000000000000000000000000B6
:100A4000CE3F68F49992DE01A8509C900EB42EBC63
:100A5000640C721C821C039CF001F50D099485E066
:100A60000E94FB18000000000000000000000000D1
:100A70000000000000000000000000000000000076
:100A8000CD3F78F49992DE01A2500D9009929D908D
:100A90000EB42EBC640C721C821C039CF001F50D7C
:100AA000099485E00E94FB1800000000000000008F
:100AB0000000000000000000000000000000000036
:100AC000CD3F78F49992DE01A3500D9009929D904C
:100AD0000EB42EBC640C721C821C039CF001F50D3C
:100AE000099485E00E94FB1800000000000000004F
:100AF00000000000000000000000000000000000F6
:100B0000CD3F78F49992DE01A4500D9009929D900A
:100B10000EB42EBC640C721C821C039CF001F50DFB
:100B2000099485E00E94FB1800000000000000000E
:100B300000000000000000000000000000000000B5
:100B4000CD3F78F49992DE01A5500D9009929D90C9
:100B50000EB42EBC640C721C821C039CF001F50DBB
:100B6000099485E00E94FB180000000000000000CE
:100B70000000000000000000000000000000000075
:100B8000CD3F78F49992DE01A6500D9009929D9088
:100B90000EB42EBC640C721C821C039CF001F50D7B
:100BA000099485E00E94FB1800000000000000008E
:100BB0000000000000000000000000000000000035
:100BC000CD3F78F49992DE01A7500D9009929D9047
:100BD0000EB42EBC640C721C821C039CF001F50D3B
:100BE000099485E00E94FB1800000000000000004E
:100BF00000000000000000000000000000000000F5
:100C0000CD3F78F49992DE01A8500D9009929D9005
:100C10000EB42EBC640C721C821C039CF001F50DFA
:100C2000099485E00E94FB1800000000000000000D
:100C300000000000000000000000000000000000B4
:100C4000CD3F78F49992DE01A9500D9009929D90C4
:100C50000EB42EBC640C721C821C039CF001F50DBA
:100C6000099485E00E94FB180000000000000000CD
:100C70000000000000000000000000000000000074
:100C8000CE3F18F085E00E94FB189992AFB6F89419
:100C90002EBC0EB4AFBE640C721C821CDE01A01907
:100CA0009C9000C000C0640C721CF8942EBC0EB462
:100CB0007894821C039CF001F50D0994000000005B
:100CC000CD3F18F085E00E94FB189992AFB6F894DA
:100CD0002EBC0EB4AFBE640C721C821CDE01A019C7
:100CE0000D909C900992640C721CF8942EBC0EB46A
:100CF0007894821C039CF001F50D0994000000001B
:100D0000CB3FC0F49992DE01640C721C0EB42EBC71
:100D1000821CA0190D911D912D919D9009931993FD
:100D200029930EB42EBC640C721C821C039CF0012F
:100D3000F50D099485E00E94FB18000000000000FA
:100D4000C895C895F8942EBC0EB5789443E0640E0F
:100D5000721C821CDE01A395B2D0F8942EBC1EB585
:100D60007894A11B069510F499929D9099929D906C
:100D700099929D900A95D1F70EB42EBC000056C0F2
:100D8000C89500C0AFB6F8942EBC0EB4AFBE640CCC
:100D9000721C821C092DDE01A0190C939A90000090
:100DA000640C721CF8942EBC0EB47894821C039CC4
:100DB000F001F50D099400000000000000000000A3
:100DC000C89500C0AFB6F8942EBC0EB4AFBE640C8C
:100DD000721C821C192D0A91DE01A0190D931D931E
:100DE0009A900EB42EBC640C721C821C039CF00101
:100DF000F50D099400000000000000000000000054
:100E0000392D2A911A910A910EB42EBC640C721CD1
:100E1000821CDE01A0190D931D932D933D939A9092
:100E200000000EB42EBC640C721C821C039CF001EA
:100E3000F50D099400000000000000000000000013
:100E4000C895C895F8942EBC0EB5789443E0640E0E
:100E5000721C821CDE01A39530D01EB52EBCA11BD6
:100E6000069510F49E929A909E929A909E929A90D5
:100E70000A95D1F70EB42EBC0000D8CF00000000B8
:100E80009992CF3F19F485E00E94FB18AFB6F89411
:100E90002EBCAEB542E0640E721C821C0CD02EBC7F
:100EA000BEB5AFBE9C900BD07BCF00000000000011
:100EB0000000000000000000000000000000089595
:100EC0009992CE3F18F085E00E94FB180000F8943C
:100ED0002EBCAEB542E0640E721C821CECDF2EBC50
:100EE000BEB578940D919D900993C89559CF000097
:100EF00000000000000000000000000000000000F2
:100F00009992CC3F18F085E00E94FB1800C0AEB566
:100F10002EBC42E0640E721C821CCCDFBEB52EBC1F
:100F20000D911D912D919D9009931993299359CF5E
:100F300000000000000000000000000000000000B1
:100F4000C895C895F8942EBC0EB5789413E0610E40
:100F5000721C821CB2DFF8942EBCAEB57894A8DF68
:100F6000BEB52EBC069510F499929D9099929D90D5
:100F700099929D900A95D1F7000026C100000000CB
:100F8000CF3F18F085E00E94FB189992AFB6F89415
:100F90002EBCAEB5AFBEB2E09C90640C721C821C3D
:100FA000C89500C0640C721CF8942EBC0EB47894E2
:100FB000821C039CF001F50D0994C895000008956A
:100FC000CE3F18F085E00E94FB189992AFB6F894D6
:100FD0002EBCAEB5AFBEB2E09D9099929C90640CD1
:100FE000721C821C0000640C721CF8942EBC0EB49F
:100FF0007894821C039CF001F50D0994089500007B
:10100000CC3F18F085E00E94FB189992B2E0640C86
:10101000AEB52EBC721C821C9D9099929D909992A7
:101020009D9099929C900EB42EBC640C721C821CF4
:10103000039CF001F50D0994000000000000000081
:10104000C89500C0AFB6F8942EBCAEB512E0610EE4
:10105000721C821C30DF2EBCBEB5AFBE9C929A9033
:101060002EDF640C721CF8942EBC0EB47894821C93
:10107000039CF001F50D0994000000000000000041
:10108000C89500C0AFB6F8942EBCAEB512E0610EA4
:10109000721C821C10DF2EBCBEB5AFBE1A911D9310
:1010A0009D929A90C895640C721CF8942EBC0EB454
:1010B0007894821C039CF001F50D09940000000057
:1010C0002A911A910A91F8942EBCAEB5392D42E0BE
:1010D000640E721C821CF0DE2EBCBEB578940D939B
:1010E0001D932D933D939A900000640C721CF8940C
:1010F0002EBC0EB47894821C039CF001F50D09946B
:10110000C895C895F8942EBC0EB5789413E0610E7E
:10111000721C821CD2DEF8942EBCAEB5C8DE2EBC8A
:10112000BEB57894A00FB21D069510F49E929A90C9
:101130009E929A909E929A900A95D1F745C000008F
:10114000292D1A910A91599A33E059983EBDA090E1
:10115000760AB090770AA10EB21EADDEBEBCA5DE47
:10116000AEBCA3DE0EBDA2DE2EBCA0DE9EB4599A9C
:1011700059983EBD0C94C618000000C008950000A8
:10118000292D1A910A9133E000001EB426C0640C88
:10119000721C821CC895C895C895AFB6F8942EBC31
:1011A0000EB4AFBE09921A941414A9F7E6DF9EB4E8
:1011B000599A59983EBD0C94C618000000000000D2
:1011C000B92DAA919D9000C00EB42EBC640C721C67
:1011D000821C039CF001F50D0994599A33E059984B
:1011E0003EBDA090760AB090770AA10EB21E63DED3
:1011F000BEBC5BDEAEBC59DE0EBD58DE2EBCC7CF1A
:10120000B92DAA911D9019929D900EB42EBC640C1C
:10121000721C821C039CF001F50D09940000000073
:1012200000000000000000000000000000000000BE
:1012300000000000000000000000000000000000AE
:10124000B92DAA912C2F640C721C821C0EB42EBCDA
:10125000200D20F1069410F49D9099929D90999202
:101260009D9099920A94D1F7CA950EB42EBC640C45
:10127000721C821C039CF001F50D09940000000013
:10128000B92DAA911A901C929A900EB42EBC640C9F
:10129000721C821C039CF001F50D099485E00E94EC
:1012A000FB1800000000000000000000000000002B
:1012B000000000000000000000000000000000002E
:1012C000B92DAA911A900A909A900D921C920EB480
:1012D0002EBC640C721C821C039CF001F50D099459
:1012E00000000000000000000000000000000000FE
:1012F00000000000000000000000000000000000EE
:10130000B92DAA910000640C721C821C0EB42EBC74
:10131000A00DB21D069410F41A901E921A901E92FF
:101320001A901E920A94D1F79A900EB42EBC640CB7
:10133000721C821C039CF001F50D09940000000052
:10134000CA9598800000640C721CF8942EBC0EB4F0
:101350007894821C039CF001F50D099400000000B4
:10136000000000000000000000000000000000007D
:10137000000000000000000000000000000000006D
:10138000C25098800000640C721CF8942EBC0EB4FD
:101390007894821C039CF001F50D09940000000074
:1013A000000000000000000000000000000000003D
:1013B000000000000000000000000000000000002D
:1013C000C35098800000640C721CF8942EBC0EB4BC
:1013D0007894821C039CF001F50D0994000000C074
:1013E0000000000000000000000000000895000060
:1013F00000000000000000000000000000000000ED
:10140000C45098800000640C721CF8942EBC0EB47A
:101410007894821C039CF001F50D09942EBC3EB516
:101420007894930730F44A91640F751F6993972E4F
:10143000EACF82E00C94FB180000000000000000DE
:10144000C89500C0AFB6F8942EBC0EB4AFBE640C05
:10145000721C821CC01518F485E00E94FB18C0198C
:10146000988000C0640C721CF8942EBC0EB4789462
:10147000821C039CF001F50D09940000000000009F
:10148000C8959882AFB6F8942EBC0EB4AFBE640C6B
:10149000721C821CC00D18F485E00E94FB18988015
:1014A000C895640C721CF8942EBC0EB47894821CFF
:1014B000039CF001F50D09940000000000000000FD
:1014C000492D640C721C821C00C0F8942EBC0EB412
:1014D000AFBE401588F49A906A91640F921C69938C
:1014E0000000640C721CF8942EBC0EB47894821C1C
:1014F000039CF001F50D099482E00C94FB180000A8
:10150000492D12E0610EC895F8942EBC0EB5789462
:10151000721C821C049F5A9169DFF8942EBC1EB580
:101520007894411748F74A91040E151E0992912CA0
:10153000D8CF000000000000000000000000000004
:10154000992D4A91C895F8942EBC0EB514E0610E01
:10155000721C821C47DF2EBC1EB542DF049F2EBCCE
:101560002EB5B001099F700D149F700D5A91C8954A
:10157000421754CF000000000000000000000000EF
:10158000A92C9A90EA900000F8942EBC0EB578949D
:10159000DA9012E0610E721C821C00C0A09ED00C7A
:1015A000E11C921CF8942EBC1EB57894A11620F470
:1015B000D992E992C89534C182E00C94FB180000DE
:1015C00015DF4EB52EBC16E0610E721C821CC92CB4
:1015D000BA90AA900BDF5EB52EBCFA90EA90DA9032
:1015E0000C946518000000000000000000000000DE
:1015F00000000000000000000000000000000000EB
:101600004A913A9112E0610EF8942EBC0EB578948E
:10161000721C821C2A914217930670F6049FB00137
:101620009A918A911EB52EBC680F791F099D700D85
:10163000149F700D6993972EA5C000000000000054
:101640000C948E1882E00C94FB18B00CC11C289FDF
:10165000C00C199FC00C301B410B920A9CF3B2E0E6
:101660006B0E721C821CA992B992C992399349934C
:10167000EDC0099319936993E9C0000000000000D0
:101680006A915A914A913A918EB52EBC2A911A913B
:101690000A9142175307B0F62617390598F2489F6A
:1016A000000D111D9EB52EBC589F110D499F110DA7
:1016B000641B950A3CF2B2E06B0E721C821CD9CFFF
:1016C0004A913A912A911A918EB52EBC0A91FA90BC
:1016D000EA90DA90CA90BA90AA900D151E052F05CF
:1016E00018F59EB52EBCD316E406F904E8F0089F61
:1016F000A00CB11CC21C189FB00CC11C099FA5CF27
:101700009992CE3F18F085E00E94FB180000F894F3
:101710002EBC0EB47894640C721C821C8E010019CD
:101720000993912E00002EC082E00C94FB18C895FE
:10173000000008950000000000000000000000000C
:101740009992CE3F18F085E00E94FB18AFB6F8944E
:101750002EBC0EB4AFBE640C721C821C12E0099247
:10176000912E00C00FC0000000000000000000002B
:101770000000000000000000000000000000000069
:101780009394C895640C721CF8942EBC0EB4789493
:10179000821C039CF001F50D09940000000000007C
:1017A0000000000000000000000000000000000039
:1017B0000000000000000000000000000000000029
:1017C0009A940000DFCFE0913006F1E0929182918F
:1017D000B291A2916291E0933006009681F09695C5
:1017E000879508F46D939695879538F46D936D936E
:1017F00004C06D936D936D936D930197D0F7089529
:1018000000C0DE011196AFB6F8942EBC0EB4AFBE88
:10181000640C721C821CA0190C9003940C9200C0E2
:10182000640C721CF8942EBC0EB47894821C039C39
:10183000F001F50D09940000000000000000000018
:10184000B92DAA910D91902E03950E930EB42EBC36
:10185000640C721C821C039CF001F50D09940000BD
:101860000000000000000000000000000000000078
:101870000000000000000000000000000000000068
:10188000B92DAA910D911D910993912E040D121D50
:101890001E930E930EB42EBC640C721C821C039C0F
:1018A000F001F50D099400000000000000000000A8
:1018B0000000000000000000000000000000000028
:1018C000CE3F18F085E00E94FB18B92DAA910D912A
:1018D0001D912D9109931993922E040D121D221D15
:1018E0002E931E930E930EB42EBC640C721C821C9D
:1018F000039CF001F50D09940000000000000000B9
:10190000CD3F18F085E00E94FB18B92DAA910D91EA
:101910001D912D913D91099319932993932E040DB7
:10192000121D221D321D3E932E931E930E930EB454
:101930002EBC640C721C821C039CF001F50D0994F2
:10194000B92DAA910D91902E0A950E930EB42EBC2E
:10195000640C721C821C039CF001F50D09940000BC
:101960000000000000000000000000000000000077
:101970000000000000000000000000000000000067
:10198000B92DAA910D911D910993912E0419120957
:101990001E930E930EB42EBC640C721C821C039C0E
:1019A000F001F50D099400000000000000000000A7
:1019B0000000000000000000000000000000000027
:1019C000CE3F18F085E00E94FB18B92DAA910D9129
:1019D0001D912D9109931993922E04191209220930
:1019E0002E931E930E930EB42EBC640C721C821C9C
:1019F000039CF001F50D09940000000000000000B8
:101A0000CD3F18F085E00E94FB18B92DAA910D91E9
:101A10001D912D913D91099319932993932E0419AA
:101A20001209220932093E932E931E930E930EB48F
:101A30002EBC640C721C821C039CF001F50D0994F1
:101A4000CD3F18F085E00E94FB18B92DAA916D9149
:101A50007D918D919D91699379938993992E8D01B3
:101A6000112420E030E040E85FE30E947633D801A3
:101A70009E938E937E936E93DACF00000000000059
:101A8000CD3F18F085E00E94FB18B92DAA916D9109
:101A90007D918D919D91699379938993992E8D0173
:101AA000112420E030E040E85FE30E947533D80164
:101AB0009E938E937E936E93BACF00000000000039
:101AC000EA909E0C0000640C721CF8942EBC0EB4BC
:101AD0007894821C039CF001F50D09949A918A91E7
:101AE0007A916A915A914A913A912A910E94853647
:101AF0006993799389939993C09330060895000070
:101B0000AA90FA90EA90AE0C9F1CA9920EB42EBC3B
:101B1000640C721C821C039CF001F50D09940000FA
:101B200000000000000000000000000000000000B5
:101B300000000000000000000000000000000000A5
:101B4000BA90AA900A91FA90EA90AE0CBF1C901E2F
:101B5000A992B9920EB42EBC640C721C821C039C18
:101B6000F001F50D099400000000000000000000E5
:101B70000000000000000000000000000000000065
:101B8000CA90BA90AA901A910A91FA90EA90AE0C73
:101B9000BF1CC01E911EA992B992C9920EB42EBC50
:101BA000640C721C821C039CF001F50D099400006A
:101BB0000000000000000000000000000000000025
:101BC000EA90E9189E2C640C721CF8942EBC0EB49A
:101BD0007894821C039CF001F50D0994000000002C
:101BE00000000000000000000000000000000000F5
:101BF00000000000000000000000000000000000E5
:101C0000AA90FA90EA90EA18F908E9929F2C0EB48B
:101C10002EBC640C721C821C039CF001F50D09940F
:101C200000000000000000000000000000000000B4
:101C300000000000000000000000000000000000A4
:101C4000BA90AA900A91FA90EA90EA18FB0809095A
:101C5000E992F992902E0EB42EBC640C721C821C78
:101C6000039CF001F50D0994000000000000000045
:101C70000000000000000000000000000000000064
:101C8000CA90BA90AA901A910A91FA90EA90EA182A
:101C9000FB080C091909E992F9920993912E0EB4E7
:101CA0002EBC640C721C821C039CF001F50D09947F
:101CB0000000000000000000000000000000000024
:101CC000FA90EA90E90CF21CE9929F2C0EB42EBC1B
:101CD000640C721C821C039CF001F50D0994000039
:101CE00000000000000000000000000000000000F4
:101CF00000000000000000000000000000000000E4
:101D00000A91FA90EA90E90CF21C021DE992F9920C
:101D1000902E0EB42EBC640C721C821C039CF0012D
:101D2000F50D099400000000000000000000000014
:101D300000000000000000000000000000000000A3
:101D4000FA90EA90E918F208E9929F2C0EB42EBCA2
:101D5000640C721C821C039CF001F50D09940000B8
:101D60000000000000000000000000000000000073
:101D70000000000000000000000000000000000063
:101D8000FA90EA90E99C9001F99C300D2993932EEA
:101D90000EB42EBC640C721C821C039CF001F50D69
:101DA0000994E99C500D299339934993952E0EB4CB
:101DB0002EBC640C721C821C039CF001F50D09946E
:101DC000EA90E99C902C00C00EB42EBC640C721CEE
:101DD000821C039CF001F50D099400000000000036
:101DE00000000000000000000000000000000000F3
:101DF00000000000000000000000000000000000E3
:101E0000AA90FA90EA90EA9C9001E99C300DFA9C25
:101E1000300D2993932E0EB42EBC640C721C821CC0
:101E2000039CF001F50D0994000000000000000083
:101E300000000000000000000000000000000000A2
:101E4000BA90AA900A91FA90EA90EA9C90010A9DB1
:101E5000902CFA9C300D911CEB9C300D911CFB9C3E
:101E6000900CE99C900C299339930EB42EBC640C11
:101E7000721C821C039CF001F50D09940000000007
:101E8000CA90BA90AA901A910A91FA90EA90EA9CA4
:101E900090010A9DA001FA9C300D411D521DEB9C42
:101EA000300D411D521DFB9C400D511DEC9C400D01
:101EB000511D1A9D500D0B9D500DFC9C500D71CF66
:101EC000792D6A919A918A916215720569F00E9442
:101ED0000F316993972E0EB42EBC640C721C821CB9
:101EE000039CF001F50D099483E00E94FB180000AB
:101EF00000000000000000000000000000000000E2
:101F0000592D4A913A912A919A918A917A916A919E
:101F1000221532054205520549F08E010E944F31CB
:101F2000E801299339934993952ED5CF83E00E94F8
:101F3000FB1800000000000000000000000000008E
:101F4000792D6A919A918A916215720569F00E94C1
:101F500053386993972E0EB42EBC640C721C821CED
:101F6000039CF001F50D099483E00E94FB1800002A
:101F70000000000000000000000000000000000061
:101F8000592D4A913A912A919A918A917A916A911E
:101F9000221532054205520549F08E010E94F633A2
:101FA000E801299339934993952ED5CF83E00E9478
:101FB000FB1800000000000000000000000000000E
:101FC000792D6A919A918A916215720569F00E9441
:101FD0000F318993992E0EB42EBC640C721C821C96
:101FE000039CF001F50D099483E00E94FB180000AA
:101FF00000000000000000000000000000000000E1
:10200000592D4A913A912A919A918A917A916A919D
:10201000221532054205520549F08E010E944F31CA
:10202000E801699379938993992ED5CF83E00E9433
:10203000FB1800000000000000000000000000008D
:10204000792D6A919A918A916215720579F10E94AF
:1020500053388993992E0EB42EBC640C721C821CCA
:10206000039CF001F50D099483E00E94FB18000029
:102070000000000000000000000000000000000060
:10208000592D4A913A912A919A918A917A916A911D
:10209000221532054205520549F08E010E94F633A1
:1020A000E801699379938993992ED5CF83E00E94B3
:1020B000FB1800000000000000000000000000000D
:1020C000492D0A914830A0F442FD029542FD007F5F
:1020D00041FD000F41FD000F40FD000F902E0EB49A
:1020E0002EBC640C721C821C039CF001F50D09943B
:1020F0009924F5CF0000000000000000000000005F
:10210000492D1A910A91483050F04031A8F4102F0F
:102110000027485021F0000F111F4A95E1F7442392
:10212000D1F70993912E0EB42EBC640C721C821C44
:10213000039CF001F50D099429929924F4CF000035
:10214000492D3A912A911A910A91403158F0403222
:1021500080F4980100271127415134F0000F111F1E
:10216000221F331F4A95D2F7099319932993932E6F
:10217000DACF2992299229929924D5CF0000000024
:10218000492D0A914830A0F442FD029542FD0F709E
:1021900041FD069541FD069540FD0695902E0EB435
:1021A0002EBC640C721C821C039CF001F50D09947A
:1021B000922CF5CF0000000000000000000000009D
:1021C000492D1A910A91483050F04031A8F4012F5E
:1021D0001127485021F0169507954A95E1F74423B9
:1021E000D1F70993912E0EB42EBC640C721C821C84
:1021F000039CF001F50D099429929924F4CF000075
:10220000492D3A912A911A910A91403158F0403261
:1022100080F4890122273327415134F036952795E0
:10222000179507954A95D2F7099319932993932EF9
:10223000DACF2992299229929924D5CF0000000063
:10224000492D0A91473030F050E007FD5FEF952EA1
:1022500004C005954A95EAF7902E0EB42EBC640C86
:10226000721C821C039CF001F50D09940000000013
:10227000000000000000000000000000000000005E
:10228000492D1A910A91403140F050E017FD5FEF5F
:102290005993952E06C0159507954A95E2F709932F
:1022A000912E0EB42EBC640C721C821C039CF00197
:1022B000F50D09940000000000000000000000007F
:1022C000492D3A912A911A910A91403260F050E0DA
:1022D00037FD5FEF599359935993952EE2CF35957A
:1022E0002795179507954A95D2F70993199329933E
:1022F000932ED7CF00000000000000000000000077
:10230000EA909E200000640C721CF8942EBC0EB45F
:102310007894821C039CF001F50D099400000000E4
:1023200000000000000000000000000000000000AD
:10233000000000000000000000000000000000009D
:10234000AA90FA90EA90AE209F20A9920EB42EBCDB
:10235000640C721C821C039CF001F50D09940000B2
:10236000000000000000000000000000000000006D
:10237000000000000000000000000000000000005D
:10238000CA90BA90AA901A910A91FA90EA90AE2057
:10239000BF20C0229122A992B992C9920EB42EBC3C
:1023A000640C721C821C039CF001F50D0994000062
:1023B000000000000000000000000000000000001D
:1023C000EA909E280000640C721CF8942EBC0EB497
:1023D0007894821C039CF001F50D09940000000024
:1023E00000000000000000000000000000000000ED
:1023F00000000000000000000000000000000000DD
:10240000AA90FA90EA90AE289F28A9920EB42EBC0A
:10241000640C721C821C039CF001F50D09940000F1
:1024200000000000000000000000000000000000AC
:10243000000000000000000000000000000000009C
:10244000CA90BA90AA901A910A91FA90EA90AE288E
:10245000BF28C02A912AA992B992C9920EB42EBC63
:10246000640C721C821C039CF001F50D09940000A1
:10247000000000000000000000000000000000005C
:10248000EA909E240000640C721CF8942EBC0EB4DA
:102490007894821C039CF001F50D09940000000063
:1024A000000000000000000000000000000000002C
:1024B000000000000000000000000000000000001C
:1024C000AA90FA90EA90AE249F24A9920EB42EBC52
:1024D000640C721C821C039CF001F50D0994000031
:1024E00000000000000000000000000000000000EC
:1024F00000000000000000000000000000000000DC
:10250000CA90BA90AA901A910A91FA90EA90AE24D1
:10251000BF24C0269126A992B992C9920EB42EBCAE
:10252000640C721C821C039CF001F50D09940000E0
:10253000000000000000000000000000000000009B
:102540009094C895640C721CF8942EBC0EB47894C8
:10255000821C039CF001F50D0994000000000000AE
:10256000000000000000000000000000000000006B
:10257000000000000000000000000000000000005B
:10258000AA90A0949094A99200000EB42EBC640C62
:10259000721C821C039CF001F50D099400000000E0
:1025A000000000000000000000000000000000002B
:1025B000000000000000000000000000000000001B
:1025C000CA90BA90AA90A094B094C0949094A99202
:1025D000B992C9920EB42EBC640C721C821C039C6E
:1025E000F001F50D0994000000000000000000005B
:1025F00000000000000000000000000000000000DB
:1026000000E0921001E0902E640C721CF8942EBC35
:102610000EB47894821C039CF001F50D099400001F
:1026200000000000000000000000000000000000AA
:10263000000000000000000000000000000000009A
:102640001A90912800E0921001E0902E0EB42EBC5A
:10265000640C721C821C039CF001F50D09940000AF
:10266000000000000000000000000000000000006A
:10267000000000000000000000000000000000005A
:10268000AA90A928BA90AB289924A210942C0EB431
:102690002EBC640C721C821C039CF001F50D099485
:1026A000000000000000000000000000000000002A
:1026B000000000000000000000000000000000001A
:1026C000AA90A928BA90AB28BA90AB289924A21056
:1026D000942C0EB42EBC640C721C821C039CF00162
:1026E000F50D09940000000000000000000000004B
:1026F00000000000000000000000000000000000DA
:10270000EA9021E0E91408F020E0922E0EB42EBCED
:10271000640C721C821C039CF001F50D09940000EE
:1027200000000000000000000000000000000000A9
:102730000000000000000000000000000000000099
:10274000AA90FA90EA90EA14F90450F099240EB491
:102750002EBC640C721C821C039CF001F50D0994C4
:10276000942C0EB42EBC640C721C821C039CF001D1
:10277000F50D0994000000000000000000000000BA
:10278000BA90AA900A91FA90EA90EA14FB0409051B
:1027900050F099240EB42EBC640C721C821C039C55
:1027A000F001F50D0994942C0EB42EBC640C721C2F
:1027B000821C039CF001F50D09940000000000004C
:1027C000CA90BA90AA901A910A91FA90EA90EA14E3
:1027D000FB040C05190550F099240EB42EBC640CB2
:1027E000721C821C039CF001F50D0994942C0EB40C
:1027F0002EBC640C721C821C039CF001F50D099424
:10280000EA9021E0E9140CF020E0922E0EB42EBCE8
:10281000640C721C821C039CF001F50D09940000ED
:1028200000000000000000000000000000000000A8
:102830000000000000000000000000000000000098
:10284000AA90FA90EA90EA14F90454F099240EB48C
:102850002EBC640C721C821C039CF001F50D0994C3
:10286000942C0EB42EBC640C721C821C039CF001D0
:10287000F50D0994000000000000000000000000B9
:10288000BA90AA900A91FA90EA90EA14FB0409051A
:1028900054F099240EB42EBC640C721C821C039C50
:1028A000F001F50D0994942C0EB42EBC640C721C2E
:1028B000821C039CF001F50D09940000000000004B
:1028C000CA90BA90AA901A910A91FA90EA90EA14E2
:1028D000FB040C05190554F099240EB42EBC640CAD
:1028E000721C821C039CF001F50D0994942C0EB40B
:1028F0002EBC640C721C821C039CF001F50D099423
:10290000592D4A913A912A919A918A917A916A9194
:1029100011240E94CF33942C811199240EB42EBC23
:10292000640C721C821C039CF001F50D09940000DC
:102930000000000000000000000000000000000097
:10294000592D4A913A912A919A918A917A916A9154
:1029500011240E94CF33942C87FF99240EB42EBCEF
:10296000640C721C821C039CF001F50D099400009C
:102970000000000000000000000000000000000057
:1029800001E0921000E0902E640C721CF8942EBCB2
:102990000EB47894821C039CF001F50D099400009C
:1029A0000000000000000000000000000000000027
:1029B0000000000000000000000000000000000017
:1029C000592D4A913A912A919A918A917A916A91D4
:1029D00011240E947633699379938993992E0EB4CA
:1029E0002EBC640C721C821C039CF001F50D099432
:1029F00000000000000000000000000000000000D7
:102A0000592D4A913A912A919A918A917A916A9193
:102A100011240E947533699379938993992E0EB48A
:102A20002EBC640C721C821C039CF001F50D0994F1
:102A30000000000000000000000000000000000096
:102A4000592D4A913A912A919A918A917A916A9153
:102A500011240E942C33699379938993992E0EB493
:102A60002EBC640C721C821C039CF001F50D0994B1
:102A70000000000000000000000000000000000056
:102A8000592D4A913A912A919A918A917A916A9113
:102A900011240E948E34699379938993992E0EB4F0
:102AA0002EBC640C721C821C039CF001F50D099471
:102AB0000000000000000000000000000000000016
:102AC000992D8A917A916A9111240E94F634699322
:102AD00079938993992E0EB42EBC640C721C821CBF
:102AE000039CF001F50D09940000000000000000B7
:102AF00000000000000000000000000000000000D6
:102B0000992D8A917A916A9111240E94FB346993DC
:102B100079938993992E0EB42EBC640C721C821C7E
:102B2000039CF001F50D0994000000000000000076
:102B30000000000000000000000000000000000095
:102B4000992D8A917A916A9111240E94293569936D
:102B500079938993992E0EB42EBC640C721C821C3E
:102B6000039CF001F50D0994000000000000000036
:102B70000000000000000000000000000000000055
:102B8000992D8A917A916A9111240E94273569932F
:102B900079938993992E0EB42EBC640C721C821CFE
:102BA000039CF001F50D09940000000000000000F6
:102BB00000000000000000C00895000000000000B8
:102BC000192C23E0620E721C9A90F8942EBC0EB55C
:102BD000821CECDF2EBC1EB57894EBDF121431F4AE
:102BE00038018EB4599A59982EBDD0C22EBCE1DF5F
:102BF000CBCE00000000000000000000000000003C
:102C0000640C721C821C921469F423E03FEF0EB432
:102C1000599A59982EBD9A9007FE30E0600C731EA9
:102C2000831EB5C200002EBC9A90C5DFADCE000059
:102C30000000000000000000000000000000000094
:102C400002E0600E721C821C921491F4F8942EBC67
:102C50000EB5789423E09A903FEF600EACDF1EB57E
:102C6000599A59982EBD17FF30E0711E831E8FC2EE
:102C70002EBC9A909BDF2EBC9CDF86CE000000000D
:102C8000192C23E0620E721C9A90F8942EBC0EB59B
:102C9000821C8CDF2EBC1EB578948BDF121431F0B1
:102CA00038018EB4599A59982EBD70C22EBC81DF5E
:102CB0006BCE0000000000000000000000000000DB
:102CC000640C721C821C921469F023E03FEF0EB476
:102CD000599A59982EBD9A9007FE30E0600C731EE9
:102CE000831E55C200002EBC9A9065DF4DCE0000B9
:102CF00000000000000000000000000000000000D4
:102D000002E0600E721C821C921491F0F8942EBCAA
:102D10000EB5789423E09A903FEF600E4CDF1EB51D
:102D2000599A59982EBD17FF30E0711E831E2FC28D
:102D30002EBC9A903BDF2EBC3CDF26CE000000006C
:102D400023E0620E721C821C00C0F8942EBC0EB5EB
:102D50002CDF2EBC1EB578942CDF921431F4380190
:102D60008EB4599A59982EBD11C22EBC9A9023DF69
:102D70000BCE00000000000000000000000000007A
:102D8000640C721C821C23E0921459F43FEF0EB4C1
:102D9000599A59982EBD07FE30E0600C731E831EB1
:102DA000F6C12EBC9A9007DFEFCD000000000000B6
:102DB0000000000000000000000000000000000013
:102DC00003E0600E721C821C00C0F8942EBC0EB58D
:102DD000ECDE2EBC1EB57894ECDE921431F0380196
:102DE0008EB4599A59982EBDD1C12EBC9A90E3DE6B
:102DF000CBCD00000000000000000000000000003B
:102E0000640C721C821C23E0921459F03FEF0EB444
:102E1000599A59982EBD07FE30E0600C731E831E30
:102E2000B6C12EBC9A90C7DEAFCD000000000000F6
:102E30000000000000000000000000000000000092
:102E4000C89500C0AFB6F8942EBC6EB423E0AEDED9
:102E50002EBC7EB4AFBEAADE8EB4599A59982EBD50
:102E600095C100000000000000000000000000000C
:102E70000000000000000000000000000000000052
:102E8000640C721C821C00C03FEF23E00EB4599A00
:102E900059982EBD07FE30E0600C731E831E77C16B
:102EA0000000000000000000000000000000000022
:102EB0000000000000000000000000000000000012
:102EC00022E0620E721C821C3FEF23E0F8942EBCBD
:102ED0008EB578946CDE680E9EB5599A59982EBDC1
:102EE00097FF30E0791E831E52C186E084D1000036
:102EF00000000000000000000000000000000000D2
:102F0000892C7A906A909A9023E0599A59982EBD0C
:102F10003DC10000000000000000000000000000B3
:102F200000000000000000000000000000000000A1
:102F30000000000000000000000000000000000091
:102F4000A0913406AD3288F6B6E0AFB6F8942EBC48
:102F50000EB4AFBE03E0060D602C721C821C0D93F4
:102F60007D928D9200C0F8942EBC7EB4AFBEA0932B
:102F700034061FDE23E08EB4599A59982EBD06C13F
:102F8000A0913406AD32A8F4B6E0640C721C821C29
:102F90006D927D928D92A09334060EB423E0599ADF
:102FA00059982EBD102C110C1108600C711C811C3D
:102FB000EEC086E020D1000000000000000000000C
:102FC000A0913406AD32A8F7B6E022E0F8942EBC0A
:102FD0000EB57894620E721C821C6D927D928D9259
:102FE000A093340623E030E0600E1EB5599A59983C
:102FF0002EBD17FD3FEF711E831EC9C000000000EB
:10300000A0913406AD32A8F6B6E06D927D928D9215
:10301000A093340623E0599A59982EBD892C7A90B2
:103020006A909A90B4C00000000000000000000008
:103030000000000000000000000000000000000090
:10304000A0913406B6E08E9023E0599A59982EBD8F
:103050007E906E90A09334069AC09A918A917A914C
:103060006A915A914A913A912A910E947E356993C8
:10307000799389939993C0933006089500000000D6
:10308000E0E7F5E3640C721C821C609231060EB41A
:103090002EBC7092320680923306E00DF21D059030
:1030A000F491E02D9992C093300611240995C091B6
:1030B00030069A900EB42EBC640C721C821C039CC9
:1030C000F001F50D099482E096C0A49ED00CE11C9D
:1030D000F21CA59E0EB52EBCE00CF11CB49EE00CBB
:1030E000F11CB59EF00CC49EF00CD99200C01EB528
:1030F0002EBC0FD02EB52EBCA016B106C20618F7F6
:103100000AD00EB42EBCE9929F2C039CF001F50D61
:10311000099400C000C000C0C8950895C89500C0BB
:103120004EB52EBC12E0610E721C821CF4DF5EB53F
:103130002EBCC92CBA90AA902A911A910A919A9001
:10314000EA90DA90A016B106C206C8F4A49ED00C8C
:10315000E11C921CA59EE00C911CB49EE00C911CFD
:10316000B59E900CC49E900CD992E9920EB42EBCE0
:10317000640C721C821C039CF001F50D099482E022
:103180003AD0599A23E059982EBD00C00000009112
:103190003806021519F50091450A0215C9F4009187
:1031A000760A1091770A070D181D1EBD1ED00EBDA0
:1031B0001CD06EBC1BD02EBC1AD0640C721CF894B0
:1031C0002EBC0EB47894821C039CF001F50D09947A
:1031D0001124C89500C0599ADCD7D4CF1124C895C2
:1031E00000C0599A0E942429CDCF0000C89500C084
:1031F000C895000008956092310670923206809260
:1032000033069992C093300611240E94F2240C9444
:1032100000009A918A917A916A915A914A913A91D1
:103220002A910E9421346993799389939993C09349
:1032300030060895000000000000000000000000BB
:10324000000000000000000000000000000000007E
:10325000000000000000000000000000000000006E
:10326000000000000000000000000000000000005E
:10327000000000000000000000000000000000004E
:103280004E6F20666F6E742073657420666F7220B7
:1032900074657874206F7065726174696F6E005325
:1032A000697A6573206F66206D656D63707920643F
:1032B00073742F737263206469666665720053705D
:1032C00072697465206672616D65206F75747369CB
:1032D0006465206F66207365740043616C6C2073B5
:1032E0007461636B206F766572666C6F7700446102
:1032F000746120737461636B206F766572666C6FA6
:103300007700417373657274696F6E206661696CD2
:103310006564004469766973696F6E206279207A0A
:1033200065726F00417272617920696E6465782000
:103330006F7574206F6620626F756E6473004761ED
:103340006D652064617461206E6F7420666F756EA8
:1033500064000000FFFFFFFFFFFFFFFFFFFFFFFF15
:10336000FFFFFFFFFFFFFFFF19FDE4EE7CE1D4D478
:10337000E2C89CBDF7B2ECA8719F7E960C8E1386B6
:103380008C7E7277BE706A6A7164CE5E7C597654A8
:10339000B84F3F4B06470943463FB93B5F38353589
:1033A0003832672FBE2C3B2ADC279F2583238521BB
:1033B000A31FDD1D2F1C9A1A1C19B3175F161D15AC
:1033C000EE13D012C111C210D20FEE0E180E4D0D19
:1033D0008E0CDA0B2F0B8F0AF7096809E1086108D8
:1033E000E90777070C07A7064706ED059805470587
:1033F000FC04B40470043104F403BC0386035303D7
:103400002403F602CC02A4027E025A0238021802F9
:10341000FA01DE01C301AA0192017B01660152019A
:103420003F012D011C010C01000100010001000100
:103430000001000100010001000100010001000184
:103440000001000100010001000100010001000174
:1034500000010001000085C352C323C3F5C2CBC2E3
:10346000A3C27DC259C237C217C2F3B3BBB385B37F
:1034700052B323B3F5B2CBB2A3B27DB259B237B2D5
:1034800017B2F3A3BBA385A352A323A3F5A2CBA298
:10349000A3A27DA259A237A217A2F393BB9385934F
:1034A00052932393F592CB92A3927D9259923792A5
:1034B0001792F383BB83858352832383F582CB8268
:1034C000A3827D82598237821782F373BB7385731F
:1034D00052732373F572CB72A3727D725972377275
:1034E0001772F363BB63856352632363F562CB6238
:1034F000A3627D62596237621762F353BB538553EF
:1035000052532353F552CB52A3527D525952375244
:103510001752F343BB43854352432343F542CB4207
:10352000A3427D42594237421742F333BB338533BE
:1035300052332333F532CB32A3327D325932373214
:103540001732F323BB23852352232323F522CB22D7
:10355000A3227D2259223E33243313330233EE3229
:10356000DA32BE329F32803200004552524F520052
:10357000882E882E2F1EE71CE11CE11CDB1C2D1E53
:103580002B1EE11CE11CDC24DC248B2DAC276527E1
:103590003C2D6B281028B328F61CED1CC31D8C1C79
:1035A0005C01592D5101A9305C2F4B2F3B2F2C2F43
:1035B0001D2F1627E30BE2278820E52622277530EA
:1035C0002530C02FB4266826602DEF1EBD2FDA1FD0
:1035D000EC1EE91EE61EB32F791D7C011620B02FCC
:1035E000EA1F862FBE1E652F9101B10171010919D5
:1035F000F1011102D1012D186E0D310213276F1D3B
:103600005D1D1027251DF21E1700030C0000000091
:10361000994C000003002E02D1010000C4111001DA
:1036200084101000980C2E3AF243B94AB12A877CD4
:10363000B726AE22211FAA2AA23A0A0050018428E6
:103640004A298A10A10A0000BE78BF2A2E463F3AB6
:10365000BF46BF042E669F7CF147F1019F6C1F425D
:103660005F7C3F783F7EBF082E7ABF68B226E107B5
:103670001F7E071F1F7D9B6C833EB94E3F028360F8
:10368000F1032208104241004C7A5F324C4A4C7ED2
:103690004C53BE00D6035F701D00B0019F681F0031
:1036A0009E785E704C325E1144799E0856034F023C
:1036B0000E7A061B1E799249823ADA02C47D000016
:1036C000DF11DB70C0A0D92181FFA8000000003FFE
:1036D000CDCC4C3D0AD7A33B6F12033A17B75138F4
:1036E000ACC5A736BD37063595BF563377CCAB3161
:1036F0005F700930D5F08D14A1C881CFD9F1AF200A
:10370000000011241FBECFEFDAE0DEBFCDBF16E010
:10371000AEE3B6E0E0EDF0E702C005900D92AE3307
:10372000B107D9F72AE0AEE3B6E001C01D92AD378C
:10373000B207E1F70E94C1310C9466380C94000086
:10374000E5E0F0E010D0319728F068517C4F8F4FC2
:103750009F4FF9CFAB01FC0106D0641775078E07A8
:103760009F07D0F30895A2E7BAE02FB7F8947D91B0
:103770008D919C9166B52FBFA89B05C06F3F18F433
:103780007F5F8F4F9F4F22E0660F771F881F991F23
:103790002A95D1F708959C01E0E0F2E0A0E0B0E0C6
:1037A000BD0180E045D039D0BD011296A20FB31FF4
:1037B00082179307A9F38F5F9F4F21F4AF5FBF403C
:1037C000DB0160F0F6D040E050917B0A60917C0A0A
:1037D00080E226D0599AD5D0A0E0B0E07CEFE9D0C5
:1037E0004A2F50917B0A5B0F60917C0A611D82E039
:1037F00017D0832F71FD822F70FD819124D0759594
:1038000018F42150304019F01196AA2391F7599AD3
:10381000B8D02115310519F7089539D0982F3DC03A
:10382000599811D0862F0FD0852F0DD0842F0BC023
:10383000462F50917B0A570F60917C0A681F83E0E6
:10384000EFDF1EBC08958EBD00008EB50DB407FEDF
:10385000FCCF0895E0E0F2E0DC0160E070E080E0A1
:10386000E7DF9D01AF0160E00FD08217930749F4B5
:10387000D901FA0160E00BD081931197E1F761E083
:10388000F3CF0BD0862F089502D0982F00C00DB42F
:1038900007FEFDCF8EB51EBC08950DB407FEFDCF0B
:1038A0008EB5599A08950F931F93CF93DF9380910C
:1038B00064008E7F8093640080917A00806480939E
:1038C0007A0080917A0086FDFCCFC0917800D0917B
:1038D000790049DFAB01BC01809164008160809375
:1038E0006400CE01B0E0A0E0DC01992788278C01BC
:1038F0009D01040F151F261F371FC901B801DF9155
:10390000CF911F910F9108958FB18095807F669B15
:1039100088601C9B8460089581E083BF889513BEF6
:1039200008958EBD00000DB407FEFDCF089508DF99
:103930005F9A06DF5C98E4EFF6E38591F2DFE13011
:10394000E1F75C9A089510927A0A3E983F9808959C
:103950003E9A3F9A81E080937A0A08959091790A7D
:10396000982329F49091780A982381E009F480E063
:1039700008958091780A8093790AC6DF8093780A47
:103980000895599885E05FDF80E05DDF80FDFCCF22
:10399000599A0895462F5091760A570F6091770AE9
:1039A000681F83E03DDF1EBC089559984CDF599A8B
:1039B000089586E0FACFE0E3F6E0808189508083C5
:1039C0000895E0E3F6E08081865080830895E0E387
:1039D000F6E08081855080830895E0913006F1E023
:1039E000829180933906E093300608958A918093FE
:1039F0003C068A9180933B068A9180933A06C09355
:103A0000300608956091680A7091690A80916A0A87
:103A100090916B0A9827872776279C0136952795E2
:103A20008327372F7227379563279B013695279574
:103A300092272227279582276093680A7093690A44
:103A400080936A0A90936B0A08958F929F92AF9227
:103A5000BF92CF92DF92EF92FF92CF93DF93C0910C
:103A60003006D1E0FA90EA90DA90CA90BA90AA9023
:103A70009A908A90C814D904EA04FB0468F4C2DF5F
:103A8000A50194012C193D094E095F090E944F318F
:103A9000C60ED71EE81EF91EC992D992E992F99274
:103AA000C0933006DF91CF91FF90EF90DF90CF90E1
:103AB000BF90AF909F908F900895E0913006F1E015
:103AC000B291A291929182918093680A9093690A2F
:103AD000A0936A0AB0936B0AE09330060895E3DE80
:103AE0006093680A7093690A80936A0A90936B0ADC
:103AF00008951092670A80914C0A811108C01092B3
:103B0000550A88E1809391001092C00018B808957A
:103B1000A0914A0AB0914B0A1097C9F0E091460A69
:103B2000F091470A94E0EF37F90728F010924B0A1A
:103B300010924A0A08952D913C9111972F5F3F4FA3
:103B40002D933C938193F093470AE093460A08959E
:103B50008093F1000895E091480AF091490A62814A
:103B600073816115710549F0615071096283738336
:103B7000A081B1818D93A083B18308954EDE082E7C
:103B8000892F902D0895E0913006F1E06291E09345
:103B900030066B3040F070E080E094E00E940F311E
:103BA0006093360608956623D9F364E6F9CF0F9340
:103BB0001F93CF93E0913006F1E092914291242F30
:103BC000392F92916291462F592F9291C2917C2F59
:103BD000B291E0933006E091460AF091470A64E022
:103BE000EA37F60708F033C0203831050CF02FC053
:103BF0004034510564F58901090F111D1016110695
:103C000034F58A010C0F111D1016110604F5A22FB0
:103C1000642F37FF02C0920FA0E057FF03C07C2F34
:103C2000760F60E08F5F8193A193619380E88A1B98
:103C3000981708F4892F819380E4861B781708F47D
:103C4000872F8193B193F093470AE093460ACF916F
:103C50001F910F91089581E0AACF80E0A8CFE09155
:103C60003006F1E0329780E08193E09330060895CA
:103C70005998A3E0AEBDFC0181919191A191409131
:103C8000760A5091770A490F5A1F00C000C05EBDE6
:103C90000DD04EBD0BD08EBD0196A11DA293929367
:103CA000829308D01EBC04D000000895C895C89522
:103CB00000C000C0089583E059988EBD0091380679
:103CC000011531F011241ED0599A0E942429F3CFF6
:103CD0000091450A011529F0112414D0599A59D29E
:103CE000EACF4091310650913206609133068091BF
:103CF000760A9091770A580F691F6EBD07C00000C1
:103D0000000000C0000000C0C8950895FADF5EBD45
:103D1000F6DF4EBDF5DF1EBCF5CF93E059989EBD92
:103D200040913A0650913B0660913C0697E0899F8E
:103D3000400D511D1124611DDADF00C000C08EB599
:103D4000599A089593E059989EBD40913A06509132
:103D50003B0660913C0697E0590F611DC8DF00C02B
:103D600000C08EB5599A089593E059989EBDAB0155
:103D7000682FC895C895BBDF00000895CF93599A66
:103D80006AE070E080E006DE82DDC82F86DD2C2F41
:103D9000382FC90101978F3F910509F010F4C9012F
:103DA000FADCEFDD88DFCF910895FC01A0913006A9
:103DB000B1E08E917E916E91A093300690917A0A37
:103DC000992319F0599A099576CF089584E891E2DC
:103DD000ECCF80E491E2E9CF88E691E2E6CF8AEE8B
:103DE00090E2E3CF8F929F92AF92BF92CF92DF92F9
:103DF000EF92FF920F931F93CF93DF93E0913006E2
:103E0000F1E0829192912291C22ED92EE82E8291D8
:103E10009291092F182F8291EF019A91A92EB82E15
:103E2000599A8E2DB601B6DD32DDF82E2DDD4C010E
:103E3000082C892C902CA2DE0817190708F03CC02A
:103E4000A814B90408F038C025E0C20ED11CE11C4A
:103E5000A89E9001B99E402DA99E300D411DB89E8F
:103E6000300D411D1124200F311F411D82E0F81239
:103E700003C0220F331F441F842FB9016C0D7D1D19
:103E80008E1D88DD21E0F21215C007DD90E0FE01F5
:103E900081939193E09330060EDFDF91CF911F91D4
:103EA0000F91FF90EF90DF90CF90BF90AF909F90D9
:103EB0008F90089563DEEBCF90E080E0E8CFAF9283
:103EC000BF92CF92DF92EF92FF920F931F93CF9307
:103ED000DF93CDB7DEB7C350CDBFB62E8A01A22E79
:103EE00030E1E32EFF24F394F801A0FE9191A0FCB1
:103EF00095918F01992309F443C0903209F43EC093
:103F0000E92FEE0FFF0BEA53FA4C45915491FA0159
:103F100093E08E3708F030C0382F91E05E2F5F714C
:103F200009F42AC04B2D50FF1AC037FD18C0642F6A
:103F300070E0603471059CF421E061FD24E060FDD7
:103F4000220F62FD2295687FE69ED0011124A30F07
:103F5000AB5BB94F0C90022AF0FE02260C924F5F29
:103F6000569509F725E0F695E7952A95E1F79F5FC5
:103F70003F5F953009F0D2CF890FB6CF92E0FCCFEA
:103F8000CD5FCDBFDF91CF911F910F91FF90EF904B
:103F9000DF90CF90BF90AF90089510924C0AEDE45F
:103FA000FAE01086118A88E1809391001092C00097
:103FB00018B8089580914C0A8111EFCF089580912F
:103FC000550A811106C080915E0A811102C080915C
:103FD000670A089518B8EDE4FAE01086118A128E87
:103FE0001092450A10924C0A88E180939100109239
:103FF000C00018B80895109280008AE08093810074
:1040000085E293E0909389008093880082E080931A
:104010006F0083E48093900088E180939100109278
:10402000C0001092C1001092C300D4CF80917A0AD0
:10403000882311F088DCDFCF8BDCFDCF813818F0CE
:104040001092C0000895811104C01092C00018B8E9
:104050000895E82FF0E0EE0FFF1FEC5AFB4C85911E
:104060009491292F22952F709F702093C1009093D7
:10407000BF008093D100969587959093BF00809361
:10408000CF0082E88093C0000895813820F088E155
:104090008093910008958823D1F3E82FF0E0EE0F8C
:1040A000FF1FEE5AFC4C8591949190939900809358
:1040B00098008AE1EDCF599893E09EBD9FB700909C
:1040C000760A700D0090770A801D1FD08EBD19D022
:1040D0007EBD17D06EBD16D01EBCDA012150304017
:1040E00000C051F000C013D0F8941EBC0EB49FBFA6
:1040F0000D9221503040B9F709D00EB40C92599A64
:104100000895000000C0C8950000000000C0089598
:10411000E0913006F1E03291229152914291029069
:10412000011402900306029002068291729162913C
:1041300011F088E057C4E0933006599ABCDFBBCD3C
:104140000895CF92DF92EF920F931F93CF93DF9357
:10415000FC01448104E0102F141B99F0EC01C58090
:10416000D680E780212F30E0480F592F511D8E2D2A
:10417000B601A1DFC10ED11CE11CCD82DE82EF822F
:104180000C83DF91CF911F910F91EF90DF90CF9033
:104190000895CF938091450A8823D1F0CFB7F89442
:1041A0008091550A882319F08DE49AE0CADF809146
:1041B0005E0A882319F086E59AE0C3DF8091670ADA
:1041C000882319F08FE59AE0BCDF1092450ACFBF33
:1041D000CF910895CF92DF92EF921F93CF93DF9309
:1041E000CDB7DEB7C350CDBF6B01E82E18B823E0C2
:1041F00030E0AE014F5F5F4F5EDF83E0C80ED11C41
:10420000E11C1FB7F8941092510AC092520AD09242
:10421000530AE092540A81E08093550A8091550A2E
:10422000882319F08DE49AE08CDF89819A81AB8133
:10423000C80ED91EEA1E10925A0AC0925B0AD0928A
:104240005C0AE0925D0A81E080935E0A80915E0ADA
:10425000882319F086E59AE074DF80914D0A15DF16
:104260008091560AEBDE81E080934C0A1FBFCD5F40
:10427000CDBFDF91CF911F91EF90DF90CF90089548
:10428000CF92DF92EF92CF936B01E82E80914C0A90
:10429000811183DE18B8CFB7F8941092510AC092FA
:1042A000520AD092530AE092540A81E08093550A50
:1042B0008091550A882319F08DE49AE042DF8091BD
:1042C0004D0AE3DECFBFCF91EF90DF90CF900895FE
:1042D000CF9318B8CFB7F8941092630A6093640A2A
:1042E0007093650A8093660A81E08093670A8091E3
:1042F000670A882319F08FE59AE023DF80915F0A2F
:104300009DDECFBFCF9108959091670A992329F040
:104310009091550A911101C0B3CFDACFE091460ACE
:10432000F091470A24E0E437F207F0F425E0219306
:10433000819391936193719380913A0690913B069A
:10434000A0913C0681939193A1938091390681932A
:10435000F0934B0AE0934A0A90E080E081939193B6
:10436000F093470AE093460A089530E73CBDDC012C
:1043700030E8439FC0011124A80FB91F5E91352F6B
:104380006111372F3C93C89500C052235EBD019741
:10439000A9F704D003D030E50DB43CBD08950F93C8
:1043A000582F260F31E061FD34E060FD330F62FDD0
:1043B0003295319581E021FD84E020FD880F22FDBA
:1043C000829581952A95669566956695269526959A
:1043D000269590E8699FF0011124EB5BF94FE50FFA
:1043E000F11D941B261B30FD239580FD239500FDB8
:1043F0000FEF632F6095211107C0082E0094862BC4
:10440000602D632360232EC051F03023542F008091
:104410000622032A01925A95D1F7E90FF11D2A9538
:10442000E9F0542F577081F4542F019301930193B5
:10443000019301930193019301935850B1F7E90F50
:10444000F11D2A9571F70AC001935A95E9F7542F87
:10445000587F59F7E90FF11D2A9519F7682F6095D4
:1044600039F0602300800822062A01924A95D1F78C
:104470000F910895803891057CF46034710564F4DF
:10448000DC01A40FB11D1A161B0634F4DB01A20FC8
:10449000B11D1A161B060CF008953F924F925F92C1
:1044A0006F927F928F929F92EF92FF920F931F9342
:1044B000382E6624842E322F3695369536955998A7
:1044C00053E05EBDFB01F595E795F595E795F5950C
:1044D000E7951E2F1F3F4CF41095311BC0FC110FA8
:1044E000149FE00CF11C061D1FEF0090760AF00CE3
:1044F0000090770A001D97FF0BC0880EC0FE02C017
:10450000880F991FE81AF90A060997FD03953324C5
:104510000EBDA5E4B6E050E81503030CA00DB11DD7
:104520005319851608F0852E7727E7E0E11BE3177E
:1045300014F43E2F7160FEBCE0E8E8194E2E51E005
:1045400061FD54E060FD550F62FD5295552EEFEF71
:10455000E59D300160947094EEBC112464D11EBCC2
:10456000E894481168946FB7C1FCEAC0C2FCA1C0CE
:1045700011151CF0332381F577C0A058BF4F582D7B
:10458000C0FC0DC0F8941EBC8EB56FBF859D9C907D
:10459000972091289D9200C05A95A1F714C0F894D5
:1045A0001EBC8EB56FBF859DC00140D1F8941EBC66
:1045B0006EB46FBF659C30019C9070949720992ACF
:1045C0009D925A9561F71124A819B1093A9509F4F9
:1045D00002C116F4599A0DD1FD01E058FF4F582D34
:1045E000C0FC1FC0569518F453959C900CC08EB516
:1045F0001EBC859D9C90962090289D92908097202F
:10460000912891929C908EB51EBC859D96209028F5
:104610009D92908097209128919200005A9539F7A9
:1046200016C0F8941EBC8EB56FBF859DC0019C90CE
:104630007080FDD06EB41EBC659C00949020982ABA
:104640009D9210947120792A71925A9551F71124F4
:10465000A40DB11D3A9509F0BCCF70FFBCC026F483
:10466000599AC7D000C0C895C0FC0DC0F8941EBCB4
:104670008EB56FBF859D9C90962090289D9200C01E
:104680008A94A1F7A8C0F8941EBC8EB56FBF859D13
:10469000C001CCD0F8941EBC3EB56FBF359D302D07
:1046A0009C9030959322982A9D928A9461F70000FD
:1046B00092C011151CF03323D1F436C0A058BF4F5F
:1046C000582DF8941EBC8EB56FBF859D9C90912887
:1046D0009D92C8955A95A9F71124A819B1093A9540
:1046E00009F479C026F4599A84D000C000C0FD01B5
:1046F000E058FF4F582D8EB51EBC859D9C9090288C
:104700009D9290809128919200005A95A1F71124D2
:10471000A40DB11D3A9531F770FF5DC02EF4599A82
:1047200068D000C000C0C895F8941EBC8EB56FBF9D
:10473000859D9C9090289D92C8958A94A9F74BC01E
:1047400011151CF03323E9F439C0A058BF4F582D80
:1047500000C0F8941EBC8EB56FBF859D0094109468
:104760009C9091209D9200005A9599F71124A819C8
:10477000B1093A9509F42FC026F4599A3AD000C0ED
:1047800000C0FD01E058FF4F582D8EB51EBC859D21
:10479000009410949C9090209D92908091209192F2
:1047A0005A9599F71124A40DB11D3A9529F770FF78
:1047B00012C01EF4599A1DD000C000C0F8941EBC4F
:1047C0008EB56FBF859D009410949C9090209D9213
:1047D00000008A9499F71124599A1F910F91FF9024
:1047E000EF909F908F907F906F905F904F903F9051
:1047F00008955998E3E0EEBD1124E40EF11C011D6B
:10480000C0FCE40EC0FCF11CC0FC011D10D00EBDAC
:1048100008D0FEBC06D0EEBC05D01EBC00C000C057
:1048200008950000000000000000C895C895089594
:1048300008956F927F928F92DF92EF92FF920F9383
:104840001F93CF93DF93E091460AF091470AED570B
:10485000F44008F067C0803891050CF063C0603404
:1048600071050CF05FC03901842EEB017C01842FAF
:10487000B9017ADA0CD8D82E10D897012D0D311D38
:10488000121613060CF04EC08C0F9D2F911D18169A
:1048900019060CF047C04091460A5091470A80E83B
:1048A000E8168FEFF8060CF448C0C0389FEFD90720
:1048B0000CF443C00F3F110511F008F03EC0E09129
:1048C0004A0AF0914B0A309709F44CC08191843028
:1048D00009F048C081919191A191681679068A06E4
:1048E00009F040C080818F5F09F43CC080838091D3
:1048F000420690914106890F8E114CC0809140066E
:1049000090913F06890F8C1345C0FA0101938FE700
:104910008193AF01E0924206C09340065093470A4C
:104920004093460ADF91CF911F910F91FF90EF9036
:10493000DF908F907F906F90089524E04637520764
:1049400088F7FA0183E08193E192F192C193D193C8
:1049500061927192819201931193F093470AE093CF
:10496000460AE0CF8091460A9091470A88579440C2
:10497000C8F650934B0A40934A0AE0924206C0930D
:104980004006FA0184E0819361927192819281E004
:104990008193AF01FA0101932C2F2193E192AF0192
:1049A000809142069E2D981B90934106809140066F
:1049B000281B20933F06AECF0F931F93E091300644
:1049C000F1E09291829172916291429132912291A1
:1049D00012910291E0933006599A2BDF6CD91F9106
:1049E0000F910895CF93DF93CDB7DEB7CA52CDBFF5
:1049F0008CA380933506E5E4F6E080E094E0DF01E7
:104A00009C011D9221503040E1F7599AE3DA5E98FB
:104A10000E94971C5C9888EA0E94911C8FE30E9478
:104A2000911C5C9A5E9A3CA110E0323040F01091EB
:104A300034068BEA189F112D112416951F5F4CA187
:104A40004150550BCA01880F991FDC01AA5ABA4C74
:104A5000B8A7AFA3CC24C39400E0E12FF0E0FAA7FD
:104A6000E9A79E012F5F3F4F79010E94B91C0023E7
:104A700039F080E80E94AE1C882311F00150C82E46
:104A800088E0800F811728F480E10E94AE1C81111C
:104A90007AC0CC2009F4EFC021E04AE655E361E09A
:104AA00081E00DDA3CA1313069F028E130E0A70166
:104AB00060E270E080E0FFDA198E20E0A70161E09B
:104AC00084E2FDD9E5E4F6E080814FE78427819315
:104AD00056E0E53CF507C0F3EFA1F8A545915491E8
:104AE00021E068E080E0EBD929A53AA5201B310937
:104AF000C901880F991F820F931FDC01A050BF4F7F
:104B0000BEA3ADA3902EB1E1BBA3911608F0A2C045
:104B1000209031063090320640903306992039F0CB
:104B2000EDA1FEA1E350FB4F2080318042806CE07C
:104B300070E080E019D90E94471C582E0E94441C46
:104B4000B82E0E94471CA82EC92E0E94441C782F04
:104B50000E944D1C682F892F07D9612C712C812C44
:104B60001AA219A2D12C62147304840478F50E944D
:104B7000471C87FD0AC090E00196680E791E811CD3
:104B800097FD8A94F0CF0F5F87CF8D3F50F429A116
:104B90003AA12F573109F901E80FF11DFAA3E9A352
:104BA000E2CF8D3F21F40E94471CD82EDCCF8E3FF0
:104BB00029F40E94441C9AA389A3D5CF0E94441CC7
:104BC000782E0E94471C682E892ECDCF0E944D1C46
:104BD000D514A0F5F0E2DF9EC00111244C2D950103
:104BE000280F391F411D97FD4A95842FB90120E2F6
:104BF00030E0A70160DA20E0A7016BA188E15FD96E
:104C0000FE01369689A19AA16AE070E00E940F31F8
:104C1000805D829369A37AA3EE16FF0699F71E8240
:104C200080E0A701480F511DDA019C91903311F4E7
:104C30008F5FF7CF20E06BA180E041D99394BBA1B7
:104C4000BA5FBBA3EDA1FEA13397FEA3EDA3BB33D7
:104C500009F05BCF5E98E5E4F6E081E0A0E0B8E023
:104C600000800EBC8111012C1197A0FDFDCF019297
:104C7000B9F70DB45E9A2FB7F89480916E0A9091AF
:104C80006F0AA091700AB091710A2FBF94E1D92EDA
:104C9000D80EC12C2FB7F89480916E0A90916F0AAC
:104CA000A091700AB091710A2FBFFD2DF81BF7FD7E
:104CB000DCCE0E948C1CEECFE0913006F1E0EE3F9E
:104CC00028F481939193E0933006089585E08ADE7D
:104CD0008F929F92AF92BF92CF92DF92EF920F93FB
:104CE0001F93CF93DF93E0913006F1E08291929190
:104CF000C92FD82F12910291829192912291C22EA6
:104D0000D92EE82E829172916291E0933006599AE1
:104D10002BD82097A9F058014E010E94471CF5019D
:104D200081935F01882361F0F1E08F1A910841F0CF
:104D300081E0C81AD108E10881F7F50180E081938C
:104D40000E944D1CC801B8DFCE01B6DF0E945B1E79
:104D5000DF91CF911F910F91EF90DF90CF90BF9097
:104D6000AF909F908F9008951F93CF93DF93E09122
:104D70003006F1E082919291C92FD82F92918291C1
:104D800022913291632F722F42915291E09330061B
:104D90002097A9F0FC01252F342FAE01D9011D91D8
:104DA0009D011193112359F04150510941F0DA014D
:104DB000A60FB71FAC17BD0789F720E021937CDF52
:104DC000CE01DF91CF911F9177CFE0913006F1E0D6
:104DD00082919291292F382F82919291492F582FA9
:104DE000E093300690E080E02115310551F0FC01A0
:104DF000E40FF51F6081662321F001968217930767
:104E0000B1F75ACFE0913006F1E0EC3F38F461930E
:104E1000719381939193E0933006089585E0E2DDEC
:104E20000E94021DEFCF0E94531CECCF2FB7F894C5
:104E300060916E0A70916F0A8091700A9091710A68
:104E40002FBFE0CF6F927F928F92CF92DF92EF923F
:104E5000E0913006F1E0829192912291C22ED92EFA
:104E6000E82E829172916291E0933006C114D104D0
:104E7000E104B1F0599A0E94B41E612C712C812C6E
:104E80000E94471C882341F08FEF681A780A880A2D
:104E90006C147D048E04A1F70E944D1CE82C630164
:104EA000E0913006F1E0ED3F70F4C192D192E192D1
:104EB000E09330060E945B1EEF90DF90CF908F90C2
:104EC0007F906F90089585E08DDDCF92DF92EF9215
:104ED000CF93DF93CDB7DEB7C350CDBFE09130069F
:104EE000F1E0929182917291629120913C0632910F
:104EF00042915291C52ED42EE32E3291429152917D
:104F000059834A833B83E0933006599A2F3F11F42B
:104F100089E068DD03DAC114D104E10479F0CE013F
:104F200001960E94381E8EB5599A882339F091E077
:104F3000C91AD108E1080E94881DEDCF10924B0AD2
:104F400010924A0A0E945B1ECD5FCDBFDF91CF91C8
:104F5000EF90DF90CF900895EF92FF920F931F9301
:104F6000CF93DF93E0913006F1E0929182917291BC
:104F7000629120913C0632914291042F132FF290BE
:104F8000E290E0933006599A2F3F11F489E02ADD30
:104F9000C5D9E7018991882341F00115110529F050
:104FA000015011090E94881DF5CF10924B0A1092F2
:104FB0004A0A0E945B1EDF91CF911F910F91FF90D3
:104FC000EF900895E0913006F1E052914291929174
:104FD00082913291229172916291E0933006421750
:104FE000530711F088E0FEDC0C94B831FC01808599
:104FF0008823A9F08181815071F481E08093450A72
:105000008481825061F022813381318320838483C3
:1050100081E090810895818380E090E00895089573
:10502000AF92BF92CF92DF92EF920F931F93CF93E5
:10503000DF93CDB7DEB7C350CDBFE0913006F1E0CE
:1050400080913C06929122913291C32ED22EE92E6C
:1050500092912291329139832A839B83E093300687
:105060008F3F11F489E0BEDC599AB12CA12C10E0DD
:1050700000E0C114D104E104D1F0CE0101960E94F8
:10508000381E8EB5599A882391F091E0C91AD1083B
:10509000E1088A3039F40A151B0508F48501B12CA2
:1050A000A12CE7CF0E948D1EA80EB11CE2CFC80133
:1050B0000A151B0508F4C501FFDD0E945B1ECD5FCC
:1050C000CDBFDF91CF911F910F91EF90DF90CF90E7
:1050D000BF90AF900895CF92DF92EF92FF920F931F
:1050E0001F93CF93DF93E0913006F1E020913C06CF
:1050F00082919291E92EF82E82919291E09330065E
:105100002F3F11F489E06EDC599AC92FD82FD12C8A
:10511000C12C10E000E08991882379F0E114F104BA
:1051200061F091E0E91AF1088A30C1F40C151D050F
:1051300008F48601D12CC12CEECFC8010C151D0539
:1051400008F4C601B9DD0E945B1EDF91CF911F916B
:105150000F91FF90EF90DF90CF9008950E948D1EE9
:10516000C80ED11CD8CF3F924F925F926F927F9220
:105170008F929F92AF92BF92CF92DF92EF92FF9267
:105180000F931F93CF93DF93E0913006F1E01291DC
:105190000291D291C29132907F0180913C06599A3E
:1051A0008F3F11F489E01EDC502E612E4E01AA249F
:1051B000A394B12CC12CD12C9AE0492E7990772060
:1051C00099F00115110581F001501109872D0E94F8
:1051D0008D1ED80EFAE07F1220C08FEFA81AB80AF1
:1051E0004E01C12CD12CEACFF701A192B192E093EC
:1051F00030060E945B1EDF91CF911F910F91FF90AF
:10520000EF90DF90CF90BF90AF909F908F907F9066
:105210006F905F904F903F900895E0E27E1204C03F
:10522000502E612ECD2C4E013D1408F0C7CFCC205E
:1052300009F4C4CFF40131974082FFEFAF1ABF0ADF
:10524000E401052D162DCDCF2F923F924F925F9204
:105250006F927F928F929F92AF92BF92CF92DF9286
:10526000EF92FF920F931F93CF93DF93CDB7DEB7EB
:10527000C950CDBF80913806823019F00E948C1C35
:10528000F9CF5E982FE741E050E061E070E085ECF7
:1052900099E06BD85C9890913E0681E000E49923F8
:1052A00011F080E00FEF80933E0681E80E94911C90
:1052B000802F0E94911C88EA0E94911C8FE30E941B
:1052C000911C5C9A2FEF47E051E061E070E085E4CB
:1052D00096E04BD85C9888EA0E94911C80E00E947E
:1052E000911C5C9A5E9A90E8A92E94E0B92EBE01BA
:1052F0006F5F7F4F7C836B8370E0A71676E0B70605
:1053000008F096C1F50181915F01882309F490C1ED
:10531000833009F476C0C8F4813070F381909190A5
:10532000F190E19091915F017724739420913E0672
:10533000291708F0712C072D823009F047C02E2D57
:105340004F2D692D882D2BD8D7CF843009F49AC0E2
:10535000853009F0D1CF819191919A838983819091
:1053600091902191319141918191619071905F0172
:10537000A981BA81BF83AE8320903A0630903B0664
:1053800040903C0620933A0630933B0640933C06FF
:1053900090913E06981708F0D5C084E050903906E9
:1053A00080933906B1E06B1A710808F438C1F50131
:1053B00041915F014A3009F0C7C06E817F817A83D5
:1053C00069830E94A21E880E911CECCF21E04F2D14
:1053D000692D882D0E94CF212E2D41E0692D882D29
:1053E0000E94CF216E2D690D615021E04F2D882D37
:1053F0000E94CF218F2D880D2E2D41E0692D8150E7
:10540000A2CF8190919061907190C190D190E190E4
:10541000419051905F018E2DB6010E94B41E0E94F2
:10542000471C382E0E94471C082F0E944D1C27E065
:10543000200F287F922F9695969596958111990F1A
:105440000E2D7601440C551C45E0E40EF11C011DA7
:1054500040913E06440E511C399EA001549DF00C13
:10546000011D459DF00C011D559D000D449DE00C56
:10547000F11C1124011DC82E432DB301C4010E944B
:105480003A223ACF21903190419071905F01842D62
:10549000B1010E94B41E0E94471C682E0E94471C46
:1054A000082F0E944D1C582E095F087F0987802F06
:1054B0008695869586955110880F90913E06899F16
:1054C000609CF0013596689E400111242E0E3F1E0F
:1054D000411C880C991C18861E82F501219181912E
:1054E0005F01912F8F3719F58E81180F9885AD8147
:1054F0009A0F9D83A42DC101929E900DA11D829EA5
:10550000800D911D1124A11DC52C7C010A2F298518
:10551000462D8D81682F880F770B812F012E000C6F
:10552000990B0E943A227A947110D7CFE5CEB82F0A
:105530003D81B31BB88711915F01412F491B4E83F9
:105540008D83D8CF86E02ACFB401AB81BC81E3E064
:105550005998EEBDE0903A06F0903B0600913C066B
:10556000E091760AF091770AFE0E0F1FE7E0E49FC4
:10557000E00CF11C1124011D0EBD02D0FEBC07C0C1
:1055800000C00000000000C000C000C00895F9DFA6
:10559000EEBCE0903A06F0903B0600913C06EFEF3F
:1055A000EE1AE8EFFE0AEFEF0E0B00C000C01EBCC3
:1055B000E8DFF8941EBC3EB578948D919C91FC0177
:1055C000E30FF11DFC93EE9300C0F8941EBC3EB5B2
:1055D0007894830F911D37FD9A95D7DFF8941EBC00
:1055E0003EB57894630F711D37FD7A95CEDFF89440
:1055F0001EBCEEB57894C7DFF8941EBCFEB5789457
:10560000EE0EFF1EC1DFF8941EBC4EB57894BADFD3
:105610002EB5599AC09039060E943A22C3CE2092E4
:105620003A0630923B0640923C065092390664CED0
:1056300010923806C75FCDBFDF91CF911F910F91B8
:10564000FF90EF90DF90CF90BF90AF909F908F90A2
:105650007F906F905F904F903F902F9008952F9282
:105660003F924F925F926F927F928F929F92AF92F2
:10567000BF92CF92DF92EF92FF920F931F93CF933F
:10568000DF93CDB7DEB7C651CDBF1C01E091300628
:10569000F1E0E290D290C290A291929182918E8795
:1056A0009F87A88BE0933006CE0101969A8B898B59
:1056B00020E3722EC114D104E10409F4C8C1809121
:1056C00038068111C1DDCE010E960E94381E1EB52E
:1056D000599A26016E2C91E0491A51086108153239
:1056E00021F0812FF101099518C0CE010E960E947C
:1056F000381E0EB5599A26016E2CF2E04F1A510849
:105700006108043609F449C058F4033509F4A9C006
:10571000033609F486C0053221F3E62C6201CACFB4
:10572000033709F485C008F033C00636B1F7E091BD
:105730003006F1E08291929122913291832E922E45
:10574000A92EB82E8B8A9C8AAD8ABE8AE093300639
:10575000CE010E960E94381E1EB5599A26016E2C57
:10576000F3E04F1A51086108C501B4019F772FEF8C
:105770003FEF4FE75FE40E947A3618160CF0B4C092
:105780008FE6F101099586E7F101099586E6AACF32
:10579000053719F0083709F0C0CFE0913006F1E085
:1057A0008291929122913291832E922EA92EB82E1F
:1057B000E0933006CE010E960E94381E1EB5599A0F
:1057C00026016E2C83E0481A51086108083709F455
:1057D0001CC1043609F068C0B7FE66C08DE2F10155
:1057E0000995B094A09490948094811C911CA11C64
:1057F000B11C1153FE0131966F01C501B4012AE0BD
:1058000030E040E050E04BD549015A01605DD601DF
:105810006D936D01115081149104A104B10469F7D5
:105820004EC0E0913006F1E01291E093300659CF7E
:10583000E0913006F1E0B290A290D290C290E09355
:105840003006A114B10409F468CFF60181916F010B
:10585000882309F462CFF1010995F1E0AF1AB1088C
:10586000F0CFE0913006F1E0E290D290C290A291A8
:1058700092918291E09330068B879C87AD87C1140B
:10588000D104E10409F449CFCE010B960E94381EE1
:105890008EB5599A882309F440CFF1010995F1E0BA
:1058A000CF1AD108E108EBCF81149104A104B1040F
:1058B00069F4CE010196DC017D926D011153111640
:1058C0003CF4D6017D926D011150F9CF105392CF67
:1058D000E989FA89EC15FD0509F41FCFF6018291DB
:1058E0006F01F1010995F4CF20E030E0A901C50175
:1058F000B4010E94873487FF0CC08DE2F101099545
:105900008B899C89AD89BE89B0588B8B9C8BAD8B64
:10591000BE8B105394E0199FF0011124E453F94C0D
:1059200065917591859195912B893C894D895E8909
:10593000DDD66B017C010E94FB344B015C010E94AF
:1059400027359B01AC01C701B601CFD66B8B7C8B91
:105950008D8B9E8B81149104A104B10481F4DE012E
:105960001196FD0171926F0189899A898C159D05A7
:1059700021F1F60182916F01F1010995F5CFE12C3A
:10598000CE0101966C01C501B4012AE030E040E08F
:1059900050E085D449015A01605DD6016D936D01D7
:1059A000EA9481149104A104B10469F71E14E4F689
:1059B000F60171926F01EA94F9CF112309F4ADCE8B
:1059C0008EE2F1010995115017FDA7CE20E030E0DD
:1059D00040E251E46B897C898D899E893DD66B01BB
:1059E0007C010E94FB34062F70E090E080E00E9472
:1059F00029359B01AC01C701B60177D66B8B7C8B37
:105A00008D8B9E8B80E3800FDCCF81149104A104E9
:105A1000B10409F44ECF1053CE0101966C01882DCC
:105A20008F7094E0B694A794979487949A95D1F741
:105A300097E58A3008F490E3890FF60181936F01AE
:105A4000115081149104A104B10449F738CFCA5E02
:105A5000CDBFDF91CF911F910F91FF90EF90DF901D
:105A6000CF90BF90AF909F908F907F906F905F90FE
:105A70004F903F902F900895E0913006F1E0929181
:105A8000829172916291E09330060E948E21599A20
:105A900080913C068F3F19F489E00E94F22488E847
:105AA0009DE1DDDD10924B0A10924A0A0C945B1EB8
:105AB0000895599A88EA9DE1D2DD0C945B1E089501
:105AC000CF93DF93CDB7DEB7C450CDBFE0913006A2
:105AD000F1E08291929122913291E0933006599AAD
