:100000000C94AC1A0C94C91A0C94C91A0C94C91A01
:100010000C94C91A0C94C91A0C94C91A0C94C91AD4
:100020000C94C91A0C94C91A0C94C91A0C94C91AC4
:100030000C94C91A0C94C91A0C94C91A0C94C91AB4
:100040000C94C91A0C94F1300C94C91A0C94C91A66
:100050000C94C91A0C94C91A0C94C91A0C94592AF4
:100060000C94C91A0C94C91A0C94C91A0C94C91A84
:100070000C94C91A0C94C91A0C94C91A0C94C91A74
:100080000C94C91A0C94C91A0C94C91A0C94C91A64
:100090000C94C91A0C94C91A0C94C91A0C94C91A54
:1000A0000C94C91A0C94C91A0C94C91A084AD73B63
:1000B0003BCE016E84BCBFFDC12F3D6C74319ABD37
:1000C00056833DDA3D00C77F11BED9E4BB4C3E915B
:1000D0006BAAAABE000000803F05A84CCDB2D44E4A
:1000E000B93836A9020C50B9918688083CA6AAAA4C
:1000F0002ABE000000803F0664EC1B3C04BC163E98
:100100003BE5B93CC93C37C29E5A3D660498083E5F
:10011000EA69AAAA3E000000803F07634236B79B07
:10012000D8A71A39685618AEBAAB558C1D3CB7CC57
:100130005763BD6DEDFD753EF6177231BF000000CF
:10014000803F08000000BE922449123EABAAAA2AB2
:10015000BECDCCCC4C3E00000080BEABAAAAAA3ECD
:1001600000000000BF000000803F00000000000809
:100170004178D3BB4387D1133D190E3CC3BD4282A6
:10018000AD2B3E68EC8276BED98FE1A93E4C80EF64
:10019000FFBE01C4FF7F3F00000000000000000020
:1001A000000000000000000000000000000000004F
:1001B000000000000000000000000000000000003F
:1001C000000000000000000000000000000000002F
:1001D000000000000000000000000000000000001F
:1001E000000000000000000000000000000000000F
:1001F00000000000000000000000000000000000FF
:1002000000C000C0640C721CF8942EBC0EB478942C
:10021000821C039CF001F50D099400000000000011
:100220002041424320496E74657270726574657234
:100230002062792050657465722042726F776E205B
:10024000CF3FB8F49992640CAFB6F8942EBC9EB42C
:10025000AFBE721C821CC895C895C895640C721CF0
:10026000F8942EBC0EB47894821C039CF001F50D1A
:10027000099485E00E945D18000000000000000065
:10028000CE3F18F085E00E945D18999200E0902E14
:100290000EB42EBC640C721C821C039CF001F50D84
:1002A0000994E0913006F1E00290E09330060110ED
:1002B000089584E00C94A32A989508950000000006
:1002C000CE3F18F085E00E945D18999201E0902ED3
:1002D0000EB42EBC640C721C821C039CF001F50D44
:1002E00009949A918A917A916A910E94EE37699362
:1002F000799389939993089580917A0A0C944D2D5E
:10030000CE3F18F085E00E945D18999202E0902E91
:100310000EB42EBC640C721C821C039CF001F50D03
:1003200009949A918A917A916A910E94A33769936C
:1003300079938993999308950000000000000000CC
:10034000CE3F18F085E00E945D18999203E0902E50
:100350000EB42EBC640C721C821C039CF001F50DC3
:1003600009949A918A917A916A910E947C34699356
:10037000799389939993089500000000000000008C
:10038000CE3F18F085E00E945D18999204E0902E0F
:100390000EB42EBC640C721C821C039CF001F50D83
:1003A00009949A918A917A916A910E94833769930C
:1003B000799389939993089500000000000000004C
:1003C000CE3F18F085E00E945D18999205E0902ECE
:1003D0000EB42EBC640C721C821C039CF001F50D43
:1003E00009949A918A917A916A910E9455356993FC
:1003F000799389939993089500000000000000000C
:10040000CE3F18F085E00E945D18999206E0902E8C
:100410000EB42EBC640C721C821C039CF001F50D02
:1004200009949A918A917A916A910E9465346993AC
:1004300079938993999308950000000000000000CB
:10044000CE3F18F085E00E945D18999207E0902E4B
:100450000EB42EBC640C721C821C039CF001F50DC2
:1004600009940000000000000000000000000000EF
:10047000000000000000000000000000000000007C
:10048000CE3F18F085E00E945D18999208E0902E0A
:100490000EB42EBC640C721C821C039CF001F50D82
:1004A00009940000000000000000000000000000AF
:1004B000000000000000000000000000000000003C
:1004C000CE3F18F085E00E945D18999200E1902ED1
:1004D0000EB42EBC640C721C821C039CF001F50D42
:1004E000099400000000000000000000000000006F
:1004F00000000000000000000000000000000000FC
:10050000CE3F18F085E00E945D18999200E2902E8F
:100510000EB42EBC640C721C821C039CF001F50D01
:10052000099400000000000000000000000000002E
:1005300000000000000000000000000000000000BB
:10054000CE3F18F085E00E945D18999200E4902E4D
:100550000EB42EBC640C721C821C039CF001F50DC1
:1005600009940000000000000000000000000000EE
:10057000000000000000000000000000000000007B
:10058000CE3F18F085E00E945D18999200E8902E09
:100590000EB42EBC640C721C821C039CF001F50D81
:1005A0000994640C721CF8942EBC0EB47894821CCE
:1005B000039CF001F50D099400000000000000000C
:1005C000CD3F60F49992299299240EB42EBC640C0C
:1005D000721C821C039CF001F50D099485E00E94B9
:1005E0005D18000000000000000000000000000096
:1005F00000000000000000000000000000000000FB
:10060000CC3F68F499922992299299240EB42EBC79
:10061000640C721C821C039CF001F50D099485E0AA
:100620000E945D18000000000000000000000000B3
:1006300000000000000000000000000000000000BA
:10064000CB3F70F4999229922992299299240EB461
:100650002EBC640C721C821C039CF001F50D0994E5
:1006600085E00E945D18000000000000000000000E
:10067000000000000000000000000000000000007A
:10068000C73F90F49992299229922992299229920E
:100690002992299299240EB42EBC640C721C821CDF
:1006A000039CF001F50D099485E00E945D1800009F
:1006B000000000000000000000000000000000003A
:1006C000CF3ED0F499922992299229922992299287
:1006D0002992299229922992299229922992299242
:1006E0002992299299240EB42EBC640C721C821C8F
:1006F000039CF001F50D099485E00E945D1800004F
:10070000CD3FD0F7999202E0AFB6F8942EBC0EB46C
:10071000099209D02EBC9EB4AFBE600E721C821C22
:10072000C895C8953ECF000000000000000000C042
:10073000089500000000000000000000000000001C
:10074000CC3FA8F4999203E0AFB6F8942EBC0EB457
:100750000992E9DF2EBC0EB40992E5DF2EBC9EB4EF
:10076000AFBE600E721C821CC895C8951ACF85E07A
:100770000E945D1800000000000000000000000062
:10078000CB3FA8F7999204E0AFB6F8942EBC0EB414
:100790000992600E721C821CC9DF2EBC0EB4099235
:1007A000C2DF2EBC0EB40992BEDF2EBC9EB4AFBE1B
:1007B000BEDFF7CE000000000000000000000000D7
:1007C000CE3F68F49992990C990800000EB42EBCA3
:1007D000640C721C821C039CF001F50D099485E0E9
:1007E0000E945D18000000000000000000000000F2
:1007F00000000000000000000000000000000000F9
:10080000CD3F68F49992990C990899920EB42EBC38
:10081000640C721C821C039CF001F50D099485E0A8
:100820000E945D18000000000000000000000000B1
:1008300000000000000000000000000000000000B8
:10084000CC3F70F49992990C9908999299920EB4B0
:100850002EBC640C721C821C039CF001F50D0994E3
:1008600085E00E945D18000000000000000000000C
:100870000000000000000000000000000000000078
:10088000CE3F60F49992640C721CF8942EBC0EB4A6
:100890007894821C039CF001F50D099485E00E9478
:1008A0005D180000000000000000000000000000D3
:1008B0000000000000000000000000000000000038
:1008C000CE3F68F49992DE01A2509C900EB42EBCEB
:1008D000640C721C821C039CF001F50D099485E0E8
:1008E0000E945D18000000000000000000000000F1
:1008F00000000000000000000000000000000000F8
:10090000CE3F68F49992DE01A3509C900EB42EBCA9
:10091000640C721C821C039CF001F50D099485E0A7
:100920000E945D18000000000000000000000000B0
:1009300000000000000000000000000000000000B7
:10094000CE3F68F49992DE01A4509C900EB42EBC68
:10095000640C721C821C039CF001F50D099485E067
:100960000E945D1800000000000000000000000070
:100970000000000000000000000000000000000077
:10098000CE3F68F49992DE01A5509C900EB42EBC27
:10099000640C721C821C039CF001F50D099485E027
:1009A0000E945D1800000000000000000000000030
:1009B0000000000000000000000000000000000037
:1009C000CE3F68F49992DE01A6509C900EB42EBCE6
:1009D000640C721C821C039CF001F50D099485E0E7
:1009E0000E945D18000000000000000000000000F0
:1009F00000000000000000000000000000000000F7
:100A0000CE3F68F49992DE01A7509C900EB42EBCA4
:100A1000640C721C821C039CF001F50D099485E0A6
:100A20000E945D18000000000000000000000000AF
:100A300000000000000000000000000000000000B6
:100A4000CE3F68F49992DE01A8509C900EB42EBC63
:100A5000640C721C821C039CF001F50D099485E066
:100A60000E945D180000000000000000000000006F
:100A70000000000000000000000000000000000076
:100A8000CD3F78F49992DE01A2500D9009929D908D
:100A90000EB42EBC640C721C821C039CF001F50D7C
:100AA000099485E00E945D1800000000000000002D
:100AB0000000000000000000000000000000000036
:100AC000CD3F78F49992DE01A3500D9009929D904C
:100AD0000EB42EBC640C721C821C039CF001F50D3C
:100AE000099485E00E945D180000000000000000ED
:100AF00000000000000000000000000000000000F6
:100B0000CD3F78F49992DE01A4500D9009929D900A
:100B10000EB42EBC640C721C821C039CF001F50DFB
:100B2000099485E00E945D180000000000000000AC
:100B300000000000000000000000000000000000B5
:100B4000CD3F78F49992DE01A5500D9009929D90C9
:100B50000EB42EBC640C721C821C039CF001F50DBB
:100B6000099485E00E945D1800000000000000006C
:100B70000000000000000000000000000000000075
:100B8000CD3F78F49992DE01A6500D9009929D9088
:100B90000EB42EBC640C721C821C039CF001F50D7B
:100BA000099485E00E945D1800000000000000002C
:100BB0000000000000000000000000000000000035
:100BC000CD3F78F49992DE01A7500D9009929D9047
:100BD0000EB42EBC640C721C821C039CF001F50D3B
:100BE000099485E00E945D180000000000000000EC
:100BF00000000000000000000000000000000000F5
:100C0000CD3F78F49992DE01A8500D9009929D9005
:100C10000EB42EBC640C721C821C039CF001F50DFA
:100C2000099485E00E945D180000000000000000AB
:100C300000000000000000000000000000000000B4
:100C4000CD3F78F49992DE01A9500D9009929D90C4
:100C50000EB42EBC640C721C821C039CF001F50DBA
:100C6000099485E00E945D1800000000000000006B
:100C70000000000000000000000000000000000074
:100C8000CE3F18F085E00E945D189992AFB6F894B7
:100C90002EBC0EB4AFBE640C721C821CDE01A01907
:100CA0009C9000C000C0640C721CF8942EBC0EB462
:100CB0007894821C039CF001F50D0994000000005B
:100CC000CD3F18F085E00E945D189992AFB6F89478
:100CD0002EBC0EB4AFBE640C721C821CDE01A019C7
:100CE0000D909C900992640C721CF8942EBC0EB46A
:100CF0007894821C039CF001F50D0994000000001B
:100D0000CB3F18F085E00E945D189992640CDE01DB
:100D10000EB42EBC721C821CA0190D911D912D9138
:100D20009D900993199329930EB42EBC640C721CE8
:100D3000821C039CF001F50D0994000000000000E6
:100D4000092D9C0EF8F2DE01640C721C821C0EB49C
:100D50002EBCA019069510F40D9009920D900992E1
:100D60009D9099920A95D1F7CA950EB42EBC640C49
:100D7000721C821C039CF001F50D09940000000018
:100D8000C89500C0AFB6F8942EBC0EB4AFBE640CCC
:100D9000721C821C092DDE01A0190C939A90000090
:100DA000640C721CF8942EBC0EB47894821C039CC4
:100DB000F001F50D099400000000000000000000A3
:100DC000C89500C0AFB6F8942EBC0EB4AFBE640C8C
:100DD000721C821C192D0A91DE01A0190D931D931E
:100DE0009A900EB42EBC640C721C821C039CF00101
:100DF000F50D099400000000000000000000000054
:100E0000392D2A911A910A910EB42EBC640C721CD1
:100E1000821CDE01A0190D931D932D933D939A9092
:100E200000000EB42EBC640C721C821C039CF001EA
:100E3000F50D099400000000000000000000000013
:100E4000092D0250DE011A912A910EB42EBC640CB9
:100E5000721C821CA0191E932E93069518F40A90FA
:100E60000E9231F00A900E920A900E920A95D1F7E6
:100E70009A90D7CF000000000000000000000000A2
:100E80009992CF3F19F485E00E945D18AFB6F894AF
:100E90002EBCAEB542E0640E721C821C0CD02EBC7F
:100EA000BEB5AFBE9C900AD07BCF00000000000012
:100EB000000000000000000000C0000008950000D5
:100EC0009992CE3F18F085E00E945D180000F894DA
:100ED0002EBCAEB542E0640E721C821CECDF2EBC50
:100EE000BEB578940D919D900993C89559CF000097
:100EF00000000000000000000000000000000000F2
:100F00009992CC3F18F085E00E945D1800C0AEB504
:100F10002EBC42E0640E721C821CCCDFBEB52EBC1F
:100F20000D911D912D919D9009931993299359CF5E
:100F300000000000000000000000000000000000B1
:100F4000292D9A949C0EF8F2C895AEB52EBC42E0BD
:100F5000640E721C821CAEDFBEB52EBC269510F44A
:100F60000D9009920D9009920D9009922A95D1F752
:100F70009A9037CF00000000000000000000000041
:100F8000CF3F18F085E00E945D189992AFB6F894B3
:100F90002EBCAEB5AFBEB2E09C90640C721C821C3D
:100FA000C89500C0640C721CF8942EBC0EB47894E2
:100FB000821C039CF001F50D0994C895000008956A
:100FC000CE3F18F085E00E945D189992AFB6F89474
:100FD0002EBCAEB5AFBEB2E09D9099929C90640CD1
:100FE000721C821C0000640C721CF8942EBC0EB49F
:100FF0007894821C039CF001F50D0994089500007B
:10100000CC3F18F085E00E945D189992B2E0640C24
:10101000AEB52EBC721C821C9D9099929D909992A7
:101020009D9099929C900EB42EBC640C721C821CF4
:10103000039CF001F50D0994000000000000000081
:10104000C89500C0AFB6F8942EBCAEB512E0610EE4
:10105000721C821C30DF2EBCBEB5AFBE9C929A9033
:101060002DDF640C721CF8942EBC0EB47894821C94
:10107000039CF001F50D0994000000000000000041
:10108000C89500C0AFB6F8942EBCAEB512E0610EA4
:10109000721C821C10DF2EBCBEB5AFBE1A911D9310
:1010A0009D929A90C895640C721CF8942EBC0EB454
:1010B0007894821C039CF001F50D09940000000057
:1010C0002A911A910A91F8942EBCAEB5392D42E0BE
:1010D000640E721C821CF0DE2EBCBEB578940D939B
:1010E0001D932D933D939A900000640C721CF8940C
:1010F0002EBC0EB47894821C039CF001F50D09946B
:10110000C89500C0AFB6F8942EBCAEB5AFBE12E025
:10111000610E721C821CD0DEBEB52EBCA90DB21DA4
:10112000969410F40A900E920A900E920A900E92E3
:101130009A94D1F79A9048C0000000000000000087
:10114000292D1A910A91599A33E059983EBDA090E1
:10115000760AB090770AA10EB21EADDEBEBCA5DE47
:10116000AEBCA3DE0EBDA2DE2EBCA0DE9EB4599A9C
:1011700059983EBD0C942618000000C00895000048
:10118000292D1A910A9133E000001EB426C0640C88
:10119000721C821CC895C895C895AFB6F8942EBC31
:1011A0000EB4AFBE09921A941414A9F7E6DF9EB4E8
:1011B000599A59983EBD0C94261800000000000072
:1011C000B92DAA919D9000C00EB42EBC640C721C67
:1011D000821C039CF001F50D0994599A33E059984B
:1011E0003EBDA090760AB090770AA10EB21E63DED3
:1011F000BEBC5BDEAEBC59DE0EBD58DE2EBCC7CF1A
:10120000B92DAA911D9019929D900EB42EBC640C1C
:10121000721C821C039CF001F50D09940000000073
:1012200000000000000000000000000000000000BE
:1012300000000000000000000000000000000000AE
:10124000B92DAA912C2F640C721C821C0EB42EBCDA
:10125000200D20F1069410F49D9099929D90999202
:101260009D9099920A94D1F7CA950EB42EBC640C45
:10127000721C821C039CF001F50D09940000000013
:10128000B92DAA911A901C929A900EB42EBC640C9F
:10129000721C821C039CF001F50D099485E00E94EC
:1012A0005D180000000000000000000000000000C9
:1012B000000000000000000000000000000000002E
:1012C000B92DAA911A900A909A900D921C920EB480
:1012D0002EBC640C721C821C039CF001F50D099459
:1012E00000000000000000000000000000000000FE
:1012F00000000000000000000000000000000000EE
:10130000B92DAA910000640C721C821C0EB42EBC74
:10131000A00DB21D069410F41A901E921A901E92FF
:101320001A901E920A94D1F79A900EB42EBC640CB7
:10133000721C821C039CF001F50D09940000000052
:10134000CA9598800000640C721CF8942EBC0EB4F0
:101350007894821C039CF001F50D099400000000B4
:10136000000000000000000000000000000000007D
:10137000000000000000000000000000000000006D
:10138000C25098800000640C721CF8942EBC0EB4FD
:101390007894821C039CF001F50D09940000000074
:1013A000000000000000000000000000000000003D
:1013B000000000000000000000000000000000002D
:1013C000C35098800000640C721CF8942EBC0EB4BC
:1013D0007894821C039CF001F50D0994000000C074
:1013E0000000000000000000000000000895000060
:1013F00000000000000000000000000000000000ED
:10140000C45098800000640C721CF8942EBC0EB47A
:101410007894821C039CF001F50D09944A91640FA5
:10142000751F6993972E0EB42EBC640C721C821C1F
:10143000039CF001F50D099400000000000000007D
:10144000C89500C0AFB6F8942EBC0EB4AFBE640C05
:10145000721C821CC0199880C89500C0640C721C54
:10146000F8942EBC0EB47894821C039CF001F50D08
:1014700009940000000000000000000000000000CF
:10148000492D640C721C821C00C0F8942EBC0EB452
:10149000AFBE401588F49A906A91640F921C6993CC
:1014A0000000640C721CF8942EBC0EB47894821C5C
:1014B000039CF001F50D099482E00E945D18000084
:1014C000492D12E0610EC895F8942EBC0EB5721C21
:1014D000821C86DF2EBC1EB57894411768F7049FE6
:1014E0005A914A91040E151E0992912C00000EB4D7
:1014F0002EBC640C721C821C039CF001F50D099437
:10150000592D4A9100C0AFB6F8942EBC0EB514E028
:10151000610E721C821C66DF2EBC1EB560DF2EBC05
:101520002EB55DDF2EBC3EB5AFBE4217530720F689
:10153000049FB001059F700D149F700D5A916ECFDE
:10154000A92C9A90EA900FB6F8942EBC0EB5DA90BA
:1015500012E0610E721C821C47DF2EBC1EB50FBE4E
:10156000A11640F4A09ED00CE11C921CD992E992E5
:1015700000004CC182E00C945D18000000000000E7
:1015800035DF4EB52EBC15E0610E721C821CC92CD5
:10159000BA90AA902BDF5EB52EBCFA90EA90DA9052
:1015A00022DF0EB52EBC1ADF1EB52EBC17DF2EB5FE
:1015B0002EBCA016B106C206E8F60C94D1170000A6
:1015C0004A913A912A91F8942EBC0EB57894592DEF
:1015D00012E0610E721C821C4217530758F6049FDA
:1015E0009A918A912EBC1EB5B001680F791F059F94
:1015F000700D149F700D6993972E000007C10000B5
:101600000C94EE1782E00C945D18B00CC11C289F5E
:10161000C00C199FC00C301B410B920A9CF3B2E026
:101620006B0E721C821CA992B992C992399349938C
:10163000EDC0099319936993E9C000000000000010
:101640006A915A914A913A918EB52EBC2A911A917B
:101650000A9142175307B0F62617390598F2489FAA
:10166000000D111D9EB52EBC589F110D499F110DE7
:10167000641B950A3CF2B2E06B0E721C821CD9CF3F
:101680004A913A912A911A918EB52EBC0A91FA90FC
:10169000EA90DA90CA90BA90AA900D151E052F050F
:1016A00020F59EB52EBCD316E406F904F0F0089F91
:1016B000A00CB11CC21C189FB00CC11C099FA5CF67
:1016C0009992CE3F18F085E00E945D18AFB6F8946D
:1016D0002EBC0EB4AFBE640C721C821C8E010019AD
:1016E0000993912E00C000C091C082E00C945D1857
:1016F000C8950000089500000000000000000000F0
:101700009992CE3F18F085E00E945D18AFB6F8942C
:101710002EBC0EB4AFBE640C721C821C12E0099287
:10172000912E00C00FC0000000000000000000006B
:1017300000000000000000000000000000000000A9
:101740009394C895640C721CF8942EBC0EB47894D3
:10175000821C039CF001F50D0994000000000000BC
:101760000000000000000000000000000000000079
:101770000000000000000000000000000000000069
:101780009A940000DFCF000000000000000000007D
:101790000000000000000000000000000000000049
:1017A0000000000000000000000000000000000039
:1017B0000000000000000000000000000000000029
:1017C00000C0DE011196AFB6F8942EBC0EB4AFBEC9
:1017D000640C721C821CA0190C9003940C9200C023
:1017E000640C721CF8942EBC0EB47894821C039C7A
:1017F000F001F50D09940000000000000000000059
:10180000B92DAA910D91902E03950E930EB42EBC76
:10181000640C721C821C039CF001F50D09940000FD
:1018200000000000000000000000000000000000B8
:1018300000000000000000000000000000000000A8
:10184000B92DAA910D911D910993912E040D121D90
:101850001E930E930EB42EBC640C721C821C039C4F
:10186000F001F50D099400000000000000000000E8
:101870000000000000000000000000000000000068
:10188000CE3F18F085E00E945D18B92DAA910D9108
:101890001D912D9109931993922E040D121D221D55
:1018A0002E931E930E930EB42EBC640C721C821CDD
:1018B000039CF001F50D09940000000000000000F9
:1018C000CD3F18F085E00E945D18B92DAA910D91C9
:1018D0001D912D913D91099319932993932E040DF8
:1018E000121D221D321D3E932E931E930E930EB495
:1018F0002EBC640C721C821C039CF001F50D099433
:10190000B92DAA910D91902E0A950E930EB42EBC6E
:10191000640C721C821C039CF001F50D09940000FC
:1019200000000000000000000000000000000000B7
:1019300000000000000000000000000000000000A7
:10194000B92DAA910D911D910993912E0419120997
:101950001E930E930EB42EBC640C721C821C039C4E
:10196000F001F50D099400000000000000000000E7
:101970000000000000000000000000000000000067
:10198000CE3F18F085E00E945D18B92DAA910D9107
:101990001D912D9109931993922E04191209220970
:1019A0002E931E930E930EB42EBC640C721C821CDC
:1019B000039CF001F50D09940000000000000000F8
:1019C000CD3F18F085E00E945D18B92DAA910D91C8
:1019D0001D912D913D91099319932993932E0419EB
:1019E0001209220932093E932E931E930E930EB4D0
:1019F0002EBC640C721C821C039CF001F50D099432
:101A0000CD3F18F085E00E945D18B92DAA916D9127
:101A10007D918D919D91699379938993992E8D01F3
:101A2000112420E030E040E85FE30E949F33D801BA
:101A30009E938E937E936E93DACF00000000000099
:101A4000CD3F18F085E00E945D18B92DAA916D91E7
:101A50007D918D919D91699379938993992E8D01B3
:101A6000112420E030E040E85FE30E949E33D8017B
:101A70009E938E937E936E93BACF00000000000079
:101A8000EA909E0C0000640C721CF8942EBC0EB4FC
:101A90007894821C039CF001F50D0994000000006D
:101AA0000000000000000000000000000000000036
:101AB0000000000000000000000000000000000026
:101AC000AA90FA90EA90AE0C9F1CA9920EB42EBC7C
:101AD000640C721C821C039CF001F50D099400003B
:101AE00000000000000000000000000000000000F6
:101AF00000000000000000000000000000000000E6
:101B0000BA90AA900A91FA90EA90AE0CBF1C901E6F
:101B1000A992B9920EB42EBC640C721C821C039C58
:101B2000F001F50D09940000000000000000000025
:101B300000000000000000000000000000000000A5
:101B4000CA90BA90AA901A910A91FA90EA90AE0CB3
:101B5000BF1CC01E911EA992B992C9920EB42EBC90
:101B6000640C721C821C039CF001F50D09940000AA
:101B70000000000000000000000000000000000065
:101B8000EA90E9189E2C640C721CF8942EBC0EB4DA
:101B90007894821C039CF001F50D0994000000006C
:101BA0000000000000000000000000000000000035
:101BB0000000000000000000000000000000000025
:101BC000AA90FA90EA90EA18F908E9929F2C0EB4CC
:101BD0002EBC640C721C821C039CF001F50D099450
:101BE00000000000000000000000000000000000F5
:101BF00000000000000000000000000000000000E5
:101C0000BA90AA900A91FA90EA90EA18FB0809099A
:101C1000E992F992902E0EB42EBC640C721C821CB8
:101C2000039CF001F50D0994000000000000000085
:101C300000000000000000000000000000000000A4
:101C4000CA90BA90AA901A910A91FA90EA90EA186A
:101C5000FB080C091909E992F9920993912E0EB427
:101C60002EBC640C721C821C039CF001F50D0994BF
:101C70000000000000000000000000000000000064
:101C8000FA90EA90E90CF21CE9929F2C0EB42EBC5B
:101C9000640C721C821C039CF001F50D0994000079
:101CA0000000000000000000000000000000000034
:101CB0000000000000000000000000000000000024
:101CC0000A91FA90EA90E90CF21C021DE992F9924D
:101CD000902E0EB42EBC640C721C821C039CF0016E
:101CE000F50D099400000000000000000000000055
:101CF00000000000000000000000000000000000E4
:101D0000FA90EA90E918F208E9929F2C0EB42EBCE2
:101D1000640C721C821C039CF001F50D09940000F8
:101D200000000000000000000000000000000000B3
:101D300000000000000000000000000000000000A3
:101D4000FA90EA90E99C9001F99C300D2993932E2A
:101D50000EB42EBC640C721C821C039CF001F50DA9
:101D600009940000000000000000000000000000D6
:101D70000000000000000000000000000000000063
:101D8000EA90E99C902C00C00EB42EBC640C721C2E
:101D9000821C039CF001F50D099400000000000076
:101DA0000000000000000000000000000000000033
:101DB0000000000000000000000000000000000023
:101DC000AA90FA90EA90EA9C9001E99C300DFA9C66
:101DD000300D2993932E0EB42EBC640C721C821C01
:101DE000039CF001F50D09940000000000000000C4
:101DF00000000000000000000000000000000000E3
:101E0000BA90AA900A91FA90EA90EA9C90010A9DF1
:101E1000902CFA9C300D911CEB9C300D911CFB9C7E
:101E2000900CE99C900C299339930EB42EBC640C51
:101E3000721C821C039CF001F50D09940000000047
:101E40000C94A31700000000000000000000000038
:101E50000000000000000000000000000000000082
:101E60000000000000000000000000000000000072
:101E70000000000000000000000000000000000062
:101E8000792D6A919A918A916215720519F483E00D
:101E90000E945D180E9409396993972E0EB42EBCDA
:101EA000640C721C821C039CF001F50D0994000067
:101EB0000000000000000000000000000000000022
:101EC000592D4A913A912A919A918A917A916A91DF
:101ED000221532054205520519F483E00E945D186F
:101EE0008E010E946D33E801299339934993952E11
:101EF000D5CF00000000000000000000000000003E
:101F0000792D6A919A918A916215720519F483E08C
:101F10000E945D180E941D396993972E0EB42EBC45
:101F2000640C721C821C039CF001F50D09940000E6
:101F300000000000000000000000000000000000A1
:101F4000592D4A913A912A919A918A917A916A915E
:101F5000221532054205520519F483E00E945D18EE
:101F60008E010E944133E801299339934993952EBC
:101F7000D5CF0000000000000000000000000000BD
:101F8000792D6A919A918A916215720519F483E00C
:101F90000E945D180E9409398993992E0EB42EBCB7
:101FA000640C721C821C039CF001F50D0994000066
:101FB0000000000000000000000000000000000021
:101FC000592D4A913A912A919A918A917A916A91DE
:101FD000221532054205520519F483E00E945D186E
:101FE0008E010E946D33E801699379938993992E4C
:101FF000D5CF00000000000000000000000000003D
:10200000792D6A919A918A916215720519F483E08B
:102010000E945D180E941D398993992E0EB42EBC22
:10202000640C721C821C039CF001F50D09940000E5
:1020300000000000000000000000000000000000A0
:10204000592D4A913A912A919A918A917A916A915D
:10205000221532054205520519F483E00E945D18ED
:102060008E010E944133E801699379938993992EF7
:10207000D5CF0000000000000000000000000000BC
:10208000492D0A914830A0F442FD029542FD007F9F
:1020900041FD000F41FD000F40FD000F902E0EB4DA
:1020A0002EBC640C721C821C039CF001F50D09947B
:1020B0009924F5CF0000000000000000000000009F
:1020C000492D1A910A914830A1F0403128F0299207
:1020D000992406C0000F111F4A95E2F70993912E2B
:1020E0000EB42EBC640C721C821C039CF001F50D16
:1020F00009942992902EF4CF000000000000000007
:10210000492D3A912A911A910A91403248F0299228
:102110002992299299240AC0000F111F221F331FF0
:102120004A95D2F7099319932993932E0EB42EBC96
:10213000640C721C821C039CF001F50D09940000D4
:10214000492D0A914830A0F442FD029542FD0F70DE
:1021500041FD069541FD069540FD0695902E0EB475
:102160002EBC640C721C821C039CF001F50D0994BA
:10217000922CF5CF000000000000000000000000DD
:10218000492D1A910A91403128F02992922C06C0CB
:10219000169507954A95E2F70993912E0EB42EBC39
:1021A000640C721C821C039CF001F50D0994000064
:1021B000000000000000000000000000000000001F
:1021C000492D3A912A911A910A91403248F0299268
:1021D00029922992922C0AC0369527951795079532
:1021E0004A95D2F7099319932993932E0EB42EBCD6
:1021F000640C721C821C039CF001F50D0994000014
:10220000492D0A91473030F050E007FD5FEF952EE1
:1022100004C005954A95EAF7902E0EB42EBC640CC6
:10222000721C821C039CF001F50D09940000000053
:10223000000000000000000000000000000000009E
:10224000492D1A910A91403140F050E017FD5FEF9F
:102250005993952E06C0159507954A95E2F709936F
:10226000912E0EB42EBC640C721C821C039CF001D7
:10227000F50D0994000000000000000000000000BF
:10228000492D3A912A911A910A91403260F050E01A
:1022900027FD5FEF599359935993952EE2CF3595CA
:1022A0002795179507954A95D2F70993199329937E
:1022B000932ED7CF000000000000000000000000B7
:1022C000EA909E200000640C721CF8942EBC0EB4A0
:1022D0007894821C039CF001F50D09940000000025
:1022E00000000000000000000000000000000000EE
:1022F00000000000000000000000000000000000DE
:10230000AA90FA90EA90AE209F20A9920EB42EBC1B
:10231000640C721C821C039CF001F50D09940000F2
:1023200000000000000000000000000000000000AD
:10233000000000000000000000000000000000009D
:10234000CA90BA90AA901A910A91FA90EA90AE2097
:10235000BF20C0229122A992B992C9920EB42EBC7C
:10236000640C721C821C039CF001F50D09940000A2
:10237000000000000000000000000000000000005D
:10238000EA909E280000640C721CF8942EBC0EB4D7
:102390007894821C039CF001F50D09940000000064
:1023A000000000000000000000000000000000002D
:1023B000000000000000000000000000000000001D
:1023C000AA90FA90EA90AE289F28A9920EB42EBC4B
:1023D000640C721C821C039CF001F50D0994000032
:1023E00000000000000000000000000000000000ED
:1023F00000000000000000000000000000000000DD
:10240000CA90BA90AA901A910A91FA90EA90AE28CE
:10241000BF28C02A912AA992B992C9920EB42EBCA3
:10242000640C721C821C039CF001F50D09940000E1
:10243000000000000000000000000000000000009C
:10244000EA909E240000640C721CF8942EBC0EB41A
:102450007894821C039CF001F50D099400000000A3
:10246000000000000000000000000000000000006C
:10247000000000000000000000000000000000005C
:10248000AA90FA90EA90AE249F24A9920EB42EBC92
:10249000640C721C821C039CF001F50D0994000071
:1024A000000000000000000000000000000000002C
:1024B000000000000000000000000000000000001C
:1024C000CA90BA90AA901A910A91FA90EA90AE2412
:1024D000BF24C0269126A992B992C9920EB42EBCEF
:1024E000640C721C821C039CF001F50D0994000021
:1024F00000000000000000000000000000000000DC
:102500009094C895640C721CF8942EBC0EB4789408
:10251000821C039CF001F50D0994000000000000EE
:1025200000000000000000000000000000000000AB
:10253000000000000000000000000000000000009B
:10254000AA90A0949094A99200000EB42EBC640CA2
:10255000721C821C039CF001F50D09940000000020
:10256000000000000000000000000000000000006B
:10257000000000000000000000000000000000005B
:10258000CA90BA90AA90A094B094C0949094A99242
:10259000B992C9920EB42EBC640C721C821C039CAE
:1025A000F001F50D0994000000000000000000009B
:1025B000000000000000000000000000000000001B
:1025C00000E0921001E0902E640C721CF8942EBC76
:1025D0000EB47894821C039CF001F50D0994000060
:1025E00000000000000000000000000000000000EB
:1025F00000000000000000000000000000000000DB
:102600001A90912800E0921001E0902E0EB42EBC9A
:10261000640C721C821C039CF001F50D09940000EF
:1026200000000000000000000000000000000000AA
:10263000000000000000000000000000000000009A
:10264000AA90A928BA90AB289924A210942C0EB471
:102650002EBC640C721C821C039CF001F50D0994C5
:10266000000000000000000000000000000000006A
:10267000000000000000000000000000000000005A
:10268000AA90A928BA90AB28BA90AB289924A21096
:10269000942C0EB42EBC640C721C821C039CF001A2
:1026A000F50D09940000000000000000000000008B
:1026B000000000000000000000000000000000001A
:1026C000EA9021E0E91408F020E0922E0EB42EBC2E
:1026D000640C721C821C039CF001F50D099400002F
:1026E00000000000000000000000000000000000EA
:1026F00000000000000000000000000000000000DA
:10270000AA90FA90EA90EA14F90450F099240EB4D1
:102710002EBC640C721C821C039CF001F50D099404
:10272000942C0EB42EBC640C721C821C039CF00111
:10273000F50D0994000000000000000000000000FA
:10274000BA90AA900A91FA90EA90EA14FB0409055B
:1027500050F099240EB42EBC640C721C821C039C95
:10276000F001F50D0994942C0EB42EBC640C721C6F
:10277000821C039CF001F50D09940000000000008C
:10278000CA90BA90AA901A910A91FA90EA90EA1423
:10279000FB040C05190550F099240EB42EBC640CF2
:1027A000721C821C039CF001F50D0994942C0EB44C
:1027B0002EBC640C721C821C039CF001F50D099464
:1027C000EA9021E0E9140CF020E0922E0EB42EBC29
:1027D000640C721C821C039CF001F50D099400002E
:1027E00000000000000000000000000000000000E9
:1027F00000000000000000000000000000000000D9
:10280000AA90FA90EA90EA14F90454F099240EB4CC
:102810002EBC640C721C821C039CF001F50D099403
:10282000942C0EB42EBC640C721C821C039CF00110
:10283000F50D0994000000000000000000000000F9
:10284000BA90AA900A91FA90EA90EA14FB0409055A
:1028500054F099240EB42EBC640C721C821C039C90
:10286000F001F50D0994942C0EB42EBC640C721C6E
:10287000821C039CF001F50D09940000000000008B
:10288000CA90BA90AA901A910A91FA90EA90EA1422
:10289000FB040C05190554F099240EB42EBC640CED
:1028A000721C821C039CF001F50D0994942C0EB44B
:1028B0002EBC640C721C821C039CF001F50D099463
:1028C000592D4A913A912A919A918A917A916A91D5
:1028D00011240E947834942C811199240EB42EBCBA
:1028E000640C721C821C039CF001F50D099400001D
:1028F00000000000000000000000000000000000D8
:10290000592D4A913A912A919A918A917A916A9194
:1029100011240E947834881F8827881F982E0EB4AF
:102920002EBC640C721C821C039CF001F50D0994F2
:102930000000000000000000000000000000000097
:1029400001E0921000E0902E640C721CF8942EBCF2
:102950000EB47894821C039CF001F50D09940000DC
:102960000000000000000000000000000000000067
:102970000000000000000000000000000000000057
:10298000592D4A913A912A919A918A917A916A9114
:1029900011240E949F33699379938993992E0EB4E1
:1029A0002EBC640C721C821C039CF001F50D099472
:1029B0000000000000000000000000000000000017
:1029C000592D4A913A912A919A918A917A916A91D4
:1029D00011240E949E33699379938993992E0EB4A2
:1029E0002EBC640C721C821C039CF001F50D099432
:1029F00000000000000000000000000000000000D7
:102A0000592D4A913A912A919A918A917A916A9193
:102A100011240E94D436699379938993992E0EB428
:102A20002EBC640C721C821C039CF001F50D0994F1
:102A30000000000000000000000000000000000096
:102A4000592D4A913A912A919A918A917A916A9153
:102A500011240E947F34699379938993992E0EB43F
:102A60002EBC640C721C821C039CF001F50D0994B1
:102A70000000000000000000000000000000000056
:102A8000992D8A917A916A9111240E94E734699371
:102A900079938993992E0EB42EBC640C721C821CFF
:102AA000039CF001F50D09940000000000000000F7
:102AB0000000000000000000000000000000000016
:102AC000992D8A917A916A9111240E94EC3469932C
:102AD00079938993992E0EB42EBC640C721C821CBF
:102AE000039CF001F50D09940000000000000000B7
:102AF00000000000000000000000000000000000D6
:102B0000992D8A917A916A9111240E941A356993BC
:102B100079938993992E0EB42EBC640C721C821C7E
:102B2000039CF001F50D0994000000000000000076
:102B30000000000000000000000000000000000095
:102B4000992D8A917A916A9111240E94183569937E
:102B500079938993992E0EB42EBC640C721C821C3E
:102B6000039CF001F50D0994000000000000000036
:102B7000000000C000C00895000000000000000038
:102B8000192C23E0620E721C9A90F8942EBC0EB59C
:102B9000821CECDF2EBC1EB57894EBDF121431F4EE
:102BA00038018EB4599A59982EBD50C22EBCE1DF1F
:102BB000CBCE00000000000000000000000000007C
:102BC000640C721C821C921471F423E0092D0EB463
:102BD000599A59982EBD9A90102C110C1108600C1E
:102BE000711C811C36C29A902EBCC3DFADCE000092
:102BF00000000000000000000000000000000000D5
:102C0000192C23E0620E721C9A90F8942EBC0EB51B
:102C1000821CACDF2EBC1EB57894ABDF121431F0F1
:102C200038018EB4599A59982EBD10C22EBCA1DF1E
:102C30008BCE00000000000000000000000000003B
:102C4000640C721C821C921471F023E0092D0EB4E6
:102C5000599A59982EBD9A90102C110C1108600C9D
:102C6000711C811CF6C19A902EBC83DF6DCE0000D2
:102C70000000000000000000000000000000000054
:102C800023E0620E721C821C00C0F8942EBC0EB5AC
:102C90006CDF2EBC1EB578946CDF921431F43801D1
:102CA0008EB4599A59982EBDD1C12EBC9A9062DF2C
:102CB0004BCE0000000000000000000000000000FB
:102CC000640C721C821C23E0921461F400000EB4A8
:102CD000599A59982EBD102C110C1108600C711CBA
:102CE000811CB7C12EBC9A9045DF2ECE000000009B
:102CF00000000000000000000000000000000000D4
:102D000003E0600E721C821C00C0F8942EBC0EB54D
:102D10002CDF2EBC1EB578942CDF921431F03801D4
:102D20008EB4599A59982EBD91C12EBC9A9022DF2B
:102D30000BCE0000000000000000000000000000BA
:102D4000640C721C821C23E0921461F000000EB42B
:102D5000599A59982EBD102C110C1108600C711C39
:102D6000811C77C12EBC9A9005DFEECD00000000DB
:102D70000000000000000000000000000000000053
:102D8000C89500C0AFB6F8942EBC6EB423E0EEDE5A
:102D90002EBC7EB4AFBEEADE8EB4599A59982EBDD1
:102DA00055C100000000000000000000000000000D
:102DB0000000000000000000000000000000000013
:102DC000C895C89523E00EB4599A59982EBD03941E
:102DD000102C110C1108600C711C811C3AC186E08A
:102DE0006CD10000000000000000000000000000A6
:102DF00000000000000000000000000000000000D3
:102E0000A0913406AD3258F7B6E0AFB6F8942EBCB8
:102E10000EB403E0060D602C721C821C0D937D9293
:102E20008D9200C000C02EBC7EB4AFBEA09334060D
:102E3000A0DE23E08EB4599A59982EBD07C1000038
:102E4000A0913406AD32A8F4B6E0640C721C821C6A
:102E50006D927D928D92A09334060EB423E0599A20
:102E600059982EBD102C110C1108600C711C811C7E
:102E7000F0C086E022D10000000000000000000049
:102E8000A0913406AD32A8F7B6E06D927D928D9296
:102E9000A093340623E0599A59982EBD892C7A9034
:102EA0006A909A90D6C00000000000000000000068
:102EB0000000000000000000000000000000000012
:102EC000A0913406B6E08E9023E0599A59982EBD11
:102ED0007E906E90A0933406BCC09A918A917A91AC
:102EE0006A915A914A913A912A910E946F35699359
:102EF000799389939993C093300608950000000058
:102F0000E0EFF3E3640C721C821C609231060EB495
:102F10002EBC7092320680923306E00DF21D0590B1
:102F2000F491E02D9992C093300611240995C09137
:102F300030069A900EB42EBC640C721C821C039C4A
:102F4000F001F50D0994CA90BA90AA901A910A91CD
:102F5000FA90EA90EA9C90010A9DA001FA9C300D3B
:102F6000411D521DEB9C300D411D521DFB9C400D1F
:102F7000511DEC9C400D511D1A9D500D0B9D500D87
:102F8000FC9C500DE99C500D299339934993952E43
:102F90000EB42EBC640C721C821C039CF001F50D57
:102FA0000994A49ED00CE11CF21CA59EE00CF11C1F
:102FB000B49EE00CF11CB59EF00CC49EF00CD992AE
:102FC000E9929F2C0EB42EBC640C721C821C039CD4
:102FD000F001F50D099400C0C8950895C89500C08A
:102FE0004EB52EBC12E0610E721C821CF4DF5EB581
:102FF0002EBCC92CBA90AA902A911A910A919A9043
:10300000EA90DA90A016B106C206C8F4A49ED00CCD
:10301000E11C921CA59EE00C911CB49EE00C911C3E
:10302000B59E900CC49E900CD992E9920EB42EBC21
:10303000640C721C821C039CF001F50D099482E063
:103040003CD0599A23E059982EBD00C0000000C022
:1030500000C000913806021519F50091490A0215C1
:10306000C9F40091760A1091770A070D181D1EBD4C
:103070001ED00EBD1CD06EBC1BD02EBC1AD0640C52
:10308000721CF8942EBC0EB47894821C039CF00140
:10309000F50D09941124C89500C0599A73D7D2CF61
:1030A0001124C89500C0599A0E948424CBCF0000F7
:1030B000C89500C0C89500000895609231067092CE
:1030C0003206809233069992C093300611240E94F2
:1030D000A32A0C9400009A918A917A916A915A914C
:1030E0004A913A912A910E94123469937993899373
:1030F0009993C0933006089500000000000000007E
:103100004E6F20666F6E742073657420666F722038
:1031100074657874206F7065726174696F6E0053A6
:10312000697A6573206F66206D656D6370792064C0
:1031300073742F73726320646966666572005370DE
:1031400072697465206672616D65206F757473694C
:103150006465206F66207365740043616C6C207336
:103160007461636B206F766572666C6F7700446183
:10317000746120737461636B206F766572666C6F27
:103180007700417373657274696F6E206661696C54
:103190006564004469766973696F6E206279207A8C
:1031A00065726F00417272617920696E6465782082
:1031B0006F7574206F6620626F756E64730047616F
:1031C0006D652064617461206E6F7420666F756E2A
:1031D00064000000FFFFFFFFFFFFFFFFFFFFFFFF97
:1031E000FFFFFFFFFFFFFFFF19FDE4EE7CE1D4D4FA
:1031F000E2C89CBDF7B2ECA8719F7E960C8E138638
:103200008C7E7277BE706A6A7164CE5E7C59765429
:10321000B84F3F4B06470943463FB93B5F3835350A
:103220003832672FBE2C3B2ADC279F25832385213C
:10323000A31FDD1D2F1C9A1A1C19B3175F161D152D
:10324000EE13D012C111C210D20FEE0E180E4D0D9A
:103250008E0CDA0B2F0B8F0AF7096809E108610859
:10326000E90777070C07A7064706ED059805470508
:10327000FC04B40470043104F403BC038603530358
:103280002403F602CC02A4027E025A02380218027B
:10329000FA01DE01C301AA0192017B01660152011C
:1032A0003F012D011C010C01000100010001000182
:1032B0000001000100010001000100010001000106
:1032C00000010001000100010001000100010001F6
:1032D00000010001000085C352C323C3F5C2CBC265
:1032E000A3C27DC259C237C217C2F3B3BBB385B301
:1032F00052B323B3F5B2CBB2A3B27DB259B237B257
:1033000017B2F3A3BBA385A352A323A3F5A2CBA219
:10331000A3A27DA259A237A217A2F393BB938593D0
:1033200052932393F592CB92A3927D925992379226
:103330001792F383BB83858352832383F582CB82E9
:10334000A3827D82598237821782F373BB738573A0
:1033500052732373F572CB72A3727D7259723772F6
:103360001772F363BB63856352632363F562CB62B9
:10337000A3627D62596237621762F353BB53855370
:1033800052532353F552CB52A3527D5259523752C6
:103390001752F343BB43854352432343F542CB4289
:1033A000A3427D42594237421742F333BB33853340
:1033B00052332333F532CB32A3327D325932373296
:1033C0001732F323BB23852352232323F522CB2259
:1033D000A3227D225922BE31A431933182316E3134
:1033E0005A313E311F31003100004552524F5200D8
:1033F0001A2A1A2A081D1C1C161C161C101C061D35
:10340000041D161C161C6D21101C1D294D30F62F95
:10341000EF2EAF2F532F91302B1C221C9A1CB71B61
:103420005C01E12851019B2E922E812E712E622E7D
:10343000532E382D3B2F0D2F032D302C1F2EC92D31
:10344000632DD22C812CE928CA1D602DEA1EC71DD0
:10345000C41DC11D562D531C7C01271F532D0B1F4E
:103460009E2E8C1DCB2E9101B10171016B18F101C3
:103470001102D1016D17421C371C352D60245524D3
:10348000332D1224CD1D1700030C00000000994CB1
:10349000000003002E02D1010000C41110018410AD
:1034A0001000980C2E3AF243B94AB12A877CB7260D
:1034B000AE22211FAA2AA23A0A00500184284A29D2
:1034C0008A10A10A0000BE78BF2A2E463F3ABF46A6
:1034D000BF042E669F7CF147F1019F6C1F425F7C09
:1034E0003F783F7EBF082E7ABF68B226E1071F7E75
:1034F000071F1F7D9B6C833EB94E3F028360F10323
:103500002208104241004C7A5F324C4A4C7E4C53A8
:10351000BE00D6035F701D00B0019F681F009E783B
:103520005E704C325E1144799E0856034F020E7A4B
:10353000061B1E799249823ADA02C47D0000DF112F
:10354000DB70C0A0D92181FFA800D5F08D14A1C8DF
:1035500081CFD9F1AF20000011241FBECFEFDAE0F8
:10356000DEBFCDBF16E0AEE3B6E0E6E7F2E702C0AD
:1035700005900D92A234B107D9F72AE0A2E4B6E093
:1035800001C01D92AD37B207E1F70E9454310C948F
:1035900039390C940000E5E0F0E010D0319728F0C4
:1035A00068517C4F8F4F9F4FF9CFAB01FC0106D084
:1035B000641775078E079F07D0F30895A2E7BAE056
:1035C0002FB7F8947D918D919C9166B52FBFA89BE4
:1035D00005C06F3F18F47F5F8F4F9F4F22E0660F4B
:1035E000771F881F991F2A95D1F708959C01E0E065
:1035F000F2E0A0E0B0E0BD0180E045D039D0BD01EF
:103600001296A20FB31F82179307A9F38F5F9F4FE4
:1036100021F4AF5FBF40DB0160F000D140E050918A
:103620007B0A60917C0A80E226D0599AD5D0A0E02E
:10363000B0E07CEFF3D04A2F50917B0A5B0F609192
:103640007C0A611D82E017D0832F71FD822F70FDEF
:10365000819124D0759518F42150304019F01196BD
:10366000AA2391F7599AB8D02115310519F7089571
:1036700039D0982F3DC0599811D0862F0FD0852F63
:103680000DD0842F0BC0462F50917B0A570F6091AD
:103690007C0A681F83E0EFDF1EBC08958EBD00002A
:1036A0008EB50DB407FEFCCF0895E0E0F2E0DC013A
:1036B00060E070E080E0E7DF9D01AF0160E00FD0E7
:1036C0008217930749F4D901FA0160E00BD0819386
:1036D0001197E1F761E0F3CF0BD0862F089502D068
:1036E000982F00C00DB407FEFDCF8EB51EBC089507
:1036F0000DB407FEFDCF8EB5599A08950F931F9311
:10370000CF93DF93809164008E7F809364008091DB
:103710007A00806480937A0080917A0086FDFCCFE5
:10372000C0917800D091790049DFAB01BC01809154
:103730006400816080936400CE01B0E0A0E0DC0111
:10374000992788278C019D01040F151F261F371FFD
:10375000C901B801DF91CF911F910F9108958FB1E9
:103760008095807F669B88601C9B8460089581E0C3
:1037700083BF889513BE08958EBD00000DB407FE6B
:10378000FDCF089508DF5F9A06DF5C98EAE4F5E371
:103790008591F2DFE735E1F75C9A089510927A0A95
:1037A0003E983F9808953E9A3F9A81E080937A0A26
:1037B00008959091790A982329F49091780A982392
:1037C00081E009F480E008958091780A8093790A75
:1037D000C6DF8093780A0895599885E05FDF80E01E
:1037E0005DDF80FDFCCF599A0895FC016150704067
:1037F00019F078DF8193FACF7BDF80830895462F1D
:103800005091760A570F6091770A681F83E033DF83
:103810001EBC0895599842DF599A089586E0FACF60
:10382000E0E3F6E08081895080830895E0E3F6E0EC
:103830008081865080830895E0E3F6E080818550A2
:1038400080830895E0913006F1E0829180933906FB
:10385000E093300608958A9180933C068A91809384
:103860003B068A9180933A06C093300608959A9158
:103870008A917A916A910E94AD376993799389937D
:10388000999308959A918A917A916A915A914A915D
:103890003A912A910E943737699379938993999342
:1038A000C0933006089510926B0A8091500A8111DE
:1038B00008C01092590A88E1809391001092C000CC
:1038C00018B80895A0914E0AB0914F0A1097D9F0F8
:1038D000E0914A0AF0914B0A9F012F5F3F4F205819
:1038E000344028F010924F0A10924E0A08952D91FC
:1038F0003C9111972F5F3F4F2D933C938193F09311
:103900004B0AE0934A0A08958093F1000895E091EC
:103910004C0AF0914D0A628173816115710549F07D
:103920006150710962837383A081B1818D93A083FB
:10393000B1830895E0913006F1E06291E0933006A2
:103940006B3040F070E080E094E00E9409396093B1
:10395000360608956623D9F364E6F9CF0F931F93D3
:10396000CF93E0913006F1E092914291242F392FCC
:1039700092916291462F592F9291C2917C2FB291D0
:10398000E0933006E0914A0AF0914B0A8F010A5FFA
:103990001F4F0058144008F033C0203831050CF098
:1039A0002FC04034510564F58901090F111D10160F
:1039B000110634F58A010C0F111D1016110604F5BD
:1039C000A22F642F37FF02C0920FA0E057FF03C061
:1039D0007C2F760F60E08F5F8193A193619380E8E5
:1039E0008A1B981708F4892F819380E4861B781727
:1039F00008F4872F8193B193F0934B0AE0934A0A1E
:103A0000CF911F910F91089581E0A8CF80E0A6CFBC
:103A1000E0913006F1E0329780E08193E093300648
:103A200008955998A3E0AEBDFC0181919191A191B7
:103A30004091760A5091770A490F5A1F00C000C082
:103A40005EBD0DD04EBD0BD08EBD0196A11DA293C3
:103A50009293829308D01EBC04D000000895C895AC
:103A6000C89500C000C0089583E059988EBD0091AC
:103A70003806011529F011241DD0599A45D7F4CFE5
:103A80000091490A011529F0112414D0599A7AD2CB
:103A9000EBCF409131065091320660913306809110
:103AA000760A9091770A580F691F6EBD07C0000013
:103AB000000000C0000000C0C8950895FADF5EBD98
:103AC000F6DF4EBDF5DF1EBCF5CF93E059989EBDE5
:103AD00040913A0650913B0660913C0697E0899FE1
:103AE000400D511D1124611DDADF00C000C08EB5EC
:103AF000599A089593E059989EBD40913A06509185
:103B00003B0660913C0697E0590F611DC8DF00C07D
:103B100000C08EB5599A0895CF93EADD6AE070E04F
:103B200080E06DDEDFDDC82FE3DD2C2F382FC901EB
:103B300001978115944010F4C90158DD4DDE94DFE2
:103B4000CF910895FF920F931F93CF93DF93A0918E
:103B50003006B1E01E910E91FE90A09330062091A8
:103B60007A0A222341F0EC01C3DD6F2D702F812FE3
:103B7000FE01099579DFDF91CF911F910F91FF90A1
:103B800008958DE790E2DECF89E390E2DBCF81E616
:103B900090E2D8CF83EE9FE1D5CF8F929F92AF92E4
:103BA000BF92CF92DF92EF92FF920F931F93CF932A
:103BB000DF93E0913006F1E0829192912291C22E42
:103BC000D92EE82E82919291092F182F8291EF0120
:103BD0009A91A92EB82E8CDD8E2DB60110DE82DDD5
:103BE000F82E7DDD4C01082C892C902C41DD082E0F
:103BF000892F902D0817190708F03CC0A814B904A4
:103C000008F038C025E0C20ED11CE11CA89E90012E
:103C1000B99E402DA99E300D411DB89E300D411D0D
:103C20001124200F311F411D82E0F81203C0220F22
:103C3000331F441F842FB9016C0D7D1D8E1DDFDDE8
:103C400021E0F21215C054DD90E0FE0181939193C2
:103C5000E093300609DFDF91CF911F910F91FF9024
:103C6000EF90DF90CF90BF90AF909F908F9008958E
:103C7000FFDCEBCF90E080E0E8CF8F929F92AF9295
:103C8000BF92CF92DF92EF92FF920F931F93CF9349
:103C9000DF93CDB7DEB7C350CDBF782F82E040327F
:103CA00009F45DC0E42FEE0FFF0BEC5BFB4C85913C
:103CB0009491282F2F7129839C0145E036952795F3
:103CC0004A95E1F72F712A83969596959F719B836C
:103CD00083E0911104C082E0211101C081E08E01D6
:103CE0000F5F1F4F50E040E0E72EF12C20E1B22E95
:103CF000AA24A394F80191918F01962E6701C40E16
:103D0000D51E872E840E992329F1E92FF0E090FF2C
:103D10001CC090E8C916D104C0F4292D30E020342D
:103D200031059CF491E021FD94E020FD990F22FDE6
:103D30009295287FB29ED0011124A80DA75BB94FA0
:103D40000C90092AA0FE09260C929394F595E7950C
:103D50009E2FD9CF4F5F5F4F481708F4CBCFCD5F71
:103D6000CDBFDF91CF911F910F91FF90EF90DF902A
:103D7000CF90BF90AF909F908F900895FF920F9338
:103D80001F93CF93DF93062FF22EEA01182FFF2007
:103D900059F0FE0144912196442341F0602F812F78
:103DA0006CDF8F5F180FF3CF4881F5CF812FDF9144
:103DB000CF911F910F91FF9008951092500AE1E565
:103DC000FAE01086118A88E1809391001092C00079
:103DD00018B808958091500A8111EFCF089580910D
:103DE000590A811106C08091620A811102C0809136
:103DF0006B0A089518B8E1E5FAE01086118A128E70
:103E00001092490A1092500A88E180939100109212
:103E1000C00018B80895EECF109280008AE0809319
:103E2000810085E293E0909389008093880082E08E
:103E300080936F0083E48093900088E180939100E9
:103E40001092C0001092C1001092C300D3CF809195
:103E50007A0A882311F0A2DCDFCFA5DCFDCF813800
:103E600018F01092C0000895811104C01092C00093
:103E700018B80895E82FF0E0EE0FFF1FEC52FD4C4C
:103E800085919491292F22952F709F702093C100C6
:103E90009093BF008093D100969587959093BF0033
:103EA0008093CF0082E88093C0000895813820F08D
:103EB00088E18093910008958823D1F3E82FF0E002
:103EC000EE0FFF1FEE52FE4C859194919093990056
:103ED000809398008AE1EDCF599893E09EBD9FB7FB
:103EE0000090760A700D0090770A801D20D08EBD5C
:103EF0001AD07EBD18D06EBD17D01EBCDA0121507D
:103F0000304000C051F000C014D0F8941EBC0EB474
:103F10009FBF0D9221503040B9F70AD00EB40C92D9
:103F2000599A0DB40895000000C0C8950000000023
:103F300000C00895CF92DF92EF920F931F93CF931B
:103F4000DF93FC01448104E0102F141B99F0EC0175
:103F5000C580D680E780212F30E0480F592F511DB2
:103F60008E2DB601B9DFC10ED11CE11CCD82DE82DF
:103F7000EF820C83DF91CF911F910F91EF90DF9033
:103F8000CF900895CF938091490A8823D1F0CFB77D
:103F9000F8948091590A882319F081E59AE0CADFE4
:103FA0008091620A882319F08AE59AE0C3DF809144
:103FB0006B0A882319F083E69AE0BCDF1092490A65
:103FC000CFBFCF910895CF92DF92EF921F93CF93FF
:103FD000DF93CDB7DEB7C350CDBF6B01E82E18B865
:103FE00023E030E0AE014F5F5F4F76DF83E0C80E25
:103FF000D11CE11C1FB7F8941092550AC092560AC2
:10400000D092570AE092580A81E08093590A809131
:10401000590A882319F081E59AE08CDF89819A8119
:10402000AB81C80ED91EEA1E10925E0AC0925F0ACA
:10403000D092600AE092610A81E08093620A8091E6
:10404000620A882319F08AE59AE074DF8091510AA8
:104050002DDF80915A0A03DF81E08093500A1FBF51
:10406000CD5FCDBFDF91CF911F91EF90DF90CF90CB
:104070000895CF92DF92EF92CF936B01E82E80915B
:10408000500A81119ADE18B8CFB7F8941092550AE9
:10409000C092560AD092570AE092580A81E0809363
:1040A000590A8091590A882319F081E59AE042DF84
:1040B0008091510AFBDECFBFCF91EF90DF90CF9080
:1040C0000895CF9318B8CFB7F8941092670A609309
:1040D000680A7093690A80936A0A81E080936B0A88
:1040E00080916B0A882319F083E69AE023DF8091A0
:1040F000630AB5DECFBFCF91089590916B0A9923E3
:1041000029F09091590A911101C0B3CFDACFE09113
:104110004A0AF0914B0A9F01245F3F4F20583440D8
:10412000F0F425E0219381939193619371938091B1
:104130003A0690913B06A0913C0681939193A193FE
:10414000809139068193F0934F0AE0934E0A90E0F4
:1041500080E081939193F0934B0AE0934A0A08958B
:104160006F927F928F92BF92CF92DF92EF92FF92E7
:104170000F931F93CF93DF93C0914A0AD0914B0ABC
:10418000FE013396E058F44008F062C08038910593
:104190000CF05EC0603471050CF05AC03901842EF9
:1041A0007B016C01842FB9012ADB9CDAB82EA0DADE
:1041B00096012B0D311D121613060CF049C08E0D01
:1041C0009F2D911D181619060CF042C080E8C816E4
:1041D0008FEFD8060CF449C090E8E9169FEFF90676
:1041E0000CF443C00F3F110511F008F03EC0E09100
:1041F0004E0AF0914F0A309709F448C081918430FB
:1042000009F044C081919191A191681679068A06BE
:1042100009F03CC080818F5F09F438C080838091B1
:10422000460690914506890F8C1147C0809144063F
:1042300090914306890F8E1140C009938FE78993AF
:10424000C0924606E0924406D0934B0AC0934A0AB5
:10425000DF91CF911F910F91FF90EF90DF90CF9062
:10426000BF908F907F906F900895CE010A968058EE
:10427000944070F783E08993C992D992E992F992B8
:1042800069927992899209931993DECF80914A0AB3
:1042900090914B0A089680589440D0F6D0934F0ADC
:1042A000C0934E0AC0924606E092440684E0899389
:1042B00069927992899281E089930993E992C992EE
:1042C000809146069C2D981B90934506809144064C
:1042D0002E2D281B20934306B3CFBF92CF92DF929F
:1042E000EF92FF920F931F93CF93DF93E0913006ED
:1042F000F1E0C291D291F290E290D290C290B2904D
:1043000012910291E0933006F3D92B2D3C2D4D2DC7
:10431000B7018D2F9C2F24DFA7DBDF91CF911F9159
:104320000F91FF90EF90DF90CF90BF90089530E70E
:104330003CBDDC0130E8439FC0011124A80FB91F28
:104340005E91352F6111372F3C93C89500C05223E1
:104350005EBD0197A9F704D003D030E50DB43CBD94
:1043600008950F93260F91E061FD94E060FD990F91
:1043700062FD9295919551E021FD54E020FD550F8D
:1043800022FD52955195A92FA095752F709521501A
:10439000669566956695269526952695E9E4F6E058
:1043A00030E8639FE00DF11D1124E80FF11D261B7D
:1043B00090FD2F5F50FD2F5F019530E8341B892F52
:1043C0008023972F9023222319F45A2B98232CC053
:1043D000AA2349F0642F00800A22082A01926A95D4
:1043E000D1F7E30FF11D2A95E9F0642F677081F48E
:1043F000642F01930193019301930193019301931E
:1044000001936850B1F7E30FF11D2A9571F70AC0C7
:1044100001936A95E9F7642F687F59F7E30FF11D5F
:104420002A9519F7772331F000800522092A019295
:104430004A95D1F70F910895803891057CF4603446
:10444000710564F4DC01A40FB11D1A161B0634F4C7
:10445000DB01A20FB11D1A161B060CF008952F9256
:104460003F924F925F926F927F928F929F92BF92F4
:10447000EF92FF920F931F93382E2224842E322F17
:10448000369536953695599853E05EBDFB01F59506
:10449000E795F595E795F595E7951E2F1F3F4CF4A9
:1044A0001095311BC0FC110F149FE00CF11C021D74
:1044B0001FEF0090760AF00C0090770A001D97FF1E
:1044C0000BC0880EC0FE02C0880F991FE81AF90AB7
:1044D000020997FD039533240EBDA9E4B6E050E828
:1044E0001503030CA00DB11D5319851608F0852E78
:1044F000E7E0E11BE31714F43E2F2394FEBCE0E851
:10450000E8194E2E51E061FD54E060FD550F62FD4B
:104510005295552EEFEFE59D300160947094EEBCFE
:1045200011246FB724D01EBCBB24481509F0B394E6
:1045300022C05998E3E0EEBD1124E40EF11C011DE8
:10454000C0FCE40EC0FCF11CC0FC011DBB244815DE
:1045500009F0B394C8950EBD08D0FEBC06D0EEBCE1
:1045600005D01EBC00C000C00895000000C00000BF
:10457000C895C8950895C1FCF4C0C2FCA6C0111529
:104580001CF0332391F57CC0A058BF4F582DC0FCC0
:104590000DC0F8941EBC8EB56FBF859D9C90972072
:1045A00091289D9200C05A95A1F714C0F8941EBCA2
:1045B0008EB56FBF859DC001DCDFF8941EBC6EB464
:1045C0006FBF659C30019C9070949720992A9D92B2
:1045D0005A9561F71124A819B1093A9509F410C147
:1045E000BB2019F00DB4599AA4DFFD01E058FF4F2C
:1045F000582DC0FC1FC0569518F453959C900CC0C4
:104600008EB51EBC859D9C90962090289D92908092
:104610009720912891929C908EB51EBC859D9620E6
:1046200090289D92908097209128919200005A9511
:1046300039F716C0F8941EBC8EB56FBF859DC001BA
:104640009C90708097DF6EB41EBC659C0094902097
:10465000982A9D9210947120792A71925A9551F757
:104660001124A40DB11D3A9509F0BACF222009F406
:10467000C7C0BB2029F00DB4599A5BDF00C0C895B4
:10468000C0FC0DC0F8941EBC8EB56FBF859D9C907C
:10469000962090289D9200C08A94A1F7B1C0F8940A
:1046A0001EBC8EB56FBF859DC00163DFF8941EBC34
:1046B0003EB56FBF359D302D9C9030959322982A42
:1046C0009D928A9461F700009BC011151CF0332362
:1046D000E1F43BC0A058BF4F582DF8941EBC8EB5D6
:1046E0006FBF859D9C9091289D92C8955A95A9F77A
:1046F0001124A819B1093A9509F482C0BB2029F008
:104700000DB4599A16DF00C000C0FD01E058FF4FFC
:10471000582D8EB51EBC859D9C9090289D929080B2
:104720009128919200005A95A1F71124A40DB11D72
:104730003A9521F7222009F463C0BB2031F00DB473
:10474000599AF7DE00C000C0C895F8941EBC8EB51B
:104750006FBF859D9C9090289D92C8958A94A9F7DB
:104760004FC011151CF03323F1F43DC0A058BF4FCA
:10477000582DF8941EBC8EB56FBF859D0094109483
:104780009C9091209D9200005A9599F71124A819A8
:10479000B1093A9509F434C0BB2029F00DB4599AF7
:1047A000C8DE00C000C0FD01E058FF4F582D8EB597
:1047B0001EBC859D009410949C9090209D929080AA
:1047C000912091925A9599F71124A40DB11D3A9513
:1047D00019F7222009F414C0BB2021F00DB4599A16
:1047E000A8DE00C000C0F8941EBC8EB56FBF859DCA
:1047F000009410949C9090209D9200008A9499F7C8
:104800001124599A0DB41F910F91FF90EF90BF9012
:104810009F908F907F906F905F904F903F902F90E0
:10482000089508958F929F92AF92BF92CF92DF9298
:10483000EF92FF92CF93DF93E0913006F1E0829107
:10484000929122913291C32ED22EE92EF82E82918E
:1048500092912291EF013A91832E922EA92EB82E99
:10486000C814D904EA04FB0470F40E94E432A501E0
:1048700094012C193D094E095F090E946D33C60E43
:10488000D71EE81EF91EFE01C192D192E192F1926B
:10489000E0933006DF91CF91FF90EF90DF90CF90C3
:1048A000BF90AF909F908F900895E0913006F1E017
:1048B0009291829172916291E09330060C94303320
:1048C0000E947E1B611571058105910511F00C9404
:1048D00030330895FC0180858823A9F081818150BF
:1048E00071F481E08093490A8481825061F02281D1
:1048F000338131832083848381E090810895818393
:1049000080E090E0089508952F923F924F925F9239
:104910006F927F928F929F92AF92BF92CF92DF92CF
:10492000EF92FF920F931F93CF93DF93CDB7DEB734
:10493000C950CDBF80913806823019F00E94B71B54
:10494000F9CF5E982FE741E050E061E070E089EC3C
:1049500099E0EDDC5C989091420681E000E49923B7
:1049600011F080E00FEF8093420681E80E94BC1BAB
:10497000802F0E94BC1B88EA0E94BC1B8FE30E9410
:10498000BC1B5C9A2FEF47E051E061E070E089E4E6
:1049900096E0CDDC5C9888EA0E94BC1B80E00E9417
:1049A000BC1B5C9A5E9A90E8A92E94E0B92EAE01E9
:1049B0004F5F5F4F5C834B8350E0A51656E0B50612
:1049C00008F092C1F50181915F01882309F48CC13F
:1049D000833009F472C0C8F4813070F381909190F3
:1049E000F190E19091915F017724739420914206B8
:1049F000291708F0712C072D823009F046C02E2DA2
:104A00004F2D692D882DADDCD7CF843009F495C0AA
:104A1000853009F0D1CF819191919A8389838190DA
:104A200091902191319141918191619071905F01BB
:104A300069817A817F836E8320903A0630903B06AD
:104A400040903C0620933A0630933B0640933C0648
:104A500090914206981708F0CFC084E05090390634
:104A60008093390671E0671A710808F434C1F501C2
:104A700041915F014A3009F0C1C0AE81BF81BA8364
:104A8000A98338D8880E911CEDCF21E04F2D692DD8
:104A9000882D67DC2E2D41E0692D882D62DC6E2D7E
:104AA000690D615021E04F2D882D5BDC8F2D880D25
:104AB0002E2D41E0692D8150A6CF8190919061907B
:104AC0007190C190D190E190419051905F018E2DF5
:104AD000B6010E94FF1B0E94721B382E0E94721B9F
:104AE000082F0E94781B27E0200F287F922F969591
:104AF000969596958111990F0E2D7601440C551CB3
:104B000045E0E40EF11C011D40914206440E511C8B
:104B1000399EA001549DF00C011D459DF00C011D16
:104B2000559D000D449DE00CF11C1124011DC82E63
:104B3000432DB301C40180DC3FCF219031904190DF
:104B400071905F01842DB1010E94FF1B0E94721BB6
:104B5000682E0E94721B082F0E94781B582E095F36
:104B6000087F0987802F8695869586955110880F36
:104B700090914206899F609CF0013596689E4001A5
:104B800011242E0E3F1E411C880C991C18861E8273
:104B9000F501219181915F01912F8F3711F56E8180
:104BA000160F78858D81780F7D83A42DC101929E8B
:104BB000900DA11D829E800D911D1124A11DC52C5B
:104BC0007C010A2F2985462D5D81652F550F770BB6
:104BD000812F012E000C990B2FDC7A947110D8CF05
:104BE000EBCEA82FBD81AB1BA88711915F01312FA0
:104BF000391B3E838D83D9CF86E030CFB401AB81A2
:104C0000BC81E3E05998EEBDE0903A06F0903B0697
:104C100000913C06E091760AF091770AFE0E0F1F94
:104C2000E7E0E49FE00CF11C1124011D0EBD02D051
:104C3000FEBC0AC0000000000000000000000000F0
:104C40000000000000C00895F7DFEEBCE0903A06D7
:104C5000F0903B0600913C06EFEFEE1AE8EFFE0AFB
:104C6000EFEF0E0B00C000C01EBCE6DFF8941EBCC8
:104C70003EB578948D919C91FC01E30FF11DFC935E
:104C8000EE9300C0F8941EBC3EB57894830F911D3E
:104C900037FD9A95D7DFF8941EBC3EB57894630F24
:104CA000711D37FD7A95CEDFF8941EBCEEB5789471
:104CB000C5DFF8941EBCFEB57894EE0EFF1EC0DF73
:104CC000F8941EBC4EB57894B8DF2EB5599AC090B2
:104CD0003906B2DBC7CE20923A0630923B064092AC
:104CE0003C065092390668CE10923806C75FCDBF99
:104CF000DF91CF911F910F91FF90EF90DF90CF90B8
:104D0000BF90AF909F908F907F906F905F904F90EB
:104D10003F902F9008952F923F924F925F926F9203
:104D20007F928F929F92AF92BF92CF92DF92EF923B
:104D3000FF920F931F93CF93DF93CDB7DEB7C85188
:104D4000CDBF9C8B8B8BE0913006F1E082919291EC
:104D50002291622E792E882E8291929122912E8715
:104D60009F87888BE0933006CE0101969A8B898BC2
:104D700090E3592E61147104810409F40DC28091ED
:104D800038068111C1DDCE010E960E94111D0EB5AF
:104D9000599A1301482C91E0291A3108410805322B
:104DA00029F0802FEB89FC89099518C0CE010E9659
:104DB0000E94111D1EB5599A1301482CF2E02F1ABA
:104DC00031084108143609F448C058F4133509F481
:104DD000B6C0133609F48EC0153219F3842C310194
:104DE000C9CF133709F48DC008F032C01636B1F7B9
:104DF000E0913006F1E08291929122913291C32E9E
:104E0000D22EE92EF82ECD8ADE8AEF8AF88EE09334
:104E10003006CE010E960E94111D1EB5599A13013F
:104E2000482CF3E02F1A31084108A7019601C70169
:104E3000B6010E940E38882309F4CFC08EE6EB89B4
:104E4000FC89099581E6EB89FC8909958EE6AACF54
:104E5000153719F0183709F0C1CFE0913006F1E0AD
:104E60008291929122913291A32EB22EC92ED82EE8
:104E7000E0933006CE010E960E94111DFEB4599AA1
:104E80001301482C83E0281A31084108183709F427
:104E90007DC0143609F08FC0D7FE8DC08DE2EB893E
:104EA000FC890995D094C094B094A094A11CB11C25
:104EB000C11CD11CFFECFF0E8AE08E010F5F1F4F5B
:104EC000682E712C912C812CC601B501A40193018F
:104ED0000E946D3359016A0187E56A3008F480E366
:104EE000860FD8018D938D01FA94232B242B252B2B
:104EF00059F75AC0E0913006F1E00291E093300694
:104F000050CFE0913006F1E082919291E92EF82E97
:104F100082919291E0933006092F182FE114F10449
:104F200009F45CCFF80181918F01882309F456CFF1
:104F3000EB89FC890995F1E0EF1AF108EFCFE091D8
:104F40003006F1E0829192912291C22ED92EE82E64
:104F5000829192912291E09330062B879C878D87D6
:104F6000C114D104E10409F439CFCE010B960E949B
:104F7000111D8EB5599A882309F430CFEB89FC892D
:104F80000995F1E0CF1AD108E108EACF80E1A11438
:104F9000B104C104D10489F48E010F5F1F4FD80101
:104FA0005D928D01BFECFB0E1F1454F4F801519279
:104FB0008F01FA94F9CF8AE0EACFE0EDFE0E7DCFC3
:104FC00089899A898017910709F408CFF80182919D
:104FD0008F01EB89FC890995F3CFE894F7F82FEF5F
:104FE0003FEF4FE75FE7C701B6010E940E3881111E
:104FF00014C02FEF3FEF4FE75FE7C701B6010E94F4
:105000007834181654F489E6EB89FC8909958EE604
:10501000EB89FC89099586E6C5CE2FEF3FEF4FE778
:105020005FE46D897E898F89988D0E94C936181634
:1050300064F02FEF3FEF4FE75FEC6D897E898F893A
:10504000988D0E94783487FF06C08FE6EB89FC8933
:10505000099586E7DDCF20E030E0A9016D897E89E2
:105060008F89988D0E94783487FF0DC08DE2EB897F
:10507000FC8909958D899E89AF89B88DB0588D8B33
:105080009E8BAF8BB88F80ED782E710E10E060E0B4
:1050900070E080E09FE3171540F42DEC3CEC4CEC05
:1050A0005DE30E94D4361F5FF6CF2D893E894F897C
:1050B000588D0E949F336B017C010E94EC344B01A0
:1050C0005C010E9418359B01AC01C701B6010E942A
:1050D0009E336B017C0181149104A104B10491F40D
:1050E0008E010F5F1F4FD8015D928D01E989FA890A
:1050F000E017F10731F1F80182918F01EB89FC890A
:105100000995F4CF612C8E010F5F1F4FC501B401CB
:105110002AE030E040E050E00E946D3349015A013E
:10512000605DF80161938F016A9481149104A10478
:10513000B10461F71614D4F6D8015D928D016A941A
:10514000F9CF772009F44ACE8EE2EB89FC890995E4
:105150007A9477FC43CE20E030E040E251E4C7018E
:10516000B6010E94D4364B015C010E94EC34162F2C
:1051700080E3810FEB89FC890995612F70E090E055
:1051800080E00E941A359B01AC01C501B4010E9468
:105190009E336B017C01DCCFC85ECDBFDF91CF9128
:1051A0001F910F91FF90EF90DF90CF90BF90AF9045
:1051B0009F908F907F906F905F904F903F902F9037
:1051C00008950E94781B84E89CE1A5DD0C94341DB1
:1051D0000895EF92FF920F931F93CF93DF93CDB774
:1051E000DEB7C450CDBFE0913006F1E012910291DC
:1051F000F290E290E09330060E94781BE982FA82F6
:105200000B831C83CE01019690934D0A80934C0A28
:1052100087E89CE180DD8B819C81892B19F0E981F5
:10522000FA8110820E94341DCC5FCDBFDF91CF91F7
:105230001F910F91FF90EF9008952F923F924F9200
:105240005F926F927F928F929F92AF92BF92CF9216
:10525000DF92EF92FF920F931F93CF93DF93CDB71F
:10526000DEB7CE50CDBFE0913006F1E08291929151
:10527000692E782E829192919D878E879290F290DE
:1052800022912E83829192912291C22ED92EE82EC4
:10529000E09330060E94781B30E8631671040CF02E
:1052A000B2C04D855E85403451050CF0ACC08E2DEA
:1052B000B6010E94FF1B0E94721B8D830E946F1B10
:1052C000082E892F902D9C838B830E94381B5C01B4
:1052D0000A2CAB2CB02C55E0C50ED11CE11C6E8104
:1052E0007F2D892D0E94FF1B0E94721B882E0E9419
:1052F000781B30E020E0ED85FE85A301B901E80FC1
:10530000F11D1CF42F5F3F4FFACFE81BF109480D48
:10531000511D1CF46F5F7F4FFACF481951097887F0
:105320006F835A834983FE87ED872901682D70E0DA
:105330007A876987E82FF0E0FC87EB872B813C8137
:105340004216530608F05FC04D855E854034510516
:105350000CF059C06F8178853B01812C29803A80FF
:105360006A147B0408F043C070E8271631040CF07F
:105370003EC04A9CC0015B9CA02D4B9C900DA11D82
:105380005A9C900DA11D1124860D971DA81DED811D
:10539000E23019F4880F991FAA1FBC018A2F6C0DE7
:1053A0007D1D8E1D0E94FF1BFD81F130E9F40E94DE
:1053B000781B90E0009779F08C01015011092E8143
:1053C0003F2D492D6D857E85C1010E94B0208091C1
:1053D0003806811199DA29853A85220E331E3FEF6E
:1053E000631A730A830ABCCF0E94381BE3CF4FEFC6
:1053F000441A540A6D857E858B859C85680F791FBC
:105400007E876D879BCF0E94341DC25FCDBFDF9129
:10541000CF911F910F91FF90EF90DF90CF90BF90B1
:10542000AF909F908F907F906F905F904F903F9044
:105430002F900895CF93DF93C0E0D3E080E891E010
:10544000FE01A0E8B4E001900D920197E1F780E839
:1054500091E0FE019C01119221503040E1F7D09380
:105460004B0AC0934A0A10924F0A10924E0AC091FA
:105470003606D09137068C2F8D0F809337060E9409
:10548000781B78948091720A8D1B8C1758F48F5F6B
:105490008C1710F40E94B71B80913806882389F37B
:1054A00033DAEFCF0E94E41B0E94341DDF91CF91CD
:1054B00008950F920FB68F939F93EF93FF93809170
:1054C0006D0A8D5F8D3708F08D5780936D0AEEE67B
:1054D000FAE080818E4F808391819F4F91838281FA
:1054E0008F4F828383818F4F8383E2E7FAE080814D
:1054F0008F5F808381818F4F818382818F4F8283F1
:1055000083818F4F83838FB18F6066991C9B88271F
:105510008F3681F480916C0A981B963068F0E0E039
:10552000F8E087E78083818388E180936000F093CF
:105530006000FFCF90936C0AFF91EF919F918F9144
:105540000FBE0F901895CF93DF93CDB7DEB7CA5239
:10555000CDBF89A380933506E9E4F6E080E094E0CE
:10556000DF019C011D9221503040E1F7599A0E94C1
:10557000FA1E5E980E94C21B5C9888EA0E94BC1BBF
:105580008FE30E94BC1B5C9A5E9A39A100E0323026
:1055900040F0009134068BEA089F012D11240695F6
:1055A0000F5FA9A1A150BB0BCD01880F991FFC0172
:1055B000EA52FC4CFDA3ECA311E0D12C202F30E0EB
:1055C0003AA729A7CE0101965C010E94E41BDD20C9
:1055D00039F080E80E94D91B882311F0DA94182F43
:1055E00088E08D0D801728F480E10E94D91B81117D
:1055F0008FC0112309F408C121E04AEE53E361E0B2
:1056000081E00E94BE1E99A19130B1F060E270E08D
:1056100080E00E94FF1B58E1F52E14E20E94721BED
:10562000482F61E0812F0E943D1E180F1F5FFA94E2
:10563000F110F4CF0E94781BE9E4F6E08081AFE737
:105640008A278193B6E0E93CFB07C0F3ECA1FDA1FA
:105650004591549121E068E080E00E94BE1E29A59A
:105660003AA52D193109C901880F991F820F931F7F
:10567000FC01E050FF4FFBA3EAA39D2C11E1901623
:1056800008F0B1C0209031063090320640903306C9
:10569000992039F0EAA1FBA1E350FB4F2080318033
:1056A00042806CE070E080E00E94FF1B0E94721B51
:1056B000582E0E94721B8EA30E94721B8FA30E9401
:1056C000721B88A70E94721BF82E0E94721BE82E84
:1056D0000E94781B90E0A0E0772766277E296F293B
:1056E0000E94FF1B612C712C812CF12CE12CC12C10
:1056F00062147304840450F50E94721B87FD0AC073
:1057000090E00196680E791E811C97FD8A94F0CF77
:10571000D39472CF8D3F30F4FFE7EF1AF108E80E13
:10572000F11CE6CF8D3F21F40E94721BC82EE0CF02
:105730008E3F21F40E946F1B7C01DACF0E946F1B09
:10574000782E0E94721B682E892ED2CF0E94781B61
:10575000C514F0F528A5622F70E080E0862F77272A
:1057600066273FA1732B9EA1692BA0E2CA9E9001E0
:105770001124620F731F811D37FD8A950E94FF1B44
:1057800060E270E0C5010E94F51B20E0A501612FD9
:1057900088E10E94BE1EFE013696C7016AE070E0F5
:1057A0000E940939805D82937B01AE16BF06A9F77E
:1057B0001E8280E0A501480F511DFA0190819033AF
:1057C00011F48F5FF7CF20E0612F80E00E94BE1EB2
:1057D00093941A5F2AA13BA1235031093BA32AA32A
:1057E0001B3309F04CCF5E98E9E4F6E081E0A0E0DD
:1057F000B8E000800EBC8111012C1197A0FDFDCFF7
:105800000192B9F70DB45E9A2FB7F89480916E0AA1
:1058100090916F0AA091700AB091710A2FBF94E124
:10582000F92EF80E10E02FB7F89480916E0A90913F
:105830006F0AA091700AB091710A2FBF3F2D381BDB
:1058400037FDC3CE0E94B71BEECF8D3F38F4FC016D
:10585000419351936193E0933006089585E073DEA0
:105860006F927F928F92CF92DF92EF92E09130060B
:10587000F1E0829192912291C22ED92EE82E82904F
:1058800072906290E0933006C114D104E104C9F033
:105890000E94781BB301882D0E94FF1B612C712C84
:1058A000812C0E94721B882341F08FEF681A780ABE
:1058B000880A6C147D048E04A1F70E94781BE82CE2
:1058C0006301E0913006F1E0CF016E2DA601BDDF4E
:1058D0000E94341DEF90DF90CF908F907F906F905B
:1058E00008958E3F30F4FC0161937193E09330068C
:1058F000089585E028DEE0913006F1E0BC01CF019B
:10590000F0CF8F929F92AF92BF92CF92DF92EF92A1
:105910000F931F93CF93DF93E0913006F1E08291D4
:105920009291C92FD82F1291029182919291229136
:10593000C22ED92EE82EB290A2909290E09330061B
:105940000E94781B692D7A2D8B2D0E94FF1B2097BA
:10595000A9F058014E010E94721BF50181935F016D
:10596000882361F0F1E08F1A910841F081E0C81AB4
:10597000D108E10881F7F50180E081930E94781B4E
:10598000C801B9DFCE01B7DF0E94341DDF91CF918E
:105990001F910F91EF90DF90CF90BF90AF909F90AD
:1059A0008F9008951F93CF93DF93E0913006F1E03D
:1059B00082919291C92FD82F929182912291329106
:1059C000632F722F42915291E09330062097A9F0F5
:1059D000FC01252F342FAE01D9011D919D0111939A
:1059E000112359F04150510941F0DA01A60FB71FB8
:1059F000AC17BD0789F720E021937DDFCE01DF9151
:105A0000CF911F9178CFE0913006F1E08291929191
:105A1000292F382F82919291492F582FE0933006E9
:105A200090E080E02115310551F0FC01E40FF51FF5
:105A30006081662321F0019682179307B1F75BCF4F
:105A40008C3F40F4FC014193519361937193E09337
:105A50003006089585E077DDAB01BC01E0913006AA
:105A6000F1E0CF01EDCFB0D5F7CF0E947E1BF4CF90
:105A70002FB7F89460916E0A70916F0A8091700A46
:105A80009091710A2FBFE8CF8F3F29F0FC016193FD
:105A9000E0933006089585E056DDE0913006F1E0B0
:105AA000682FCF01F1CF0E94EF1EF7CF8091500AEF
:105AB000882319F080916B0AF0CF0E94EF1EFCCF73
:105AC0008091500AEACF6F927F928F92CF92DF92AD
:105AD000EF921F93CF93DF93CDB7DEB7C650CDBF04
