:100000000C94E51A0C94021B0C94021B0C94021B1A
:100010000C94021B0C94021B0C94021B0C94021BEC
:100020000C94021B0C94021B0C94021B0C94021BDC
:100030000C94021B0C94021B0C94021B0C94021BCC
:100040000C94021B0C9442310C94021B0C94021B66
:100050000C94021B0C94021B0C94021B0C944E2F4C
:100060000C94021B0C94021B0C94021B0C94021B9C
:100070000C94021B0C94021B0C94021B0C94021B8C
:100080000C94021B0C94021B0C94021B0C94021B7C
:100090000C94021B0C94021B0C94021B0C94021B6C
:1000A0000C94021B0C94021B0C94021B084AD73BB5
:1000B0003BCE016E84BCBFFDC12F3D6C74319ABD37
:1000C00056833DDA3D00C77F11BED9E4BB4C3E915B
:1000D0006BAAAABE000000803F05A84CCDB2D44E4A
:1000E000B93836A9020C50B9918688083CA6AAAA4C
:1000F0002ABE000000803F0664EC1B3C04BC163E98
:100100003BE5B93CC93C37C29E5A3D660498083E5F
:10011000EA69AAAA3E000000803F07634236B79B07
:10012000D8A71A39685618AEBAAB558C1D3CB7CC57
:100130005763BD6DEDFD753EF6177231BF000000CF
:10014000803F08000000BE922449123EABAAAA2AB2
:10015000BECDCCCC4C3E00000080BEABAAAAAA3ECD
:1001600000000000BF000000803F00000000000809
:100170004178D3BB4387D1133D190E3CC3BD4282A6
:10018000AD2B3E68EC8276BED98FE1A93E4C80EF64
:10019000FFBE01C4FF7F3F00000000000000000020
:1001A000000000000000000000000000000000004F
:1001B000000000000000000000000000000000003F
:1001C000000000000000000000000000000000002F
:1001D000000000000000000000000000000000001F
:1001E000000000000000000000000000000000000F
:1001F00000000000000000000000000000000000FF
:1002000000C000C0640C721CF8942EBC0EB478942C
:10021000821C039CF001F50D099400000000000011
:100220002041424320496E74657270726574657234
:100230002062792050657465722042726F776E205B
:10024000CF3FB8F49992640CAFB6F8942EBC9EB42C
:10025000AFBE721C821CC895C895C895640C721CF0
:10026000F8942EBC0EB47894821C039CF001F50D1A
:10027000099485E00E94731800000000000000004F
:10028000CE3F18F085E00E947318999200E0902EFE
:100290000EB42EBC640C721C821C039CF001F50D84
:1002A0000994E0913006F1E00290E09330060110ED
:1002B000089584E00C949E2A98950895000000000B
:1002C000CE3F18F085E00E947318999201E0902EBD
:1002D0000EB42EBC640C721C821C039CF001F50D44
:1002E00009949A918A917A916A910E941838699337
:1002F000799389939993089580916F0A0C94982F1C
:10030000CE3F18F085E00E947318999202E0902E7B
:100310000EB42EBC640C721C821C039CF001F50D03
:1003200009949A918A917A916A910E94CD37699342
:1003300079938993999308950000000000000000CC
:10034000CE3F18F085E00E947318999203E0902E3A
:100350000EB42EBC640C721C821C039CF001F50DC3
:1003600009949A918A917A916A910E94A63469932C
:10037000799389939993089500000000000000008C
:10038000CE3F18F085E00E947318999204E0902EF9
:100390000EB42EBC640C721C821C039CF001F50D83
:1003A00009949A918A917A916A910E94AD376993E2
:1003B000799389939993089500000000000000004C
:1003C000CE3F18F085E00E947318999205E0902EB8
:1003D0000EB42EBC640C721C821C039CF001F50D43
:1003E00009949A918A917A916A910E947F356993D2
:1003F000799389939993089500000000000000000C
:10040000CE3F18F085E00E947318999206E0902E76
:100410000EB42EBC640C721C821C039CF001F50D02
:1004200009949A918A917A916A910E948F34699382
:1004300079938993999308950000000000000000CB
:10044000CE3F18F085E00E947318999207E0902E35
:100450000EB42EBC640C721C821C039CF001F50DC2
:1004600009949A918A917A916A910E94D7376993F7
:10047000799389939993089500000000000000008B
:10048000CE3F18F085E00E947318999208E0902EF4
:100490000EB42EBC640C721C821C039CF001F50D82
:1004A00009940000000000000000000000000000AF
:1004B000000000000000000000000000000000003C
:1004C000CE3F18F085E00E947318999200E1902EBB
:1004D0000EB42EBC640C721C821C039CF001F50D42
:1004E000099400000000000000000000000000006F
:1004F00000000000000000000000000000000000FC
:10050000CE3F18F085E00E947318999200E2902E79
:100510000EB42EBC640C721C821C039CF001F50D01
:10052000099400000000000000000000000000002E
:1005300000000000000000000000000000000000BB
:10054000CE3F18F085E00E947318999200E4902E37
:100550000EB42EBC640C721C821C039CF001F50DC1
:1005600009940000000000000000000000000000EE
:10057000000000000000000000000000000000007B
:10058000CE3F18F085E00E947318999200E8902EF3
:100590000EB42EBC640C721C821C039CF001F50D81
:1005A0000994640C721CF8942EBC0EB47894821CCE
:1005B000039CF001F50D099400000000000000000C
:1005C000CD3F60F49992299299240EB42EBC640C0C
:1005D000721C821C039CF001F50D099485E00E94B9
:1005E0007318000000000000000000000000000080
:1005F00000000000000000000000000000000000FB
:10060000CC3F68F499922992299299240EB42EBC79
:10061000640C721C821C039CF001F50D099485E0AA
:100620000E9473180000000000000000000000009D
:1006300000000000000000000000000000000000BA
:10064000CB3F70F4999229922992299299240EB461
:100650002EBC640C721C821C039CF001F50D0994E5
:1006600085E00E94731800000000000000000000F8
:10067000000000000000000000000000000000007A
:10068000C73F90F49992299229922992299229920E
:100690002992299299240EB42EBC640C721C821CDF
:1006A000039CF001F50D099485E00E947318000089
:1006B000000000000000000000000000000000003A
:1006C000CF3ED0F499922992299229922992299287
:1006D0002992299229922992299229922992299242
:1006E0002992299299240EB42EBC640C721C821C8F
:1006F000039CF001F50D099485E00E947318000039
:10070000CD3FD0F7999202E0AFB6F8942EBC0EB46C
:10071000099209D02EBC9EB4AFBE600E721C821C22
:10072000C895C8953ECF000000000000000000C042
:10073000089500000000000000000000000000001C
:10074000CC3FA8F4999203E0AFB6F8942EBC0EB457
:100750000992E9DF2EBC0EB40992E5DF2EBC9EB4EF
:10076000AFBE600E721C821CC895C8951ACF85E07A
:100770000E9473180000000000000000000000004C
:10078000CB3FA8F7999204E0AFB6F8942EBC0EB414
:100790000992600E721C821CC9DF2EBC0EB4099235
:1007A000C2DF2EBC0EB40992BEDF2EBC9EB4AFBE1B
:1007B000BEDFF7CE000000000000000000000000D7
:1007C000CE3F68F49992990C990800000EB42EBCA3
:1007D000640C721C821C039CF001F50D099485E0E9
:1007E0000E947318000000000000000000000000DC
:1007F00000000000000000000000000000000000F9
:10080000CD3F68F49992990C990899920EB42EBC38
:10081000640C721C821C039CF001F50D099485E0A8
:100820000E9473180000000000000000000000009B
:1008300000000000000000000000000000000000B8
:10084000CC3F70F49992990C9908999299920EB4B0
:100850002EBC640C721C821C039CF001F50D0994E3
:1008600085E00E94731800000000000000000000F6
:100870000000000000000000000000000000000078
:10088000CE3F60F49992640C721CF8942EBC0EB4A6
:100890007894821C039CF001F50D099485E00E9478
:1008A00073180000000000000000000000000000BD
:1008B0000000000000000000000000000000000038
:1008C000CE3F68F49992DE01A2509C900EB42EBCEB
:1008D000640C721C821C039CF001F50D099485E0E8
:1008E0000E947318000000000000000000000000DB
:1008F00000000000000000000000000000000000F8
:10090000CE3F68F49992DE01A3509C900EB42EBCA9
:10091000640C721C821C039CF001F50D099485E0A7
:100920000E9473180000000000000000000000009A
:1009300000000000000000000000000000000000B7
:10094000CE3F68F49992DE01A4509C900EB42EBC68
:10095000640C721C821C039CF001F50D099485E067
:100960000E9473180000000000000000000000005A
:100970000000000000000000000000000000000077
:10098000CE3F68F49992DE01A5509C900EB42EBC27
:10099000640C721C821C039CF001F50D099485E027
:1009A0000E9473180000000000000000000000001A
:1009B0000000000000000000000000000000000037
:1009C000CE3F68F49992DE01A6509C900EB42EBCE6
:1009D000640C721C821C039CF001F50D099485E0E7
:1009E0000E947318000000000000000000000000DA
:1009F00000000000000000000000000000000000F7
:100A0000CE3F68F49992DE01A7509C900EB42EBCA4
:100A1000640C721C821C039CF001F50D099485E0A6
:100A20000E94731800000000000000000000000099
:100A300000000000000000000000000000000000B6
:100A4000CE3F68F49992DE01A8509C900EB42EBC63
:100A5000640C721C821C039CF001F50D099485E066
:100A60000E94731800000000000000000000000059
:100A70000000000000000000000000000000000076
:100A8000CD3F78F49992DE01A2500D9009929D908D
:100A90000EB42EBC640C721C821C039CF001F50D7C
:100AA000099485E00E947318000000000000000017
:100AB0000000000000000000000000000000000036
:100AC000CD3F78F49992DE01A3500D9009929D904C
:100AD0000EB42EBC640C721C821C039CF001F50D3C
:100AE000099485E00E9473180000000000000000D7
:100AF00000000000000000000000000000000000F6
:100B0000CD3F78F49992DE01A4500D9009929D900A
:100B10000EB42EBC640C721C821C039CF001F50DFB
:100B2000099485E00E947318000000000000000096
:100B300000000000000000000000000000000000B5
:100B4000CD3F78F49992DE01A5500D9009929D90C9
:100B50000EB42EBC640C721C821C039CF001F50DBB
:100B6000099485E00E947318000000000000000056
:100B70000000000000000000000000000000000075
:100B8000CD3F78F49992DE01A6500D9009929D9088
:100B90000EB42EBC640C721C821C039CF001F50D7B
:100BA000099485E00E947318000000000000000016
:100BB0000000000000000000000000000000000035
:100BC000CD3F78F49992DE01A7500D9009929D9047
:100BD0000EB42EBC640C721C821C039CF001F50D3B
:100BE000099485E00E9473180000000000000000D6
:100BF00000000000000000000000000000000000F5
:100C0000CD3F78F49992DE01A8500D9009929D9005
:100C10000EB42EBC640C721C821C039CF001F50DFA
:100C2000099485E00E947318000000000000000095
:100C300000000000000000000000000000000000B4
:100C4000CD3F78F49992DE01A9500D9009929D90C4
:100C50000EB42EBC640C721C821C039CF001F50DBA
:100C6000099485E00E947318000000000000000055
:100C70000000000000000000000000000000000074
:100C8000CE3F18F085E00E9473189992AFB6F894A1
:100C90002EBC0EB4AFBE640C721C821CDE01A01907
:100CA0009C9000C000C0640C721CF8942EBC0EB462
:100CB0007894821C039CF001F50D0994000000005B
:100CC000CD3F18F085E00E9473189992AFB6F89462
:100CD0002EBC0EB4AFBE640C721C821CDE01A019C7
:100CE0000D909C900992640C721CF8942EBC0EB46A
:100CF0007894821C039CF001F50D0994000000001B
:100D0000CB3F18F085E00E9473189992640CDE01C5
:100D10000EB42EBC721C821CA0190D911D912D9138
:100D20009D900993199329930EB42EBC640C721CE8
:100D3000821C039CF001F50D0994000000000000E6
:100D4000092D9C0EF8F2DE01640C721C821C0EB49C
:100D50002EBCA019069510F40D9009920D900992E1
:100D60009D9099920A95D1F7CA950EB42EBC640C49
:100D7000721C821C039CF001F50D09940000000018
:100D8000C89500C0AFB6F8942EBC0EB4AFBE640CCC
:100D9000721C821C092DDE01A0190C939A90000090
:100DA000640C721CF8942EBC0EB47894821C039CC4
:100DB000F001F50D099400000000000000000000A3
:100DC000C89500C0AFB6F8942EBC0EB4AFBE640C8C
:100DD000721C821C192D0A91DE01A0190D931D931E
:100DE0009A900EB42EBC640C721C821C039CF00101
:100DF000F50D099400000000000000000000000054
:100E0000392D2A911A910A910EB42EBC640C721CD1
:100E1000821CDE01A0190D931D932D933D939A9092
:100E200000000EB42EBC640C721C821C039CF001EA
:100E3000F50D099400000000000000000000000013
:100E4000092D0250DE011A912A910EB42EBC640CB9
:100E5000721C821CA0191E932E93069518F40A90FA
:100E60000E9231F00A900E920A900E920A95D1F7E6
:100E70009A90D7CF000000000000000000000000A2
:100E80009992CF3F19F485E00E947318AFB6F89499
:100E90002EBCAEB542E0640E721C821C0CD02EBC7F
:100EA000BEB5AFBE9C900AD07BCF00000000000012
:100EB000000000000000000000C0000008950000D5
:100EC0009992CE3F18F085E00E9473180000F894C4
:100ED0002EBCAEB542E0640E721C821CECDF2EBC50
:100EE000BEB578940D919D900993C89559CF000097
:100EF00000000000000000000000000000000000F2
:100F00009992CC3F18F085E00E94731800C0AEB5EE
:100F10002EBC42E0640E721C821CCCDFBEB52EBC1F
:100F20000D911D912D919D9009931993299359CF5E
:100F300000000000000000000000000000000000B1
:100F4000292D9A949C0EF8F2C895AEB52EBC42E0BD
:100F5000640E721C821CAEDFBEB52EBC269510F44A
:100F60000D9009920D9009920D9009922A95D1F752
:100F70009A9037CF00000000000000000000000041
:100F8000CF3F18F085E00E9473189992AFB6F8949D
:100F90002EBCAEB5AFBEB2E09C90640C721C821C3D
:100FA000C89500C0640C721CF8942EBC0EB47894E2
:100FB000821C039CF001F50D0994C895000008956A
:100FC000CE3F18F085E00E9473189992AFB6F8945E
:100FD0002EBCAEB5AFBEB2E09D9099929C90640CD1
:100FE000721C821C0000640C721CF8942EBC0EB49F
:100FF0007894821C039CF001F50D0994089500007B
:10100000CC3F18F085E00E9473189992B2E0640C0E
:10101000AEB52EBC721C821C9D9099929D909992A7
:101020009D9099929C900EB42EBC640C721C821CF4
:10103000039CF001F50D0994000000000000000081
:10104000C89500C0AFB6F8942EBCAEB512E0610EE4
:10105000721C821C30DF2EBCBEB5AFBE9C929A9033
:101060002DDF640C721CF8942EBC0EB47894821C94
:10107000039CF001F50D0994000000000000000041
:10108000C89500C0AFB6F8942EBCAEB512E0610EA4
:10109000721C821C10DF2EBCBEB5AFBE1A911D9310
:1010A0009D929A90C895640C721CF8942EBC0EB454
:1010B0007894821C039CF001F50D09940000000057
:1010C0002A911A910A91F8942EBCAEB5392D42E0BE
:1010D000640E721C821CF0DE2EBCBEB578940D939B
:1010E0001D932D933D939A900000640C721CF8940C
:1010F0002EBC0EB47894821C039CF001F50D09946B
:10110000C89500C0AFB6F8942EBCAEB5AFBE12E025
:10111000610E721C821CD0DEBEB52EBCA90DB21DA4
:10112000969410F40A900E920A900E920A900E92E3
:101130009A94D1F79A9048C0000000000000000087
:10114000292D1A910A91599A33E059983EBDA090E1
:101150006B06B0906C06A10EB21EADDEBEBCA5DE65
:10116000AEBCA3DE0EBDA2DE2EBCA0DE9EB4599A9C
:1011700059983EBD0C944618000000C00895000028
:10118000292D1A910A9133E000001EB426C0640C88
:10119000721C821CC895C895C895AFB6F8942EBC31
:1011A0000EB4AFBE09921A941414A9F7E6DF9EB4E8
:1011B000599A59983EBD0C94461800000000000052
:1011C000B92DAA919D9000C00EB42EBC640C721C67
:1011D000821C039CF001F50D0994599A33E059984B
:1011E0003EBDA0906B06B0906C06A10EB21E63DEF1
:1011F000BEBC5BDEAEBC59DE0EBD58DE2EBCC7CF1A
:10120000B92DAA911D9019929D900EB42EBC640C1C
:10121000721C821C039CF001F50D09940000000073
:1012200000000000000000000000000000000000BE
:1012300000000000000000000000000000000000AE
:10124000B92DAA912C2F640C721C821C0EB42EBCDA
:10125000200D20F1069410F49D9099929D90999202
:101260009D9099920A94D1F7CA950EB42EBC640C45
:10127000721C821C039CF001F50D09940000000013
:10128000B92DAA911A901C929A900EB42EBC640C9F
:10129000721C821C039CF001F50D099485E00E94EC
:1012A00073180000000000000000000000000000B3
:1012B000000000000000000000000000000000002E
:1012C000B92DAA911A900A909A900D921C920EB480
:1012D0002EBC640C721C821C039CF001F50D099459
:1012E00000000000000000000000000000000000FE
:1012F00000000000000000000000000000000000EE
:10130000B92DAA910000640C721C821C0EB42EBC74
:10131000A00DB21D069410F41A901E921A901E92FF
:101320001A901E920A94D1F79A900EB42EBC640CB7
:10133000721C821C039CF001F50D09940000000052
:10134000CA9598800000640C721CF8942EBC0EB4F0
:101350007894821C039CF001F50D099400000000B4
:10136000000000000000000000000000000000007D
:10137000000000000000000000000000000000006D
:10138000C25098800000640C721CF8942EBC0EB4FD
:101390007894821C039CF001F50D09940000000074
:1013A000000000000000000000000000000000003D
:1013B000000000000000000000000000000000002D
:1013C000C35098800000640C721CF8942EBC0EB4BC
:1013D0007894821C039CF001F50D0994000000C074
:1013E0000000000000000000000000000895000060
:1013F00000000000000000000000000000000000ED
:10140000C45098800000640C721CF8942EBC0EB47A
:101410007894821C039CF001F50D09944A91640FA5
:10142000751F6993972E0EB42EBC640C721C821C1F
:10143000039CF001F50D099400000000000000007D
:10144000C89500C0AFB6F8942EBC0EB4AFBE640C05
:10145000721C821CC0199880C89500C0640C721C54
:10146000F8942EBC0EB47894821C039CF001F50D08
:1014700009940000000000000000000000000000CF
:10148000492D640C721C821C00C0F8942EBC0EB452
:10149000AFBE401588F49A906A91640F921C6993CC
:1014A0000000640C721CF8942EBC0EB47894821C5C
:1014B000039CF001F50D099482E00E94731800006E
:1014C000492D12E0610EC895F8942EBC0EB5721C21
:1014D000821C86DF2EBC1EB57894411768F7049FE6
:1014E0005A914A91040E151E0992912C00000EB4D7
:1014F0002EBC640C721C821C039CF001F50D099437
:10150000592D4A9100C0AFB6F8942EBC0EB514E028
:10151000610E721C821C66DF2EBC1EB560DF2EBC05
:101520002EB55DDF2EBC3EB5AFBE4217530720F689
:10153000049FB001059F700D149F700D5A916ECFDE
:10154000A92C9A90EA900FB6F8942EBC0EB5DA90BA
:1015500012E0610E721C821C47DF2EBC1EB50FBE4E
:10156000A11640F4A09ED00CE11C921CD992E992E5
:1015700000004CC182E00C947318000000000000D1
:1015800035DF4EB52EBC15E0610E721C821CC92CD5
:10159000BA90AA902BDF5EB52EBCFA90EA90DA9052
:1015A00022DF0EB52EBC1ADF1EB52EBC17DF2EB5FE
:1015B0002EBCA016B106C206E8F60C94F117000086
:1015C0004A913A912A91F8942EBC0EB57894592DEF
:1015D00012E0610E721C821C4217530758F6049FDA
:1015E0009A918A912EBC1EB5B001680F791F059F94
:1015F000700D149F700D6993972E000007C10000B5
:101600000C940E1882E00C947318B00CC11C289F27
:10161000C00C199FC00C301B410B920A9CF3B2E026
:101620006B0E721C821CA992B992C992399349938C
:10163000EDC0099319936993E9C000000000000010
:101640006A915A914A913A918EB52EBC2A911A917B
:101650000A9142175307B0F62617390598F2489FAA
:10166000000D111D9EB52EBC589F110D499F110DE7
:10167000641B950A3CF2B2E06B0E721C821CD9CF3F
:101680004A913A912A911A918EB52EBC0A91FA90FC
:10169000EA90DA90CA90BA90AA900D151E052F050F
:1016A00020F59EB52EBCD316E406F904F0F0089F91
:1016B000A00CB11CC21C189FB00CC11C099FA5CF67
:1016C0009992CE3F18F085E00E947318AFB6F89457
:1016D0002EBC0EB4AFBE640C721C821C8E010019AD
:1016E0000993912E00C000C091C082E00C94731841
:1016F000C8950000089500000000000000000000F0
:101700009992CE3F18F085E00E947318AFB6F89416
:101710002EBC0EB4AFBE640C721C821C12E0099287
:10172000912E00C00FC0000000000000000000006B
:1017300000000000000000000000000000000000A9
:101740009394C895640C721CF8942EBC0EB47894D3
:10175000821C039CF001F50D0994000000000000BC
:101760000000000000000000000000000000000079
:101770000000000000000000000000000000000069
:101780009A940000DFCF000000000000000000007D
:101790000000000000000000000000000000000049
:1017A0000000000000000000000000000000000039
:1017B0000000000000000000000000000000000029
:1017C00000C0DE011196AFB6F8942EBC0EB4AFBEC9
:1017D000640C721C821CA0190C9003940C9200C023
:1017E000640C721CF8942EBC0EB47894821C039C7A
:1017F000F001F50D09940000000000000000000059
:10180000B92DAA910D91902E03950E930EB42EBC76
:10181000640C721C821C039CF001F50D09940000FD
:1018200000000000000000000000000000000000B8
:1018300000000000000000000000000000000000A8
:10184000B92DAA910D911D910993912E040D121D90
:101850001E930E930EB42EBC640C721C821C039C4F
:10186000F001F50D099400000000000000000000E8
:101870000000000000000000000000000000000068
:10188000CE3F18F085E00E947318B92DAA910D91F2
:101890001D912D9109931993922E040D121D221D55
:1018A0002E931E930E930EB42EBC640C721C821CDD
:1018B000039CF001F50D09940000000000000000F9
:1018C000CD3F18F085E00E947318B92DAA910D91B3
:1018D0001D912D913D91099319932993932E040DF8
:1018E000121D221D321D3E932E931E930E930EB495
:1018F0002EBC640C721C821C039CF001F50D099433
:10190000B92DAA910D91902E0A950E930EB42EBC6E
:10191000640C721C821C039CF001F50D09940000FC
:1019200000000000000000000000000000000000B7
:1019300000000000000000000000000000000000A7
:10194000B92DAA910D911D910993912E0419120997
:101950001E930E930EB42EBC640C721C821C039C4E
:10196000F001F50D099400000000000000000000E7
:101970000000000000000000000000000000000067
:10198000CE3F18F085E00E947318B92DAA910D91F1
:101990001D912D9109931993922E04191209220970
:1019A0002E931E930E930EB42EBC640C721C821CDC
:1019B000039CF001F50D09940000000000000000F8
:1019C000CD3F18F085E00E947318B92DAA910D91B2
:1019D0001D912D913D91099319932993932E0419EB
:1019E0001209220932093E932E931E930E930EB4D0
:1019F0002EBC640C721C821C039CF001F50D099432
:101A0000CD3F18F085E00E947318B92DAA916D9111
:101A10007D918D919D91699379938993992E8D01F3
:101A2000112420E030E040E85FE30E94C933D80190
:101A30009E938E937E936E93DACF00000000000099
:101A4000CD3F18F085E00E947318B92DAA916D91D1
:101A50007D918D919D91699379938993992E8D01B3
:101A6000112420E030E040E85FE30E94C833D80151
:101A70009E938E937E936E93BACF00000000000079
:101A8000EA909E0C0000640C721CF8942EBC0EB4FC
:101A90007894821C039CF001F50D09949A918A9127
:101AA0007A916A915A914A913A912A910E946137AA
:101AB0006993799389939993C093300608950000B0
:101AC000AA90FA90EA90AE0C9F1CA9920EB42EBC7C
:101AD000640C721C821C039CF001F50D099400003B
:101AE00000000000000000000000000000000000F6
:101AF00000000000000000000000000000000000E6
:101B0000BA90AA900A91FA90EA90AE0CBF1C901E6F
:101B1000A992B9920EB42EBC640C721C821C039C58
:101B2000F001F50D09940000000000000000000025
:101B300000000000000000000000000000000000A5
:101B4000CA90BA90AA901A910A91FA90EA90AE0CB3
:101B5000BF1CC01E911EA992B992C9920EB42EBC90
:101B6000640C721C821C039CF001F50D09940000AA
:101B70000000000000000000000000000000000065
:101B8000EA90E9189E2C640C721CF8942EBC0EB4DA
:101B90007894821C039CF001F50D0994000000006C
:101BA0000000000000000000000000000000000035
:101BB0000000000000000000000000000000000025
:101BC000AA90FA90EA90EA18F908E9929F2C0EB4CC
:101BD0002EBC640C721C821C039CF001F50D099450
:101BE00000000000000000000000000000000000F5
:101BF00000000000000000000000000000000000E5
:101C0000BA90AA900A91FA90EA90EA18FB0809099A
:101C1000E992F992902E0EB42EBC640C721C821CB8
:101C2000039CF001F50D0994000000000000000085
:101C300000000000000000000000000000000000A4
:101C4000CA90BA90AA901A910A91FA90EA90EA186A
:101C5000FB080C091909E992F9920993912E0EB427
:101C60002EBC640C721C821C039CF001F50D0994BF
:101C70000000000000000000000000000000000064
:101C8000FA90EA90E90CF21CE9929F2C0EB42EBC5B
:101C9000640C721C821C039CF001F50D0994000079
:101CA0000000000000000000000000000000000034
:101CB0000000000000000000000000000000000024
:101CC0000A91FA90EA90E90CF21C021DE992F9924D
:101CD000902E0EB42EBC640C721C821C039CF0016E
:101CE000F50D099400000000000000000000000055
:101CF00000000000000000000000000000000000E4
:101D0000FA90EA90E918F208E9929F2C0EB42EBCE2
:101D1000640C721C821C039CF001F50D09940000F8
:101D200000000000000000000000000000000000B3
:101D300000000000000000000000000000000000A3
:101D4000FA90EA90E99C9001F99C300D2993932E2A
:101D50000EB42EBC640C721C821C039CF001F50DA9
:101D600009940000000000000000000000000000D6
:101D70000000000000000000000000000000000063
:101D8000EA90E99C902C00C00EB42EBC640C721C2E
:101D9000821C039CF001F50D099400000000000076
:101DA0000000000000000000000000000000000033
:101DB0000000000000000000000000000000000023
:101DC000AA90FA90EA90EA9C9001E99C300DFA9C66
:101DD000300D2993932E0EB42EBC640C721C821C01
:101DE000039CF001F50D09940000000000000000C4
:101DF00000000000000000000000000000000000E3
:101E0000BA90AA900A91FA90EA90EA9C90010A9DF1
:101E1000902CFA9C300D911CEB9C300D911CFB9C7E
:101E2000900CE99C900C299339930EB42EBC640C51
:101E3000721C821C039CF001F50D09940000000047
:101E40000C94C31700000000000000000000000018
:101E50000000000000000000000000000000000082
:101E60000000000000000000000000000000000072
:101E70000000000000000000000000000000000062
:101E8000792D6A919A918A916215720519F483E00D
:101E90000E9473180E9433396993972E0EB42EBC9A
:101EA000640C721C821C039CF001F50D0994000067
:101EB0000000000000000000000000000000000022
:101EC000592D4A913A912A919A918A917A916A91DF
:101ED000221532054205520519F483E00E94731859
:101EE0008E010E949733E801299339934993952EE7
:101EF000D5CF00000000000000000000000000003E
:101F0000792D6A919A918A916215720519F483E08C
:101F10000E9473180E9447396993972E0EB42EBC05
:101F2000640C721C821C039CF001F50D09940000E6
:101F300000000000000000000000000000000000A1
:101F4000592D4A913A912A919A918A917A916A915E
:101F5000221532054205520519F483E00E947318D8
:101F60008E010E946B33E801299339934993952E92
:101F7000D5CF0000000000000000000000000000BD
:101F8000792D6A919A918A916215720519F483E00C
:101F90000E9473180E9433398993992E0EB42EBC77
:101FA000640C721C821C039CF001F50D0994000066
:101FB0000000000000000000000000000000000021
:101FC000592D4A913A912A919A918A917A916A91DE
:101FD000221532054205520519F483E00E94731858
:101FE0008E010E949733E801699379938993992E22
:101FF000D5CF00000000000000000000000000003D
:10200000792D6A919A918A916215720519F483E08B
:102010000E9473180E9447398993992E0EB42EBCE2
:10202000640C721C821C039CF001F50D09940000E5
:1020300000000000000000000000000000000000A0
:10204000592D4A913A912A919A918A917A916A915D
:10205000221532054205520519F483E00E947318D7
:102060008E010E946B33E801699379938993992ECD
:10207000D5CF0000000000000000000000000000BC
:10208000492D0A914830A0F442FD029542FD007F9F
:1020900041FD000F41FD000F40FD000F902E0EB4DA
:1020A0002EBC640C721C821C039CF001F50D09947B
:1020B0009924F5CF0000000000000000000000009F
:1020C000492D1A910A914830A1F0403128F0299207
:1020D000992406C0000F111F4A95E2F70993912E2B
:1020E0000EB42EBC640C721C821C039CF001F50D16
:1020F00009942992902EF4CF000000000000000007
:10210000492D3A912A911A910A91403248F0299228
:102110002992299299240AC0000F111F221F331FF0
:102120004A95D2F7099319932993932E0EB42EBC96
:10213000640C721C821C039CF001F50D09940000D4
:10214000492D0A914830A0F442FD029542FD0F70DE
:1021500041FD069541FD069540FD0695902E0EB475
:102160002EBC640C721C821C039CF001F50D0994BA
:10217000922CF5CF000000000000000000000000DD
:10218000492D1A910A91403128F02992922C06C0CB
:10219000169507954A95E2F70993912E0EB42EBC39
:1021A000640C721C821C039CF001F50D0994000064
:1021B000000000000000000000000000000000001F
:1021C000492D3A912A911A910A91403248F0299268
:1021D00029922992922C0AC0369527951795079532
:1021E0004A95D2F7099319932993932E0EB42EBCD6
:1021F000640C721C821C039CF001F50D0994000014
:10220000492D0A91473030F050E007FD5FEF952EE1
:1022100004C005954A95EAF7902E0EB42EBC640CC6
:10222000721C821C039CF001F50D09940000000053
:10223000000000000000000000000000000000009E
:10224000492D1A910A91403140F050E017FD5FEF9F
:102250005993952E06C0159507954A95E2F709936F
:10226000912E0EB42EBC640C721C821C039CF001D7
:10227000F50D0994000000000000000000000000BF
:10228000492D3A912A911A910A91403260F050E01A
:1022900027FD5FEF599359935993952EE2CF3595CA
:1022A0002795179507954A95D2F70993199329937E
:1022B000932ED7CF000000000000000000000000B7
:1022C000EA909E200000640C721CF8942EBC0EB4A0
:1022D0007894821C039CF001F50D09940000000025
:1022E00000000000000000000000000000000000EE
:1022F00000000000000000000000000000000000DE
:10230000AA90FA90EA90AE209F20A9920EB42EBC1B
:10231000640C721C821C039CF001F50D09940000F2
:1023200000000000000000000000000000000000AD
:10233000000000000000000000000000000000009D
:10234000CA90BA90AA901A910A91FA90EA90AE2097
:10235000BF20C0229122A992B992C9920EB42EBC7C
:10236000640C721C821C039CF001F50D09940000A2
:10237000000000000000000000000000000000005D
:10238000EA909E280000640C721CF8942EBC0EB4D7
:102390007894821C039CF001F50D09940000000064
:1023A000000000000000000000000000000000002D
:1023B000000000000000000000000000000000001D
:1023C000AA90FA90EA90AE289F28A9920EB42EBC4B
:1023D000640C721C821C039CF001F50D0994000032
:1023E00000000000000000000000000000000000ED
:1023F00000000000000000000000000000000000DD
:10240000CA90BA90AA901A910A91FA90EA90AE28CE
:10241000BF28C02A912AA992B992C9920EB42EBCA3
:10242000640C721C821C039CF001F50D09940000E1
:10243000000000000000000000000000000000009C
:10244000EA909E240000640C721CF8942EBC0EB41A
:102450007894821C039CF001F50D099400000000A3
:10246000000000000000000000000000000000006C
:10247000000000000000000000000000000000005C
:10248000AA90FA90EA90AE249F24A9920EB42EBC92
:10249000640C721C821C039CF001F50D0994000071
:1024A000000000000000000000000000000000002C
:1024B000000000000000000000000000000000001C
:1024C000CA90BA90AA901A910A91FA90EA90AE2412
:1024D000BF24C0269126A992B992C9920EB42EBCEF
:1024E000640C721C821C039CF001F50D0994000021
:1024F00000000000000000000000000000000000DC
:102500009094C895640C721CF8942EBC0EB4789408
:10251000821C039CF001F50D0994000000000000EE
:1025200000000000000000000000000000000000AB
:10253000000000000000000000000000000000009B
:10254000AA90A0949094A99200000EB42EBC640CA2
:10255000721C821C039CF001F50D09940000000020
:10256000000000000000000000000000000000006B
:10257000000000000000000000000000000000005B
:10258000CA90BA90AA90A094B094C0949094A99242
:10259000B992C9920EB42EBC640C721C821C039CAE
:1025A000F001F50D0994000000000000000000009B
:1025B000000000000000000000000000000000001B
:1025C00000E0921001E0902E640C721CF8942EBC76
:1025D0000EB47894821C039CF001F50D0994000060
:1025E00000000000000000000000000000000000EB
:1025F00000000000000000000000000000000000DB
:102600001A90912800E0921001E0902E0EB42EBC9A
:10261000640C721C821C039CF001F50D09940000EF
:1026200000000000000000000000000000000000AA
:10263000000000000000000000000000000000009A
:10264000AA90A928BA90AB289924A210942C0EB471
:102650002EBC640C721C821C039CF001F50D0994C5
:10266000000000000000000000000000000000006A
:10267000000000000000000000000000000000005A
:10268000AA90A928BA90AB28BA90AB289924A21096
:10269000942C0EB42EBC640C721C821C039CF001A2
:1026A000F50D09940000000000000000000000008B
:1026B000000000000000000000000000000000001A
:1026C000EA9021E0E91408F020E0922E0EB42EBC2E
:1026D000640C721C821C039CF001F50D099400002F
:1026E00000000000000000000000000000000000EA
:1026F00000000000000000000000000000000000DA
:10270000AA90FA90EA90EA14F90450F099240EB4D1
:102710002EBC640C721C821C039CF001F50D099404
:10272000942C0EB42EBC640C721C821C039CF00111
:10273000F50D0994000000000000000000000000FA
:10274000BA90AA900A91FA90EA90EA14FB0409055B
:1027500050F099240EB42EBC640C721C821C039C95
:10276000F001F50D0994942C0EB42EBC640C721C6F
:10277000821C039CF001F50D09940000000000008C
:10278000CA90BA90AA901A910A91FA90EA90EA1423
:10279000FB040C05190550F099240EB42EBC640CF2
:1027A000721C821C039CF001F50D0994942C0EB44C
:1027B0002EBC640C721C821C039CF001F50D099464
:1027C000EA9021E0E9140CF020E0922E0EB42EBC29
:1027D000640C721C821C039CF001F50D099400002E
:1027E00000000000000000000000000000000000E9
:1027F00000000000000000000000000000000000D9
:10280000AA90FA90EA90EA14F90454F099240EB4CC
:102810002EBC640C721C821C039CF001F50D099403
:10282000942C0EB42EBC640C721C821C039CF00110
:10283000F50D0994000000000000000000000000F9
:10284000BA90AA900A91FA90EA90EA14FB0409055A
:1028500054F099240EB42EBC640C721C821C039C90
:10286000F001F50D0994942C0EB42EBC640C721C6E
:10287000821C039CF001F50D09940000000000008B
:10288000CA90BA90AA901A910A91FA90EA90EA1422
:10289000FB040C05190554F099240EB42EBC640CED
:1028A000721C821C039CF001F50D0994942C0EB44B
:1028B0002EBC640C721C821C039CF001F50D099463
:1028C000592D4A913A912A919A918A917A916A91D5
:1028D00011240E94A234942C811199240EB42EBC90
:1028E000640C721C821C039CF001F50D099400001D
:1028F00000000000000000000000000000000000D8
:10290000592D4A913A912A919A918A917A916A9194
:1029100011240E94A234881F8827881F982E0EB485
:102920002EBC640C721C821C039CF001F50D0994F2
:102930000000000000000000000000000000000097
:1029400001E0921000E0902E640C721CF8942EBCF2
:102950000EB47894821C039CF001F50D09940000DC
:102960000000000000000000000000000000000067
:102970000000000000000000000000000000000057
:10298000592D4A913A912A919A918A917A916A9114
:1029900011240E94C933699379938993992E0EB4B7
:1029A0002EBC640C721C821C039CF001F50D099472
:1029B0000000000000000000000000000000000017
:1029C000592D4A913A912A919A918A917A916A91D4
:1029D00011240E94C833699379938993992E0EB478
:1029E0002EBC640C721C821C039CF001F50D099432
:1029F00000000000000000000000000000000000D7
:102A0000592D4A913A912A919A918A917A916A9193
:102A100011240E94FE36699379938993992E0EB4FE
:102A20002EBC640C721C821C039CF001F50D0994F1
:102A30000000000000000000000000000000000096
:102A4000592D4A913A912A919A918A917A916A9153
:102A500011240E94A934699379938993992E0EB415
:102A60002EBC640C721C821C039CF001F50D0994B1
:102A70000000000000000000000000000000000056
:102A8000992D8A917A916A9111240E941135699346
:102A900079938993992E0EB42EBC640C721C821CFF
:102AA000039CF001F50D09940000000000000000F7
:102AB0000000000000000000000000000000000016
:102AC000992D8A917A916A9111240E941635699301
:102AD00079938993992E0EB42EBC640C721C821CBF
:102AE000039CF001F50D09940000000000000000B7
:102AF00000000000000000000000000000000000D6
:102B0000992D8A917A916A9111240E944435699392
:102B100079938993992E0EB42EBC640C721C821C7E
:102B2000039CF001F50D0994000000000000000076
:102B30000000000000000000000000000000000095
:102B4000992D8A917A916A9111240E944235699354
:102B500079938993992E0EB42EBC640C721C821C3E
:102B6000039CF001F50D0994000000000000000036
:102B7000000000C000C00895000000000000000038
:102B8000192C23E0620E721C9A90F8942EBC0EB59C
:102B9000821CECDF2EBC1EB57894EBDF121431F4EE
:102BA00038018EB4599A59982EBD70C22EBCE1DFFF
:102BB000CBCE00000000000000000000000000007C
:102BC000640C721C821C921471F423E0092D0EB463
:102BD000599A59982EBD9A90102C110C1108600C1E
:102BE000711C811C56C29A902EBCC3DFADCE000072
:102BF00000000000000000000000000000000000D5
:102C0000192C23E0620E721C9A90F8942EBC0EB51B
:102C1000821CACDF2EBC1EB57894ABDF121431F0F1
:102C200038018EB4599A59982EBD30C22EBCA1DFFE
:102C30008BCE00000000000000000000000000003B
:102C4000640C721C821C921471F023E0092D0EB4E6
:102C5000599A59982EBD9A90102C110C1108600C9D
:102C6000711C811C16C29A902EBC83DF6DCE0000B1
:102C70000000000000000000000000000000000054
:102C800023E0620E721C821C00C0F8942EBC0EB5AC
:102C90006CDF2EBC1EB578946CDF921431F43801D1
:102CA0008EB4599A59982EBDF1C12EBC9A9062DF0C
:102CB0004BCE0000000000000000000000000000FB
:102CC000640C721C821C23E0921461F400000EB4A8
:102CD000599A59982EBD102C110C1108600C711CBA
:102CE000811CD7C12EBC9A9045DF2ECE000000007B
:102CF00000000000000000000000000000000000D4
:102D000003E0600E721C821C00C0F8942EBC0EB54D
:102D10002CDF2EBC1EB578942CDF921431F03801D4
:102D20008EB4599A59982EBDB1C12EBC9A9022DF0B
:102D30000BCE0000000000000000000000000000BA
:102D4000640C721C821C23E0921461F000000EB42B
:102D5000599A59982EBD102C110C1108600C711C39
:102D6000811C97C12EBC9A9005DFEECD00000000BB
:102D70000000000000000000000000000000000053
:102D8000C89500C0AFB6F8942EBC6EB423E0EEDE5A
:102D90002EBC7EB4AFBEEADE8EB4599A59982EBDD1
:102DA00075C10000000000000000000000000000ED
:102DB0000000000000000000000000000000000013
:102DC000C895C89523E00EB4599A59982EBD03941E
:102DD000102C110C1108600C711C811C5AC186E06A
:102DE00082D1000000000000000000000000000090
:102DF00000000000000000000000000000000000D3
:102E0000892C7A906A909A9023E0599A59982EBD0D
:102E10003DC10000000000000000000000000000B4
:102E200000000000000000000000000000000000A2
:102E30000000000000000000000000000000000092
:102E4000A0913406AD3258F6B6E0AFB6F8942EBC79
:102E50000EB403E0060D602C721C821C0D937D9253
:102E60008D9200C000C02EBC7EB4AFBEA0933406CD
:102E700080DE23E08EB4599A59982EBD07C1000018
:102E8000A0913406AD32A8F4B6E0640C721C821C2A
:102E90006D927D928D92A09334060EB423E0599AE0
:102EA00059982EBD102C110C1108600C711C811C3E
:102EB000F0C086E018D10000000000000000000013
:102EC000A0913406AD32A8F7B6E06D927D928D9256
:102ED000A093340623E0599A59982EBD892C7A90F4
:102EE0006A909A90D6C00000000000000000000028
:102EF00000000000000000000000000000000000D2
:102F0000A0913406B6E08E9023E0599A59982EBDD0
:102F10007E906E90A0933406BCC09A918A917A916B
:102F20006A915A914A913A912A910E9499356993EE
:102F3000799389939993C093300608950000000017
:102F4000E0E7F4E3640C721C821C609231060EB45C
:102F50002EBC7092320680923306E00DF21D059071
:102F6000F491E02D9992C093300611240995C091F7
:102F700030069A900EB42EBC640C721C821C039C0A
:102F8000F001F50D0994CA90BA90AA901A910A918D
:102F9000FA90EA90EA9C90010A9DA001FA9C300DFB
:102FA000411D521DEB9C300D411D521DFB9C400DDF
:102FB000511DEC9C400D511D1A9D500D0B9D500D47
:102FC000FC9C500DE99C500D299339934993952E03
:102FD0000EB42EBC640C721C821C039CF001F50D17
:102FE0000994A49ED00CE11CF21CA59EE00CF11CDF
:102FF000B49EE00CF11CB59EF00CC49EF00CD9926E
:10300000E9929F2C0EB42EBC640C721C821C039C93
:10301000F001F50D099400C0C8950895C89500C049
:103020004EB52EBC12E0610E721C821CF4DF5EB540
:103030002EBCC92CBA90AA902A911A910A919A9002
:10304000EA90DA90A016B106C206C8F4A49ED00C8D
:10305000E11C921CA59EE00C911CB49EE00C911CFE
:10306000B59E900CC49E900CD992E9920EB42EBCE1
:10307000640C721C821C039CF001F50D099482E023
:1030800032D0599A23E059982EBD00C0000000C0EC
:1030900000C0009142060215C9F400916B06109120
:1030A0006C06070D181D1EBD18D00EBD16D06EBCC7
:1030B00015D02EBC14D0640C721CF8942EBC0EB427
:1030C0007894821C039CF001F50D09941124C89595
:1030D00000C0599A0E94D523D5CF0000C89500C0E2
:1030E000C895000008956092310670923206809271
:1030F00033069992C093300611240E949E2A0C94A4
:1031000000009A918A917A916A915A914A913A91E2
:103110002A910E943C346993799389939993C0933F
:1031200030060895000000000000000000000000CC
:10313000000000000000000000000000000000008F
:10314000000000000000000000000000000000007F
:10315000000000000000000000000000000000006F
:10316000000000000000000000000000000000005F
:10317000000000000000000000000000000000004F
:103180004E6F20666F6E742073657420666F7220B8
:1031900074657874206F7065726174696F6E005326
:1031A000697A6573206F66206D656D637079206440
:1031B00073742F737263206469666665720053705E
:1031C00072697465206672616D65206F75747369CC
:1031D0006465206F66207365740043616C6C2073B6
:1031E0007461636B206F766572666C6F7700446103
:1031F000746120737461636B206F766572666C6FA7
:103200007700417373657274696F6E206661696CD3
:103210006564004469766973696F6E206279207A0B
:1032200065726F00417272617920696E6465782001
:103230006F7574206F6620626F756E6473004761EE
:103240006D652064617461206E6F7420666F756EA9
:1032500064000000FFFFFFFFFFFFFFFFFFFFFFFF16
:10326000FFFFFFFFFFFFFFFF19FDE4EE7CE1D4D479
:10327000E2C89CBDF7B2ECA8719F7E960C8E1386B7
:103280008C7E7277BE706A6A7164CE5E7C597654A9
:10329000B84F3F4B06470943463FB93B5F3835358A
:1032A0003832672FBE2C3B2ADC279F2583238521BC
:1032B000A31FDD1D2F1C9A1A1C19B3175F161D15AD
:1032C000EE13D012C111C210D20FEE0E180E4D0D1A
:1032D0008E0CDA0B2F0B8F0AF7096809E1086108D9
:1032E000E90777070C07A7064706ED059805470588
:1032F000FC04B40470043104F403BC0386035303D8
:103300002403F602CC02A4027E025A0238021802FA
:10331000FA01DE01C301AA0192017B01660152019B
:103320003F012D011C010C01000100010001000101
:103330000001000100010001000100010001000185
:103340000001000100010001000100010001000175
:1033500000010001000085C352C323C3F5C2CBC2E4
:10336000A3C27DC259C237C217C2F3B3BBB385B380
:1033700052B323B3F5B2CBB2A3B27DB259B237B2D6
:1033800017B2F3A3BBA385A352A323A3F5A2CBA299
:10339000A3A27DA259A237A217A2F393BB93859350
:1033A00052932393F592CB92A3927D9259923792A6
:1033B0001792F383BB83858352832383F582CB8269
:1033C000A3827D82598237821782F373BB73857320
:1033D00052732373F572CB72A3727D725972377276
:1033E0001772F363BB63856352632363F562CB6239
:1033F000A3627D62596237621762F353BB538553F0
:1034000052532353F552CB52A3527D525952375245
:103410001752F343BB43854352432343F542CB4208
:10342000A3427D42594237421742F333BB338533BF
:1034300052332333F532CB32A3327D325932373215
:103440001732F323BB23852352232323F522CB22D8
:10345000A3227D2259223E32243213320232EE312F
:10346000DA31BE319F31803100004552524F520057
:1034700048224222491E771E3F1E351E871DF82511
:103480007D1DB01C4F25272A222A2429942E2F2E59
:10349000CF2CE82D8C2DEE2E7A1C711C9C1CF01B61
:1034A0005C019A2151013F31E22FD12FC12FB22F60
:1034B000A32FC32C2E2D002D932C462D0B31B53070
:1034C0004F30622C112CA02197214C307A2394216B
:1034D00091218E213D305D237C0106233630ED2283
:1034E0000C305921EB2F9101B10171018118F101CB
:1034F0001102D1018D174E0D3102C02C7A2A6F2A8C
:10350000BE2C2C2AD2211700030C00000000994C7D
:10351000000003002E02D1010000C411100184102C
:103520001000980C2E3AF243B94AB12A877CB7268C
:10353000AE22211FAA2AA23A0A00500184284A2951
:103540008A10A10A0000BE78BF2A2E463F3ABF4625
:10355000BF042E669F7CF147F1019F6C1F425F7C88
:103560003F783F7EBF082E7ABF68B226E1071F7EF4
:10357000071F1F7D9B6C833EB94E3F028360F103A2
:103580002208104241004C7A5F324C4A4C7E4C5328
:10359000BE00D6035F701D00B0019F681F009E78BB
:1035A0005E704C325E1144799E0856034F020E7ACB
:1035B000061B1E799249823ADA02C47D0000DF11AF
:1035C0008D14A1C881CFD9F102AF11241FBECFEF56
:1035D000DAE0DEBFCDBF16E0AEE3B6E0EAECF2E73C
:1035E00002C005900D92A234B107D9F72AE0A2E4F7
:1035F000B6E001C01D92A237B207E1F70E948931FF
:103600000C9463390C940000E5E0F0E010D03197A1
:1036100028F068517C4F8F4F9F4FF9CFAB01FC01D1
:1036200006D0641775078E079F07D0F30895A7E6A5
:10363000B6E02FB7F8947D918D919C9166B52FBF20
:10364000A89B05C06F3F18F47F5F8F4F9F4F22E00C
:10365000660F771F881F991F2A95D1F708959C013F
:10366000E0E0F2E0A0E0B0E0BD0180E045D039D07C
:10367000BD011296A20FB31F82179307A9F38F5FA4
:103680009F4F21F4AF5FBF40DB0160F028D140E0E5
:103690005091700A6091710A80E226D0599AFDD04B
:1036A000A0E0B0E07CEF1BD14A2F5091700A5B0F75
:1036B0006091710A611D82E017D0832F71FD822F06
:1036C00070FD819124D0759518F42150304019F087
:1036D0001196AA2391F7599AE0D02115310519F7CF
:1036E000089539D0982F3DC0599811D0862F0FD00A
:1036F000852F0DD0842F0BC0462F5091700A570F85
:103700006091710A681F83E0EFDF1EBC08958EBDD3
:1037100000008EB50DB407FEFCCF0895E0E0F2E0A6
:10372000DC0160E070E080E0E7DF9D01AF0160E078
:103730000FD08217930749F4D901FA0160E00BD04A
:1037400081931197E1F761E0F3CF0BD0862F0895B5
:1037500002D0982F00C00DB407FEFDCF8EB51EBC61
:1037600008950DB407FEFDCF8EB5599A08950F93B5
:103770001F93CF93DF93809164008E7F80936400CA
:1037800080917A00806480937A0080917A0086FD2F
:10379000FCCFC0917800D091790049DFAB01BC012A
:1037A00080916400816080936400CE01B0E0A0E06D
:1037B000DC01992788278C019D01040F151F261F06
:1037C000371FC901B801DF91CF911F910F91089563
:1037D0008FB18095807F669B88601C9B8460089574
:1037E00081E083BF889513BE089510926F0A3E98BA
:1037F0003F9808953E9A3F9A81E080936F0A08951A
:1038000090916E0A982329F490916D0A982381E093
:1038100009F480E0089580916D0A80936E0AD8DFE4
:1038200080936D0A089580389105B8F4603471056D
:10383000A0F490E121E061FD24E060FD220F62FD33
:103840002295687F969FD0011124A80FA359B94FE4
:103850000C90022A40FF02260C9208955E98EDE635
:10386000F6E030EB20E146E05C983EBD4A95F1F78A
:103870002EBD20E8239507C0449140815C9A4EBD3F
:103880008111412D419344912A95B1F73395383BED
:1038900049F744910DB45E9A0895599885E037DF51
:1038A00080E035DF80FDFCCF599A0895FC0161501E
:1038B000704019F050DF8193FACF53DF8083089571
:1038C000462F50916B06570F60916C06681F83E07E
:1038D0000BDF1EBC089559981ADF599A089586E0A7
:1038E000FACF8A91C093300696E0811194E09093CC
:1038F000390608958A9180933C068A9180933B060D
:103900008A9180933A06C093300608958093F1001F
:103910000895E0914306F091440662817381611538
:10392000710549F06150710962837383A081B1818F
:103930008D93A083B1830895E0913006F1E0629108
:10394000E09330066B3040F070E080E094E00E943D
:1039500033396093360608956623D9F364E6F9CFC8
:103960002F923F925F926F927F928F929F92AF922F
:10397000BF92CF92DF92EF92FF920F931F93CF935C
:10398000DF93CDB7DEB7C650CDBFE0913006F1E092
:1039900082919291E92EF82E82919291092F182FFF
:1039A00022915290E0933006822F90E09E838D8387
:1039B00081E090E05C012D813E81A21AB30AC90129
:1039C0009195819591099C01220F331F3A83298398
:1039D0006D817E81600F711F452DC70124DFB80105
:1039E0008D819E81681B790B452DC7011CDF452DFC
:1039F000B8018D819E818E0D9F1D15DF452DB8016B
:103A0000C7012D813E81821B930B0DDFD12CC12C70
:103A100081E090E09C838B832D813E81C216D3068A
:103A20000CF057C0B7FC0BC0215031093E832D83E9
:103A300089819A8102969A838983A80EB91E9FEF85
:103A4000C91AD90A2B813C812E5F3F4F3C832B83BF
:103A5000A20EB31E36016E0C7F1C452D8D809E80FC
:103A6000800E911EB401C301DEDE17012C183D0843
:103A7000452DB401C101D7DE452D48018D819E81C0
:103A8000881A990AB401C301CEDE452DB401C101E3
:103A9000CADE48018C0C9D1C452DB4016D807E80D2
:103AA0006E0C7F1CC301BFDE452DB40117012D81B3
:103AB0003E81221A330AC101B6DE48018C189D08E6
:103AC000452DB401C301AFDE452DB401C101ABDE0C
:103AD000A3CFCA5FCDBFDF91CF911F910F91FF9010
:103AE000EF90DF90CF90BF90AF909F908F907F909E
:103AF0006F905F903F902F9008959A918A917A915C
:103B00006A914A912A910A91C093300628C72F9250
:103B10003F924F925F926F927F928F929F92AF925D
:103B2000BF92CF92DF92EF92FF920F931F93CF93AA
:103B3000DF93CDB7DEB7C350CDBFE0913006F1E0E3
:103B4000829192919A838B8382919291092F182F5F
:103B500082919291E92EF82E22913291832F922F09
:103B600022912983E09330066C01C01AD10AD7FE56
:103B700003C0D194C194D10847012A813B81821AA4
:103B8000930A97FE03C09194819491088C149D042C
:103B90005CF43E2D2F2D7C01832F922F3A812B81B7
:103BA0001B830A83032F122F2A813B81E216F3061F
:103BB0005CF4302F212F8C01832F922F3A812B819F
:103BC000FB82EA82E32EF22E17012A813B81221A20
:103BD000330A2C01401A510A57FE03C051944194F4
:103BE0005108310137FE03C03FEF631A730A759421
:103BF00067940817190714F18FEFA82E880FBB08D8
:103C00008A819B81E816F906DCF04981BC01C80174
:103C10008C149D041CF0B8018A819B8104DE641819
:103C2000750877FE04C00A0D1B1D620C731C2A81E7
:103C30003B812F5F3F4F3B832A83E2CF81E0DDCF83
:103C4000CD5FCDBFDF91CF911F910F91FF90EF908E
:103C5000DF90CF90BF90AF909F908F907F906F90AC
:103C60005F904F903F902F9008959A918A917A910A
:103C70006A9141E02A910A91C093300670C69A91E8
:103C80008A917A916A914A9121E00A91C093300613
:103C900066C6E0913006F1E02291829127FD25C0B1
:103CA000803418F5482F477086958695869530E8BC
:103CB000839FC00111248359994F820F911DDC010C
:103CC0008C9190E021E030E0042E02C0220F331FDF
:103CD0000A94E2F78223932302C0959587954A952B
:103CE000E2F78193E0933006089580E0FACFE09107
:103CF0003006F1E092918291729162914291E0934B
:103D0000300691CDCF93DF93C0913606D091370620
:103D10008C2F8D0F809337067894809167068D1BCA
:103D20008C1728F48F5F8C17B8F75ADDF5CFDF9129
:103D3000CF9171CD5998A3E0AEBDFC0181919191D5
:103D4000A19140916B0650916C06490F5A1F00C01B
:103D500000C05EBD0DD04EBD0BD08EBD0196A11D25
:103D6000A2939293829308D01EBC04D000000895C1
:103D7000C895C89500C000C008952F923F924F92F9
:103D80005F926F927F928F929F92AF92BF92CF92EB
:103D9000DF92EF92FF920F931F93CF93DF93CDB7F4
:103DA000DEB7C851CDBF9C8B8B8BE0913006F1E024
:103DB000829192912291622E792E882E82919291F7
:103DC00022912E879F87888BE0933006CE01019643
:103DD0009A8B898B90E3592E61147104810409F444
:103DE00004C2CE010E96A6DF0EB5599A1301482CD7
:103DF00091E0291A31084108053229F0802FEB891A
:103E0000FC89099517C0CE010E9694DF1EB5599A0C
:103E10001301482CF2E02F1A31084108143609F436
:103E200047C058F4133509F4B4C0133609F48CC0F4
:103E3000153221F3842C3101CFCF133709F48BC015
:103E400008F031C01636B1F7E0913006F1E082910A
:103E5000929122913291C32ED22EE92EF82ECD8A44
:103E6000DE8AEF8AF88EE0933006CE010E9662DF8E
:103E70001EB5599A1301482CF3E02F1A3108410856
:103E8000A7019601C701B6010E943838882309F4BA
:103E9000CDC08EE6EB89FC89099581E6EB89FC892A
:103EA00009958EE6ACCF153719F0183709F0C2CF57
:103EB000E0913006F1E08291929122913291A32E0D
:103EC000B22EC92ED82EE0933006CE010E9632DFE8
:103ED000FEB4599A1301482C83E0281A310841088E
:103EE000183709F47CC0143609F08EC0D7FE8CC098
:103EF0008DE2EB89FC890995D094C094B094A0948C
:103F0000A11CB11CC11CD11CFFECFF0E8AE08E016C
:103F10000F5F1F4F682E712C912C812CC601B501AB
:103F2000A40193010E94973359016A0187E56A3021
:103F300008F480E3860FD8018D938D01FA94232B2A
:103F4000242B252B59F759C0E0913006F1E002915E
:103F5000E093300653CFE0913006F1E082919291E8
:103F6000E92EF82E82919291E0933006092F182FB6
:103F7000E114F10409F45ECFF80181918F018823E7
:103F800009F458CFEB89FC890995F1E0EF1AF108A3
:103F9000EFCFE0913006F1E0829192912291C22E12
:103FA000D92EE82E829192912291E09330062B87B0
:103FB0009C878D87C114D104E10409F43BCFCE0165
:103FC0000B96B8DE8EB5599A882309F433CFEB8966
:103FD000FC890995F1E0CF1AD108E108EBCF80E127
:103FE000A114B104C104D10489F48E010F5F1F4FE5
:103FF000D8015D928D01BFECFB0E1F1454F4F80143
:1040000051928F01FA94F9CF8AE0EACFE0EDFE0EEB
:104010007ECF89899A898017910709F40BCFF8011F
:1040200082918F01EB89FC890995F3CFE894F7F829
:104030002FEF3FEF4FE75FE7C701B6010E94383827
:10404000811114C02FEF3FEF4FE75FE7C701B601C3
:104050000E94A234181654F489E6EB89FC8909956C
:104060008EE6EB89FC89099586E6C9CE2FEF3FEFF6
:104070004FE75FE46D897E898F89988D0E94F336C2
:10408000181664F02FEF3FEF4FE75FEC6D897E89E4
:104090008F89988D0E94A23487FF06C08FE6EB8936
:1040A000FC89099586E7DDCF20E030E0A9016D8924
:1040B0007E898F89988D0E94A23487FF0DC08DE282
:1040C000EB89FC8909958D899E89AF89B88DB05897
:1040D0008D8B9E8BAF8BB88F80ED782E710E10E09C
:1040E00060E070E080E09FE3171540F42DEC3CECBD
:1040F0004CEC5DE30E94FE361F5FF6CF2D893E89B2
:104100004F89588D0E94C9336B017C010E9416357E
:104110004B015C010E9442359B01AC01C701B60115
:104120000E94C8336B017C0181149104A104B10485
:1041300091F48E010F5F1F4FD8015D928D01E989C7
:10414000FA89E017F10731F1F80182918F01EB89CB
:10415000FC890995F4CF612C8E010F5F1F4FC501BB
:10416000B4012AE030E040E050E00E94973349017A
:104170005A01605DF80161938F016A948114910482
:10418000A104B10461F71614D4F6D8015D928D0133
:104190006A94F9CF772009F44DCE8EE2EB89FC8941
:1041A00009957A9477FC46CE20E030E040E251E475
:1041B000C701B6010E94FE364B015C010E94163514
:1041C000162F80E3810FEB89FC890995612F70E040
:1041D00090E080E00E9444359B01AC01C501B40130
:1041E0000E94C8336B017C01DCCFC85ECDBFDF917C
:1041F000CF911F910F91FF90EF90DF90CF90BF90E4
:10420000AF909F908F907F906F905F904F903F9076
:104210002F90089583E059988EBD009142060115B4
:1042200029F0112414D0599AC0D2F4CF409131060C
:10423000509132066091330680916B0690916C0626
:10424000580F691F6EBD07C00000000000C00000CD
:1042500000C0C8950895FADF5EBDF6DF4EBDF5DFFC
:104260001EBCF5CF93E059989EBD40913A065091FF
:104270003B0660913C0697E0899F400D511D11243B
:10428000611DDADF00C000C08EB5599A089593E031
:1042900059989EBD40913A0650913B0660913C066C
:1042A00097E0590F611DC8DF00C000C08EB5599A54
:1042B0000895CF9356DA6AE070E080E001DB4BDAD4
:1042C000C82F4FDA2C2F382FC90101978115944040
:1042D00010F4C901C4D9E1DA9DDFCF910895FF92AE
:1042E0000F931F93CF93DF93A0913006B1E01E91FF
:1042F0000E91FE90A093300620916F0A222341F088
:10430000EC012FDA6F2D702F812FFE01099582DFCE
:10431000DF91CF911F910F91FF90089585EA94E26C
:10432000DECF87E594E2DBCF84E894E2D8CF8CEF50
:1043300093E2D5CF16DA86E89CE11FDD6BCF0895B6
:10434000EF92FF920F931F93CF93DF93CDB7DEB71A
:10435000C450CDBFE0913006F1E012910291F2908D
:10436000E290E0933006FDD9E982FA820B831C8348
:10437000CE010196909344068093430689E89CE120
:10438000FCDC8B819C81892B19F0E981FA811082F8
:1043900041DFCC5FCDBFDF91CF911F910F91FF9097
:1043A000EF9008958F929F92AF92BF92CF92DF923B
:1043B000EF92FF920F931F93CF93DF93E09130061C
:1043C000F1E0829192912291C22ED92EE82E829113
:1043D0009291092F182F8291EF019A91A92EB82E50
:1043E000C0D98E2DB6016CDAB6D9F82EB1D94C01F0
:1043F000082C892C902C75D9082E892F902D081700
:10440000190708F03CC0A814B90408F038C025E02A
:10441000C20ED11CE11CA89E9001B99E402DA99E00
:10442000300D411DB89E300D411D1124200F311F4C
:10443000411D82E0F81203C0220F331F441F842F56
:10444000B9016C0D7D1D8E1D3BDA21E0F21215C005
:1044500088D990E0FE0181939193E0933006DADEF3
:10446000DF91CF911F910F91FF90EF90DF90CF9050
:10447000BF90AF909F908F90089533D9EBCF90E08D
:1044800080E0E8CF6ED980E0E9D93CDCC3CE089566
:1044900068D981E0E3D936DCBDCE08955F926F9292
:1044A0007F928F929F92AF92BF92CF92DF92EF92C4
:1044B000FF920F931F93CF93DF93CDB7DEB7C35017
:1044C000CDBF12E0403209F443C0E42FEE0FFF0BE2
:1044D000EC53FB4C45915491942F9F7199839A0111
:1044E00095E0369527959A95E1F72F712A83952FB8
:1044F000969596959F719B8313E0911104C012E0ED
:10450000211101C011E0062F9E012F5F3F4F59017D
:10451000712C612CE82EF12CF50181915F01502E58
:104520004701860C971C882371F0C82ED12C80FF80
:1045300005C0652D70E041E0C40175D95394D59450
:10454000C7948C2DF0CFFFEF6F1A7F0A611620F30E
:10455000812FCD5FCDBFDF91CF911F910F91FF9044
:10456000EF90DF90CF90BF90AF909F908F907F9013
:104570006F905F900895FF920F931F93CF93DF93F7
:10458000062FF22EEA01182FFF2059F0FE01449168
:104590002196442341F0602F812F80DF8F5F180F19
:1045A000F3CF4881F5CF812FDF91CF911F910F91EC
:1045B000FF90089518B810926F00E6E4F6E01086B8
:1045C000118A128E109242061092450688E180935D
:1045D00091001092C00018B80895ECCF109280009E
:1045E0008AE0809381008FE39FE19093890080931C
:1045F000880083E48093900088E18093910010927A
:10460000C0001092C1001092C300D4CF80916F0AF5
:10461000882311F0EAD8E2CFEDD8FDCF813818F029
:104620001092C0000895811104C01092C00018B803
:104630000895E82FF0E0EE0FFF1FEC5AFC4C859137
:104640009491292F22952F709F702093C1009093F1
:10465000BF008093D100969587959093BF0080937B
:10466000CF0082E88093C0000895813820F088E16F
:104670008093910008958823D1F3E82FF0E0EE0FA6
:10468000FF1FEE5AFD4C8591949190939900809371
:1046900098008AE1EDCF80914E0681110DC0809186
:1046A0005706811109C0109245068091600681115C
:1046B00003C010926F0018B80895109260068091A0
:1046C0004506811108C010924E0688E18093910042
:1046D0001092C00018B8DFCF10924506E6E4F6E06D
:1046E0001086118AD8DF88E1809391001092C00073
:1046F00018B80895809145068111EECF0895599814
:1047000093E09EBD9FB700906B06700D00906C0605
:10471000801D20D08EBD1AD07EBD18D06EBD17D0A2
:104720001EBCDA012150304000C051F000C014D04E
:10473000F8941EBC0EB49FBF0D9221503040B9F7C3
:104740000AD00EB40C92599A0DB40895000000C01E
:10475000C8950000000000C00895CF92DF92EF924C
:104760000F931F93CF93DF93FC01448104E0102F3C
:10477000141B99F0EC01C580D680E780212F30E032
:10478000480F592F511D8E2DB601B9DFC10ED11C16
:10479000E11CCD82DE82EF820C83DF91CF911F91ED
:1047A0000F91EF90DF90CF900895CF9380916F009D
:1047B000811102C010924206809142068823D1F0F6
:1047C000CFB7F89480914E06882319F086E496E0DE
:1047D000C4DF80915706882319F08FE496E0BDDF8F
:1047E00080916006882319F088E596E0B6DF109284
:1047F0004206CFBFCF910895CF92DF92EF921F93E1
:10480000CF93DF93CDB7DEB7C350CDBF6B01E82E9A
:1048100018B810926F0023E030E0AE014F5F5F4F99
:104820006EDF83E0C80ED11CE11C1FB7F894109214
:104830004A06C0924B06D0924C06E0924D0681E0AB
:1048400080934E0680914E06882319F086E496E008
:1048500084DF89819A81AB81C80ED91EEA1E10922D
:104860005306C0925406D0925506E092560681E057
:104870008093570680915706882319F08FE496E0BD
:104880006CDF80914606F1DE80914F06C7DE81E045
:10489000809345061FBF82E080936F00CD5FCDBF40
:1048A000DF91CF911F91EF90DF90CF900895CF923D
:1048B000DF92EF92CF936B01E82E80914506811134
:1048C0000BDF18B810926F00CFB7F89410924A0619
:1048D000C0924B06D0924C06E0924D0681E0809348
:1048E0004E0680914E06882319F086E496E035DF67
:1048F00080914606BADECFBF82E080936F00CF91F1
:10490000EF90DF90CF900895CF9318B810926F007A
:10491000CFB7F89410925C0660935D0670935E06C4
:1049200080935F0681E08093600680916006882313
:1049300019F088E596E011DF809158066FDECFBF51
:1049400082E080936F00CF91089590916006992343
:1049500029F090914E06911101C0A9CFD5CF0F93A8
:10496000803891050CF099C0603471050CF095C049
:10497000FC01E40FF11D1E161F060CF08EC0FB019A
:10498000E20FF11D1E161F060CF087C0442309F428
:1049900084C0222309F481C0582F362F77FF02C02C
:1049A000260F30E097FF02C0480F50E090E8951BBB
:1049B000491708F4942F80E4831B281708F4822FEA
:1049C000830F41E031FD44E030FD440F32FD42955C
:1049D000419561E081FD64E080FD660F82FD629596
:1049E0006195A42FA095762F70958150232F269541
:1049F00026952695869586958695EDE6F6E030E82F
:104A0000239FE00DF11D1124E50FF11D821B40FDD8
:104A10008F5F60FD8F5F21E0011101C020E02195D3
:104A200050E8591B342F3223472F4223882319F48F
:104A30006A2B43232CC0AA2349F0B92F00800A22F5
:104A4000032A0192BA95D1F7E50FF11D8A95E9F095
:104A5000B92FB77081F4B92F21932193219321931A
:104A60002193219321932193B850B1F7E50FF11DC4
:104A70008A9571F70AC02193BA95E9F7B92FB87FE3
:104A800059F7E50FF11D8A9519F7772331F000806A
:104A90000622042A01929A95D1F70F9108952F9238
:104AA0003F924F925F926F927F928F929F92AF92BE
:104AB000BF92CF92DF92EF92FF920F931F93CF930B
:104AC000DF93CDB7DEB7C650CDBFE0913006F1E041
:104AD00082919291E92EF82E82919291692E782EF0
:104AE00022911291E0933006822F90E09E838D8375
:104AF0009C01220F331F2F5F3F4FB301681B790BBF
:104B0000012F41E0C7012BDF81E090E06C01ED81D6
:104B1000FE81CE1ADF0A1F01319421943108220C44
:104B2000331CB12CA12C88248394912C2D813E819F
:104B3000A216B3060CF047C0D7FC09C021503109BA
:104B40003E832D8332E0230E311CC20CD31C8FEF29
:104B5000A81AB80A92E0890E911CC80CD91C8D8144
:104B60009E81880F991FFC013196FC83EB83012FF6
:104B70002B8141E023018D819E81481A590AB2019F
:104B8000C5018E0D9F1DEBDEF301EA19FB09FA83C7
:104B9000E983282D41E0BF018D819E818E0D9F1DEF
:104BA000DEDE2B8141E0B201C7018A199B09D7DE05
:104BB000282D41E069817A81C701ED81FE818E1B3C
:104BC0009F0BCDDEB3CFCA5FCDBFDF91CF911F91D9
:104BD0000F91FF90EF90DF90CF90BF90AF909F909C
:104BE0008F907F906F905F904F903F902F9008959F
:104BF000CF92DF92EF92FF920F931F93CF93DF93A9
:104C0000E0913006F1E082919291E92EF82E8291A6
:104C10009291C92FD82F1291C290D290E093300672
:104C20000D2D21E0412FBE01C70199DE2C2D41E061
:104C3000BE01C70194DEBE016C0D711D615071098A
:104C400021E0412FC7018BDEC701810F911D2C2D63
:104C500041E0BE01019783DEDF91CF911F910F915B
:104C6000FF90EF90DF90CF900895803891057CF40D
:104C70006034710564F4DC01A40FB11D1A161B0623
:104C800034F4DB01A20FB11D1A161B060CF00895B7
:104C90002F923F924F925F926F927F928F929F924C
:104CA000BF92EF92FF920F931F93382E2224842EEF
:104CB000322F369536953695599853E05EBDFB01F7
:104CC000F595E795F595E795F595E7951E2F1F3F27
:104CD0004CF41095311BC0FC110F149FE00CF11C1B
:104CE000021D1FEF00906B06F00C00906C06001D7B
:104CF00097FF0BC0880EC0FE02C0880F991FE81AEC
:104D0000F90A020997FD039533240EBDADE6B6E01E
:104D100050E81503030CA00DB11D5319851608F0BA
:104D2000852EE7E0E11BE31714F43E2F2394FEBC2D
:104D3000E0E8E8194E2E51E061FD54E060FD550FAA
:104D400062FD5295552EEFEFE59D30016094709411
:104D5000EEBC11246FB724D01EBCBB24481509F04B
:104D6000B39422C05998E3E0EEBD1124E40EF11C87
:104D7000011DC0FCE40EC0FCF11CC0FC011DBB24E5
:104D8000481509F0B394C8950EBD08D0FEBC06D0F6
:104D9000EEBC05D01EBC00C000C00895000000C0DD
:104DA0000000C895C8950895C1FCF4C0C2FCA6C017
:104DB00011151CF0332391F57CC0A058BF4F582D1E
:104DC000C0FC0DC0F8941EBC8EB56FBF859D9C9035
:104DD000972091289D9200C05A95A1F714C0F8948D
:104DE0001EBC8EB56FBF859DC001DCDFF8941EBC74
:104DF0006EB46FBF659C30019C9070949720992A87
:104E00009D925A9561F71124A819B1093A9509F4B0
:104E100010C1BB2019F00DB4599AA4DFFD01E05870
:104E2000FF4F582DC0FC1FC0569518F453959C9009
:104E30000CC08EB51EBC859D9C90962090289D929E
:104E400090809720912891929C908EB51EBC859D54
:104E5000962090289D929080972091289192000012
:104E60005A9539F716C0F8941EBC8EB56FBF859D54
:104E7000C0019C90708097DF6EB41EBC659C00944E
:104E80009020982A9D9210947120792A71925A95B7
:104E900051F71124A40DB11D3A9509F0BACF222083
:104EA00009F4C7C0BB2029F00DB4599A5BDF00C0DC
:104EB000C895C0FC0DC0F8941EBC8EB56FBF859D13
:104EC0009C90962090289D9200C08A94A1F7B1C032
:104ED000F8941EBC8EB56FBF859DC00163DFF8944A
:104EE0001EBC3EB56FBF359D302D9C9030959322F2
:104EF000982A9D928A9461F700009BC011151CF0BE
:104F00003323E1F43BC0A058BF4F582DF8941EBC8A
:104F10008EB56FBF859D9C9091289D92C8955A959E
:104F2000A9F71124A819B1093A9509F482C0BB2048
:104F300029F00DB4599A16DF00C000C0FD01E058F9
:104F4000FF4F582D8EB51EBC859D9C9090289D923C
:104F500090809128919200005A95A1F71124A40DF8
:104F6000B11D3A9521F7222009F463C0BB2031F02E
:104F70000DB4599AF7DE00C000C0C895F8941EBC65
:104F80008EB56FBF859D9C9090289D92C8958A9400
:104F9000A9F74FC011151CF03323F1F43DC0A05800
:104FA000BF4F582DF8941EBC8EB56FBF859D0094E1
:104FB00010949C9091209D9200005A9599F711248D
:104FC000A819B1093A9509F434C0BB2029F00DB4F1
:104FD000599AC8DE00C000C0FD01E058FF4F582DAF
:104FE0008EB51EBC859D009410949C9090209D923F
:104FF0009080912091925A9599F71124A40DB11D9A
:105000003A9519F7222009F414C0BB2021F00DB401
:10501000599AA8DE00C000C0F8941EBC8EB56FBFC0
:10502000859D009410949C9090209D9200008A94FD
:1050300099F71124599A0DB41F910F91FF90EF9099
:10504000BF909F908F907F906F905F904F903F9018
:105050002F9008950895CF92EF92FF920F93DC0165
:10506000E3E05998EEBDE0903A06F0903B060091DF
:105070003C06E0916B06F0916C06FE0E0F1FE7E018
:10508000E49FE00CF11C1124011D0EBD02D0FEBCFA
:105090000AC0000000000000000000000000000046
:1050A000000000C00895F7DFEEBCE0903A06F090F3
:1050B0003B0600913C06EFEFEE1AE8EFFE0AEFEF39
:1050C0000E0B00C000C01EBCE6DFF8941EBC3EB54F
:1050D00078948D919C91FC01E30FF11DFC93EE936C
:1050E00000C0F8941EBC3EB57894830F911D37FD27
:1050F0009A95D7DFF8941EBC3EB57894630F711D66
:1051000037FD7A95CEDFF8941EBCEEB57894C5DFF6
:10511000F8941EBCFEB57894EE0EFF1EC0DFF89426
:105120001EBC4EB57894B8DF2EB5599AC09039069A
:105130009CDD0F91FF90EF90CF900895E091430692
:10514000F0914406648175818A3051F480819181A7
:10515000938382838681680F711D758364830895AC
:10516000482FCF01029677CFCF92EF92FF920F9305
:10517000CF93DF93382F599A599843E04EBDE09171
:105180003006F1E034970291F290E290A0916B0624
:10519000B0916C06AF0DB01FBEBD85819681638155
:1051A0007481D291C291E093300608C000000000E3
:1051B0000000000000C000C000C0089545E0AEBD82
:1051C000F6DFBFB7EEBCE40EF11C011DF3DF1EBC21
:1051D000EFDFF8941EBC4EB5BFBFECDFF8941EBCE9
:1051E0002EB5BFBF295F287FE22FE695E695E695AD
:1051F000E4DFF8941EBCCEB4BFBFC32AC0FCEE0FE0
:10520000E49FF001ED9FF00C011D112400C0F89403
:105210001EBCAEB5BFBFFC9FF00C011DFD9F000D75
:10522000EC9FE00CF11C1124011DCA17BEB5599A60
:10523000DB0710F087E082D118DDDF91CF910F916D
:10524000FF90EF90CF9008952F923F924F925F92F0
:105250006F927F928F929F92AF92BF92CF92DF9286
:10526000EF92FF920F931F93CF93DF93CDB7DEB7EB
:10527000CC50CDBFE0913006F1E082919291092FA0
:10528000182F829192919B878C879290F290229115
:105290002C83829192912291C22ED92EE82EE093F6
:1052A00030060E94B11B003811050CF0B4C04B85CC
:1052B0005C85403451050CF0AEC08E2DB6010E94C5
:1052C000601C0E94AB1B8B830E94A81B1C01022C3C
:1052D000232C302C0E94711B5C010A2CAB2CB02CAF
:1052E00055E0C50ED11CE11C6C817F2D892D0E94DB
:1052F000601C0E94AB1B882E0E94B11B30E020E096
:10530000EB85FC85A801B901E80FF11D1CF42F5FA6
:105310003F4FFACFE81BF109480D511D1CF46F5F98
:105320007F4FFACF481951097E836D835A83498391
:10533000FC87EB872901682D70E078876F83E82F61
:10534000F0E0FA87E9874214530408F064C02B8523
:105350003C85203431050CF05EC04D815E813A0100
:10536000812C09811A816A147B0408F048C0003836
:1053700011050CF044C04A9CC0015B9CA02D4B9CC5
:10538000900DA11D5A9C900DA11D1124860D971DF5
:10539000A81D5B81523019F4880F991FAA1FBC0108
:1053A0008A2F6C0D7D1D8E1D0E94601C6B816130EB
:1053B00009F022C00E94B11B90E00097A1F0019774
:1053C000E0913006F1E0819391937C817193F192A9
:1053D00091928B8581939C85919301931193E09396
:1053E000300680E0C1DEEF81F8850E0F1F1FFFEF52
:1053F0006F1A7F0A8F0AB7CF0E94711BDECF2FEF83
:10540000421A520A4B855C8569857A85460F571F7B
:105410005C874B8798CF0E940A21C45FCDBFDF9184
:10542000CF911F910F91FF90EF90DF90CF90BF90A1
:10543000AF909F908F907F906F905F904F903F9034
:105440002F90089584E090DE0C940A21089580E066
:105450008BDE0C940A2108958F929F92AF92BF9297
:10546000CF92DF92EF92FF92CF93DF93E0913006DD
:10547000F1E08291929122913291C32ED22EE92EA7
:10548000F82E829192912291EF013A91832E922EE1
:10549000A92EB82EC814D904EA04FB0470F40E94A3
:1054A0000E33A50194012C193D094E095F090E9494
:1054B0009733C60ED71EE81EF91EFE01C192D19287
:1054C000E192F192E0933006DF91CF91FF90EF905F
:1054D000DF90CF90BF90AF909F908F900895E09114
:1054E0003006F1E09291829172916291E0933006E0
:1054F0000C945A330E94B71B611571058105910503
:1055000011F00C945A330895FC0180858823A9F08A
:105510008181815071F481E08093420684818250C0
:1055200061F02281338131832083848381E0908103
:105530000895818380E090E008950895CF93DF93EC
:10554000CDB7DEB7CA52CDBF89A380933506EDE64D
:10555000F6E080E094E0DF019C011D922150304094
:10556000E1F7599A27D839A100E0323040F0009194
:1055700034068BEA089F012D112406950F5FA9A11F
:10558000A150BB0BCD01880F991FFC01EA5AFB4CBF
:10559000FDA3ECA311E0D12C202F30E03AA729A7DE
:1055A000CE0101965C010E940B1CDD2039F080E8E1
:1055B0000E94001C882311F0DA94182F88E08D0DCA
:1055C000801728F480E10E94001C81118FC01123F4
:1055D00009F4FAC021E04AE654E361E081E00E9468
:1055E000BB2299A19130B1F060E270E080E00E94AE
:1055F000601C58E1F52E14E20E94AB1B482F61E0BD
:10560000812F0E944E22180F1F5FFA94F110F4CFE1
:105610000E94B11BEDE6F6E08081AFE78A27819317
:10562000B6E0ED3EFB07C0F3ECA1FDA1459154911E
:1056300021E068E080E00E94BB2229A53AA52D194F
:105640003109C901880F991F820F931FFC01E05097
:10565000FF4FFBA3EAA39D2C11E1901608F0B1C007
:10566000209031063090320640903306992039F070
:10567000EAA1FBA1E350FB4F2080318042806CE027
:1056800070E080E00E94601C0E94AB1B582E0E94BC
:10569000AB1B8EA30E94AB1B8FA30E94AB1B88A7E2
:1056A0000E94AB1BF82E0E94AB1BE82E0E94B11B80
:1056B00090E0A0E0772766277E296F290E94601C72
:1056C000612C712C812CF12CE12CC12C62147304FF
:1056D000840450F50E94AB1B87FD0AC090E0019640
:1056E000680E791E811C97FD8A94F0CFD39472CFF7
:1056F0008D3F30F4FFE7EF1AF108E80EF11CE6CF1A
:105700008D3F21F40E94AB1BC82EE0CF8E3F21F4C9
:105710000E94A81B7C01DACF0E94A81B782E0E9451
:10572000AB1B682E892ED2CF0E94B11BC514F0F599
:1057300028A5622F70E080E0862F772766273FA19B
:10574000732B9EA1692BA0E2CA9E90011124620FC7
:10575000731F811D37FD8A950E94601C60E270E016
:10576000C5010E94561C20E0A501612F88E10E941E
:10577000BB22FE013696C7016AE070E00E94333911
:10578000805D82937B01AE16BF06A9F71E8280E082
:10579000A501480F511DFA019081903311F48F5FDC
:1057A000F7CF20E0612F80E00E94BB2293941A5F24
:1057B0002AA13BA1235031093BA32AA31B3309F0A3
:1057C0004CCF81E00E942E1C2FB7F8948091630685
:1057D00090916406A0916506B09166062FBF94E192
:1057E000F92EF80E10E02FB7F8948091630690918F
:1057F0006406A0916506B09166062FBF3F2D381B49
:1058000037FDD1CE0E94F01BEECFE0913006F1E0E3
:10581000EE3F28F481939193E0933006089585E05C
:105820008DDE8F929F92AF92BF92CF92DF92EF92D6
:105830000F931F93CF93DF93E0913006F1E08291B5
:105840009291C92FD82F1291029182919291229117
:10585000C22ED92EE82EB290A2909290E0933006FC
:105860000E94B11B692D7A2D8B2D0E94601C209700
:10587000A9F058014E010E94AB1BF50181935F0115
:10588000882361F0F1E08F1A910841F081E0C81A95
:10589000D108E10881F7F50180E081930E94B11BF6
:1058A000C801B3DFCE01B1DF0E940A21DF91CF91A1
:1058B0001F910F91EF90DF90CF90BF90AF909F908E
:1058C0008F9008951F93CF93DF93E0913006F1E01E
:1058D00082919291C92FD82F9291829122913291E7
:1058E000632F722F42915291E09330062097A9F0D6
:1058F000FC01252F342FAE01D9011D919D0111937B
:10590000112359F04150510941F0DA01A60FB71F98
:10591000AC17BD0789F720E0219377DFCE01DF9137
:10592000CF911F9172CFE0913006F1E08291929178
:10593000292F382F82919291492F582FE0933006CA
:1059400090E080E02115310551F0FC01E40FF51FD6
:105950006081662321F0019682179307B1F755CF36
:10596000E0913006F1E0EC3F38F46193719381935C
:105970009193E0933006089585E0E0DD4FD6F0CFB7
:105980000E94B71BEDCF2FB7F8946091630670911A
:10599000640680916506909166062FBFE1CFCF9394
:1059A000DF93CDB7DEB7C750CDBFCE010196909340
:1059B000440680934306E0913006F1E08291929193
:1059C00099838A839B838C83829192919D838E831A
:1059D000E09330060E94B11B80913C068F3F11F48A
:1059E00089E0ACDD0E9447218F838EE998E20E9416
:1059F000BD1E0E940A21C95FCDBFDF91CF910895DE
:105A00006F927F928F92CF92DF92EF92E091300669
:105A1000F1E082919291292F382F529142918291F7
:105A200092916291C62ED92EE82E82917291629146
:105A3000E0933006599A3901812C6C147D048E0450
:105A400011F088E07BDD0E947F230E940A21EF9005
:105A5000DF90CF908F907F906F900895E091300607
:105A6000F1E082919291292F382F92918291629147
:105A70007291472F562F72916291E0933006421730
:105A8000530711F088E05ADD0C945A396F927F92D7
:105A90008F92CF92DF92EF92E0913006F1E0829107
:105AA00092912291C22ED92EE82E8290729062900D
:105AB000E0933006C114D104E104C9F00E94B11B87
:105AC000B301882D0E94601C612C712C812C0E94D6
:105AD000AB1B882341F08FEF681A780A880A6C1490
