:100000000C9480010C949D010C949D010C949D0115
:100010000C949D010C949D010C949D010C949D01E8
:100020000C949D010C949D010C949D010C949D01D8
:100030000C949D010C949D010C949D010C949D01C8
:100040000C949D010C949D010C949D010C949D01B8
:100050000C949D010C949D010C949D010C941E0820
:100060000C949D010C949D010C949D010C949D0198
:100070000C949D010C949D010C949D010C949D0188
:100080000C949D010C949D010C949D010C949D0178
:100090000C949D010C949D010C949D010C949D0168
:1000A0000C949D010C949D010C949D010000000096
:1000B0000000000000000000000000000000000040
:1000C0000000000000000000000000000000000030
:1000D0000000000000000000000000000000000020
:1000E0000000000000000000000000000000000010
:1000F0000000000000000000000000000000000000
:10010000536F7572636520616E642064657374203B
:10011000737472696E6773206F7665726C617000BC
:10012000537072697465206672616D65206F7574B5
:1001300073696465206F66207365740043616C6C3D
:1001400020737461636B206F766572666C6F7700E5
:100150004461746120737461636B206F76657266AD
:100160006C6F7700417373657274696F6E2066619E
:10017000696C6564004469766973696F6E206279A1
:10018000207A65726F00417272617920696E6465D0
:1001900078206F7574206F6620626F756E647300CF
:1001A00047616D652064617461206E6F7420666FB5
:1001B000756E64004C696E653A0046696C653A007C
:1001C000A00186017501640150013C01200100017C
:1001D0000000FFFFDBDBC300FFFF1B1BFFEE00FF88
:1001E000FF1B1BFFEE007EFFC3C3FF7E00FFFF1B54
:1001F0001BFFEE00000000000000000000000000F7
:100200001E0407044A03DB1FD0060106BC21071E9B
:10021000781D3C03641F3A03380382202F03521FCA
:10022000401F2F1F1F1F0F1F4D205D1D8F1FD61E2C
:100230007A1E0303B8022022D5F08D14A1C881CF05
:10024000D9F1AF20001700030C00000000994C000A
:100250000003002E02D1010000C41110018410100F
:1002600000980C2E3AF243B94AB12A877CB726AEE1
:1002700022211FAA2AA23A0A00500184284A298A68
:1002800010A10A0000BE78BF2A2E463F3ABF46BFE3
:10029000042E669F7CF147F1019F6C1F425F7C3FFB
:1002A000783F7EBF082E7ABF68B226E1071F7E071F
:1002B0001F1F7D9B6C833EB94E3F028360F103227A
:1002C00008104241004C7A5F324C4A4C7E4C53BE7F
:1002D00000D6035F701D00B0019F681F009E785E0E
:1002E000704C325E1144799E0856034F020E7A0616
:1002F0001B1E799249823ADA02C47D0000DF1100A8
:1003000011241FBECFEFDAE0DEBFCDBF16E0A6E6B8
:10031000B6E0E6E5F8E402C005900D92A836B10714
:10032000D9F72AE0A8E6B6E001C01D92AA38B207C4
:10033000E1F70E9400230C9429240C940000000093
:1003400000000000000000000000000000000000AD
:10035000000000000000000000000000000000009D
:10036000000000000000000000000000000000008D
:10037000000000000000000000000000000000007D
:10038000000000000000000000000000000000006D
:10039000000000000000000000000000000000005D
:1003A000000000000000000000000000000000004D
:1003B000000000000000000000000000000000003D
:1003C000000000000000000000000000000000002D
:1003D000000000000000000000000000000000001D
:1003E000000000000000000000000000000000000D
:1003F00000000000000000000000000000000000FD
:10040000EAE8F6E0A0E0B8E000800EBC8111012C23
:100410001197A0FDFDCF0192B9F70DB40895E5E065
:10042000F0E00E942402319728F068517C4F8F4FF2
:100430009F4FF9CFAB01FC010E942402641775079E
:100440008E079F07C8F30895A4E8B6E02FB7F89485
:100450007D918D919C9166B52FBFA89B05C06F3F84
:1004600018F47F5F8F4F9F4F22E0660F771F881F22
:10047000991F2A95D1F708950DB407FEFDCF8EB5CB
:10048000599A0895FC016150704021F00E944E027B
:100490008193F9CF0E943C02808308950DB407FE3A
:1004A000FDCF8EB51EBC08950E944E02982F0C946D
:1004B0003C020E944E02982F0C944E0259980E94C2
:1004C0007602862F0E947602852F0E947602842F64
:1004D0000C947602462F50918806570F609189063A
:1004E000681F83E00E945E021EBC08958EBD00005E
:1004F0008EB50DB407FEFCCF08958FB18095807F37
:10050000669B88601C9B8460089581E083BF88950A
:1005100013BE089590E1282F81E061FD84E060FD25
:10052000880F62FD8295687F969FD0011124A20FEB
:10053000A657B94F0C90082A40FF08260C92089540
:10054000A0917806B091790612962D913C9113975F
:100550002115310561F02150310913963C932E93FA
:100560001297ED91FC9111978193ED93FC9308956F
:10057000AF92BF92CF92DF92EF92FF920F931F93B1
:10058000CF93DF93E0916006F1E082919291C92FC1
:10059000D82F12910291829192912291C22ED92E3E
:1005A000E82EB290A290F290E09360060E943C0286
:1005B0006F2D7A2D8B2D0E946A0258010E944E02E7
:1005C000F50181935F01882351F0219741F0F1E01B
:1005D000CF1AD108E10891F7F50180E081930E94DC
:1005E0003C02609161067091620680916306DF9122
:1005F000CF911F910F91FF90EF90DF90CF90BF9020
:10060000AF900C946A02CF93DF93E0916006F1E023
:1006100082919291292F382F8291929142915291F9
:10062000652F742F42915291E0936006E92FF82FC5
:10063000852F942FA901EC01A991CE01A193AA23A2
:1006400059F04150510941F0DA01A60FB71FA21726
:10065000B30789F780E08193DF91CF91089580916E
:100660007606809377060E947D0280937606089531
:10067000989508950C948502E0916006F1E06291EE
:10068000E093600670E088EE93E00E94152460938A
:10069000660608950F931F93CF93DF93E091600652
:1006A000F1E022913291832F922F22913291632F88
:1006B000722F5291C52FA291BA2F4291E0936006FA
:1006C000803891050CF09EC0E52FF0E09C012E0FC4
:1006D0003F1F121613060CF095C02A2F30E08B0135
:1006E000020F131F101611060CF08CC0552309F4CD
:1006F00089C0AA2309F486C0D62F60340CF082C0CA
:10070000182FE80FF11D87FDFA951E161F060CF035
:1007100079C0260F311D67FD3A95121613060CF0AD
:1007200071C040FD4FEF282F362FD7FF03C0BA2FDF
:10073000B60F30E017FF03C0C52FC20F20E090E8CE
:10074000921BC91708F49C2F80E4831BB81708F488
:100750008B2F830F51E031FD54E030FD550F32FDFA
:1007600052955195A1E081FDA4E080FDAA0F82FD84
:10077000A295A195752F70956A2F60958150369539
:1007800036953695869586958695EAE8F6E0B0E842
:100790003B9FE00DF11D1124E20FF11D831B711130
:1007A00001C08F5F611101C08F5F30E8391B252FB9
:1007B0002423562F5423882319F4A72B52231CC01B
:1007C000772349F0B92F00800722022A0192BA95B7
:1007D000D1F7E30FF11D8A9569F0B92FB0FF02C080
:1007E000B39501C041934193B250E1F7E30FF11D7E
:1007F0008A9599F7662331F000800A22052A019232
:100800009A95D1F7DF91CF911F910F910895E091C3
:100810006006F1E0429182919291692F782F2291A6
:100820003291832F922FE09360068038910528F44F
:100830006034710510F40C948A0208950E943C0201
:100840005E9881E00E9400025E9A6091610670915C
:100850006206809163060C946A022F923F924F9237
:100860005F926F927F928F929F92AF92BF92CF9240
:10087000DF92EF92FF920F931F93CF93DF9300D0FD
:1008800000D01F92CDB7DEB7803891050CF040C183
:10089000603471050CF03CC1E42FF0E0DF01A80FDB
:1008A000B91F1A161B060CF033C1A22FB0E0BB8390
:1008B000AA83A60FB71F1A161B060CF029C1AA811E
:1008C000BB81BA2FAA271D01242A3F2A3701802E77
:1008D000C114D104A1F0269526952695A0FC220FDF
:1008E000249FF001ED9D700C811CFC9D700C811CFF
:1008F000FD9D800CEC9D600C711C1124811CE32D6E
:10090000AAE8B6E0E82C6301B82E9924422CE695BB
:10091000E695E695F1E061FDF4E060FDFF0F62FD14
:10092000F2954FEF5FEFA2FC05C01FEF1F9FA001E4
:1009300040955095759567957595679575956795EB
:10094000062F0F3F4CF40095E01BA0FC000F029D0A
:10095000C00CD11CE91C0FEF97FF0BC0480EA0FE86
:1009600002C0880F991FC81AD90AE90897FDE394B5
:10097000BB2410E801030B0CA00DB11D1B1941167F
:1009800008F0412E17E0101B1E1714F4E12F93946A
:1009900010E81419222D3327A1FC02C02419330BAF
:1009A000A0FE02C0220F331F1124F02E3F2E8E2EE8
:1009B00000908806D00C00908906E01C19C0599858
:1009C00003E00EBDC20ED31EE11CBB24241409F0AB
:1009D000B3940CD0EEBC07D0DEBC05D0CEBC03D0A7
:1009E0001EBC03D00895C8950000C895C895089509
:1009F000C21AD30AE108E3DFF1141CF0882071F574
:100A000064C0A058BF4F742CA0FC0CC08EB51EBC97
:100A1000839D6C90652261286D92C89500C07A9480
:100A2000A9F711C08EB51EBC839DC001DEDF4EB597
:100A30001EBC439DA0016C9050956522692A6D9261
:100A4000C8957A9479F71124A419B1098A9409F404
:100A50005CC0BB2019F00DB4599AB1DFFD01E0581C
:100A6000FF4F742CA0FC0EC08EB51EBC839D6C90F5
:100A7000642260286D9260806522612861927A9478
:100A800099F716C08EB51EBC839DC0016C90508135
:100A9000AEDF00C04EB51EBC439D00946020682AA6
:100AA0006D9210945121592B519300007A9451F773
:100AB0001124A10FB11D8A9461F6992031F1BB2058
:100AC00021F00DB4599A7BDFC895A0FC0CC08EB5FF
:100AD0001EBC839D6C90642260286D92C89500C0F6
:100AE0004A94A9F712C08EB51EBC839DC0017DDF5C
:100AF0008EB41EBC839C802C6C9080946820682AE5
:100B00006D92C8954A9479F7C8951124599A0DB4F5
:100B10000F900F900F900F900F90DF91CF911F913A
:100B20000F91FF90EF90DF90CF90BF90AF909F908C
:100B30008F907F906F905F904F903F902F9008958F
:100B40004F925F926F928F929F92AF92BF92CF928D
:100B5000DF92EF92FF920F931F93CF93DF93C09199
:100B60007806D09179068A30C1F48B852F8138853B
:100B7000820F932F911D98878F83DF91CF911F91C3
:100B80000F91FF90EF90DF90CF90BF90AF909F902C
:100B90008F906F905F904F900895488059806A8041
:100BA0008D809E80C82ED12CC601880F991F462D9E
:100BB0009201280F391F411D97FD4A95842FB901D5
:100BC0000E946A020E944E02B82E0E943C02182F18
:100BD000062D72013AEFE31A3DEFF30A0F4F6F81D2
:100BE000788536E0A32E2A854985C4018B0D911D99
:100BF000B7FC9A950E942D04810E911C9E828D82D5
:100C0000BCCF2F923F924F925F926F927F928F92C2
:100C10009F92AF92BF92CF92DF92EF92FF920F938B
:100C20001F93CF93DF93CDB7DEB72E970FB6F8940F
:100C3000DEBF0FBECDBFE0916006F1E05290929012
:100C40008291929199838A83829192912291622ECC
:100C5000792E882E829192912291222E392E482E21
:100C6000829192912291C22ED92EE82EE0936006B5
:100C70000E943C02882DB3017E5F8F4F0E946A0262
:100C80000E944E02082F0E944E02B82E0E943C0283
:100C9000182F2C0C3D1C4E1C9D865E86482D930102
:100CA0002A5F3D4F4F4F288739874A87802F90E032
:100CB0009C878B87C214D304E40409F451C04E2DE1
:100CC00096012F5F3F4F4F4F2C833D834E838E2DD8
:100CD000B6010E946A020E943C02882309F440C0C7
:100CE0008A3071F489819A812B853C85820F931F0C
:100CF0009A8389839D865E86CC80DD80EE80DACF04
:100D0000C82ED12CC601880F991F482D9301280F9A
:100D1000391F411D97FD4A95842FB9010E946A022F
:100D20000E944E028B830E943C028F8336E0A32EEA
:100D3000E884F9840A85212F4B2D69817A818D857C
:100D40009E853B81830F911D37FD9A950E942D044E
:100D50008D859E85AF818A0F911D9E878D87CCCF13
:100D60006091610670916206809163062E960FB6BF
:100D7000F894DEBF0FBECDBFDF91CF911F910F91D1
:100D8000FF90EF90DF90CF90BF90AF909F908F90AB
:100D90007F906F905F904F903F902F900C946A02DD
:100DA0002F923F924F925F926F927F928F929F927B
:100DB000AF92BF92CF92DF92EF92FF920F931F9369
:100DC000CF93DF93CDB7DEB72C970FB6F894DEBF85
:100DD0000FBECDBFE0916006F1E0B290929082919B
:100DE000929199838A83829192912291622E792E97
:100DF000882E829192919B838C83D290C290E093B3
:100E000060060E943C02882DB3017E5F8F4F0E94D6
:100E10006A020E944E02182F0E944E0288870E948A
:100E20003C02582ECD82DE829B86BC861301482C64
:100E300026E0220E22E0321E411C812F90E09A878C
:100E40008987ED81FE818191FE83ED838823B1F056
:100E50002B813C812115310589F0215031093C83DA
:100E60002B838A3059F589819A8129853A85820FA9
:100E7000931F9A8389839B86BC86E3CF609161062A
:100E800070916206809163062C960FB6F894DEBFCF
:100E90000FBECDBFDF91CF911F910F91FF90EF90CB
:100EA000DF90CF90BF90AF909F908F907F906F908A
:100EB0005F904F903F902F900C946A02C82ED12CD7
:100EC000C601880F991F482D9301280F391F411D16
:100ED00097FD4A95842FB9010E946A020E944E0232
:100EE0008F830E943C02182F36E0A32E042D71013F
:100EF000252D488569817A818B859C853F81830F6B
:100F0000911D37FD9A950E942D048B859C85810F3C
:100F1000911D9C878B8795CF2F923F924F925F9226
:100F20006F927F928F929F92AF92BF92CF92DF92F9
:100F3000EF92FF920F931F93CF93DF9300D000D0D7
:100F4000CDB7DEB7262E2C838A01582E8C81F8016E
:100F5000882359F08491882309F458C0803239F4E9
:100F6000F3E05F0E0F5F1F4FF1CF8081F4CFE82FCA
:100F7000EE0FFF0BED5FFD4F25913491822F8F71A6
:100F80008983C90145E0969587954A95E1F78F7168
:100F90008A83932F969596959F719B8323E0422E8B
:100FA000911106C044244394882311F092E0492E05
:100FB000CE0101963C01F12CE12C852C912CF30102
:100FC00081913F01322C5401AE0CBF1C8823B1F03B
:100FD000C82ED12C80FF0DC0F0E8AF16B10448F444
:100FE000632D70E06034710524F441E0C5010E9476
:100FF0008A023394D594C7948C2DE8CF8FEFE81AEA
:10100000F80AE414E0F25394540CACCF852D0F9001
:101010000F900F900F90DF91CF911F910F91FF9044
:10102000EF90DF90CF90BF90AF909F908F907F9088
:101030006F905F904F903F902F9008950F920FB652
:101040008F939F93EF93FF9380917F068D5F8D37F2
:1010500008F08D5780937F06E0E8F6E080818E4FA0
:10106000808391819F4F918382818F4F828383817F
:101070008F4F8383E4E8F6E080818F5F80838181F6
:101080008F4F818382818F4F828383818F4F8383B0
:101090008FB18F6066991C9B88278F3681F4809171
:1010A0007E06981B963068F0E0E0F8E087E78083E2
:1010B000818388E180936000F0936000FFCF90937C
:1010C0007E06FF91EF919F918F910FBE0F90189523
:1010D0000000000000000000000000000000000010
:1010E0000000000000000000000000000000000000
:1010F00000000000000000000000000000000000F0
:1011000000000000000000000000000000000000DF
:1011100000000000000000000000000000000000CF
:1011200000000000000000000000000000000000BF
:1011300000000000000000000000000000000000AF
:10114000000000000000000000000000000000009F
:10115000000000000000000000000000000000008F
:10116000000000000000000000000000000000007F
:10117000000000000000000000000000000000006F
:10118000000000000000000000000000000000005F
:10119000000000000000000000000000000000004F
:1011A000000000000000000000000000000000003F
:1011B000000000000000000000000000000000002F
:1011C000000000000000000000000000000000001F
:1011D000000000000000000000000000000000000F
:1011E00000000000000000000000000000000000FF
:1011F00000000000000000000000000000000000EF
:10120000C895C89500000EB42EBC640C721C821CDC
:10121000039CF001F50D099400000000000000009F
:1012200000000000000000000000000000000000BE
:1012300000000000000000000000000000000000AE
:10124000C895C89500000EB42EBC640C721C821C9C
:101250000E94721BCF3F19F485E00C94401C099248
:101260000EB42EBC640C721C821C039CF001F50DA4
:1012700009940000000000000000000000000000D1
:10128000CF3F19F485E00C94401C299200C00EB4A5
:101290002EBC640C721C821C039CF001F50D099499
:1012A000000000000000000000000000000000003E
:1012B000000000000000000000000000000000002E
:1012C000CF3F19F485E00C94401C01E00993000025
:1012D0000EB42EBC640C721C821C039CF001F50D34
:1012E0000994000000000000000000000000000061
:1012F00000000000000000000000000000000000EE
:10130000CF3F19F485E00C94401C02E009930000E3
:101310000EB42EBC640C721C821C039CF001F50DF3
:101320000994000000000000000000000000000020
:1013300000000000000000000000000000000000AD
:10134000CF3F19F485E00C94401C03E009930000A2
:101350000EB42EBC640C721C821C039CF001F50DB3
:1013600009940000000000000000000000000000E0
:10137000000000000000000000000000000000006D
:10138000CF3F19F485E00C94401C04E00993000061
:101390000EB42EBC640C721C821C039CF001F50D73
:1013A00009940000000000000000000000000000A0
:1013B000000000000000000000000000000000002D
:1013C000CF3F19F485E00C94401C05E00993000020
:1013D0000EB42EBC640C721C821C039CF001F50D33
:1013E0000994000000000000000000000000000060
:1013F00000000000000000000000000000000000ED
:10140000CF3F19F485E00C94401C06E009930000DE
:101410000EB42EBC640C721C821C039CF001F50DF2
:10142000099400000000000000000000000000001F
:1014300000000000000000000000000000000000AC
:10144000CF3F19F485E00C94401C07E0099300009D
:101450000EB42EBC640C721C821C039CF001F50DB2
:1014600009940000000000000000000000000000DF
:10147000000000000000000000000000000000006C
:10148000CF3F19F485E00C94401C08E0099300005C
:101490000EB42EBC640C721C821C039CF001F50D72
:1014A000099400000000000000000000000000009F
:1014B000000000000000000000000000000000002C
:1014C000CE3F18F085E00C94401C299229920EB46E
:1014D0002EBC640C721C821C039CF001F50D099457
:1014E00000000000000000000000000000000000FC
:1014F00000000000000000000000000000000000EC
:10150000C895C89500000EB42EBC09920E946C1BB1
:101510000EB42EBC099202E0600E721C821C0E9466
:10152000701B0EB42EBC640C721C821C039CF00158
:10153000F50D09940000000000000000000000000C
:10154000C895C89500000EB42EBC09920E946C1B71
:101550000EB42EBC09920E946C1B0EB42EBC0992D4
:1015600003E0600E721C821C0E94701B0EB42EBC25
:10157000640C721C821C039CF001F50D09940000A0
:10158000CF3F19F485E00C94401C0A90C3950FEFEF
:1015900007FE00E009930EB42EBC640C721C821C82
:1015A000039CF001F50D099400000000000000000C
:1015B000000000000000000000000000000000002B
:1015C000CF3F61F00A90099209920EB42EBC640CD0
:1015D000721C821C039CF001F50D099485E00C94AB
:1015E000401C00000000000000000000000000009F
:1015F00000000000000000000000000000000000EB
:10160000CF3F69F0DE01A2500C9009920EB42EBCBF
:10161000640C721C821C039CF001F50D099485E09A
:101620000C94401C000000000000000000000000BE
:1016300000000000000000000000000000000000AA
:10164000CF3F69F0DE01A3500C9009920EB42EBC7E
:10165000640C721C821C039CF001F50D099485E05A
:101660000C94401C0000000000000000000000007E
:10167000000000000000000000000000000000006A
:10168000CF3F69F0DE01A4500C9009920EB42EBC3D
:10169000640C721C821C039CF001F50D099485E01A
:1016A0000C94401C0000000000000000000000003E
:1016B000000000000000000000000000000000002A
:1016C000CF3F69F0DE01A5500C9009920EB42EBCFC
:1016D000640C721C821C039CF001F50D099485E0DA
:1016E0000C94401C000000000000000000000000FE
:1016F00000000000000000000000000000000000EA
:10170000CF3F69F0DE01A6500C9009920EB42EBCBA
:10171000640C721C821C039CF001F50D099485E099
:101720000C94401C000000000000000000000000BD
:1017300000000000000000000000000000000000A9
:10174000CF3F69F0DE01A7500C9009920EB42EBC79
:10175000640C721C821C039CF001F50D099485E059
:101760000C94401C0000000000000000000000007D
:101770000000000000000000000000000000000069
:10178000CF3F69F0DE01A8500C9009920EB42EBC38
:10179000640C721C821C039CF001F50D099485E019
:1017A0000C94401C0000000000000000000000003D
:1017B0000000000000000000000000000000000029
:1017C000CE3F78F4DE01A2500D9009920D9009925F
:1017D0000EB42EBC640C721C821C039CF001F50D2F
:1017E000099485E00C94401C0000000000000000FB
:1017F00000000000000000000000000000000000E9
:10180000CE3F78F4DE01A3500D9009920D9009921D
:101810000EB42EBC640C721C821C039CF001F50DEE
:10182000099485E00C94401C0000000000000000BA
:1018300000000000000000000000000000000000A8
:10184000CE3F78F4DE01A4500D9009920D900992DC
:101850000EB42EBC640C721C821C039CF001F50DAE
:10186000099485E00C94401C00000000000000007A
:101870000000000000000000000000000000000068
:10188000CE3F78F4DE01A5500D9009920D9009929B
:101890000EB42EBC640C721C821C039CF001F50D6E
:1018A000099485E00C94401C00000000000000003A
:1018B0000000000000000000000000000000000028
:1018C000CE3F78F4DE01A6500D9009920D9009925A
:1018D0000EB42EBC640C721C821C039CF001F50D2E
:1018E000099485E00C94401C0000000000000000FA
:1018F00000000000000000000000000000000000E8
:10190000CE3F78F4DE01A7500D9009920D90099218
:101910000EB42EBC640C721C821C039CF001F50DED
:10192000099485E00C94401C0000000000000000B9
:1019300000000000000000000000000000000000A7
:10194000CE3F78F4DE01A8500D9009920D900992D7
:101950000EB42EBC640C721C821C039CF001F50DAD
:10196000099485E00C94401C000000000000000079
:101970000000000000000000000000000000000067
:10198000CE3F78F4DE01A9500D9009920D90099296
:101990000EB42EBC640C721C821C039CF001F50D6D
:1019A000099485E00C94401C000000000000000039
:1019B0000000000000000000000000000000000027
:1019C000CF3F19F485E00C94401CC895DE010EB49D
:1019D0002EBC640C721C821CA0190C900992C89534
:1019E000C89500000EB42EBC640C721C821C039CB3
:1019F000F001F50D09940000000000000000000057
:101A0000CE3F18F085E00C94401CC895DE010EB462
:101A10002EBC640C721C821CA0190D901C900992A3
:101A20001992C8950EB42EBC640C721C821C039CC7
:101A3000F001F50D09940000000000000000000016
:101A40000A91102F1C0F18F485E00C94401C0A9585
:101A50000EB42EBC640C721C821CDE01A0190D9009
:101A600009920D9009920A95E1F70EB42EBC640C10
:101A7000721C821C039CF001F50D0994000000000B
:101A8000C895C89500000EB42EBC640C721C821C54
:101A90000A91DE01A0190C93C895C89500000EB4F8
:101AA0002EBC640C721C821C039CF001F50D099481
:101AB0000000000000000000000000000000000026
:101AC0000A910A9500C000C00EB42EBC640C721CB2
:101AD000821CDE01A0190A900E920A900E920A95BD
:101AE000E1F70EB42EBC640C721C821C039CF00146
:101AF000F50D099400000000000000000000000047
:101B0000CF3F19F485E00C94401C0E94431BD80180
:101B1000BE5F0C9109930E946F1B0EB42EBC640C27
:101B2000721C821C039CF001F50D0994000000005A
:101B300000000000000000000000000000000000A5
:101B40002A91322F3C0F18F485E00C94401C0E941F
:101B5000431BD801BE5F0D9009922A95E1F70EB4A0
:101B60002EBC640C721C821C039CF001F50D0994C0
:101B70000000000000000000000000000000000065
:101B80000E94421BD801BE5F0A910C930E946F1BFA
:101B90000EB42EBC640C721C821C039CF001F50D6B
:101BA0000994000000000000000000000000000098
:101BB0000000000000000000000000000000000025
:101BC0000E94421BD801BE5F0A91A00FB21D0A906D
:101BD0000E920A95E1F70EB42EBC640C721C821CA6
:101BE000039CF001F50D09940000000000000000C6
:101BF00000000000000000000000000000000000E5
:101C00002A911A910A910E94201C0E946E1B0EB408
:101C100009920C94E01B000000000000000000008E
:101C200000000000000000000000000000000000B4
:101C300000000000000000000000000000000000A4
:101C40002A911A910A9100001EB40E94201C640C73
:101C5000721C821C0E946F1B0EB42EBC09921A9437
:101C6000C9F70E94711B0C94E01B000000000000EB
:101C70000000000000000000000000000000000064
:101C8000BA91AA911D9019920EB42EBC640C721CCC
:101C9000821C039CF001F50D099400000000000077
:101CA0000000000000000000000000000000000034
:101CB0000000000000000000000000000000000024
:101CC000BA91AA911D9019921D9019920EB42EBC32
:101CD000640C721C821C039CF001F50D0994000039
:101CE00000000000000000000000000000000000F4
:101CF00000000000000000000000000000000000E4
:101D0000BA91AA912C2F00C00EB42EBC640C721C88
:101D1000821C200D18F485E00C94401C1D90199233
:101D20000A94E1F70EB42EBC640C721C821C039C56
:101D3000F001F50D09940000000000000000000013
:101D4000BA91AA911A901C920EB42EBC640C721C0B
:101D5000821C039CF001F50D0994000000000000B6
:101D60000000000000000000000000000000000073
:101D70000000000000000000000000000000000063
:101D8000BA91AA911A900A900D921C920EB42EBC90
:101D9000640C721C821C039CF001F50D0994000078
:101DA0000000000000000000000000000000000033
:101DB0000000000000000000000000000000000023
:101DC000BA91AA91C8950EB42EBC640C721C821CE8
:101DD000A00DB21D1A901E920A94E1F70EB42EBC0B
:101DE000640C721C821C039CF001F50D0994000028
:101DF00000000000000000000000000000000000E3
:101E0000CA95C895C8950EB42EBC640C721C821C71
:101E1000039CF001F50D0994000000000000000093
:101E200000000000000000000000000000000000B2
:101E300000000000000000000000000000000000A2
:101E4000C250C895C8950EB42EBC640C721C821C7E
:101E5000039CF001F50D0994000000000000000053
:101E60000000000000000000000000000000000072
:101E70000000000000000000000000000000000062
:101E8000C350C895C8950EB42EBC640C721C821C3D
:101E9000039CF001F50D0994000000000000000013
:101EA0000000000000000000000000000000000032
:101EB0000000000000000000000000000000000022
:101EC000C450C895C8950EB42EBC640C721C821CFC
:101ED000039CF001F50D09940000000000000000D3
:101EE00000000000000000000000000000000000F2
:101EF00000000000000000000000000000000000E2
:101F00004A9100000E94431B411718F082E00C9494
:101F1000401C049FB0015A914A91640F751F699348
:101F200079930EB42EBC640C721C821C039CF001CD
:101F3000F50D099400000000000000000000000002
:101F40005A914A910E94101B4217530718F082E0E1
:101F50000C94401C049FB001059F700D149F700DE0
:101F60005A914A91640F751F699379930EB42EBCF0
:101F7000640C721C821C039CF001F50D0994000096
:101F8000AA90FA90EA9000000E94431BDA90A116F2
:101F900018F082E00C94401CA09ED00CE11CF21CB6
:101FA000D992E992F9920EB42EBC640C721C821C78
:101FB000039CF001F50D09940000000000000000F2
:101FC0000C94731B000000000000000000000000E3
:101FD0000000000000000000000000000000000001
:101FE00000000000000000000000000000000000F1
:101FF00000000000000000000000000000000000E1
:102000005A914A910E94431B3A912A9142175307D1
:1020100018F082E00C94401C049FB001059F700DE5
:10202000149F700D5A914A91640F751F69937993AB
:102030000C94371C000000000000000000000000AD
:102040000C94A01B00000000000000000000000035
:102050000000000000000000000000000000000080
:102060000000000000000000000000000000000070
:102070000000000000000000000000000000000060
:10208000CE3F18F085E00C94401C00C000C00EB498
:102090002EBC640C721C821C8E01001909931993CA
:1020A000C895C89500000EB42EBC640C721C821C2E
:1020B000039CF001F50D09940000000000000000F1
:1020C000CE3F18F085E00C94401C0E94431B1E5F1D
:1020D00009931993C895C89500000EB42EBC640CE2
:1020E000721C821C039CF001F50D09940000000095
:1020F00000000000000000000000000000000000E0
:10210000CE3F18F085E00C94401C00C000C00EB417
:102110002EBC640C721C821C12E009921993C895A3
:10212000C89500C00EB42EBC640C721C821C039CAB
:10213000F001F50D0994000000000000000000000F
:102140000A900394099200C00EB42EBC640C721C59
:10215000821C039CF001F50D0994000000000000B2
:10216000000000000000000000000000000000006F
:10217000000000000000000000000000000000005F
:10218000C895C895DE010EB42EBC640C721C821C6E
:10219000A0190C9003940C920E94701B0EB42EBCDC
:1021A000640C721C821C039CF001F50D0994000064
:1021B000000000000000000000000000000000001F
:1021C000AA90EA90EA0CE9920EB42EBC640C721C40
:1021D000821C039CF001F50D099400000000000032
:1021E00000000000000000000000000000000000EF
:1021F00000000000000000000000000000000000DF
:10220000BA90AA90FA90EA90EA0CFB1CE992F99233
:102210000EB42EBC640C721C821C039CF001F50DE4
:102220000994000000000000000000000000000011
:10223000000000000000000000000000000000009E
:10224000CA90BA90AA900A91FA90EA90EA0CFB1C04
:102250000C1DE992F99209930EB42EBC640C721C09
:10226000821C039CF001F50D0994000000000000A1
:10227000000000000000000000000000000000005E
:10228000DA90CA90BA90AA901A910A91FA90EA90BC
:10229000EA0CFB1C0C1D1D1DE992F9920993199380
:1022A0000EB42EBC640C721C821C039CF001F50D54
:1022B0000994000000000000000000000000000081
:1022C000AA90EA90EA18E9920EB42EBC640C721C33
:1022D000821C039CF001F50D099400000000000031
:1022E00000000000000000000000000000000000EE
:1022F00000000000000000000000000000000000DE
:10230000BA90AA90FA90EA90EA18FB08E992F9923A
:102310000EB42EBC640C721C821C039CF001F50DE3
:102320000994000000000000000000000000000010
:10233000000000000000000000000000000000009D
:10234000CA90BA90AA900A91FA90EA90EA18FB080B
:102350000C09E992F99209930EB42EBC640C721C1C
:10236000821C039CF001F50D0994000000000000A0
:10237000000000000000000000000000000000005D
:10238000DA90CA90BA90AA901A910A91FA90EA90BB
:10239000EA18FB080C091D09E992F99209931993AF
:1023A0000EB42EBC640C721C821C039CF001F50D53
:1023B0000994000000000000000000000000000080
:1023C000AA90EA90EA9C09920EB42EBC640C721C8E
:1023D000821C039CF001F50D099400000000000030
:1023E00000000000000000000000000000000000ED
:1023F00000000000000000000000000000000000DD
:10240000BA90AA90FA90EA90EA9C9001EB9C300D69
:10241000FA9C300D299339930EB42EBC640C721CB7
:10242000821C039CF001F50D0994000000000000DF
:10243000000000000000000000000000000000009C
:10244000CA90BA90AA900A91FA90EA90EA9C9001F8
:102450000A9D402DFA9C300D411DEB9C300D411D15
:10246000FB9C400DEC9C400D2993399349930EB48D
:102470002EBC640C721C821C039CF001F50D0994A7
:102480000C94E01A000000000000000000000000B2
:10249000000000000000000000000000000000003C
:1024A000000000000000000000000000000000002C
:1024B000000000000000000000000000000000001C
:1024C0007A916A919A918A916215720519F483E062
:1024D0000C94401C0E940124699379930EB42EBC85
:1024E000640C721C821C039CF001F50D0994000021
:1024F00000000000000000000000000000000000DC
:102500005A914A913A912A919A918A917A916A9133
:10251000221532054205520519F483E00C94401C43
:102520008E010E94DF23E80129933993499359933F
:102530000C94371C000000000000000000000000A8
:102540007A916A919A918A916215720519F483E0E1
:102550000C94401C0E941524699379930EB42EBCF0
:10256000640C721C821C039CF001F50D09940000A0
:10257000000000000000000000000000000000005B
:102580005A914A913A912A919A918A917A916A91B3
:10259000221532054205520519F483E00C94401CC3
:1025A0008E010E94C023E8012993399349935993DE
:1025B0000C94371C00000000000000000000000028
:1025C0007A916A919A918A916215720519F483E061
:1025D0000C94401C0E940124899399930EB42EBC44
:1025E000640C721C821C039CF001F50D0994000020
:1025F00000000000000000000000000000000000DB
:102600005A914A913A912A919A918A917A916A9132
:10261000221532054205520519F483E00C94401C42
:102620008E010E94DF23E80169937993899399933E
:102630000C94371C000000000000000000000000A7
:102640007A916A919A918A916215720519F483E0E0
:102650000C94401C0E941524899399930EB42EBCAF
:10266000640C721C821C039CF001F50D099400009F
:10267000000000000000000000000000000000005A
:102680005A914A913A912A919A918A917A916A91B2
:10269000221532054205520519F483E00C94401CC2
:1026A0008E010E94C023E8016993799389939993DD
:1026B0000C94371C00000000000000000000000027
:1026C0004A910A91477001C0000F4A95EAF70EB48B
:1026D0002EBC640C721C821C039CF001F50D099445
:1026E00000000000000000000000000000000000EA
:1026F00000000000000000000000000000000000DA
:102700004A911A910A914F7002C0110F001F4A9509
:10271000E2F70EB42EBC640C721C821C039CF00108
:10272000F50D09940000000000000000000000000A
:102730000000000000000000000000000000000099
:102740004A912A911A910A914F7103C0220F111FC9
:10275000001F4A95DAF70EB42EBC640C721C821C62
:10276000039CF001F50D099400000000000000003A
:102770000000000000000000000000000000000059
:102780004A913A912A911A910A914F7104C0330FDC
:10279000221F111F001F4A95D2F70EB42EBC640CE5
:1027A000721C821C039CF001F50D099400000000CE
:1027B0000000000000000000000000000000000019
:1027C0004A910A91477001C006954A95EAF70EB4FE
:1027D0002EBC640C721C821C039CF001F50D099444
:1027E00000000000000000000000000000000000E9
:1027F00000000000000000000000000000000000D9
:102800004A911A910A914F7002C0169507954A9500
:10281000E2F70EB42EBC640C721C821C039CF00107
:10282000F50D099400000000000000000000000009
:102830000000000000000000000000000000000098
:102840004A912A911A910A914F7103C026951795C2
:1028500007954A95DAF70EB42EBC640C721C821CE4
:10286000039CF001F50D0994000000000000000039
:102870000000000000000000000000000000000058
:102880004A913A912A911A910A914F7104C0369552
:102890002795179507954A95D2F70EB42EBC640C70
:1028A000721C821C039CF001F50D099400000000CD
:1028B0000000000000000000000000000000000018
:1028C0004A910A91477001C005954A95EAF70EB4FE
:1028D0002EBC640C721C821C039CF001F50D099443
:1028E00000000000000000000000000000000000E8
:1028F00000000000000000000000000000000000D8
:102900004A911A910A914F7002C0159507954A9500
:10291000E2F70EB42EBC640C721C821C039CF00106
:10292000F50D099400000000000000000000000008
:102930000000000000000000000000000000000097
:102940004A912A911A910A914F7103C025951795C2
:1029500007954A95DAF70EB42EBC640C721C821CE3
:10296000039CF001F50D0994000000000000000038
:102970000000000000000000000000000000000057
:102980004A913A912A911A910A914F7104C0359552
:102990002795179507954A95D2F70EB42EBC640C6F
:1029A000721C821C039CF001F50D099400000000CC
:1029B0000000000000000000000000000000000017
:1029C000AA90EA90EA20E9920EB42EBC640C721C24
:1029D000821C039CF001F50D09940000000000002A
:1029E00000000000000000000000000000000000E7
:1029F00000000000000000000000000000000000D7
:102A0000BA90AA90FA90EA90EA20FB20E992F99213
:102A10000EB42EBC640C721C821C039CF001F50DDC
:102A20000994000000000000000000000000000009
:102A30000000000000000000000000000000000096
:102A4000CA90BA90AA900A91FA90EA90EA20FB20E4
:102A50000C21E992F99209930EB42EBC640C721CFD
:102A6000821C039CF001F50D099400000000000099
:102A70000000000000000000000000000000000056
:102A8000DA90CA90BA90AA901A910A91FA90EA90B4
:102A9000EA20FB200C211D21E992F9920993199358
:102AA0000EB42EBC640C721C821C039CF001F50D4C
:102AB0000994000000000000000000000000000079
:102AC000AA90EA90EA28E9920EB42EBC640C721C1B
:102AD000821C039CF001F50D099400000000000029
:102AE00000000000000000000000000000000000E6
:102AF00000000000000000000000000000000000D6
:102B0000BA90AA90FA90EA90EA28FB28E992F99202
:102B10000EB42EBC640C721C821C039CF001F50DDB
:102B20000994000000000000000000000000000008
:102B30000000000000000000000000000000000095
:102B4000CA90BA90AA900A91FA90EA90EA28FB28D3
:102B50000C29E992F99209930EB42EBC640C721CF4
:102B6000821C039CF001F50D099400000000000098
:102B70000000000000000000000000000000000055
:102B8000DA90CA90BA90AA901A910A91FA90EA90B3
:102B9000EA28FB280C291D29E992F9920993199337
:102BA0000EB42EBC640C721C821C039CF001F50D4B
:102BB0000994000000000000000000000000000078
:102BC000AA90EA90EA24E9920EB42EBC640C721C1E
:102BD000821C039CF001F50D099400000000000028
:102BE00000000000000000000000000000000000E5
:102BF00000000000000000000000000000000000D5
:102C0000BA90AA90FA90EA90EA24FB24E992F99209
:102C10000EB42EBC640C721C821C039CF001F50DDA
:102C20000994000000000000000000000000000007
:102C30000000000000000000000000000000000094
:102C4000CA90BA90AA900A91FA90EA90EA24FB24DA
:102C50000C25E992F99209930EB42EBC640C721CF7
:102C6000821C039CF001F50D099400000000000097
:102C70000000000000000000000000000000000054
:102C8000DA90CA90BA90AA901A910A91FA90EA90B2
:102C9000EA24FB240C251D25E992F9920993199346
:102CA0000EB42EBC640C721C821C039CF001F50D4A
:102CB0000994000000000000000000000000000077
:102CC000AA90A094A99200C00EB42EBC640C721CF1
:102CD000821C039CF001F50D099400000000000027
:102CE00000000000000000000000000000000000E4
:102CF00000000000000000000000000000000000D4
:102D0000BA90AA90A094B094A992B9920EB42EBC95
:102D1000640C721C821C039CF001F50D09940000E8
:102D200000000000000000000000000000000000A3
:102D30000000000000000000000000000000000093
:102D4000CA90BA90AA90A094B094C094A992B99253
:102D5000C9920EB42EBC640C721C821C039CF00140
:102D6000F50D0994000000000000000000000000C4
:102D70000000000000000000000000000000000053
:102D8000DA90CA90BA90AA90A094B094C094D094CB
:102D9000A992B992C992D9920EB42EBC640C721C3D
:102DA000821C039CF001F50D099400000000000056
:102DB0000000000000000000000000000000000013
:102DC0000A9000E0021001E009930EB42EBC640CDE
:102DD000721C821C039CF001F50D09940000000098
:102DE00000000000000000000000000000000000E3
:102DF00000000000000000000000000000000000D3
:102E00000A901A90012800E0021001E009930EB424
:102E10002EBC640C721C821C039CF001F50D0994FD
:102E200000000000000000000000000000000000A2
:102E30000000000000000000000000000000000092
:102E40000A901A9001281A90012800E0021001E06F
:102E500009930EB42EBC640C721C821C039CF001FE
:102E6000F50D0994000000000000000000000000C3
:102E70000000000000000000000000000000000052
:102E80000A901A9001281A9001281A90012800E04F
:102E9000021001E009930EB42EBC640C721C821C5B
:102EA000039CF001F50D09940000000000000000F3
:102EB0000000000000000000000000000000000012
:102EC000AA90EA9021E0EA1408F020E029930EB4D9
:102ED0002EBC640C721C821C039CF001F50D09943D
:102EE00000000000000000000000000000000000E2
:102EF00000000000000000000000000000000000D2
:102F0000BA90AA90FA90EA9021E0EA14FB0408F043
:102F100020E029930EB42EBC640C721C821C039C0E
:102F2000F001F50D09940000000000000000000011
:102F30000000000000000000000000000000000091
:102F4000CA90BA90AA900A91FA90EA9021E0EA1405
:102F5000FB040C0508F020E029930EB42EBC640C91
:102F6000721C821C039CF001F50D09940000000006
:102F70000000000000000000000000000000000051
:102F8000DA90CA90BA90AA901A910A91FA90EA90AF
:102F900021E0EA14FB040C051D0508F020E029934C
:102FA0000EB42EBC640C721C821C039CF001F50D47
:102FB0000994000000000000000000000000000074
:102FC000AA90EA9021E0EA140CF020E029930EB4D4
:102FD0002EBC640C721C821C039CF001F50D09943C
:102FE00000000000000000000000000000000000E1
:102FF00000000000000000000000000000000000D1
:10300000BA90AA90FA90EA9021E0EA14FB040CF03E
:1030100020E029930EB42EBC640C721C821C039C0D
:10302000F001F50D09940000000000000000000010
:103030000000000000000000000000000000000090
:10304000CA90BA90AA900A91FA90EA9021E0EA1404
:10305000FB040C050CF020E029930EB42EBC640C8C
:10306000721C821C039CF001F50D09940000000005
:103070000000000000000000000000000000000050
:10308000DA90CA90BA90AA901A910A91FA90EA90AE
:1030900021E0EA14FB040C051D050CF020E0299347
:1030A0000EB42EBC640C721C821C039CF001F50D46
:1030B0000994000000000000000000000000000073
:1030C000AA90EA9021E0AE1408F420E029930EB40F
:1030D0002EBC640C721C821C039CF001F50D09943B
:1030E00000000000000000000000000000000000E0
:1030F00000000000000000000000000000000000D0
:10310000BA90AA90FA90EA9021E0AE14BF0408F4B5
:1031100020E029930EB42EBC640C721C821C039C0C
:10312000F001F50D0994000000000000000000000F
:10313000000000000000000000000000000000008F
:10314000CA90BA90AA900A91FA90EA9021E0AE143F
:10315000BF04C00608F420E029930EB42EBC640C12
:10316000721C821C039CF001F50D09940000000004
:10317000000000000000000000000000000000004F
:10318000DA90CA90BA90AA901A910A91FA90EA90AD
:1031900021E0AE14BF04C006D10608F420E0299354
:1031A0000EB42EBC640C721C821C039CF001F50D45
:1031B0000994000000000000000000000000000072
:1031C000AA90EA9021E0AE140CF420E029930EB40A
:1031D0002EBC640C721C821C039CF001F50D09943A
:1031E00000000000000000000000000000000000DF
:1031F00000000000000000000000000000000000CF
:10320000BA90AA90FA90EA9021E0AE14BF040CF4B0
:1032100020E029930EB42EBC640C721C821C039C0B
:10322000F001F50D0994000000000000000000000E
:10323000000000000000000000000000000000008E
:10324000CA90BA90AA900A91FA90EA9021E0AE143E
:10325000BF04C0060CF420E029930EB42EBC640C0D
:10326000721C821C039CF001F50D09940000000003
:10327000000000000000000000000000000000004E
:10328000DA90CA90BA90AA901A910A91FA90EA90AC
:1032900021E0AE14BF04C006D1060CF420E029934F
:1032A0000EB42EBC640C721C821C039CF001F50D44
:1032B0000994000000000000000000000000000071
:1032C0000A9001E0021000E009930EB42EBC640CD9
:1032D000721C821C039CF001F50D09940000000093
:1032E00000000000000000000000000000000000DE
:1032F00000000000000000000000000000000000CE
:103300000A9000000E94341B021421F43801822E1E
:103310000C94E01B2EBC0E94691B0EB42EBC640CE6
:10332000721C821C039CF001F50D09940000000042
:10333000000000000000000000000000000000008D
:103340000A91640C721C721C00C00EB4021541F488
:10335000102C110C1108600C711C811C0C94E01BCA
:103360002EBC0E946C1B0C94371C00000000000057
:10337000000000000000000000000000000000004D
:103380000A9000000E94341B021421F03801822EA2
:103390000C94E01B2EBC0E94691B0EB42EBC640C66
:1033A000721C821C039CF001F50D099400000000C2
:1033B000000000000000000000000000000000000D
:1033C0000A91640C721C721C00C00EB4021541F00C
:1033D000102C110C1108600C711C811C0C94E01B4A
:1033E0002EBC0E946C1B0C94371C000000000000D7
:1033F00000000000000000000000000000000000CD
:103400000E94331B3801822E0C94E01B0000000048
:1034100000000000000000000000000000000000AC
:10342000000000000000000000000000000000009C
:10343000000000000000000000000000000000008C
:10344000C895C89500000EB40394102C110C1108F7
:10345000600C711C811C0C94E01B0000000000003B
:10346000000000000000000000000000000000005C
:10347000000000000000000000000000000000004C
:10348000A0916406AD3518F086E00C94401CB6E0BF
:103490000E94341B6D927D928D92A0936406380138
:1034A000822E0C94E01B00000000000000000000D1
:1034B000000000000000000000000000000000000C
:1034C000A0916406AD3518F086E00C94401CB6E07F
:1034D000640C721C821C6D927D928D92A093640686
:1034E0000EB4102C110C1108600C711C811C68C1E9
:1034F00000000000000000000000000000000000CC
:10350000A0916406B6E08E907E906E90A0936406C3
:1035100057C1000000000000000000000000000093
:10352000000000000000000000000000000000009B
:10353000000000000000000000000000000000008B
:10354000F2E000C00E94431BE02FF10F0590F491C0
:10355000E02DA4D00995ACD00EB42EBC640C721C26
:10356000821C039CF001F50D09940000000000008E
:10357000000000000000000000000000000000004B
:10358000F2E0640C721C821CC895EEB52EBC05904E
:10359000F491E02D83D009958BD00EB42EBC640C31
:1035A000721C821C039CF001F50D099400000000C0
:1035B000000000000000000000000000000000000B
:1035C000DA90CA90BA90AA901A910A91FA90EA9069
:1035D000EA9C90010A9DA001FA9C300D411D521DEC
:1035E000EB9C300D411D521DFB9C400D511DEC9C70
:1035F000400D511D1A9D500D0B9D500DFC9C500D02
:10360000ED9C500D29933993499359930EB42EBCD8
:10361000640C721C821C039CF001F50D0994C89582
:103620000EB52EBC14E0610E721C821C0E946E1B33
:103630001EB52EBC0E946A1B2EB52EBC0E946A1BB2
:103640003EB52EBC0895C8950EB52EBC13E0610E94
:10365000721C821C0E946E1B1EB52EBC0E946A1B2F
:103660002EB52EBC0895C8950EB52EBC13E0610E84
:10367000721C821C0E946E1B1EB52EBC0E946A1B0F
:103680002EB50895C8950EB52EBC12E0610E721CC1
:10369000821C0E946E1B1EB52EBC089560926106AE
:1036A0007092620680926306C093600611240895AA
:1036B000222400E2302E01E0402E09E0502E6090DE
:1036C00061067090620680906306C0916006D1E04A
:1036D000089500000000000000000000000000004D
:1036E0000000000008950E94431BA801CA90BA90F0
:1036F000AA90FA90EA90DA900E94241BA016B106D4
:10370000C20610F082E0BCC0A49ED00CE11CF21CEA
:10371000A59EE00CF11CB49EE00CF11CB59EF00CD3
:10372000C49EF00CD992E992F9920EB42EBC640CAE
:10373000721C821C039CF001F50D0994000000002E
:103740000E94431BA801CA90BA90AA902A911A918C
:103750000A91FA90EA90DA90A016B106C20610F02B
:1037600082E08EC0A49ED00CE11CF21CA59EE00C51
:10377000F11CB49EE00CF11CB59EF00CC49EF00C44
:10378000D992E992F9920EB42EBC640C721C821C80
:10379000039CF001F50D09940000000000000000FA
:1037A0000000000000000000000000000000000019
:1037B0000000000000000000000000000000000009
:1037C000599A23E059982EBD0091880610918906D8
:1037D000070D181D0E946F1B1EBD0E94691B0EBDA8
:1037E0000E94691B6EBC0E94691B2EBC0E94691B53
:1037F0000EB42EBC640C721C821C039CF001F50DEF
:10380000099400000000000000000000000000001B
:1038100000000000000000000000000000000000A8
:103820000000000000000000000000000000000098
:103830000000000000000000000000000000000088
:10384000599A33E059983EBDA0908806B0908906F9
:10385000A10EB21E0E946F1BBEBC0E94691BAEBCB3
:103860000E94691B0EBD0E94691B2EBC08950EB4F8
:103870002EBC640C721C821C039CF001F50D099493
:103880000DDF0E94451C0C940000CF93DF93CDB751
:10389000DEB7A0970FB6F894DEBF0FBECDBF182FCE
:1038A0008093650690E0EAE8F6E091119FEF8FEFD4
:1038B00091939193919391938150D0F7599A41E2CA
:1038C00050E062ED71E08AE896E00E94B723EAE0FA
:1038D000F7E080E09CE091938F5F8038E1F7212F43
:1038E0002150330BF901EE0FFF1FE054FE4FE5901E
:1038F000F49021E0A70160E480E00E948C0721E0C1
:10390000A70160E180E00E948C07123008F4B9C082
:103910002090610630906206409063066CE070E093
:1039200080E00E946A020E944E02B82E0E944E025F
:10393000182F0E944E02082F0E944E02682E712CF2
:10394000812C862C77246624702A612A0E944E02DC
:10395000182F0E944E02082F0E943C0290E0A0E027
:1039600077276627702B612B0E946A02C12CD12C0D
:10397000E12C10E000E0F12CC214D304E404A0F523
:103980000E944E0287FD08C090E00196C80ED91E25
:10399000E11C97FDEA94F0CF8D3F28F40F571109F1
:1039A000080F111DE9CF8D3F21F40E944E02F82E21
:1039B000E3CF8E3F41F40E944E02082F10E00E9498
:1039C0004E02182BD9CF0E944E02C82ED12CE12CCA
:1039D0000E944E0290E0982F8827A0E0C82AD92A9A
:1039E000EA2A0E944E02C8CF0E943C02FB1408F053
:1039F00048C030E2F39EC0011124482D9301280FE6
:103A0000391F411D97FD4A95842FB9010E946A0212
:103A100060E270E0CE0101967C010E94420221E04A
:103A20004AEB51E060E280E00E948C0720E0A701B1
:103A300060E284E10E948C0721E044EB51E068E2FF
:103A400080E00E948C07FE0136962AE030E0C80133
:103A5000B9010E940124805D82938B01EE15FF0560
:103A6000B1F71E8280E0A701480F511DFA01908135
:103A7000903311F48F5FF7CF20E068E284E10E9479
:103A80008C075E9880E00E9400025E9A0E94850288
:103A9000FDCF2091600630E02E5F3F4F2F3F310574
:103AA00021F018F085E00E94451CE0916006F1E0ED
:103AB00081939193E09360060895E0916006F1E0B0
:103AC00082919291292F382F82919291492F582FCC
:103AD000E093600690E080E0FC01E40FF51F608158
:103AE000662321F0019682179307B1F70C94491DC4
:103AF0002F923F924F926F927F928F92CF92DF924E
:103B0000EF920F931F93CF93DF9300D000D01F92BB
:103B1000CDB7DEB7E0916006F1E0829192912291FB
:103B2000C22ED92E482F96012F5F3F4F4F4F29832A
:103B30003A834B83829192912291622E792E882E24
:103B4000829192912291C22ED92EE82EE0936006A6
:103B50000E943C026C0C7D1C8E1C10E000E01D825B
:103B60001C82C614D704E80481F116014E2C3FEFE5
:103B7000231A330A430A8E2DB6010E946A020E945C
:103B80003C02882311F18A3061F48C819D81801779
:103B9000910710F41D830C8310E000E0E42C610118
:103BA000E0CF90E0880F991F29813A814B81280F3F
:103BB000391F411D97FD4A95842FB9010E946A0261
:103BC0000E943C02080F111DE9CF8C819D81801756
:103BD000910708F4C8010E94491D60916106709127
:103BE0006206809163060F900F900F900F900F90D8
:103BF000DF91CF911F910F91EF90DF90CF908F9039
:103C00007F906F904F903F902F900C946A028F920C
:103C10009F92AF92BF92CF92DF92EF920F931F933A
:103C2000CF93DF93E0916006F1E08291929122912F
:103C3000C22ED92EE82E2FEFC21AD20AE20A8291A2
:103C40009291C92FD82FB290A290E09360060E9463
:103C50003C028501B12CA12C912C812CF801819181
:103C60008F01882361F0209751F021978A3009F560
:103C70008A149B0408F44501B12CA12CEFCFC40198
:103C80008A149B0408F4C5010E94491D60916106D5
:103C90007091620680916306DF91CF911F910F9121
:103CA000EF90DF90CF90BF90AF909F908F900C944B
:103CB0006A0290E0880F991F4E2D9601280F391F38
:103CC000411D97FD4A95842FB9010E946A020E9406
:103CD0003C02A80EB11CC2CF909160069F3F19F420
:103CE00085E00E94451CE0916006F1E08193E0933D
:103CF00060060895AF92BF92CF92DF92EF92FF924B
:103D00000F931F93CF93DF93E0916006F1E08291D0
:103D10009291C92FD82F1291029182919291229162
:103D2000C22ED92EE82EB290A290F290E0936006B7
:103D30000E943C026F2D7A2D8B2D0E946A02580141
:103D4000F50111915F010E944E0290E0209711F061
:103D5000912F2197C114D104E10431F121E0C21A5D
:103D6000D108E108882311F0981751F32FEF981725
:103D700024F021E089170CF020E0822F0E946C1EB5
:103D80000E943C0260916106709162068091630618
:103D9000DF91CF911F910F91FF90EF90DF90CF9027
:103DA000BF90AF900C946A0280E0E0CFCF93DF9396
:103DB000E0916006F1E082919291292F382F429193
:103DC000529182919291A92FB82F62917291E093B2
:103DD0006006852F942F472F562FEC016991CE0155
:103DE000EA01E991AE017E2F21153105A1F02150A4
:103DF0003109109791F01197EE2311F06E1769F3C6
:103E00008FEF671724F081E076170CF080E0DF91E8
:103E1000CF910C946C1E60E0ECCF70E0F1CFCF93AB
:103E2000E0916006F1E0C291E09360060E947D029D
:103E3000C82381E009F080E0CF910C946C1ECF93F1
:103E4000E0916006F1E0C291E09360060E947D027D
:103E5000C82381E009F480E0CF910C946C1ECF93CD
:103E6000E0916006F1E0C291E09360060E947D025D
:103E70009C2F982381E09C1380E0CF910C946C1EC2
:103E8000E0916006F1E08291E09360069091770600
:103E9000982329F090917606982381E009F080E03C
:103EA0000C946C1EE0916006F1E08291E093600654
:103EB00090917706982329F490917606982381E0D3
:103EC00009F480E00C946C1ECF93C0917406CC234F
:103ED00039F010927406C0E08C2FCF910C946C1EB8
:103EE0009091800680917506292F281B822F2091A2
:103EF0006606821730F48F5F821770F70E94850282
:103F0000EBCF81E08093740690937506E2E7F6E0CC
:103F100080819181019680839183C1E0DDCF6F9292
:103F20007F928F92CF92DF92EF92E0916006F1E064
:103F3000829192912291622E792E882EE290D290D7
:103F4000C290E09360060E943C02B6018E2D0E9452
:103F50006A02C12CD12CE12C0E944E02882341F030
:103F60008FEFC81AD80AE80AC614D704E804A1F7E4
:103F70008091600690E003968F3F910521F018F044
:103F800085E00E94451CE0916006F1E0C192D1926B
:103F9000E192E09360060E943C026091610670919C
:103FA000620680916306EF90DF90CF908F907F90B4
:103FB0006F900C946A022F923F924F925F926F9291
:103FC0007F928F929F92AF92BF92CF92DF92EF92A9
:103FD000FF920F931F93CF93DF93E0916006F1E080
:103FE0005290B29092908290829192912291222E40
:103FF000392E482E82919291C92ED82EE0936006D8
:104000000E943C02842DB1010E946A020E944E026D
:10401000782E0E944E02682E0E944E02082F10E059
:104020000E944E02C82FD0E0DC2FCC27C00FD11F3A
:104030000E943C02CC16DD0618F087E00E94451C69
:10404000811129C082E0042D710195E0E90EF11C77
:10405000011DA82E262D472DB4018B2D952D0E94D4
:104060002D04609161067091620680916306DF9174
:10407000CF911F910F91FF90EF90DF90CF90BF9065
:10408000AF909F908F907F906F905F904F903F90F8
:104090002F900C946A0283E0D6CFCF93DF9300D0A9
:1040A00000D0CDB7DEB78FB7F8944091800650911D
:1040B000810660918206709183068FBF80916006B1
:1040C00090E004968F3F910521F018F085E00E9462
:1040D000451C49835A836B837C83E0916006F1E041
:1040E000DE011196CE0105962D912193A817B907EF
:1040F000D9F7E09360060F900F900F900F90DF912B
:10410000CF910895E0916006F1E08291E09360061E
:10411000811103C084E00E94451C0895680F791F37
:104120004617570740F4420F531F8417950718F49A
:1041300088E00E94451C08952F923F924F925F9213
:104140006F927F928F929F92AF92BF92CF92DF92A7
:10415000EF92FF920F931F93CF93DF93CDB7DEB70C
:1041600060970FB6F894DEBF0FBECDBF9C878B87DC
:104170000091600611E0F801829192912291622EE5
:10418000792E882E8291929122918F01222E392EA2
:10419000482E30E3532E61147104810409F4D1C018
:1041A000E42C61018FEFC81AD80AE80A842DB10106
:1041B0000E946A020E943C02F82EA82DC3010197BA
:1041C000A1098D879E87AF8795E2F91651F08F2D53
:1041D000EB85FC85099516014E2C6D847E848F84B9
:1041E000DACFF2E02F0E311C411C8E2DB6010E9459
:1041F0006A020E943C0292E0691A710881088436C2
:1042000009F43BC060F4853229F0833621F6F801C9
:10421000F2908F018F2DEB85FC850995BCCF8537FA
:1042200061F1883709F467C0833709F0B4CFF8012A
:1042300082919291E92EF82EB290A2908F01209156
:104240007A0630917B0640917C0650917D06B7013D
:10425000C5010E948E206501E114F10409F49BCF91
:10426000F60181916F01882309F495CFEB85FC85D8
:104270000995F1E0EF1AF108EFCF2AE0922EF8014C
:1042800092912291329142918F01C42ED32EE22E2F
:10429000F92E843699F5F7FE31C08DE2EB85FC8569
:1042A0000995F094E094D094C094C11CD11CE11CF9
:1042B000F11CFE0131965F01892D90E0B0E0A0E095
:1042C0008D879E87AF87B88BC701B6012D853E8548
:1042D0004F8558890E94DF2369017A0187E56A309A
:1042E00008F480E3860FD5018D935D01232B242BE9
:1042F000252B51F70DC090E1992EC1CFC114D104E7
:10430000E104F104B1F6CE010196DC015D925D019C
:10431000F501DE011196AE17BF0728F48C9192913A
:104320009D938083F8CFFE0131967F01EA14FB0450
:1043300008F031CFF70181917F01EB85FC8509956C
:10434000F5CF0093600660960FB6F894DEBF0FBEFF
:10435000CDBFDF91CF911F910F91FF90EF90DF9034
:10436000CF90BF90AF909F908F907F906F905F9015
:104370004F903F902F900895BF92CF92DF92EF928F
:10438000FF920F931F93CF93DF93CDB7DEB72C9798
:104390000FB6F894DEBF0FBECDBFE0916006F1E02E
:1043A00012910291F290B290829192912291C22E3A
:1043B000D92EE82EE09360060E943C0210927D0602
:1043C00010927C0610927B0610927A06CE0101961E
:1043D0009093790680937806C982DA82EB820C8307
:1043E0001D830E831F83B886F9868E2DB6017E5FEE
:1043F0008F4F0E946A020E944E028C870E944E02DA
:104400008A870E943C028B8780EA95E00E949C206C
:104410006091610670916206809163060E946A0253
:104420002C960FB6F894DEBF0FBECDBFDF91CF91B3
:104430001F910F91FF90EF90DF90CF90BF90089564
:10444000EF92FF920F931F93CF93DF9300D000D092
:10445000CDB7DEB7E0916006F1E012910291F290E3
:10446000E290E09360060E943C02E0927C06F092AB
:104470007D0600937A0610937B06E982FA820B830D
:104480001C83CE010196909379068093780680EA8A
:1044900092E00E949C208B819C81892B19F0E981FC
:1044A000FA811082609161067091620680916306C4
:1044B0000E946A020F900F900F900F90DF91CF91A2
:1044C0001F910F91FF90EF900895000000000000F1
:1044D00000000000000000000000000000000000DC
:1044E00000000000000000000000000000000000CC
:1044F00000000000000000000000000000000000BC
:1045000000000000000000000000000000000000AB
:10451000000000000000000000000000000000009B
:10452000000000000000000000000000000000008B
:10453000000000000000000000000000000000007B
:10454000000000000000000000000000000000006B
:10455000000000000000000000000000000000005B
:10456000000000000000000000000000000000004B
:10457000000000000000000000000000000000003B
:10458000000000000000000000000000000000002B
:10459000000000000000000000000000000000001B
:1045A000000000000000000000000000000000000B
:1045B00000000000000000000000000000000000FB
:1045C00000000000000000000000000000000000EB
:1045D00000000000000000000000000000000000DB
:1045E00000000000000000000000000000000000CB
:1045F00000000000000000000000000000000000BB
:1046000091E09093E0001092E2001092E10080E2CD
:104610008093D8001092D7008091650080688093C5
:104620006500789483E084BD83E085BD90936E003F
:10463000E1E8F0E083E08083E0E881E08083E1E985
:1046400083E08083E0E981E08083E1EC87E08083A0
:10465000E3EC81E08083E0EC82E08083E2EC81E0C7
:104660008083EAE787E080838068808381EC8093A1
:104670007C0081EF85B987EE84B982E38BB982EF44
:104680008AB9769A6E9880EF81BB10BA80E58CBDAE
:104690009DBD0E940F025F9A0E940F025C98E8E3A2
:1046A000F2E085918EBD00000DB407FEFDCFE5342C
:1046B000C1F75C9A81E88093640081E08093650093
:1046C0005E9AE4E1F0E090E080E02591359155912B
:1046D00045912851354909F4CA0180938806909381
:1046E000890659988BEA0E947602599A8091880629
:1046F00090918906892B59F46EEF7FEF8FEF0E941E
:104700006A0262E070E088E896E00E944202C2E33A
:1047100000E011E086E6A82E85E0B82E94E1C92ECF
:10472000D12CE12CC0936606F801C50111920197C6
:10473000E9F760E070E080E00E946A020E9459029E
:10474000DC010E945402CC018C3B9A40A04CBB4A35
:1047500019F081E00E94451CC0926106D092620669
:10476000E09263060E94581B0C94E01BDBCFFB0118
:10477000DC0102C005900D9241505040D8F70895D9
:10478000052E97FB1EF400940E94D72357FD07D0F7
:104790000E94DF2307FC03D04EF40C94D7235095DE
:1047A0004095309521953F4F4F4F5F4F089590951D
:1047B0008095709561957F4F8F4F9F4F0895A1E22F
:1047C0001A2EAA1BBB1BFD010DC0AA1FBB1FEE1F8B
:1047D000FF1FA217B307E407F50720F0A21BB30BD6
:1047E000E40BF50B661F771F881F991F1A9469F752
:1047F00060957095809590959B01AC01BD01CF01AE
:104800000895AA1BBB1B51E107C0AA1FBB1FA61717
:10481000B70710F0A61BB70B881F991F5A95A9F769
:1048200080959095BC01CD01089597FB072E16F455
:10483000009407D077FD09D00E94012407FC05D021
:104840003EF4909581959F4F0895709561957F4FA7
:064850000895F894FFCF6B
:104856000000000000000000000000000000000052
:104866000000000000000000000000000000000042
:104876000000000000000000000000000000000032
:104886000000000000000000000000000000000022
:084DB6000000000000001000E5
:00000001FF
