:100000000C9400010C941D010C941D010C941D0115
:100010000C941D010C941D010C941D010C941D01E8
:100020000C941D010C941D010C941D010C941D01D8
:100030000C941D010C941D010C941D010C941D01C8
:100040000C941D010C941D010C941D010C941D01B8
:100050000C941D010C941D010C941D010C94AC0317
:100060000C941D010C941D010C941D010C941D0198
:100070000C941D010C941D010C941D010C941D0188
:100080000C941D010C941D010C941D010C941D0178
:100090000C941D010C941D010C941D010C941D0168
:1000A0000C941D010C941D010C941D010000000016
:1000B0000000000000000000000000000000000040
:1000C0000000000000000000000000000000000030
:1000D0000000000000000000000000000000000020
:1000E0000000000000000000000000000000000010
:1000F0000000000000000000000000000000000000
:1001000090036703AA029C02690264026202D5F0AE
:100110008D14A1C881CFD9F1AF20000000000000EC
:1001200000000000000000000000000000000000CF
:1001300000000000000000000000000000000000BF
:1001400000000000000000000000000000000000AF
:10015000000000000000000000000000000000009F
:10016000000000000000000000000000000000008F
:10017000000000000000000000000000000000007F
:10018000000000000000000000000000000000006F
:10019000000000000000000000000000000000005F
:1001A000000000000000000000000000000000004F
:1001B000000000000000000000000000000000003F
:1001C000000000000000000000000000000000002F
:1001D000000000000000000000000000000000001F
:1001E000000000000000000000000000000000000F
:1001F00000000000000000000000000000000000FF
:1002000011241FBECFEFDAE0DEBFCDBF16E0A5E6BA
:10021000B6E0E0E5F6E202C005900D92A636B10721
:10022000D9F72AE0A6E6B6E001C01D92AE37B207C4
:10023000E1F70E9400120C9426130C9400000000B9
:1002400000000000000000000000000000000000AE
:10025000000000000000000000000000000000009E
:10026000000000000000000000000000000000008E
:10027000000000000000000000000000000000007E
:10028000000000000000000000000000000000006E
:10029000000000000000000000000000000000005E
:1002A000000000000000000000000000000000004E
:1002B000000000000000000000000000000000003E
:1002C000000000000000000000000000000000002E
:1002D000000000000000000000000000000000001E
:1002E000000000000000000000000000000000000E
:1002F00000000000000000000000000000000000FE
:1003000000000000000000000000000000000000ED
:1003100000000000000000000000000000000000DD
:1003200000000000000000000000000000000000CD
:1003300000000000000000000000000000000000BD
:1003400000000000000000000000000000000000AD
:10035000000000000000000000000000000000009D
:10036000000000000000000000000000000000008D
:10037000000000000000000000000000000000007D
:10038000000000000000000000000000000000006D
:10039000000000000000000000000000000000005D
:1003A000000000000000000000000000000000004D
:1003B000000000000000000000000000000000003D
:1003C000000000000000000000000000000000002D
:1003D000000000000000000000000000000000001D
:1003E000000000000000000000000000000000000D
:1003F00000000000000000000000000000000000FD
:10040000E5E0F0E00E941502319728F068517C4F3A
:100410008F4F9F4FF9CFAB01FC010E94150264176B
:1004200075078E079F07C8F30895A8E7BAE02FB7AE
:10043000F8947D918D919C9166B52FBFA89B05C0C6
:100440006F3F18F47F5F8F4F9F4F22E0660F771F3B
:10045000881F991F2A95D1F708950DB407FEFDCF87
:100460008EB5599A08950E943802982F0C942D0247
:100470000DB407FEFDCF8EB51EBC08950E94380254
:10048000982F0C94380259980E945B02862F0E9484
:100490005B02852F0E945B02842F0C945B02462F27
:1004A00050917C0A570F60917D0A681F83E00E947B
:1004B00043021EBC08958EBD00008EB50DB407FE2C
:1004C000FCCF08959895089581E083BF889513BE69
:1004D00008958091700A882371F01092700A80E06C
:1004E000E091600691E09E0F90936006F0E0E0508E
:1004F000FF4F808308952091740A9091710A322FE2
:10050000391B932F30916506931740F49F5F931723
:1005100038F791E093BF889513BEE2CF81E08093D6
:10052000700A2093710AEEE6FAE0808191810196CB
:100530008083918381E0D4CFE0916006F1E0629105
:10054000E093600670E088EE93E00E9412136093DF
:10055000650608950F931F93CF93DF93E091600694
:10056000F1E04291A291BA2F5291C52F82919291BE
:10057000692F782F22913291832F922FE09360067A
:10058000803891050CF09EC0E52FF0E09C012E0F05
:100590003F1F121613060CF095C02A2F30E08B0176
:1005A000020F131F101611060CF08CC0552309F40E
:1005B00089C0AA2309F486C0D62F60340CF082C00B
:1005C000182FE80FF11D87FDFA951E161F060CF077
:1005D00079C0260F311D67FD3A95121613060CF0EF
:1005E00071C040FD4FEF282F362FD7FF03C0BA2F21
:1005F000B60F30E017FF03C0C52FC20F20E090E810
:10060000921BC91708F49C2F80E4831BB81708F4C9
:100610008B2F830F51E031FD54E030FD550F32FD3B
:1006200052955195A1E081FDA4E080FDAA0F82FDC5
:10063000A295A195752F70956A2F6095815036957A
:1006400036953695869586958695EEE6F6E0B0E881
:100650003B9FE00DF11D1124E20FF11D831B711171
:1006600001C08F5F611101C08F5F30E8391B252FFA
:100670002423562F5423882319F4A72B52231CC05C
:10068000772349F0B92F00800722022A0192BA95F8
:10069000D1F7E30FF11D8A9569F0B92FB0FF02C0C1
:1006A000B39501C041934193B250E1F7E30FF11DBF
:1006B0008A9599F7662331F000800A22052A019273
:1006C0009A95D1F7DF91CF911F910F910895E09105
:1006D0006006F1E0429122913291832F922F529144
:1006E0006291262F352FE093600620383105B8F44B
:1006F00080349105A0F430E151E081FD54E080FDAB
:10070000550F82FD5295887F389FD0011124A60F86
:10071000A259B94F0C90052A40FF05260C92089566
:100720000E942D025E98EEE6F6E081E0A0E0B8E0DF
:1007300000800EBC8111012C1197A0FDFDCF01920C
:10074000B9F70DB45E9A609161067091620680916E
:1007500063060E944F0208950F920FB68F939F93E6
:10076000EF93FF938091730A8D5F8D3708F08D575B
:100770008093730AE4E7FAE080818E4F8083918151
:100780009F4F918382818F4F828383818F4F838399
:10079000E8E7FAE080818F5F808381818F4F8183DA
:1007A00082818F4F828383818F4F83838FB18F604C
:1007B00066991C9B88278F3681F48091720A981B5A
:1007C000963068F0E0E0F8E087E78083818388E195
:1007D00080936000F0936000FFCF9093720AFF91C6
:1007E000EF919F918F910FBE0F9018950000000020
:1007F00000000000000000000000000000000000F9
:10080000C895C89500000EB42EBC640C721C821CE6
:10081000039CF001F50D09940000000000000000A9
:1008200000000000000000000000000000000000C8
:1008300000000000000000000000000000000000B8
:10084000C895C89500000EB42EBC640C721C821CA6
:1008500009920E94EF100EB42EBC640C721C821C14
:10086000039CF001F50D0994000000000000000059
:100870000000000000000000000000000000000078
:100880002992C89500C00EB42EBC640C721C821C48
:10089000039CF001F50D0994000000000000000029
:1008A0000000000000000000000000000000000048
:1008B0000000000000000000000000000000000038
:1008C00001E0099300C000C00EB42EBC640C721C81
:1008D000821C039CF001F50D09940000000000004B
:1008E0000000000000000000000000000000000008
:1008F00000000000000000000000000000000000F8
:1009000002E0099300C000C00EB42EBC640C721C3F
:10091000821C039CF001F50D09940000000000000A
:1009200000000000000000000000000000000000C7
:1009300000000000000000000000000000000000B7
:1009400003E0099300C000C00EB42EBC640C721CFE
:10095000821C039CF001F50D0994000000000000CA
:100960000000000000000000000000000000000087
:100970000000000000000000000000000000000077
:1009800004E0099300C000C00EB42EBC640C721CBD
:10099000821C039CF001F50D09940000000000008A
:1009A0000000000000000000000000000000000047
:1009B0000000000000000000000000000000000037
:1009C00029922992C8950EB42EBC640C721C821C0C
:1009D000039CF001F50D09940000000000000000E8
:1009E0000000000000000000000000000000000007
:1009F00000000000000000000000000000000000F7
:100A00000A90C3950FEF07FE00E009930EB42EBCC9
:100A1000640C721C821C039CF001F50D099400000B
:100A200000000000000000000000000000000000C6
:100A300000000000000000000000000000000000B6
:100A40000A900992099200000EB42EBC640C721C2C
:100A5000821C039CF001F50D0994000000000000C9
:100A60000000000000000000000000000000000086
:100A70000000000000000000000000000000000076
:100A8000C895C895DE010EB42EBC640C721C821C85
:100A9000A0190C900992C895C89500000EB42EBC00
:100AA000640C721C821C039CF001F50D099400007B
:100AB0000000000000000000000000000000000036
:100AC000C895C895DE010EB42EBC640C721C821C45
:100AD000A0190D901C9009921992C8950EB42EBCC5
:100AE000640C721C821C039CF001F50D099400003B
:100AF00000000000000000000000000000000000F6
:100B00000A910A9500C000C00EB42EBC640C721C81
:100B1000821CDE01A0190D9009920D9009920A9590
:100B2000E1F70EB42EBC640C721C821C039CF00115
:100B3000F50D099400000000000000000000000016
:100B4000C895C89500000EB42EBC640C721C821CA3
:100B50000A91DE01A0190C93C895C89500000EB447
:100B60002EBC640C721C821C039CF001F50D0994D0
:100B70000000000000000000000000000000000075
:100B80000A910A9500C000C00EB42EBC640C721C01
:100B9000821CDE01A0190A900E920A900E920A950C
:100BA000E1F70EB42EBC640C721C821C039CF00195
:100BB000F50D099400000000000000000000000096
:100BC0000E94C210D801BE5F0C9109930E94EF10E1
:100BD0000EB42EBC640C721C821C039CF001F50D3B
:100BE0000994000000000000000000000000000068
:100BF00000000000000000000000000000000000F5
:100C00000E94C210D801BE5F0A910D9009920A9508
:100C1000E1F70EB42EBC640C721C821C039CF00124
:100C2000F50D099400000000000000000000000025
:100C300000000000000000000000000000000000B4
:100C40000E94C210D801BE5F0A910C930E94EF105F
:100C50000EB42EBC640C721C821C039CF001F50DBA
:100C600009940000000000000000000000000000E7
:100C70000000000000000000000000000000000074
:100C80000E94C210D801BE5F0A91A00FB21D0A9047
:100C90000E920A95E1F70EB42EBC640C721C821CF5
:100CA000039CF001F50D0994000000000000000015
:100CB0000000000000000000000000000000000034
:100CC000BA91AA911D9019920EB42EBC640C721C9C
:100CD000821C039CF001F50D099400000000000047
:100CE0000000000000000000000000000000000004
:100CF00000000000000000000000000000000000F4
:100D0000BA91AA911D9019921D9019920EB42EBC01
:100D1000640C721C821C039CF001F50D0994000008
:100D200000000000000000000000000000000000C3
:100D300000000000000000000000000000000000B3
:100D4000BA91AA91C8950EB42EBC640C721C821C78
:100D50001D9019920A94E1F70EB42EBC640C721C1B
:100D6000821C039CF001F50D0994000000000000B6
:100D70000000000000000000000000000000000073
:100D8000BA91AA911A901C920EB42EBC640C721CDB
:100D9000821C039CF001F50D099400000000000086
:100DA0000000000000000000000000000000000043
:100DB0000000000000000000000000000000000033
:100DC000BA91AA911A900A900D921C920EB42EBC60
:100DD000640C721C821C039CF001F50D0994000048
:100DE0000000000000000000000000000000000003
:100DF00000000000000000000000000000000000F3
:100E0000BA91AA91C8950EB42EBC640C721C821CB7
:100E1000A00DB21D1A901E920A94E1F70EB42EBCDA
:100E2000640C721C821C039CF001F50D09940000F7
:100E300000000000000000000000000000000000B2
:100E4000CA95C895C8950EB42EBC640C721C821C41
:100E5000039CF001F50D0994000000000000000063
:100E60000000000000000000000000000000000082
:100E70000000000000000000000000000000000072
:100E8000C250C895C8950EB42EBC640C721C821C4E
:100E9000039CF001F50D0994000000000000000023
:100EA0000000000000000000000000000000000042
:100EB0000000000000000000000000000000000032
:100EC000C350C895C8950EB42EBC640C721C821C0D
:100ED000039CF001F50D09940000000000000000E3
:100EE0000000000000000000000000000000000002
:100EF00000000000000000000000000000000000F2
:100F0000C450C895C8950EB42EBC640C721C821CCB
:100F1000039CF001F50D09940000000000000000A2
:100F200000000000000000000000000000000000C1
:100F300000000000000000000000000000000000B1
:100F40004A9100000E94C310411708F0FFCF049F90
:100F5000B0015A914A91640F751F699379930EB449
:100F60002EBC640C721C821C039CF001F50D0994CC
:100F70000000000000000000000000000000000071
:100F80005A914A910E9490104217530708F0FFCFE0
:100F9000049FB001059F700D149F700D5A914A91E6
:100FA000640F751F699379930EB42EBC640C721C88
:100FB000821C039CF001F50D099400000000000064
:100FC000C895C89500000EB42EBC640C721C821C1F
:100FD0008E01001909931993C895C89500000EB4A5
:100FE0002EBC640C721C821C039CF001F50D09944C
:100FF00000000000000000000000000000000000F1
:101000000E94C2101E5F09931993C895C8950000ED
:101010000EB42EBC640C721C821C039CF001F50DF6
:101020000994000000000000000000000000000023
:1010300000000000000000000000000000000000B0
:10104000C895C89500000EB42EBC640C721C821C9E
:1010500012E009921993C895C89500C00EB42EBC31
:10106000640C721C821C039CF001F50D09940000B5
:101070000000000000000000000000000000000070
:101080000A900394099200C00EB42EBC640C721C2A
:10109000821C039CF001F50D099400000000000083
:1010A0000000000000000000000000000000000040
:1010B0000000000000000000000000000000000030
:1010C000AA90EA90EA0CE9920EB42EBC640C721C51
:1010D000821C039CF001F50D099400000000000043
:1010E0000000000000000000000000000000000000
:1010F00000000000000000000000000000000000F0
:10110000BA90AA90FA90EA90EA0CFB1CE992F99244
:101110000EB42EBC640C721C821C039CF001F50DF5
:101120000994000000000000000000000000000022
:1011300000000000000000000000000000000000AF
:10114000CA90BA90AA900A91FA90EA90EA0CFB1C15
:101150000C1DE992F99209930EB42EBC640C721C1A
:10116000821C039CF001F50D0994000000000000B2
:10117000000000000000000000000000000000006F
:10118000DA90CA90BA90AA901A910A91FA90EA90CD
:10119000EA0CFB1C0C1D1D1DE992F9920993199391
:1011A0000EB42EBC640C721C821C039CF001F50D65
:1011B0000994000000000000000000000000000092
:1011C000AA90EA90EA18E9920EB42EBC640C721C44
:1011D000821C039CF001F50D099400000000000042
:1011E00000000000000000000000000000000000FF
:1011F00000000000000000000000000000000000EF
:10120000BA90AA90FA90EA90EA18FB08E992F9924B
:101210000EB42EBC640C721C821C039CF001F50DF4
:101220000994000000000000000000000000000021
:1012300000000000000000000000000000000000AE
:10124000CA90BA90AA900A91FA90EA90EA18FB081C
:101250000C09E992F99209930EB42EBC640C721C2D
:10126000821C039CF001F50D0994000000000000B1
:10127000000000000000000000000000000000006E
:10128000DA90CA90BA90AA901A910A91FA90EA90CC
:10129000EA18FB080C091D09E992F99209931993C0
:1012A0000EB42EBC640C721C821C039CF001F50D64
:1012B0000994000000000000000000000000000091
:1012C000AA90EA90EA9C09920EB42EBC640C721C9F
:1012D000821C039CF001F50D099400000000000041
:1012E00000000000000000000000000000000000FE
:1012F00000000000000000000000000000000000EE
:10130000BA90AA90FA90EA90EA9C9001EB9C300D7A
:10131000FA9C300D299339930EB42EBC640C721CC8
:10132000821C039CF001F50D0994000000000000F0
:1013300000000000000000000000000000000000AD
:10134000CA90BA90AA900A91FA90EA90EA9C900109
:101350000A9D402DFA9C300D411DEB9C300D411D26
:10136000FB9C400DEC9C400D2993399349930EB49E
:101370002EBC640C721C821C039CF001F50D0994B8
:101380000C9460100000000000000000000000004D
:10139000000000000000000000000000000000004D
:1013A000000000000000000000000000000000003D
:1013B000000000000000000000000000000000002D
:1013C0007A916A919A918A910E94FE126993799317
:1013D0000EB42EBC640C721C821C039CF001F50D33
:1013E0000994000000000000000000000000000060
:1013F00000000000000000000000000000000000ED
:101400005A914A913A912A919A918A917A916A9144
:101410008E010E94DC12E801299339934993599374
:101420000EB42EBC640C721C821C039CF001F50DE2
:10143000099400000000000000000000000000000F
:101440007A916A919A918A910E9412136993799381
:101450000EB42EBC640C721C821C039CF001F50DB2
:1014600009940000000000000000000000000000DF
:10147000000000000000000000000000000000006C
:101480005A914A913A912A919A918A917A916A91C4
:101490008E010E94BD12E801299339934993599313
:1014A0000EB42EBC640C721C821C039CF001F50D62
:1014B000099400000000000000000000000000008F
:1014C0007A916A919A918A910E94FE1289939993D6
:1014D0000EB42EBC640C721C821C039CF001F50D32
:1014E000099400000000000000000000000000005F
:1014F00000000000000000000000000000000000EC
:101500005A914A913A912A919A918A917A916A9143
:101510008E010E94DC12E801699379938993999373
:101520000EB42EBC640C721C821C039CF001F50DE1
:10153000099400000000000000000000000000000E
:101540007A916A919A918A910E9412138993999340
:101550000EB42EBC640C721C821C039CF001F50DB1
:1015600009940000000000000000000000000000DE
:10157000000000000000000000000000000000006B
:101580005A914A913A912A919A918A917A916A91C3
:101590008E010E94BD12E801699379938993999312
:1015A0000EB42EBC640C721C821C039CF001F50D61
:1015B000099400000000000000000000000000008E
:1015C0004A910A91477001C0000F4A95EAF70EB49C
:1015D0002EBC640C721C821C039CF001F50D099456
:1015E00000000000000000000000000000000000FB
:1015F00000000000000000000000000000000000EB
:101600004A911A910A914F7002C0110F001F4A951A
:10161000E2F70EB42EBC640C721C821C039CF00119
:10162000F50D09940000000000000000000000001B
:1016300000000000000000000000000000000000AA
:101640004A912A911A910A914F7103C0220F111FDA
:10165000001F4A95DAF70EB42EBC640C721C821C73
:10166000039CF001F50D099400000000000000004B
:10167000000000000000000000000000000000006A
:101680004A913A912A911A910A914F7104C0330FED
:10169000221F111F001F4A95D2F70EB42EBC640CF6
:1016A000721C821C039CF001F50D099400000000DF
:1016B000000000000000000000000000000000002A
:1016C0004A910A91477001C006954A95EAF70EB40F
:1016D0002EBC640C721C821C039CF001F50D099455
:1016E00000000000000000000000000000000000FA
:1016F00000000000000000000000000000000000EA
:101700004A911A910A914F7002C0169507954A9511
:10171000E2F70EB42EBC640C721C821C039CF00118
:10172000F50D09940000000000000000000000001A
:1017300000000000000000000000000000000000A9
:101740004A912A911A910A914F7103C026951795D3
:1017500007954A95DAF70EB42EBC640C721C821CF5
:10176000039CF001F50D099400000000000000004A
:101770000000000000000000000000000000000069
:101780004A913A912A911A910A914F7104C0369563
:101790002795179507954A95D2F70EB42EBC640C81
:1017A000721C821C039CF001F50D099400000000DE
:1017B0000000000000000000000000000000000029
:1017C0004A910A91477001C005954A95EAF70EB40F
:1017D0002EBC640C721C821C039CF001F50D099454
:1017E00000000000000000000000000000000000F9
:1017F00000000000000000000000000000000000E9
:101800004A911A910A914F7002C0159507954A9511
:10181000E2F70EB42EBC640C721C821C039CF00117
:10182000F50D099400000000000000000000000019
:1018300000000000000000000000000000000000A8
:101840004A912A911A910A914F7103C025951795D3
:1018500007954A95DAF70EB42EBC640C721C821CF4
:10186000039CF001F50D0994000000000000000049
:101870000000000000000000000000000000000068
:101880004A913A912A911A910A914F7104C0359563
:101890002795179507954A95D2F70EB42EBC640C80
:1018A000721C821C039CF001F50D099400000000DD
:1018B0000000000000000000000000000000000028
:1018C0000A9000E0021001E009930EB42EBC640CF3
:1018D000721C821C039CF001F50D099400000000AD
:1018E00000000000000000000000000000000000F8
:1018F00000000000000000000000000000000000E8
:101900000A901A90012800E0021001E009930EB439
:101910002EBC640C721C821C039CF001F50D099412
:1019200000000000000000000000000000000000B7
:1019300000000000000000000000000000000000A7
:101940000A901A9001281A90012800E0021001E084
:1019500009930EB42EBC640C721C821C039CF00113
:10196000F50D0994000000000000000000000000D8
:101970000000000000000000000000000000000067
:101980000A901A9001281A9001281A90012800E064
:10199000021001E009930EB42EBC640C721C821C70
:1019A000039CF001F50D0994000000000000000008
:1019B0000000000000000000000000000000000027
:1019C000AA90EA9021E0EA1408F020E029930EB4EE
:1019D0002EBC640C721C821C039CF001F50D099452
:1019E00000000000000000000000000000000000F7
:1019F00000000000000000000000000000000000E7
:101A0000BA90AA90FA90EA9021E0EA14FB0408F058
:101A100020E029930EB42EBC640C721C821C039C23
:101A2000F001F50D09940000000000000000000026
:101A300000000000000000000000000000000000A6
:101A4000CA90BA90AA900A91FA90EA9021E0EA141A
:101A5000FB040C0508F020E029930EB42EBC640CA6
:101A6000721C821C039CF001F50D0994000000001B
:101A70000000000000000000000000000000000066
:101A8000DA90CA90BA90AA901A910A91FA90EA90C4
:101A900021E0EA14FB040C051D0508F020E0299361
:101AA0000EB42EBC640C721C821C039CF001F50D5C
:101AB0000994000000000000000000000000000089
:101AC000AA90EA9021E0EA140CF020E029930EB4E9
:101AD0002EBC640C721C821C039CF001F50D099451
:101AE00000000000000000000000000000000000F6
:101AF00000000000000000000000000000000000E6
:101B0000BA90AA90FA90EA9021E0EA14FB040CF053
:101B100020E029930EB42EBC640C721C821C039C22
:101B2000F001F50D09940000000000000000000025
:101B300000000000000000000000000000000000A5
:101B4000CA90BA90AA900A91FA90EA9021E0EA1419
:101B5000FB040C050CF020E029930EB42EBC640CA1
:101B6000721C821C039CF001F50D0994000000001A
:101B70000000000000000000000000000000000065
:101B8000DA90CA90BA90AA901A910A91FA90EA90C3
:101B900021E0EA14FB040C051D050CF020E029935C
:101BA0000EB42EBC640C721C821C039CF001F50D5B
:101BB0000994000000000000000000000000000088
:101BC000AA90EA9021E0AE1408F420E029930EB424
:101BD0002EBC640C721C821C039CF001F50D099450
:101BE00000000000000000000000000000000000F5
:101BF00000000000000000000000000000000000E5
:101C0000AA90BA90EA90FA9021E0AE14BF0408F4CA
:101C100020E029930EB42EBC640C721C821C039C21
:101C2000F001F50D09940000000000000000000024
:101C300000000000000000000000000000000000A4
:101C4000AA90BA90CA90EA90FA900A9121E0AE1454
:101C5000BF04C00608F420E029930EB42EBC640C27
:101C6000721C821C039CF001F50D09940000000019
:101C70000000000000000000000000000000000064
:101C8000AA90BA90CA90DA90EA90FA900A911A91C2
:101C900021E0AE14BF04C006D10608F420E0299369
:101CA0000EB42EBC640C721C821C039CF001F50D5A
:101CB0000994000000000000000000000000000087
:101CC000AA90EA9021E0AE140CF420E029930EB41F
:101CD0002EBC640C721C821C039CF001F50D09944F
:101CE00000000000000000000000000000000000F4
:101CF00000000000000000000000000000000000E4
:101D0000AA90BA90EA90FA9021E0AE14BF040CF4C5
:101D100020E029930EB42EBC640C721C821C039C20
:101D2000F001F50D09940000000000000000000023
:101D300000000000000000000000000000000000A3
:101D4000AA90BA90CA90EA90FA900A9121E0AE1453
:101D5000BF04C0060CF420E029930EB42EBC640C22
:101D6000721C821C039CF001F50D09940000000018
:101D70000000000000000000000000000000000063
:101D8000AA90BA90CA90DA90EA90FA900A911A91C1
:101D900021E0AE14BF04C006D1060CF420E0299364
:101DA0000EB42EBC640C721C821C039CF001F50D59
:101DB0000994000000000000000000000000000086
:101DC0000A9001E0021000E009930EB42EBC640CEE
:101DD000721C821C039CF001F50D099400000000A8
:101DE00000000000000000000000000000000000F3
:101DF00000000000000000000000000000000000E3
:101E00000A9000000E94B410021421F43801822EBE
:101E10000C94F3102EBC0E94E9100EB42EBC640C7E
:101E2000721C821C039CF001F50D09940000000057
:101E300000000000000000000000000000000000A2
:101E40000A91640C721C721C00C00EB4021541F49D
:101E5000102C110C1108600C711C811C0C94F310D7
:101E60002EBC0E94EC100C94201100000000000019
:101E70000000000000000000000000000000000062
:101E80000A9000000E94B410021421F03801822E42
:101E90000C94F3102EBC0E94E9100EB42EBC640CFE
:101EA000721C821C039CF001F50D099400000000D7
:101EB0000000000000000000000000000000000022
:101EC0000A91640C721C721C00C00EB4021541F021
:101ED000102C110C1108600C711C811C0C94F31057
:101EE0002EBC0E94EC100C94201100000000000099
:101EF00000000000000000000000000000000000E2
:101F00000E94B3103801822E0C94F31000000000E0
:101F100000000000000000000000000000000000C1
:101F200000000000000000000000000000000000B1
:101F300000000000000000000000000000000000A1
:101F4000C895C89500000EB40394102C110C11080C
:101F5000600C711C811C0C94F31000000000000048
:101F60000000000000000000000000000000000071
:101F70000000000000000000000000000000000061
:101F8000A0916406B6E00E94B4106D927D928D928D
:101F9000A09364063801822E0C94F3100000000018
:101FA0000000000000000000000000000000000031
:101FB0000000000000000000000000000000000021
:101FC000A0916406B6E0640C721C821C6D927D9236
:101FD0008D92A09364060EB4102C110C1108600CA5
:101FE000711C811C00C10000000000000000000006
:101FF00000000000000000000000000000000000E1
:10200000A0916406B6E08E907E906E90A0936406D8
:10201000EAC0000000000000000000000000000016
:1020200000000000000000000000000000000000B0
:1020300000000000000000000000000000000000A0
:10204000F1E000C00E94C310E02FF10F0590F49161
:10205000E02DA4D00995ACD00EB42EBC640C721C3B
:10206000821C039CF001F50D0994000000000000A3
:102070000000000000000000000000000000000060
:10208000F1E0640C721C821CC8950EB42EBCE02DCD
:102090000590F491E02D82D009958AD00EB42EBC23
:1020A000640C721C821C039CF001F50D0994000065
:1020B0000000000000000000000000000000000020
:1020C000DA90CA90BA90AA901A910A91FA90EA907E
:1020D000EA9C90010A9DA001FA9C300D411D521D01
:1020E000EB9C300D411D521DFB9C400D511DEC9C85
:1020F000400D511D1A9D500D0B9D500DFC9C500D17
:10210000ED9C500D29933993499359930EB42EBCED
:10211000640C721C821C039CF001F50D0994C89597
:102120000EB52EBC14E0610E721C821C0E94EE10D3
:102130001EB52EBC0E94EA102EB52EBC0E94EA10DD
:102140003EB52EBC0895C8950EB52EBC13E0610EA9
:10215000721C821C0E94EE101EB52EBC0E94EA105A
:102160002EB52EBC0895C8950EB52EBC13E0610E99
:10217000721C821C0E94EE101EB52EBC0E94EA103A
:102180002EB50895C8950EB52EBC12E0610E721CD6
:10219000821C0E94EE101EB52EBC0895609261064E
:1021A0007092620680926306C093600611240895BF
:1021B000222400E2302E01E0402E04E0502E6090F8
:1021C00061067090620680906306C0916006D1E05F
:1021D0000895000000000000000000000000000062
:1021E000000000000895599A23E059982EBD0091EF
:1021F0007C0A10917D0A070D181D0E94EF101EBD6C
:102200000E94E9100EBD0E94E9106EBC0E94E91008
:102210002EBC0E94E9100EB42EBC640C721C821CF1
:10222000039CF001F50D099400000000000000007F
:10223000000000000000000000000000000000009E
:102240000EB42EBC640C721C821C039CF001F50DB4
:1022500009940000000000000000000000000000E1
:10226000000000000000000000000000000000006E
:10227000000000000000000000000000000000005E
:10228000000000000000000000000000000000004E
:10229000000000000000000000000000000000003E
:1022A000000000000000000000000000000000002E
:1022B000000000000000000000000000000000001E
:1022C000000000000000000000000000000000000E
:1022D00000000000000000000000000000000000FE
:1022E00000000000000000000000000000000000EE
:1022F00000000000000000000000000000000000DE
:1023000000000000000000000000000000000000CD
:1023100000000000000000000000000000000000BD
:1023200000000000000000000000000000000000AD
:10233000000000000000000000000000000000009D
:10234000000000000000000000000000000000008D
:10235000000000000000000000000000000000007D
:10236000000000000000000000000000000000006D
:10237000000000000000000000000000000000005D
:10238000000000000000000000000000000000004D
:10239000000000000000000000000000000000003D
:1023A000000000000000000000000000000000002D
:1023B000000000000000000000000000000000001D
:1023C000000000000000000000000000000000000D
:1023D00000000000000000000000000000000000FD
:1023E00000000000000000000000000000000000ED
:1023F00000000000000000000000000000000000DD
:1024000091E09093E0001092E2001092E10080E2EF
:102410008093D8001092D7008091650080688093E7
:102420006500789483E084BD83E085BD90936E0061
:10243000E1E8F0E083E08083E0E881E08083E1E9A7
:1024400083E08083E0E981E08083E1EC87E08083C2
:10245000E3EC81E08083E0EC82E08083E2EC81E0E9
:102460008083EAE787E080838068808381EC8093C3
:102470007C0081EF85B987EE84B982E38BB982EF66
:102480008AB9769A6E9880EF81BB10BA80E58CBDD0
:102490009DBD0E9400025F9A0E9400025C98EEE0DF
:1024A000F1E085918EBD00000DB407FEFDCFEB314C
:1024B000C1F75C9A81E88093640081E080936500B5
:1024C0005E9AE4E1F0E090E080E02591359155914D
:1024D00045912851354909F4CA0180937C0A9093AB
:1024E0007D0A59988BEA0E945B02599A80917C0A76
:1024F00090917D0A892B99F46EEF7FEF8FEF0E9408
:102500004F02ECE7FAE022E030E02150304021F0C9
:102510000E9438028193F9CF0E942D028083C0E28D
:1025200000E011E085E6A82E85E0B82E94E0C92EE3
:10253000D12CE12CC0936506F801C50111920197D9
:10254000E9F760E070E080E00E944F020E943E02E6
:10255000DC010E943302CC018C3B9A40A04CBB4A68
:1025600009F0FFCFC0926106D0926206E092630646
:102570000E94D8100C94F310DDCF052E97FB1EF4AB
:1025800000940E94D41257FD07D00E94DC1207FC71
:1025900003D04EF40C94D41250954095309521956B
:1025A0003F4F4F4F5F4F089590958095709561957F
:1025B0007F4F8F4F9F4F0895A1E21A2EAA1BBB1B7E
:1025C000FD010DC0AA1FBB1FEE1FFF1FA217B307FF
:1025D000E407F50720F0A21BB30BE40BF50B661F15
:1025E000771F881F991F1A9469F7609570958095D9
:1025F00090959B01AC01BD01CF010895AA1BBB1BA7
:1026000051E107C0AA1FBB1FA617B70710F0A61BF2
:10261000B70B881F991F5A95A9F780959095BC0113
:10262000CD01089597FB072E16F4009407D077FD8F
:1026300009D00E94FE1207FC05D03EF490958195CA
:102640009F4F0895709561957F4F0895F894FFCF3F
:10265000000000000000000000000000000000007A
:10266000000000000000000000000000000000006A
:10267000000000000000000000000000000000005A
:10268000000000000000000000000000000000004A
:062BB0000000000000100F
:00000001FF
