:100000000C9480010C949D010C949D010C949D0115
:100010000C949D010C949D010C949D010C949D01E8
:100020000C949D010C949D010C949D010C949D01D8
:100030000C949D010C949D010C949D010C949D01C8
:100040000C949D010C949D010C949D010C949D01B8
:100050000C949D010C949D010C949D010C94300412
:100060000C949D010C949D010C949D010C949D0198
:100070000C949D010C949D010C949D010C949D0188
:100080000C949D010C949D010C949D010C949D0178
:100090000C949D010C949D010C949D010C949D0168
:1000A0000C949D010C949D010C949D010000000096
:1000B0000000000000000000000000000000000040
:1000C0000000000000000000000000000000000030
:1000D0000000000000000000000000000000000020
:1000E0000000000000000000000000000000000010
:1000F0000000000000000000000000000000000000
:10010000537072697465206672616D65206F7574D5
:1001100073696465206F66207365740043616C6C5D
:1001200020737461636B206F766572666C6F770005
:100130004461746120737461636B206F76657266CD
:100140006C6F7700417373657274696F6E206661BE
:10015000696C6564004469766973696F6E206279C1
:10016000207A65726F00417272617920696E6465F0
:1001700078206F7574206F6620626F756E647300EF
:1001800047616D652064617461206E6F7420666FD5
:10019000756E64004C696E653A0046696C653A009C
:1001A000800166015501440130011C01000100007D
:1001B000FFFFDBDBC300FFFF1B1BFFEE00FFFF1B8E
:1001C0001BFFEE007EFFC3C3FF7E00FFFF1B1BFF74
:1001D000EE00000000000000000000000000000031
:1001E000000000000000000000000000000000000F
:1001F00000000000000000000000000000000000FF
:100200008F037803BB02AD022E19AB02A902F91AC3
:10021000A0021C190A19F918E918D9185919D5F0AA
:100220008D14A1C881CFD9F1AF20001700030C00B5
:10023000000000994C000003002E02D1010000C410
:1002400011100184101000980C2E3AF243B94AB1F3
:100250002A877CB726AE22211FAA2AA23A0A00507A
:100260000184284A298A10A10A0000BE78BF2A2EDC
:10027000463F3ABF46BF042E669F7CF147F1019F7F
:100280006C1F425F7C3F783F7EBF082E7ABF68B20A
:1002900026E1071F7E071F1F7D9B6C833EB94E3FE3
:1002A000028360F1032208104241004C7A5F324C15
:1002B0004A4C7E4C53BE00D6035F701D00B0019FB8
:1002C000681F009E785E704C325E1144799E08561D
:1002D000034F020E7A061B1E799249823ADA02C453
:1002E0007D0000DF110000000000000000000000A1
:1002F00000000000000000000000000000000000FE
:1003000011241FBECFEFDAE0DEBFCDBF16E0A6E6B8
:10031000B6E0E6E5FAE302C005900D92A836B10713
:10032000D9F72AE0A8E6B6E001C01D92A438B207CA
:10033000E1F70E94001C0C94291D0C9400000000A1
:1003400000000000000000000000000000000000AD
:10035000000000000000000000000000000000009D
:10036000000000000000000000000000000000008D
:10037000000000000000000000000000000000007D
:10038000000000000000000000000000000000006D
:10039000000000000000000000000000000000005D
:1003A000000000000000000000000000000000004D
:1003B000000000000000000000000000000000003D
:1003C000000000000000000000000000000000002D
:1003D000000000000000000000000000000000001D
:1003E000000000000000000000000000000000000D
:1003F00000000000000000000000000000000000FD
:10040000E4E8F6E0A0E0B8E000800EBC8111012C29
:100410001197A0FDFDCF0192B9F70DB40895E5E065
:10042000F0E00E942402319728F068517C4F8F4FF2
:100430009F4FF9CFAB01FC010E942402641775079E
:100440008E079F07C8F30895AEE7B6E02FB7F8947C
:100450007D918D919C9166B52FBFA89B05C06F3F84
:1004600018F47F5F8F4F9F4F22E0660F771F881F22
:10047000991F2A95D1F708950DB407FEFDCF8EB5CB
:10048000599A0895FC016150704021F00E944E027B
:100490008193F9CF0E943C02808308950DB407FE3A
:1004A000FDCF8EB51EBC08950E944E02982F0C946D
:1004B0003C020E944E02982F0C944E0259980E94C2
:1004C0007602862F0E947602852F0E947602842F64
:1004D0000C947602462F50918206570F6091830646
:1004E000681F83E00E945E021EBC08958EBD00005E
:1004F0008EB50DB407FEFCCF08958FB18095807F37
:10050000669B88601C9B8460089581E083BF88950A
:1005100013BE089590E1282F81E061FD84E060FD25
:10052000880F62FD8295687F969FD0011124A20FEB
:10053000AC57B94F0C90082A40FF08260C9208953A
:1005400080917606809377060E947D0280937606DE
:100550000895989508950C948502E0916006F1E065
:100560006291E093600670E088EE93E00E94151DB2
:100570006093660608950F931F93CF93DF93E091E6
:100580006006F1E04291A291BA2F5291C52F82915B
:100590009291692F782F22913291832F922FE0939D
:1005A0006006803891050CF09EC0E52FF0E09C01BC
:1005B0002E0F3F1F121613060CF095C02A2F30E0A5
:1005C0008B01020F131F101611060CF08CC055235F
:1005D00009F489C0AA2309F486C0D62F60340CF030
:1005E00082C0182FE80FF11D87FDFA951E161F0611
:1005F0000CF079C0260F311D67FD3A9512161306CF
:100600000CF071C040FD4FEF282F362FD7FF03C0ED
:10061000BA2FB60F30E017FF03C0C52FC20F20E07E
:1006200090E8921BC91708F49C2F80E4831BB8172D
:1006300008F48B2F830F51E031FD54E030FD550F4E
:1006400032FD52955195A1E081FDA4E080FDAA0FF5
:1006500082FDA295A195752F70956A2F60958150A6
:10066000369536953695869586958695E4E8F6E036
:10067000B0E83B9FE00DF11D1124E20FF11D831B3B
:10068000711101C08F5F611101C08F5F30E8391BAC
:10069000252F2423562F5423882319F4A72B5223C4
:1006A0001CC0772349F0B92F00800722022A01924B
:1006B000BA95D1F7E30FF11D8A9569F0B92FB0FF14
:1006C00002C0B39501C041934193B250E1F7E30FEB
:1006D000F11D8A9599F7662331F000800A22052AD8
:1006E00001929A95D1F7DF91CF911F910F910895C3
:1006F000E0916006F1E0429182919291692F782F0A
:1007000022913291832F922FE093600680389105D9
:1007100028F46034710510F40C948A0208950E9444
:100720003C025E9881E00E9400025E9A6091610640
:1007300070916206809163060C946A022F923F9238
:100740004F925F926F927F928F929F92AF92BF92E1
:10075000CF92DF92EF92FF920F931F93CF93DF938D
:1007600000D000D0CDB7DEB7262E2C838A01582EBC
:100770008C81F801882359F08491882309F458C0AA
:10078000803239F4F3E05F0E0F5F1F4FF1CF8081AD
:10079000F4CFE82FEE0FFF0BE751FE4F2591349178
:1007A000822F8F718983C90145E0969587954A9577
:1007B000E1F78F718A83932F969596959F719B830E
:1007C00023E0422E911106C044244394882311F063
:1007D00092E0492ECE0101963C01F12CE12C852CB2
:1007E000912CF30181913F01322C5401AE0CBF1CBE
:1007F0008823B1F0C82ED12C80FF0DC0F0E8AF16D1
:10080000B10448F4632D70E06034710524F441E0D4
:10081000C5010E948A023394D594C7948C2DE8CFE9
:100820008FEFE81AF80AE414E0F25394540CACCFBA
:10083000852D0F900F900F900F90DF91CF911F910A
:100840000F91FF90EF90DF90CF90BF90AF909F906F
:100850008F907F906F905F904F903F902F90089572
:100860000F920FB68F939F93EF93FF93809179062A
:100870008D5F8D3708F08D5780937906EAE7F6E0B3
:1008800080818E4F808391819F4F918382818F4F92
:10089000828383818F4F8383EEE7F6E080818F5FD1
:1008A000808381818F4F818382818F4F8283838177
:1008B0008F4F83838FB18F6066991C9B88278F36FB
:1008C00081F480917806981B963068F0E0E0F8E0BB
:1008D00087E78083818388E180936000F0936000E4
:1008E000FFCF90937806FF91EF919F918F910FBE6C
:1008F0000F901895000000000000000000000000AC
:1009000000000000000000000000000000000000E7
:1009100000000000000000000000000000000000D7
:1009200000000000000000000000000000000000C7
:1009300000000000000000000000000000000000B7
:1009400000000000000000000000000000000000A7
:100950000000000000000000000000000000000097
:100960000000000000000000000000000000000087
:100970000000000000000000000000000000000077
:100980000000000000000000000000000000000067
:100990000000000000000000000000000000000057
:1009A0000000000000000000000000000000000047
:1009B0000000000000000000000000000000000037
:1009C0000000000000000000000000000000000027
:1009D0000000000000000000000000000000000017
:1009E0000000000000000000000000000000000007
:1009F00000000000000000000000000000000000F7
:100A0000C895C89500000EB42EBC640C721C821CE4
:100A1000039CF001F50D09940000000000000000A7
:100A200000000000000000000000000000000000C6
:100A300000000000000000000000000000000000B6
:100A4000C895C89500000EB42EBC640C721C821CA4
:100A50000E943217CF3F19F485E00C94C017099219
:100A60000EB42EBC640C721C821C039CF001F50DAC
:100A700009940000000000000000000000000000D9
:100A8000CF3F19F485E00C94C017299200C00EB432
:100A90002EBC640C721C821C039CF001F50D0994A1
:100AA0000000000000000000000000000000000046
:100AB0000000000000000000000000000000000036
:100AC000CF3F19F485E00C94C01701E009930000B2
:100AD0000EB42EBC640C721C821C039CF001F50D3C
:100AE0000994000000000000000000000000000069
:100AF00000000000000000000000000000000000F6
:100B0000CF3F19F485E00C94C01702E00993000070
:100B10000EB42EBC640C721C821C039CF001F50DFB
:100B20000994000000000000000000000000000028
:100B300000000000000000000000000000000000B5
:100B4000CF3F19F485E00C94C01703E0099300002F
:100B50000EB42EBC640C721C821C039CF001F50DBB
:100B600009940000000000000000000000000000E8
:100B70000000000000000000000000000000000075
:100B8000CF3F19F485E00C94C01704E009930000EE
:100B90000EB42EBC640C721C821C039CF001F50D7B
:100BA00009940000000000000000000000000000A8
:100BB0000000000000000000000000000000000035
:100BC000CF3F19F485E00C94C01705E009930000AD
:100BD0000EB42EBC640C721C821C039CF001F50D3B
:100BE0000994000000000000000000000000000068
:100BF00000000000000000000000000000000000F5
:100C0000CF3F19F485E00C94C01706E0099300006B
:100C10000EB42EBC640C721C821C039CF001F50DFA
:100C20000994000000000000000000000000000027
:100C300000000000000000000000000000000000B4
:100C4000CF3F19F485E00C94C01707E0099300002A
:100C50000EB42EBC640C721C821C039CF001F50DBA
:100C600009940000000000000000000000000000E7
:100C70000000000000000000000000000000000074
:100C8000CF3F19F485E00C94C01708E009930000E9
:100C90000EB42EBC640C721C821C039CF001F50D7A
:100CA00009940000000000000000000000000000A7
:100CB0000000000000000000000000000000000034
:100CC000CE3F18F085E00C94C017299229920EB4FB
:100CD0002EBC640C721C821C039CF001F50D09945F
:100CE0000000000000000000000000000000000004
:100CF00000000000000000000000000000000000F4
:100D0000C895C89500000EB42EBC09920E942C17FD
:100D10000EB42EBC099202E0600E721C821C0E946E
:100D200030170EB42EBC640C721C821C039CF001A4
:100D3000F50D099400000000000000000000000014
:100D4000C895C89500000EB42EBC09920E942C17BD
:100D50000EB42EBC09920E942C170EB42EBC099220
:100D600003E0600E721C821C0E9430170EB42EBC71
:100D7000640C721C821C039CF001F50D09940000A8
:100D8000CF3F19F485E00C94C0170A90C3950FEF7C
:100D900007FE00E009930EB42EBC640C721C821C8A
:100DA000039CF001F50D0994000000000000000014
:100DB0000000000000000000000000000000000033
:100DC000CF3F61F00A90099209920EB42EBC640CD8
:100DD000721C821C039CF001F50D099485E00C94B3
:100DE000C01700000000000000000000000000002C
:100DF00000000000000000000000000000000000F3
:100E0000CF3F69F0DE01A2500C9009920EB42EBCC7
:100E1000640C721C821C039CF001F50D099485E0A2
:100E20000C94C0170000000000000000000000004B
:100E300000000000000000000000000000000000B2
:100E4000CF3F69F0DE01A3500C9009920EB42EBC86
:100E5000640C721C821C039CF001F50D099485E062
:100E60000C94C0170000000000000000000000000B
:100E70000000000000000000000000000000000072
:100E8000CF3F69F0DE01A4500C9009920EB42EBC45
:100E9000640C721C821C039CF001F50D099485E022
:100EA0000C94C017000000000000000000000000CB
:100EB0000000000000000000000000000000000032
:100EC000CF3F69F0DE01A5500C9009920EB42EBC04
:100ED000640C721C821C039CF001F50D099485E0E2
:100EE0000C94C0170000000000000000000000008B
:100EF00000000000000000000000000000000000F2
:100F0000CF3F69F0DE01A6500C9009920EB42EBCC2
:100F1000640C721C821C039CF001F50D099485E0A1
:100F20000C94C0170000000000000000000000004A
:100F300000000000000000000000000000000000B1
:100F4000CF3F69F0DE01A7500C9009920EB42EBC81
:100F5000640C721C821C039CF001F50D099485E061
:100F60000C94C0170000000000000000000000000A
:100F70000000000000000000000000000000000071
:100F8000CF3F69F0DE01A8500C9009920EB42EBC40
:100F9000640C721C821C039CF001F50D099485E021
:100FA0000C94C017000000000000000000000000CA
:100FB0000000000000000000000000000000000031
:100FC000CE3F78F4DE01A2500D9009920D90099267
:100FD0000EB42EBC640C721C821C039CF001F50D37
:100FE000099485E00C94C017000000000000000088
:100FF00000000000000000000000000000000000F1
:10100000CE3F78F4DE01A3500D9009920D90099225
:101010000EB42EBC640C721C821C039CF001F50DF6
:10102000099485E00C94C017000000000000000047
:1010300000000000000000000000000000000000B0
:10104000CE3F78F4DE01A4500D9009920D900992E4
:101050000EB42EBC640C721C821C039CF001F50DB6
:10106000099485E00C94C017000000000000000007
:101070000000000000000000000000000000000070
:10108000CE3F78F4DE01A5500D9009920D900992A3
:101090000EB42EBC640C721C821C039CF001F50D76
:1010A000099485E00C94C0170000000000000000C7
:1010B0000000000000000000000000000000000030
:1010C000CE3F78F4DE01A6500D9009920D90099262
:1010D0000EB42EBC640C721C821C039CF001F50D36
:1010E000099485E00C94C017000000000000000087
:1010F00000000000000000000000000000000000F0
:10110000CE3F78F4DE01A7500D9009920D90099220
:101110000EB42EBC640C721C821C039CF001F50DF5
:10112000099485E00C94C017000000000000000046
:1011300000000000000000000000000000000000AF
:10114000CE3F78F4DE01A8500D9009920D900992DF
:101150000EB42EBC640C721C821C039CF001F50DB5
:10116000099485E00C94C017000000000000000006
:10117000000000000000000000000000000000006F
:10118000CE3F78F4DE01A9500D9009920D9009929E
:101190000EB42EBC640C721C821C039CF001F50D75
:1011A000099485E00C94C0170000000000000000C6
:1011B000000000000000000000000000000000002F
:1011C000CF3F19F485E00C94C017C895DE010EB42A
:1011D0002EBC640C721C821CA0190C900992C8953C
:1011E000C89500000EB42EBC640C721C821C039CBB
:1011F000F001F50D0994000000000000000000005F
:10120000CE3F18F085E00C94C017C895DE010EB4EF
:101210002EBC640C721C821CA0190D901C900992AB
:101220001992C8950EB42EBC640C721C821C039CCF
:10123000F001F50D0994000000000000000000001E
:101240000A91102F1C0F18F485E00C94C0170A9512
:101250000EB42EBC640C721C821CDE01A0190D9011
:1012600009920D9009920A95E1F70EB42EBC640C18
:10127000721C821C039CF001F50D09940000000013
:10128000C895C89500000EB42EBC640C721C821C5C
:101290000A91DE01A0190C93C895C89500000EB400
:1012A0002EBC640C721C821C039CF001F50D099489
:1012B000000000000000000000000000000000002E
:1012C0000A910A9500C000C00EB42EBC640C721CBA
:1012D000821CDE01A0190A900E920A900E920A95C5
:1012E000E1F70EB42EBC640C721C821C039CF0014E
:1012F000F50D09940000000000000000000000004F
:10130000CF3F19F485E00C94C0170E940317D80151
:10131000BE5F0C9109930E942F170EB42EBC640C73
:10132000721C821C039CF001F50D09940000000062
:1013300000000000000000000000000000000000AD
:101340002A91322F3C0F18F485E00C94C0170E94AC
:101350000317D801BE5F0D9009922A95E1F70EB4EC
:101360002EBC640C721C821C039CF001F50D0994C8
:10137000000000000000000000000000000000006D
:101380000E940217D801BE5F0A910C930E942F178A
:101390000EB42EBC640C721C821C039CF001F50D73
:1013A00009940000000000000000000000000000A0
:1013B000000000000000000000000000000000002D
:1013C0000E940217D801BE5F0A91A00FB21D0A90B9
:1013D0000E920A95E1F70EB42EBC640C721C821CAE
:1013E000039CF001F50D09940000000000000000CE
:1013F00000000000000000000000000000000000ED
:101400002A911A910A910E94A0170E942E170EB4D9
:1014100009920C946017000000000000000000001A
:1014200000000000000000000000000000000000BC
:1014300000000000000000000000000000000000AC
:101440002A911A910A9100001EB40E94A017640C00
:10145000721C821C0E942F170EB42EBC09921A9483
:10146000C9F70E9431170C946017000000000000BB
:10147000000000000000000000000000000000006C
:10148000BA91AA911D9019920EB42EBC640C721CD4
:10149000821C039CF001F50D09940000000000007F
:1014A000000000000000000000000000000000003C
:1014B000000000000000000000000000000000002C
:1014C000BA91AA911D9019921D9019920EB42EBC3A
:1014D000640C721C821C039CF001F50D0994000041
:1014E00000000000000000000000000000000000FC
:1014F00000000000000000000000000000000000EC
:10150000BA91AA912C2F00C00EB42EBC640C721C90
:10151000821C200D18F485E00C94C0171D901992C0
:101520000A94E1F70EB42EBC640C721C821C039C5E
:10153000F001F50D0994000000000000000000001B
:10154000BA91AA911A901C920EB42EBC640C721C13
:10155000821C039CF001F50D0994000000000000BE
:10156000000000000000000000000000000000007B
:10157000000000000000000000000000000000006B
:10158000BA91AA911A900A900D921C920EB42EBC98
:10159000640C721C821C039CF001F50D0994000080
:1015A000000000000000000000000000000000003B
:1015B000000000000000000000000000000000002B
:1015C000BA91AA91C8950EB42EBC640C721C821CF0
:1015D000A00DB21D1A901E920A94E1F70EB42EBC13
:1015E000640C721C821C039CF001F50D0994000030
:1015F00000000000000000000000000000000000EB
:10160000CA95C895C8950EB42EBC640C721C821C79
:10161000039CF001F50D099400000000000000009B
:1016200000000000000000000000000000000000BA
:1016300000000000000000000000000000000000AA
:10164000C250C895C8950EB42EBC640C721C821C86
:10165000039CF001F50D099400000000000000005B
:10166000000000000000000000000000000000007A
:10167000000000000000000000000000000000006A
:10168000C350C895C8950EB42EBC640C721C821C45
:10169000039CF001F50D099400000000000000001B
:1016A000000000000000000000000000000000003A
:1016B000000000000000000000000000000000002A
:1016C000C450C895C8950EB42EBC640C721C821C04
:1016D000039CF001F50D09940000000000000000DB
:1016E00000000000000000000000000000000000FA
:1016F00000000000000000000000000000000000EA
:101700004A9100000E940317411718F082E00C94E0
:10171000C017049FB0015A914A91640F751F6993D5
:1017200079930EB42EBC640C721C821C039CF001D5
:10173000F50D09940000000000000000000000000A
:101740005A914A910E94D0164217530718F082E02E
:101750000C94C017049FB001059F700D149F700D6D
:101760005A914A91640F751F699379930EB42EBCF8
:10177000640C721C821C039CF001F50D099400009E
:10178000AA90FA90EA9000000E940317DA90A1163E
:1017900018F082E00C94C017A09ED00CE11CF21C43
:1017A000D992E992F9920EB42EBC640C721C821C80
:1017B000039CF001F50D09940000000000000000FA
:1017C0000C9433170000000000000000000000002F
:1017D0000000000000000000000000000000000009
:1017E00000000000000000000000000000000000F9
:1017F00000000000000000000000000000000000E9
:10180000CE3F18F085E00C94C01700C000C00EB4A5
:101810002EBC640C721C821C8E0100190993199352
:10182000C895C89500000EB42EBC640C721C821CB6
:10183000039CF001F50D0994000000000000000079
:10184000CE3F18F085E00C94C0170E9403171E5F6E
:1018500009931993C895C89500000EB42EBC640C6A
:10186000721C821C039CF001F50D0994000000001D
:101870000000000000000000000000000000000068
:10188000CE3F18F085E00C94C01700C000C00EB425
:101890002EBC640C721C821C12E009921993C8952C
:1018A000C89500C00EB42EBC640C721C821C039C34
:1018B000F001F50D09940000000000000000000098
:1018C0000A900394099200C00EB42EBC640C721CE2
:1018D000821C039CF001F50D09940000000000003B
:1018E00000000000000000000000000000000000F8
:1018F00000000000000000000000000000000000E8
:10190000C895C895DE010EB42EBC640C721C821CF6
:10191000A0190C9003940C920E9430170EB42EBCA8
:10192000640C721C821C039CF001F50D09940000EC
:1019300000000000000000000000000000000000A7
:10194000AA90EA90EA0CE9920EB42EBC640C721CC8
:10195000821C039CF001F50D0994000000000000BA
:101960000000000000000000000000000000000077
:101970000000000000000000000000000000000067
:10198000BA90AA90FA90EA90EA0CFB1CE992F992BC
:101990000EB42EBC640C721C821C039CF001F50D6D
:1019A000099400000000000000000000000000009A
:1019B0000000000000000000000000000000000027
:1019C000CA90BA90AA900A91FA90EA90EA0CFB1C8D
:1019D0000C1DE992F99209930EB42EBC640C721C92
:1019E000821C039CF001F50D09940000000000002A
:1019F00000000000000000000000000000000000E7
:101A0000DA90CA90BA90AA901A910A91FA90EA9044
:101A1000EA0CFB1C0C1D1D1DE992F9920993199308
:101A20000EB42EBC640C721C821C039CF001F50DDC
:101A30000994000000000000000000000000000009
:101A4000AA90EA90EA18E9920EB42EBC640C721CBB
:101A5000821C039CF001F50D0994000000000000B9
:101A60000000000000000000000000000000000076
:101A70000000000000000000000000000000000066
:101A8000BA90AA90FA90EA90EA18FB08E992F992C3
:101A90000EB42EBC640C721C821C039CF001F50D6C
:101AA0000994000000000000000000000000000099
:101AB0000000000000000000000000000000000026
:101AC000CA90BA90AA900A91FA90EA90EA18FB0894
:101AD0000C09E992F99209930EB42EBC640C721CA5
:101AE000821C039CF001F50D099400000000000029
:101AF00000000000000000000000000000000000E6
:101B0000DA90CA90BA90AA901A910A91FA90EA9043
:101B1000EA18FB080C091D09E992F9920993199337
:101B20000EB42EBC640C721C821C039CF001F50DDB
:101B30000994000000000000000000000000000008
:101B4000AA90EA90EA9C09920EB42EBC640C721C16
:101B5000821C039CF001F50D0994000000000000B8
:101B60000000000000000000000000000000000075
:101B70000000000000000000000000000000000065
:101B8000BA90AA90FA90EA90EA9C9001EB9C300DF2
:101B9000FA9C300D299339930EB42EBC640C721C40
:101BA000821C039CF001F50D099400000000000068
:101BB0000000000000000000000000000000000025
:101BC000CA90BA90AA900A91FA90EA90EA9C900181
:101BD0000A9D402DFA9C300D411DEB9C300D411D9E
:101BE000FB9C400DEC9C400D2993399349930EB416
:101BF0002EBC640C721C821C039CF001F50D099430
:101C00000C94A0160000000000000000000000007E
:101C100000000000000000000000000000000000C4
:101C200000000000000000000000000000000000B4
:101C300000000000000000000000000000000000A4
:101C40007A916A919A918A916215720519F483E0EA
:101C50000C94C0170E94011D699379930EB42EBC99
:101C6000640C721C821C039CF001F50D09940000A9
:101C70000000000000000000000000000000000064
:101C80005A914A913A912A919A918A917A916A91BC
:101C9000221532054205520519F483E00C94C01751
:101CA0008E010E94DF1CE8012993399349935993CF
:101CB0000C94B717000000000000000000000000B6
:101CC0007A916A919A918A916215720519F483E06A
:101CD0000C94C0170E94151D699379930EB42EBC05
:101CE000640C721C821C039CF001F50D0994000029
:101CF00000000000000000000000000000000000E4
:101D00005A914A913A912A919A918A917A916A913B
:101D1000221532054205520519F483E00C94C017D0
:101D20008E010E94C01CE80129933993499359936D
:101D30000C94B71700000000000000000000000035
:101D40007A916A919A918A916215720519F483E0E9
:101D50000C94C0170E94011D899399930EB42EBC58
:101D6000640C721C821C039CF001F50D09940000A8
:101D70000000000000000000000000000000000063
:101D80005A914A913A912A919A918A917A916A91BB
:101D9000221532054205520519F483E00C94C01750
:101DA0008E010E94DF1CE8016993799389939993CE
:101DB0000C94B717000000000000000000000000B5
:101DC0007A916A919A918A916215720519F483E069
:101DD0000C94C0170E94151D899399930EB42EBCC4
:101DE000640C721C821C039CF001F50D0994000028
:101DF00000000000000000000000000000000000E3
:101E00005A914A913A912A919A918A917A916A913A
:101E1000221532054205520519F483E00C94C017CF
:101E20008E010E94C01CE80169937993899399936C
:101E30000C94B71700000000000000000000000034
:101E40004A910A91477001C0000F4A95EAF70EB413
:101E50002EBC640C721C821C039CF001F50D0994CD
:101E60000000000000000000000000000000000072
:101E70000000000000000000000000000000000062
:101E80004A911A910A914F7002C0110F001F4A9592
:101E9000E2F70EB42EBC640C721C821C039CF00191
:101EA000F50D099400000000000000000000000093
:101EB0000000000000000000000000000000000022
:101EC0004A912A911A910A914F7103C0220F111F52
:101ED000001F4A95DAF70EB42EBC640C721C821CEB
:101EE000039CF001F50D09940000000000000000C3
:101EF00000000000000000000000000000000000E2
:101F00004A913A912A911A910A914F7104C0330F64
:101F1000221F111F001F4A95D2F70EB42EBC640C6D
:101F2000721C821C039CF001F50D09940000000056
:101F300000000000000000000000000000000000A1
:101F40004A910A91477001C006954A95EAF70EB486
:101F50002EBC640C721C821C039CF001F50D0994CC
:101F60000000000000000000000000000000000071
:101F70000000000000000000000000000000000061
:101F80004A911A910A914F7002C0169507954A9589
:101F9000E2F70EB42EBC640C721C821C039CF00190
:101FA000F50D099400000000000000000000000092
:101FB0000000000000000000000000000000000021
:101FC0004A912A911A910A914F7103C0269517954B
:101FD00007954A95DAF70EB42EBC640C721C821C6D
:101FE000039CF001F50D09940000000000000000C2
:101FF00000000000000000000000000000000000E1
:102000004A913A912A911A910A914F7104C03695DA
:102010002795179507954A95D2F70EB42EBC640CF8
:10202000721C821C039CF001F50D09940000000055
:1020300000000000000000000000000000000000A0
:102040004A910A91477001C005954A95EAF70EB486
:102050002EBC640C721C821C039CF001F50D0994CB
:102060000000000000000000000000000000000070
:102070000000000000000000000000000000000060
:102080004A911A910A914F7002C0159507954A9589
:10209000E2F70EB42EBC640C721C821C039CF0018F
:1020A000F50D099400000000000000000000000091
:1020B0000000000000000000000000000000000020
:1020C0004A912A911A910A914F7103C0259517954B
:1020D00007954A95DAF70EB42EBC640C721C821C6C
:1020E000039CF001F50D09940000000000000000C1
:1020F00000000000000000000000000000000000E0
:102100004A913A912A911A910A914F7104C03595DA
:102110002795179507954A95D2F70EB42EBC640CF7
:10212000721C821C039CF001F50D09940000000054
:10213000000000000000000000000000000000009F
:10214000AA90EA90EA20E9920EB42EBC640C721CAC
:10215000821C039CF001F50D0994000000000000B2
:10216000000000000000000000000000000000006F
:10217000000000000000000000000000000000005F
:10218000BA90AA90FA90EA90EA20FB20E992F9929C
:102190000EB42EBC640C721C821C039CF001F50D65
:1021A0000994000000000000000000000000000092
:1021B000000000000000000000000000000000001F
:1021C000CA90BA90AA900A91FA90EA90EA20FB206D
:1021D0000C21E992F99209930EB42EBC640C721C86
:1021E000821C039CF001F50D099400000000000022
:1021F00000000000000000000000000000000000DF
:10220000DA90CA90BA90AA901A910A91FA90EA903C
:10221000EA20FB200C211D21E992F99209931993E0
:102220000EB42EBC640C721C821C039CF001F50DD4
:102230000994000000000000000000000000000001
:10224000AA90EA90EA28E9920EB42EBC640C721CA3
:10225000821C039CF001F50D0994000000000000B1
:10226000000000000000000000000000000000006E
:10227000000000000000000000000000000000005E
:10228000BA90AA90FA90EA90EA28FB28E992F9928B
:102290000EB42EBC640C721C821C039CF001F50D64
:1022A0000994000000000000000000000000000091
:1022B000000000000000000000000000000000001E
:1022C000CA90BA90AA900A91FA90EA90EA28FB285C
:1022D0000C29E992F99209930EB42EBC640C721C7D
:1022E000821C039CF001F50D099400000000000021
:1022F00000000000000000000000000000000000DE
:10230000DA90CA90BA90AA901A910A91FA90EA903B
:10231000EA28FB280C291D29E992F99209931993BF
:102320000EB42EBC640C721C821C039CF001F50DD3
:102330000994000000000000000000000000000000
:10234000AA90EA90EA24E9920EB42EBC640C721CA6
:10235000821C039CF001F50D0994000000000000B0
:10236000000000000000000000000000000000006D
:10237000000000000000000000000000000000005D
:10238000BA90AA90FA90EA90EA24FB24E992F99292
:102390000EB42EBC640C721C821C039CF001F50D63
:1023A0000994000000000000000000000000000090
:1023B000000000000000000000000000000000001D
:1023C000CA90BA90AA900A91FA90EA90EA24FB2463
:1023D0000C25E992F99209930EB42EBC640C721C80
:1023E000821C039CF001F50D099400000000000020
:1023F00000000000000000000000000000000000DD
:10240000DA90CA90BA90AA901A910A91FA90EA903A
:10241000EA24FB240C251D25E992F99209931993CE
:102420000EB42EBC640C721C821C039CF001F50DD2
:1024300009940000000000000000000000000000FF
:10244000AA90A094A99200C00EB42EBC640C721C79
:10245000821C039CF001F50D0994000000000000AF
:10246000000000000000000000000000000000006C
:10247000000000000000000000000000000000005C
:10248000BA90AA90A094B094A992B9920EB42EBC1E
:10249000640C721C821C039CF001F50D0994000071
:1024A000000000000000000000000000000000002C
:1024B000000000000000000000000000000000001C
:1024C000CA90BA90AA90A094B094C094A992B992DC
:1024D000C9920EB42EBC640C721C821C039CF001C9
:1024E000F50D09940000000000000000000000004D
:1024F00000000000000000000000000000000000DC
:10250000DA90CA90BA90AA90A094B094C094D09453
:10251000A992B992C992D9920EB42EBC640C721CC5
:10252000821C039CF001F50D0994000000000000DE
:10253000000000000000000000000000000000009B
:102540000A9000E0021001E009930EB42EBC640C66
:10255000721C821C039CF001F50D09940000000020
:10256000000000000000000000000000000000006B
:10257000000000000000000000000000000000005B
:102580000A901A90012800E0021001E009930EB4AD
:102590002EBC640C721C821C039CF001F50D099486
:1025A000000000000000000000000000000000002B
:1025B000000000000000000000000000000000001B
:1025C0000A901A9001281A90012800E0021001E0F8
:1025D00009930EB42EBC640C721C821C039CF00187
:1025E000F50D09940000000000000000000000004C
:1025F00000000000000000000000000000000000DB
:102600000A901A9001281A9001281A90012800E0D7
:10261000021001E009930EB42EBC640C721C821CE3
:10262000039CF001F50D099400000000000000007B
:10263000000000000000000000000000000000009A
:10264000AA90EA9021E0EA1408F020E029930EB461
:102650002EBC640C721C821C039CF001F50D0994C5
:10266000000000000000000000000000000000006A
:10267000000000000000000000000000000000005A
:10268000BA90AA90FA90EA9021E0EA14FB0408F0CC
:1026900020E029930EB42EBC640C721C821C039C97
:1026A000F001F50D0994000000000000000000009A
:1026B000000000000000000000000000000000001A
:1026C000CA90BA90AA900A91FA90EA9021E0EA148E
:1026D000FB040C0508F020E029930EB42EBC640C1A
:1026E000721C821C039CF001F50D0994000000008F
:1026F00000000000000000000000000000000000DA
:10270000DA90CA90BA90AA901A910A91FA90EA9037
:1027100021E0EA14FB040C051D0508F020E02993D4
:102720000EB42EBC640C721C821C039CF001F50DCF
:1027300009940000000000000000000000000000FC
:10274000AA90EA9021E0EA140CF020E029930EB45C
:102750002EBC640C721C821C039CF001F50D0994C4
:102760000000000000000000000000000000000069
:102770000000000000000000000000000000000059
:10278000BA90AA90FA90EA9021E0EA14FB040CF0C7
:1027900020E029930EB42EBC640C721C821C039C96
:1027A000F001F50D09940000000000000000000099
:1027B0000000000000000000000000000000000019
:1027C000CA90BA90AA900A91FA90EA9021E0EA148D
:1027D000FB040C050CF020E029930EB42EBC640C15
:1027E000721C821C039CF001F50D0994000000008E
:1027F00000000000000000000000000000000000D9
:10280000DA90CA90BA90AA901A910A91FA90EA9036
:1028100021E0EA14FB040C051D050CF020E02993CF
:102820000EB42EBC640C721C821C039CF001F50DCE
:1028300009940000000000000000000000000000FB
:10284000AA90EA9021E0AE1408F420E029930EB497
:102850002EBC640C721C821C039CF001F50D0994C3
:102860000000000000000000000000000000000068
:102870000000000000000000000000000000000058
:10288000AA90BA90EA90FA9021E0AE14BF0408F43E
:1028900020E029930EB42EBC640C721C821C039C95
:1028A000F001F50D09940000000000000000000098
:1028B0000000000000000000000000000000000018
:1028C000AA90BA90CA90EA90FA900A9121E0AE14C8
:1028D000BF04C00608F420E029930EB42EBC640C9B
:1028E000721C821C039CF001F50D0994000000008D
:1028F00000000000000000000000000000000000D8
:10290000AA90BA90CA90DA90EA90FA900A911A9135
:1029100021E0AE14BF04C006D10608F420E02993DC
:102920000EB42EBC640C721C821C039CF001F50DCD
:1029300009940000000000000000000000000000FA
:10294000AA90EA9021E0AE140CF420E029930EB492
:102950002EBC640C721C821C039CF001F50D0994C2
:102960000000000000000000000000000000000067
:102970000000000000000000000000000000000057
:10298000AA90BA90EA90FA9021E0AE14BF040CF439
:1029900020E029930EB42EBC640C721C821C039C94
:1029A000F001F50D09940000000000000000000097
:1029B0000000000000000000000000000000000017
:1029C000AA90BA90CA90EA90FA900A9121E0AE14C7
:1029D000BF04C0060CF420E029930EB42EBC640C96
:1029E000721C821C039CF001F50D0994000000008C
:1029F00000000000000000000000000000000000D7
:102A0000AA90BA90CA90DA90EA90FA900A911A9134
:102A100021E0AE14BF04C006D1060CF420E02993D7
:102A20000EB42EBC640C721C821C039CF001F50DCC
:102A300009940000000000000000000000000000F9
:102A40000A9001E0021000E009930EB42EBC640C61
:102A5000721C821C039CF001F50D0994000000001B
:102A60000000000000000000000000000000000066
:102A70000000000000000000000000000000000056
:102A80000A9000000E94F416021421F43801822EEC
:102A90000C9460172EBC0E9429170EB42EBC640C37
:102AA000721C821C039CF001F50D099400000000CB
:102AB0000000000000000000000000000000000016
:102AC0000A91640C721C721C00C00EB4021541F411
:102AD000102C110C1108600C711C811C0C946017D7
:102AE0002EBC0E942C170C94B717000000000000A9
:102AF00000000000000000000000000000000000D6
:102B00000A9000000E94F416021421F03801822E6F
:102B10000C9460172EBC0E9429170EB42EBC640CB6
:102B2000721C821C039CF001F50D0994000000004A
:102B30000000000000000000000000000000000095
:102B40000A91640C721C721C00C00EB4021541F094
:102B5000102C110C1108600C711C811C0C94601756
:102B60002EBC0E942C170C94B71700000000000028
:102B70000000000000000000000000000000000055
:102B80000E94F3163801822E0C946017000000009A
:102B90000000000000000000000000000000000035
:102BA0000000000000000000000000000000000025
:102BB0000000000000000000000000000000000015
:102BC000C895C89500000EB40394102C110C110880
:102BD000600C711C811C0C94601700000000000048
:102BE00000000000000000000000000000000000E5
:102BF00000000000000000000000000000000000D5
:102C0000A0916406AD3518F086E00C94C017B6E0CC
:102C10000E94F4166D927D928D92A0936406380105
:102C2000822E0C94601700000000000000000000DD
:102C30000000000000000000000000000000000094
:102C4000A0916406AD3518F086E00C94C017B6E08C
:102C5000640C721C821C6D927D928D92A09364060E
:102C60000EB4102C110C1108600C711C811C28C1B1
:102C70000000000000000000000000000000000054
:102C8000A0916406B6E08E907E906E90A09364064C
:102C900017C100000000000000000000000000005C
:102CA0000000000000000000000000000000000024
:102CB0000000000000000000000000000000000014
:102CC000F2E000C00E940317E02FF10F0590F4918D
:102CD000E02DA4D00995ACD00EB42EBC640C721CAF
:102CE000821C039CF001F50D099400000000000017
:102CF00000000000000000000000000000000000D4
:102D0000F2E0640C721C821CC895EEB52EBC0590D6
:102D1000F491E02D83D009958BD00EB42EBC640CB9
:102D2000721C821C039CF001F50D09940000000048
:102D30000000000000000000000000000000000093
:102D4000DA90CA90BA90AA901A910A91FA90EA90F1
:102D5000EA9C90010A9DA001FA9C300D411D521D74
:102D6000EB9C300D411D521DFB9C400D511DEC9CF8
:102D7000400D511D1A9D500D0B9D500DFC9C500D8A
:102D8000ED9C500D29933993499359930EB42EBC61
:102D9000640C721C821C039CF001F50D0994C8950B
:102DA0000EB52EBC14E0610E721C821C0E942E1700
:102DB0001EB52EBC0E942A172EB52EBC0E942A17C3
:102DC0003EB52EBC0895C8950EB52EBC13E0610E1D
:102DD000721C821C0E942E171EB52EBC0E942A1740
:102DE0002EB52EBC0895C8950EB52EBC13E0610E0D
:102DF000721C821C0E942E171EB52EBC0E942A1720
:102E00002EB50895C8950EB52EBC12E0610E721C49
:102E1000821C0E942E171EB52EBC0895609261067A
:102E20007092620680926306C09360061124089532
:102E3000222400E2302E01E0402E05E0502E60906A
:102E400061067090620680906306C0916006D1E0D2
:102E500008950000000000000000000000000000D5
:102E60000000000008950E940317A801CA90BA90BC
:102E7000AA90FA90EA90DA900E94E416A016B106A1
:102E8000C20610F082E07CC0A49ED00CE11CF21CB3
:102E9000A59EE00CF11CB49EE00CF11CB59EF00C5C
:102EA000C49EF00CD992E992F9920EB42EBC640C37
:102EB000721C821C039CF001F50D099400000000B7
:102EC000599A23E059982EBD0091820610918306ED
:102ED000070D181D0E942F171EBD0E9429170EBD39
:102EE0000E9429176EBC0E9429172EBC0E94291728
:102EF0000EB42EBC640C721C821C039CF001F50DF8
:102F00000994000000000000000000000000000024
:102F100000000000000000000000000000000000B1
:102F200000000000000000000000000000000000A1
:102F30000000000000000000000000000000000091
:102F4000599A33E059983EBDA0908206B09083060E
:102F5000A10EB21E0E942F17BEBC0E942917AEBC44
:102F60000E9429170EBD0E9429172EBC08950EB489
:102F70002EBC640C721C821C039CF001F50D09949C
:102F80004DDF0E94C5170C940000CF93DF93CDB79F
:102F9000DEB7A0970FB6F894DEBF0FBECDBF182FD7
:102FA0008093650690E0E4E8F6E091119FEF8FEFE3
:102FB00091939193919391938150D0F7599A41E2D3
:102FC00050E060EB71E084E896E00E94B71CE4E01A
:102FD000F7E080E09CE091938F5F8038E1F7212F4C
:102FE0002150330BF901EE0FFF1FE056FE4FE59025
:102FF000F49021E0A70160E480E00E949E0321E0BC
:10300000A70160E180E00E949E03123008F4B9C07D
:103010002090610630906206409063066CE070E09C
:1030200080E00E946A020E944E02B82E0E944E0268
:10303000182F0E944E02082F0E944E02682E712CFB
:10304000812C862C77246624702A612A0E944E02E5
:10305000182F0E944E02082F0E943C0290E0A0E030
:1030600077276627702B612B0E946A02C12CD12C16
:10307000E12C10E000E0F12CC214D304E404A0F52C
:103080000E944E0287FD08C090E00196C80ED91E2E
:10309000E11C97FDEA94F0CF8D3F28F40F571109FA
:1030A000080F111DE9CF8D3F21F40E944E02F82E2A
:1030B000E3CF8E3F41F40E944E02082F10E00E94A1
:1030C0004E02182BD9CF0E944E02C82ED12CE12CD3
:1030D0000E944E0290E0982F8827A0E0C82AD92AA3
:1030E000EA2A0E944E02C8CF0E943C02FB1408F05C
:1030F00048C030E2F39EC0011124482D9301280FEF
:10310000391F411D97FD4A95842FB9010E946A021B
:1031100060E270E0CE0101967C010E94420221E053
:103120004AE951E060E280E00E949E0320E0A701AE
:1031300060E284E10E949E0321E044E951E068E2FC
:1031400080E00E949E03FE0136962AE030E0C8012E
:10315000B9010E94011D805D82938B01EE15FF0570
:10316000B1F71E8280E0A701480F511DFA0190813E
:10317000903311F48F5FF7CF20E068E284E10E9482
:103180009E035E9880E00E9400025E9A0E94850283
:10319000FDCFE0916006EF3F19F485E00E94C5176E
:1031A00091E09E0F90936006F0E0E050FF4F808327
:1031B0000895CF93E0916006F1E0C291E09360063C
:1031C0000E947D02C82381E009F080E0CF910C9439
:1031D000C918CF93E0916006F1E0C291E0936006D8
:1031E0000E947D02C82381E009F480E0CF910C9415
:1031F000C918CF93E0916006F1E0C291E0936006B8
:103200000E947D029C2F982381E09C1380E0CF9147
:103210000C94C918E0916006F1E08291E093600699
:1032200090917706982329F090917606982381E073
:1032300009F080E00C94C918E0916006F1E08291F9
:10324000E093600690917706982329F49091760692
:10325000982381E009F480E00C94C918CF93C091C1
:103260007406CC2339F010927406C0E08C2FCF91F5
:103270000C94C91890917A0680917506292F281B05
:10328000822F20916606821730F48F5F821770F7C5
:103290000E948502EBCF81E08093740690937506BF
:1032A000E2E7F6E080819181019680839183C1E01D
:1032B000DDCF2F923F925F926F927F928F929F927B
:1032C000AF92BF92CF92DF92EF92FF920F931F9334
:1032D000CF93DF93E0916006F1E082919291C92E45
:1032E000D82E829192912291622E792E882E8291EF
:1032F0009291092F182F82919291C92FD82FE09384
:1033000060060E943C02882DB3010E946A020E945E
:103310004E02982E0E944E02582E0E944E02A82E57
:10332000B12C0E944E02E82EF12CFE2CEE24EA0C69
:10333000FB1C0E943C02CE14DF0418F087E00E94C0
:10334000C51762E0811163E0C038D1050CF038C1C7
:10335000003411050CF034C1892D90E09C012C0F34
:103360003D1F121613060CF02BC1252D30E0A901CC
:10337000400F511F141615060CF022C1322F2227C0
:1033800019012928392A25E0620E711C811CC114FB
:10339000D104A1F056945694569460FD550C599C56
:1033A000C0018D9D700C811C9C9D700C811C9D9D8D
:1033B000800C8C9D600C711C1124811CE32DA4E8F1
:1033C000B6E0DC2EFF24322CE695E695E695F1E09A
:1033D00001FDF4E000FDFF0F02FDF2957FEF7F9FFE
:1033E000A00140955095159507951595079515954C
:1033F0000795302F3F3F4CF43095E31B60FD330FB2
:10340000329D600C711C8F1C3FEFD7FF0BC03C0E30
:1034100060FF02C0CC0FDD1F6C1A7D0A8F08D7FD3C
:103420008394DD2470E837030D0CA00DB11D7D19C8
:10343000371608F0372E77E0731B7E1714F4E72F4A
:10344000F39470E87319822D992761FD02C08319E6
:10345000990B60FF02C0880F991F11245F2EDE2E8A
:1034600000908206700C00908306801C19C0599849
:1034700023E02EBD680E791E811CAA24231409F0B6
:10348000A3940CD08EBC07D07EBC05D06EBC03D0FC
:103490001EBC03D00895C8950000C895C89508952E
:1034A000681A790A8108E3DF31151CF0DD2071F517
:1034B00064C0A058BF4FC32C60FD0CC0CEB51EBC6D
:1034C000C59DBC90B522B128BD92C89500C0CA94D4
:1034D000A9F711C0CEB51EBCC59DE001DEDF4EB51B
:1034E0001EBC459DA001BC905095B522BD2ABD9241
:1034F000C895CA9479F71124A319B109DA9409F48B
:103500005CC0AA2019F00DB4599AB1DFFD01E05852
:10351000FF4FC32C60FD0EC0CEB51EBCC59DBC9038
:10352000B422B028BD92B080B522B128B192CA941D
:1035300099F716C0CEB51EBCC59DE001BC90508168
:10354000AEDF00C04EB51EBC459D0094B020BC2A25
:10355000BD92109451215D2B51930000CA9451F7F4
:103560001124A70FB11DDA9461F6FF2031F1AA20D2
:1035700021F00DB4599A7BDFC89560FD0CC0CEB523
:103580001EBCC59DBC90B422B028BD92C89500C099
:103590003A94A9F712C0CEB51EBCC59DE0017DDFEF
:1035A000DEB41EBCD59CD02CBC90D094BD20BC2ACF
:1035B000BD92C8953A9479F7C8951124599A0DB4DB
:1035C000609161067091620680916306DF91CF91F0
:1035D0001F910F91FF90EF90DF90CF90BF90AF9031
:1035E0009F908F907F906F905F903F902F900C9462
:1035F0006A02E0916006F1E08291E0936006811139
:1036000003C084E00E94C517089500000000000078
:1036100000000000000000000000000000000000AA
:10362000000000000000000000000000000000009A
:10363000000000000000000000000000000000008A
:10364000000000000000000000000000000000007A
:10365000000000000000000000000000000000006A
:10366000000000000000000000000000000000005A
:10367000000000000000000000000000000000004A
:10368000000000000000000000000000000000003A
:10369000000000000000000000000000000000002A
:1036A000000000000000000000000000000000001A
:1036B000000000000000000000000000000000000A
:1036C00000000000000000000000000000000000FA
:1036D00000000000000000000000000000000000EA
:1036E00000000000000000000000000000000000DA
:1036F00000000000000000000000000000000000CA
:1037000000000000000000000000000000000000B9
:1037100000000000000000000000000000000000A9
:103720000000000000000000000000000000000099
:103730000000000000000000000000000000000089
:103740000000000000000000000000000000000079
:103750000000000000000000000000000000000069
:103760000000000000000000000000000000000059
:103770000000000000000000000000000000000049
:103780000000000000000000000000000000000039
:103790000000000000000000000000000000000029
:1037A0000000000000000000000000000000000019
:1037B0000000000000000000000000000000000009
:1037C00000000000000000000000000000000000F9
:1037D00000000000000000000000000000000000E9
:1037E00000000000000000000000000000000000D9
:1037F00000000000000000000000000000000000C9
:1038000091E09093E0001092E2001092E10080E2DB
:103810008093D8001092D7008091650080688093D3
:103820006500789483E084BD83E085BD90936E004D
:10383000E1E8F0E083E08083E0E881E08083E1E993
:1038400083E08083E0E981E08083E1EC87E08083AE
:10385000E3EC81E08083E0EC82E08083E2EC81E0D5
:103860008083EAE787E080838068808381EC8093AF
:103870007C0081EF85B987EE84B982E38BB982EF52
:103880008AB9769A6E9880EF81BB10BA80E58CBDBC
:103890009DBD0E940F025F9A0E940F025C98EEE1AC
:1038A000F2E085918EBD00000DB407FEFDCFEB3236
:1038B000C1F75C9A81E88093640081E080936500A1
:1038C0005E9AE4E1F0E090E080E025913591559139
:1038D00045912851354909F4CA0180938206909395
:1038E000830659988BEA0E947602599A8091820643
:1038F00090918306892B59F46EEF7FEF8FEF0E9432
:103900006A0262E070E082E896E00E944202C1E250
:1039100000E011E086E6A82E85E0B82E94E1C92EDD
:10392000D12CE12CC0936606F801C50111920197D4
:10393000E9F760E070E080E00E946A020E945902AC
:10394000DC010E945402CC018C3B9A40A04CBB4A43
:1039500019F081E00E94C517C0926106D0926206FC
:10396000E09263060E9418170C946017DBCFFB01EE
:10397000DC0102C005900D9241505040D8F70895E7
:10398000052E97FB1EF400940E94D71C57FD07D00C
:103990000E94DF1C07FC03D04EF40C94D71C5095FA
:1039A0004095309521953F4F4F4F5F4F089590952B
:1039B0008095709561957F4F8F4F9F4F0895A1E23D
:1039C0001A2EAA1BBB1BFD010DC0AA1FBB1FEE1F99
:1039D000FF1FA217B307E407F50720F0A21BB30BE4
:1039E000E40BF50B661F771F881F991F1A9469F760
:1039F00060957095809590959B01AC01BD01CF01BC
:103A00000895AA1BBB1B51E107C0AA1FBB1FA61725
:103A1000B70710F0A61BB70B881F991F5A95A9F777
:103A200080959095BC01CD01089597FB072E16F463
:103A3000009407D077FD09D00E94011D07FC05D036
:103A40003EF4909581959F4F0895709561957F4FB5
:063A50000895F894FFCF79
:103A56000000000000000000000000000000000060
:103A66000000000000000000000000000000000050
:103A76000000000000000000000000000000000040
:103A86000000000000000000000000000000000030
:083FB6000000000000001000F3
:00000001FF
