:100000000C946D1B0C948A1B0C948A1B0C948A1BF9
:100010000C948A1B0C948A1B0C948A1B0C948A1BCC
:100020000C948A1B0C948A1B0C948A1B0C948A1BBC
:100030000C948A1B0C948A1B0C948A1B0C948A1BAC
:100040000C948A1B0C94C0310C948A1B0C948A1B50
:100050000C948A1B0C948A1B0C948A1B0C943F2BC7
:100060000C948A1B0C948A1B0C948A1B0C948A1B7C
:100070000C948A1B0C948A1B0C948A1B0C948A1B6C
:100080000C948A1B0C948A1B0C948A1B0C948A1B5C
:100090000C948A1B0C948A1B0C948A1B0C948A1B4C
:1000A0000C948A1B0C948A1B0C948A1B084AD73B1D
:1000B0003BCE016E84BCBFFDC12F3D6C74319ABD37
:1000C00056833DDA3D00C77F11BED9E4BB4C3E915B
:1000D0006BAAAABE000000803F05A84CCDB2D44E4A
:1000E000B93836A9020C50B9918688083CA6AAAA4C
:1000F0002ABE000000803F0664EC1B3C04BC163E98
:100100003BE5B93CC93C37C29E5A3D660498083E5F
:10011000EA69AAAA3E000000803F07634236B79B07
:10012000D8A71A39685618AEBAAB558C1D3CB7CC57
:100130005763BD6DEDFD753EF6177231BF000000CF
:10014000803F08000000BE922449123EABAAAA2AB2
:10015000BECDCCCC4C3E00000080BEABAAAAAA3ECD
:1001600000000000BF000000803F00000000000809
:100170004178D3BB4387D1133D190E3CC3BD4282A6
:10018000AD2B3E68EC8276BED98FE1A93E4C80EF64
:10019000FFBE01C4FF7F3F00000000000000000020
:1001A000000000000000000000000000000000004F
:1001B000000000000000000000000000000000003F
:1001C000000000000000000000000000000000002F
:1001D000000000000000000000000000000000001F
:1001E000000000000000000000000000000000000F
:1001F00000000000000000000000000000000000FF
:1002000000C000C0640C721CF8942EBC0EB478942C
:10021000821C039CF001F50D099400000000000011
:100220002041424320496E74657270726574657234
:100230002062792050657465722042726F776E205B
:10024000CF3FB8F49992640CAFB6F8942EBC9EB42C
:10025000AFBE721C821CC895C895C895640C721CF0
:10026000F8942EBC0EB47894821C039CF001F50D1A
:10027000099485E00E94EE180000000000000000D4
:10028000CE3F18F085E00E94EE18999200E0902E83
:100290000EB42EBC640C721C821C039CF001F50D84
:1002A0000994E0913006F1E00290E09330060110ED
:1002B000089584E00E94EE189895089500000000CB
:1002C000CE3F18F085E00E94EE18999201E0902E42
:1002D0000EB42EBC640C721C821C039CF001F50D44
:1002E00009949A918A917A916A910E9493386993BC
:1002F000799389939993089580917A0A0C94D52DD6
:10030000CE3F18F085E00E94EE18999202E0902E00
:100310000EB42EBC640C721C821C039CF001F50D03
:1003200009949A918A917A916A910E9448386993C6
:1003300079938993999308950000000000000000CC
:10034000CE3F18F085E00E94EE18999203E0902EBF
:100350000EB42EBC640C721C821C039CF001F50DC3
:1003600009949A918A917A916A910E9421356993B0
:10037000799389939993089500000000000000008C
:10038000CE3F18F085E00E94EE18999204E0902E7E
:100390000EB42EBC640C721C821C039CF001F50D83
:1003A00009949A918A917A916A910E942838699366
:1003B000799389939993089500000000000000004C
:1003C000CE3F18F085E00E94EE18999205E0902E3D
:1003D0000EB42EBC640C721C821C039CF001F50D43
:1003E00009949A918A917A916A910E94FA35699357
:1003F000799389939993089500000000000000000C
:10040000CE3F18F085E00E94EE18999206E0902EFB
:100410000EB42EBC640C721C821C039CF001F50D02
:1004200009949A918A917A916A910E940A35699306
:1004300079938993999308950000000000000000CB
:10044000CE3F18F085E00E94EE18999207E0902EBA
:100450000EB42EBC640C721C821C039CF001F50DC2
:1004600009949A918A917A916A910E94523869937B
:10047000799389939993089500000000000000008B
:10048000CE3F18F085E00E94EE18999208E0902E79
:100490000EB42EBC640C721C821C039CF001F50D82
:1004A00009940000000000000000000000000000AF
:1004B000000000000000000000000000000000003C
:1004C000CE3F18F085E00E94EE18999200E1902E40
:1004D0000EB42EBC640C721C821C039CF001F50D42
:1004E000099400000000000000000000000000006F
:1004F00000000000000000000000000000000000FC
:10050000CE3F18F085E00E94EE18999200E2902EFE
:100510000EB42EBC640C721C821C039CF001F50D01
:10052000099400000000000000000000000000002E
:1005300000000000000000000000000000000000BB
:10054000CE3F18F085E00E94EE18999200E4902EBC
:100550000EB42EBC640C721C821C039CF001F50DC1
:1005600009940000000000000000000000000000EE
:10057000000000000000000000000000000000007B
:10058000CE3F18F085E00E94EE18999200E8902E78
:100590000EB42EBC640C721C821C039CF001F50D81
:1005A0000994640C721CF8942EBC0EB47894821CCE
:1005B000039CF001F50D099400000000000000000C
:1005C000CD3F60F49992299299240EB42EBC640C0C
:1005D000721C821C039CF001F50D099485E00E94B9
:1005E000EE18000000000000000000000000000005
:1005F00000000000000000000000000000000000FB
:10060000CC3F68F499922992299299240EB42EBC79
:10061000640C721C821C039CF001F50D099485E0AA
:100620000E94EE1800000000000000000000000022
:1006300000000000000000000000000000000000BA
:10064000CB3F70F4999229922992299299240EB461
:100650002EBC640C721C821C039CF001F50D0994E5
:1006600085E00E94EE18000000000000000000007D
:10067000000000000000000000000000000000007A
:10068000C73F90F49992299229922992299229920E
:100690002992299299240EB42EBC640C721C821CDF
:1006A000039CF001F50D099485E00E94EE1800000E
:1006B000000000000000000000000000000000003A
:1006C000CF3ED0F499922992299229922992299287
:1006D0002992299229922992299229922992299242
:1006E0002992299299240EB42EBC640C721C821C8F
:1006F000039CF001F50D099485E00E94EE180000BE
:10070000CD3FD0F7999202E0AFB6F8942EBC0EB46C
:10071000099209D02EBC9EB4AFBE600E721C821C22
:10072000C895C8953ECF000000000000000000C042
:10073000089500000000000000000000000000001C
:10074000CC3FA8F4999203E0AFB6F8942EBC0EB457
:100750000992E9DF2EBC0EB40992E5DF2EBC9EB4EF
:10076000AFBE600E721C821CC895C8951ACF85E07A
:100770000E94EE18000000000000000000000000D1
:10078000CB3FA8F7999204E0AFB6F8942EBC0EB414
:100790000992600E721C821CC9DF2EBC0EB4099235
:1007A000C2DF2EBC0EB40992BEDF2EBC9EB4AFBE1B
:1007B000BEDFF7CE000000000000000000000000D7
:1007C000CE3F68F49992990C990800000EB42EBCA3
:1007D000640C721C821C039CF001F50D099485E0E9
:1007E0000E94EE1800000000000000000000000061
:1007F00000000000000000000000000000000000F9
:10080000CD3F68F49992990C990899920EB42EBC38
:10081000640C721C821C039CF001F50D099485E0A8
:100820000E94EE1800000000000000000000000020
:1008300000000000000000000000000000000000B8
:10084000CC3F70F49992990C9908999299920EB4B0
:100850002EBC640C721C821C039CF001F50D0994E3
:1008600085E00E94EE18000000000000000000007B
:100870000000000000000000000000000000000078
:10088000CE3F60F49992640C721CF8942EBC0EB4A6
:100890007894821C039CF001F50D099485E00E9478
:1008A000EE18000000000000000000000000000042
:1008B0000000000000000000000000000000000038
:1008C000CE3F68F49992DE01A2509C900EB42EBCEB
:1008D000640C721C821C039CF001F50D099485E0E8
:1008E0000E94EE1800000000000000000000000060
:1008F00000000000000000000000000000000000F8
:10090000CE3F68F49992DE01A3509C900EB42EBCA9
:10091000640C721C821C039CF001F50D099485E0A7
:100920000E94EE180000000000000000000000001F
:1009300000000000000000000000000000000000B7
:10094000CE3F68F49992DE01A4509C900EB42EBC68
:10095000640C721C821C039CF001F50D099485E067
:100960000E94EE18000000000000000000000000DF
:100970000000000000000000000000000000000077
:10098000CE3F68F49992DE01A5509C900EB42EBC27
:10099000640C721C821C039CF001F50D099485E027
:1009A0000E94EE180000000000000000000000009F
:1009B0000000000000000000000000000000000037
:1009C000CE3F68F49992DE01A6509C900EB42EBCE6
:1009D000640C721C821C039CF001F50D099485E0E7
:1009E0000E94EE180000000000000000000000005F
:1009F00000000000000000000000000000000000F7
:100A0000CE3F68F49992DE01A7509C900EB42EBCA4
:100A1000640C721C821C039CF001F50D099485E0A6
:100A20000E94EE180000000000000000000000001E
:100A300000000000000000000000000000000000B6
:100A4000CE3F68F49992DE01A8509C900EB42EBC63
:100A5000640C721C821C039CF001F50D099485E066
:100A60000E94EE18000000000000000000000000DE
:100A70000000000000000000000000000000000076
:100A8000CD3F78F49992DE01A2500D9009929D908D
:100A90000EB42EBC640C721C821C039CF001F50D7C
:100AA000099485E00E94EE1800000000000000009C
:100AB0000000000000000000000000000000000036
:100AC000CD3F78F49992DE01A3500D9009929D904C
:100AD0000EB42EBC640C721C821C039CF001F50D3C
:100AE000099485E00E94EE1800000000000000005C
:100AF00000000000000000000000000000000000F6
:100B0000CD3F78F49992DE01A4500D9009929D900A
:100B10000EB42EBC640C721C821C039CF001F50DFB
:100B2000099485E00E94EE1800000000000000001B
:100B300000000000000000000000000000000000B5
:100B4000CD3F78F49992DE01A5500D9009929D90C9
:100B50000EB42EBC640C721C821C039CF001F50DBB
:100B6000099485E00E94EE180000000000000000DB
:100B70000000000000000000000000000000000075
:100B8000CD3F78F49992DE01A6500D9009929D9088
:100B90000EB42EBC640C721C821C039CF001F50D7B
:100BA000099485E00E94EE1800000000000000009B
:100BB0000000000000000000000000000000000035
:100BC000CD3F78F49992DE01A7500D9009929D9047
:100BD0000EB42EBC640C721C821C039CF001F50D3B
:100BE000099485E00E94EE1800000000000000005B
:100BF00000000000000000000000000000000000F5
:100C0000CD3F78F49992DE01A8500D9009929D9005
:100C10000EB42EBC640C721C821C039CF001F50DFA
:100C2000099485E00E94EE1800000000000000001A
:100C300000000000000000000000000000000000B4
:100C4000CD3F78F49992DE01A9500D9009929D90C4
:100C50000EB42EBC640C721C821C039CF001F50DBA
:100C6000099485E00E94EE180000000000000000DA
:100C70000000000000000000000000000000000074
:100C8000CE3F18F085E00E94EE189992AFB6F89426
:100C90002EBC0EB4AFBE640C721C821CDE01A01907
:100CA0009C9000C000C0640C721CF8942EBC0EB462
:100CB0007894821C039CF001F50D0994000000005B
:100CC000CD3F18F085E00E94EE189992AFB6F894E7
:100CD0002EBC0EB4AFBE640C721C821CDE01A019C7
:100CE0000D909C900992640C721CF8942EBC0EB46A
:100CF0007894821C039CF001F50D0994000000001B
:100D0000CB3F18F085E00E94EE189992640CDE014A
:100D10000EB42EBC721C821CA0190D911D912D9138
:100D20009D900993199329930EB42EBC640C721CE8
:100D3000821C039CF001F50D0994000000000000E6
:100D4000C895C895F8942EBC0EB5789443E0640E0F
:100D5000721C821CDE01A395B2D0F8942EBC1EB585
:100D60007894A11B069510F499929D9099929D906C
:100D700099929D900A95D1F70EB42EBC000056C0F2
:100D8000C89500C0AFB6F8942EBC0EB4AFBE640CCC
:100D9000721C821C092DDE01A0190C939A90000090
:100DA000640C721CF8942EBC0EB47894821C039CC4
:100DB000F001F50D099400000000000000000000A3
:100DC000C89500C0AFB6F8942EBC0EB4AFBE640C8C
:100DD000721C821C192D0A91DE01A0190D931D931E
:100DE0009A900EB42EBC640C721C821C039CF00101
:100DF000F50D099400000000000000000000000054
:100E0000392D2A911A910A910EB42EBC640C721CD1
:100E1000821CDE01A0190D931D932D933D939A9092
:100E200000000EB42EBC640C721C821C039CF001EA
:100E3000F50D099400000000000000000000000013
:100E4000C895C895F8942EBC0EB5789443E0640E0E
:100E5000721C821CDE01A39530D01EB52EBCA11BD6
:100E6000069510F49E929A909E929A909E929A90D5
:100E70000A95D1F70EB42EBC0000D8CF00000000B8
:100E80009992CF3F19F485E00E94EE18AFB6F8941E
:100E90002EBCAEB542E0640E721C821C0CD02EBC7F
:100EA000BEB5AFBE9C900BD07BCF00000000000011
:100EB0000000000000000000000000000000089595
:100EC0009992CE3F18F085E00E94EE180000F89449
:100ED0002EBCAEB542E0640E721C821CECDF2EBC50
:100EE000BEB578940D919D900993C89559CF000097
:100EF00000000000000000000000000000000000F2
:100F00009992CC3F18F085E00E94EE1800C0AEB573
:100F10002EBC42E0640E721C821CCCDFBEB52EBC1F
:100F20000D911D912D919D9009931993299359CF5E
:100F300000000000000000000000000000000000B1
:100F4000C895C895F8942EBC0EB5789413E0610E40
:100F5000721C821CB2DFF8942EBCAEB57894A8DF68
:100F6000BEB52EBC069510F499929D9099929D90D5
:100F700099929D900A95D1F7000026C100000000CB
:100F8000CF3F18F085E00E94EE189992AFB6F89422
:100F90002EBCAEB5AFBEB2E09C90640C721C821C3D
:100FA000C89500C0640C721CF8942EBC0EB47894E2
:100FB000821C039CF001F50D0994C895000008956A
:100FC000CE3F18F085E00E94EE189992AFB6F894E3
:100FD0002EBCAEB5AFBEB2E09D9099929C90640CD1
:100FE000721C821C0000640C721CF8942EBC0EB49F
:100FF0007894821C039CF001F50D0994089500007B
:10100000CC3F18F085E00E94EE189992B2E0640C93
:10101000AEB52EBC721C821C9D9099929D909992A7
:101020009D9099929C900EB42EBC640C721C821CF4
:10103000039CF001F50D0994000000000000000081
:10104000C89500C0AFB6F8942EBCAEB512E0610EE4
:10105000721C821C30DF2EBCBEB5AFBE9C929A9033
:101060002EDF640C721CF8942EBC0EB47894821C93
:10107000039CF001F50D0994000000000000000041
:10108000C89500C0AFB6F8942EBCAEB512E0610EA4
:10109000721C821C10DF2EBCBEB5AFBE1A911D9310
:1010A0009D929A90C895640C721CF8942EBC0EB454
:1010B0007894821C039CF001F50D09940000000057
:1010C0002A911A910A91F8942EBCAEB5392D42E0BE
:1010D000640E721C821CF0DE2EBCBEB578940D939B
:1010E0001D932D933D939A900000640C721CF8940C
:1010F0002EBC0EB47894821C039CF001F50D09946B
:10110000C895C895F8942EBC0EB5789413E0610E7E
:10111000721C821CD2DEF8942EBCAEB5C8DE2EBC8A
:10112000BEB57894A00FB21D069510F49E929A90C9
:101130009E929A909E929A900A95D1F745C000008F
:10114000292D1A910A91599A33E059983EBDA090E1
:10115000760AB090770AA10EB21EADDEBEBCA5DE47
:10116000AEBCA3DE0EBDA2DE2EBCA0DE9EB4599A9C
:1011700059983EBD0C94B818000000C008950000B6
:10118000292D1A910A9133E000001EB426C0640C88
:10119000721C821CC895C895C895AFB6F8942EBC31
:1011A0000EB4AFBE09921A941414A9F7E6DF9EB4E8
:1011B000599A59983EBD0C94B818000000000000E0
:1011C000B92DAA919D9000C00EB42EBC640C721C67
:1011D000821C039CF001F50D0994599A33E059984B
:1011E0003EBDA090760AB090770AA10EB21E63DED3
:1011F000BEBC5BDEAEBC59DE0EBD58DE2EBCC7CF1A
:10120000B92DAA911D9019929D900EB42EBC640C1C
:10121000721C821C039CF001F50D09940000000073
:1012200000000000000000000000000000000000BE
:1012300000000000000000000000000000000000AE
:10124000B92DAA912C2F640C721C821C0EB42EBCDA
:10125000200D20F1069410F49D9099929D90999202
:101260009D9099920A94D1F7CA950EB42EBC640C45
:10127000721C821C039CF001F50D09940000000013
:10128000B92DAA911A901C929A900EB42EBC640C9F
:10129000721C821C039CF001F50D099485E00E94EC
:1012A000EE18000000000000000000000000000038
:1012B000000000000000000000000000000000002E
:1012C000B92DAA911A900A909A900D921C920EB480
:1012D0002EBC640C721C821C039CF001F50D099459
:1012E00000000000000000000000000000000000FE
:1012F00000000000000000000000000000000000EE
:10130000B92DAA910000640C721C821C0EB42EBC74
:10131000A00DB21D069410F41A901E921A901E92FF
:101320001A901E920A94D1F79A900EB42EBC640CB7
:10133000721C821C039CF001F50D09940000000052
:10134000CA9598800000640C721CF8942EBC0EB4F0
:101350007894821C039CF001F50D099400000000B4
:10136000000000000000000000000000000000007D
:10137000000000000000000000000000000000006D
:10138000C25098800000640C721CF8942EBC0EB4FD
:101390007894821C039CF001F50D09940000000074
:1013A000000000000000000000000000000000003D
:1013B000000000000000000000000000000000002D
:1013C000C35098800000640C721CF8942EBC0EB4BC
:1013D0007894821C039CF001F50D0994000000C074
:1013E0000000000000000000000000000895000060
:1013F00000000000000000000000000000000000ED
:10140000C45098800000640C721CF8942EBC0EB47A
:101410007894821C039CF001F50D09944A91640FA5
:10142000751F6993972E0EB42EBC640C721C821C1F
:10143000039CF001F50D099400000000000000007D
:10144000C89500C0AFB6F8942EBC0EB4AFBE640C05
:10145000721C821CC01518F485E00E94EE18C01999
:10146000988000C0640C721CF8942EBC0EB4789462
:10147000821C039CF001F50D09940000000000009F
:10148000C89500C0AFB6F8942EBC0EB4AFBE640CC5
:10149000721C821CC00D18F485E00E94EE18988022
:1014A000C895640C721CF8942EBC0EB47894821CFF
:1014B000039CF001F50D09940000000000000000FD
:1014C000492D640C721C821C00C0F8942EBC0EB412
:1014D000AFBE401588F49A906A91640F921C69938C
:1014E0000000640C721CF8942EBC0EB47894821C1C
:1014F000039CF001F50D099482E00E94EE180000B3
:10150000492D12E0610EC895F8942EBC0EB5721CE0
:10151000821C66DF2EBC1EB57894411768F7049FC5
:101520005A914A91040E151E0992912C00000EB496
:101530002EBC640C721C821C039CF001F50D0994F6
:10154000592D4A9100C0AFB6F8942EBC0EB514E0E8
:10155000610E721C821C46DF2EBC1EB540DF2EBC05
:101560002EB53DDF2EBC3EB5AFBE4217530720F669
:10157000049FB001059F700D149F700D5A914ECFBE
:10158000A92C9A90EA900FB6F8942EBC0EB5DA907A
:1015900012E0610E721C821C27DF2EBC1EB50FBE2E
:1015A000A11640F4A09ED00CE11C921CD992E992A5
:1015B00000004CC182E00C94EE1800000000000016
:1015C00015DF4EB52EBC15E0610E721C821CC92CB5
:1015D000BA90AA900BDF5EB52EBCFA90EA90DA9032
:1015E00002DF0EB52EBCFADE1EB52EBCF7DE2EB520
:1015F0002EBCA016B106C206E8F60C9463180000D3
:101600004A913A9112E0610EF8942EBC0EB578948E
:10161000721C821C2A914217930660F6049FB00147
:101620009A918A911EB52EBC680F791F099D700D85
:10163000149F700D6993972EA5C000000000000054
:101640000C94801882E00C94EE18B00CC11C289FFA
:10165000C00C199FC00C301B410B920A9CF3B2E0E6
:101660006B0E721C821CA992B992C992399349934C
:10167000EDC0099319936993E9C0000000000000D0
:101680006A915A914A913A918EB52EBC2A911A913B
:101690000A9142175307B0F62617390598F2489F6A
:1016A000000D111D9EB52EBC589F110D499F110DA7
:1016B000641B950A3CF2B2E06B0E721C821CD9CFFF
:1016C0004A913A912A911A918EB52EBC0A91FA90BC
:1016D000EA90DA90CA90BA90AA900D151E052F05CF
:1016E00020F59EB52EBCD316E406F904F0F0089F51
:1016F000A00CB11CC21C189FB00CC11C099FA5CF27
:101700009992CE3F18F085E00E94EE18AFB6F8949B
:101710002EBC0EB4AFBE640C721C821C8E0100196C
:101720000993912E00C000C091C082E00C94EE1885
:10173000C8950000089500000000000000000000AF
:101740009992CE3F18F085E00E94EE18AFB6F8945B
:101750002EBC0EB4AFBE640C721C821C12E0099247
:10176000912E00C00FC0000000000000000000002B
:101770000000000000000000000000000000000069
:101780009394C895640C721CF8942EBC0EB4789493
:10179000821C039CF001F50D09940000000000007C
:1017A0000000000000000000000000000000000039
:1017B0000000000000000000000000000000000029
:1017C0009A940000DFCFE0913006F1E0929182918F
:1017D000B291A2916291E0933006009681F09695C5
:1017E000879508F46D939695879538F46D936D936E
:1017F00004C06D936D936D936D930197D0F7089529
:1018000000C0DE011196AFB6F8942EBC0EB4AFBE88
:10181000640C721C821CA0190C9003940C9200C0E2
:10182000640C721CF8942EBC0EB47894821C039C39
:10183000F001F50D09940000000000000000000018
:10184000B92DAA910D91902E03950E930EB42EBC36
:10185000640C721C821C039CF001F50D09940000BD
:101860000000000000000000000000000000000078
:101870000000000000000000000000000000000068
:10188000B92DAA910D911D910993912E040D121D50
:101890001E930E930EB42EBC640C721C821C039C0F
:1018A000F001F50D099400000000000000000000A8
:1018B0000000000000000000000000000000000028
:1018C000CE3F18F085E00E94EE18B92DAA910D9137
:1018D0001D912D9109931993922E040D121D221D15
:1018E0002E931E930E930EB42EBC640C721C821C9D
:1018F000039CF001F50D09940000000000000000B9
:10190000CD3F18F085E00E94EE18B92DAA910D91F7
:101910001D912D913D91099319932993932E040DB7
:10192000121D221D321D3E932E931E930E930EB454
:101930002EBC640C721C821C039CF001F50D0994F2
:10194000B92DAA910D91902E0A950E930EB42EBC2E
:10195000640C721C821C039CF001F50D09940000BC
:101960000000000000000000000000000000000077
:101970000000000000000000000000000000000067
:10198000B92DAA910D911D910993912E0419120957
:101990001E930E930EB42EBC640C721C821C039C0E
:1019A000F001F50D099400000000000000000000A7
:1019B0000000000000000000000000000000000027
:1019C000CE3F18F085E00E94EE18B92DAA910D9136
:1019D0001D912D9109931993922E04191209220930
:1019E0002E931E930E930EB42EBC640C721C821C9C
:1019F000039CF001F50D09940000000000000000B8
:101A0000CD3F18F085E00E94EE18B92DAA910D91F6
:101A10001D912D913D91099319932993932E0419AA
:101A20001209220932093E932E931E930E930EB48F
:101A30002EBC640C721C821C039CF001F50D0994F1
:101A4000CD3F18F085E00E94EE18B92DAA916D9156
:101A50007D918D919D91699379938993992E8D01B3
:101A6000112420E030E040E85FE30E944434D801D4
:101A70009E938E937E936E93DACF00000000000059
:101A8000CD3F18F085E00E94EE18B92DAA916D9116
:101A90007D918D919D91699379938993992E8D0173
:101AA000112420E030E040E85FE30E944334D80195
:101AB0009E938E937E936E93BACF00000000000039
:101AC000EA909E0C0000640C721CF8942EBC0EB4BC
:101AD0007894821C039CF001F50D09949A918A91E7
:101AE0007A916A915A914A913A912A910E94DC37EF
:101AF0006993799389939993C09330060895000070
:101B0000AA90FA90EA90AE0C9F1CA9920EB42EBC3B
:101B1000640C721C821C039CF001F50D09940000FA
:101B200000000000000000000000000000000000B5
:101B300000000000000000000000000000000000A5
:101B4000BA90AA900A91FA90EA90AE0CBF1C901E2F
:101B5000A992B9920EB42EBC640C721C821C039C18
:101B6000F001F50D099400000000000000000000E5
:101B70000000000000000000000000000000000065
:101B8000CA90BA90AA901A910A91FA90EA90AE0C73
:101B9000BF1CC01E911EA992B992C9920EB42EBC50
:101BA000640C721C821C039CF001F50D099400006A
:101BB0000000000000000000000000000000000025
:101BC000EA90E9189E2C640C721CF8942EBC0EB49A
:101BD0007894821C039CF001F50D0994000000002C
:101BE00000000000000000000000000000000000F5
:101BF00000000000000000000000000000000000E5
:101C0000AA90FA90EA90EA18F908E9929F2C0EB48B
:101C10002EBC640C721C821C039CF001F50D09940F
:101C200000000000000000000000000000000000B4
:101C300000000000000000000000000000000000A4
:101C4000BA90AA900A91FA90EA90EA18FB0809095A
:101C5000E992F992902E0EB42EBC640C721C821C78
:101C6000039CF001F50D0994000000000000000045
:101C70000000000000000000000000000000000064
:101C8000CA90BA90AA901A910A91FA90EA90EA182A
:101C9000FB080C091909E992F9920993912E0EB4E7
:101CA0002EBC640C721C821C039CF001F50D09947F
:101CB0000000000000000000000000000000000024
:101CC000FA90EA90E90CF21CE9929F2C0EB42EBC1B
:101CD000640C721C821C039CF001F50D0994000039
:101CE00000000000000000000000000000000000F4
:101CF00000000000000000000000000000000000E4
:101D00000A91FA90EA90E90CF21C021DE992F9920C
:101D1000902E0EB42EBC640C721C821C039CF0012D
:101D2000F50D099400000000000000000000000014
:101D300000000000000000000000000000000000A3
:101D4000FA90EA90E918F208E9929F2C0EB42EBCA2
:101D5000640C721C821C039CF001F50D09940000B8
:101D60000000000000000000000000000000000073
:101D70000000000000000000000000000000000063
:101D8000FA90EA90E99C9001F99C300D2993932EEA
:101D90000EB42EBC640C721C821C039CF001F50D69
:101DA0000994E99C500D299339934993952E0EB4CB
:101DB0002EBC640C721C821C039CF001F50D09946E
:101DC000EA90E99C902C00C00EB42EBC640C721CEE
:101DD000821C039CF001F50D099400000000000036
:101DE00000000000000000000000000000000000F3
:101DF00000000000000000000000000000000000E3
:101E0000AA90FA90EA90EA9C9001E99C300DFA9C25
:101E1000300D2993932E0EB42EBC640C721C821CC0
:101E2000039CF001F50D0994000000000000000083
:101E300000000000000000000000000000000000A2
:101E4000BA90AA900A91FA90EA90EA9C90010A9DB1
:101E5000902CFA9C300D911CEB9C300D911CFB9C3E
:101E6000900CE99C900C299339930EB42EBC640C11
:101E7000721C821C039CF001F50D09940000000007
:101E8000CA90BA90AA901A910A91FA90EA90EA9CA4
:101E900090010A9DA001FA9C300D411D521DEB9C42
:101EA000300D411D521DFB9C400D511DEC9C400D01
:101EB000511D1A9D500D0B9D500DFC9C500D71CF66
:101EC000792D6A919A918A916215720569F00E9442
:101ED00023326993972E0EB42EBC640C721C821CA4
:101EE000039CF001F50D099483E00E94EE180000B8
:101EF00000000000000000000000000000000000E2
:101F0000592D4A913A912A919A918A917A916A919E
:101F1000221532054205520549F08E010E946332B6
:101F2000E801299339934993952ED5CF83E00E94F8
:101F3000EE1800000000000000000000000000009B
:101F4000792D6A919A918A916215720569F00E94C1
:101F5000AE396993972E0EB42EBC640C721C821C91
:101F6000039CF001F50D099483E00E94EE18000037
:101F70000000000000000000000000000000000061
:101F8000592D4A913A912A919A918A917A916A911E
:101F9000221532054205520549F08E010E94273470
:101FA000E801299339934993952ED5CF83E00E9478
:101FB000EE1800000000000000000000000000001B
:101FC000792D6A919A918A916215720569F00E9441
:101FD00023328993992E0EB42EBC640C721C821C81
:101FE000039CF001F50D099483E00E94EE180000B7
:101FF00000000000000000000000000000000000E1
:10200000592D4A913A912A919A918A917A916A919D
:10201000221532054205520549F08E010E946332B5
:10202000E801699379938993992ED5CF83E00E9433
:10203000EE1800000000000000000000000000009A
:10204000792D6A919A918A916215720579F10E94AF
:10205000AE398993992E0EB42EBC640C721C821C6E
:10206000039CF001F50D099483E00E94EE18000036
:102070000000000000000000000000000000000060
:10208000592D4A913A912A919A918A917A916A911D
:10209000221532054205520549F08E010E9427346F
:1020A000E801699379938993992ED5CF83E00E94B3
:1020B000EE1800000000000000000000000000001A
:1020C000492D0A914830A0F442FD029542FD007F5F
:1020D00041FD000F41FD000F40FD000F902E0EB49A
:1020E0002EBC640C721C821C039CF001F50D09943B
:1020F0009924F5CF0000000000000000000000005F
:10210000492D1A910A91483050F04031A8F4102F0F
:102110000027485021F0000F111F4A95E1F7442392
:10212000D1F70993912E0EB42EBC640C721C821C44
:10213000039CF001F50D099429929924F4CF000035
:10214000492D3A912A911A910A91403158F0403222
:1021500080F4980100271127415134F0000F111F1E
:10216000221F331F4A95D2F7099319932993932E6F
:10217000DACF2992299229929924D5CF0000000024
:10218000492D0A914830A0F442FD029542FD0F709E
:1021900041FD069541FD069540FD0695902E0EB435
:1021A0002EBC640C721C821C039CF001F50D09947A
:1021B000922CF5CF0000000000000000000000009D
:1021C000492D1A910A91483050F04031A8F4012F5E
:1021D0001127485021F0169507954A95E1F74423B9
:1021E000D1F70993912E0EB42EBC640C721C821C84
:1021F000039CF001F50D099429929924F4CF000075
:10220000492D3A912A911A910A91403158F0403261
:1022100080F4890122273327415134F036952795E0
:10222000179507954A95D2F7099319932993932EF9
:10223000DACF2992299229929924D5CF0000000063
:10224000492D0A91473030F050E007FD5FEF952EA1
:1022500004C005954A95EAF7902E0EB42EBC640C86
:10226000721C821C039CF001F50D09940000000013
:10227000000000000000000000000000000000005E
:10228000492D1A910A91403140F050E017FD5FEF5F
:102290005993952E06C0159507954A95E2F709932F
:1022A000912E0EB42EBC640C721C821C039CF00197
:1022B000F50D09940000000000000000000000007F
:1022C000492D3A912A911A910A91403260F050E0DA
:1022D00037FD5FEF599359935993952EE2CF35957A
:1022E0002795179507954A95D2F70993199329933E
:1022F000932ED7CF00000000000000000000000077
:10230000EA909E200000640C721CF8942EBC0EB45F
:102310007894821C039CF001F50D099400000000E4
:1023200000000000000000000000000000000000AD
:10233000000000000000000000000000000000009D
:10234000AA90FA90EA90AE209F20A9920EB42EBCDB
:10235000640C721C821C039CF001F50D09940000B2
:10236000000000000000000000000000000000006D
:10237000000000000000000000000000000000005D
:10238000CA90BA90AA901A910A91FA90EA90AE2057
:10239000BF20C0229122A992B992C9920EB42EBC3C
:1023A000640C721C821C039CF001F50D0994000062
:1023B000000000000000000000000000000000001D
:1023C000EA909E280000640C721CF8942EBC0EB497
:1023D0007894821C039CF001F50D09940000000024
:1023E00000000000000000000000000000000000ED
:1023F00000000000000000000000000000000000DD
:10240000AA90FA90EA90AE289F28A9920EB42EBC0A
:10241000640C721C821C039CF001F50D09940000F1
:1024200000000000000000000000000000000000AC
:10243000000000000000000000000000000000009C
:10244000CA90BA90AA901A910A91FA90EA90AE288E
:10245000BF28C02A912AA992B992C9920EB42EBC63
:10246000640C721C821C039CF001F50D09940000A1
:10247000000000000000000000000000000000005C
:10248000EA909E240000640C721CF8942EBC0EB4DA
:102490007894821C039CF001F50D09940000000063
:1024A000000000000000000000000000000000002C
:1024B000000000000000000000000000000000001C
:1024C000AA90FA90EA90AE249F24A9920EB42EBC52
:1024D000640C721C821C039CF001F50D0994000031
:1024E00000000000000000000000000000000000EC
:1024F00000000000000000000000000000000000DC
:10250000CA90BA90AA901A910A91FA90EA90AE24D1
:10251000BF24C0269126A992B992C9920EB42EBCAE
:10252000640C721C821C039CF001F50D09940000E0
:10253000000000000000000000000000000000009B
:102540009094C895640C721CF8942EBC0EB47894C8
:10255000821C039CF001F50D0994000000000000AE
:10256000000000000000000000000000000000006B
:10257000000000000000000000000000000000005B
:10258000AA90A0949094A99200000EB42EBC640C62
:10259000721C821C039CF001F50D099400000000E0
:1025A000000000000000000000000000000000002B
:1025B000000000000000000000000000000000001B
:1025C000CA90BA90AA90A094B094C0949094A99202
:1025D000B992C9920EB42EBC640C721C821C039C6E
:1025E000F001F50D0994000000000000000000005B
:1025F00000000000000000000000000000000000DB
:1026000000E0921001E0902E640C721CF8942EBC35
:102610000EB47894821C039CF001F50D099400001F
:1026200000000000000000000000000000000000AA
:10263000000000000000000000000000000000009A
:102640001A90912800E0921001E0902E0EB42EBC5A
:10265000640C721C821C039CF001F50D09940000AF
:10266000000000000000000000000000000000006A
:10267000000000000000000000000000000000005A
:10268000AA90A928BA90AB289924A210942C0EB431
:102690002EBC640C721C821C039CF001F50D099485
:1026A000000000000000000000000000000000002A
:1026B000000000000000000000000000000000001A
:1026C000AA90A928BA90AB28BA90AB289924A21056
:1026D000942C0EB42EBC640C721C821C039CF00162
:1026E000F50D09940000000000000000000000004B
:1026F00000000000000000000000000000000000DA
:10270000EA9021E0E91408F020E0922E0EB42EBCED
:10271000640C721C821C039CF001F50D09940000EE
:1027200000000000000000000000000000000000A9
:102730000000000000000000000000000000000099
:10274000AA90FA90EA90EA14F90450F099240EB491
:102750002EBC640C721C821C039CF001F50D0994C4
:10276000942C0EB42EBC640C721C821C039CF001D1
:10277000F50D0994000000000000000000000000BA
:10278000BA90AA900A91FA90EA90EA14FB0409051B
:1027900050F099240EB42EBC640C721C821C039C55
:1027A000F001F50D0994942C0EB42EBC640C721C2F
:1027B000821C039CF001F50D09940000000000004C
:1027C000CA90BA90AA901A910A91FA90EA90EA14E3
:1027D000FB040C05190550F099240EB42EBC640CB2
:1027E000721C821C039CF001F50D0994942C0EB40C
:1027F0002EBC640C721C821C039CF001F50D099424
:10280000EA9021E0E9140CF020E0922E0EB42EBCE8
:10281000640C721C821C039CF001F50D09940000ED
:1028200000000000000000000000000000000000A8
:102830000000000000000000000000000000000098
:10284000AA90FA90EA90EA14F90454F099240EB48C
:102850002EBC640C721C821C039CF001F50D0994C3
:10286000942C0EB42EBC640C721C821C039CF001D0
:10287000F50D0994000000000000000000000000B9
:10288000BA90AA900A91FA90EA90EA14FB0409051A
:1028900054F099240EB42EBC640C721C821C039C50
:1028A000F001F50D0994942C0EB42EBC640C721C2E
:1028B000821C039CF001F50D09940000000000004B
:1028C000CA90BA90AA901A910A91FA90EA90EA14E2
:1028D000FB040C05190554F099240EB42EBC640CAD
:1028E000721C821C039CF001F50D0994942C0EB40B
:1028F0002EBC640C721C821C039CF001F50D099423
:10290000592D4A913A912A919A918A917A916A9194
:1029100011240E941D35942C811199240EB42EBCD3
:10292000640C721C821C039CF001F50D09940000DC
:102930000000000000000000000000000000000097
:10294000592D4A913A912A919A918A917A916A9154
:1029500011240E941D35881F8827881F982E0EB4C9
:102960002EBC640C721C821C039CF001F50D0994B2
:102970000000000000000000000000000000000057
:1029800001E0921000E0902E640C721CF8942EBCB2
:102990000EB47894821C039CF001F50D099400009C
:1029A0000000000000000000000000000000000027
:1029B0000000000000000000000000000000000017
:1029C000592D4A913A912A919A918A917A916A91D4
:1029D00011240E944434699379938993992E0EB4FB
:1029E0002EBC640C721C821C039CF001F50D099432
:1029F00000000000000000000000000000000000D7
:102A0000592D4A913A912A919A918A917A916A9193
:102A100011240E944334699379938993992E0EB4BB
:102A20002EBC640C721C821C039CF001F50D0994F1
:102A30000000000000000000000000000000000096
:102A4000592D4A913A912A919A918A917A916A9153
:102A500011240E947937699379938993992E0EB442
:102A60002EBC640C721C821C039CF001F50D0994B1
:102A70000000000000000000000000000000000056
:102A8000592D4A913A912A919A918A917A916A9113
:102A900011240E942435699379938993992E0EB459
:102AA0002EBC640C721C821C039CF001F50D099471
:102AB0000000000000000000000000000000000016
:102AC000992D8A917A916A9111240E948C3569938B
:102AD00079938993992E0EB42EBC640C721C821CBF
:102AE000039CF001F50D09940000000000000000B7
:102AF00000000000000000000000000000000000D6
:102B0000992D8A917A916A9111240E949135699345
:102B100079938993992E0EB42EBC640C721C821C7E
:102B2000039CF001F50D0994000000000000000076
:102B30000000000000000000000000000000000095
:102B4000992D8A917A916A9111240E94BF356993D7
:102B500079938993992E0EB42EBC640C721C821C3E
:102B6000039CF001F50D0994000000000000000036
:102B70000000000000000000000000000000000055
:102B8000992D8A917A916A9111240E94BD35699399
:102B900079938993992E0EB42EBC640C721C821CFE
:102BA000039CF001F50D09940000000000000000F6
:102BB00000000000000000C00895000000000000B8
:102BC000192C23E0620E721C9A90F8942EBC0EB55C
:102BD000821CECDF2EBC1EB57894EBDF121431F4AE
:102BE00038018EB4599A59982EBDC2C22EBCE1DF6D
:102BF000CBCE00000000000000000000000000003C
:102C0000640C721C821C921469F423E03FEF0EB432
:102C1000599A59982EBD9A9007FE30E0600C731EA9
:102C2000831EA7C200002EBC9A90C5DFADCE000067
:102C30000000000000000000000000000000000094
:102C400002E0600E721C821C921491F4F8942EBC67
:102C50000EB5789423E09A903FEFACDF1EB5599AF9
:102C600059982EBD17FF30E0600E711E831E81C281
:102C70002EBC9A909BDF2EBC9CDF86CE000000000D
:102C8000192C23E0620E721C9A90F8942EBC0EB59B
:102C9000821C8CDF2EBC1EB578948BDF121431F0B1
:102CA00038018EB4599A59982EBD62C22EBC81DF6C
:102CB0006BCE0000000000000000000000000000DB
:102CC000640C721C821C921469F023E03FEF0EB476
:102CD000599A59982EBD9A9007FE30E0600C731EE9
:102CE000831E47C200002EBC9A9065DF4DCE0000C7
:102CF00000000000000000000000000000000000D4
:102D000002E0600E721C821C921491F0F8942EBCAA
:102D10000EB5789423E09A903FEF4CDF1EB5599A98
:102D200059982EBD17FF30E0600E711E831E21C220
:102D30002EBC9A903BDF2EBC3CDF26CE000000006C
:102D400023E0620E721C821C00C0F8942EBC0EB5EB
:102D50002CDF2EBC1EB578942CDF921431F4380190
:102D60008EB4599A59982EBD03C22EBC9A9023DF77
:102D70000BCE00000000000000000000000000007A
:102D8000640C721C821C23E0921459F43FEF0EB4C1
:102D9000599A59982EBD07FE30E0600C731E831EB1
:102DA000E8C12EBC9A9007DFEFCD000000000000C4
:102DB0000000000000000000000000000000000013
:102DC00003E0600E721C821C00C0F8942EBC0EB58D
:102DD000ECDE2EBC1EB57894ECDE921431F0380196
:102DE0008EB4599A59982EBDC3C12EBC9A90E3DE79
:102DF000CBCD00000000000000000000000000003B
:102E0000640C721C821C23E0921459F03FEF0EB444
:102E1000599A59982EBD07FE30E0600C731E831E30
:102E2000A8C12EBC9A90C7DEAFCD00000000000004
:102E30000000000000000000000000000000000092
:102E4000C89500C0AFB6F8942EBC6EB423E0AEDED9
:102E50002EBC7EB4AFBEAADE8EB4599A59982EBD50
:102E600087C100000000000000000000000000001A
:102E70000000000000000000000000000000000052
:102E8000640C721C821C00C03FEF23E00EB4599A00
:102E900059982EBD07FE30E0600C731E831E69C179
:102EA0000000000000000000000000000000000022
:102EB0000000000000000000000000000000000012
:102EC00022E0620E721C821C3FEF23E0F8942EBCBD
:102ED0008EB578946BDE9EB5599A59982EBD97FFA2
:102EE00030E0680E791E831E44C186E077D1000071
:102EF00000000000000000000000000000000000D2
:102F0000892C7A906A909A9023E0599A59982EBD0C
:102F10002FC10000000000000000000000000000C1
:102F200000000000000000000000000000000000A1
:102F30000000000000000000000000000000000091
:102F4000A0913406AD3288F6B6E0AFB6F8942EBC48
:102F50000EB4AFBE03E0060D602C721C821C0D93F4
:102F60007D928D9200C0F8942EBC7EB4AFBEA0932B
:102F700034061FDE23E08EB4599A59982EBDF8C04E
:102F8000A0913406AD32A8F4B6E0640C721C821C29
:102F90006D927D928D92A09334060EB423E0599ADF
:102FA00059982EBD102C110C1108600C711C811C3D
:102FB000E0C086E013D10000000000000000000027
:102FC000A0913406AD32A8F7B6E00000F8942EBC0C
:102FD0000EB5789422E0620E721C821C6D927D9276
:102FE0008D92A093340623E000001EB5599A59989B
:102FF0002EBD112E110C1108600E711E811CB9C05E
:10300000A0913406AD32A8F6B6E06D927D928D9215
:10301000A093340623E0599A59982EBD892C7A90B2
:103020006A909A90A6C00000000000000000000016
:103030000000000000000000000000000000000090
:10304000A0913406B6E08E9023E0599A59982EBD8F
:103050007E906E90A09334068CC09A918A917A915A
:103060006A915A914A913A912A910E941436699331
:10307000799389939993C0933006089500000000D6
:10308000E0E7F5E3640C721C821C609231060EB41A
:103090002EBC7092320680923306E00DF21D059030
:1030A000F491E02D9992C093300611240995C091B6
:1030B00030069A900EB42EBC640C721C821C039CC9
:1030C000F001F50D0994A49ED00CE11CF21CA59E04
:1030D000E00CF11CB49EE00CF11CB59EF00CC49EFB
:1030E000F00CD992E9929F2C0EB42EBC640C721C89
:1030F000821C039CF001F50D099400C0C895089549
:10310000C89500C04EB52EBC12E0610E721C821C28
:10311000F4DF5EB52EBCC92CBA90AA902A911A9100
:103120000A919A90EA90DA90A016B106C206C8F405
:10313000A49ED00CE11C921CA59EE00C911CB49E98
:10314000E00C911CB59E900CC49E900CD992E99213
:103150000EB42EBC640C721C821C039CF001F50D95
:10316000099482E03BD0599A23E059982EBD00C0C3
:10317000000000913806021521F50091450A02155C
:10318000C9F40091760A1091770A070D181D1EBD2B
:103190001FD00EBD1DD06EBC1CD02EBC1BD0640C2D
:1031A000721CF8942EBC0EB47894821C039CF0011F
:1031B000F50D09941124C89500C0599A0E94F82071
:1031C000D3CF1124C89500C0599A0E946225CCCF54
:1031D0000000C89500C0C8950000089560923106AF
:1031E00070923206809233069992C0933006112471
:1031F0000E94892B0C9400009A918A917A916A918D
:103200005A914A913A912A910E94B73469937993DD
:1032100089939993C0933006089500000000000040
:10322000000000000000000000000000000000009E
:10323000000000000000000000000000000000008E
:10324000000000000000000000000000000000007E
:10325000000000000000000000000000000000006E
:10326000000000000000000000000000000000005E
:10327000000000000000000000000000000000004E
:103280004E6F20666F6E742073657420666F7220B7
:1032900074657874206F7065726174696F6E005325
:1032A000697A6573206F66206D656D63707920643F
:1032B00073742F737263206469666665720053705D
:1032C00072697465206672616D65206F75747369CB
:1032D0006465206F66207365740043616C6C2073B5
:1032E0007461636B206F766572666C6F7700446102
:1032F000746120737461636B206F766572666C6FA6
:103300007700417373657274696F6E206661696CD2
:103310006564004469766973696F6E206279207A0A
:1033200065726F00417272617920696E6465782000
:103330006F7574206F6620626F756E6473004761ED
:103340006D652064617461206E6F7420666F756EA8
:1033500064000000FFFFFFFFFFFFFFFFFFFFFFFF15
:10336000FFFFFFFFFFFFFFFF19FDE4EE7CE1D4D478
:10337000E2C89CBDF7B2ECA8719F7E960C8E1386B6
:103380008C7E7277BE706A6A7164CE5E7C597654A8
:10339000B84F3F4B06470943463FB93B5F38353589
:1033A0003832672FBE2C3B2ADC279F2583238521BB
:1033B000A31FDD1D2F1C9A1A1C19B3175F161D15AC
:1033C000EE13D012C111C210D20FEE0E180E4D0D19
:1033D0008E0CDA0B2F0B8F0AF7096809E1086108D8
:1033E000E90777070C07A7064706ED059805470587
:1033F000FC04B40470043104F403BC0386035303D7
:103400002403F602CC02A4027E025A0238021802F9
:10341000FA01DE01C301AA0192017B01660152019A
:103420003F012D011C010C01000100010001000100
:103430000001000100010001000100010001000184
:103440000001000100010001000100010001000174
:1034500000010001000085C352C323C3F5C2CBC2E3
:10346000A3C27DC259C237C217C2F3B3BBB385B37F
:1034700052B323B3F5B2CBB2A3B27DB259B237B2D5
:1034800017B2F3A3BBA385A352A323A3F5A2CBA298
:10349000A3A27DA259A237A217A2F393BB9385934F
:1034A00052932393F592CB92A3927D9259923792A5
:1034B0001792F383BB83858352832383F582CB8268
:1034C000A3827D82598237821782F373BB7385731F
:1034D00052732373F572CB72A3727D725972377275
:1034E0001772F363BB63856352632363F562CB6238
:1034F000A3627D62596237621762F353BB538553EF
:1035000052532353F552CB52A3527D525952375244
:103510001752F343BB43854352432343F542CB4207
:10352000A3427D42594237421742F333BB338533BE
:1035300052332333F532CB32A3327D325932373214
:103540001732F323BB23852352232323F522CB22D7
:10355000A3227D2259223E33243313330233EE3229
:10356000DA32BE329F32803200004552524F520052
:10357000002B002B371EDD1CD71CD71CD11C351E81
:10358000331ED71CD71CA322D11C042A1C31C530E2
:10359000782F7E3022306031EC1CE31CC91D781C72
:1035A0005C01C8295101752F1F2E0E2EFE2DEF2D07
:1035B000E02DC92DE30BC42F962F982DDC2F412F22
:1035C000EB2E852E672D162DD029041F822E21204B
:1035D000011FFE1EFB1E782E7D1D7C015D20752EB9
:1035E00031204A2EC51E282E9101B1017101FC180F
:1035F000F1011102D1012D186E0D3102C62D731D7E
:103600005D1DC32D1B1D071F1700030C00000000CC
:10361000994C000003002E02D1010000C4111001DA
:1036200084101000980C2E3AF243B94AB12A877CD4
:10363000B726AE22211FAA2AA23A0A0050018428E6
:103640004A298A10A10A0000BE78BF2A2E463F3AB6
:10365000BF46BF042E669F7CF147F1019F6C1F425D
:103660005F7C3F783F7EBF082E7ABF68B226E107B5
:103670001F7E071F1F7D9B6C833EB94E3F028360F8
:10368000F1032208104241004C7A5F324C4A4C7ED2
:103690004C53BE00D6035F701D00B0019F681F0031
:1036A0009E785E704C325E1144799E0856034F023C
:1036B0000E7A061B1E799249823ADA02C47D000016
:1036C000DF11DB70C0A0D92181FFA800D5F08D14D7
:1036D000A1C881CFD9F1AF20000011241FBECFEFC8
:1036E000DAE0DEBFCDBF16E0AEE3B6E0E8E9F3E72F
:1036F00002C005900D92AE33B107D9F72AE0AEE3D0
:10370000B6E001C01D92AD37B207E1F70E94CC329E
:103710000C94CA390C940000E5E0F0E010D0319729
:1037200028F068517C4F8F4F9F4FF9CFAB01FC01C0
:1037300006D0641775078E079F07D0F30895A2E798
:10374000BAE02FB7F8947D918D919C9166B52FBF0B
:10375000A89B05C06F3F18F47F5F8F4F9F4F22E0FB
:10376000660F771F881F991F2A95D1F708959C012E
:10377000E0E0F2E0A0E0B0E0BD0180E045D039D06B
:10378000BD011296A20FB31F82179307A9F38F5F93
:103790009F4F21F4AF5FBF40DB0160F000D140E0FC
:1037A00050917B0A60917C0A80E226D0599AD5D04C
:1037B000A0E0B0E07CEFF3D04A2F50917B0A5B0F82
:1037C00060917C0A611D82E017D0832F71FD822FEA
:1037D00070FD819124D0759518F42150304019F076
:1037E0001196AA2391F7599AB8D02115310519F7E6
:1037F000089539D0982F3DC0599811D0862F0FD0F9
:10380000852F0DD0842F0BC0462F50917B0A570F68
:1038100060917C0A681F83E0EFDF1EBC08958EBDB7
:1038200000008EB50DB407FEFCCF0895E0E0F2E095
:10383000DC0160E070E080E0E7DF9D01AF0160E067
:103840000FD08217930749F4D901FA0160E00BD039
:1038500081931197E1F761E0F3CF0BD0862F0895A4
:1038600002D0982F00C00DB407FEFDCF8EB51EBC50
:1038700008950DB407FEFDCF8EB5599A08950F93A4
:103880001F93CF93DF93809164008E7F80936400B9
:1038900080917A00806480937A0080917A0086FD1E
:1038A000FCCFC0917800D091790049DFAB01BC0119
:1038B00080916400816080936400CE01B0E0A0E05C
:1038C000DC01992788278C019D01040F151F261FF5
:1038D000371FC901B801DF91CF911F910F91089552
:1038E0008FB18095807F669B88601C9B8460089563
:1038F00081E083BF889513BE08958EBD00000DB48E
:1039000007FEFDCF089508DF5F9A06DF5C98ECECB8
:10391000F6E38591F2DFE93DE1F75C9A08951092B4
:103920007A0A3E983F9808953E9A3F9A81E08093A4
:103930007A0A08959091790A982329F49091780A47
:10394000982381E009F480E008958091780A8093BB
:10395000790AC6DF8093780A0895599885E05FDF79
:1039600080E05DDF80FDFCCF599A0895FC01615035
:10397000704019F078DF8193FACF7BDF8083089560
:10398000462F5091760A570F6091770A681F83E09F
:1039900033DF1EBC0895599842DF599A089586E096
:1039A000FACFE0E3F6E08081895080830895E0E378
:1039B000F6E08081865080830895E0E3F6E0808120
:1039C000855080830895E0913006F1E082918093E4
:1039D0003906E093300608958A9180933C068A91D7
:1039E00080933B068A9180933A06C09330060895EF
:1039F0006091680A7091690A80916A0A90916B0AD5
:103A00009827872776279C01369527958327372F78
:103A10007227379563279B01369527959227222792
:103A2000279582276093680A7093690A80936A0ACF
:103A300090936B0A08958F929F92AF92BF92CF920C
:103A4000DF92EF92FF92CF93DF93E0913006F1E0A7
:103A50008291929122913291C32ED22EE92EF82E8C
:103A6000829192912291EF013A91832E922EA92E6A
:103A7000B82EC814D904EA04FB0468F4B9DFA50120
:103A800094012C193D094E095F090E946332C60E4C
:103A9000D71EE81EF91EFE01C192D192E192F19269
:103AA000E0933006DF91CF91FF90EF90DF90CF90C1
:103AB000BF90AF909F908F900895E0913006F1E015
:103AC0002291329142915291852F942FA32FB22FA0
:103AD000E09330068093680A9093690AA0936A0A7B
:103AE000B0936B0A0895CBDE6093680A7093690AFD
:103AF00080936A0A90936B0A08951092670A8091E6
:103B00004C0A811108C01092550A88E180939100F7
:103B10001092C00018B80895A0914A0AB0914B0ABB
:103B20001097D9F0E091460AF091470A9F012F5F64
:103B30003F4F2058344028F010924B0A10924A0A06
:103B400008952D913C9111972F5F3F4F2D933C93FA
:103B50008193F093470AE093460A08958093F10019
:103B60000895E091480AF091490A628173816115D4
:103B7000710549F06150710962837383A081B1813D
:103B80008D93A083B183089534DE082E892F902D64
:103B90000895E0913006F1E06291E09330066B30D9
:103BA00040F070E080E094E00E942332609336069B
:103BB00008956623D9F364E6F9CF0F931F93CF934B
:103BC000E0913006F1E092914291242F392F9291A9
:103BD0006291462F592F9291C2917C2FB291E0931E
:103BE0003006E091460AF091470A8F010A5F1F4FA5
:103BF0000058144008F033C0203831050CF02FC0B5
:103C00004034510564F58901090F111D1016110684
:103C100034F58A010C0F111D1016110604F5A22FA0
:103C2000642F37FF02C0920FA0E057FF03C07C2F24
:103C3000760F60E08F5F8193A193619380E88A1B88
:103C4000981708F4892F819380E4861B781708F46D
:103C5000872F8193B193F093470AE093460ACF915F
:103C60001F910F91089581E0A8CF80E0A6CFE09149
:103C70003006F1E0329780E08193E09330060895BA
:103C80005998A3E0AEBDFC0181919191A191409121
:103C9000760A5091770A490F5A1F00C000C05EBDD6
:103CA0000DD04EBD0BD08EBD0196A11DA293929357
:103CB000829308D01EBC04D000000895C895C89512
:103CC00000C000C0089583E059988EBD0091380669
:103CD000011529F011241DD0599AF4D6F4CF009182
:103CE000450A011529F0112414D0599A81D2EBCF3D
:103CF0004091310650913206609133068091760AE8
:103D00009091770A580F691F6EBD07C00000000030
:103D100000C0000000C0C8950895FADF5EBDF6DF60
:103D20004EBDF5DF1EBCF5CF93E059989EBD409186
:103D30003A0650913B0660913C0697E0899F400D02
:103D4000511D1124611DDADF00C000C08EB5599AE3
:103D5000089593E059989EBD40913A0650913B06D4
:103D600060913C0697E0590F611DC8DF00C000C09C
:103D70008EB5599A089593E059989EBDAB01682F6E
:103D8000C895C895BBDF00000895CF9372DD6AE047
:103D900070E080E0F5DD67DDC82F6BDD2C2F382F5C
:103DA000C90101978F3F910509F010F4C901DFDCCB
:103DB000D4DD89DFCF910895FF920F931F93CF93A6
:103DC000DF93A0913006B1E01E910E91FE90A0937A
:103DD000300620917A0A222341F0EC014ADD6F2D52
:103DE000702F812FFE0109956EDFDF91CF911F911A
:103DF0000F91FF90089583EB91E2DECF8FE691E281
:103E0000DBCF87E991E2D8CF89E191E2D5CF8F92DC
:103E10009F92AF92BF92CF92DF92EF92FF920F9359
:103E20001F93CF93DF93E0913006F1E0829192915E
:103E30002291C22ED92EE82E82919291092F182F0D
:103E40008291EF019A91A92EB82E13DD8E2DB60125
:103E500097DD09DDF82E04DD4C01082C892C902C0F
:103E600093DE0817190708F03CC0A814B90408F03D
:103E700038C025E0C20ED11CE11CA89E9001B99E5D
:103E8000402DA99E300D411DB89E300D411D1124BD
:103E9000200F311F411D82E0F81203C0220F331F93
:103EA000441F842FB9016C0D7D1D8E1D69DD21E03D
:103EB000F21215C0DEDC90E0FE0181939193E09355
:103EC000300601DFDF91CF911F910F91FF90EF90AE
:103ED000DF90CF90BF90AF909F908F90089554DE69
:103EE000EBCF90E080E0E8CF8F929F92AF92BF92AD
:103EF000CF92DF92EF92FF920F931F93CF93DF93B6
:103F0000CDB7DEB7C350CDBF782F82E0403209F481
:103F10005DC0E42FEE0FFF0BEA53FA4C85919491AC
:103F2000282F2F7129839C0145E0369527954A95C6
:103F3000E1F72F712A83969596959F719B8383E075
:103F4000911104C082E0211101C081E08E010F5F58
:103F50001F4F50E040E0E72EF12C20E1B22EAA24C2
:103F6000A394F80191918F01962E6701C40ED51E7E
:103F7000872E840E992329F1E92FF0E090FF1CC0D1
:103F800090E8C916D104C0F4292D30E02034310561
:103F90009CF491E021FD94E020FD990F22FD929583
:103FA000287FB29ED0011124A80DAB5BB94F0C90B5
:103FB000092AA0FE09260C929394F595E7959E2F69
:103FC000D9CF4F5F5F4F481708F4CBCFCD5FCDBF40
:103FD000DF91CF911F910F91FF90EF90DF90CF90E5
:103FE000BF90AF909F908F900895FF920F931F9373
:103FF000CF93DF93062FF22EEA01182FFF2059F0FE
:10400000FE0144912196442341F0602F812F6CDF03
:104010008F5F180FF3CF4881F5CF812FDF91CF91BC
:104020001F910F91FF90089510924C0AEDE4FAE071
:104030001086118A88E1809391001092C00018B810
:10404000089580914C0A8111EFCF08958091550A0F
:10405000811106C080915E0A811102C08091670AB9
:10406000089518B8EDE4FAE01086118A128E1092C5
:10407000450A10924C0A88E1809391001092C0008A
:1040800018B80895109280008AE08093810085E23C
:1040900093E0909389008093880082E080936F0082
:1040A00083E48093900088E1809391001092C00097
:1040B0001092C1001092C300D4CF80917A0A882355
:1040C00011F02DDCDFCF30DCFDCF813818F01092FD
:1040D000C0000895811104C01092C00018B808955E
:1040E000E82FF0E0EE0FFF1FEC5AFB4C8591949106
:1040F000292F22952F709F702093C1009093BF00AD
:104100008093D100969587959093BF008093CF00C0
:1041100082E88093C0000895813820F088E1809380
:10412000910008958823D1F3E82FF0E0EE0FFF1FF0
:10413000EE5AFC4C8591949190939900809398004D
:104140008AE1EDCF599893E09EBD9FB70090760A23
:10415000700D0090770A801D20D08EBD1AD07EBDD4
:1041600018D06EBD17D01EBCDA012150304000C0FF
:1041700051F000C014D0F8941EBC0EB49FBF0D9235
:1041800021503040B9F70AD00EB40C92599A0DB4B0
:104190000895000000C0C8950000000000C0089508
:1041A000CF92DF92EF920F931F93CF93DF93FC0197
:1041B000448104E0102F141B99F0EC01C580D680D7
:1041C000E780212F30E0480F592F511D8E2DB60169
:1041D000B9DFC10ED11CE11CCD82DE82EF820C83DF
:1041E000DF91CF911F910F91EF90DF90CF900895C5
:1041F000CF938091450A8823D1F0CFB7F89480916E
:10420000550A882319F08DE49AE0CADF80915E0A8E
:10421000882319F086E59AE0C3DF8091670A882336
:1042200019F08FE59AE0BCDF1092450ACFBFCF911D
:104230000895CF92DF92EF921F93CF93DF93CDB784
:10424000DEB7C350CDBF6B01E82E18B823E030E0D5
:10425000AE014F5F5F4F76DF83E0C80ED11CE11CDB
:104260001FB7F8941092510AC092520AD092530A82
:10427000E092540A81E08093550A8091550A882380
:1042800019F08DE49AE08CDF89819A81AB81C80EA8
:10429000D91EEA1E10925A0AC0925B0AD0925C0A9A
:1042A000E0925D0A81E080935E0A80915E0A882335
:1042B00019F086E59AE074DF80914D0A2DDF809138
:1042C000560A03DF81E080934C0A1FBFCD5FCDBF4C
:1042D000DF91CF911F91EF90DF90CF900895CF9213
:1042E000DF92EF92CF936B01E82E80914C0A8111FF
:1042F0009BDE18B8CFB7F8941092510AC092520AB8
:10430000D092530AE092540A81E08093550A80913A
:10431000550A882319F08DE49AE042DF80914D0A16
:10432000FBDECFBFCF91EF90DF90CF900895CF937A
:1043300018B8CFB7F8941092630A6093640A709328
:10434000650A8093660A81E08093670A8091670A14
:10435000882319F08FE59AE023DF80915F0AB5DEAC
:10436000CFBFCF9108959091670A992329F090913A
:10437000550A911101C0B3CFDACFE091460AF0910E
:10438000470A9F01245F3F4F20583440F0F425E056
:104390002193819391936193719380913A069091C7
:1043A0003B06A0913C0681939193A193809139069D
:1043B0008193F0934B0AE0934A0A90E080E0819366
:1043C0009193F093470AE093460A08956F927F9283
:1043D0008F92BF92CF92DF92EF92FF920F931F9333
:1043E000CF93DF93C091460AD091470AFE013396DE
:1043F000E058F44008F062C0803891050CF05EC0CF
:10440000603471050CF05AC03901842E7B016C01B7
:10441000842FB901B5DA27DAB82E2BDA96012B0DE5
:10442000311D121613060CF049C08E0D9F2D911DE3
:10443000181619060CF042C080E8C8168FEFD8068F
:104440000CF449C090E8E9169FEFF9060CF443C05C
:104450000F3F110511F008F03EC0E0914A0AF091BB
:104460004B0A309709F448C08191843009F044C068
:1044700081919191A191681679068A0609F03CC054
:1044800080818F5F09F438C08083809142069091CB
:104490004106890F8C1147C08091400690913F06DC
:1044A000890F8E1140C009938FE78993C09242060D
:1044B000E0924006D093470AC093460ADF91CF911D
:1044C0001F910F91FF90EF90DF90CF90BF908F9052
:1044D0007F906F900895CE010A968058944070F7AF
:1044E00083E08993C992D992E992F992699279927B
:1044F000899209931993DECF8091460A9091470AD9
:10450000089680589440D0F6D0934B0AC0934A0A3C
:10451000C0924206E092400684E0899369927992C3
:10452000899281E089930993E992C9928091420628
:104530009C2D981B90934106809140062E2D281BA0
:1045400020933F06B3CFBF92CF92DF92EF92FF92BC
:104550000F931F93CF93DF93E0913006F1E0C29168
:10456000D291F290E290D290C290B29012910291C8
:10457000E09330067ED92B2D3C2D4D2DB7018D2F8C
:104580009C2F24DFA0DBDF91CF911F910F91FF9033
:10459000EF90DF90CF90BF90089530E73CBDDC01F5
:1045A00030E8439FC0011124A80FB91F5E91352F39
:1045B0006111372F3C93C89500C052235EBD01970F
:1045C000A9F704D003D030E50DB43CBD08950F9396
:1045D000260F91E061FD94E060FD990F62FD9295D8
:1045E000919551E021FD54E020FD550F22FD52959B
:1045F0005195A92FA095752F7095215066956695B8
:104600006695269526952695E5E4F6E030E8639FC5
:10461000E00DF11D1124E80FF11D261B90FD2F5F09
:1046200050FD2F5F019530E8341B892F8023972F91
:104630009023222319F45A2B98232CC0AA2349F043
:10464000642F00800A22082A01926A95D1F7E30FAD
:10465000F11D2A95E9F0642F677081F4642F0193AE
:104660000193019301930193019301930193685086
:10467000B1F7E30FF11D2A9571F70AC001936A950E
:10468000E9F7642F687F59F7E30FF11D2A9519F7B1
:10469000772331F000800522092A01924A95D1F74B
:1046A0000F910895803891057CF46034710564F4AD
:1046B000DC01A40FB11D1A161B0634F4DB01A20F96
:1046C000B11D1A161B060CF008952F923F924F92BF
:1046D0005F926F927F928F929F92BF92EF92FF9222
:1046E0000F931F93382E2224842E322F3695369521
:1046F0003695599853E05EBDFB01F595E795F59524
:10470000E795F595E7951E2F1F3F4CF41095311B4B
:10471000C0FC110F149FE00CF11C021D1FEF009054
:10472000760AF00C0090770A001D97FF0BC0880EE8
:10473000C0FE02C0880F991FE81AF90A020997FD06
:10474000039533240EBDA5E4B6E050E81503030C31
:10475000A00DB11D5319851608F0852EE7E0E11B69
:10476000E31714F43E2F2394FEBCE0E8E8194E2E24
:1047700051E061FD54E060FD550F62FD5295552EEC
:10478000EFEFE59D300160947094EEBC11246FB79B
:1047900024D01EBCBB24481509F0B39422C05998FC
:1047A000E3E0EEBD1124E40EF11C011DC0FCE40E9B
:1047B000C0FCF11CC0FC011DBB24481509F0B394DA
:1047C000C8950EBD08D0FEBC06D0EEBC05D01EBC00
:1047D00000C000C00895000000C00000C895C89542
:1047E0000895C1FCF4C0C2FCA6C011151CF033230F
:1047F00091F57CC0A058BF4F582DC0FC0DC0F89457
:104800001EBC8EB56FBF859D9C90972091289D9270
:1048100000C05A95A1F714C0F8941EBC8EB56FBFA6
:10482000859DC001DCDFF8941EBC6EB46FBF659C33
:1048300030019C9070949720992A9D925A9561F727
:104840001124A819B1093A9509F410C1BB2019F037
:104850000DB4599AA4DFFD01E058FF4F582DC0FC5C
:104860001FC0569518F453959C900CC08EB51EBC75
:10487000859D9C90962090289D92908097209128CD
:1048800091929C908EB51EBC859D962090289D92FD
:10489000908097209128919200005A9539F716C080
:1048A000F8941EBC8EB56FBF859DC0019C90708032
:1048B00097DF6EB41EBC659C00949020982A9D9250
:1048C00010947120792A71925A9551F71124A40DF0
:1048D000B11D3A9509F0BACF222009F4C7C0BB2018
:1048E00029F00DB4599A5BDF00C0C895C0FC0DC01B
:1048F000F8941EBC8EB56FBF859D9C909620902825
:104900009D9200C08A94A1F7B1C0F8941EBC8EB5E8
:104910006FBF859DC00163DFF8941EBC3EB56FBFBD
:10492000359D302D9C9030959322982A9D928A94A3
:1049300061F700009BC011151CF03323E1F43BC06C
:10494000A058BF4F582DF8941EBC8EB56FBF859DE3
:104950009C9091289D92C8955A95A9F71124A81961
:10496000B1093A9509F482C0BB2029F00DB4599AD7
:1049700016DF00C000C0FD01E058FF4F582D8EB576
:104980001EBC859D9C9090289D929080912891922C
:1049900000005A95A1F71124A40DB11D3A9521F7F5
:1049A000222009F463C0BB2031F00DB4599AF7DE20
:1049B00000C000C0C895F8941EBC8EB56FBF859D21
:1049C0009C9090289D92C8958A94A9F74FC0111584
:1049D0001CF03323F1F43DC0A058BF4F582DF8947C
:1049E0001EBC8EB56FBF859D009410949C90912045
:1049F0009D9200005A9599F71124A819B1093A958A
:104A000009F434C0BB2029F00DB4599AC8DE00C0A7
:104A100000C0FD01E058FF4F582D8EB51EBC859D8E
:104A2000009410949C9090209D929080912091925F
:104A30005A9599F71124A40DB11D3A9519F7222022
:104A400009F414C0BB2021F00DB4599AA8DE00C0AF
:104A500000C0F8941EBC8EB56FBF859D0094109465
:104A60009C9090209D9200008A9499F71124599A65
:104A70000DB41F910F91FF90EF90BF909F908F907A
:104A80007F906F905F904F903F902F900895089582
:104A9000FC0180858823A9F08181815071F481E037
:104AA0008093450A8481825061F022813381318371
:104AB0002083848381E090810895818380E090E069
:104AC000089508952F923F924F925F926F927F9236
:104AD0008F929F92AF92BF92CF92DF92EF92FF920E
:104AE0000F931F93CF93DF93CDB7DEB7C950CDBFE0
:104AF00080913806823019F00E94781CF9CF5E98B8
:104B00002FE741E050E061E070E085EC99E045DDA1
:104B10005C9880913E068F5F833008F080E00FEF55
:104B200080FD09E181FD05E580933E0681E80E9454
:104B30007D1C802F0E947D1C88EA0E947D1C8FE3D3
:104B40000E947D1C5C9A2FEF47E051E061E070E02D
:104B500085E496E022DD5C9888EA0E947D1C80E076
:104B60000E947D1C5C9A5E9A90E8A92E94E0B92E72
:104B7000BE016F5F7F4F7C836B8370E0A71676E08A
:104B8000B70608F098C1F50181915F01882309F407
:104B900092C1833009F472C0C8F4813070F38190FF
:104BA0009190F190E19091915F017724739420911D
:104BB0003E06291708F0712C072D823009F046C0F7
:104BC0002E2D4F2D692D882D02DDD7CF843009F48D
:104BD00098C0853009F0D1CF819191919A838983D2
:104BE0008190919021913191419181916190719049
:104BF0005F01A981BA81BF83AE8320903A063090CD
:104C00003B0640903C0620933A0630933B06409387
:104C10003C0690913E06981708F0D5C084E050906D
:104C2000390680933906B1E06B1A710808F43AC16D
:104C3000F50141915F014A3009F0C7C06E817F8163
:104C40007A83698386D8880E911CEDCF21E04F2DA1
:104C5000692D882DBCDC2E2D41E0692D882DB7DC17
:104C60006E2D690D615021E04F2D882DB0DC8F2D08
:104C7000880D2E2D41E0692D8150A6CF8190919015
:104C800061907190C190D190E190419051905F01FD
:104C90008E2DB6010E94C01C0E94331C382E0E942B
:104CA000331C082F0E94391C27E0200F287F922FE9
:104CB0009695969596958111990F0E2D7601A201E4
:104CC000440C551C440E551E45E0E40EF11C011D1C
:104CD00040913E06440E511C399EA001549DF00C9B
:104CE000011D459DF00C011D559D000D449DE00CDE
:104CF000F11C1124011DC82E432DB301C401D2DCC7
:104D00003CCF21903190419071905F01842DB10191
:104D10000E94C01C0E94331C682E0E94331C082F66
:104D20000E94391C582E095F087F0987802F8695BD
:104D3000869586955110880F90913E06899F609CBC
:104D4000F0013596689E900111242E0E3F1E411CE5
:104D50004901880C991C820E931E18861E82F5014B
:104D6000219181915F01912F8F3711F58E81180F5D
:104D70009885AD819A0F9D83A42DC101929E900DBF
:104D8000A11D829E800D911D1124A11DC52C7C01A9
:104D90000A2F2985462D8D81682F880F770B812F4B
:104DA000012E000C990B7EDC7A947110D8CFE5CEE1
:104DB000B82F3D81B31BB88711915F01412F491B6B
:104DC0004E838D83D9CF86E02ACFB401AB81BC81DD
:104DD000E3E05998EEBDE0903A06F0903B06009172
:104DE0003C06E091760AF091770AFE0E0F1FE7E08D
:104DF000E49FE00CF11C1124011D0EBD02D0FEBC8D
:104E00000AC00000000000000000000000000000D8
:104E1000000000C00895F7DFEEBCE0903A06F09085
:104E20003B0600913C06EFEFEE1AE8EFFE0AEFEFCB
:104E30000E0B00C000C01EBCE6DFF8941EBC3EB5E1
:104E400078948D919C91FC01E30FF11DFC93EE93FE
:104E500000C0F8941EBC3EB57894830F911D37FDB9
:104E60009A95D7DFF8941EBC3EB57894630F711DF8
:104E700037FD7A95CEDFF8941EBCEEB57894C5DF89
:104E8000F8941EBCFEB57894EE0EFF1EC0DFF894B9
:104E90001EBC4EB57894B8DF2EB5599AC09039062D
:104EA00001DCC1CE20923A0630923B0640923C068D
:104EB0005092390662CE10923806C75FCDBFDF919F
:104EC000CF911F910F91FF90EF90DF90CF90BF9007
:104ED000AF909F908F907F906F905F904F903F909A
:104EE0002F9008952F923F924F925F926F927F92F0
:104EF0008F929F92AF92BF92CF92DF92EF92FF92EA
:104F00000F931F93CF93DF93CDB7DEB7C851CDBFBB
:104F10009C8B8B8BE0913006F1E0829192912291F3
:104F2000622E792E882E8291929122912E879F87D0
:104F3000888BE0933006CE0101969A8B898B90E3A3
:104F4000592E61147104810409F40DC28091380650
:104F50008111B8DDCE010E960E94401E0EB5599A01
:104F60001301482C91E0291A31084108053229F033
:104F7000802FEB89FC89099518C0CE010E960E94FE
:104F8000401E1EB5599A1301482CF2E02F1A310821
:104F90004108143609F448C058F4133509F4B6C072
:104FA000133609F48EC0153219F3842C3101C9CFA0
:104FB000133709F48DC008F032C01636B1F7E0910E
:104FC0003006F1E08291929122913291C32ED22E3D
:104FD000E92EF82ECD8ADE8AEF8AF88EE09330062D
:104FE000CE010E960E94401E1EB5599A1301482C00
:104FF000F3E02F1A31084108A7019601C701B60155
:105000000E94B338882309F4CFC08EE6EB89FC896F
:10501000099581E6EB89FC8909958EE6AACF1537BB
:1050200019F0183709F0C1CFE0913006F1E0829114
:10503000929122913291A32EB22EC92ED82EE093B6
:105040003006CE010E960E94401EFEB4599A1301FE
:10505000482C83E0281A31084108183709F47DC02C
:10506000143609F08FC0D7FE8DC08DE2EB89FC8924
:105070000995D094C094B094A094A11CB11CC11CFB
:10508000D11CFFECFF0E8AE08E010F5F1F4F682ED0
:10509000712C912C812CC601B501A40193010E94B1
:1050A000633259016A0187E56A3008F480E3860FAC
:1050B000D8018D938D01FA94232B242B252B59F79E
:1050C0005AC0E0913006F1E00291E093300650CFF3
:1050D000E0913006F1E082919291E92EF82E8291D2
:1050E0009291E0933006092F182FE114F10409F48E
:1050F0005CCFF80181918F01882309F456CFEB89A9
:10510000FC890995F1E0EF1AF108EFCFE091300644
:10511000F1E0829192912291C22ED92EE82E8291B5
:1051200092912291E09330062B879C878D87C11442
:10513000D104E10409F439CFCE010B960E94401E40
:105140008EB5599A882309F430CFEB89FC890995EB
:10515000F1E0CF1AD108E108EACF80E1A114B1044F
:10516000C104D10489F48E010F5F1F4FD8015D92F5
:105170008D01BFECFB0E1F1454F4F80151928F0106
:10518000FA94F9CF8AE0EACFE0EDFE0E7DCF89896F
:105190009A898017910709F408CFF80182918F014D
:1051A000EB89FC890995F3CFE894F7F82FEF3FEFEF
:1051B0004FE75FE7C701B6010E94B338811114C001
:1051C0002FEF3FEF4FE75FE7C701B6010E941D35A4
:1051D000181654F489E6EB89FC8909958EE6EB896B
:1051E000FC89099586E6C5CE2FEF3FEF4FE75FE4D8
:1051F0006D897E898F89988D0E946E37181664F0AC
:105200002FEF3FEF4FE75FEC6D897E898F89988D97
:105210000E941D3587FF06C08FE6EB89FC89099542
:1052200086E7DDCF20E030E0A9016D897E898F8996
:10523000988D0E941D3587FF0DC08DE2EB89FC899A
:1052400009958D899E89AF89B88DB0588D8B9E8BBD
:10525000AF8BB88F80ED782E710E10E060E070E0BB
:1052600080E09FE3171540F42DEC3CEC4CEC5DE343
:105270000E9479371F5FF6CF2D893E894F89588D5F
:105280000E9444346B017C010E9491354B015C010A
:105290000E94BD359B01AC01C701B6010E94433499
:1052A0006B017C0181149104A104B10491F48E017D
:1052B0000F5F1F4FD8015D928D01E989FA89E017D0
:1052C000F10731F1F80182918F01EB89FC89099591
:1052D000F4CF612C8E010F5F1F4FC501B4012AE08E
:1052E00030E040E050E00E94633249015A01605DC5
:1052F000F80161938F016A9481149104A104B104AF
:1053000061F71614D4F6D8015D928D016A94F9CF35
:10531000772009F44ACE8EE2EB89FC8909957A94CC
:1053200077FC43CE20E030E040E251E4C701B60113
:105330000E9479374B015C010E949135162F80E362
:10534000810FEB89FC890995612F70E090E080E086
:105350000E94BF359B01AC01C501B4010E944334DA
:105360006B017C01DCCFC85ECDBFDF91CF911F9177
:105370000F91FF90EF90DF90CF90BF90AF909F90F4
:105380008F907F906F905F904F903F902F900895F7
:105390000E94391C8EEA9DE1A5DD0C94631E0895E0
:1053A000EF92FF920F931F93CF93DF93CDB7DEB7AA
:1053B000C450CDBFE0913006F1E012910291F2901D
:1053C000E290E09330060E94391CE982FA820B8356
:1053D0001C83CE0101969093490A8093480A81EB81
:1053E0009DE180DD8B819C81892B19F0E981FA8117
:1053F00010820E94631ECC5FCDBFDF91CF911F91C1
:105400000F91FF90EF9008952F923F924F925F92ED
:105410006F927F928F929F92AF92BF92CF92DF92C4
:10542000EF92FF920F931F93CF93DF93CDB7DEB729
:10543000CD51CDBFE0913006F1E082919291092FDC
:10544000182F82919291E92EF82E2291298F929015
:105450005290829192912291622E792E882EE09321
:1054600030060E94391C003811050CF0B2C030E43F
:10547000E316F1040CF0ADC0882DB3010E94BB1EF1
:105480000E94331C81508C8B0E94301C082E892F67
:10549000902D9E8B8D8B0E94C41D988F8F8B45E025
:1054A000640E711C811C652D792D898D0E94BB1E97
:1054B0000E94331C8B8B0E94391C30E020E0A80135
:1054C000B9019B89E80EF11C1CF42F5F3F4FFACF06
:1054D000E81AF108490F511D1CF46F5F7F4FFACF96
:1054E000491B51097B8F6A8F5A8B498B5901282F91
:1054F00030E03D8F2C8F4D895E89A416B50608F0EB
:1055000068C050E4E516F1040CF063C0C9886A8DE8
:105510007B8D1B01412CD12C8F89988D2816390643
:1055200008F04FC09D2D9F70D92E11F52F89388D11
:10553000A29EC001B39EA02DA39E900DA11DB29E60
:10554000900DA11D1124820D931DA41D3C893323B0
:1055500019F0880F991FAA1FBC018A2F660D771DAD
:10556000881D20E130E0AE014F5F5F4F0E94A22016
:10557000E1E0F0E0EC0FFD1FED0DF11D4C89019114
:10558000411110810115110581F001501109252DDE
:10559000392D498DB7018C2D0C2C000C990B0E94D4
:1055A000E6218091380681118DDA5B89C50E6FEF97
:1055B000261A360A460AC7FC04C0D3947C89D70E43
:1055C000ABCF8FEFA81AB80A2C8D3D8DE20EF31EDB
:1055D00092CF0E94631EC35ECDBFDF91CF911F911A
:1055E0000F91FF90EF90DF90CF90BF90AF909F9082
:1055F0008F907F906F905F904F903F902F90089585
:10560000CF93DF93C0E0D3E080E891E0FE01A0E813
:10561000B4E001900D920197E1F780E891E0FE017E
:105620009C01119221503040E1F7D093470AC0937A
:10563000460A10924B0A10924A0AC0913606D0913F
:1056400037068C2F8D0F809337060E94391C789473
:105650008091720A8D1B8C1758F48F5F8C1710F491
:105660000E94781C80913806882389F32BDAEFCFCB
:105670000E94A51C0E94631EDF91CF9108950F9296
:105680000FB68F939F93EF93FF9380916D0A8D5F79
:105690008D3708F08D5780936D0AEEE6FAE0808131
:1056A0008E4F808391819F4F918382818F4F828320
:1056B00083818F4F8383E2E7FAE080818F5F80836D
:1056C00081818F4F818382818F4F828383818F4F2E
:1056D00083838FB18F6066991C9B88278F3681F4F6
:1056E00080916C0A981B963068F0E0E0F8E087E75C
:1056F0008083818388E180936000F0936000FFCF16
:1057000090936C0AFF91EF919F918F910FBE0F9034
:105710001895CF93DF93CDB7DEB7CA52CDBF89A31B
:1057200080933506E5E4F6E080E094E0DF019C013B
:105730001D9221503040E1F7599A0E9431205E9825
:105740000E94831C5C9888EA0E947D1C8FE30E9463
:105750007D1C5C9A5E9A39A100E0323040F00091E5
:1057600034068BEA089F012D112406950F5FA9A12D
:10577000A150BB0BCD01880F991FFC01EA5AFA4CCE
:10578000FDA3ECA311E0D12C202F30E03AA729A7EC
:10579000CE0101965C010E94A51CDD2039F080E855
:1057A0000E949A1C882311F0DA94182F88E08D0D3E
:1057B000801728F480E10E949A1C81118FC0112368
:1057C00009F407C121E04AE655E361E081E00E9467
:1057D000F51F99A19130B1F060E270E080E00E9485
:1057E000C01C58E1F52E14E20E94331C482F61E0E2
:1057F000812F0E94741F180F1F5FFA94F110F4CFCD
:105800000E94391CE5E4F6E08081AFE78A278193A6
:10581000B6E0E53CFB07C0F3ECA1FDA14591549136
:1058200021E068E080E00E94F51F29A53AA52D1926
:105830003109C901880F991F820F931FFC01E050A5
:10584000FF4FFBA3EAA39D2C11E1901608F0B0C016
:10585000209031063090320640903306992039F07E
:10586000EAA1FBA1E350FB4F2080318042806CE035
:1058700070E080E00E94C01C0E94331C582E0E94E1
:10588000331C8EA30E94331C8FA30E94331C88A755
:105890000E94331CF82E0E94331CE82E0E94391CF3
:1058A00090E0A0E0772766277E296F290E94C01C20
:1058B000612C712C812CF12CE12CC12C621473040D
:1058C000840450F50E94331C87FD0AC090E00196C5
:1058D000680E791E811C97FD8A94F0CFD39472CF05
:1058E0008D3F30F4FFE7EF1AF108E80EF11CE6CF28
:1058F0008D3F21F40E94331CC82EE0CF8E3F21F44F
:105900000E94301C7C01DACF0E94301C782E0E944D
:10591000331C682E892ED2CF0E94391CC514E8F59D
:1059200028A5622F70E080E0862F772766273FA1A9
:10593000732B9EA1692BA0E2CA9E90011124620FD5
:10594000731F811D37FD8A950E94C01C60E270E0C4
:10595000C5010E94B61C20E0A501612F88E10E94CC
:10596000F51FFE013696C7016AE070E06CD5805DD8
:1059700082937B01AE16BF06B1F71E8280E0A501BF
:10598000480F511DFA019081903311F48F5FF7CFCA
:1059900020E0612F80E00E94F51F93941A5F2AA1F6
:1059A0003BA1235031093BA32AA31B3309F04DCF60
:1059B0005E98E5E4F6E081E0A0E0B8E000800EBC8F
:1059C0008111012C1197A0FDFDCF0192B9F70DB403
:1059D0005E9A2FB7F89480916E0A90916F0AA09109
:1059E000700AB091710A2FBF94E1F92EF80E10E001
:1059F0002FB7F89480916E0A90916F0AA091700A67
:105A0000B091710A2FBF3F2D381B37FDC4CE0E94C5
:105A1000781CEECFE0913006F1E0EE3F28F4819360
:105A20009193E0933006089585E073DE8F929F9204
:105A3000AF92BF92CF92DF92EF920F931F93CF93CB
:105A4000DF93E0913006F1E082919291C92FD82F37
:105A500012910291829192912291C22ED92EE82E1A
:105A6000B290A2909290E09330060E94391C692D6A
:105A70007A2D8B2D0E94C01C2097A9F058014E0151
:105A80000E94331CF50181935F01882361F0F1E0EE
:105A90008F1A910841F081E0C81AD108E10881F716
:105AA000F50180E081930E94391CC801B3DFCE016B
:105AB000B1DF0E94631EDF91CF911F910F91EF9094
:105AC000DF90CF90BF90AF909F908F9008951F93DD
:105AD000CF93DF93E0913006F1E082919291C92F4C
