:100000000C94A81A0C94C51A0C94C51A0C94C51A11
:100010000C94C51A0C94C51A0C94C51A0C94C51AE4
:100020000C94C51A0C94C51A0C94C51A0C94C51AD4
:100030000C94C51A0C94C51A0C94C51A0C94C51AC4
:100040000C94C51A0C9405300C94C51A0C94C51A5E
:100050000C94C51A0C94C51A0C94C51A0C94542906
:100060000C94C51A0C94C51A0C94C51A0C94C51A94
:100070000C94C51A0C94C51A0C94C51A0C94C51A84
:100080000C94C51A0C94C51A0C94C51A0C94C51A74
:100090000C94C51A0C94C51A0C94C51A0C94C51A64
:1000A0000C94C51A0C94C51A0C94C51A084AD73B6F
:1000B0003BCE016E84BCBFFDC12F3D6C74319ABD37
:1000C00056833DDA3D00C77F11BED9E4BB4C3E915B
:1000D0006BAAAABE000000803F05A84CCDB2D44E4A
:1000E000B93836A9020C50B9918688083CA6AAAA4C
:1000F0002ABE000000803F0664EC1B3C04BC163E98
:100100003BE5B93CC93C37C29E5A3D660498083E5F
:10011000EA69AAAA3E000000803F07634236B79B07
:10012000D8A71A39685618AEBAAB558C1D3CB7CC57
:100130005763BD6DEDFD753EF6177231BF000000CF
:10014000803F08000000BE922449123EABAAAA2AB2
:10015000BECDCCCC4C3E00000080BEABAAAAAA3ECD
:1001600000000000BF000000803F00000000000809
:100170004178D3BB4387D1133D190E3CC3BD4282A6
:10018000AD2B3E68EC8276BED98FE1A93E4C80EF64
:10019000FFBE01C4FF7F3F00000000000000000020
:1001A000000000000000000000000000000000004F
:1001B000000000000000000000000000000000003F
:1001C000000000000000000000000000000000002F
:1001D000000000000000000000000000000000001F
:1001E000000000000000000000000000000000000F
:1001F00000000000000000000000000000000000FF
:1002000000C000C0640C721CF8942EBC0EB478942C
:10021000821C039CF001F50D099400000000000011
:100220002041424320496E74657270726574657234
:100230002062792050657465722042726F776E205B
:10024000CF3FB8F49992640CAFB6F8942EBC9EB42C
:10025000AFBE721C821CC895C895C895640C721CF0
:10026000F8942EBC0EB47894821C039CF001F50D1A
:10027000099485E00E943E18000000000000000084
:10028000CE3F18F085E00E943E18999200E0902E33
:100290000EB42EBC640C721C821C039CF001F50D84
:1002A00009940000000000000000000000000000B1
:1002B000000000000000000000000000000000003E
:1002C000CE3F18F085E00E943E18999201E0902EF2
:1002D0000EB42EBC640C721C821C039CF001F50D44
:1002E0000994000000000000000000000000000071
:1002F00000000000000000000000000000000000FE
:10030000CE3F18F085E00E943E18999202E0902EB0
:100310000EB42EBC640C721C821C039CF001F50D03
:100320000994000000000000000000000000000030
:1003300000000000000000000000000000000000BD
:10034000CE3F18F085E00E943E18999203E0902E6F
:100350000EB42EBC640C721C821C039CF001F50DC3
:1003600009940000000000000000000000000000F0
:10037000000000000000000000000000000000007D
:10038000CE3F18F085E00E943E18999204E0902E2E
:100390000EB42EBC640C721C821C039CF001F50D83
:1003A00009940000000000000000000000000000B0
:1003B000000000000000000000000000000000003D
:1003C000CE3F18F085E00E943E18999205E0902EED
:1003D0000EB42EBC640C721C821C039CF001F50D43
:1003E0000994000000000000000000000000000070
:1003F00000000000000000000000000000000000FD
:10040000CE3F18F085E00E943E18999206E0902EAB
:100410000EB42EBC640C721C821C039CF001F50D02
:10042000099400000000000000000000000000002F
:1004300000000000000000000000000000000000BC
:10044000CE3F18F085E00E943E18999207E0902E6A
:100450000EB42EBC640C721C821C039CF001F50DC2
:1004600009940000000000000000000000000000EF
:10047000000000000000000000000000000000007C
:10048000CE3F18F085E00E943E18999208E0902E29
:100490000EB42EBC640C721C821C039CF001F50D82
:1004A00009940000000000000000000000000000AF
:1004B000000000000000000000000000000000003C
:1004C000CE3F18F085E00E943E18999200E1902EF0
:1004D0000EB42EBC640C721C821C039CF001F50D42
:1004E000099400000000000000000000000000006F
:1004F00000000000000000000000000000000000FC
:10050000CE3F18F085E00E943E18999200E2902EAE
:100510000EB42EBC640C721C821C039CF001F50D01
:10052000099400000000000000000000000000002E
:1005300000000000000000000000000000000000BB
:10054000CE3F18F085E00E943E18999200E4902E6C
:100550000EB42EBC640C721C821C039CF001F50DC1
:1005600009940000000000000000000000000000EE
:10057000000000000000000000000000000000007B
:10058000CE3F18F085E00E943E18999200E8902E28
:100590000EB42EBC640C721C821C039CF001F50D81
:1005A0000994640C721CF8942EBC0EB47894821CCE
:1005B000039CF001F50D099400000000000000000C
:1005C000CD3F60F49992299299240EB42EBC640C0C
:1005D000721C821C039CF001F50D099485E00E94B9
:1005E0003E180000000000000000000000000000B5
:1005F00000000000000000000000000000000000FB
:10060000CC3F68F499922992299299240EB42EBC79
:10061000640C721C821C039CF001F50D099485E0AA
:100620000E943E18000000000000000000000000D2
:1006300000000000000000000000000000000000BA
:10064000CB3F70F4999229922992299299240EB461
:100650002EBC640C721C821C039CF001F50D0994E5
:1006600085E00E943E18000000000000000000002D
:10067000000000000000000000000000000000007A
:10068000C73F90F49992299229922992299229920E
:100690002992299299240EB42EBC640C721C821CDF
:1006A000039CF001F50D099485E00E943E180000BE
:1006B000000000000000000000000000000000003A
:1006C000CF3ED0F499922992299229922992299287
:1006D0002992299229922992299229922992299242
:1006E0002992299299240EB42EBC640C721C821C8F
:1006F000039CF001F50D099485E00E943E1800006E
:10070000CD3FD0F7999202E0AFB6F8942EBC0EB46C
:10071000099209D02EBC9EB4AFBE600E721C821C22
:10072000C895C8953ECF000000000000000000C042
:10073000089500000000000000000000000000001C
:10074000CC3FA8F4999203E0AFB6F8942EBC0EB457
:100750000992E9DF2EBC0EB40992E5DF2EBC9EB4EF
:10076000AFBE600E721C821CC895C8951ACF85E07A
:100770000E943E1800000000000000000000000081
:10078000CB3FA8F7999204E0AFB6F8942EBC0EB414
:100790000992600E721C821CC9DF2EBC0EB4099235
:1007A000C2DF2EBC0EB40992BEDF2EBC9EB4AFBE1B
:1007B000BEDFF7CE000000000000000000000000D7
:1007C000CE3F68F49992990C990800000EB42EBCA3
:1007D000640C721C821C039CF001F50D099485E0E9
:1007E0000E943E1800000000000000000000000011
:1007F00000000000000000000000000000000000F9
:10080000CD3F68F49992990C990899920EB42EBC38
:10081000640C721C821C039CF001F50D099485E0A8
:100820000E943E18000000000000000000000000D0
:1008300000000000000000000000000000000000B8
:10084000CC3F70F49992990C9908999299920EB4B0
:100850002EBC640C721C821C039CF001F50D0994E3
:1008600085E00E943E18000000000000000000002B
:100870000000000000000000000000000000000078
:10088000CE3F60F49992640C721CF8942EBC0EB4A6
:100890007894821C039CF001F50D099485E00E9478
:1008A0003E180000000000000000000000000000F2
:1008B0000000000000000000000000000000000038
:1008C000CE3F68F49992DE01A2509C900EB42EBCEB
:1008D000640C721C821C039CF001F50D099485E0E8
:1008E0000E943E1800000000000000000000000010
:1008F00000000000000000000000000000000000F8
:10090000CE3F68F49992DE01A3509C900EB42EBCA9
:10091000640C721C821C039CF001F50D099485E0A7
:100920000E943E18000000000000000000000000CF
:1009300000000000000000000000000000000000B7
:10094000CE3F68F49992DE01A4509C900EB42EBC68
:10095000640C721C821C039CF001F50D099485E067
:100960000E943E180000000000000000000000008F
:100970000000000000000000000000000000000077
:10098000CE3F68F49992DE01A5509C900EB42EBC27
:10099000640C721C821C039CF001F50D099485E027
:1009A0000E943E180000000000000000000000004F
:1009B0000000000000000000000000000000000037
:1009C000CE3F68F49992DE01A6509C900EB42EBCE6
:1009D000640C721C821C039CF001F50D099485E0E7
:1009E0000E943E180000000000000000000000000F
:1009F00000000000000000000000000000000000F7
:100A0000CE3F68F49992DE01A7509C900EB42EBCA4
:100A1000640C721C821C039CF001F50D099485E0A6
:100A20000E943E18000000000000000000000000CE
:100A300000000000000000000000000000000000B6
:100A4000CE3F68F49992DE01A8509C900EB42EBC63
:100A5000640C721C821C039CF001F50D099485E066
:100A60000E943E180000000000000000000000008E
:100A70000000000000000000000000000000000076
:100A8000CD3F78F49992DE01A2500D9009929D908D
:100A90000EB42EBC640C721C821C039CF001F50D7C
:100AA000099485E00E943E1800000000000000004C
:100AB0000000000000000000000000000000000036
:100AC000CD3F78F49992DE01A3500D9009929D904C
:100AD0000EB42EBC640C721C821C039CF001F50D3C
:100AE000099485E00E943E1800000000000000000C
:100AF00000000000000000000000000000000000F6
:100B0000CD3F78F49992DE01A4500D9009929D900A
:100B10000EB42EBC640C721C821C039CF001F50DFB
:100B2000099485E00E943E180000000000000000CB
:100B300000000000000000000000000000000000B5
:100B4000CD3F78F49992DE01A5500D9009929D90C9
:100B50000EB42EBC640C721C821C039CF001F50DBB
:100B6000099485E00E943E1800000000000000008B
:100B70000000000000000000000000000000000075
:100B8000CD3F78F49992DE01A6500D9009929D9088
:100B90000EB42EBC640C721C821C039CF001F50D7B
:100BA000099485E00E943E1800000000000000004B
:100BB0000000000000000000000000000000000035
:100BC000CD3F78F49992DE01A7500D9009929D9047
:100BD0000EB42EBC640C721C821C039CF001F50D3B
:100BE000099485E00E943E1800000000000000000B
:100BF00000000000000000000000000000000000F5
:100C0000CD3F78F49992DE01A8500D9009929D9005
:100C10000EB42EBC640C721C821C039CF001F50DFA
:100C2000099485E00E943E180000000000000000CA
:100C300000000000000000000000000000000000B4
:100C4000CD3F78F49992DE01A9500D9009929D90C4
:100C50000EB42EBC640C721C821C039CF001F50DBA
:100C6000099485E00E943E1800000000000000008A
:100C70000000000000000000000000000000000074
:100C8000CE3F18F085E00E943E189992AFB6F894D6
:100C90002EBC0EB4AFBE640C721C821CDE01A01907
:100CA0009C9000C000C0640C721CF8942EBC0EB462
:100CB0007894821C039CF001F50D0994000000005B
:100CC000CD3F18F085E00E943E189992AFB6F89497
:100CD0002EBC0EB4AFBE640C721C821CDE01A019C7
:100CE0000D909C900992640C721CF8942EBC0EB46A
:100CF0007894821C039CF001F50D0994000000001B
:100D0000CB3F18F085E00E943E189992640CDE01FA
:100D10000EB42EBC721C821CA0190D911D912D9138
:100D20009D900993199329930EB42EBC640C721CE8
:100D3000821C039CF001F50D0994000000000000E6
:100D4000092D9C0EF8F2DE01640C721C821C0EB49C
:100D50002EBCA019069510F40D9009920D900992E1
:100D60009D9099920A95D1F7CA950EB42EBC640C49
:100D7000721C821C039CF001F50D09940000000018
:100D8000C89500C0AFB6F8942EBC0EB4AFBE640CCC
:100D9000721C821C092DDE01A0190C939A90000090
:100DA000640C721CF8942EBC0EB47894821C039CC4
:100DB000F001F50D099400000000000000000000A3
:100DC000C89500C0AFB6F8942EBC0EB4AFBE640C8C
:100DD000721C821C192D0A91DE01A0190D931D931E
:100DE0009A900EB42EBC640C721C821C039CF00101
:100DF000F50D099400000000000000000000000054
:100E0000392D2A911A910A910EB42EBC640C721CD1
:100E1000821CDE01A0190D931D932D933D939A9092
:100E200000000EB42EBC640C721C821C039CF001EA
:100E3000F50D099400000000000000000000000013
:100E4000092D0250DE011A912A910EB42EBC640CB9
:100E5000721C821CA0191E932E93069518F40A90FA
:100E60000E9231F00A900E920A900E920A95D1F7E6
:100E70009A90D7CF000000000000000000000000A2
:100E80009992CF3F19F485E00E943E18AFB6F894CE
:100E90002EBCAEB542E0640E721C821C0CD02EBC7F
:100EA000BEB5AFBE9C900AD07BCF00000000000012
:100EB000000000000000000000C0000008950000D5
:100EC0009992CE3F18F085E00E943E180000F894F9
:100ED0002EBCAEB542E0640E721C821CECDF2EBC50
:100EE000BEB578940D919D900993C89559CF000097
:100EF00000000000000000000000000000000000F2
:100F00009992CC3F18F085E00E943E1800C0AEB523
:100F10002EBC42E0640E721C821CCCDFBEB52EBC1F
:100F20000D911D912D919D9009931993299359CF5E
:100F300000000000000000000000000000000000B1
:100F4000292D9A949C0EF8F2C895AEB52EBC42E0BD
:100F5000640E721C821CAEDFBEB52EBC269510F44A
:100F60000D9009920D9009920D9009922A95D1F752
:100F70009A9037CF00000000000000000000000041
:100F8000CF3F18F085E00E943E189992AFB6F894D2
:100F90002EBCAEB5AFBEB2E09C90640C721C821C3D
:100FA000C89500C0640C721CF8942EBC0EB47894E2
:100FB000821C039CF001F50D0994C895000008956A
:100FC000CE3F18F085E00E943E189992AFB6F89493
:100FD0002EBCAEB5AFBEB2E09D9099929C90640CD1
:100FE000721C821C0000640C721CF8942EBC0EB49F
:100FF0007894821C039CF001F50D0994089500007B
:10100000CC3F18F085E00E943E189992B2E0640C43
:10101000AEB52EBC721C821C9D9099929D909992A7
:101020009D9099929C900EB42EBC640C721C821CF4
:10103000039CF001F50D0994000000000000000081
:10104000C89500C0AFB6F8942EBCAEB512E0610EE4
:10105000721C821C30DF2EBCBEB5AFBE9C929A9033
:101060002DDF640C721CF8942EBC0EB47894821C94
:10107000039CF001F50D0994000000000000000041
:10108000C89500C0AFB6F8942EBCAEB512E0610EA4
:10109000721C821C10DF2EBCBEB5AFBE1A911D9310
:1010A0009D929A90C895640C721CF8942EBC0EB454
:1010B0007894821C039CF001F50D09940000000057
:1010C0002A911A910A91F8942EBCAEB5392D42E0BE
:1010D000640E721C821CF0DE2EBCBEB578940D939B
:1010E0001D932D933D939A900000640C721CF8940C
:1010F0002EBC0EB47894821C039CF001F50D09946B
:10110000C89500C0AFB6F8942EBCAEB5AFBE12E025
:10111000610E721C821CD0DEBEB52EBCA90DB21DA4
:10112000969410F40A900E920A900E920A900E92E3
:101130009A94D1F79A9048C0000000000000000087
:10114000292D1A910A91599A33E059983EBDA090E1
:10115000720AB090730AA10EB21EADDEBEBCA5DE4F
:10116000AEBCA3DE0EBDA2DE2EBCA0DE9EB4599A9C
:1011700059983EBD0C940618000000C00895000068
:10118000292D1A910A9133E000001EB426C0640C88
:10119000721C821CC895C895C895AFB6F8942EBC31
:1011A0000EB4AFBE09921A941414A9F7E6DF9EB4E8
:1011B000599A59983EBD0C94061800000000000092
:1011C000B92DAA919D9000C00EB42EBC640C721C67
:1011D000821C039CF001F50D0994599A33E059984B
:1011E0003EBDA090720AB090730AA10EB21E63DEDB
:1011F000BEBC5BDEAEBC59DE0EBD58DE2EBCC7CF1A
:10120000B92DAA911D9019929D900EB42EBC640C1C
:10121000721C821C039CF001F50D09940000000073
:1012200000000000000000000000000000000000BE
:1012300000000000000000000000000000000000AE
:10124000B92DAA912C2F640C721C821C0EB42EBCDA
:10125000200D20F1069410F49D9099929D90999202
:101260009D9099920A94D1F7CA950EB42EBC640C45
:10127000721C821C039CF001F50D09940000000013
:10128000B92DAA911A901C929A900EB42EBC640C9F
:10129000721C821C039CF001F50D099485E00E94EC
:1012A0003E180000000000000000000000000000E8
:1012B000000000000000000000000000000000002E
:1012C000B92DAA911A900A909A900D921C920EB480
:1012D0002EBC640C721C821C039CF001F50D099459
:1012E00000000000000000000000000000000000FE
:1012F00000000000000000000000000000000000EE
:10130000B92DAA910000640C721C821C0EB42EBC74
:10131000A00DB21D069410F41A901E921A901E92FF
:101320001A901E920A94D1F79A900EB42EBC640CB7
:10133000721C821C039CF001F50D09940000000052
:10134000CA9598800000640C721CF8942EBC0EB4F0
:101350007894821C039CF001F50D099400000000B4
:10136000000000000000000000000000000000007D
:10137000000000000000000000000000000000006D
:10138000C25098800000640C721CF8942EBC0EB4FD
:101390007894821C039CF001F50D09940000000074
:1013A000000000000000000000000000000000003D
:1013B000000000000000000000000000000000002D
:1013C000C35098800000640C721CF8942EBC0EB4BC
:1013D0007894821C039CF001F50D0994000000C074
:1013E0000000000000000000000000000895000060
:1013F00000000000000000000000000000000000ED
:10140000C45098800000640C721CF8942EBC0EB47A
:101410007894821C039CF001F50D09944A91640FA5
:10142000751F6993972E0EB42EBC640C721C821C1F
:10143000039CF001F50D099400000000000000007D
:10144000C89500C0AFB6F8942EBC0EB4AFBE640C05
:10145000721C821CC0199880C89500C0640C721C54
:10146000F8942EBC0EB47894821C039CF001F50D08
:1014700009940000000000000000000000000000CF
:10148000492D640C721C821C00C0F8942EBC0EB452
:10149000AFBE401588F49A906A91640F921C6993CC
:1014A0000000640C721CF8942EBC0EB47894821C5C
:1014B000039CF001F50D099482E00E943E180000A3
:1014C000492D12E0610EC895F8942EBC0EB5721C21
:1014D000821C86DF2EBC1EB57894411768F7049FE6
:1014E0005A914A91040E151E0992912C00000EB4D7
:1014F0002EBC640C721C821C039CF001F50D099437
:10150000592D4A9100C0AFB6F8942EBC0EB514E028
:10151000610E721C821C66DF2EBC1EB560DF2EBC05
:101520002EB55DDF2EBC3EB5AFBE4217530720F689
:10153000049FB001059F700D149F700D5A916ECFDE
:10154000A92C9A90EA900FB6F8942EBC0EB5DA90BA
:1015500012E0610E721C821C47DF2EBC1EB50FBE4E
:10156000A11640F4A09ED00CE11C921CD992E992E5
:1015700000004CC182E00C943E1800000000000006
:1015800035DF4EB52EBC15E0610E721C821CC92CD5
:10159000BA90AA902BDF5EB52EBCFA90EA90DA9052
:1015A00022DF0EB52EBC1ADF1EB52EBC17DF2EB5FE
:1015B0002EBCA016B106C206E8F60C94B1170000C6
:1015C0004A913A912A91F8942EBC0EB57894592DEF
:1015D00012E0610E721C821C4217530758F6049FDA
:1015E0009A918A912EBC1EB5B001680F791F059F94
:1015F000700D149F700D6993972E000007C10000B5
:101600000C94CE1782E00C943E18B00CC11C289F9D
:10161000C00C199FC00C301B410B920A9CF3B2E026
:101620006B0E721C821CA992B992C992399349938C
:10163000EDC0099319936993E9C000000000000010
:101640006A915A914A913A918EB52EBC2A911A917B
:101650000A9142175307B0F62617390598F2489FAA
:10166000000D111D9EB52EBC589F110D499F110DE7
:10167000641B950A3CF2B2E06B0E721C821CD9CF3F
:101680004A913A912A911A918EB52EBC0A91FA90FC
:10169000EA90DA90CA90BA90AA900D151E052F050F
:1016A00020F59EB52EBCD316E406F904F0F0089F91
:1016B000A00CB11CC21C189FB00CC11C099FA5CF67
:1016C0009992CE3F18F085E00E943E18AFB6F8948C
:1016D0002EBC0EB4AFBE640C721C821C8E010019AD
:1016E0000993912E00C000C091C082E00C943E1876
:1016F000C8950000089500000000000000000000F0
:101700009992CE3F18F085E00E943E18AFB6F8944B
:101710002EBC0EB4AFBE640C721C821C12E0099287
:10172000912E00C00FC0000000000000000000006B
:1017300000000000000000000000000000000000A9
:101740009394C895640C721CF8942EBC0EB47894D3
:10175000821C039CF001F50D0994000000000000BC
:101760000000000000000000000000000000000079
:101770000000000000000000000000000000000069
:101780009A940000DFCF000000000000000000007D
:101790000000000000000000000000000000000049
:1017A0000000000000000000000000000000000039
:1017B0000000000000000000000000000000000029
:1017C00000C0DE011196AFB6F8942EBC0EB4AFBEC9
:1017D000640C721C821CA0190C9003940C9200C023
:1017E000640C721CF8942EBC0EB47894821C039C7A
:1017F000F001F50D09940000000000000000000059
:10180000B92DAA910D91902E03950E930EB42EBC76
:10181000640C721C821C039CF001F50D09940000FD
:1018200000000000000000000000000000000000B8
:1018300000000000000000000000000000000000A8
:10184000B92DAA910D911D910993912E040D121D90
:101850001E930E930EB42EBC640C721C821C039C4F
:10186000F001F50D099400000000000000000000E8
:101870000000000000000000000000000000000068
:10188000CE3F18F085E00E943E18B92DAA910D9127
:101890001D912D9109931993922E040D121D221D55
:1018A0002E931E930E930EB42EBC640C721C821CDD
:1018B000039CF001F50D09940000000000000000F9
:1018C000CD3F18F085E00E943E18B92DAA910D91E8
:1018D0001D912D913D91099319932993932E040DF8
:1018E000121D221D321D3E932E931E930E930EB495
:1018F0002EBC640C721C821C039CF001F50D099433
:10190000B92DAA910D91902E0A950E930EB42EBC6E
:10191000640C721C821C039CF001F50D09940000FC
:1019200000000000000000000000000000000000B7
:1019300000000000000000000000000000000000A7
:10194000B92DAA910D911D910993912E0419120997
:101950001E930E930EB42EBC640C721C821C039C4E
:10196000F001F50D099400000000000000000000E7
:101970000000000000000000000000000000000067
:10198000CE3F18F085E00E943E18B92DAA910D9126
:101990001D912D9109931993922E04191209220970
:1019A0002E931E930E930EB42EBC640C721C821CDC
:1019B000039CF001F50D09940000000000000000F8
:1019C000CD3F18F085E00E943E18B92DAA910D91E7
:1019D0001D912D913D91099319932993932E0419EB
:1019E0001209220932093E932E931E930E930EB4D0
:1019F0002EBC640C721C821C039CF001F50D099432
:101A0000CD3F18F085E00E943E18B92DAA916D9146
:101A10007D918D919D91699379938993992E8D01F3
:101A2000112420E030E040E85FE30E94AF32D801AB
:101A30009E938E937E936E93DACF00000000000099
:101A4000CD3F18F085E00E943E18B92DAA916D9106
:101A50007D918D919D91699379938993992E8D01B3
:101A6000112420E030E040E85FE30E94AE32D8016C
:101A70009E938E937E936E93BACF00000000000079
:101A8000EA909E0C0000640C721CF8942EBC0EB4FC
:101A90007894821C039CF001F50D0994000000006D
:101AA0000000000000000000000000000000000036
:101AB0000000000000000000000000000000000026
:101AC000AA90FA90EA90AE0C9F1CA9920EB42EBC7C
:101AD000640C721C821C039CF001F50D099400003B
:101AE00000000000000000000000000000000000F6
:101AF00000000000000000000000000000000000E6
:101B0000BA90AA900A91FA90EA90AE0CBF1C901E6F
:101B1000A992B9920EB42EBC640C721C821C039C58
:101B2000F001F50D09940000000000000000000025
:101B300000000000000000000000000000000000A5
:101B4000CA90BA90AA901A910A91FA90EA90AE0CB3
:101B5000BF1CC01E911EA992B992C9920EB42EBC90
:101B6000640C721C821C039CF001F50D09940000AA
:101B70000000000000000000000000000000000065
:101B8000EA90E9189E2C640C721CF8942EBC0EB4DA
:101B90007894821C039CF001F50D0994000000006C
:101BA0000000000000000000000000000000000035
:101BB0000000000000000000000000000000000025
:101BC000AA90FA90EA90EA18F908E9929F2C0EB4CC
:101BD0002EBC640C721C821C039CF001F50D099450
:101BE00000000000000000000000000000000000F5
:101BF00000000000000000000000000000000000E5
:101C0000BA90AA900A91FA90EA90EA18FB0809099A
:101C1000E992F992902E0EB42EBC640C721C821CB8
:101C2000039CF001F50D0994000000000000000085
:101C300000000000000000000000000000000000A4
:101C4000CA90BA90AA901A910A91FA90EA90EA186A
:101C5000FB080C091909E992F9920993912E0EB427
:101C60002EBC640C721C821C039CF001F50D0994BF
:101C70000000000000000000000000000000000064
:101C8000FA90EA90E90CF21CE9929F2C0EB42EBC5B
:101C9000640C721C821C039CF001F50D0994000079
:101CA0000000000000000000000000000000000034
:101CB0000000000000000000000000000000000024
:101CC0000A91FA90EA90E90CF21C021DE992F9924D
:101CD000902E0EB42EBC640C721C821C039CF0016E
:101CE000F50D099400000000000000000000000055
:101CF00000000000000000000000000000000000E4
:101D0000FA90EA90E918F208E9929F2C0EB42EBCE2
:101D1000640C721C821C039CF001F50D09940000F8
:101D200000000000000000000000000000000000B3
:101D300000000000000000000000000000000000A3
:101D4000FA90EA90E99C9001F99C300D2993932E2A
:101D50000EB42EBC640C721C821C039CF001F50DA9
:101D600009940000000000000000000000000000D6
:101D70000000000000000000000000000000000063
:101D8000EA90E99C902C00C00EB42EBC640C721C2E
:101D9000821C039CF001F50D099400000000000076
:101DA0000000000000000000000000000000000033
:101DB0000000000000000000000000000000000023
:101DC000AA90FA90EA90EA9C9001E99C300DFA9C66
:101DD000300D2993932E0EB42EBC640C721C821C01
:101DE000039CF001F50D09940000000000000000C4
:101DF00000000000000000000000000000000000E3
:101E0000BA90AA900A91FA90EA90EA9C90010A9DF1
:101E1000902CFA9C300D911CEB9C300D911CFB9C7E
:101E2000900CE99C900C299339930EB42EBC640C51
:101E3000721C821C039CF001F50D09940000000047
:101E40000C94831700000000000000000000000058
:101E50000000000000000000000000000000000082
:101E60000000000000000000000000000000000072
:101E70000000000000000000000000000000000062
:101E8000792D6A919A918A916215720519F483E00D
:101E90000E943E180E9422386993972E0EB42EBCE1
:101EA000640C721C821C039CF001F50D0994000067
:101EB0000000000000000000000000000000000022
:101EC000592D4A913A912A919A918A917A916A91DF
:101ED000221532054205520519F483E00E943E188E
:101EE0008E010E947D32E801299339934993952E02
:101EF000D5CF00000000000000000000000000003E
:101F0000792D6A919A918A916215720519F483E08C
:101F10000E943E180E9436386993972E0EB42EBC4C
:101F2000640C721C821C039CF001F50D09940000E6
:101F300000000000000000000000000000000000A1
:101F4000592D4A913A912A919A918A917A916A915E
:101F5000221532054205520519F483E00E943E180D
:101F60008E010E945132E801299339934993952EAD
:101F7000D5CF0000000000000000000000000000BD
:101F8000792D6A919A918A916215720519F483E00C
:101F90000E943E180E9422388993992E0EB42EBCBE
:101FA000640C721C821C039CF001F50D0994000066
:101FB0000000000000000000000000000000000021
:101FC000592D4A913A912A919A918A917A916A91DE
:101FD000221532054205520519F483E00E943E188D
:101FE0008E010E947D32E801699379938993992E3D
:101FF000D5CF00000000000000000000000000003D
:10200000792D6A919A918A916215720519F483E08B
:102010000E943E180E9436388993992E0EB42EBC29
:10202000640C721C821C039CF001F50D09940000E5
:1020300000000000000000000000000000000000A0
:10204000592D4A913A912A919A918A917A916A915D
:10205000221532054205520519F483E00E943E180C
:102060008E010E945132E801699379938993992EE8
:10207000D5CF0000000000000000000000000000BC
:10208000492D0A914830A0F442FD029542FD007F9F
:1020900041FD000F41FD000F40FD000F902E0EB4DA
:1020A0002EBC640C721C821C039CF001F50D09947B
:1020B0009924F5CF0000000000000000000000009F
:1020C000492D1A910A914830A1F0403128F0299207
:1020D000992406C0000F111F4A95E2F70993912E2B
:1020E0000EB42EBC640C721C821C039CF001F50D16
:1020F00009942992902EF4CF000000000000000007
:10210000492D3A912A911A910A91403248F0299228
:102110002992299299240AC0000F111F221F331FF0
:102120004A95D2F7099319932993932E0EB42EBC96
:10213000640C721C821C039CF001F50D09940000D4
:10214000492D0A914830A0F442FD029542FD0F70DE
:1021500041FD069541FD069540FD0695902E0EB475
:102160002EBC640C721C821C039CF001F50D0994BA
:10217000922CF5CF000000000000000000000000DD
:10218000492D1A910A91403128F02992922C06C0CB
:10219000169507954A95E2F70993912E0EB42EBC39
:1021A000640C721C821C039CF001F50D0994000064
:1021B000000000000000000000000000000000001F
:1021C000492D3A912A911A910A91403248F0299268
:1021D00029922992922C0AC0369527951795079532
:1021E0004A95D2F7099319932993932E0EB42EBCD6
:1021F000640C721C821C039CF001F50D0994000014
:10220000492D0A91473030F050E007FD5FEF952EE1
:1022100004C005954A95EAF7902E0EB42EBC640CC6
:10222000721C821C039CF001F50D09940000000053
:10223000000000000000000000000000000000009E
:10224000492D1A910A91403140F050E017FD5FEF9F
:102250005993952E06C0159507954A95E2F709936F
:10226000912E0EB42EBC640C721C821C039CF001D7
:10227000F50D0994000000000000000000000000BF
:10228000492D3A912A911A910A91403260F050E01A
:1022900027FD5FEF599359935993952EE2CF3595CA
:1022A0002795179507954A95D2F70993199329937E
:1022B000932ED7CF000000000000000000000000B7
:1022C000EA909E200000640C721CF8942EBC0EB4A0
:1022D0007894821C039CF001F50D09940000000025
:1022E00000000000000000000000000000000000EE
:1022F00000000000000000000000000000000000DE
:10230000AA90FA90EA90AE209F20A9920EB42EBC1B
:10231000640C721C821C039CF001F50D09940000F2
:1023200000000000000000000000000000000000AD
:10233000000000000000000000000000000000009D
:10234000CA90BA90AA901A910A91FA90EA90AE2097
:10235000BF20C0229122A992B992C9920EB42EBC7C
:10236000640C721C821C039CF001F50D09940000A2
:10237000000000000000000000000000000000005D
:10238000EA909E280000640C721CF8942EBC0EB4D7
:102390007894821C039CF001F50D09940000000064
:1023A000000000000000000000000000000000002D
:1023B000000000000000000000000000000000001D
:1023C000AA90FA90EA90AE289F28A9920EB42EBC4B
:1023D000640C721C821C039CF001F50D0994000032
:1023E00000000000000000000000000000000000ED
:1023F00000000000000000000000000000000000DD
:10240000CA90BA90AA901A910A91FA90EA90AE28CE
:10241000BF28C02A912AA992B992C9920EB42EBCA3
:10242000640C721C821C039CF001F50D09940000E1
:10243000000000000000000000000000000000009C
:10244000EA909E240000640C721CF8942EBC0EB41A
:102450007894821C039CF001F50D099400000000A3
:10246000000000000000000000000000000000006C
:10247000000000000000000000000000000000005C
:10248000AA90FA90EA90AE249F24A9920EB42EBC92
:10249000640C721C821C039CF001F50D0994000071
:1024A000000000000000000000000000000000002C
:1024B000000000000000000000000000000000001C
:1024C000CA90BA90AA901A910A91FA90EA90AE2412
:1024D000BF24C0269126A992B992C9920EB42EBCEF
:1024E000640C721C821C039CF001F50D0994000021
:1024F00000000000000000000000000000000000DC
:102500009094C895640C721CF8942EBC0EB4789408
:10251000821C039CF001F50D0994000000000000EE
:1025200000000000000000000000000000000000AB
:10253000000000000000000000000000000000009B
:10254000AA90A0949094A99200000EB42EBC640CA2
:10255000721C821C039CF001F50D09940000000020
:10256000000000000000000000000000000000006B
:10257000000000000000000000000000000000005B
:10258000CA90BA90AA90A094B094C0949094A99242
:10259000B992C9920EB42EBC640C721C821C039CAE
:1025A000F001F50D0994000000000000000000009B
:1025B000000000000000000000000000000000001B
:1025C00000E0921001E0902E640C721CF8942EBC76
:1025D0000EB47894821C039CF001F50D0994000060
:1025E00000000000000000000000000000000000EB
:1025F00000000000000000000000000000000000DB
:102600001A90912800E0921001E0902E0EB42EBC9A
:10261000640C721C821C039CF001F50D09940000EF
:1026200000000000000000000000000000000000AA
:10263000000000000000000000000000000000009A
:10264000AA90A928BA90AB289924A210942C0EB471
:102650002EBC640C721C821C039CF001F50D0994C5
:10266000000000000000000000000000000000006A
:10267000000000000000000000000000000000005A
:10268000AA90A928BA90AB28BA90AB289924A21096
:10269000942C0EB42EBC640C721C821C039CF001A2
:1026A000F50D09940000000000000000000000008B
:1026B000000000000000000000000000000000001A
:1026C000EA9021E0E91408F020E0922E0EB42EBC2E
:1026D000640C721C821C039CF001F50D099400002F
:1026E00000000000000000000000000000000000EA
:1026F00000000000000000000000000000000000DA
:10270000AA90FA90EA90EA14F90450F099240EB4D1
:102710002EBC640C721C821C039CF001F50D099404
:10272000942C0EB42EBC640C721C821C039CF00111
:10273000F50D0994000000000000000000000000FA
:10274000BA90AA900A91FA90EA90EA14FB0409055B
:1027500050F099240EB42EBC640C721C821C039C95
:10276000F001F50D0994942C0EB42EBC640C721C6F
:10277000821C039CF001F50D09940000000000008C
:10278000CA90BA90AA901A910A91FA90EA90EA1423
:10279000FB040C05190550F099240EB42EBC640CF2
:1027A000721C821C039CF001F50D0994942C0EB44C
:1027B0002EBC640C721C821C039CF001F50D099464
:1027C000EA9021E0E9140CF020E0922E0EB42EBC29
:1027D000640C721C821C039CF001F50D099400002E
:1027E00000000000000000000000000000000000E9
:1027F00000000000000000000000000000000000D9
:10280000AA90FA90EA90EA14F90454F099240EB4CC
:102810002EBC640C721C821C039CF001F50D099403
:10282000942C0EB42EBC640C721C821C039CF00110
:10283000F50D0994000000000000000000000000F9
:10284000BA90AA900A91FA90EA90EA14FB0409055A
:1028500054F099240EB42EBC640C721C821C039C90
:10286000F001F50D0994942C0EB42EBC640C721C6E
:10287000821C039CF001F50D09940000000000008B
:10288000CA90BA90AA901A910A91FA90EA90EA1422
:10289000FB040C05190554F099240EB42EBC640CED
:1028A000721C821C039CF001F50D0994942C0EB44B
:1028B0002EBC640C721C821C039CF001F50D099463
:1028C000592D4A913A912A919A918A917A916A91D5
:1028D00011240E948833942C811199240EB42EBCAB
:1028E000640C721C821C039CF001F50D099400001D
:1028F00000000000000000000000000000000000D8
:10290000592D4A913A912A919A918A917A916A9194
:1029100011240E948833881F8827881F982E0EB4A0
:102920002EBC640C721C821C039CF001F50D0994F2
:102930000000000000000000000000000000000097
:1029400001E0921000E0902E640C721CF8942EBCF2
:102950000EB47894821C039CF001F50D09940000DC
:102960000000000000000000000000000000000067
:102970000000000000000000000000000000000057
:10298000592D4A913A912A919A918A917A916A9114
:1029900011240E94AF32699379938993992E0EB4D2
:1029A0002EBC640C721C821C039CF001F50D099472
:1029B0000000000000000000000000000000000017
:1029C000592D4A913A912A919A918A917A916A91D4
:1029D00011240E94AE32699379938993992E0EB493
:1029E0002EBC640C721C821C039CF001F50D099432
:1029F00000000000000000000000000000000000D7
:102A0000592D4A913A912A919A918A917A916A9193
:102A100011240E94E435699379938993992E0EB419
:102A20002EBC640C721C821C039CF001F50D0994F1
:102A30000000000000000000000000000000000096
:102A4000592D4A913A912A919A918A917A916A9153
:102A500011240E948F33699379938993992E0EB430
:102A60002EBC640C721C821C039CF001F50D0994B1
:102A70000000000000000000000000000000000056
:102A8000992D8A917A916A9111240E94F733699362
:102A900079938993992E0EB42EBC640C721C821CFF
:102AA000039CF001F50D09940000000000000000F7
:102AB0000000000000000000000000000000000016
:102AC000992D8A917A916A9111240E94FC3369931D
:102AD00079938993992E0EB42EBC640C721C821CBF
:102AE000039CF001F50D09940000000000000000B7
:102AF00000000000000000000000000000000000D6
:102B0000992D8A917A916A9111240E942A346993AD
:102B100079938993992E0EB42EBC640C721C821C7E
:102B2000039CF001F50D0994000000000000000076
:102B30000000000000000000000000000000000095
:102B4000992D8A917A916A9111240E94283469936F
:102B500079938993992E0EB42EBC640C721C821C3E
:102B6000039CF001F50D0994000000000000000036
:102B7000000000C000C00895000000000000000038
:102B8000192C23E0620E721C9A90F8942EBC0EB59C
:102B9000821CECDF2EBC1EB57894EBDF121431F4EE
:102BA00038018EB4599A59982EBD30C22EBCE1DF3F
:102BB000CBCE00000000000000000000000000007C
:102BC000640C721C821C921471F423E0092D0EB463
:102BD000599A59982EBD9A90102C110C1108600C1E
:102BE000711C811C16C29A902EBCC3DFADCE0000B2
:102BF00000000000000000000000000000000000D5
:102C0000192C23E0620E721C9A90F8942EBC0EB51B
:102C1000821CACDF2EBC1EB57894ABDF121431F0F1
:102C200038018EB4599A59982EBDF0C12EBCA1DF3F
:102C30008BCE00000000000000000000000000003B
:102C4000640C721C821C921471F023E0092D0EB4E6
:102C5000599A59982EBD9A90102C110C1108600C9D
:102C6000711C811CD6C19A902EBC83DF6DCE0000F2
:102C70000000000000000000000000000000000054
:102C800023E0620E721C821C00C0F8942EBC0EB5AC
:102C90006CDF2EBC1EB578946CDF921431F43801D1
:102CA0008EB4599A59982EBDB1C12EBC9A9062DF4C
:102CB0004BCE0000000000000000000000000000FB
:102CC000640C721C821C23E0921461F400000EB4A8
:102CD000599A59982EBD102C110C1108600C711CBA
:102CE000811C97C12EBC9A9045DF2ECE00000000BB
:102CF00000000000000000000000000000000000D4
:102D000003E0600E721C821C00C0F8942EBC0EB54D
:102D10002CDF2EBC1EB578942CDF921431F03801D4
:102D20008EB4599A59982EBD71C12EBC9A9022DF4B
:102D30000BCE0000000000000000000000000000BA
:102D4000640C721C821C23E0921461F000000EB42B
:102D5000599A59982EBD102C110C1108600C711C39
:102D6000811C57C12EBC9A9005DFEECD00000000FB
:102D70000000000000000000000000000000000053
:102D8000C89500C0AFB6F8942EBC6EB423E0EEDE5A
:102D90002EBC7EB4AFBEEADE8EB4599A59982EBDD1
:102DA00035C100000000000000000000000000002D
:102DB0000000000000000000000000000000000013
:102DC000C895C89523E00EB4599A59982EBD03941E
:102DD000102C110C1108600C711C811C1AC186E0AA
:102DE0004DD10000000000000000000000000000C5
:102DF00000000000000000000000000000000000D3
:102E0000A0913406AD3258F7B6E0AFB6F8942EBCB8
:102E10000EB403E0060D602C721C821C0D937D9293
:102E20008D9200C000C02EBC7EB4AFBEA09334060D
:102E3000A0DE23E08EB4599A59982EBDE7C0000059
:102E4000A0913406AD32A8F4B6E0640C721C821C6A
:102E50006D927D928D92A09334060EB423E0599A20
:102E600059982EBD102C110C1108600C711C811C7E
:102E7000D0C086E003D10000000000000000000088
:102E8000A0913406B6E08E9023E0599A59982EBD51
:102E90007E906E90A0933406BCC00000000000003D
:102EA0000000000000000000000000000000000022
:102EB0000000000000000000000000000000000012
:102EC000E0EFF3E3640C721C821C609231060EB4D6
:102ED0002EBC7092320680923306E00DF21D0590F2
:102EE000F491E02D9992C093300611240995C09178
:102EF00030069A900EB42EBC640C721C821C039C8B
:102F0000F001F50D0994CA90BA90AA901A910A910D
:102F1000FA90EA90EA9C90010A9DA001FA9C300D7B
:102F2000411D521DEB9C300D411D521DFB9C400D5F
:102F3000511DEC9C400D511D1A9D500D0B9D500DC7
:102F4000FC9C500DE99C500D299339934993952E83
:102F50000EB42EBC640C721C821C039CF001F50D97
:102F60000994A49ED00CE11CF21CA59EE00CF11C5F
:102F7000B49EE00CF11CB59EF00CC49EF00CD992EE
:102F8000E9929F2C0EB42EBC640C721C821C039C14
:102F9000F001F50D099400C0C8950895C89500C0CA
:102FA0004EB52EBC12E0610E721C821CF4DF5EB5C1
:102FB0002EBCC92CBA90AA902A911A910A919A9083
:102FC000EA90DA90A016B106C206C8F4A49ED00C0E
:102FD000E11C921CA59EE00C911CB49EE00C911C7F
:102FE000B59E900CC49E900CD992E9920EB42EBC62
:102FF000640C721C821C039CF001F50D099482E0A4
:103000003DD0599A23E059982EBD00C0000000C061
:1030100000C000913806021521F50091450A0215FD
:10302000C9F40091720A1091730A070D181D1EBD94
:103030001FD00EBD1DD06EBC1CD02EBC1BD0640C8E
:10304000721CF8942EBC0EB47894821C039CF00180
:10305000F50D09941124C89500C0599A0E940B23BC
:10306000D1CF1124C89500C0599A0E94F224CACF2A
:103070000000C89500C0C895000008956092310610
:1030800070923206809233069992C09330061124D2
:103090000E949E290C940000000000000000000027
:1030A0000000000000000000000000000000000020
:1030B0000000000000000000000000000000000010
:1030C0000000000000000000000000000000000000
:1030D00000000000000000000000000000000000F0
:1030E00000000000000000000000000000000000E0
:1030F00000000000000000000000000000000000D0
:103100004E6F20666F6E742073657420666F722038
:1031100074657874206F7065726174696F6E0053A6
:10312000697A6573206F66206D656D6370792064C0
:1031300073742F73726320646966666572005370DE
:1031400072697465206672616D65206F757473694C
:103150006465206F66207365740043616C6C207336
:103160007461636B206F766572666C6F7700446183
:10317000746120737461636B206F766572666C6F27
:103180007700417373657274696F6E206661696C54
:103190006564004469766973696F6E206279207A8C
:1031A00065726F00417272617920696E6465782082
:1031B0006F7574206F6620626F756E64730047616F
:1031C0006D652064617461206E6F7420666F756E2A
:1031D00064000000FFFFFFFFFFFFFFFFFFFFFFFF97
:1031E000FFFFFFFFFFFFFFFF19FDE4EE7CE1D4D4FA
:1031F000E2C89CBDF7B2ECA8719F7E960C8E138638
:103200008C7E7277BE706A6A7164CE5E7C59765429
:10321000B84F3F4B06470943463FB93B5F3835350A
:103220003832672FBE2C3B2ADC279F25832385213C
:10323000A31FDD1D2F1C9A1A1C19B3175F161D152D
:10324000EE13D012C111C210D20FEE0E180E4D0D9A
:103250008E0CDA0B2F0B8F0AF7096809E108610859
:10326000E90777070C07A7064706ED059805470508
:10327000FC04B40470043104F403BC038603530358
:103280002403F602CC02A4027E025A02380218027B
:10329000FA01DE01C301AA0192017B01660152011C
:1032A0003F012D011C010C01000100010001000182
:1032B0000001000100010001000100010001000106
:1032C00000010001000100010001000100010001F6
:1032D00000010001000085C352C323C3F5C2CBC265
:1032E000A3C27DC259C237C217C2F3B3BBB385B301
:1032F00052B323B3F5B2CBB2A3B27DB259B237B257
:1033000017B2F3A3BBA385A352A323A3F5A2CBA219
:10331000A3A27DA259A237A217A2F393BB938593D0
:1033200052932393F592CB92A3927D925992379226
:103330001792F383BB83858352832383F582CB82E9
:10334000A3827D82598237821782F373BB738573A0
:1033500052732373F572CB72A3727D7259723772F6
:103360001772F363BB63856352632363F562CB62B9
:10337000A3627D62596237621762F353BB53855370
:1033800052532353F552CB52A3527D5259523752C6
:103390001752F343BB43854352432343F542CB4289
:1033A000A3427D42594237421742F333BB33853340
:1033B00052332333F532CB32A3327D325932373296
:1033C0001732F323BB23852352232323F522CB2259
:1033D000A3227D225922BE31A431933182316E3134
:1033E0005A313E311F31003100004552524F5200D8
:1033F000172917291B1D251D121D1A1D0B1D4324DE
:103400002F24191D181DD31D111D562FFF2EF92D08
:10341000B82E5C2E9A2F201C171CF71CF61CF41CCF
:10342000DB28FA2FF31C9F2D8E2D7E2D6F2D602D06
:10343000422C442E162E0D2C3A2B2C2DD62C702CD3
:10344000DC2B8B2BE328D01D6D2C3322CD1DCA1D08
:10345000C71D632CAC1C602C70225D2C5422A82D3F
:10346000BD24D52DA11C961C8B1C7A1C6F1C641CC2
:10347000591C481C371C2C1C3F2CB3243D2C702499
:103480001700030C00000000994C000003002E02FE
:10349000D1010000C411100184101000980C2E3AC4
:1034A000F243B94AB12A877CB726AE22211FAA2A45
:1034B000A23A0A00500184284A298A10A10A000071
:1034C000BE78BF2A2E463F3ABF46BF042E669F7C79
:1034D000F147F1019F6C1F425F7C3F783F7EBF0840
:1034E0002E7ABF68B226E1071F7E071F1F7D9B6CE7
:1034F000833EB94E3F028360F1032208104241002F
:103500004C7A5F324C4A4C7E4C53BE00D6035F70FF
:103510001D00B0019F681F009E785E704C325E11E6
:1035200044799E0856034F020E7A061B1E79924973
:10353000823ADA02C47D0000DF11C0A0D92181FFE8
:10354000A800D5F08D14A1C881CFD9F1AF2000001B
:1035500011241FBECFEFDAE0DEBFCDBF16E0AEE331
:10356000B6E0E8EAF0E702C005900D92A234B10798
:10357000D9F72AE0A2E4B6E001C01D92A937B2074C
:10358000E1F70E9468300C9452380C940000E5E09A
:10359000F0E010D0319728F068517C4F8F4F9F4F4B
:1035A000F9CFAB01FC0106D0641775078E079F07A2
:1035B000D0F30895AEE6BAE02FB7F8947D918D91DF
:1035C0009C9166B52FBFA89B05C06F3F18F47F5F25
:1035D0008F4F9F4F22E0660F771F881F991F2A95F4
:1035E000D1F708959C01E0E0F2E0A0E0B0E0BD0179
:1035F00080E045D039D0BD011296A20FB31F8217CB
:103600009307A9F38F5F9F4F21F4AF5FBF40DB01AA
:1036100060F00BD140E05091770A6091780A80E227
:1036200026D0599AD5D0A0E0B0E07CEFFED04A2F4A
:103630005091770A5B0F6091780A611D82E017D084
:10364000832F71FD822F70FD819124D0759518F420
:103650002150304019F01196AA2391F7599AB8D009
:103660002115310519F7089539D0982F3DC0599883
:1036700011D0862F0FD0852F0DD0842F0BC0462F51
:103680005091770A570F6091780A681F83E0EFDF47
:103690001EBC08958EBD00008EB50DB407FEFCCF94
:1036A0000895E0E0F2E0DC0160E070E080E0E7DF58
:1036B0009D01AF0160E00FD08217930749F4D90153
:1036C000FA0160E00BD081931197E1F761E0F3CF4D
:1036D0000BD0862F089502D0982F00C00DB407FE9E
:1036E000FDCF8EB51EBC08950DB407FEFDCF8EB57F
:1036F000599A08950F931F93CF93DF93809164009D
:103700008E7F8093640080917A00806480937A0039
:1037100080917A0086FDFCCFC0917800D09179002D
:1037200049DFAB01BC01809164008160809364003B
:10373000CE01B0E0A0E0DC01992788278C019D0133
:10374000040F151F261F371FC901B801DF91CF9144
:103750001F910F9108958FB18095807F669B88603F
:103760001C9B8460089581E083BF889513BE0895F3
:103770008EBD00000DB407FEFDCF089508DF5F9AEF
:1037800006DF5C98E2E4F5E38591F2DFEF34E1F7E0
:103790005C9A08951092760A3E983F9808953E9A52
:1037A0003F9A81E08093760A08959091750A982354
:1037B00029F49091740A982381E009F480E0089537
:1037C0008091740A8093750AC6DF8093740A089505
:1037D000599885E05FDF80E05DDF80FDFCCF599A7E
:1037E0000895462F5091720A570F6091730A681F0F
:1037F00083E03DDF1EBC08950F931F93CF93DF93AB
:10380000EA018901EEDFFE010150104019F066DF88
:103810008193FACF69DF8083DF91CF911F910F9160
:103820000895599837DF599A089586E0FACFE091C4
:103830003006F1E0829180933906E09330060895D6
:103840008A9180933C068A9180933B068A9180936B
:103850003A06C093300608959A918A917A916A91B6
:103860000E94BD36699379938993999308959A91AB
:103870008A917A916A915A914A913A912A910E9439
:1038800047366993799389939993C0933006089545
:103890009A918A917A916A915A914A913A912A9190
:1038A0000E947F346993799389939993C0933006EA
:1038B00008959A918A917A916A910E9493366993B8
:1038C00079938993999308959A918A917A916A91BB
:1038D0000E947533699379938993999308959A9186
:1038E0008A917A916A910E94653469937993899358
:1038F000999308959A918A917A916A915A914A91ED
:103900003A912A910E9422336993799389939993EA
:10391000C093300608959A918A917A916A910E9493
:10392000FE36699379938993999308959A918A9130
:103930007A916A910E948C336993799389939993D0
:1039400008959A918A917A916A910E94B336699307
:1039500079938993999308951092670A80914C0AFC
:10396000811108C01092550A88E18093910010924D
:10397000C00018B80895A0914A0AB0914B0A109758
:10398000D9F0E091460AF091470A9F012F5F3F4F1F
:103990002058344028F010924B0A10924A0A089599
:1039A0002D913C9111972F5F3F4F2D933C93819325
:1039B000F093470AE093460A08958093F100089532
:1039C000E091480AF091490A62817381611571059D
:1039D00049F06150710962837383A081B1818D9335
:1039E000A083B1830895ECCE98950895BCCEE09164
:1039F0003006F1E06291E09330066B3040F070E009
:103A000080E094E00E942238609336060895662391
:103A1000D9F364E6F9CFE0E3F6E080818950808352
:103A20000895F9CFE0E3F6E0808186508083089521
:103A3000F9CFF8CFF7CFE0913006F1E08291829193
:103A400080E08193E09330060895E0E3F6E0808122
:103A50008550808308955998A3E0AEBDFC01819103
:103A60009191A1914091720A5091730A490F5A1F86
:103A700000C000C05EBD0DD04EBD0BD08EBD019606
:103A8000A11DA2939293829309D01EBC05D0000081
:103A900008950000C89500C000C000C0089583E0EC
:103AA00059988EBD0091450A011529F0112414D0B2
:103AB000599AB1D5F4CF40913106509132066091B8
:103AC00033068091720A9091730A580F691F6EBD78
:103AD00007C00000000000C0000000C0C8950895A5
:103AE000FADF5EBDF6DF4EBDF5DF1EBCF5CF93E01D
:103AF00059989EBD40913A0650913B0660913C0614
:103B000097E0899F400D511D1124611DDADF00C02F
:103B100000C08EB5599A089593E059989EBD409182
:103B20003A0650913B0660913C0697E0590F611DA3
:103B3000C8DF00C000C08EB5599A089593E0599827
:103B40009EBDAB01682FC895C895BBDF00000895E6
:103B5000FF920F931F93CF93DF93A0913006B1E0B4
:103B60001E910E91FE90A09330062091760A22239A
:103B700041F0EC01B9DD6F2D702F812FFE01099509
:103B80008EDFDF91CF911F910F91FF90089586EC0A
:103B900093E2DECF82E893E2DBCF8AEA93E2D8CFEA
:103BA0008CE293E2D5CF6F927F928F92BF92CF92A9
:103BB000DF92EF92FF920F931F93CF93DF93E091E9
:103BC0003006F1E082919291E92EF82E8291929145
:103BD000092F182F829192912291622E792E882E90
:103BE00082919291C92ED82EE09330067DDDC0914E
:103BF000460AD091470ACE0103968058944008F0B7
:103C00004DC080E8E816F1040CF048C000341105FE
:103C10000CF044C0882DB301E4DD60DDB82E64DD16
:103C200097012B0D311D121613060CF037C0800FB3
:103C3000912F911D181619060CF030C020E8E216DD
:103C40002FEFF2060CF438C000388FEF18070CF491
:103C500033C02FEFC216D10411F008F02DC0E0914F
:103C60004A0AF0914B0A309709F437C081918430A9
:103C700009F033C081919191A191681679068A0665
:103C800009F02BC080818F5F09F427C08083E992FF
:103C90000993C992D093470AC093460A00DFDF9187
:103CA000CF911F910F91FF90EF90DF90CF90BF9039
:103CB0008F907F906F900895CE010A96805894401F
:103CC00068F783E08993E992F992099319936992CD
:103CD00079928992C992D992DDCF8091460A9091CA
:103CE000470A089680589440C8F6D0934B0AC09370
:103CF0004A0A84E0899369927992899280E0899353
:103D0000C6CF0F93803891050CF095C060347105D3
:103D10000CF091C0FC01E40FF11D1E161F060CF003
:103D20008AC0FB01E20FF11D1E161F060CF083C0B6
:103D3000442309F480C0222309F47DC00195A82FF3
:103D4000362F77FF02C0260F30E097FF02C0480FE2
:103D5000A0E090E89A1B491708F4942F80E4831B95
:103D6000281708F4822F830F41E031FD44E030FD35
:103D7000440F32FD4295419551E081FD54E080FDB4
:103D8000550F82FD52955195742F7095652F609552
:103D90008150232F2695269526958695869586957E
:103DA000E5E4F6E030E8239FE00DF11D1124EA0F71
:103DB000F11D821B40FD8F5F50FD8F5F30E8391B86
:103DC000242F2023462F4023882319F4572B4223E6
:103DD0002CC0772349F0A92F00800722022A0192E4
:103DE000AA95D1F7E30FF11D8A95E9F0A92FA770E5
:103DF00081F4A92F019301930193019301930193FE
:103E000001930193A850B1F7E30FF11D8A9571F763
:103E10000AC00193AA95E9F7A92FA87F59F7E30FE4
:103E2000F11D8A9519F7662331F000800522042AD6
:103E300001929A95D1F70F910895803891057CF4FD
:103E40006034710564F4DC01A40FB11D1A161B0661
:103E500034F4DB01A20FB11D1A161B060CF00895F5
:103E60002F923F924F925F926F927F928F929F928A
:103E7000BF92EF92FF920F931F93382E2224842E2D
:103E8000322F369536953695599853E05EBDFB0135
:103E9000F595E795F595E795F595E7951E2F1F3F65
:103EA0004CF41095311BC0FC110F149FE00CF11C59
:103EB000021D1FEF0090720AF00C0090730A001DA3
:103EC00097FF0BC0880EC0FE02C0880F991FE81A2A
:103ED000F90A020997FD039533240EBDA5E4B6E067
:103EE00050E81503030CA00DB11D5319851608F0F9
:103EF000852EE7E0E11BE31714F43E2F2394FEBC6C
:103F0000E0E8E8194E2E51E061FD54E060FD550FE8
:103F100062FD5295552EEFEFE59D3001609470944F
:103F2000EEBC11248FB724D01EBCBB24481509F069
:103F3000B39422C05998E3E0EEBD1124E40EF11CC5
:103F4000011DC0FCE40EC0FCF11CC0FC011DBB2423
:103F5000481509F0B394C8950EBD08D0FEBC06D034
:103F6000EEBC05D01EBC00C000C00895000000C01B
:103F70000000C895C8950895C1FCF4C0C2FCA6C055
:103F800011151CF0332391F57CC0A058BF4F582D5C
:103F9000C0FC0DC0F8941EBC8EB58FBF859D9C9053
:103FA000972091289D9200C05A95A1F714C0F894CB
:103FB0001EBC8EB58FBF859DC001DCDFF8941EBC92
:103FC0006EB48FBF659C30019C9070949720992AA5
:103FD0009D925A9561F71124A819B1093A9509F4EF
:103FE00010C1BB2019F00DB4599AA4DFFD01E058AF
:103FF000FF4F582DC0FC1FC0569518F453959C9048
:104000000CC08EB51EBC859D9C90962090289D92DC
:1040100090809720912891929C908EB51EBC859D92
:10402000962090289D929080972091289192000050
:104030005A9539F716C0F8941EBC8EB58FBF859D72
:10404000C0019C90708097DF6EB41EBC659C00948C
:104050009020982A9D9210947120792A71925A95F5
:1040600051F71124A40DB11D3A9509F0BACF2220C1
:1040700009F4C7C0BB2029F00DB4599A5BDF00C01A
:10408000C895C0FC0DC0F8941EBC8EB58FBF859D31
:104090009C90962090289D9200C08A94A1F7B1C070
:1040A000F8941EBC8EB58FBF859DC00163DFF89468
:1040B0001EBC3EB58FBF359D302D9C903095932210
:1040C000982A9D928A9461F700009BC011151CF0FC
:1040D0003323E1F43BC0A058BF4F582DF8941EBCC9
:1040E0008EB58FBF859D9C9091289D92C8955A95BD
:1040F000A9F71124A819B1093A9509F482C0BB2087
:1041000029F00DB4599A16DF00C000C0FD01E05837
:10411000FF4F582D8EB51EBC859D9C9090289D927A
:1041200090809128919200005A95A1F71124A40D36
:10413000B11D3A9521F7222009F463C0BB2031F06C
:104140000DB4599AF7DE00C000C0C895F8941EBCA3
:104150008EB58FBF859D9C9090289D92C8958A941E
:10416000A9F74FC011151CF03323F1F43DC0A0583E
:10417000BF4F582DF8941EBC8EB58FBF859D0094FF
:1041800010949C9091209D9200005A9599F71124CB
:10419000A819B1093A9509F434C0BB2029F00DB42F
:1041A000599AC8DE00C000C0FD01E058FF4F582DED
:1041B0008EB51EBC859D009410949C9090209D927D
:1041C0009080912091925A9599F71124A40DB11DD8
:1041D0003A9519F7222009F414C0BB2021F00DB440
:1041E000599AA8DE00C000C0F8941EBC8EB58FBFDF
:1041F000859D009410949C9090209D9200008A943C
:1042000099F71124599A0DB41F910F91FF90EF90D7
:10421000BF909F908F907F906F905F904F903F9056
:104220002F9008950895CF92EF92FF920F93DC01A3
:10423000E3E05998EEBDE0903A06F0903B0600911D
:104240003C06E091720AF091730AFE0E0F1FE7E040
:10425000E49FE00CF11C1124011D0EBD02D0FEBC38
:104260000AC0000000000000000000000000000084
:10427000000000C00895F7DFEEBCE0903A06F09031
:104280003B0600913C06EFEFEE1AE8EFFE0AEFEF77
:104290000E0B00C000C01EBCE6DFF8941EBC3EB58D
:1042A00078948D919C91FC01E30FF11DFC93EE93AA
:1042B00000C0F8941EBC3EB57894830F911D37FD65
:1042C0009A95D7DFF8941EBC3EB57894630F711DA4
:1042D00037FD7A95CEDFF8941EBCEEB57894C5DF35
:1042E000F8941EBCFEB57894EE0EFF1EC0DFF89465
:1042F0001EBC4EB57894B8DF2EB5599AC0903906D9
:104300009CDD0F91FF90EF90CF9008958F929F9238
:10431000AF92BF92CF92DF92EF92FF920F931F93D3
:10432000CF93DF93CDB7DEB7C350CDBF782F82E0F8
:10433000403209F45DC0E42FEE0FFF0BE25CFB4C52
:1043400085919491282F2F7129839C0145E0369502
:1043500027954A95E1F72F712A83969596959F7137
:104360009B8383E0911104C082E0211101C081E0B0
:104370008E010F5F1F4F50E040E0E72EF12C20E14F
:10438000B22EAA24A394F80191918F01962E670171
:10439000C40ED51E872E840E992329F1E92FF0E053
:1043A00090FF1CC090E8C916D104C0F4292D30E05C
:1043B000203431059CF491E021FD94E020FD990F1B
:1043C00022FD9295287FB29ED0011124A80DAB5BEF
:1043D000B94F0C90092AA0FE09260C929394F595EA
:1043E000E7959E2FD9CF4F5F5F4F481708F4CBCF8B
:1043F000CD5FCDBFDF91CF911F910F91FF90EF90D7
:10440000DF90CF90BF90AF909F908F900895FF92D4
:104410000F931F93CF93DF93062FF22EEA01182FED
:10442000FF2059F0FE0144912196442341F0602F72
:10443000812F6CDF8F5F180FF3CF4881F5CF812F6D
:10444000DF91CF911F910F91FF90089510924C0A28
:10445000EDE4FAE01086118A88E1809391001092D1
:10446000C00018B8089580914C0A8111EFCF0895CB
:104470008091550A811106C080915E0A811102C0A7
:104480008091670A089518B8EDE4FAE01086118A61
:10449000128E1092450A10924C0A88E18093910086
:1044A0001092C00018B80895EECF109280008AE0F4
:1044B0008093810082E991E0909389008093880045
:1044C00082E080936F0083E48093900088E1809382
:1044D00091001092C0001092C1001092C300D3CF7F
:1044E0008091760A882311F055D9DFCF58D9FDCFB6
:1044F000813818F01092C0000895811104C0109204
:10450000C00018B80895E82FF0E0EE0FFF1FEC523E
:10451000FD4C85919491292F22952F709F702093A7
:10452000C1009093BF008093D1009695879590939A
:10453000BF008093CF0082E88093C0000895813847
:1045400020F088E18093910008958823D1F3E82F2B
:10455000F0E0EE0FFF1FEE52FE4C85919491909388
:104560009900809398008AE1EDCF599893E09EBD21
:104570009FB70090720A700D0090730A801D20D0C2
:104580008EBD1AD07EBD18D06EBD17D01EBCDA010C
:104590002150304000C051F000C014D0F8941EBC2F
:1045A0000EB49FBF0D9221503040B9F70AD00EB41F
:1045B0000C92599A0DB40895000000C0C8950000EF
:1045C000000000C00895CF92DF92EF920F931F93E7
:1045D000CF93DF93FC01448104E0102F141B99F06A
:1045E000EC01C580D680E780212F30E0480F592F9D
:1045F000511D8E2DB601B9DFC10ED11CE11CCD823B
:10460000DE82EF820C83DF91CF911F910F91EF90AB
:10461000DF90CF900895CF938091450A8823D1F001
:10462000CFB7F8948091550A882319F08DE49AE069
:10463000CADF80915E0A882319F086E59AE0C3DF1D
:104640008091670A882319F08FE59AE0BCDF109209
:10465000450ACFBFCF910895CF92DF92EF921F937B
:10466000CF93DF93CDB7DEB7C350CDBF6B01E82E3C
:1046700018B823E030E0AE014F5F5F4F76DF83E094
:10468000C80ED11CE11C1FB7F8941092510AC092B9
:10469000520AD092530AE092540A81E08093550A5C
:1046A0008091550A882319F08DE49AE08CDF898186
:1046B0009A81AB81C80ED91EEA1E10925A0AC09286
:1046C0005B0AD0925C0AE0925D0A81E080935E0A08
:1046D00080915E0A882319F086E59AE074DF809164
:1046E0004D0A2DDF8091560A03DF81E080934C0A4A
:1046F0001FBFCD5FCDBFDF91CF911F91EF90DF90B6
:10470000CF900895CF92DF92EF92CF936B01E82E76
:1047100080914C0A81119ADE18B8CFB7F8941092A4
:10472000510AC092520AD092530AE092540A81E090
:104730008093550A8091550A882319F08DE49AE0F8
:1047400042DF80914D0AFBDECFBFCF91EF90DF902B
:10475000CF900895CF9318B8CFB7F8941092630A0A
:104760006093640A7093650A8093660A81E080937F
:10477000670A8091670A882319F08FE59AE023DFA2
:1047800080915F0AB5DECFBFCF9108959091670AFF
:10479000992329F09091550A911101C0B3CFDACF36
:1047A000E091460AF091470A9F01245F3F4F20584D
:1047B0003440F0F425E021938193919361937193B8
:1047C00080913A0690913B06A0913C06819391938B
:1047D000A193809139068193F0934B0AE0934A0AA2
:1047E00090E080E081939193F093470AE093460A2A
:1047F0000895EF920F93E091460AF091470ADF0186
:104800001696A058B44040F5803891052CF56034D8
:10481000710514F5DC01A40FB11D1A161B06E4F492
:10482000DB01A20FB11D1A161B06B4F497FF02C0DC
:10483000480F80E077FF02C0260F60E032E0E11011
:1048400001C031E0319381936193419321930193AE
:10485000F093470AE093460A0F91EF900895EF9284
:104860000F93E0913006F1E0929182917291629102
:10487000429122910291E0933006EE24E394B9DF55
:104880000F91EF900895EF920F93E0913006F1E0D1
:104890009291829172916291429122910291E09360
:1048A0003006E12CA6DF0F91EF90089530E73CBD74
:1048B000DC0130E8439FC0011124A80FB91F5E91AD
:1048C000352F6111372F3C93C89500C052235EBD30
:1048D0000197A9F704D003D030E50DB43CBD08958D
:1048E0008F929F92AF92BF92CF92DF92EF92FF9200
:1048F000CF93DF93E0913006F1E082919291229183
:104900003291C32ED22EE92EF82E829192912291CD
:10491000EF013A91832E922EA92EB82EC814D904F5
:10492000EA04FB0470F40E94F431A50194012C19EF
:104930003D094E095F090E947D32C60ED71EE81E52
:10494000F91EFE01C192D192E192F192E0933006FC
:10495000DF91CF91FF90EF90DF90CF90BF90AF901D
:104960009F908F9008950E947A1B611571058105B3
:10497000910511F00C9440320895CF930E94741B5E
:104980006AE070E080E0DAD80E946E1BC82F0E94B7
:10499000741B2C2F382FC90101978115944018F4EE
:1049A000C9010E94F21A0E94E81B79D8CF9108959C
:1049B000FC0180858823A9F08181815071F481E018
:1049C0008093450A8481825061F022813381318352
:1049D0002083848381E090810895818380E090E04A
:1049E000089508952F923F924F925F926F927F9217
:1049F0008F929F92AF92BF92CF92DF92EF92FF92EF
:104A00000F931F93CF93DF93CDB7DEB7C350CDBFC6
:104A1000809138068230E1F75E982FE741E050E060
:104A200061E070E085EC99E041DF5C98809142069E
:104A30008F5F833008F080E08093420688EA0E940E
:104A4000B81B8FE30E94B81B5C9A2FEF47E051E040
:104A500061E070E085E496E029DF5C9888EA0E94D6
:104A6000B81B80E00E94B81B5C9A5E9A60E8A62E94
:104A700064E0B62E80E0A81686E0B80608F02EC1E5
:104A8000F50191915F01992309F428C1933009F44C
:104A900078C0F8F4913070F3619081901191E190B9
:104AA00081915F01DD24D39420914206281708F0FC
:104AB000D12C082C000C9908062C000C77080D2D21
:104AC000923009F043C02E2D412FB401C30119D9F2
:104AD000D1CF943009F49CC0953009F0CBCF8191AF
:104AE00091919A8389838190919021913191419103
:104AF0008191C190D1905F0109811A8140903A065D
:104B000050903B0660903C0620933A0630933B065B
:104B100040933C0690914206981708F0CFC084E07D
:104B2000F09039068093390691E0C91AD10808F44B
:104B3000CCC0F50141915F014A3009F0C1C01A8330
:104B400009830E948C1D880E911CEECF21E0412F1D
:104B5000B401C301D6D82E2D41E0B401C301D1D890
:104B6000B4016E0D711D6150710921E0412FC30127
:104B7000C8D8C301810F911D2E2D41E0B4010197CA
:104B8000A6CF8190919061907190C190D190E19069
:104B9000419051905F018E2DB6010E94F11B0E9441
:104BA0006E1B182F0E946E1B082F0E94741BF82F7B
:104BB000E7E0E00FE87F8E2F90E053E09595879532
:104BC0005A95E1F7682FF111660F9201220F331FFA
:104BD000420E531E20914206240D352D311D40E01A
:104BE000169FB0011124072E000C880B0E94193863
:104BF00095E0C90ED11CE11C0E2D7601E60EF71EC4
:104C0000081FCF2E2E2F412FB301C40116D932CF4A
:104C100061907190819081918B835F01882DB301A8
:104C20000E94F11B0E946E1B982E0E946E1B182F73
:104C30000E94741B582E95E0690E711C811C195F2F
:104C4000187F812F90E033E0959587953A95E1F7AD
:104C5000282E5110220C929C100111242091420602
:104C6000229DC001239D900D1124680E791E811C88
:104C7000C101880F991F280E391ED12C412CD50156
:104C8000ED91FD916D915D0170E080E0442D910109
:104C90000E9419387B01082FE60CF71C081D6F2FA6
:104CA000FF0F770BC52C212F492D8E2FEE0F990B5F
:104CB000C4D8D3948B818D1510F7DCCE86E030CF2D
:104CC000B401CE010196AFDA2FCF40923A0650924E
:104CD0003B0660923C06F0923906CCCE1092380624
:104CE000CD5FCDBFDF91CF911F910F91FF90EF90DE
:104CF000DF90CF90BF90AF909F908F907F906F90FC
:104D00005F904F903F902F9008952F923F924F9237
:104D10005F926F927F928F929F92AF92BF92CF924B
:104D2000DF92EF92FF920F931F93CF93DF93CDB754
:104D3000DEB7C851CDBF9C8B8B8BE0913006F1E084
:104D4000829192912291622E792E882E8291929157
:104D500022912E879F87888BE0933006CE010196A3
:104D60009A8B898B90E3592E61147104810409F4A4
:104D70000DC280913806811135DECE010E960E945B
:104D80002B1D0EB5599A1301482C91E0291A3108B0
:104D90004108053229F0802FEB89FC89099518C05C
:104DA000CE010E960E942B1D1EB5599A1301482C58
:104DB000F2E02F1A31084108143609F448C058F4BB
:104DC000133509F4B6C0133609F48EC0153219F341
:104DD000842C3101C9CF133709F48DC008F032C0DB
:104DE0001636B1F7E0913006F1E08291929122916E
:104DF0003291C32ED22EE92EF82ECD8ADE8AEF8A8A
:104E0000F88EE0933006CE010E960E942B1D1EB543
:104E1000599A1301482CF3E02F1A31084108A701D1
:104E20009601C701B6010E941E37882309F4CFC03E
:104E30008EE6EB89FC89099581E6EB89FC89099569
:104E40008EE6AACF153719F0183709F0C1CFE091D7
:104E50003006F1E08291929122913291A32EB22EEE
:104E6000C92ED82EE0933006CE010E960E942B1D3F
:104E7000FEB4599A1301482C83E0281A31084108DE
:104E8000183709F47DC0143609F08FC0D7FE8DC0E5
:104E90008DE2EB89FC890995D094C094B094A094DC
:104EA000A11CB11CC11CD11CFFECFF0E8AE08E01BD
:104EB0000F5F1F4F682E712C912C812CC601B501FC
:104EC000A40193010E947D3259016A0187E56A308D
:104ED00008F480E3860FD8018D938D01FA94232B7B
:104EE000242B252B59F75AC0E0913006F1E00291AE
:104EF000E093300650CFE0913006F1E0829192913C
:104F0000E92EF82E82919291E0933006092F182F06
:104F1000E114F10409F45CCFF80181918F01882339
:104F200009F456CFEB89FC890995F1E0EF1AF108F5
:104F3000EFCFE0913006F1E0829192912291C22E62
:104F4000D92EE82E829192912291E09330062B8700
:104F50009C878D87C114D104E10409F439CFCE01B7
:104F60000B960E942B1D8EB5599A882309F430CFD9
:104F7000EB89FC890995F1E0CF1AD108E108EACF65
:104F800080E1A114B104C104D10489F48E010F5F42
:104F90001F4FD8015D928D01BFECFB0E1F1454F41E
:104FA000F80151928F01FA94F9CF8AE0EACFE0ED4F
:104FB000FE0E7DCF89899A898017910709F408CF61
:104FC000F80182918F01EB89FC890995F3CFE89470
:104FD000F7F82FEF3FEF4FE75FE7C701B6010E94F9
:104FE0001E37811114C02FEF3FEF4FE75FE7C70176
:104FF000B6010E948833181654F489E6EB89FC89BF
:1050000009958EE6EB89FC89099586E6C5CE2FEFDA
:105010003FEF4FE75FE46D897E898F89988D0E940D
:10502000D935181664F02FEF3FEF4FE75FEC6D892D
:105030007E898F89988D0E94883387FF06C08FE60E
:10504000EB89FC89099586E7DDCF20E030E0A901F6
:105050006D897E898F89988D0E94883387FF0DC066
:105060008DE2EB89FC8909958D899E89AF89B88D80
:10507000B0588D8B9E8BAF8BB88F80ED782E710ED4
:1050800010E060E070E080E09FE3171540F42DEC45
:105090003CEC4CEC5DE30E94E4351F5FF6CF2D89BC
:1050A0003E894F89588D0E94AF326B017C010E946E
:1050B000FC334B015C010E9428349B01AC01C70109
:1050C000B6010E94AE326B017C0181149104A104EF
:1050D000B10491F48E010F5F1F4FD8015D928D01D5
:1050E000E989FA89E017F10731F1F80182918F011E
:1050F000EB89FC890995F4CF612C8E010F5F1F4F5E
:10510000C501B4012AE030E040E050E00E947D3269
:1051100049015A01605DF80161938F016A9481141D
:105120009104A104B10461F71614D4F6D8015D927C
:105130008D016A94F9CF772009F44ACE8EE2EB898B
:10514000FC8909957A9477FC43CE20E030E040E278
:1051500051E4C701B6010E94E4354B015C010E9495
:10516000FC33162F80E3810FEB89FC890995612FB1
:1051700070E090E080E00E942A349B01AC01C50100
:10518000B4010E94AE326B017C01DCCFC85ECDBFA2
:10519000DF91CF911F910F91FF90EF90DF90CF9013
:1051A000BF90AF909F908F907F906F905F904F9047
:1051B0003F902F9008950E94741B8DED9CE1A5DD1A
:1051C0000C944F1D0895EF92FF920F931F93CF936E
:1051D000DF93CDB7DEB7C450CDBFE0913006F1E02C
:1051E00012910291F290E290E09330060E94741BBB
:1051F000E982FA820B831C83CE0101969093490ABF
:105200008093480A80EE9CE180DD8B819C81892B14
:1052100019F0E981FA8110820E944F1DCC5FCDBF49
:10522000DF91CF911F910F91FF90EF900895CF9351
:10523000DF93C0E0D3E080E891E0FE01A0E8B4E0B5
:1052400001900D920197E1F780E891E0FE019C0149
:10525000119221503040E1F7D093470AC093460A9B
:1052600010924B0A10924A0AC0913606D091370626
:105270008C2F8D0F809337060E94741B7894809139
:105280006E0A8D1B8C1758F48F5F8C1710F40E94D8
:10529000B31B80913806882389F3A4DBEFCF0E94EB
:1052A0004F1DDF91CF9108950F920FB68F939F936B
:1052B000EF93FF938091690A8D5F8D3708F08D57CA
:1052C0008093690AEAE6FAE080818E4F80839181BB
:1052D0009F4F918382818F4F828383818F4F8383FE
:1052E000EEE6FAE080818F5F808381818F4F81833A
:1052F00082818F4F828383818F4F83838FB18F60B1
:1053000066991C9B88278F3681F48091680A981BC8
:10531000963068F0E0E0F8E087E78083818388E1F9
:1053200080936000F0936000FFCF9093680AFF9134
:10533000EF919F918F910FBE0F901895CF93DF93B0
:10534000CDB7DEB7CA52CDBF89A38093350690E0B2
:10535000E5E4F6E091119FEF8FEF91939193919394
:1053600091938150D0F7599A8ED85E980E94BE1BB7
:105370005C9888EA0E94B81B8FE30E94B81B5C9A75
:105380005E9A29A100E0223040F0009134068BEAB9
:10539000089F012D112406950F5FE9A1E150FF0B35
:1053A000CF01880F991F9C012A523C4C3DA32CA38E
:1053B00011E0F12C802F90E09AA789A7FE01319689
:1053C0004F010E94E01BFF2039F080E80E94D51BAE
:1053D000882311F0FA94182F88E08F0D801728F495
:1053E00080E10E94D51B811190C0112309F416C1E0
:1053F00021E04AEE53E361E081E009D8F9A1F13000
:10540000B1F060E270E080E00E94F11B78E1E72EED
:1054100014E20E946E1B482F61E0812F0E948621BA
:10542000180F1F5FEA94E110F4CF0E94741BE5E4AB
:10543000F6E080E09191DF0111972FE792279C938E
:105440008F5F8038B9F7ECA1FDA14591549121E01F
:1054500068E080E00E94072229A53AA52F193109AA
:10546000C901880F991F820F931FFC01E050FF4F65
:10547000FBA3EAA33F2C11E1301608F0BEC0409018
:1054800031065090320660903306332039F0EAA19D
:10549000FBA1E350FB4F4080518062806CE070E0E4
:1054A00080E00E94F11B0E946E1B282E0E946E1B42
:1054B0008EA30E946E1B8FA30E946E1B88A70E9462
:1054C0006E1BE82E0E946E1BD82E0E94741B90E06B
:1054D000A0E0772766277D296E290E94F11BC12C49
:1054E000D12CE12CB12CA12C712CC414D504E604D0
:1054F000C8F50E946E1B87FD0AC090E00196C80E99
:10550000D91EE11C97FDEA94F0CFF39471CF8D3F43
:1055100030F4FFE7AF1AB108A80EB11CE6CF8D3FFB
:1055200021F40E946E1B782EE0CF8E3F41F40E9442
:105530006E1BA82EB12C0E946E1BB82AD6CF0E94DB
:105540006E1BC82E0E946E1BE82E0E946E1B2C2D17
:1055500030E0CE2CD12CDC2CCC24E12CC22AD32A56
:10556000E82AC3CF0E94741B7214E0F528A5622FAD
:1055700070E080E0862F772766273FA1732B9EA1DE
:10558000692BE0E27E9E90011124620F731F811D42
:1055900037FD8A9520E230E0A4010E94FC1B20E048
:1055A000A401612F88E10E940722FE013696C50101
:1055B0006AE070E00E942238805D82935B01E8150A
:1055C000F905A9F71E8280E0A401480F511DFA01D8
:1055D0009081903311F48F5FF7CF20E0612F80E04E
:1055E0000E94072233941A5F2AA13BA1235031095C
:1055F0003BA32AA31B3309F03FCF5E98E5E4F6E016
:1056000081E0A0E0B8E000800EBC8111012C119770
:10561000A0FDFDCF0192B9F70DB45E9A2FB7F894B3
:1056200080916A0A90916B0AA0916C0AB0916D0A00
:105630002FBF94E1E92EE80E10E02FB7F894809187
:105640006A0A90916B0AA0916C0AB0916D0A2FBF03
:105650003E2D381B37FDB5CE0E94B31BEECF8D3FDC
:1056600038F4FC01419351936193E093300608951F
:1056700085E064DE6F927F928F92CF92DF92EF92FD
:10568000E0913006F1E0829192912291C22ED92EC2
:10569000E82E829072906290E0933006C114D1049B
:1056A000E104C9F00E94741BB301882D0E949E1D65
:1056B000612C712C812C0E946E1B882341F08FEF8E
:1056C000681A780A880A6C147D048E04A1F70E9477
:1056D000741BE82C6301E0913006F1E0CF016E2DE0
:1056E000A601BDDF0E944F1DEF90DF90CF908F90FD
:1056F0007F906F9008958E3F30F4FC016193719319
:10570000E0933006089585E019DEE0913006F1E07F
:10571000BC01CF01F0CF8F929F92AF92BF92CF92F8
:10572000DF92EF920F931F93CF93DF93E0913006B8
:10573000F1E082919291C92FD82F1291029182911A
:1057400092912291C22ED92EE82EB290A2909290E0
:10575000E09330060E94741B692D7A2D8B2D0E94D8
:105760009E1D2097A9F058014E010E946E1BF50165
:1057700081935F01882361F0F1E08F1A910841F075
:1057800081E0C81AD108E10881F7F50180E0819332
:105790000E94741BC801B9DFCE01B7DF0E944F1D04
:1057A000DF91CF911F910F91EF90DF90CF90BF903D
:1057B000AF909F908F9008951F93CF93DF93E091C8
:1057C0003006F1E082919291C92FD82F9291829167
:1057D00022913291632F722F42915291E0933006C1
:1057E0002097A9F0FC01252F342FAE01D9011D917E
:1057F0009D011193112359F04150510941F0DA01F3
:10580000A60FB71FAC17BD0789F720E021937DDFF6
:10581000CE01DF91CF911F9178CFE0913006F1E07A
:1058200082919291292F382F82919291492F582F4E
:10583000E093300690E080E02115310551F0FC0145
:10584000E40FF51F6081662321F00196821793070C
:10585000B1F75BCF8C3F40F4FC01419351936193CE
:105860007193E0933006089585E068DDAB01BC01DB
:10587000E0913006F1E0CF01EDCFB6D5F7CF0E9431
:105880007A1BF4CF2FB7F89460916A0A70916B0A73
:1058900080916C0A90916D0A2FBFE8CF8F3F29F05D
:1058A000FC016193E0933006089585E047DDE091C7
:1058B0003006F1E0682FCF01F1CF0E943822F7CFF8
:1058C0008091760AF4CF80914C0A882319F0809158
:1058D000670AEDCF0E943822FCCF80914C0AE7CFB7
:1058E0006F927F928F92CF92DF92EF921F93CF931E
:1058F000DF93CDB7DEB7C650CDBFE0913006F1E003
:10590000829192912291C22ED92EE82E829192916B
:10591000229129839A838B83829192912291622E84
:10592000792E882E8291929122912C839D838E8351
:10593000E09330060E94741BCE0101960E942B1D3D
:105940001EB5599ACE0104960E942B1D9EB5599AF8
:10595000C114D104E10431F181E0C81AD108E10891
:1059600061147104810401F181E0681A71088108F1
:10597000992329F0191701F38FEF191720F081E00F
:10598000911708F080E093DF0E944F1DCA5FCDBFE2
:10599000DF91CF911F91EF90DF90CF908F907F900C
:1059A0006F90089510E0DCCF90E0E9CFAF92BF9206
:1059B000CF92DF92EF92FF920F931F93CF93DF93DB
:1059C000E0913006F1E082919291C92FD82F129187
:1059D0000291829192912291C22ED92EE82EB290FC
:1059E000A290F290E09330060E94741B6F2D7A2DE6
:1059F0008B2D0E949E1D5801F50111915F010E949F
:105A00006E1B209729F12197C114D104E10411F1F3
:105A100091E0C91AD108E108882329F0181761F329
:105A20009FEF181720F091E0811708F090E0892F80
:105A30003EDF0E94741B0E944F1DDF91CF911F918A
:105A40000F91FF90EF90DF90CF90BF90AF900895AF
:105A500010E0DACF80E0E7CFE0913006F1E082910C
:105A60009291292F382F4291529182919291A92F90
:105A7000B82F62917291E0933006852F942F472FB3
:105A8000562FFC016191CF01FA017191AF01E72F0F
:105A90002115310589F021503109109779F01197BE
:105AA000772329F0671769F38FEF671720F081E0FC
:105AB000E61708F080E0FBCE60E0EFCFE0E0F7CF44
:105AC000CF93E0913006F1E0C291E09330060E945E
:105AD000AB1BC82381E009F080E0CF91E8CECF93E3
